:100000000C9452050C948E2D0C94662D0C947A054C
:100010000C947A050C947A050C947A050C947A0564
:100020000C947A050C947A050C947A050C947A0554
:100030000C947A050C947A050C947A050C947A0544
:100040000C94F22B0C947A050C947A050C947A0596
:100050000C947A050C947A050C947A050C947A0524
:100060000C94472C0C947A05000103070F1F3F7F67
:100070000080C0E0F0F8FCFE00000000003E5B4F96
:100080005B3E3E6B4F6B3E1C3E7C3E1C183C7E3CF8
:10009000181C577D571C1C5E7F5E1C00183C180006
:1000A000FFE7C3E7FF0018241800FFE7DBE7FF3096
:1000B000483A060E2629792926407F050507407F04
:1000C00005253F5A3CE73C5A7F3E1C1C08081C1C77
:1000D0003E7F14227F22145F5F005F5F06097F016D
:1000E0007F006689956A606060606094A2FFA29458
:1000F00008047E040810207E201008082A1C080826
:100100001C2A08081E101010100C1E0C1E0C303873
:100110003E3830060E3E0E06000000000000005F74
:1001200000000007000700147F147F14242A7F2A90
:100130001223130864623649562050000807030052
:10014000001C2241000041221C002A1C7F1C2A089E
:10015000083E080800807030000808080808000001
:1001600060600020100804023E5149453E00427F75
:10017000400072494949462141494D331814127FC4
:100180001027454545393C4A494931412111090764
:100190003649494936464949291E000014000000E5
:1001A00040340000000814224114141414140041B7
:1001B00022140802015909063E415D594E7C121174
:1001C000127C7F494949363E414141227F414141AC
:1001D0003E7F494949417F090909013E4141517327
:1001E0007F0808087F00417F41002040413F017F98
:1001F000081422417F404040407F021C027F7F0460
:1002000008107F3E4141413E7F090909063E4151A8
:10021000215E7F09192946264949493203017F0198
:10022000033F4040403F1F2040201F3F4038403F99
:10023000631408146303047804036159494D4300AF
:100240007F4141410204081020004141417F0402E6
:10025000010204404040404000030708002054547D
:1002600078407F284444383844444428384444285B
:100270007F385454541800087E090218A4A49C78AE
:100280007F0804047800447D40002040403D007F0A
:100290001028440000417F40007C047804787C08EA
:1002A0000404783844444438FC18242418182424BE
:1002B00018FC7C08040408485454542404043F44A3
:1002C000243C4040207C1C2040201C3C4030403CD2
:1002D00044281028444C9090907C4464544C440032
:1002E0000836410000007700000041360800020196
:1002F0000204023C2623263C1EA1A161123A404082
:10030000207A3854545559215555794122545478FE
:1003100042215554784020545579400C1E52721297
:100320003955555559395454545939555454580020
:1003300000457C410002457D420001457C407D1224
:1003400011127DF0282528F07C5455450020545486
:100350007C547C0A097F4932494949323A44444431
:100360003A324A4848303A4141217A3A424020786C
:10037000009DA0A07D3D4242423D3D4040403D3C6D
:1003800024FF2424487E4943662B2FFC2F2BFF0992
:1003900029F620C0887E0903205454794100004486
:1003A0007D413048484A32384040227A007A0A0A71
:1003B000727D0D19317D2629292F282629292926E4
:1003C00030484D4020380808080808080808382F29
:1003D00010C8ACBA2F102834FA00007B00000814B3
:1003E0002A142222142A14085500550055AA55AA89
:1003F00055AAFF55FF55FF000000FF00101010FF29
:1004000000141414FF001010FF00FF1010F010F083
:10041000141414FC001414F700FF0000FF00FF1474
:1004200014F404FC141417101F10101F101F1414C0
:10043000141F00101010F0000000001F101010100A
:100440001F10101010F010000000FF1010101010FE
:1004500010101010FF10000000FF140000FF00FF3C
:1004600000001F10170000FC04F4141417101714D8
:1004700014F404F40000FF00F714141414141414FA
:10048000F700F7141414171410101F101F1414146D
:10049000F4141010F010F000001F101F0000001FD7
:1004A00014000000FC140000F010F01010FF10FF0A
:1004B000141414FF141010101F00000000F010FF9F
:1004C000FFFFFFFFF0F0F0F0F0FFFFFF0000000083
:1004D00000FFFF0F0F0F0F0F3844443844FC4A4A07
:1004E0004A347E02020606027E027E0263554941BC
:1004F000633844443C04407E201E2006027E0202F3
:1005000099A5E7A5991C2A492A1C4C7201724C3006
:100510004A4D4D303048784830BC625A463D3E49DD
:100520004949007E0101017E2A2A2A2A2A44445F81
:10053000444440514A444040444A51400000FF0175
:1005400003E080FF000008086B6B08361236243683
:10055000060F090F060000181800000010100030E8
:1005600040FF0101001F01011E00191D1712003C70
:100570003C3C3C0000000000005EBCE2613FDD83CB
:10058000C29C7E20A3FD1F41009D23BE46DB65F873
:100590008C11AF32CA57E974000000002400270014
:1005A0002A00DB40A4A62EAFDA0281DA1281DA0239
:1005B000818F2000A1C8D300408DAED580A8000057
:1005C0000000250028002B00000060000000000053
:1005D000000000000000000000E00000000000003B
:1005E0000000000000000001E0000000000000002A
:1005F00000000000000001F000000000000000000A
:10060000000000000003F0000000000000000000F7
:100610000000000007F000000000000000000000E3
:1006200000000007F80000000000000000000000CB
:1006300000000FF800000003C0007E000001E00091
:100640007F0FF800000003C000FE000001E000FF83
:10065000EFF800000003C000FE000001E000FFFF13
:10066000F800000003C000F00000000F007FFE7FD4
:10067000C0000003C000F00000000F003FFE7FF844
:100680003FF1FBCFFCFEF3BC3DEFE01FFE7FFF7FA1
:10069000FBFFDFFEFEFFBC3DEFE01FC6FFFF7FFB61
:1006A000FFDFFEFEFFBC3DEFE00FE3C7FE787BC33C
:1006B000DE1EF0FFBC3DEF0007FF87FC787BC3DE4A
:1006C0001EF0F83C3DEF0001FFFFF0007BC3C01EB1
:1006D000F0F03C3DEF0001F37FE03FFBC3CFFEF0C5
:1006E000F03C3DEF0003E33F807FFBC3DFFEF0F013
:1006F0003C3DEF0007E73C00787BC3DE1EF0F03C9A
:100700003DEF0007FFBE00787BC3DE1EF0F03C3DEE
:10071000EF0007FFFE00787BC3DE1EF0F03C3DEFEC
:10072000000FFFFE007FFBFFDFFEF0F03FFDEFE07C
:100730000FFFFF007FFBFFDFFEF0F03FFDEFE00F5C
:10074000F9FF003E79F9CF9EF0F01F3DE7E01FF181
:10075000FF0000000000000000000000001F80FFFC
:10076000007FFFFFFFFFFFFFFFFFFFE01C007F0098
:100770007FFFFFFFFEB46D888D18E000001F007F33
:10078000FFFFFFFE95AD7DB577E000000F007FFF16
:10079000FFFFFEA5AD9D8D19E0000006007FFFFF65
:1007A000FFFEB5ADEDB57EE0000000000001800069
:1007B00000000000000000000380000000000000B6
:1007C00000000007C000000000000000000007C09B
:1007D0000000000000000000000FC000000000004A
:1007E000000000001FE00000000000000000001FEB
:1007F000E00000000000000000003FE000000000FA
:1008000000000000003FF0000000000000000000B9
:100810007FF0000000000000001FF87FF0000000E3
:10082000000000003FFE7FF0000000000000003FDD
:10083000FF7FF0000000000000001FFFFBE0000051
:1008400000000000000FFFF9FFC0000000000000E2
:100850000FFFF9FFF800000000000007FFF1FFFFA5
:1008600000000000000003FC73FFFF800000000098
:100870000001FE3FFFFF80000000000000FF1E0F90
:10088000FF000000000000007FFE1FFC00000000D1
:100890000000003FFFFFF8000000000000000FDF35
:1008A000FFE0000000000000001F19FFC000000072
:1008B000000000003F3CFF00000000000000007E40
:1008C0007CF800000000000000007FFE7C000000BB
:1008D0000000000000FFFFFC00000000000000001E
:1008E000FFFFFE0000000000000000FFFFFE000010
:1008F000000000000001FFEFFE000000000000000B
:1009000001FFCFFE0000000000000003FF07FE0013
:1009100000000000000003FC07FE000000000000D3
:100920000003F003FE00000000000000018000FE54
:10093000000000000000000000007E000000000039
:1009400000000000003E0000000000000000000069
:100950000C000000000000078000FC000003C00045
:100960000000078001FC000003C0000000078001B8
:10097000FC000003C0000000078001E00000001E32
:10098000000000078001E00000001E007FE3F79FE9
:10099000F9FDE7787BDFC0FFF7FFBFFDFDFF787B48
:1009A000DFC0FFF7FFBFFDFDFF787BDFC0F0F787FB
:1009B000BC3DE1FF787BDE00F0F787BC3DE1F078DD
:1009C0007BDE0000F787803DE1E0787BDE007FF78B
:1009D000879FFDE1E0787BDE00FFF787BFFDE1E068
:1009E000787BDE00F0F787BC3DE1E0787BDE00F04D
:1009F000F787BC3DE1E0787BDE00F0F787BC3DE1A6
:100A0000E0787BDE00FFF7FFBFFDE1E07FFBDFC0AA
:100A1000FFF7FFBFFDE1E07FFBDFC07CF3F39F3D0D
:100A2000E1E03E7BCFC000000000000000000000BD
:100A300000FFFFFFFFFFFFFFFFFFFFC0FFFFFFFF04
:100A4000FD68DB111A31C0FFFFFFFFFD2B5AFB6A67
:100A5000EFC0FFFFFFFFFD4B5B3B1A33C0FFFFFF03
:100A6000FFFD6B5BDB6AFDC02200FF210001020479
:100A70000810204080010204081020010204081020
:100A800020000000002300260029000404040404C0
:100A9000040404020202020202030303030303002C
:100AA000B62DE43411241FBECFEFD8E0DEBFCDBF9A
:100AB00024E0AEEDB2E001C01D92AA37B207E1F723
:100AC00012E0A0E0B1E0E0E1F2E702C005900D9293
:100AD000AE3DB107D9F715E0C1E5D5E004C02197D7
:100AE000FE010E94C135C035D107C9F70E94312FE0
:100AF0000C94FB380C94000091E09093DA038093FF
:100B0000D9031092D8031092D70308959091CE0381
:100B10009111FCCF91E09093CE039093CD032FEFF2
:100B20002093CC031092CB03260F2093CA039093FB
:100B3000C9039091C903880F892B8093C9038091C1
:100B4000C803813011F51092C8038091C9038093C6
:100B5000BB008091BC0083FDF8CF85EC8093BC0086
:100B60008091CE038130E1F38091CB03861710F49E
:100B70006091CB0328EA33E0A8E8B3E0F9018E2FB7
:100B8000821B861720F0862F089585EEE7CF81918E
:100B90008D93F5CF8F929F92AF92BF92CF92DF92BB
:100BA000EF92FF92CF93611571058105910521F4B4
:100BB00061E070E080E090E024E0660F771F881F1E
:100BC000991F2A95D1F76115710521E082079105DA
:100BD00008F44EC06115710528E08207910508F4FC
:100BE0004BC06115710520E48207910508F048C0EB
:100BF00020E430E0C3E06901F12CE12CA7010E9460
:100C00002C3749015A0180918000807F80938000B9
:100C1000C861C0938100C9010197909387008093B8
:100C200086008091810087708093870360E074E282
:100C300084EF90E0A70196010E940237AA24BB240A
:100C4000CA01B901A50194010E94023760E472E46F
:100C50008FE090E00E942C37CA01B901CF91FF903C
:100C6000EF90DF90CF90BF90AF909F908F900895BE
:100C700021E030E0C1E0BFCF28E030E0C2E0BBCFF0
:100C800020E031E0C4E0B7CF8091850390918603E6
:100C9000891B990B089508950895482FE62F282F52
:100CA00030E0863009F459C000F58330E1F1853039
:100CB00009F44FC04830E0F14E3010F1443108F0F3
:100CC00063C02E50310981E090E0A0E0B0E004C0A4
:100CD000880F991FAA1FBB1F2A95D2F728B1EE23B0
:100CE00009F44FC0822B88B908958A30C9F18B303E
:100CF000D9F18930F9F6809180008F778093800058
:100D00002850310981E090E0A0E0B0E004C0880FF5
:100D1000991FAA1FBB1F2A95D2F7E1112EC025B13A
:100D2000809582232CC09091B0009F7D9093B0005D
:100D300081E090E0A0E0B0E004C0880F991FAA1FF6
:100D4000BB1F4A95D2F72BB1EE23A1F0822B8BB9B2
:100D5000089594B59F7D94BDEBCF94B59F77FBCF5D
:100D6000809180008F7DCACF8091B0008F77809373
:100D7000B000C6CF80958223EACF25B1822B85B9FA
:100D8000089580958223AFCF089510928603109224
:100D900085031092D8031092D7031092CE0381E0FE
:100DA0008093CD031092C803449A459AE9EBF0E092
:100DB00080818E7F808380818D7F808388E4809393
:100DC000B80085E48093BC008BE496E090938403A4
:100DD000809383038CE496E0909382038093810355
:100DE00008950895CF92DF92EF92FF920F931F9391
:100DF000613009F45BC0623009F490C08830C8F4F7
:100E00009AB141E050E060E070E004C0440F551F2B
:100E1000661F771F8A95D2F7409594239AB98BB1B4
:100E200048234BB91F910F91FF90EF90DF90CF9027
:100E300008958E30B0F424B1082F0850110B81E0D2
:100E400090E0A0E0B0E004C0880F991FAA1FBB1F6C
:100E50000A95D2F78095282324B995B1892385B9BD
:100E6000E1CF8431F8F6E7B190E09C012E503109D2
:100E700041E050E060E070E06A017B0104C0CC0C0E
:100E8000DD1CEE1CFF1C2A95D2F7860100950E236F
:100E900007B928B1089704C0440F551F661F771F74
:100EA0008A95D2F74095422348B9BCCF883078F470
:100EB0009AB141E050E060E070E004C0440F551F7B
:100EC000661F771F8A95D2F7942B9AB9ABCF8E30D5
:100ED00088F424B18850990B41E050E060E070E064
:100EE00004C0440F551F661F771F8A95D2F7242B25
:100EF00024B998CF843108F095CF27B18E50990B43
:100F000041E050E060E070E004C0440F551F661FF0
:100F1000771F8A95D2F7242B27B984CF8830B8F46D
:100F20003AB141E050E060E070E07A018B0104C02A
:100F3000EE0CFF1C001F111F8A95D2F7C7012E2D42
:100F4000209523232AB92BB1822B8BB96BCF8E30FE
:100F5000B0F434B1082F0850110B81E090E0A0E00C
:100F6000B0E004C0880F991FAA1FBB1F0A95D2F7D3
:100F7000282F2095232324B925B1822B70CF8431CB
:100F800008F050CF37B1682F6E50770B81E090E0BA
:100F9000A0E0B0E004C0880F991FAA1FBB1F6A958C
:100FA000D2F7282F2095232327B928B1822B88B97F
:100FB00039CFCF92DF92EF92FF920F931F93CF938F
:100FC000DF937C016A0110E000E00C151D0581F043
:100FD000EB01D701ED91FC910190F081E02D699139
:100FE000C7010995892B21F00F5F1F4FBE01EDCF7F
:100FF000C801DF91CF911F910F91FF90EF90DF908B
:10100000CF900895880F991F880F991F0597019712
:10101000F1F708953FB7F89480915D0390915E03D6
:10102000A0915F03B091600326B5A89B05C02F3F38
:1010300019F00196A11DB11D3FBFBA2FA92F982FFE
:101040008827BC01CD01620F711D811D911D42E0F9
:10105000660F771F881F991F4A95D1F708958F92C1
:101060009F92AF92BF92CF92DF92EF92FF926B016D
:101070007C010E940A084B015C01C114D104E10407
:10108000F104B9F00E940A08681979098A099B09D4
:10109000683E73408105910580F381E0C81AD1084C
:1010A000E108F10828EE820E23E0921EA11CB11C7B
:1010B000E4CFFF90EF90DF90CF90BF90AF909F90E4
:1010C0008F9008952FB7F8946091590370915A0347
:1010D00080915B0390915C032FBF089520910001E4
:1010E00090E4299F900111248E50822B80937C00E4
:1010F00080917A00806480937A0080917A0086FDE6
:10110000FCCF80917800909179000895E0E06150E3
:1011100098F0DC018D918E27E82FEF70F0E0E85811
:10112000FA4F9491E82FE295EF70F0E0E857FA4F0C
:10113000E491E927CD01EBCF8E2F08950F931F93F4
:10114000CF93DF93FC011081C181D281F894898112
:10115000812B89838A81012F009580238A8383E0F4
:1011600090E00E9402088981802389838AE090E0D0
:101170000E940208C881789485E390E00E940208EA
:10118000C12381E009F480E0DF91CF911F910F919D
:1011900008951F93CF93DF93FC011081C181D28109
:1011A000912F909560FF16C0F8948A8189238A83D5
:1011B0008981812B89838AE090E00E9402088A81DC
:1011C000182B1A83789487E390E0DF91CF911F91D9
:1011D0000C940208F8948A8189238A838981812B5F
:1011E000898381E490E00E9402088A81182B1A8387
:1011F000789485E090E0E9CFDF92EF92FF920F9331
:101200001F93CF93DF93EC01D62EE42E08E010E07D
:10121000FF24F39461E08D2D8F2109F460E0CE016D
:101220000E94C908FF0C01501109A1F7E11010C07C
:10123000F894E981FA81918188818095892381835D
:10124000E981FA81928188818095892382837894CB
:10125000DF91CF911F910F91FF90EF90DF90089554
:10126000EF92FF920F931F93CF93DF938C017B013B
:1012700040E065E50E94FC08E70188E0E80EF11C0B
:10128000699140E0C8010E94FC08CE15DF05C1F756
:10129000DF91CF911F910F91FF90EF900895FF92F2
:1012A0000F931F93CF93DF93FC010081C181D28103
:1012B000F8948981F02EF0948F21898378941DE72A
:1012C000115029F182E090E00E9402088881802379
:1012D000B9F3F8948A818F218A838981802B89834D
:1012E000789480EE91E00E940208F89489818F2121
:1012F000898386E490E00E9402088881082311E037
:1013000009F010E078948AE991E00E940208812FA8
:10131000DF91CF911F910F91FF900895AF92BF92EF
:10132000CF92DF92EF92FF920F931F93CF93DF93B1
:101330008B01BC018091E5039091E6030E94300986
:1013400040E06EEB8091E5039091E6030E94FC087B
:10135000E801680189E0C80ED11CA090E503B090B7
:10136000E60388E0E82EF12C10E001E0C5010E94C0
:101370009E088111102B000F81E0E81AF108B1F7E7
:101380001993CC16DD0649F78091E5039091E603A9
:101390000E944F0991E0813009F090E0892FDF91A0
:1013A000CF911F910F91FF90EF90DF90CF90BF9062
:1013B000AF9008950F931F93CF93DF93CDB7DEB710
:1013C00029970FB6F894DEBF0FBECDBF8C01FC018C
:1013D0008081803181F18091E5039091E6030E9444
:1013E0004F0981110CC080E029960FB6F894DEBF3A
:1013F0000FBECDBFDF91CF911F910F910895BE0118
:101400006F5F7F4FC8010E948E09882361F368E0F7
:10141000CE0101960E94860899858913E4CF8D81BB
:101420008F3359F020F48F31F1F689E0DDCF8F351D
:1014300031F08F37C1F68CE0D7CF8AE0D5CF8BE083
:10144000D3CF0895FC016370668B848195812681DA
:101450003781623021F0633039F0613029F09187B3
:1014600080873387228708953187208793878287F3
:1014700008952F923F924F925F926F927F928F9238
:101480009F92AF92BF92CF92DF92EF92FF920F9313
:101490001F93CF93DF93CDB7DEB76A970FB6F8945B
:1014A000DEBF0FBECDBF9A8F898F7A8369834A01D1
:1014B000D22E18870F833701BC2CDC0159962D9151
:1014C0003C915A972115310509F015C118968D9157
:1014D0009C911997681779070CF0D7C11A968D91CE
:1014E0009C91481759070CF0D0C14C2C512CB6E0F8
:1014F000CB9E600D711D11247C876B871616170615
:101500000CF0C3C1EA2DF0E0FA87E98793E0EE0F13
:10151000FF1F9A95E1F7F88BEF87CF01840F951F96
:10152000181619060CF0B1C1A98DBA8D58968C9178
:10153000811104C0BFEABD1508F4D394A98DBA8DFA
:10154000ED91FC9111970284F385E02DCD01099571
:10155000B5E0DB9EC0011124E981FA81FC83EB83B5
:10156000312C212C9C0128583F4F388F2F8B4A2D2E
:1015700050E05E8B4D8BEF89F88DE20DF31D4491A9
:101580009E828D82D12CC12C69817A81620D731D5E
:101590007A8B698B842F90E09C8B8B8BE98DFA8DF5
:1015A000A081B18140FF82C0F1E0BF126FC0AF12D5
:1015B0006DC01C96ED91FC912F813885A4014C0DD6
:1015C0005D1D69897A89898D9A8D0995EB89FC89D8
:1015D000F595E7954E2F5FEFC51AD50A6D817E818F
:1015E0008D899E89680F791F7E836D8398E0C91667
:1015F000D10481F6AFEF2A1A3A0AEB81FC81E40D9F
:10160000F51DFC83EB83F5E02F16310409F0B3CF11
:101610002F81388526153705B9F0A98DBA8DED9142
:10162000FC91B1E0BB1257C0AB1255C069817A8101
:101630006B5F7F4F0088F189E02D830128E030E067
:10164000A401898D9A8D0995A98DBA8DED91FC9192
:1016500011970688F789E02DCD016A960FB6F894A8
:10166000DEBF0FBECDBFDF91CF911F910F91FF90D5
:10167000EF90DF90CF90BF90AF909F908F907F9032
:101680006F905F904F903F902F9009941E96ED9130
:10169000FC91EF80F88409851A8592014D815E8165
:1016A0006B817C81898D9A8D099590CF2F813885AA
:1016B0002615370509F48ACF31E0B31207C0A3120B
:1016C00005C01C96ED91FC91930178CF1E96ED918B
:1016D000FC917301E0CF6B857C85641975090684E4
:1016E000F785E02D73010F8518899201A401898D7A
:1016F0009A8D0995A9CFF901349694913297459125
:101700005491D91AB7E0DB9E400D511D1124F90107
:10171000259134913C8B2B8BFA0125903490FA0162
:101720003296749031963491398B3296649031961A
:10173000449041E04C1518F04A1508F07FC0662D22
:10174000062C000C770B7C836B83842D042C000CFF
:10175000990B9E838D83A98DBA8DED91FC91119784
:101760000284F385E02DCD010995512CD12CC12C9B
:10177000EA2DF0E0FA87E9872B2D30E03C872B87B4
:10178000A401440D511D47FC5A95588F4F8B698118
:101790007A81660D711D67FC7A957E876D877989E0
:1017A000C71608F051CF2C2D30E04D815E81420FDD
:1017B000531FA985BA854A9FC0014B9F900D5A9F20
:1017C000900D1124FC01E80DF91DF88BEF87852D94
:1017D000612C4F89588D420F531F5E8B4D8B6714C0
:1017E00008F050C044244394480E877041F4C1016E
:1017F0000196EB89FC89E20DF31DD4901C01D7FE04
:1018000019C0A98DBA8DED91FC91662D70E0B1E003
:10181000BB1219C0AB1217C02D853E85620F731F16
:101820000484F585E02D2F8138854D895E89898D69
:101830009A8D0995DD0C6394842DD1CF1E821D8273
:101840001C821B8288CF4B815C81640F751FAB8526
:10185000BC856A9FC0016B9F900D7A9F900D1124EB
:1018600069817A81680F791F0684F785E02DEF8002
:10187000F88409851A859D014F855889898D9A8D2F
:101880000995D8CF570CC3948ACF6A960FB6F894AF
:10189000DEBF0FBECDBFDF91CF911F910F91FF90A3
:1018A000EF90DF90CF90BF90AF909F908F907F9000
:1018B0006F905F904F903F902F9008958F929F92DE
:1018C000AF92CF92EF92FF920F931F93CF93DF933C
:1018D000EC01262F898D9A8D009709F051C06A304E
:1018E000D1F41D861C868D8948E0849F90011124C7
:1018F0008E859F85820F931F9F878E8781E090E062
:10190000DF91CF911F910F91FF90EF90CF90AF900B
:101910009F908F9008956D3089F3CC88AD888F8922
:101920008823C1F08C859D8536E0C39E800D911D76
:101930001124488559854817590764F44E855F85F9
:101940001D861C8638E0A39EC0011124840F951FBC
:101950009F878E87EA88FB88088919894E855F856D
:101960006C857D85CE010E94390A2C898C859D85E8
:1019700046E0249F800D911D11249D878C87BECF4A
:101980006A3069F41D861C86FC013896E4912D8925
:101990008E859F85E29F800D911D1124ADCF6D3006
:1019A00009F4ACCFFC0134963491631708F4A6CF48
:1019B0003296E491E61708F4A1CFFC0132968590A7
:1019C0009490462F431B342F47E0349F800C911C8A
:1019D0001124F401329634913196E4913323A9F124
:1019E000EE2399F1CC88F4013596E491AD884F89C6
:1019F000442301F10E2E000CFF0BE30FF11DCE9ED0
:101A0000A001CF9E500D11246C857D85460F571F78
:101A100068857985641775076CF44E855F851D862A
:101A20001C86FC013896E491AE9E400D511D112498
:101A30005F874E87EA88FB88088919894E855F850C
:101A40006C857D85CE010E94390AF4013496E491BB
:101A50002C898C859D85E29F800D911D11248DCF51
:101A6000682F8DE094E00C945E0C6F927F928F92C1
:101A70009F92AF92BF92CF92DF92EF92FF920F931D
:101A80001F93CF93DF93EC016B015A013901480199
:101A9000E881F9810284F385E02D0995E881F981D7
:101AA0000288F389E02D87019301A501B601CE01DB
:101AB0000995A501480D591D41505109E881F98149
:101AC0000288F389E02D9301B601CE010995E881E2
:101AD000F9810088F189E02D9401A501B601CE01BC
:101AE0000995C60CD71CB60161507109E881F981CE
:101AF0000088F189E02D9401A501CE010995E881C6
:101B0000F9810688F789E02DCE01DF91CF911F91F1
:101B10000F91FF90EF90DF90CF90BF90AF909F908C
:101B20008F907F906F9009948F929F92AF92BF9207
:101B3000CF92DF92EF92FF920F931F93CF93DF9399
:101B40004C016B015A01E901DC01ED91FC91621736
:101B5000730709F50417150724F48B2D5801042F7A
:101B6000182F0A191B0998012F5F3F4F048CF58D20
:101B7000E02D8701A501B601C4010995DF91CF9140
:101B80001F910F91FF90EF90DF90CF90BF90AF909B
:101B90009F908F9008954017510781F426173707BB
:101BA00024F48D2D6901C62FD82F9E012C193D09D3
:101BB0002F5F3F4F068CF78DE02DDBCF0284F3853E
:101BC000E02D0995D401ED91FC910488F589E02D73
:101BD0009E01A501B601C4010995D401ED91FC91C6
:101BE0000688F789E02DC401DF91CF911F910F91F5
:101BF000FF90EF90DF90CF90BF90AF909F908F902D
:101C00000994EF92FF920F931F93DC011A960D91A6
:101C10001C911B9718962D913C911997ED91FC9171
:101C200000A0F1A1E02D7B0150E040E070E060E019
:101C300009951F910F91FF90EF9008954F925F9239
:101C40006F927F928F929F92AF92BF92CF92DF92CC
:101C5000EF92FF920F931F93CF93DF936C012B01B1
:101C60005A0139014801DC01ED91FC910284F385B0
:101C7000E02D0995E201640C751CD601ED91FC91F3
:101C8000C615D7055CF40088F189E02D8701940121
:101C9000A501BE01C60109952196EFCF0688F789F7
:101CA000E02DC601DF91CF911F910F91FF90EF9032
:101CB000DF90CF90BF90AF909F908F907F906F906C
:101CC0005F904F9009948F929F92AF92BF92CF9264
:101CD000DF92EF92FF920F931F93CF93DF93EC016C
:101CE0005B014A016901E881F9810284F385E02DF5
:101CF000099595012C0D3D1D21503109E881F9818F
:101D00000488F589E02D78018401A401B501CE0194
:101D10000995E881F9810688F789E02DCE01DF91E8
:101D2000CF911F910F91FF90EF90DF90CF90BF90D8
:101D3000AF909F908F9009948F929F92AF92BF9295
:101D4000CF92DF92EF92FF920F931F93CF93DF9387
:101D5000EC015B014A0169017801E881F9810284A3
:101D6000F385E02D0995C80CD91C86010150110995
:101D7000E881F9810488F589E02D9501A401B50178
:101D8000CE010995E881F9810688F789E02DCE0119
:101D9000DF91CF911F910F91FF90EF90DF90CF9047
:101DA000BF90AF909F908F900994EF92FF920F9306
:101DB0001F93DC01ED91FC9100A0F1A1E02D0995AC
:101DC0001F910F91FF90EF9008950F931F93DC01E7
:101DD000ED91FC91068CF78DE02D09951F910F91E7
:101DE00008950F931F93DC01ED91FC91048CF58D08
:101DF000E02D09951F910F910895DC01ED91FC9163
:101E00000084F185E02D09943F924F925F926F928A
:101E10007F928F929F92AF92BF92CF92DF92EF927A
:101E2000FF920F931F93CF93DF935C017B014A01D5
:101E30006901390187E0680E711C93E0759467941D
:101E40009A95E1F72B01400E511E10E000E0312C75
:101E5000D0E0C0E0CE0187709927330C892B59F46C
:101E6000FE0183E0F595E7958A95E1F7E00FF11F14
:101E7000E80DF91D349037FE0AC021E030E0A701DB
:101E8000B5016C0F7D1F8DE094E00E94FD0E219640
:101E9000CC16DD06F9F68FEFE81AF80A060D171DC5
:101EA000E414F504A9F6DF91CF911F910F91FF90F3
:101EB000EF90DF90CF90BF90AF909F908F907F90EA
:101EC0006F905F904F903F9008952F923F924F9266
:101ED0005F926F927F928F929F92AF92BF92CF92BA
:101EE000DF92EF92FF920F931F93CF93DF9300D077
:101EF00000D000D0CDB7DEB72C017E836D836A01A0
:101F00005901C801FC82EB824801841A950A97FEA8
:101F100003C091948194910835012D813E81621A0C
:101F2000730A77FE03C07194619471086814790490
:101F30005CF43A2D2B2D5C01832F922F3D812E8155
:101F4000DE82CD82C32ED22EAD81BE81AA16BB0603
:101F50005CF43C2D2D2D6C01832F922F3D812E8121
:101F6000BE82AD82A32EB22E85012D813E81021B41
:101F7000130B1C012C183D0837FE03C0319421942B
:101F80003108780117FF03C03FEFE31AF30AF59415
:101F9000E794C816D90664F18FEF9FEF9A8389837F
:101FA0002D813E81A216B30644F1D201ED91FC9140
:101FB0000484F585E02D2B813C814D815E81B60145
:101FC000681479041CF0A6016D817E81C201099517
:101FD000E218F308F7FE06C029813A81C20ED31E2B
:101FE000E00EF11E8D819E8101969E838D83D8CF58
:101FF000A1E0B0E0BA83A983D3CF26960FB6F894B8
:10200000DEBF0FBECDBFDF91CF911F910F91FF902B
:10201000EF90DF90CF90BF90AF909F908F907F9088
:102020006F905F904F903F902F90089585ED809333
:10203000BC008091BC0084FDFCCF1092CE030895BB
:1020400020913503260F3327331F21323105ECF45D
:102050002091CE03FC0190E080E0243069F082E022
:102060000895A09135032191AC014B5E5C4FA40F04
:10207000B52FB11D2C930196861798F380913503E7
:10208000680F6093350380E0089581E00895E09142
:10209000860380918503E81730F4F0E0E857FC4FA1
:1020A000808190E008958FEF9FEF089590918603CF
:1020B000809185032FEF3FEF981748F4E92FF0E068
:1020C000E857FC4F208130E09F5F90938603C90161
:1020D0000895CF92DF92EF92FF920F931F93CF93C9
:1020E000DF937C01CB018A012091DA03222389F05E
:1020F000EB016B01C40ED51ECC15DD0569F06991AD
:10210000D701ED91FC910190F081E02DC701099577
:10211000F3CF642F0E942010C801DF91CF911F914F
:102120000F91FF90EF90DF90CF900895CF93DF93C2
:102130000F92CDB7DEB769832091DA032223F9F03D
:102140002091D703203258F021E030E0FC013383A6
:10215000228390E080E00F90DF91CF9108958091ED
:10216000D803E82FF0E0EB50FD4F998190838F5F0B
:102170008093D8038093D70381E090E0ECCF61E0B7
:10218000CE0101960E942010F7CF682F81E094E0E5
:102190000C9496102091D70381E0213208F046C0BC
:1021A0008091CE038111FCCF9091D90332E030931E
:1021B000CE0331E03093CD033FEF3093CC03109248
:1021C000CB032093CA0345EF52E0A8EAB3E0FA013B
:1021D0003E2F341B321788F11092C9032091C90396
:1021E000990F922B9093C9039091C803913041F5B8
:1021F0001092C8039091C9039093BB009091BC00CA
:1022000093FDF8CF95EC9093BC009091CE03923063
:10221000E1F39091CC039F3F49F08091CC03803251
:1022200089F08091CC03803379F084E01092D80358
:102230001092D7031092DA03089531913D93C8CFDD
:1022400095EEE1CF82E0F2CF83E0F0CFCF9388E646
:102250000E947C0560E081E094E00E94961060E8B6
:1022600081E094E00E9496108091D003CAE06C2F28
:102270000E9403358295807F682F690F81E094E08A
:102280000E9496108091D1036C2F0E940335829595
:10229000807F682F690F81E094E00E949610809102
:1022A000D2036C2F0E9403358295807F682F690FBF
:1022B00081E094E00E9496108091D3036C2F0E94DD
:1022C00003358295807F682F690F81E094E00E943A
:1022D00096108091D4036C2F0E9403358295807FE5
:1022E000682F690F81E094E00E9496108091D503D9
:1022F0008E516C2F0E9403358295807F682F690F65
:1023000081E094E00E94961081E094E00E94CA105F
:10231000882329F01092D60380E0CF91089581E0C0
:102320008093D60388E60E947C0560E081E094E01B
:102330000E9496108091CF036C2F0E9403358295E6
:10234000807F682F690F81E094E00E94961081E001
:1023500094E00E94CA108111DDCF81E0DECFBF92F0
:10236000CF92DF92EF92FF920F931F93CF93DF9361
:102370008C017B01E40EF51EEB01B99068018FEF33
:10238000C81AD80A809175040E947C05812F90E0BC
:102390000E94C510C80199270E94C5106B2D81E0CD
:1023A00094E00E94961081E094E00E94CA106AE0D6
:1023B00070E080E090E00E942F08BE018601CE15FB
:1023C000DF05D1F6DF91CF911F910F91FF90EF9034
:1023D000DF90CF90BF9008950F931F93CF93DF931B
:1023E000EC01EC81FD816E177F070CF073C0DA0100
:1023F000A20FB31F57FF03C09D0150E040E08E8144
:102400009F818A179B071CF49C01241B350B121615
:1024100013060CF05FC0922F842F869586958695C3
:102420008E9FD0018F9FB00D1124A60FB71F6F8D07
:1024300078A1A60FB71F477059F188E0841B482F79
:10244000682F70E0FB01E059FF4FE491281708F076
:1024500065C0621B71092FEF30E002C035952795EA
:102460006A95E2F7E2230130110549F001151105E3
:10247000B1F10230110571F58C91E82702C08C9101
:10248000E82BEC93941730F12C813D81A20FB31F00
:10249000E92FE41BE83078F00230110521F58E2F8A
:1024A0009C9190959C932C813D81A20FB31F8850E5
:1024B0008830B0F7E770EE2369F0F0E0E859FF4F9D
:1024C000E49101301105F9F00115110501F1023017
:1024D000110509F1DF91CF911F910F910895E095BA
:1024E0008C91E823CECF81E00115110509F480E03D
:1024F00081959E2F8C932C813D81A20FB31F985004
:102500009830C0F7D7CF8C91E82BEC93E3CFE095D0
:102510008C91E823FACF8C91E827F7CF0130110591
:1025200009F4ADCF01151105D1F20230110509F4FE
:10253000A3CFAACF0F931F93CF93DF93FB01E20F9B
:10254000F31F77FF03C09F0170E060E0DC01149689
:10255000CD91DC91CE17DF071CF49E01261B370BB3
:10256000121613065CF5FA0157FD3796A3E0F595B0
:10257000E795AA95E1F7EC9FD001ED9FB00DFC9F88
:10258000B00D11246A0F7B1FDC015F96ED91FC9169
:10259000E60FF71F4770552781E090E001C0880FD4
:1025A0004A95EAF7482F0130110569F00115110528
:1025B000A9F02E0F3F1F02301105E1F0DF91CF91FE
:1025C0001F910F9108952E0F3F1FE217F307B1F3EC
:1025D000DF018D91842B8083FD01F7CF80952E0F35
:1025E0003F1F2E173F0751F3DF019D9198239083E2
:1025F000FD01F7CFE217F30709F3DF018D9184277F
:102600008083FD01F7CF0F931F93FA01DC015696EB
:102610004C9156974230E9F04330A1F1413061F5D9
:1026200014964D915C91DA01AE1BBF0BFD01E21BCC
:10263000F30B77FD0BC0DC0116964D915C9164178E
:10264000750724F4AB01BF010E949A121F910F91EC
:10265000089514964D915C91DA01A61BB70BBD014C
:1026600061507109DC0116964D915C91DA01AE1B47
:10267000BF0BFD01E21BF30B77FDE8CFAF010E941A
:10268000EC11E4CF16964D915C91DA01A61BB70BC5
:10269000BD0161507109CDCF0F931F93FA01DC0189
:1026A00056964C9156974230A9F0433091F1413003
:1026B00019F514964D915C91DA01AE1BBF0BFD012B
:1026C0003197F7FD04C0AB01BF010E94EC111F91CF
:1026D0000F91089514964D915C91DA01A61BB70BEA
:1026E000BD01DC0116964D915C91DA01AE1BBF0B6A
:1026F000FD013197621B730BF7FDE9CFDC011696E4
:102700004D915C91E417F50714F7AF010E949A12FE
:10271000DECF16964D915C91DA01A61BB70BBD0179
:10272000621B730BCECFFC0177FD66C0808591855F
:10273000681779070CF060C057FD5EC082859385ED
:10274000481759070CF058C086898230C1F0833091
:1027500039F1813041F484819581841B950BAB0163
:10276000BC01615071092130310519F12115310584
:1027700009F443C02230310509F463C0089584810F
:102780009581DC01A61BB70BBD01615071098681E3
:102790009781DC01A41BB50BAD0141505109E3CF7A
:1027A00086819781861B970BBA01AC014150510974
:1027B000DACFCA0157FD0796A3E095958795AA95AC
:1027C000E1F7A481B5818A9F90018B9F300D9A9F7C
:1027D000300D1124620F731F078CF0A1E02DE60F5E
:1027E000F71F4770552721E030E001C0220F4A95BE
:1027F000EAF78081822B80830895CA0157FD0796EE
:1028000033E0959587953A95E1F7A481B5818A9F44
:1028100090018B9F300D9A9F300D1124620F731F12
:10282000078CF0A1E02DE60FF71F4770552781E0D8
:1028300090E001C0880F4A95EAF78095908189233E
:10284000DACFCA0157FD079623E0959587952A951B
:10285000E1F7A481B5818A9F90018B9F300D9A9FEB
:10286000300D1124620F731F078CF0A1E02DE60FCD
:10287000F71F4770552721E030E001C0220F4A952D
:10288000EAF780818227B7CF08958EBD00000DB48E
:1028900007FEFDCF8EB50895FF920F931F93CF9340
:1028A000DF93F82ED92FC62F80912A0490912B0404
:1028B000892B09F447C080912E040E947C058091E9
:1028C0002A0490912B04DC01ED91FC910190F081A0
:1028D000E02D60E009950F2D1D2FD1E0C1508091B2
:1028E0002A0490912B04CF3F31F1D03298F00E940E
:1028F000CA1080912E040E947C0580912A04909138
:102900002B04DC01ED91FC910190F081E02D60E061
:102910000995D1E080912A0490912B04F8016491EB
:10292000DC01ED91FC910190F081E02D0995DF5FD4
:102930000F5F1F4FD3CFDF91CF911F910F91FF906A
:102940000C94CA10E0913A04F0913B04908180917C
:1029500040048095892380830F2D1D2FC15008F4DA
:1029600038C0F80184912091280430912904232B48
:1029700029F00E9445140F5F1F4FF0CF28E030E090
:1029800040E8E0913604F091370490913E04582FCE
:102990005423D9F05081952B9083E0913804F09125
:1029A0003904908150913F04952B9083E091380435
:1029B000F0913904508190913F0490959523908334
:1029C000469521503109E9F6D6CF5081909595234F
:1029D000E3CFDF91CF911F910F91FF9008951F9347
:1029E000CF93DF93EC01162F8D8D9E8D892BF1F007
:1029F00089A10E947C058D8D9E8DDC01ED91FC915D
:102A00000190F081E02D60E009958D8D9E8DDC01B7
:102A1000ED91FC910190F081E02D612F09958D8D54
:102A20009E8DDF91CF911F910C94CA10EDA5FEA54C
:102A300090818BA98095892380838B8D9C8D892B98
:102A400031F0862FDF91CF911F910C94451428E02F
:102A500030E090E8E9A5FAA589A9412F4923C1F002
:102A60004081842B8083EBA5FCA580814AA9842B1F
:102A70008083EBA5FCA540818AA98095842380836F
:102A800096952150310931F7DF91CF911F9108952B
:102A9000408180958423E6CF8CBD9DBD0895FF9233
:102AA0000F931F93CF93DF9380912A0490912B046F
:102AB000892B09F472C08CE08093B80065E088E649
:102AC0009AE00E944C146091110461508DE094E0F2
:102AD0000E94EF142091130430911404C901079649
:102AE00097FD079623E0959587952A95E1F7209124
:102AF000110430911204829F8001839F100D929FD8
:102B0000100D1124C0912C04D0912D0480912A0421
:102B100090912B040C0F1D1F892B09F47CC0809110
:102B20002E040E947C0580912A0490912B04DC01E4
:102B3000ED91FC910190F081E02D60E40995FF2476
:102B4000F39480912A0490912B04C017D107E1F1EE
:102B5000BFE1BF15A0F40E94CA1080912E040E940C
:102B60007C0580912A0490912B04DC01ED91FC916D
:102B70000190F081E02D60E40995FF24F3948091A9
:102B80002A0490912B04DC01ED91FC910190F081DD
:102B9000E02D69910995F394D4CF80912804909108
:102BA0002904892B31F080914204909143040E94C2
:102BB0004C15E0913C04F0913D04908180914104DA
:102BC0008095892380837ACF0E94CA1080912A043D
:102BD00090912B04892B09F45FC02091440430911B
:102BE0004504409146045091470460E074E284EF4C
:102BF00090E00E942C372051310941095109569526
:102C00004795379527952093B800DF91CF911F9175
:102C10000F91FF900895E0913A04F0913B04808178
:102C200090914004892B80830C171D0779F28991BC
:102C30002091280430912904232B19F00E94451477
:102C4000F3CF28E030E040E8E0913604F09137041B
:102C500090913E04582F5423D9F05081952B9083A6
:102C6000E0913804F0913904908150913F04952B04
:102C70009083E0913804F0913904508190913F04A1
:102C8000909595239083469521503109E9F6CCCF54
:102C9000508190959523E3CFE0913C04F0913D0461
:102CA000808190914104892B8083AFCF1F93CF9374
:102CB000DF93EC01162F8D8D9E8D892B29F18CE0F1
:102CC0008093B80066EA111167EACE010E94EF1402
:102CD0008D8D9E8D892B41F12FA938AD49AD5AAD0F
:102CE00060E074E284EF90E00E942C3720513109BB
:102CF0004109510956954795379527952093B80076
:102D0000DF91CF911F9108958B8D9C8D892B21F0A0
:102D10008DA99EA90E944C15EFA5F8A990818CA9B8
:102D2000809589238083CECFEFA5F8A980819CA9C7
:102D3000892B8083E5CF089590E080E0089580930B
:102D4000BB0084E88093BC008091BC0087FFFCCF6F
:102D50009091B900987F81E0983231F0983129F054
:102D6000903419F080E008950895089584EA8093DE
:102D7000BC008091BC0087FFFCCF8091B900887FA8
:102D800019F080EC0C949F1680E008955F926F928A
:102D90007F928F929F92AF92BF92CF92DF92EF92EB
:102DA000FF920F931F93CF93DF93CDB7DEB7582ECB
:102DB000742E652EB62E922E0E94B616852D0E9478
:102DC0009F168D2D0E949F168C2D0E949F168B2D75
:102DD00083708A2990E081109CE0892B0E949F16C5
:102DE000862D0E949F16872D0E949F168CE0F694D8
:102DF000E794D794C7948A95D1F78C2D807FC82EFD
:102E0000892D8F708C290E949F16812F0E949F16FA
:102E1000802F0E949F1684E98093BC008091BC00A3
:102E200084FDFCCFDF91CF911F910F91FF90EF9028
:102E3000DF90CF90BF90AF909F908F907F906F90DA
:102E40005F9008954F925F926F927F928F929F92C0
:102E5000AF92BF92CF92DF92EF92FF920F931F93A8
:102E6000CF93C82FC0906C04D0906D04E0906E0496
:102E7000F0906F04CB01BA01A70196010E942C3794
:102E800049015A0125E0F694E794D794C7942A950E
:102E9000D1F735E096958795779567953A95D1F76F
:102EA00047E0660F771F881F991F4A95D1F7A70142
:102EB00096010E942C3729013A018B019C01B50132
:102EC000A401552766277727E7E0440F551F661FA3
:102ED000771FEA95D1F7525061097109440D551DCC
:102EE000661D771D812CA12C8C2F0E94C616CF91B8
:102EF0001F910F91FF90EF90DF90CF90BF90AF9018
:102F00009F908F907F906F905F904F9008958F92D9
:102F1000AF92CF92DF92EF92FF920F931F9388248C
:102F20008394443051056105710509F0812C4450AA
:102F3000510961097E4F97E0440F551F661F771FA7
:102F40009A95D1F7A22EC12CD12C7601C39400E022
:102F500010E098010E94C6161F910F91FF90EF900C
:102F6000DF90CF90AF908F900895CF93DF93D82FBD
:102F7000C62F0E94B6168D2F0E949F168C2F0E947E
:102F80009F1684E98093BC008091BC0084FDFCCF37
:102F9000DF91CF910895CF93C82F60E880E18C0F27
:102FA0000E94B517EC2FF0E0EE0FFF1FEC5AFB4F1D
:102FB00011821082CF9108954F925F926F927F920B
:102FC000AF92BF92CF92DF92EF92FF920F931F9337
:102FD000CF93DF93D82F082F10E0F801EE0FFF1FDB
:102FE000EE0FFF1FE05AFB4F4080518062807380DC
:102FF000411451046104710489F48D2FDF91CF9144
:103000001F910F91FF90EF90DF90CF90BF90AF9006
:103010007F906F905F904F900C94CB175801AA0C43
:10302000BB1CF501EC5AFB4FC080D180F12CE12C88
:103030000C5A1B4FF801C681A3019201C701B601CA
:103040000E94F3349B01AC01EC2FF0E0ED5AFE4FEF
:10305000A081B0E00E9421379B01AC012058344789
:10306000424D5A412130334A414E514108F43FC04C
:10307000609132017091330180913401909135015A
:10308000A30192010E942C3769017A0184E0C816DD
:10309000D104E104F10408F4B0CFE6E0CE16D10487
:1030A000E104F10408F470C0C0E0FDE2CF16F1E0E5
:1030B000DF06E104F10430F0CF5FF694E794D79493
:1030C000C794F3CFC11103C0E894C0F8C0E0A301D6
:1030D0009201C701B6010E94F3349B01AC01EC2FB1
:1030E000F0E0ED5AFE4FA081B0E00E9421372AE1C6
:1030F000D11122E2AB01BC01822F0E942217F501FF
:10310000EC5AFB4F80819181B0E0A0E08C159D05C9
:10311000AE05BF0521F4F80186818C1731F12C2F03
:103120002295207FB701A6018D2F880F880F880F69
:10313000865D0E948717F801618580E0D11180E2E9
:10314000682B6C6480E18D0F0E94B517F501EC5A75
:10315000FB4FD182C082F801C6838091740490E253
:10316000D11190E8892B80937404DF91CF911F9146
:103170000F91FF90EF90DF90CF90BF90AF907F9036
:103180006F905F904F90089584E0C82ED12CE12C71
:10319000F12C9ACF2F923F924F925F926F927F9233
:1031A0008F929F92AF92BF92CF92DF92EF92FF9257
:1031B0000F931F93CF93DF9300D000D00F92CDB722
:1031C000DEB749015A012701380110927404C090FA
:1031D0006404D0906504E0906604F0906704009168
:1031E0006004109161042091620430916304061719
:1031F00017072807390759F060936004709361043A
:10320000809362049093630480E00E94DC17C814EA
:10321000D904EA04FB0471F4809168049091690474
:10322000A0916A04B0916B0484159505A605B705B5
:1032300009F403C18092640490926504A09266042C
:10324000B0926704409268045092690460926A04E4
:1032500070926B0481149104A104B10419F481E00B
:103260000E94CB178091680490916904A0916A0430
:10327000B0916B04892B8A2B8B2B19F482E00E946E
:10328000CB17409064045090650460906604709081
:103290006704411451046104710409F473C1C81432
:1032A000D904EA04FB0409F4A5C0C0905604D090E8
:1032B0005704F12CE12C20915B042983A301920196
:1032C000C701B6010E94F3349B01AC018981E82F4C
:1032D000F0E0ED5AFE4FA081B0E00E9421374B0193
:1032E0005C01DC01CB0180589447A24DBA4181308A
:1032F000934AA14EB14108F446C0609132017091E9
:1033000033018091340190913501A30192010E9413
:103310002C3769017A0181E044E0C416D104E1044C
:10332000F10408F488C086E0C816D104E104F10471
:1033300008F4A4C019829DE2C91691E0D906E104FF
:10334000F10440F029812F5F2983F694E794D79404
:10335000C794F1CF4981411103C0E894C0F81982A4
:10336000A3019201C701B6010E94F3349B01AC0195
:103370008981E82FF0E0ED5AFE4FA081B0E00E9475
:1033800021374B015C01B501A40182E20E942217A2
:103390008091560490915704B0E0A0E08C159D05F3
:1033A000AE05BF0529F480915B0499818917D1F09E
:1033B00029812295207FB701A60182E30E94871709
:1033C00060915E046C6681E10E94B517D09257044B
:1033D000C0925604298120935B0480917404806814
:1033E000809374048092700490927104A09272048D
:1033F000B0927304C0906804D0906904E0906A04AD
:10340000F0906B04C114D104E104F104B1F0809098
:10341000700490907104A0907204B0907304C50180
:10342000B401A70196010E942C37283031054105CF
:10343000510550F582E00E94CB1760917404662319
:1034400019F081EB0E94B517809174040F900F90D2
:103450000F900F900F90DF91CF911F910F91FF90E0
:10346000EF90DF90CF90BF90AF909F908F907F9024
:103470006F905F904F903F902F90089504E0C02E82
:10348000D12CE12CF12C69CF1D822134310541056D
:10349000510560F08D818F5F8D83CC0CDD1CEE1C9F
:1034A000FF1C5695479537952795EFCFC501B40179
:1034B000A70196010E942C3729833A834B835C83B2
:1034C0002FEF3FEF4FE050E00E9437355601670184
:1034D000E12CF12C00E010E00E94643529013A0152
:1034E0009D819295907F9D83C12CD12C7601C394B0
:1034F000411451046104710431F0CC24CA94DC2CD1
:10350000FFE0EF2EF12CC301B20127E0660F771F19
:10351000881F991F2A95D1F7A70196010E942C3781
:1035200049015A018B019C0149815A816B817C813F
:10353000552766277727E7E0440F551F661F771F3B
:10354000EA95D1F7525061097109480D591D6A1D5C
:103550007B1D812CAD808AE30E94C6166CE4452851
:103560004628472809F06CE080915F04682B606270
:1035700082E10E94B51781E090E090935904809316
:1035800058045BCF8090680490906904A0906A040E
:10359000B0906B0481149104A104B10409F44DCFDF
:1035A000C0905804D0905904F12CE12C20915C0477
:1035B0002983A5019401C701B6010E94F3349B0140
:1035C000AC018981E82FF0E0ED5AFE4FA081B0E018
:1035D0000E9421378B019C0100581447224D3A412B
:1035E0000130134A214E314108F443C06091320149
:1035F000709133018091340190913501A5019401BE
:103600000E942C3769017A0184E0C816D104E104D4
:10361000F10408F40FCF96E0C916D104E104F104D7
:1036200008F458C019822DE2C21621E0D206E10446
:10363000F10440F049814F5F4983F694E794D794B1
:10364000C794F1CF8981811103C0E894C0F8198231
:10365000A5019401C701B6010E94F3349B01AC019E
:103660009981E92FF0E0ED5AFE4FA081B0E00E9471
:103670002137AB01BC0182E20E94221780915804DD
:1036800090915904B0E0A0E08C159D05AE05BF05F2
:1036900031F480915C042981821709F4CECE29810E
:1036A0002295207FB701A6018AE30E9487176091C7
:1036B0005F046C6682E10E94B517D0925904C092F3
:1036C0005804498140935C0480917404806880931D
:1036D0007404B3CE84E0C82ED12CE12CF12CB5CFEC
:1036E00090917F03992341F0811105C060E089E04A
:1036F0000E944D06289A08958823E9F3289861E0EE
:1037000089E00C944D06FF920F931F93CF93DF93A4
:1037100000D0CDB7DEB7E3E1F1E010E000E0819149
:10372000080F111D81E0E233F807C9F74FE150E0BF
:1037300063E171E082E090E00E94AF11075F1F4FEC
:103740001A83098342E050E0BE016F5F7F4F90E033
:1037500080E00E94AF11E9E0F1E080E191E010E04B
:1037600000E02191020F111D8E179F07D1F7809164
:10377000140199E0F92E8F9DC001112447E050E01B
:1037800069E071E083960E94AF11075F1F4F1A83B3
:103790000983809114018F9DC001112442E050E003
:1037A000BE016F5F7F4F81960E94AF110F900F9007
:1037B000DF91CF911F910F91FF9008958091290182
:1037C00090912A01092E000CAA0BBB0B8054934048
:1037D000A446BE4F80936C0490936D04A0936E0436
:1037E000B0936F0480E00E94DC1782E00C94DC1739
:1037F0008F929F92AF92BF92CF92DF92EF92FF9201
:103800000F931F93CF93C0916E03CC2309F454C040
:103810002091090180910A0190910B01A0910C0166
:10382000B0910D014091270150912801052E000C07
:10383000660B770B30916D03332309F4A2C080909F
:1038400030010AE0809E600111240D2C000CEE086E
:10385000FF08222309F471C000911B0110911C0183
:1038600020911D0130911E0148015901E0E28E0EA8
:10387000E1EA9E1EE7E0AE1EB11C840E951EA61E58
:10388000B71E8C189D08AE08BF08800F911FA21F9D
:10389000B31F8C019D01005E1E45284F3F4FCB0199
:1038A000BA01600F711F821F931FE12CF12C870159
:1038B000A50194010E94CA1880917003882309F41D
:1038C000AEC080910A0190910B01A0910C01B091C2
:1038D0000D018090270190902801092C000CAA0866
:1038E000BB0840910901442309F47DC0E0901B010D
:1038F000F0901C0100911D0110911E018E0D9F1D65
:10390000A01FB11FBC01CD01605E7E45884F9F4F57
:10391000680D791D8A1D9B1D20E030E0A9010E94E1
:10392000CA18CF911F910F91FF90EF90DF90CF9029
:10393000BF90AF909F908F900895009123011091B8
:103940002401209125013091260148015901E0E22E
:103950008E1AE1EA9E0AE7E0AE0AB108840E951ECF
:10396000A61EB71E8C0C9D1CAE1CBF1C800F911F89
:10397000A21FB31F8C019D010052114A274031093B
:103980008ECF2223F9F000911B0110911C01209190
:103990001D0130911E01800F911FA21FB31F805E79
:1039A0009E45A84FBF4F8C019D01040F151F261F78
:1039B000371FC901B801E12CF12C870120E030E06C
:1039C000A90178CF009123011091240120912501B4
:1039D00030912601800F911FA21FB31F8052914A80
:1039E000A740B109E0CFE0902301F09024010091BD
:1039F0002501109126018E0D9F1DA01FB11FBC0136
:103A0000CD016052714A8740910982CFE0901F0139
:103A1000F09020010091210110912201ECCFC11101
:103A200080CF80910A0190910B01A0910C01B0917F
:103A30000D018090270190902801092C000CAA0804
:103A4000BB0840910901442309F3E0901701F0906D
:103A500018010091190110911A0150CFCF93DF93F3
:103A60008091EC029091ED0227E0289FE001299FD0
:103A7000D00D112485E10E946E08DE01A80FB91F48
:103A8000AA0FBB1F94E0B695A7959A95E1F7B0935E
:103A9000ED02A093EC0220912B0130E00E944E3702
:103AA0002FEF33E040E050E00E9402372093F30212
:103AB000DF91CF910895CF93DF938091F1029091A0
:103AC000F202EC01CC0FDD1FC80FD91F8FE00E945E
:103AD0006E082196C80FD91FCC0FDD1FCC0FDD1F3C
:103AE00044E0D695C7954A95E1F7D093F202C0938A
:103AF000F1028091EF029091F002EC01CC0FDD1FFA
:103B0000C80FD91F80E10E946E082196C80FD91FE7
:103B1000CC0FDD1FCC0FDD1F74E0D695C7957A95CD
:103B2000E1F7D093F002C093EF02DF91CF910895B7
:103B3000DC01ED91FD918081ED91FD919081ED9100
:103B4000FD916C9163708E2309F064609F2309F0EE
:103B50006860E5EBFDE1E60FF11D659565956D93F8
:103B60006D917D918D919D91099423C01AC012C0D1
:103B700016C010C01EC009C014C013C006C019C0B2
:103B800009C00DC007C00DC014C062507040804015
:103B900090400BC0615070408040904006C06E5F06
:103BA00001C06F5F7F4F8F4F9F4F9E938E937E9389
:103BB0006E930895BF92CF92DF92EF92FF920F9390
:103BC0001F93CF93DF93EC01B62EC72E8D85811105
:103BD00005C0CE010E944F0981110EC01B861D86B3
:103BE0001C8680E0DF91CF911F910F91FF90EF90A5
:103BF000DF90CF90BF90089540E060EFCE010E942B
:103C0000FC0801E0E12CD12C11E0CE010E949E08BD
:103C1000F82ECE010E949E0891E0F91218C0813062
:103C200099F51134D8F2DB86D11002C081E08D877E
:103C30008B81882399F22396EB2DFC2DCF010896DA
:103C400029912193E817F907D9F781E0CBCF2E2DE1
:103C500030E0F8120EC08B851817A0F4FE01E20FB9
:103C6000F31F8381802381F4F12C193008F41C8721
:103C7000D12EFE01E20FF31F8381902F90958923AF
:103C800083830AC08113F0CFFE01EE0DF11D838105
:103C9000802B8383FF24F3946F2DCE010E94C908EB
:103CA0001F5F000F11F4E39401E087E08E1508F028
:103CB000ACCFB7CF4F925F926F927F928F929F92CD
:103CC000AF92BF92CF92DF92EF92FF920F931F932A
:103CD000CF93DF93CDB7DEB761970FB6F894DEBF11
:103CE0000FBECDBF0E946208C090E302D090E402F4
:103CF000E090E502F090E6026C197D098E099F09BB
:103D0000693873418105910508F458C08091E20239
:103D1000811154C01092E1038091E5039091E60374
:103D20000E944F0940E06CEC8091E5039091E6031E
:103D30000E94FC084091DF0364E48091E5039091C8
:103D4000E6030E94FC088091E103882391F1E09151
:103D5000E003E9500EEE12E0E33038F4F0E0EE0F4D
:103D6000FF1FE15CFE4F008111818091E2038823F7
:103D700009F481C08091DF0381117DC00E94620837
:103D80004B015C012801110F660877088091E5035B
:103D90009091E6030E949E08813059F00E946208CB
:103DA0006419750986099709681579058A059B05BF
:103DB00068F381E08093E1038093E2020E9462084D
:103DC0006C197D098E099F0961347F418105910538
:103DD000D8F18091E2028823B9F1E091E503F091F6
:103DE000E6031386158614861286118610861782BE
:103DF0001682158214821382BE01665F7F4F809106
:103E0000E5039091E6030E94DA1D81113BC060E05A
:103E100070E08EEF92EC20E030E040E05FE30E9443
:103E20005E370E94CA3780912E01680F6093EE02C0
:103E30000E9462086093E3027093E4028093E502BB
:103E40009093E6021092E20261960FB6F894DEBFFC
:103E50000FBECDBFDF91CF911F910F91FF90EF90DB
:103E6000DF90CF90BF90AF909F908F907F906F909A
:103E70005F904F900895B801110F880B990B0E9425
:103E80002F0897CF67E0CE010A960E94860899898D
:103E90008913BDCF8091E5039091E6030E944F09FD
:103EA000882309F4B4CFBE016F5F7F4FCE010A961D
:103EB0000E948E09882309F4AACF68E0CE010196FA
:103EC0000E94860899858913A2CF6A8170E0762FB7
:103ED0006627770F770F770F298158E0259F90018C
:103EE0001124262B372B8A858031D1F4688570E028
:103EF0008F81AB01481B5109CA019695982F8827DD
:103F0000979587950E942335CB014097B90153E0DF
:103F1000660F771F5A95E1F760789C01260F371FCF
:103F2000213854EE35070CF472CFB901330F880BEA
:103F3000990B0E94023820E030E040E05CE30E94F0
:103F40008E3869CF0F931F93CF93DF938091E70251
:103F5000882359F01092CF030E9426111092E70295
:103F6000DF91CF911F910F9108950E9462080091F7
:103F7000DE021091DF022091E0023091E102601B2D
:103F8000710B820B930B693E73408105910520F400
:103F9000012B022B032B21F70E9462086093DE02A3
:103FA0007093DF028093E0029093E10288E60E9422
:103FB0007C0560E081E094E00E94961081E094E04E
:103FC0000E94CA10882319F01092D603C9CF81E04D
:103FD0008093D60367E088E60E94860510928603E8
:103FE00080938503873008F461C081E094E00E94EB
:103FF0005610D82F982F92959770CAE08D2F8F70FA
:104000009C9F800D11248093CF0381E094E00E9457
:104010005610982F92959F708F709C9F800D112441
:104020008093D00381E094E00E945610982F9295DF
:1040300093708F709C9F800D11248093D10381E039
:1040400094E00E945610982F92959F708F709C9FBD
:10405000800D11248093D20381E094E00E945610D9
:10406000982F92959F708F709C9F800D1124809344
:10407000D30381E094E00E945610982F92959F7090
:104080008F709C9F800D11248093D40381E094E075
:104090000E945610982F9F70925E82958F708C9F11
:1040A000900D11249093D503D7FF5ACF1092D103CE
:1040B0001092D0031092CF03DF91CF911F910F91F7
:1040C0000C942611CF93DF93EC01809175040E942C
:1040D0007C058D2F90E00E94C510CE0199270E948B
:1040E000C51081E094E00E94CA1061E080917504DF
:1040F0000E9486051092860380938503882321F011
:1041000081E094E00E945610DF91CF910895EF92E4
:10411000FF920F931F93CF93DF938B01040F151F13
:104120007C012FEFE21AF20AEB010E9462208993D0
:10413000C701BE010C171D0799F7DF91CF911F91A1
:104140000F91FF90EF900895DF92EF92FF920F93FF
:104150001F93CF93DF9300D0CDB7DEB71A821982B9
:104160008091140129E0829FC001112442E050E0B7
:10417000BE016F5F7F4F81960E948720F12CE12C5A
:1041800010E000E089E0D82E8091140197018D9D08
:10419000200D311D1124C90183960E946220080F51
:1041A000111D3FEFE31AF30A87E0E816F10461F707
:1041B000075F1F4F89819A8108171907B1F4809111
:1041C00014018D9DC001112447E050E069E071E0C9
:1041D00083960E9487200F900F90DF91CF911F91BF
:1041E0000F91FF90EF90DF9008950E94831BF3CF13
:1041F00080916E038823A9F180916D0381110CC019
:104200008091F402882389F1809180008F7C8093D3
:1042100080001092F40229C08091F402811125C01F
:1042200080918003811121C02091300184E1289F79
:1042300090011124032E000C440B550B60E472E432
:104240008FE090E00E942C37CA01B9010E94CA0594
:10425000809180008F7C80618093800081E08093DA
:10426000F40280916D03882359F20895009769F054
:10427000FC0101900020E9F73197AF01481B590B71
:10428000BC018DE094E00C94D90790E080E00895A3
:10429000CF93DF930E943621EC0189E991E00E94DF
:1042A00036218C0F9D1FDF91CF9108950C943621FC
:1042B0008F929F92AF92BF92CF92DF92EF92FF9236
:1042C0000F931F93CF93DF93CDB7DEB7A1970FB6B0
:1042D000F894DEBF0FBECDBF6B017C0119A2423046
:1042E00008F44AE08E010F5D1F4F842E912CB12CF3
:1042F000A12CC701B601A50194010E942C376A3098
:1043000014F5605DF80162938F01C814D904EA04C2
:10431000FB04B0F4CF010E943621A1960FB6F894A9
:10432000DEBF0FBECDBFDF91CF911F910F91FF90E8
:10433000EF90DF90CF90BF90AF909F908F900895B7
:1043400069017A01D6CF695CDDCF682F70E090E01B
:1043500080E04AE00C945821CF92DF92EF92FF92D6
:10436000CF93DF936C01990FEE08FF08F7FE17C09B
:104370008DE20E94300DEC0166277727CB016C1986
:104380007D098E099F094AE00E9458218C0F9D1FCC
:10439000DF91CF91FF90EF90DF90CF9008954AE0AA
:1043A000C701B601DF91CF91FF90EF90DF90CF90E2
:1043B0000C945821CF93DF934AE00E945821EC01DE
:1043C00089E991E00E9436218C0F9D1FDF91CF91EA
:1043D0000895CF93DF930E94AC21EC0189E991E02D
:1043E0000E9436218C0F9D1FDF91CF910895CF93AE
:1043F000DF930E94A521EC0189E991E00E9436211A
:104400008C0F9D1FDF91CF9108952091130430915F
:104410001404C901079697FD079623E095958795A3
:104420002A95E1F72091110430911204829FA00196
:10443000839F500D929F500D112470E060E0809199
:104440002C0490912D040C94FB368F929F92AF9286
:10445000BF92EF92FF920F931F93CF930E9405227A
:1044600010921A041092190410921C0410921B044A
:1044700081E090E09093200480931F0490931E04A9
:1044800080931D0483E08093210480932204C091D3
:104490008003CA3109F452C308F04DC0C43109F495
:1044A000EEC2B8F4C13009F4A1C2CC2309F4C7C0EC
:1044B000C23009F4AEC2C33009F4C8C2CF911F9113
:1044C0000F91FF90EF90BF90AF909F908F900C94C2
:1044D0004F15C73109F402C3A8F4C53109F4EAC283
:1044E000C63161F7809115010E94F72181E0809328
:1044F000210480932204809180030E94A52181E001
:1045000092E0A1C2C83109F401C3C931B9F6809162
:104510002F012AE0829FC00111240E94E92181E03D
:104520008093210480932204809180030E94A5211E
:104530008BE192E088C2C73609F470C308F042C02C
:10454000C43609F422C3D8F4CB3109F40BC3CC31FF
:1045500009F0B4CF80912C01882309F413C387E4B8
:1045600092E00E94482181E08093210480932204FC
:10457000809180030E94A5218EE492E07AC2C53624
:1045800009F41AC3C63609F099CF80912E01082E7E
:10459000000C990B0E94E92181E080932104809313
:1045A0002204809180030E94A52183E792E00E946B
:1045B000562180EF0E94300D87EF0E94300D82EA75
:1045C00091E041C2CA3609F45DC308F5C83609F462
:1045D0003EC3C93609F072CF82E0809321048093F4
:1045E0002204609123017091240180912501909112
:1045F00026010E94DA2181E0809321048093220425
:10460000809180030E94A52186E992E018C3CB36F1
:1046100009F453C3CC3609F051CF80912701909112
:1046200028010E94E92181E08093210480932204E3
:10463000809180030E94A5218AEB92E000C38091C3
:104640000A0190910B01A0910C01B0910D018038ED
:104650009649A849B10520F48CE792E00E945621C2
:1046600060910A0170910B0180910C0190910D01F4
:10467000E0E48E2EE2E49E2EEFE0AE2EB12CA501FA
:1046800094010E942C37CA01B9014AE00E945821C6
:104690008091190490911A04059690931A048093BE
:1046A000190460910A0170910B0180910C019091A5
:1046B0000D01A50194010E942C37603A7648814093
:1046C000910520F48CE991E00E94562160910A0145
:1046D00070910B0180910C0190910D0120E432E466
:1046E0004FE050E00E942C37603177428105910500
:1046F00020F48CE991E00E94562160910A017091AA
:104700000B0180910C0190910D0120E432E44FE007
:1047100050E00E942C3758EE852E53E0952EA12CA8
:10472000B12CA50194010E942C37CA01B9014AE0BD
:104730000E94582182E0809321048093220480917A
:10474000190490911A04059690931A048093190401
:1047500087E090E090931C0480931B0460910A0111
:1047600070910B0180910C0190910D01A5019401B4
:104770000E942C37643671058105910520F48CE97F
:1047800091E00E94562160910A0170910B01809185
:104790000C0190910D0128EE33E040E050E00E94C2
:1047A0002C372AE030E040E050E00E942C37CA016C
:1047B000B9010E94DA2181E08093210480932204D0
:1047C0008091F302843620F48CE991E00E94562116
:1047D0008091F302CAE06C2F0E94033590E00E94A2
:1047E000AC218EE991E00E9456218091F3026C2F5A
:1047F0000E940335892F90E00E94AC2180EA91E06D
:104800000E94562180917F03882309F48BC0609118
:10481000F1027091F2022091EF023091F0026217E2
:10482000730709F43FC0CB01820F931F621B730B08
:104830000E940F356A30710520F48CE792E00E94E7
:1048400056216091F1027091F2022091EF023091B5
:10485000F002CB01820F931F621B730B0E940F3576
:1048600090E080E04AE00E9458218EE991E00E94A9
:1048700056216091F1027091F2022091EF02309185
:10488000F002CB01820F931F621B730B0E940F3546
:104890006AE070E00E940F35BC0190E080E04AE0E1
:1048A0000E9458212091F1023091F20250E040E044
:1048B0002150310941095109A4E6B0E00E94213795
:1048C0002EEF822E23E0922EA12CB12CA501940173
:1048D0000E940237EE24E394F12C04E010E047E15B
:1048E00050E060E470E08DE094E00E941E0E2091A4
:1048F000EF023091F00250E040E0215031094109CF
:104900005109A4E6B0E00E942137A50194010E945C
:1049100002374CE150E060E470E08DE094E00E94EA
:104920001E0ECCCD8091EE0292E3980F953608F0E2
:1049300051C087FD04C08CE792E00E94562180910F
:10494000EE02082E000C990B0E94AC2187EF0E940A
:10495000300D82EA91E00E945621809176038823EF
:10496000E1F18CE792E00E9456218091D1038A30D8
:1049700020F48CE792E00E9456218091D1030E949E
:10498000A5218091CF0380FF2BC08AEA91E00E948D
:1049900056218091D0038A3020F48CE991E00E9466
:1049A00056218091D0030E94A5218091090188237E
:1049B000D1F08CEA91E00E945621809114018A3056
:1049C00020F48CE792E00E945621809114010E940D
:1049D000A52174CD84EA91E0BECF8EE991E0C3CFEA
:1049E0008CE792E0D4CF8FEA91E0E5CF809114017B
:1049F0000E94F721C0932104C09322048091800378
:104A00000E94A52182EB91E00E9456218091150120
:104A1000DECFE0911301F0E0EE0FFF1FEB5BFE4FE6
:104A200020813181AAE0B0E00E944E370E94DA2155
:104A300081E08093210480932204809180030E946E
:104A4000A52182EC91E00E94562138CD8091090188
:104A5000882391F08CEC91E00E94482181E08093C2
:104A6000210480932204809180030E94A52184ED7B
:104A700091E00E94482122CD80ED91E0EDCF809120
:104A80000E0124E6829FC00111240E94E92181E0E9
:104A90008093210480932204809180030E94A521A9
:104AA00085EE91E00E94562180EF0E94300D81EF4B
:104AB00091E0C9CF80910F0124E6829FC0011124AB
:104AC0000E94E92181E08093210480932204809157
:104AD00080030E94A52185EF91E0E4CF8091D1036E
:104AE0008A3020F48CE991E00E9456218091D10314
:104AF0000E94F72181E08093210480932204809119
:104B000080030E94A5218EE092E09DCF8091D0038A
:104B10008A3020F48CE991E00E9456218091D003E4
:104B20000E94F72181E080932104809322048091E8
:104B300080030E94A52185E192E085CF809130011C
:104B40002AE0829FC00111240E94E92181E0809324
:104B5000210480932204809180030E94A5218BE28E
:104B600092E071CF80912D010E94F72181E0809326
:104B7000210480932204809180030E94A52188E370
:104B800092E061CF8BE492E0ECCC80911601882317
:104B900081F087E492E00E94482181E08093210423
:104BA00080932204809180030E94A5218CE592E0ED
:104BB00060CF8BE492E0EFCF80912B010E94F72130
:104BC00081E08093210480932204809180030E94DD
:104BD000A5218BE692E00E9456218091F302843653
:104BE00020F48CE991E00E9456218091F302CAE002
:104BF0006C2F0E94033590E00E94AC218EE991E079
:104C00000E9456218091F3026C2F0E940335892F58
:104C100090E00E94AC2180EA91E015CF80912901BB
:104C200090912A010E94E92181E0809321048093E0
:104C30002204809180030E94A5218EE792E00E94C9
:104C4000562180EF0E94300D85E392E0FCCE82E099
:104C5000809321048093220460911F0170912001B0
:104C600080912101909122010E94DA2181E08093BC
:104C7000210480932204809180030E94A5218AE868
:104C800092E0DDCF82E08093210480932204609142
:104C90001701709118018091190190911A010E94D9
:104CA000DA2181E0809321048093220480918003A3
:104CB0000E94A52182EA92E0C2CF82E08093210483
:104CC0008093220460911B0170911C0180911D0151
:104CD00090911E010E94DA2181E08093210480934B
:104CE0002204809180030E94A5218EEA92E0A7CF42
:104CF0004F925F926F927F928F929F92AF92BF92EC
:104D0000CF92DF92EF92FF92CF93DF93CDB7DEB7D2
:104D100028970FB6F894DEBF0FBECDBF8091530425
:104D2000823008F07CC0F89488E494E00E94981DDA
:104D300060914F04709150048091510490915204FD
:104D400078942091080130E050E040E00E94023762
:104D500069017A0190912C01992341F0F094E0943B
:104D6000D094C094C11CD11CE11CF11C8090E802BD
:104D70009090E902A090EA02B090EB028C149D049E
:104D8000AE04BF04B9F14C9B35C0809180032FEF76
:104D9000280F243018F421E0209371038A3109F49C
:104DA000EFC208F07AC0843109F448C2D0F58130EE
:104DB00009F4FDC1882309F43CC1823009F418C20A
:104DC000833009F434C20E946208609377037093C1
:104DD00078038093790390937A0381E0809376033C
:104DE0000E942522C092E802D092E902E092EA02F3
:104DF000F092EB0228960FB6F894DEBF0FBECDBF3F
:104E0000DF91CF91FF90EF90DF90CF90BF90AF9068
:104E10009F908F907F906F905F904F900895F8943F
:104E200087CF873109F464C2E8F4853109F42AC2D6
:104E3000863149F6809115018C149D04AE04BF049F
:104E40000CF044C28E3108F04CC28F5F8093150184
:104E50008091150190911401891708F0B4CF8093C7
:104E60001401B1CF883109F463C2893109F0ABCFA5
:104E700080912F018C149D04AE04BF040CF075C208
:104E80008F3F19F08F5F80932F0180912F018A301F
:104E900008F48AE080932F0196CF873609F4E5C2A3
:104EA000B0F5843609F4AAC2A0F48B3109F485C2A6
:104EB0008C3109F088CF992309F49CC210922C01FF
:104EC000F094E094D094C094C11CD11CE11CF11C5E
:104ED0007ACF853609F499C2863609F074CF80916D
:104EE0002E018C149D04AE04BF040CF0B3C28F31AC
:104EF0001CF48F5F80932E0180912E018F310CF076
:104F00008EE1823E0CF482EE80932E015CCF8A36D5
:104F100009F47CC308F059C0883609F4EEC289361A
:104F200009F051CF8091230190912401A091250196
:104F3000B09126018C149D04AE04BF040CF04AC34A
:104F4000813823EC920729ECA20721E0B207A8F4EC
:104F5000E0911301F0E0EE0FFF1FEB5BFE4F2081AD
:104F60003181820F931FA11DB11D80932301909366
:104F70002401A0932501B0932601809123019091F3
:104F80002401A0912501B0912601813843EC9407BA
:104F900049ECA40741E0B40720F080E893ECA9ECC9
:104FA000B1E0803452E495075FE0A507B10520F435
:104FB00080E492E4AFE0B0E0809323019093240179
:104FC000A0932501B0932601C1C08B3609F48BC391
:104FD0008C3609F0F8CE80912701909128018C142D
:104FE0009D04AE04BF040CF0EBC3E0911301F0E0AC
:104FF000EE0FFF1FEB5BFE4F20813181820F931F6D
:105000009093280180932701809127019091280196
:10501000893EA3E09A0714F088EE93E08831BCEF54
:105020009B0714F488E19CEF90932801809327015B
:105030008DC040900A0150900B0160900C0170905F
:105040000D01A0910F01B0E020EA36E841E050E008
:105050000E9421376D837E838F839887A0910E01F4
:10506000B0E00E94213769837A838B839C838C1400
:105070009D04AE04BF040CF06CC02D813E814F81B5
:105080005885241535054605570550F1E091130163
:10509000F0E0EE0FFF1FEB5BFE4F20813181AAE0B5
:1050A000B0E00E944E374B015C01C301B201A50183
:1050B00094010E942C37480C591C6A1C7B1C6115FA
:1050C00071058105910521F0461A570A680A790A87
:1050D00040920A0150920B0160920C0170920D01F6
:1050E00080910A0190910B01A0910C01B0910D01EA
:1050F00029813A814B815C8182179307A407B50708
:1051000060F489819A81AB81BC8180930A0190937C
:105110000B01A0930C01B0930D0180910A019091B5
:105120000B01A0910C01B0910D012D813E814F81A9
:105130005885281739074A075B0740F420930A016E
:1051400030930B0140930C0150930D010E94F81B0A
:105150003ACEC814D904EA04FB0414F689819A8172
:10516000AB81BC81481659066A067B0650F2E09175
:105170001301F0E0EE0FFF1FEB5BFE4F208131814A
:10518000AAE0B0E00E944E374B015C01C301B201BE
:10519000A50194010E942C376115710581059105C7
:1051A00009F092CF481859086A087B0891CF90916E
:1051B0001501809114018C149D04AE04BF047CF48D
:1051C000891718F48F5F8093140180911401981748
:1051D00008F4892F809314010E94A420B7CFC8142B
:1051E000D904EA04FB048CF7882379F38150EBCFD0
:1051F000809113018C149D04AE04BF0434F48630F6
:1052000078F48F5F80931301DECDC814D904EA04CB
:10521000FB0434F4882309F4D6CD81508093130124
:1052200080911301873008F4CECD86E0EBCF8091DA
:10523000090191E089278093090188CF80910E01AF
:105240008C149D04AE04BF0494F4883C18F48F5F62
:1052500080930E0180910E018A3090F090910F01A1
:10526000891710F08FEF890F80930E01ACCDC81411
:10527000D904EA04FB0474F78A3060F38150E8CF64
:105280008AE0F2CF80910F018C149D04AE04BF041C
:1052900084F4883C18F48F5F80930F0190910E0185
:1052A00080910F01981770F081E0890F80930F01B2
:1052B0008ACDC814D904EA04FB0484F78A3070F359
:1052C0008150EACF883C90F387ECF0CFC814D90422
:1052D000EA04FB0434F4882309F4BACD81508093A6
:1052E0001501809115018F3108F4B2CD8EE1AECD5C
:1052F0008091D1038C149D04AE04BF0484F48831E2
:1053000038F48F5F8093D1038091D103883118F0F6
:1053100087E18093D10381E08093E70254CDC814E4
:10532000D904EA04FB0484F78823A9F38150EACF67
:105330008091D0038C149D04AE04BF046CF48C33B4
:1053400038F48F5F8093D0038091D0038C3318F3AF
:105350008BE38093D003DFCFC814D904EA04FB04A5
:105360009CF78823C1F28150EDCFC814D904EA0418
:10537000FB040CF08ACD823008F487CD815083CDB8
:10538000809130018C149D04AE04BF046CF48F3FF7
:1053900019F08F5F80933001809130018A3008F4DA
:1053A0008AE0809330010FCDC814D904EA04FB04CD
:1053B0009CF7823088F38150EDCF80912D018C14C1
:1053C0009D04AE04BF046CF48F3F19F08F5F80938F
:1053D0002D0180912D01811101C081E080932D016B
:1053E000F2CCC814D904EA04FB049CF7823088F399
:1053F0008150EDCF81E080932C0162CD8091160128
:1054000091E0892780931601DECC80912B018C14CA
:105410009D04AE04BF046CF48F3F39F08F5F80931E
:105420002B0180912B018F3F71F48EEF80932B0124
:10543000CACCC814D904EA04FB049CF7843688F368
:10544000815080932B0180912B01843608F0BBCCD6
:1054500084E6ECCFC814D904EA04FB040CF04CCD6C
:10546000823E0CF449CD815045CD80912901909127
:105470002A018C149D04AE04BF0454F5813335E732
:1054800093077CF4E0911301F0E0EE0FFF1FEB5B5C
:10549000FE4F20813181820F931F90932A018093C8
:1054A00029018091290190912A01813355E79507BF
:1054B00014F080E395E7803DAAE89A0714F480EDA4
:1054C0009AE890932A01809329010E94DE1B3ECE28
:1054D000C814D904EA04FB0424F7803D4AE8940781
:1054E00004F3E0911301F0E0EE0FFF1FEB5BFE4FC2
:1054F00020813181821B930BD0CF80911F0190912D
:105500002001A0912101B09122018C149D04AE04D0
:10551000BF040CF045C0813823EC920729ECA207A8
:1055200021E0B207A8F4E0911301F0E0EE0FFF1FB5
:10553000EB5BFE4F20813181820F931FA11DB11DB6
:1055400080931F0190932001A0932101B093220129
:1055500080911F0190912001A0912101B091220121
:10556000813843EC940749ECA40741E0B40720F0EC
:1055700080E893ECA9ECB1E0803452E495075FE059
:10558000A507B10520F480E492E4AFE0B0E0809399
:105590001F0190932001A0932101B0932201D6CD49
:1055A000C814D904EA04FB049CF6803432E493075F
:1055B0003FE0A307B10560F2E0911301F0E0EE0FC8
:1055C000FF1FEB5BFE4F20813181821B930BA109F2
:1055D000B109B6CFC814D904EA04FB040CF0CDCC51
:1055E000803432E493073FE0A307B10508F4C5CC4B
:1055F000E0911301F0E0EE0FFF1FEB5BFE4F208107
:105600003181821B930BA109B109AFCC80911701A5
:1056100090911801A0911901B0911A018C149D0468
:10562000AE04BF040CF045C0813823EC920729EC8E
:10563000A20721E0B207A8F4E0911301F0E0EE0F19
:10564000FF1FEB5BFE4F20813181820F931FA11D55
:10565000B11D8093170190931801A0931901B09385
:105660001A018091170190911801A0911901B09130
:105670001A01813843EC940749ECA40741E0B407D0
:1056800020F080E893ECA9ECB1E0803452E4950777
:105690005FE0A507B10520F480E492E4AFE0B0E05C
:1056A0008093170190931801A0931901B0931A01E8
:1056B0004DCDC814D904EA04FB049CF6803432E4CE
:1056C00093073FE0A307B10560F2E0911301F0E01A
:1056D000EE0FFF1FEB5BFE4F20813181821B930B8E
:1056E000A109B109B6CF80911B0190911C01A09135
:1056F0001D01B0911E018C149D04AE04BF040CF07A
:1057000045C0813823EC920729ECA20721E0B207BB
:10571000A8F4E0911301F0E0EE0FFF1FEB5BFE4FEA
:1057200020813181820F931FA11DB11D80931B0128
:1057300090931C01A0931D01B0931E0180911B0149
:1057400090911C01A0911D01B0911E01813843EC84
:10575000940749ECA40741E0B40720F080E893ECFB
:10576000A9ECB1E0803452E495075FE0A507B105EC
:1057700020F480E492E4AFE0B0E080931B019093CA
:105780001C01A0931D01B0931E01E0CCC814D904E4
:10579000EA04FB049CF6803432E493073FE0A3075D
:1057A000B10560F2E0911301F0E0EE0FFF1FEB5B3B
:1057B000FE4F20813181821B930BA109B109B6CF25
:1057C000C814D904EA04FB040CF01ECCE0911301C8
:1057D000F0E0EE0FFF1FEB5BFE4F20813181821B5B
:1057E000930B0ECC1F921FB61F9211248F939F9381
:1057F000AF93BF938091590390915A03A0915B039B
:10580000B0915C030196A11DB11D80935903909343
:105810005A03A0935B03B0935C038091580393E019
:10582000980F9D37E8F49093580380915D03909111
:105830005E03A0915F03B09160030196A11DB11DAD
:1058400080935D0390935E03A0935F03B093600326
:10585000BF91AF919F918F911F901FBE1F90189580
:105860008A57809358038091590390915A03A091CD
:105870005B03B0915C030196A11DB11D8093590398
:1058800090935A03A0935B03B0935C03CECF1F9217
:105890000F920FB60F9211242F933F934F935F9364
:1058A0006F937F938F939F93AF93BF93EF93FF93E8
:1058B0008091B900887F803609F44AC0F0F58832BB
:1058C00009F4A7C018F5803109F49BC0B8F4882307
:1058D00009F4F9C0883009F494C0FF91EF91BF91A9
:1058E000AF919F918F917F916F915F914F913F9178
:1058F0002F910F900FBE0F901F901895883109F4CB
:1059000088C0803251F78093CC0314C0803409F4EE
:105910009DC040F48033B9F38833F9F68093CC030B
:1059200085ECB0C0803509F485C0883509F496C08F
:10593000883499F60E941610D0CF883909F48CC0AB
:1059400038F5883729F050F4883611F0803729F679
:1059500083E08093CE031092570357C0883809F430
:105960007BC0803919F0803809F0B7CF8091570398
:10597000803208F071C0E091570381E08E0F809370
:1059800057038091BB00F0E0E95CFC4F80833DC091
:10599000803B39F0E0F4803A09F479C0883A09F0A4
:1059A0009CCF84E08093CE0310923603109235038F
:1059B000E0918303F091840309958091350381116F
:1059C0000FC081E0809335031092150309C0803C1D
:1059D00009F4A6CF883C09F4A3CF883B09F07DCF1A
:1059E000E091360381E08E0F80933603F0E0EB5EAA
:1059F000FC4F80818093BB009091360380913503EA
:105A000029C08091C9038093BB0085EC8093BC00C2
:105A100064CF9091CB038091CA03981758F5E09119
:105A2000CB0381E08E0F8093CB03F0E0E855FC4F71
:105A30008081E9CFE091CB0381E08E0F8093CB038F
:105A40008091BB00F0E0E855FC4F80839091CB0340
:105A50008091CA039817C8F285E8D8CFE091CB03AC
:105A600081E08E0F8093CB038091BB00F0E0E8557E
:105A7000FC4F80838091CD0381115CCF81E08093C6
:105A8000C80384EA8093BC001092CE0326CF85EC35
:105A90008093BC001092CE0380915703803230F483
:105AA000E0915703F0E0E95CFC4F108260915703EE
:105AB00070E0E0918103F091820387E393E0099520
:105AC000109257030ACF1092CC0334CF1F920F923B
:105AD0000FB60F9211242F933F934F935F936F93C1
