:020000040000FA
:100000000C9464050C94D0050C94F8050C948C05A4
:100010000C948C050C948C050C948C050C94113765
:100020000C948C050C948C050C948C050C948C050C
:100030000C948C050C948C050C948C050C948C05FC
:100040000C948E2F0C948C050C94A5320C94D73202
:100050000C948C050C948C050C948C050C948C05DC
:100060000C94D9210C948C052200FF21000001037F
:10007000070F1F3F7F0080C0E0F0F8FCFEDB40A4CC
:10008000A62EAFDA0281DA1281DA02818F2000A176
:10009000C8D300408DAED580A800006000000000ED
:1000A00000000000000000000000E0000000000070
:1000B000000000000000000001E00000000000005F
:1000C0000000000000000001F0000000000000003F
:1000D00000000000000003F000000000000000002D
:1000E000000000000007F000000000000000000019
:1000F0000000000007F80000000000000000000001
:100100000000000FF800000003C0007E000001E0C6
:10011000007F0FF800000003C000FE000001E000B7
:10012000FFEFF800000003C000FE000001E000FF48
:10013000FFF800000003C000F00000000F007FFE89
:100140007FC0000003C000F00000000F003FFE7FF2
:10015000F83FF1FBCFFCFEF3BC3DEFE01FFE7FFF5D
:100160007FFBFFDFFEFEFFBC3DEFE01FC6FFFF7F12
:10017000FBFFDFFEFEFFBC3DEFE00FE3C7FE787B39
:10018000C3DE1EF0FFBC3DEF0007FF87FC787BC39A
:10019000DE1EF0F83C3DEF0001FFFFF0007BC3C026
:1001A0001EF0F03C3DEF0001F37FE03FFBC3CFFECC
:1001B000F0F03C3DEF0003E33F807FFBC3DFFEF048
:1001C000F03C3DEF0007E73C00787BC3DE1EF0F01B
:1001D0003C3DEF0007FFBE00787BC3DE1EF0F03C25
:1001E0003DEF0007FFFE00787BC3DE1EF0F03C3DD4
:1001F000EF000FFFFE007FFBFFDFFEF0F03FFDEFA3
:10020000E00FFFFF007FFBFFDFFEF0F03FFDEFE0C0
:100210000FF9FF003E79F9CF9EF0F01F3DE7E01F98
:10022000F1FF0000000000000000000000001F803F
:10023000FF007FFFFFFFFFFFFFFFFFFFE01C007FCE
:10024000007FFFFFFFFEB46D888D18E000001F00E7
:100250007FFFFFFFFE95AD7DB577E000000F007FCB
:10026000FFFFFFFEA5AD9D8D19E0000006007FFF9A
:10027000FFFFFEB5ADEDB57EE0000000000001809F
:1002800000000000000000000003800000000000EB
:100290000000000007C00000000000000000000790
:1002A000C00000000000000000000FC000000000BF
:1002B00000000000001FE00000000000000000003F
:1002C0001FE00000000000000000003FE000000010
:1002D0000000000000003FF00000000000000000EF
:1002E000007FF0000000000000001FF87FF0000019
:1002F00000000000003FFE7FF00000000000000052
:100300003FFF7FF0000000000000001FFFFBE00047
:100310000000000000000FFFF9FFC0000000000017
:10032000000FFFF9FFF800000000000007FFF1FFD9
:10033000FF00000000000003FC73FFFF80000000CE
:10034000000001FE3FFFFF80000000000000FF1ED4
:100350000FFF000000000000007FFE1FFC000000F7
:10036000000000003FFFFFF8000000000000000F49
:10037000DFFFE0000000000000001F19FFC00000C8
:1003800000000000003F3CFF0000000000000000F3
:100390007E7CF800000000000000007FFE7C000072
:1003A000000000000000FFFFFC0000000000000053
:1003B00000FFFFFE0000000000000000FFFFFE0045
:1003C00000000000000001FFEFFE00000000000040
:1003D0000001FFCFFE0000000000000003FF07FE49
:1003E0000000000000000003FC07FE000000000009
:1003F000000003F003FE0000000000000001800088
:10040000FE000000000000000000007E0000000070
:100410000000000000003E0000000000000000009E
:10042000000C000000000000078000FC000003C07A
:10043000000000078001FC000003C00000000780EE
:1004400001FC000003C0000000078001E000000084
:100450001E000000078001E00000001E007FE3F79F
:100460009FF9FDE7787BDFC0FFF7FFBFFDFDFF7859
:100470007BDFC0FFF7FFBFFDFDFF787BDFC0F0F73C
:1004800087BC3DE1FF787BDE00F0F787BC3DE1F003
:10049000787BDE0000F787803DE1E0787BDE007F3F
:1004A000F7879FFDE1E0787BDE00FFF787BFFDE186
:1004B000E0787BDE00F0F787BC3DE1E0787BDE0092
:1004C000F0F787BC3DE1E0787BDE00F0F787BC3DCC
:1004D000E1E0787BDE00FFF7FFBFFDE1E07FFBDFBF
:1004E000C0FFF7FFBFFDE1E07FFBDFC07CF3F39FC0
:1004F0003DE1E03E7BCFC0000000000000000000B6
:100500000000FFFFFFFFFFFFFFFFFFFFC0FFFFFF38
:10051000FFFD68DB111A31C0FFFFFFFFFD2B5AFB07
:100520006AEFC0FFFFFFFFFD4B5B3B1A33C0FFFFCD
:10053000FFFFFD6B5BDB6AFDC000000000003E5B5F
:100540004F5B3E3E6B4F6B3E1C3E7C3E1C183C7E20
:100550003C181C577D571C1C5E7F5E1C00183C1805
:1005600000FFE7C3E7FF0018241800FFE7DBE7FF01
:1005700030483A060E2629792926407F050507408E
:100580007F05253F5A3CE73C5A7F3E1C1C08081C4F
:100590001C3E7F14227F22145F5F005F5F06097F8D
:1005A000017F006689956A606060606094A2FFA226
:1005B0009408047E040810207E201008082A1C08D5
:1005C000081C2A08081E101010100C1E0C1E0C30DF
:1005D000383E3830060E3E0E0600000000000000D7
:1005E0005F00000007000700147F147F14242A7F97
:1005F0002A12231308646236495620500008070364
:1006000000001C2241000041221C002A1C7F1C2AE1
:1006100008083E0808008070300008080808080034
:100620000060600020100804023E5149453E00422F
:100630007F400072494949462141494D33181412FF
:100640007F1027454545393C4A4949314121110927
:10065000073649494936464949291E000014000019
:100660000040340000000814224114141414140033
:100670004122140802015909063E415D594E7C127F
:1006800011127C7F494949363E414141227F414117
:10069000413E7F494949417F090909013E41415194
:1006A000737F0808087F00417F41002040413F01DF
:1006B0007F081422417F404040407F021C027F7F20
:1006C0000408107F3E4141413E7F090909063E4131
:1006D00051215E7F09192946264949493203017F84
:1006E00001033F4040403F1F2040201F3F40384013
:1006F0003F631408146303047804036159494D43AC
:10070000007F4141410204081020004141417F0423
:10071000020102044040404040000307080020540A
:100720005478407F2844443838444444283844446A
:10073000287F385454541800087E090218A4A49C39
:10074000787F0804047800447D40002040403D004C
:100750007F1028440000417F40007C047804787CAE
:10076000080404783844444438FC18242418182415
:100770002418FC7C08040408485454542404043FFE
:1007800044243C4040207C1C2040201C3C40304005
:100790003C44281028444C9090907C4464544C4431
:1007A00000083641000000770000004136080002D2
:1007B000010204023C2623263C1EA1A161123A40FC
:1007C00040207A3854545559215555794122545472
:1007D0007842215554784020545579400C1E52726D
:1007E000123955555559395454545939555454584A
:1007F0000000457C410002457D420001457C407D72
:100800001211127DF0282528F07C54554500205403
:10081000547C547C0A097F4932494949323A44445C
:10082000443A324A4848303A4141217A3A424020DB
:1008300078009DA0A07D3D4242423D3D4040403D6C
:100840003C24FF2424487E4943662B2FFC2F2BFF9A
:100850000929F620C0887E090320545479410000FC
:10086000447D413048484A32384040227A007A0A72
:100870000A727D0D19317D2629292F28262929293B
:100880002630484D4020380808080808080808386D
:100890002F10C8ACBA2F102834FA00007B000008D3
:1008A000142A142222142A14085500550055AA555A
:1008B000AA55AAFF55FF55FF000000FF00101010B9
:1008C000FF00141414FF001010FF00FF1010F010B0
:1008D000F0141414FC001414F700FF0000FF00FFD4
:1008E0001414F404FC141417101F10101F101F14FC
:1008F00014141F00101010F0000000001F10101042
:10090000101F10101010F010000000FF1010101039
:100910001010101010FF10000000FF140000FF0066
:10092000FF00001F10170000FC04F4141417101728
:100930001414F404F40000FF00F714141414141435
:1009400014F700F7141414171410101F101F1414A8
:1009500014F4141010F010F000001F101F0000001D
:100960001F14000000FC140000F010F01010FF1025
:10097000FF141414FF141010101F00000000F010DA
:10098000FFFFFFFFFFF0F0F0F0F0FFFFFF000000BF
:100990000000FFFF0F0F0F0F0F3844443844FC4A8C
:1009A0004A4A347E02020606027E027E02635549EE
:1009B00041633844443C04407E201E2006027E02EF
:1009C0000299A5E7A5991C2A492A1C4C7201724C70
:1009D000304A4D4D303048784830BC625A463D3E32
:1009E000494949007E0101017E2A2A2A2A2A4444D3
:1009F0005F444440514A444040444A51400000FF53
:100A00000103E080FF000008086B6B0836123624F3
:100A100036060F090F06000018180000001010001D
:100A20003040FF0101001F01011E00191D171200B7
:100A30003C3C3C3C0000000000005EBCE2613FDD4D
:100A400083C29C7E20A3FD1F41009D23BE46DB6523
:100A5000F88C11AF32CA57E9740000000900030294
:100A60000000040508000000000000000000000075
:100A70000102040810204080010204081020010235
:100A80000408102040804004040404040404040208
:100A90000202020202030303030303020203000033
:100AA0000000230026002900000000002500280087
:100AB0002B0000000000240027002A000200340957
:100AC000B720B02E07330F0A11241FBECFEFD8E096
:100AD000DEBFCDBF12E0A0E0B1E0EAEAF7E702C076
:100AE00005900D92A43DB107D9F725E0A4EDB2E041
:100AF00001C01D92A131B207E1F715E0C3E6D5E0D0
:100B000004C02197FE010E94D039CF35D107C9F723
:100B10000E94B1370C94C83B0C940000DC01ED91AD
:100B2000FD918081ED91FD919081ED91FD916C9110
:100B300063708E2309F064609F2309F06860EBEA1C
:100B4000F5E0E60FF11D659565956D936D917D91CD
:100B50008D919D91099423C01AC012C016C010C077
:100B60001EC009C014C013C006C019C009C00DC002
:100B700007C00DC014C062507040804090400BC050
:100B8000615070408040904006C06E5F01C06F5F52
:100B90007F4F8F4F9F4F9E938E937E936E930895BA
:100BA0001F920F920FB60F9211242F933F934F93E2
:100BB0005F936F937F938F939F93AF93BF93EF93C5
:100BC000FF9380915004909151040E948E05FF91F3
:100BD000EF91BF91AF919F918F917F916F915F91B5
:100BE0004F913F912F910F900FBE0F901F9018952E
:100BF0001F920F920FB60F9211242F933F934F9392
:100C00005F936F937F938F939F93AF93BF93EF9374
:100C1000FF9380915204909153040E948E05FF919E
:100C2000EF91BF91AF919F918F917F916F915F9164
:100C30004F913F912F910F900FBE0F901F901895DD
:100C40000F931F9380917B03882359F01092D40255
:100C500084ED92E00E94B42E10927B031F910F91BD
:100C600008950E94D02F00916E0310916F03209180
:100C7000700330917103601B710B820B930B693E03
:100C800073408105910520F4012B022B032B31F7D2
:100C90000E94D02F60936E0370936F038093700354
:100CA0009093710384ED92E00E94262F8111D6CF9C
:100CB00080915404882391F21092D6021092D502AA
:100CC0001092D40284ED92E01F910F910C94B42EF7
:100CD0000F931F930E94D02F009172031091730302
:100CE0002091740330917503601B710B820B930B81
:100CF0006938734181059105A8F080917C038111C9
:100D000011C060E08BED92E00E94842D8BED92E0AB
:100D10000E94E52D61E08BED92E00E94842D81E040
:100D200080937C030E94D02F009172031091730373
:100D30002091740330917503601B710B820B930B30
:100D400061347F418105910510F180917C038823F6
:100D5000F1F060E08BED92E00E94752E20E030E033
:100D600040E05FE30E94C2370E942E3880912F013D
:100D7000680F609384030E94D02F60937203709376
:100D80007303809374039093750310927C031F91F7
:100D90000F910895AF92BF92CF92DF92EF92FF92A0
:100DA0000F931F9380E10E94A630BC01990F880B1E
:100DB000990B1F921F921F9224E62F93A12CB12C06
:100DC0006501EE24EA9413E0F12E00E010E020E04B
:100DD00030E0A9010E946D37609386030F900F9059
:100DE0000F900F901F910F91FF90EF90DF90CF9099
:100DF000BF90AF900895AF92BF92CF92DF92EF92E3
:100E0000FF920F931F938EE00E94A630BC01990FB2
:100E1000880B990B20912D011F921F921F922F93E7
:100E2000A12CB12C6501EE24EA9413E0F12E00E030
:100E300010E020E030E0A9010E946D376093850347
:100E40000F900F900F900F901F910F91FF90EF90C8
:100E5000DF90CF90BF90AF900895CF92DF92EF9246
:100E6000FF920F931F938091180190911901A09107
:100E70001A01B0911B010091290110912A01012E44
:100E8000000C220B330B40911701442321F1C09039
:100E90002101D0902201E0902301F09024018C0DDB
:100EA0009D1DAE1DBF1DAC01BD01405E5E45684F7E
:100EB0007F4F400F511F621F731F00E010E0980129
:100EC00084E493E00E940A181F910F91FF90EF9025
:100ED000DF90CF900895C0902501D0902601E0903A
:100EE0002701F09028018C0D9D1DAE1DBF1DAC018A
:100EF000BD014052514A67407109401B510B620BC2
:100F0000730BDBCF20E040E060E084E493E00E94DC
:100F1000751460E884E493E00C94A61440912B01CE
:100F200050912C01052E000C660B770B405453405A
:100F300064467E4F84E493E00E94AB1460E084E456
:100F400093E00E94C81462E084E493E00C94C81417
:100F5000FF920F931F93CF93DF9300D0CDB7DEB7EF
:100F6000EEE1F1E010E000E08191080F111D81E059
:100F7000E033F807C9F722E130E04EE151E062E0EA
:100F800070E085E693E00E94BF290F5F1F4F1A8330
:100F9000098322E030E0AE014F5F5F4F70E060E018
:100FA00085E693E00E94BF29E7E1F1E08EE191E060
:100FB00010E000E02191020F111D8E179F07D1F75D
:100FC00060911F0189E0F82E6F9DB00111246A5EC7
:100FD0007F4F27E030E047E151E085E693E00E9453
:100FE000BF290F5F1F4F1A83098360911F016F9DF7
:100FF000B00111246C5E7F4F22E030E0AE014F5F04
:101000005F4F85E693E00E94BF290F900F90DF911C
:10101000CF911F910F91FF9008950F931F930E94FE
:10102000D02F0091660310916703209168033091DF
:101030006903601B710B820B930B61317742810551
:101040009105A0F080917E03882381F00E94D02F2B
:1010500060936603709367038093680390936903BA
:1010600010927E031F910F910C94A8071F910F916E
:101070000895DF92EF92FF920F931F93CF93DF9328
:1010800000D0CDB7DEB71A82198260911F0189E0C6
:10109000689FB00111246C5E7F4F22E030E0AE010A
:1010A0004F5F5F4F85E693E00E94172AF12CE12CF9
:1010B00010E000E089E0D82E80911F01B7018D9DDE
:1010C000600D711D11246A5E7F4F85E693E00E94DA
:1010D000E329080F111D8FEFE81AF80A87E0E816D8
:1010E000F10451F70F5F1F4F89819A810817190783
:1010F000C9F460911F016D9DB00111246A5E7F4F9C
:1011000027E030E047E151E085E693E00E94172AAE
:101110000F900F90DF91CF911F910F91FF90EF9063
:10112000DF9008950E94A807F3CFEF92FF920F93EC
:101130001F93CF93DF9300D0CDB7DEB71A82198209
:1011400022E030E0AE014F5F5F4F70E060E085E687
:1011500093E00E94172A82E0E82EF12C10E000E0D4
:10116000B70185E693E00E94E329080F111D8FEF78
:10117000E81AF80A84E1E816F10491F70F5F1F4FAF
:1011800089819A8108171907A9F422E130E04EE11C
:1011900051E062E070E085E693E00E94172A0E9429
:1011A00039080F900F90DF91CF911F910F91FF9011
:1011B000EF9008950E94A807F2CF8DEF92E00E9471
:1011C000D31AEDEFF2E0158614861786168681E0B5
:1011D00090E0938B828B918B808B63E0CF010E9498
:1011E000892960E371E08DEF92E00E94833361E032
:1011F0008DEF92E00E94892960E571E08DEF92E029
:101200000E9483338DEF92E00E946B1E68EE73E0C4
:1012100080E090E00C942F3080917D038823B1F022
:1012200080918303811112C08091870381508330A4
:1012300068F420E030E0A90164EF71E08CE00E94E6
:101240007F341092870381E08093830380917D0334
:10125000811109C080918303882329F08CE00E94CA
:10126000FC36109283030895CF92DF92EF92FF92A3
:101270000F9360E585E693E00E9493291092450361
:1012800010924403109247031092460310924903B0
:101290001092480310924A0310924B0310924C0391
:1012A00080914D0190914E01A0914F0180934D038B
:1012B00090934E03A0934F0310925003109251034A
:1012C000109252031092530310925403109255033C
:1012D000109256031092570310925803109259031C
:1012E00010925A0310925B0380E892EBA6EEBEE0E8
:1012F00080935C0390935D03A0935E03B0935F03C0
:1013000062E082E00E94ED3062E083E00E94ED3016
:10131000E9E8FAE0E491F0E0EE0FFF1FE256F54F46
:10132000859194919093390380933803E2E7FAE032
:10133000E491E0933C03EAE8FAE0E491F0E0EE0F98
:10134000FF1FE256F54F8591949190933B03809354
:101350003A03E3E7FAE0E491E0933D0310923F03A0
:1013600010924003109241031092420380ED97E0E7
:101370000E946830E0913803F091390390818091A8
:101380003C03982381E009F480E0E0913A03F09176
:101390003B03908120913D03922309F0826028E372
:1013A00033E080933E0330935104209350048091A6
:1013B00069008C7F816080936900E89A81E0809366
:1013C0004303309353042093520480916900837F38
:1013D000846080936900E99A82E08093430380EA05
:1013E000C82E86E8D82EEE24E394F12C0FEF28E8DF
:1013F00033E040E260E88DEF92E00E9451196FE027
:101400008FEE92E00E945C2B6FEE72E08BED92E02B
:101410000F91FF90EF90DF90CF900C94372C8DEFD1
:1014200092E00C948919CF92DF92EF92FF920F9382
:101430001F93CF938DEF92E00E94D31A10920A036C
:101440001092090310920C0310920B0381E090E0BC
:101450009093100380930F0390930E0380930D03DA
:1014600063E08DEF92E00E948929E0918703E031EB
:1014700008F033C1F0E0E15CF54F0C94D0394F0A2D
:10148000F90B190C420C620C890CA50CD30CF60C50
:10149000100D2A0D420D5A0D7C0D9E0DBA0D809136
:1014A000180190911901A0911A01B0911B01803887
:1014B0009649A849B10530F465ED71E08DEF92E0F1
:1014C0000E947033609118017091190180911A0186
:1014D00090911B0130E4C32E32E4D32E3FE0E32E83
:1014E000F12CA70196010E948F39BA01A9012AE0C7
:1014F00030E08DEF92E00E94473480910903909193
:101500000A03059690930A038093090360911801DA
:101510007091190180911A0190911B01A701960108
:101520000E948F39603A76488140910530F460E638
:1015300071E08DEF92E00E9470336091180170911C
:10154000190180911A0190911B0120E432E44FE0CF
:1015500050E00E948F39603177428105910530F467
:1015600060E671E08DEF92E00E94703360911801A7
:101570007091190180911A0190911B0120E432E4CD
:101580004FE050E00E948F3928EEC22E23E0D22E89
:10159000E12CF12CA70196010E948F39BA01A90113
:1015A0002AE030E08DEF92E00E94473462E08DEF58
:1015B00092E00E9489298091090390910A0305967F
:1015C00090930A038093090387E090E090930C03C3
:1015D00080930B03609118017091190180911A0199
:1015E00090911B01A70196010E948F396436710505
:1015F0008105910530F460E671E08DEF92E00E9484
:101600007033609118017091190180911A019091C5
:101610001B0128EE33E040E050E00E948F392AE0C1
:1016200030E040E050E00E948F39BA01A9012AE081
:1016300030E08DEF92E00E946D3461E08DEF92E03A
:101640000E94892980918503843630F460E671E038
:101650008DEF92E00E94703380918503CAE06C2F79
:101660000E946F39682F70E04AE050E08DEF92E001
:101670000E942E3462E671E08DEF92E00E9470339A
:10168000809185036C2F0E946F39692F70E04AE0CA
:1016900050E08DEF92E00E942E3464E671E08DEF11
:1016A00092E00E94703380917D03882309F166E601
:1016B00071E08DEF92E00E9470332091860330E05C
:1016C000EE24E394F12C09E010E047E150E060E4FF
:1016D00070E08DEF92E00E947E248DEF92E0CF913A
:1016E0001F910F91FF90EF90DF90CF900C946B1EA5
:1016F0008091840392E3980F6DE671E09536D0F403
:1017000087FD06C065ED71E08DEF92E00E947033B9
:1017100060918403062E000C770B4AE050E08DEFB9
:1017200092E00E942E3467EF8DEF92E00E947833B2
:101730006BE671E08DEF92E00E94703380917E0342
:1017400065ED71E0811102C062E671E08DEF92E01B
:101750000E9470338091D6028A3030F465ED71E0DA
:101760008DEF92E00E9470334AE050E06091D60223
:101770008DEF92E00E9454348091D40263E771E0CF
:1017800080FD02C065ED71E08DEF92E00E94703344
:101790008091D5028A3030F460E671E08DEF92E0FE
:1017A0000E9470334AE050E06091D5028DEF92E0E4
:1017B0000E9454348091170165E771E0811102C0E5
:1017C00068E771E08DEF92E00E94703380911F0115
:1017D0008A3030F465ED71E08DEF92E00E94703355
:1017E0004AE050E060911F018DEF92E00E94543476
:1017F00074CF4AE050E060911F018DEF92E00E94AB
:101800005B3461E08DEF92E00E9489294AE050E06C
:10181000609187038DEF92E00E9454346BE771E092
:101820008DEF92E00E9470334AE050E06091200119
:10183000DBCFE0911E01F0E0EE0FFF1FE75FFE4FF0
:1018400020813181AAE0B0E00E94D639AB01BC0111
:101850002AE030E08DEF92E00E946D3461E08DEF80
:1018600092E00E9489294AE050E0609187038DEF61
:1018700092E00E9454346DE871E08DEF92E00E9496
:1018800070332BCF8091170167E971E0811102C09D
:101890006BE971E08DEF92E00E94833361E08DEFA0
:1018A00092E00E9489294AE050E0609187038DEF21
:1018B00092E00E9454346FE971E08DEF92E00E9453
:1018C00083330BCF60911C0184E6689FB001112423
:1018D0004AE050E08DEF92E00E94353461E08DEFF8
:1018E00092E00E9489294AE050E0609187038DEFE1
:1018F00092E00E94543460EB71E08DEF92E00E9420
:10190000703360EF8DEF92E00E9478336CEB71E002
:10191000B4CF60911D0124E6629FB00111244AE01A
:1019200050E08DEF92E00E94353461E08DEF92E05F
:101930000E9489294AE050E0609187038DEF92E090
:101940000E94543460EC71E0D8CF62E08DEF92E0F9
:101950000E9489294091250150912601609127011B
:10196000709128012AE030E08DEF92E00E946D3402
:1019700061E08DEF92E00E9489294AE050E0609199
:1019800087038DEF92E00E9454346CEC71E08DEF90
:1019900092E00E94703360EF8DEF92E00E94783306
:1019A00064E971E06ACF62E08DEF92E00E948929DC
:1019B00040912101509122016091230170912401F5
:1019C0002AE030E08DEF92E00E946D3461E08DEF0F
:1019D00092E00E9489294AE050E0609187038DEFF0
:1019E00092E00E94543467ED71E0D1CF60912901FB
:1019F00070912A014AE050E08DEF92E00E94353468
:101A000061E08DEF92E00E9489294AE050E0609108
:101A100087038DEF92E00E94543462EE71E0B7CFFD
:101A200060912B0170912C014AE050E08DEF92E023
:101A30000E94353461E08DEF92E00E9489294AE0EE
:101A400050E0609187038DEF92E00E94543463EF81
:101A500071E09DCF4AE050E060912D018DEF92E062
:101A60000E945B3461E08DEF92E00E9489294AE098
:101A700050E0609187038DEF92E00E9454346FEF45
:101A800071E0FBCE4AE050E0609120018DEF92E0E2
:101A90000E945B3461E08DEF92E00E9489294AE068
:101AA00050E0609187038DEF92E00E9454346AE029
:101AB00072E0E3CE8091D6028A3030F460E671E0C5
:101AC0008DEF92E00E9470334AE050E06091D602C0
:101AD0008DEF92E00E945B3461E08DEF92E00E9416
:101AE00089294AE050E0609187038DEF92E00E94DF
:101AF00054346AE172E0C1CE8091D5028A3030F46C
:101B000060E671E08DEF92E00E9470334AE050E0B1
:101B10006091D5028DEF92E00E945B3461E08DEF21
:101B200092E00E9489294AE050E0609187038DEF9E
:101B300092E00E94543461E272E09FCE80912E01C7
:101B40006AE272E0811102C06EE272E08DEF92E013
:101B50000E94833361E08DEF92E00E9489294AE080
:101B600050E0609187038DEF92E00E94543461E36E
:101B700072E0A3CE60912F01062E000C770B4AE095
:101B800050E08DEF92E00E94353461E08DEF92E0FD
:101B90000E9489294AE050E0609187038DEF92E02E
:101BA0000E94543463E472E08DEF92E00E9470333F
:101BB00060EF8DEF92E00E94783367EF8DEF92E057
:101BC0000E9478336BE671E058CE0F9326E040E038
:101BD00051EE60E070E08BE594E00E94533260E0EB
:101BE00084E00E94ED3060E080E10E94ED3061E031
:101BF0008CE00E94ED3061E084E00E94293183E0B6
:101C00000E94A33001E021E04CE362E08DEF92E01E
:101C10000E94F11A8DEF92E00E94D31A8DEF92E0AC
:101C20000E946B1E8BED92E00E94222D0E9495086F
:101C30000E9482070E948E070E942D070E94FB06C9
:101C40000E94CA060E9468060E9420060E94DD08C3
:101C50000F910C94130A81E10E94573120917D036A
:101C6000892B51F021110AC081E080937D030C94EF
:101C7000130A10927D03FBCF2111FBCF08950F9320
:101C80001F9384E00E94573120910601892B29F58A
:101C9000222361F0109206010E94D02F60936A0304
:101CA00070936B0380936C0390936D031F910F915E
:101CB00008951092870331C08F5F843059F080936C
:101CC000870380918703803108F440C084E08093CB
:101CD00087033CC010928703F4CF2111E7CF81E046
:101CE000809306010E94D02F00916A0310916B032C
:101CF00020916C0330916D03601B710B820B930B71
:101D0000683E23E072078105910538F02091870332
:101D10002111CFCF24E020938703655671098109F3
:101D200091096338734081059105D8F48091870348
:101D30009FEF980F933008F0BFCF90917A039923CB
:101D400009F4BACF10927A03109287038091200190
:101D5000811107C080918703813019F482E080935C
:101D600087031F910F910C94130A4F925F926F9209
:101D70007F928F929F92AF92BF92CF92DF92EF921B
:101D8000FF92CF93DF93CDB7DEB728970FB6F894C5
:101D9000DEBF0FBECDBF80914303823008F051C03B
:101DA000F89488E393E00E948E0560913F03709160
:101DB00040038091410390914203789424E030E005
:101DC00040E050E00E94B13969017A0180912E0112
:101DD000882341F0F094E094D094C094C11CD11CAD
:101DE000E11CF11C80907F0390908003A090810300
:101DF000B09082038C149D04AE04BF0409F4C5C0E6
:101E0000E09187039FEF9E0F943018F491E0909338
:101E10007A03E03108F0A2C0F0E0EF5EF04F0C94DE
:101E2000D039230F0A102A1048104F1077109F1036
:101E30000C117911A811F01115123B125B127712D7
:101E40008812F894B2CF4090180150901901609018
:101E50001A0170901B01A0911D01B0E020EA36E844
:101E600041E050E00E94E5396D837E838F8398873F
:101E7000A0911C01B0E00E94E53969837A838B83CD
:101E80009C838C149D04AE04BF040CF093C02D8180
:101E90003E814F815885241535054605570550F17B
:101EA000E0911E01F0E0EE0FFF1FE75FFE4F208183
:101EB0003181AAE0B0E00E94D6394B015C01C30138
:101EC000B201A50194010E948F39480C591C6A1C6B
:101ED0007B1C611571058105910521F0461A570A91
:101EE000680A790A409218015092190160921A0109
:101EF00070921B018091180190911901A0911A0113
:101F0000B0911B0129813A814B815C818217930733
:101F1000A407B50740F420931801309319014093AA
:101F20001A0150931B018091180190911901A09101
:101F30001A01B0911B012D813E814F8158852817D0
:101F400039074A075B0740F42093180130931901C1
:101F500040931A0150931B010E942D070E94D02F1D
:101F6000609366037093670380936803909369039B
:101F700081E080937E030E94130AC0927F03D09277
:101F80008003E0928103F092820328960FB6F894C2
:101F9000DEBF0FBECDBFDF91CF91FF90EF90DF90FE
:101FA000CF90BF90AF909F908F907F906F905F90F9
:101FB0004F900895C814D904EA04FB040CF09ACF9A
:101FC00089819A81AB81BC81481659066A067B06D5
:101FD00008F490CFE0911E01F0E0EE0FFF1FE75FE5
:101FE000FE4F20813181AAE0B0E00E94D6394B013A
:101FF0005C01C301B201A50194010E948F396115F2
:1020000071058105910509F069CF481859086A08DA
:102010007B0868CF9091200180911F018C149D0452
:10202000AE04BF0474F4891718F48F5F80931F0106
:1020300080911F01981710F490931F010E94390896
:102040008BCFC814D904EA04FB0494F7882381F3E6
:102050008150ECCF80911E018C149D04AE04BF040E
:1020600074F4863018F48F5F80931E0180911E01F6
:10207000873008F473CF86E080931E016FCFC814B9
:10208000D904EA04FB0494F7882381F38150ECCF50
:102090008091170191E08927809317015DCF80918E
:1020A0001C018C149D04AE04BF04ACF4883C18F4ED
:1020B0008F5F80931C0120911C0180911D012A30AB
:1020C00098F030E08150990B281739070CF4C901BA
:1020D00080931C0143CFC814D904EA04FB045CF7C5
:1020E0008A3048F38150E5CF8AE090E0F1CF8091CB
:1020F0001D018C149D04AE04BF04C4F4883C18F484
:102100008F5F80931D0180911C0190E001962091CA
:102110001D0130E02817390734F0C901883C9105CA
:1021200014F087EC90E080931D0118CFC814D904F7
:10213000EA04FB0444F78A3030F38150E2CF809107
:10214000250190912601A0912701B09128018C14BE
:102150009D04AE04BF040CF045C0813833EC9307F6
:1021600039ECA30731E0B307A8F4E0911E01F0E0D9
:10217000EE0FFF1FE75FFE4F20813181820F931F1B
:10218000A11DB11D8093250190932601A0932701E5
:10219000B09328018091250190912601A0912701FB
:1021A000B0912801813853EC950759ECA50751E00F
:1021B000B50720F080E893ECA9ECB1E0803422E48C
:1021C00092072FE0A207B10520F480E492E4AFE08B
:1021D000B0E08093250190932601A0932701B0934E
:1021E0002801BACEC814D904EA04FB049CF6803452
:1021F00042E494074FE0A407B10560F2E0911E01AC
:10220000F0E0EE0FFF1FE75FFE4F20813181821B60
:10221000930BA109B109B6CF8091210190912201C0
:10222000A0912301B09124018C149D04AE04BF043D
:102230000CF045C0813833EC930739ECA30731E04B
:10224000B307A8F4E0911E01F0E0EE0FFF1FE75F77
:10225000FE4F20813181820F931FA11DB11D8093FC
:10226000210190932201A0932301B0932401809136
:10227000210190912201A0912301B0912401813884
:1022800053EC950759ECA50751E0B50720F080E81D
:1022900093ECA9ECB1E0803422E492072FE0A2078E
:1022A000B10520F480E492E4AFE0B0E08093210136
:1022B00090932201A0932301B09324014DCEC81422
:1022C000D904EA04FB049CF6803442E494074FE00E
:1022D000A407B10560F2E0911E01F0E0EE0FFF1FD0
:1022E000E75FFE4F20813181821B930BA109B10969
:1022F000B6CF8C149D04AE04BF04A4F4E0911E017B
:10230000F0E0EE0FFF1FE75FFE4F8081918120918B
:10231000290130912A01820F931F90932A01809303
:1023200029011ACEC814D904EA04FB040CF014CE17
:10233000E0911E01F0E0EE0FFF1FE75FFE4F80917E
:10234000290190912A0120813181821B930BE5CFD5
:1023500080912B0190912C018C149D04AE04BF043C
:1023600054F5813335E793077CF4E0911E01F0E0EA
:10237000EE0FFF1FE75FFE4F20813181820F931F19
:1023800090932C0180932B0180912B0190912C0133
:10239000813355E7950714F080E395E7803DAAE87F
:1023A0009A0714F480ED9AE890932C0180932B0106
:1023B0000E948E07D1CDC814D904EA04FB0424F787
:1023C000803D4AE8940704F3E0911E01F0E0EE0F2F
:1023D000FF1FE75FFE4F20813181821B930BD0CF1F
:1023E00080912D018C149D04AE04BF04ACF48F3F8A
:1023F00019F08F5F80932D0180912D018F3F19F48B
:102400008EEF80932D0180912D01843608F0A6CDAA
:1024100084E680932D01A2CDC814D904EA04FB04FC
:102420005CF7843648F38150E5CF809120018C140D
:102430009D04AE04BF04B4F4833618F48F5F809318
:10244000200180912001843618F083E680932001DA
:102450008091200190911F01891708F07FCD809312
:102460001F017CCDC814D904EA04FB0454F7882367
:1024700041F38150E4CF8091D6028C149D04AE04C8
:10248000BF0484F4883118F48F5F8093D602809162
:10249000D602883118F087E18093D60281E08093DC
:1024A0007B035CCDC814D904EA04FB0484F78823B9
:1024B00071F38150EACF8091D5028C149D04AE0453
:1024C000BF0464F48C3318F48F5F8093D50280913D
:1024D000D5028C3318F31092D502E0CFC814D9047A
:1024E000EA04FB04A4F7882391F38150EECF8823FC
:1024F00059F010922E01F094E094D094C094C11C35
:10250000D11CE11CF11C2ACD81E080932E01F3CF78
:1025100080912F018C149D04AE04BF04A4F48F316C
:102520001CF48F5F80932F0180912F01823EA4F0D5
:10253000082E000C990B8F31910514F08EE190E07C
:1025400080932F010BCDC814D904EA04FB0464F76F
:10255000823E54F38150E6CF82EE9FEFF1CF0F938E
:102560001F930E943F0E0E94B50E0E942B0E0E94E8
:102570000C098091870381113DC080917D038823E0
:10258000E1F184E690E090930801809307010E94B6
:10259000D02F00917603109177032091780330912A
:1025A0007903AB01BC01401B510B620B730B809193
:1025B000070190910801092E000CAA0BBB0B841790
:1025C0009507A607B707B0F40E940D080E94FB0606
:1025D0000E94CA060E9468060E9420060E94130AF2
:1025E0000E94D02F609376037093770380937803D3
:1025F000909379031F910F91089588EE93E0C3CFD4
:1026000084EA8093BC008091BC0087FFFCCF80915E
:10261000B900887F089584E98093BC008091BC0054
:1026200084FDFCCF08958093BB0084E88093BC00B8
:102630008091BC0087FFFCCF9091B900987F81E02A
:10264000983231F0983129F0903419F080E00895F3
:1026500008950895CF93C82F0E940013882329F06E
:102660008C2F880FCF910C94131380E0CF91089595
:10267000CF93DF93D82FC62F80E60E942A138D2F89
:102680000E9413138C2F0E941313DF91CF910C948F
:102690000B135F926F927F928F929F92AF92BF9235
:1026A000CF92DF92EF92FF920F931F93CF93DF931E
:1026B000CDB7DEB7582E742E652EB62E922E80E63C
:1026C0000E942A13852D0E9413138D2D0E9413132F
:1026D0008C2D0E9413138B2D8370A82A80E081100B
:1026E0008CE08A290E941313862D0E941313872DD4
:1026F0000E9413138CE0F694E794D794C7948A95BC
:10270000D1F78C2D807FC82E892D8F708C290E9447
:102710001313812F0E941313802F0E941313DF9134
:10272000CF911F910F91FF90EF90DF90CF90BF90CE
:10273000AF909F908F907F906F905F900C940B1351
:102740008F929F92AF92BF92CF92DF92EF92FF92C1
:102750000F931F93DF93D82F862ECA01B90127E06C
:10276000660F771F881F991F2A95D1F7A801970137
:102770000E948F39DC01CB01912CB12CA12C67E098
:10278000880C991CAA1CBB1C6A95D1F762E0961AAA
:10279000A108B108BA01A901480D591D6A1D7B1D88
:1027A000812CAC2C670178018C019D018D2F0E943A
:1027B0004913DF911F910F91FF90EF90DF90CF9021
:1027C000BF90AF909F908F9008958F92AF92CF92CD
:1027D000DF92EF92FF920F931F93882483944430EB
:1027E00051056105710509F0812C445051096109B9
:1027F0007E4F97E0440F551F661F771F9A95D1F7BC
:10280000A22EC12CD12C7601C39400E010E09801D7
:102810000E9449131F910F91FF90EF90DF90CF908E
:10282000AF908F9008954F925F926F927F928F92A8
:102830009F92AF92BF92CF92DF92EF92FF920F934F
:102840001F93CF93C62FFC01C08CD18CE28CF38CEC
:10285000CA01B901A70196010E948F3949015A01A5
:1028600025E0F694E794D794C7942A95D1F735E0FC
:1028700096958795779567953A95D1F747E0660FD6
:10288000771F881F991F4A95D1F7A70196010E94CB
:102890008F3929013A018B019C01B501A40155270B
:1028A00066277727E7E0440F551F661F771FEA95D5
:1028B000D1F7525061097109440D551D661D771DF0
:1028C000812CA12C8C2F0E944913CF911F910F9125
:1028D000FF90EF90DF90CF90BF90AF909F908F9040
:1028E0007F906F905F904F900895FC0161874287C1
:1028F000238760E880E10E94381360E881E10E944C
:10290000381360E882E10E94381380913B01909176
:102910003C01A0913D01B0913E0140913F01509199
:1029200040016091410170914201840F951FA61FE3
:10293000B71FB695A7959795879580933701909384
:102940003801A0933901B0933A010895607C626127
:1029500087EB0C943813FC01408F518F628F738F7B
:1029600008950F931F93CF938C01C62F60E880E1E9
:102970008C0F0E9438138C2F90E0880F991F800FC6
:10298000911FFC0111821082CF911F910F91089528
:102990004F925F926F927F928F929F92AF92BF926F
:1029A000CF92DF92EF92FF920F931F93CF93DF931B
:1029B0005C01D62F062F10E0F8013396EE0FFF1FB3
:1029C000EE0FFF1FE80FF91F408051806280738077
:1029D0004114510461047104A1F46D2FC501DF910C
:1029E000CF911F910F91FF90EF90DF90CF90BF900C
:1029F000AF909F908F907F906F905F904F900C94CE
:102A0000B1144801880C991C880E991EF401C080ED
:102A1000D180F12CE12C080F191FF801C681A30108
:102A20009201C701B6010E945F399B01AC01EC2FF6
:102A3000F0E0ED5BFE4FA081B0E00E94E53920910F
:102A40003B0130913C0140913D0150913E016217A4
:102A500073078407950770F020913F013091400182
:102A60004091410150914201261737074807590705
:102A700008F03FC0609137017091380180913901B1
:102A800090913A01A30192010E948F3969017A0164
:102A9000F4E0CF16D104E104F10408F49ECF86E0FF
:102AA000C816D104E104F10408F46FC0C0E0EDE2FF
:102AB000CE16E1E0DE06E104F10430F0CF5FF694DB
:102AC000E794D794C794F3CFC11103C0E894C0F83A
:102AD000C0E0A3019201C701B6010E945F399B01CA
:102AE000AC01EC2FF0E0ED5BFE4FA081B0E00E9466
:102AF000E539EAE1D111E2E29B01AC016E2FC5019B
:102B00000E941314F40180819181B0E0A0E08C1543
:102B10009D05AE05BF0521F4F80186818C1721F1D2
:102B20002C2F2295207FB701A6018D2F880F880FAB
:102B3000880F865D0E94E513F801618580E0D11160
:102B400080E26C64682B80E18D0F0E943813F401E1
:102B5000D182C082F801C683F50180A190E2D11133
:102B600090E8892BF50180A3DF91CF911F910F9100
:102B7000FF90EF90DF90CF90BF90AF909F908F909D
:102B80007F906F905F904F90089584E0C82ED12C75
:102B9000E12CF12C9BCF2F923F924F925F926F923C
:102BA0007F928F929F92AF92BF92CF92DF92EF92DD
:102BB000FF920F931F93CF93DF9300D000D0CDB738
:102BC000DEB79C838B83162FFC0180899189A289B3
:102BD000B389892B8A2B8B2B21F461E0CF010E94D2
:102BE000B114EB81FC8184899589A689B789892BE9
:102BF0008A2B8B2B21F462E0CF010E94B114EB8170
:102C0000FC8180889188A288B38881149104A104F2
:102C1000B10409F451C1112309F4A6C0C280D380C4
:102C2000F12CE12C1781A5019401C701B6010E9486
:102C30005F399B01AC01E12FF0E0ED5BFE4FA0811D
:102C4000B0E00E94E5392B013C0180913B0190915D
:102C50003C01A0913D01B0913E01481659066A061B
:102C60007B0670F080913F0190914001A09141015D
:102C7000B091420184159505A605B70508F042C03C
:102C800060913701709138018091390190913A013A
:102C9000A50194010E948F3969017A0161E0F4E095
:102CA000CF16D104E104F10408F47AC086E0C81616
:102CB000D104E104F10408F48DC010E0EDE2CE1679
:102CC000E1E0DE06E104F10430F01F5FF694E794E2
:102CD000D794C794F3CF111103C0E894C0F810E063
:102CE000A5019401C701B6010E945F399B01AC01A7
:102CF000E12FF0E0ED5BFE4FA081B0E00E94E539EE
:102D00002B013C01A301920162E28B819C810E9414
:102D10001314EB81FC8182819381B0E0A0E08C15DB
:102D20009D05AE05BF0519F487818117B9F0212FE4
:102D30002295207FB701A60182E30E94E513EB8173
:102D4000FC8162856C6681E10E943813EB81FC8115
:102D5000D382C282178380A1806880A3EB81FC812B
:102D6000448E558E668E778EEB81FC81C488D58823
:102D7000E688F788C114D104E104F10409F485C0A0
:102D8000448C558C668C778CC301B201A7019601E7
:102D90000E948F39283031054105510508F562E060
:102DA0008B819C810F900F900F900F90DF91CF91AE
:102DB0001F910F91FF90EF90DF90CF90BF90AF9059
:102DC0009F908F907F906F905F904F903F902F904B
:102DD0000C94B114E4E0CE2ED12CE12CF12C7DCF5B
:102DE0001982213431054105510560F0F981FF5FF9
:102DF000F983CC0CDD1CEE1CFF1C569547953795CE
:102E00002795EFCFC301B201A70196010E948F3928
:102E10002A832FEF3FEF4FE050E00E94F039560138
:102E20006701E12CF12C00E010E00E941D3A29011D
:102E30003A01C980C29440EFC422E12CF12C8701F1
:102E4000E394411451046104710429F0EE24EA94DE
:102E5000FE2C0FE010E0A30192016A818AE30E9438
:102E6000A0138CE445284628472809F08CE0EB8124
:102E7000FC8163856062682B82E10E94381381E0E7
:102E800090E0EB81FC81958384830F900F900F90ED
:102E90000F90DF91CF911F910F91FF90EF90DF90F6
:102EA000CF90BF90AF909F908F907F906F905F90EA
:102EB0004F903F902F900895EB81FC814488558876
:102EC000668877884114510461047104F1F2C4806A
:102ED000D580F12CE12C9084A3019201C701B601A9
:102EE0000E945F399B01AC01E92DF0E0ED5BFE4FE4
:102EF000A081B0E00E94E53900913B0110913C01B6
:102F000020913D0130913E016017710782079307C0
:102F100070F000913F0110914001209141013091EA
:102F20004201061717072807390708F03FC06091CC
:102F30003701709138018091390190913A01A301D4
:102F400092010E948F3969017A01F4E0CF16D10411
:102F5000E104F10408F423CF86E0C816D104E104AB
:102F6000F10408F451C0912CEDE2CE16E1E0DE064A
:102F7000E104F10430F09394F694E794D794C79465
:102F8000F3CF911003C0E894C0F8912CA3019201F3
:102F9000C701B6010E945F399B01AC01E92DF0E049
:102FA000ED5BFE4FA081B0E00E94E5399B01AC01D2
:102FB00062E28B819C810E941314EB81FC818481ED
:102FC0009581B0E0A0E08C159D05AE05BF0521F40C
:102FD0008085891509F459CF292D2295207FB701C5
:102FE000A6018AE30E94E513EB81FC8163856C6690
:102FF00082E10E943813EB81FC81D582C4829086E5
:1030000080A1806880A341CF84E0C82ED12CE12C20
:10301000F12CB9CF4F925F926F927F928F929F92D5
:10302000AF92BF92CF92DF92EF92FF920F931F93D6
:10303000CF93DF93EC014801590118A248885988C1
:103040006A887B8811E0481459046A047B0409F4F7
:1030500010E08C859D85AE85BF8584179507A607F2
:10306000B70741F04C875D876E877F8760E0CE01B0
:103070000E94C814481459046A047B0449F48C89DA
:103080009D89AE89BF898C159D05AE05BF0561F090
:10309000888A998AAA8ABB8ACC8ADD8AEE8AFF8AC4
:1030A000612FCE010E94CB1568A1662319F081EB38
:1030B0000E94381388A1DF91CF911F910F91FF904B
:1030C000EF90DF90CF90BF90AF909F908F907F90C8
:1030D0006F905F904F90089590E080E0089508957C
:1030E000FC0177FD64C080859185681779070CF035
:1030F0005EC057FD5CC082859385481759070CF068
:1031000056C086898230B1F0833029F1813041F494
:1031100084819581841B950BAB01BC0161507109C1
:103120002130310509F108F443C02230310509F49A
:1031300063C0089584819581DC01A61BB70BBD0196
:103140006150710986819781DC01A41BB50BAD012B
:1031500041505109E5CF86819781861B970BBA01B3
:10316000AC0141505109DCCFCA0157FD0796A3E0DD
:1031700095958795AA95E1F7A481B5818A9F9001DD
:103180008B9F300D9A9F300D1124620F731F078C97
:10319000F0A1E02DE60FF71F4770552721E030E042
:1031A00001C0220F4A95EAF78081822B808308951F
:1031B000CA0157FD079633E0959587953A95E1F753
:1031C000A481B5818A9F90018B9F300D9A9F300D0D
:1031D0001124620F731F078CF0A1E02DE60FF71F7B
:1031E0004770552781E090E001C0880F4A95EAF7C3
:1031F000809590818923DACFCA0157FD079623E095
:10320000959587952A95E1F7A481B5818A9F9001CC
:103210008B9F300D9A9F300D1124620F731F078C06
:10322000F0A1E02DE60FF71F4770552721E030E0B1
:1032300001C0220F4A95EAF780818227B7CF2091FB
:103240004E04222381F03FB7F89420914E042130A0
:1032500069F42DB320934C044DB320914D04209577
:1032600024232DBB3FBF8CBD9DBD089530934C04DE
:10327000FACF8EBD00000DB407FEFDCF8EB50895C8
:1032800080914E04882361F09FB7F89420914E04FA
:1032900080914C04213019F48DBB9FBF08958FBFDE
:1032A0000895AF92BF92CF92DF92EF92FF920F9369
:1032B000CF93DF93EC01590150E070E00E94CD25DF
:1032C00082E592E099838883A114B10421F488E80F
:1032D000A82E83E0B82EBE8EAD8E18A21F8E8FEF63
:1032E0008CA38DA38EA38FA308A781E58DAB81E06E
:1032F0008EABCFAAD8AEE9AEFAAE1C8E1B8EDF9194
:10330000CF910F91FF90EF90DF90CF90BF90AF9053
:10331000089522E532E0FC0131832083878D90A15E
:10332000009711F00C94333B08951F93CF93DF93D4
:10333000EC018D8D9E8D009711F1162F69A1062E3F
:10334000000C770B0E9436208D8D9E8DDC01ED9157
:10335000FC910190F081E02D60E009958D8D9E8DAE
:10336000DC01ED91FC910190F081E02D612F099538
:103370008D8D9E8DDF91CF911F910C94B420ADA5C2
:10338000BEA59C918BA9809589238C938B8D9C8D58
:10339000892B31F0862FDF91CF911F910C94391931
:1033A00028E030E080E8A9A5BAA599A9462F4823CE
:1033B000C1F04C91942B9C93ABA5BCA59C914AA9C0
:1033C000942B9C93ABA5BCA54C919AA99095942362
:1033D0009C9386952150310931F7DF91CF911F9150
:1033E00008954C9190959423E6CF1F93CF93DF934C
:1033F000EC01162F8D8D9E8D0097C9F040E85AE1A3
:1034000066E070E00E94282066EA111167EACE01AA
:103410000E9495198D8D9E8D0097C9F04FA958ADCA
:1034200069AD7AADDF91CF911F910C9428208B8DDF
:103430009C8D892B21F08DA99EA90E941F19EFA5B3
:10344000F8A990818CA9809589238083DDCFEFA591
:10345000F8A980819CA9892B80838B8D9C8D892BD9
:1034600029F0DF91CF911F910C944019DF91CF91FA
:103470001F910895DF92EF92FF920F931F93CF93C6
:10348000DF93EC01D62E072F142F8D8D9E8D009784
:1034900009F448C069A1062E000C770B0E94362063
:1034A0008D8D9E8DDC01ED91FC910190F081E02DE0
:1034B00060E00995ED2CF02E01E011508D8D9E8D70
:1034C0001F3F39F10032A8F00E94B42069A1062EF6
:1034D000000C770B8D8D9E8D0E9436208D8D9E8DDC
:1034E000DC01ED91FC910190F081E02D60E0099507
:1034F00001E08D8D9E8DF7016491DC01ED91FC91D1
:103500000190F081E02D09950F5FBFEFEB1AFB0AE8
:10351000D4CFDF91CF911F910F91FF90EF90DF906B
:103520000C94B420EDA5FEA590818BA980958923EC
:103530008083E62EF72E115070F1F70184912B8DC8
:103540003C8D232B31F00E943919EFEFEE1AFE0A61
:10355000F2CF28E030E040E8E9A5FAA599A9582F74
:103560005423A9F05081952B9083EBA5FCA5908165
:103570005AA9952B9083EBA5FCA550819AA990950B
:103580009523908346952150310931F7DECF508144
:1035900090959523E9CFDF91CF911F910F91FF90E7
:1035A000EF90DF900895FC01868197819C01295F4F
:1035B0003F4F37FF02C0295F3F4F83E03595279586
:1035C0008A95E1F784819581289FA001299F500D5C
:1035D000389F500D112470E060E0878D90A10C940D
:1035E000C13B8F929F92AF92BF92CF92DF92EF92A8
:1035F000FF920F931F93CF93DF93EC01862EB42E8F
:10360000A22E902E8F8D98A1892B39F1CE010E9488
:10361000D31A8E819F816C817D81813291050CF05E
:1036200046C0AC014052510957FF02C04F5F5F4F87
:10363000559547956357710977FF02C06F5F7F4FBC
:1036400075956795CC24C394D12CA0E2EA2EF12C79
:1036500003E710E029E930E045C02E813F81C90130
:10366000079697FD079623E0959587952A95E1F7AC
:103670002C813D81AC01429FC001439F900D529F20
:10368000900D11240E94973A98A38F8F892B09F0EF
:10369000BDCF80E0DF91CF911F910F91FF90EF9010
:1036A000DF90CF90BF90AF909F908F900895AC0126
:1036B0004054510957FF02C04F5F5F4F55954795E2
:1036C0006255710977FF02C06F5F7F4F75956795EF
:1036D000CC24C394D12C80E4E82EF12C02E510E038
:1036E00029E732E0CE010E94EF258AA22D8D3E8D82
:1036F0002115310509F48FC09B2DB11006C08E81B4
:103700009F81809709F085C09CE399A3992009F4D3
:1037100042C1C9010E941620AA20F1F088A587FDA8
:103720001BC061E00E94ED3061E088A50E94293154
:1037300061E070E080E090E00E942F3060E088A5BA
:103740000E9429316AE070E080E090E00E942F3012
:1037500061E088A50E9429312D8D3E8D211531050E
:1037600009F4D3C040E85AE166E070E0C9010E9464
:10377000282044E065E970E0CE010E943A1A6E818B
:103780006150CE010E94951944E061E970E0CE01DC
:103790000E943A1A8AA160E1813009F064E1CE0109
:1037A0000E94951944E06DE870E0CE010E943A1A3B
:1037B0008C819D818038910509F0CAC08E819F81DE
:1037C0008032910509F0B1C044E069E870E0CE01B3
:1037D0000E943A1A69EDCE010E9495198AA162E20F
:1037E000813009F061EFCE010E94951946E06DE746
:1037F00070E0CE010E943A1A8D8D9E8D009709F4DB
:10380000BCC04FA958AD69AD7AAD0E94282081E0B7
:1038100041CF9DE37ACF61E08EA10E94ED3061E05F
:103820008FA10E94ED308EA1082E000C990BFC0197
:10383000E957F54FE491F0E0EE0FFF1FE855F54F23
:10384000259134913EA72DA7FC01E059F54FE49155
:10385000EBAB8FA1082E000C990BFC01E957F54F3B
:10386000E491F0E0EE0FFF1FE855F54FA591B491FC
:10387000B8ABAFA7FC01E059F54FE491ECAB8C91EC
:10388000E82BEC938B8D9C8D892B31F0992009F4DA
:1038900043CF0E94F92240CF61E08CA10E94ED301D
:1038A00061E08DA10E94ED308CA1082E000C990BD7
:1038B000FC01E957F54FE491F0E0EE0FFF1FE855EA
:1038C000F54F259134913AA729A7FC01E059F54F0E
:1038D000E491E9AB8DA1082E000C990BFC01E9578E
:1038E000F54FE491F0E0EE0FFF1FE855F54FA5917D
:1038F000B491BCA7ABA7FC01E059F54FE491EAAB4A
:103900008C91E095E823EC9307CF8B8D9C8D892BD0
:1039100021F08DA99EA90E941F19EFA5F8A99081F9
:103920008CA980958923808324CF8034910509F068
:1039300051CF43E066E870E0CE010E943A1A8AA1B6
:103940006FE9813009F06FECCE010E94951942CFEA
:103950008036910509F03ECF8E819F81409709F016
:1039600039CF43E063E870E0CE010E943A1A8AA1A1
:1039700060E1813049F36FEAE7CFEFA5F8A98081D4
:103980009CA9892B80838B8D9C8D892B09F43FCF3B
:103990000E9440193CCFA110C1CEE4CE0F931F93DB
:1039A000CF93DF93DC0157FD46C016968D919C9115
:1039B0001797481759070CF03EC077FF04C0260F31
:1039C000371F70E060E01496CD91DC911597CB0124
:1039D000820F931FC817D9071CF49E01261B370BB3
:1039E0001216130644F5FA0157FD379683E0F59554
:1039F000E7958A95E1F7EC9FC001ED9F900DFC9F44
:103A0000900D1124680F791F5F96ED91FC91E60FE0
:103A1000F71F4770552781E090E001C0880F4A9555
:103A2000EAF7482F0130110559F0A8F02E0F3F1F7B
:103A300002301105E1F0DF91CF911F910F910895B0
:103A40002E0F3F1FE217F307B1F38191DF011197AA
:103A5000842B8C93F7CF80952E0F3F1FE217F3072F
:103A600051F39191DF01119798239C93F7CFE217BF
:103A7000F30709F38191DF01119784278C93F7CF26
:103A8000EF92FF920F931F93CF93DF93EC0177FD9B
:103A900076C0EC80FD806E157F050CF070C057FF7E
:103AA00004C0240F351F50E040E08E819F81FA0151
:103AB000E20FF31F8E179F071CF49C01241B350B8C
:103AC000121613060CF05BC0922F842F86958695F4
:103AD00086958E9DD0018F9DB00D11246A0F7B1F9E
:103AE000AF8DB8A1A60FB71F477049F188E0841BBE
:103AF000482F682F70E0FB01EB58FF4FE491281727
:103B000008F063C0621B71092FEF30E002C03595E9
:103B100027956A95E2F7E2230130110539F0B0F1FB
:103B20000230110561F58C91E82702C08C91E82BD9
:103B3000EC93941720F12C813D81A20FB31FE92F44
:103B4000E41BE83078F00230110521F58E2F9C91AE
:103B500090959C932C813D81A20FB31F8850883093
:103B6000B0F7E770EE2359F0F0E0E359FF4FE4912E
:103B700001301105F9F010F10230110519F1DF9152
:103B8000CF911F910F91FF90EF900895E0958C9148
:103B9000E823CECF81E00115110509F480E081957D
:103BA0009E2F8C932C813D81A20FB31F985098308B
:103BB000C0F7D7CF8C91E82BEC93E1CFE0958C91B7
:103BC000E823FACF8C91E827F7CF0130110509F4EB
:103BD000ADCFE0F20230110509F4A5CFAE0DBF1D47
:103BE000AECF0F931F93FA01DC0156964C91569776
:103BF000423089F0433039F14130F9F414964D9157
:103C00005C91DA01AE1BBF0BFD013197AB01BF0127
:103C10000E94401D15C016964D915C91DA01AE1BB5
:103C2000BF0BFD013197DC0114964D915C91DA01D7
:103C3000A61BB70BBD01621B730BAF010E94CE1C0C
:103C40001F910F91089516964D915C91DA01A61B74
:103C5000B70BBD01621B730BD9CF0F931F93FA01F2
:103C6000DC0156964C915697423091F0433049F121
:103C7000413009F514964D915C91DA01AE1BBF0BF2
:103C8000FD01E21BF30BAB01BF010E94CE1C16C06D
:103C900014964D915C91DA01A61BB70BBD016150E2
:103CA0007109DC0116964D915C91DA01AE1BBF0BD8
:103CB000FD01E21BF30BAF010E94401D1F910F910C
:103CC000089516964D915C91DA01A61BB70BBD01C4
:103CD00061507109D8CFCF92DF92EF92FF920F938C
:103CE0001F93CF93DF93EC018D8D9E8D009709F488
:103CF0006AC040E85AE166E070E00E94282045E092
:103D000068E670E0CE010E943A1A6C816150CE01E3
:103D10000E9495192E813F81C901079697FD07964C
:103D200023E0959587952A95E1F72C813D81829F27
:103D30007001839FF00C929FF00C11240F8D18A13D
:103D40008D8D9E8DE00EF11E009709F461C069A172
:103D5000062E000C770B0E9436208D8D9E8DDC0187
:103D6000ED91FC910190F081E02D60E409956801EE
:103D700011E08D8D9E8DEC14FD04A9F11032A8F098
:103D80000E94B42069A1062E000C770B8D8D9E8DAC
:103D90000E9436208D8D9E8DDC01ED91FC9101906D
:103DA000F081E02D60E4099511E08D8D9E8DF60186
:103DB00061916F01DC01ED91FC910190F081E02DAA
:103DC00009951F5FD6CF8B8D9C8D892B21F08DA9F6
:103DD0009EA90E941F19EFA5F8A990818CA9809532
:103DE000892380838CCF0E94B4208D8D9E8D009777
:103DF00009F443C04FA958AD69AD7AADDF91CF91B9
:103E00001F910F91FF90EF90DF90CF900C9428209E
:103E1000EDA5FEA580819BA9892B8083E016F10684
:103E200021F3F80181918F012B8D3C8D232B19F00B
:103E30000E943919F3CF28E030E040E8E9A5FAA55F
:103E400099A9582F5423A9F05081952B9083EBA565
:103E5000FCA590815AA9952B9083EBA5FCA55081D8
:103E60009AA990959523908346952150310931F771
:103E7000D5CF508190959523E9CFEFA5F8A9808102
:103E80009CA9892B80838B8D9C8D892B51F0DF9190
:103E9000CF911F910F91FF90EF90DF90CF900C94F6
:103EA0004019DF91CF911F910F91FF90EF90DF901C
:103EB000CF9008958091BC039091BD03891B990B0D
:103EC00008959091BD038091BC032FEF3FEF9817A9
:103ED00048F4E92FF0E0E254FC4F208130E09F5F8E
:103EE0009093BD03C9010895E091BD038091BC0387
:103EF000E81730F4F0E0E254FC4F808190E0089540
:103F00008FEF9FEF08950895CF93DF93EC01E09139
:103F10009403F09195033097F1F09091BD03809157
:103F2000BC039817C0F090E0292F30E02617370720
:103F300054F4DE01A20FB31F4C9122543C4FD9011F
:103F40004C939F5FF1CF1092BD036093BC03CB01F4
:103F5000DF91CF910994DF91CF910895E09196037D
:103F6000F0919703309729F010929A0310929903D9
:103F700009940895CF93DF931F92CDB7DEB769837D
:103F8000209198032223F9F020919903203258F0D0
:103F900021E030E0FC013383228390E080E00F9049
:103FA000DF91CF91089580919A03E82FF0E0E556D4
:103FB000FC4F998190838F5F80939A03809399033C
:103FC00081E090E0ECCF61E0CE0101960E94982163
:103FD000F7CFCF92DF92EF92FF920F931F93CF9381
:103FE000DF937C01CB018A0120919803222389F081
:103FF000EB016B01C40ED51ECC15DD0569F069918E
:10400000D701ED91FC910190F081E02DC701099558
:10401000F3CF642F0E949821C801DF91CF911F91A7
:104020000F91FF90EF90DF90CF9008951092BD0315
:104030001092BC0310929A03109299030E94C82018
:104040008EEA9FE10E94C42184E89FE10C94BF2185
:10405000CB01BA010C94E62081E080939803609331
:10406000BB0310929A031092990308950C942C208C
:104070000F93062F21E0409199036BE973E0809143
:10408000BB030E94412110929A031092990310924F
:1040900098030F9108954F925F926F927F92AF9223
:1040A000BF92CF92EF92FF920F931F93CF93DF9324
:1040B0005C01F62ED42F28013901EE2019F10E945F
:1040C0002C20CE2DC43008F0C3E0C150B8F028E059
:1040D000C29FC0011124A301920104C056954795C7
:1040E000379527958A95D2F7B901D501ED91FC91C5
:1040F0000190F081E02DC5010995E7CF60E0C50191
:104100000E9438204D2FD13208F040E22C2D6EEB6A
:1041100073E08F2D0E94F9201092BD038093BC03A1
:10412000DF91CF911F910F91FF90EF90CF90BF90B3
:10413000AF907F906F905F904F900895CF92EF92E5
:104140000F931F93C22EE12C00E010E098010E9413
:104150004B201F910F91EF90CF90089521E00C9488
:104160009E2021E00C949E2061E00C943820E8E829
:10417000F3E01382128288EE93E0A0E0B0E0848343
:104180009583A683B7838EE792E091838083089519
:1041900010924B0481E0809349041092480461E03E
:1041A00082E10E94293161E083E10E942931E9EB3B
:1041B000F0E080818E7F808380818D7F80838CE59D
:1041C0008093B80085E48093BC0008959B01AC0106
:1041D00060E07DE281E391E00E948F392051310956
:1041E0004109510956954795379527952093B80071
:1041F0000895413208F043C090914B049111FCCFD7
:1042000091E090934B04209349042FEF2093DE0319
:1042100010922304240F2093220490934A04909137
:104220004A04880F892B80934A0480914804813086
:1042300009F51092480480914A048093BB00809154
:10424000BC0083FDF8CF85EC8093BC0080914B04CB
:104250008130E1F380912304841710F4409123040A
:10426000A4E2B4E0962FFB018E2F891B841720F067
:10427000842F089585EEE8CF8D918193F5CF40E0AE
:10428000F7CF0F93413208F04BC090914B0491113E
:10429000FCCF92E090934B04009349049FEF9093DE
:1042A000DE031092230440932204362FA4E2B4E0EC
:1042B000FB019E2F931B941770F110924A0490916A
:1042C0004A04880F892B80934A04809148048130E6
:1042D00029F51092480480914A048093BB00809194
:1042E000BC0083FDF8CF85EC8093BC00222321F035
:1042F00080914B048230D1F38091DE038F3F91F0A7
:104300008091DE03803281F08091DE03803371F092
:1043100084E00F91089591919D93CBCF85EEE4CFEA
:1043200081E0F7CF80E0F5CF82E0F3CF83E0F1CFFB
:1043300020910004260F3327331F21323105ECF47E
:1043400020914B04FC0190E080E0243069F082E091
:104350000895A09100042191AC014E5F5B4FA40F22
:10436000B52FB11D2C930196861798F38091000408
:10437000680F6093000480E0089581E008959093B1
:104380004504809344040895909347048093460421
:10439000089585ED8093BC008091BC0084FDFCCF26
:1043A00010924B04089585EC8093BC0010924B044E
:1043B00008951F920F920FB60F9211242F933F93DF
:1043C0004F935F936F937F938F939F93AF93BF931D
:1043D000EF93FF938091B900887F803609F44CC039
:1043E00008F03FC0883209F4A8C018F5803109F4FC
:1043F0009CC0B8F4882309F4F9C0883009F495C04A
:10440000FF91EF91BF91AF919F918F917F916F91AC
:104410005F914F913F912F910F900FBE0F901F9082
:104420001895883109F489C0803251F78093DE03F2
:1044300015C0803409F49EC048F48033B9F3883342
:10444000F9F68093DE030E94D321DACF803509F498
:1044500085C0883509F496C0883491F60E94C92138
:10446000CFCF883909F48CC038F5883729F050F45B
:10447000883611F0803721F683E080934B04109248
:10448000DF0357C0883809F47BC0803919F08038C1
:1044900009F0B6CF8091DF03803208F071C0E0915F
:1044A000DF0381E08E0F8093DF038091BB00F0E09B
:1044B000E052FC4F80833DC0803B39F0E0F4803A0D
:1044C00009F479C0883A09F09BCF84E080934B04CB
:1044D0001092010410920004E0914604F091470408
:1044E00009958091000481110FC081E08093000440
:1044F0001092020409C0803C09F476C0883C09F49B
:1045000073C0883B09F07CCFE091010481E08E0FFD
:1045100080930104F0E0EE5FFB4F80818093BB004D
:10452000909101048091000429C080914A048093F5
:10453000BB0085EC8093BC0063CF909123048091F5
:104540002204981758F5E091230481E08E0F8093A0
:104550002304F0E0EC5DFB4F8081E9CFE091230480
:1045600081E08E0F809323048091BB00F0E0EC5D2E
:10457000FB4F808390912304809122049817C8F206
:1045800085E8D8CFE091230481E08E0F8093230447
:104590008091BB00F0E0EC5DFB4F8083809149048B
:1045A00081115CCF81E08093480484EA8093BC0051
:1045B00010924B0425CF0E94D3218091DF038032DB
:1045C00030F4E091DF03F0E0E052FC4F10826091A4
:1045D000DF0370E0E0914404F091450480EE93E045
:1045E00009951092DF030CCF85ECE0CF1092DE032B
:1045F00035CFCF93CFB7F89480914F04811127C066
:10460000E1E9FAE08491EAE7FAE09491E82FF0E03A
:10461000EE0FFF1FEE54F54FA591B491EC91E923F5
:1046200021F461E08AE00E94293161E08AE00E9481
:10463000ED308CB580618CBD8CB580648CBD61E043
:104640008DE00E94ED3061E08BE00E94ED308091C2
:104650004F048F5F80934F04CFBFCF9108952F9267
:104660003F924F925F926F927F928F929F92AF9202
:10467000BF92CF92DF92EF92FF920F931F93CF934F
:10468000DF9300D000D000D0CDB7DEB73C016A0187
:104690003E832D83FC82EB825801A41AB50AB7FE33
:1046A00003C0B194A194B1088D809E80861A970AA8
:1046B00097FE03C09194819491088A149B045CF046
:1046C000902F812F0D811E819D838E839C2D8D2D9A
:1046D0006B01692F782F0C151D055CF09D818E8173
:1046E0007E836D83692F782F902F812F8601C92EAD
:1046F000D82E1601201A310A2B012D813E81421A33
:10470000530A57FE03C0519441945108710137FE7A
:1047100003C03FEFE31AF30AF594E7948D819E817D
:10472000861797075CF5A1E0B0E0BA83A983C016AD
:10473000D1064CF1D301ED91FC910484F585E02D77
:104740002B813C81A8016D817E818A149B041CF021
:104750004D815E81B801C3010995E418F508F7FEA3
:104760000AC02D813E8189819A81280F391F3E839D
:104770002D83E20CF31C0F5F1F4FD9CF2FEF3FEFBC
:104780003A832983D4CF26960FB6F894DEBF0FBEA6
:10479000CDBFDF91CF911F910F91FF90EF90DF90F0
:1047A000CF90BF90AF909F908F907F906F905F90D1
:1047B0004F903F902F9008950895DC01ED91FC916A
:1047C0000084F185E02D09940F931F93DC01ED9196
:1047D000FC91048CF58DE02D09951F910F910895A2
:1047E0000F931F93DC01ED91FC91068CF78DE02D6A
:1047F00009951F910F910895EF92FF920F931F93C8
:10480000DC01ED91FC9100A0F1A1E02D09951F9133
:104810000F91FF90EF9008958F929F92AF92BF9269
:10482000CF92DF92EF92FF920F931F93CF93DF937C
:10483000EC015B014A0169017801E881F981028498
:10484000F385E02D0995C80CD91C8601015011098A
:10485000E881F9810488F589E02D9501A401B5016D
:10486000CE010995E881F9810688F789E02DCE010E
:10487000DF91CF911F910F91FF90EF90DF90CF903C
:10488000BF90AF909F908F9009948F929F92AF921C
:10489000BF92CF92DF92EF92FF920F931F93CF932D
:1048A000DF93EC015B014A016901E881F98102842F
:1048B000F385E02D099595012C0D3D1D2150310901
:1048C000E881F9810488F589E02D78018401A4014B
:1048D000B501CE010995E881F9810688F789E02DB7
:1048E000CE01DF91CF911F910F91FF90EF90DF905C
:1048F000CF90BF90AF909F908F9009944F925F920E
:104900006F927F928F929F92AF92BF92CF92DF92DF
:10491000EF92FF920F931F93CF93DF936C012B01C4
:104920005A0139014801DC01ED91FC910284F385C3
:10493000E02D0995E201640C751CD601ED91FC9106
:10494000C615D7055CF40088F189E02D8701940134
:10495000A501BE01C60109952196EFCF0688F7890A
:10496000E02DC601DF91CF911F910F91FF90EF9045
:10497000DF90CF90BF90AF909F908F907F906F907F
:104980005F904F900994EF92FF920F931F93DC0179
:104990001A960D911C911B9718962D913C91199781
:1049A000ED91FC9100A0F1A1E02D7B0150E040E0F1
:1049B00070E060E009951F910F91FF90EF900895CE
:1049C0006F927F928F929F92AF92BF92CF92DF921F
:1049D000EF92FF920F931F93CF93DF93EC016B0144
:1049E0005A0139014801E881F9810284F385E02DFB
:1049F0000995E881F9810288F389E02D8701930107
:104A0000A501B601CE010995A501480D591D4150DA
:104A10005109E881F9810288F389E02D9301B601FB
:104A2000CE010995E881F9810088F189E02D940192
:104A3000A501B601CE010995C60CD71CB60161507F
:104A40007109E881F9810088F189E02D9401A501BF
:104A5000CE010995E881F9810688F789E02DCE011C
:104A6000DF91CF911F910F91FF90EF90DF90CF904A
:104A7000BF90AF909F908F907F906F900994089512
:104A80006F927F928F929F92AF92BF92CF92DF925E
:104A9000EF92FF920F931F93CF93DF935C01EB0193
:104AA0006A01490138018701DC01ED91FC9162172F
:104AB000730719F5641675062CF0962D872D3A01AB
:104AC000C92ED82E9601261937092F5F3F4F048C27
:104AD000F58DE02DA301BE01C5010995DF91CF91B0
:104AE0001F910F91FF90EF90DF90CF90BF90AF900C
:104AF0009F908F907F906F9008954615570591F481
:104B00002617370724F0892D4B01C22FD82F9E017D
:104B1000281939092F5F3F4F068CF78DE02DA6012C
:104B2000B401DACF0284F385E02D0995D501ED912A
:104B3000FC910488F589E02D83019401A601BE0152
:104B4000C5010995D501ED91FC910688F789E02D05
:104B5000C501DF91CF911F910F91FF90EF90DF90F2
:104B6000CF90BF90AF909F908F907F906F9009945F
:104B7000FC016370668B8481958126813781613069
:104B800039F0633029F09187808733872287089531
:104B900031872087938782870895FC0113821282D0
:104BA00080E992E091838083758364835783468391
:104BB0007187608753874287168A15861486178601
:104BC000168681E0858B848B2FEF3FEF338B228B12
:104BD000318B208B878B108E128E118E08953F9211
:104BE0004F925F926F927F928F929F92AF92BF92FD
:104BF000CF92DF92EF92FF920F931F93CF93DF93A9
:104C0000CDB7DEB72A970FB6F894DEBF0FBECDBF83
:104C10009A8789877E836D8358874F83290137015F
:104C2000DC01ED91FC910284F385E02D0995C8012A
:104C3000079697FD07969C0193E0359527959A95E1
:104C4000E1F73A832983912C812CB12CA12C312CB2
:104C50008F8198858A0D9B1D9C838B83A614B70436
:104C6000ACF5F12CE12CE016F10644F5C701877094
:104C70009927330C892B59F4F70183E0F595E795D3
:104C80008A95E1F7E80DF91DE40DF51D349037FE26
:104C900011C0A985BA85ED91FC9111970484F58521
:104CA000E02D96014B815C816D817E816E0D7F1DB3
:104CB000CD010995BFEFEB1AFB0AD5CF2FEFA21A52
:104CC000B20A89819A81880E991EC2CFA985BA85B8
:104CD000ED91FC9111970688F789E02DCD012A9678
:104CE0000FB6F894DEBF0FBECDBFDF91CF911F91FD
:104CF0000F91FF90EF90DF90CF90BF90AF909F907B
:104D00008F907F906F905F904F903F9009942F927B
:104D10003F924F925F926F927F928F929F92AF924B
:104D2000BF92CF92DF92EF92FF920F931F93CF9398
:104D3000DF93CDB7DEB76A970FB6F894DEBF0FBE2C
:104D4000CDBF9A8F898F7A8369834A01D22E1887C3
:104D50000F833701BC2CDC0159962D913C915A9759
:104D60002115310509F015C118968D919C9119975F
:104D7000681779070CF0D7C11A968D919C91481746
:104D800059070CF0D0C14C2C512CB6E0CB9E600DD5
:104D9000711D11247C876B87161617060CF0C3C192
:104DA000EA2DF0E0FA87E98793E0EE0FFF1F9A956E
:104DB000E1F7F88BEF87CF01840F951F18161906BE
:104DC0000CF0B1C1A98DBA8D58968C91811104C097
:104DD000BFEABD1508F4D394A98DBA8DED91FC916D
:104DE00011970284F385E02DCD010995B5E0DB9E96
:104DF000C0011124E981FA81FC83EB83312C212C41
:104E00009C01275C3A4F388F2F8B4A2D50E05E8BE8
:104E10004D8BEF89F88DE20DF31D44919E828D82BA
:104E2000D12CC12C69817A81620D731D7A8B698BBB
:104E3000842F90E09C8B8B8BE98DFA8DA081B181C2
:104E400040FF82C0F1E0BF126FC0AF126DC01C9670
:104E5000ED91FC912F813885A4014C0D5D1D698970
:104E60007A89898D9A8D0995EB89FC89F595E79565
:104E70004E2F5FEFC51AD50A6D817E818D899E897F
:104E8000680F791F7E836D8398E0C916D10481F67F
:104E9000AFEF2A1A3A0AEB81FC81E40DF51DFC8381
:104EA000EB83F5E02F16310409F0B3CF2F8138855D
:104EB00026153705B9F0A98DBA8DED91FC91B1E0B9
:104EC000BB1257C0AB1255C069817A816B5F7F4FAF
:104ED0000088F189E02D830128E030E0A401898D6C
:104EE0009A8D0995A98DBA8DED91FC91119706883F
:104EF000F789E02DCD016A960FB6F894DEBF0FBE9C
:104F0000CDBFDF91CF911F910F91FF90EF90DF9078
:104F1000CF90BF90AF909F908F907F906F905F9059
:104F20004F903F902F9009941E96ED91FC91EF8049
:104F3000F88409851A8592014D815E816B817C819F
:104F4000898D9A8D099590CF2F8138852615370543
:104F500009F48ACF31E0B31207C0A31205C01C9632
:104F6000ED91FC91930178CF1E96ED91FC91730128
:104F7000E0CF6B857C85641975090684F785E02D83
:104F800073010F8518899201A401898D9A8D099565
:104F9000A9CFF90134969491329745915491D91A39
:104FA000B7E0DB9E400D511D1124F901259134918C
:104FB0003C8B2B8BFA0125903490FA013296749039
:104FC00031963491398B329664903196449041E019
:104FD0004C1518F04A1508F07FC0662D062C000C01
:104FE000770B7C836B83842D042C000C990B9E83A0
:104FF0008D83A98DBA8DED91FC9111970284F38573
:10500000E02DCD010995512CD12CC12CEA2DF0E0D9
:10501000FA87E9872B2D30E03C872B87A401440DCC
:10502000511D47FC5A95588F4F8B69817A81660DC7
:10503000711D67FC7A957E876D877989C71608F0A0
:1050400051CF2C2D30E04D815E81420F531FA98539
:10505000BA854A9FC0014B9F900D5A9F900D112415
:10506000FC01E80DF91DF88BEF87852D612C4F8928
:10507000588D420F531F5E8B4D8B671408F050C044
:1050800044244394480E877041F4C1010196EB8992
:10509000FC89E20DF31DD4901C01D7FE19C0A98D27
:1050A000BA8DED91FC91662D70E0B1E0BB1219C094
:1050B000AB1217C02D853E85620F731F0484F585E2
:1050C000E02D2F8138854D895E89898D9A8D0995CE
:1050D000DD0C6394842DD1CF1E821D821C821B8225
:1050E00088CF4B815C81640F751FAB85BC856A9F3F
:1050F000C0016B9F900D7A9F900D112469817A8178
:10510000680F791F0684F785E02DEF80F884098504
:105110001A859D014F855889898D9A8D0995D8CF1B
:10512000570CC3948ACF6A960FB6F894DEBF0FBEB1
:10513000CDBFDF91CF911F910F91FF90EF90DF9046
:10514000CF90BF90AF909F908F907F906F905F9027
:105150004F903F902F9008958F929F92AF92CF9251
:10516000EF92FF920F931F93CF93DF93EC01262FC3
:10517000898D9A8D009709F051C06A30D1F41D864F
:105180001C868D8948E0849F900111248E859F851F
:10519000820F931F9F878E8781E090E0DF91CF91F0
:1051A0001F910F91FF90EF90CF90AF909F908F90B5
:1051B00008956D3089F3CC88AD888F898823C1F03C
:1051C0008C859D8536E0C39E800D911D11244885F8
:1051D00059854817590764F44E855F851D861C86DE
:1051E00038E0A39EC0011124840F951F9F878E87EE
:1051F000EA88FB88088919894E855F856C857D85DD
:10520000CE010E9487262C898C859D8546E0249FAF
:10521000800D911D11249D878C87BECF6A3069F463
:105220001D861C86FC013696E4912D898E859F850E
:10523000E29F800D911D1124ADCF6D3009F4ACCFEC
:10524000FC0134963491631708F4A6CF3196E491AB
:10525000E61708F4A1CFFC01329685909490462F72
:10526000431B342F47E0349F800C911C1124F40120
:10527000329634913196E4913323A9F1EE2399F1DA
:10528000CC88F4013596E491AD884F89442301F12F
:105290000E2E000CFF0BE30FF11DCE9EA001CF9E42
:1052A000500D11246C857D85460F571F68857985C3
:1052B000641775076CF44E855F851D861C86FC019E
:1052C0003696E491AE9E400D511D11245F874E87A6
:1052D000EA88FB88088919894E855F856C857D85FC
:1052E000CE010E948726F4013496E4912C898C85A6
:1052F0009D85E29F800D911D11248DCF611101C00C
:1053000061E0FC01648B411101C041E0FC01458B6F
:105310000895462F0C947E29DC01ED91FC910190BB
:10532000F081E02D0994FC01608308951F93CF93D1
:10533000DF93EB01142FFC01608188E893E00E9469
:105340002C206D2F70E088E893E00E948C29BE012C
:10535000772788E893E00E948C29612F88E893E002
:105360000E94BA1F88E893E00E94B4206AE070E0CF
:1053700080E090E0DF91CF911F910C942F30CF927D
:10538000DF92EF92FF920F931F93CF93DF936C0105
:105390008901EA017B01E41AF50AB7016C0F7D1F50
:1053A000101611063CF44991C6010E94962901503D
:1053B0001109F3CFDF91CF911F910F91FF90EF90E3
:1053C000DF90CF9008950F931F93CF93DF938C01BD
:1053D000EB01FC01608188E893E00E942C206D2F96
:1053E00070E088E893E00E948C29BE01772788E866
:1053F00093E00E948C2988E893E00E94B42041E069
:10540000F801608188E893E00E94AE2088E893E08C
:105410000E945A1F892B49F088E893E00E94611F7F
:10542000DF91CF911F910F91089580E0F9CFCF9236
:10543000DF92EF92FF920F931F93CF93DF936C0154
:105440008901EA017B01E41AF50AB7016C0F7D1F9F
:10545000101611063CF4C6010E94E32989930150FD
:105460001109F3CFDF91CF911F910F91FF90EF9032
:10547000DF90CF900895FF920F931F93CF93DF9308
:10548000FC011081C181D281F8948981012F00959E
:105490008023898378948DE7F82EFA94FF2061F1B8
:1054A00082E090E00E94683088818123B1F3F89413
:1054B0008A8180238A838981812B8983789480EEF5
:1054C00091E00E946830F89489818023898386E482
:1054D00090E00E94683088811823C1E009F0C0E0A4
:1054E00078948AE991E00E9468308C2FDF91CF9107
:1054F0001F910F91FF900895C0E0F7CF1F93CF93B6
:10550000DF93FC011081C181D281912F909560FFC2
:1055100016C0F8948A8189238A838981812B8983A3
:105520008AE090E00E9468308A81182B1A83789470
:1055300087E390E0DF91CF911F910C946830F8944D
:105540008A8189238A838981812B898381E490E000
:105550000E9468308A81182B1A83789485E090E045
:10556000E9CF0F931F93CF93DF93FC011081C1818B
:10557000D281F8948981812B89838A81012F0095BA
:1055800080238A8383E090E00E94683089818023B1
:1055900089838AE090E00E946830C881789485E32E
:1055A00090E00E9468301C2381E009F480E0DF91E4
:1055B000CF911F910F910895DF92EF92FF920F9379
:1055C0001F93CF93DF93EC01D62EE42E08E010E07A
:1055D000FF24F39461E08D2D8F2109F460E0CE016A
:1055E0000E947E2AFF0C01501109A1F7E11010C0A2
:1055F000F894E981FA81918188818095892381835A
:10560000E981FA81928188818095892382837894C7
:10561000DF91CF911F910F91FF90EF90DF90089550
:10562000EF92FF920F931F93CF93DF937C0108E0DB
:1056300010E0C0E0D1E0C7010E94B12A8111CD2B5A
:10564000DD0F01501109B9F78C2FDF91CF911F9118
:105650000F91FF90EF900895EF92FF920F931F9399
:10566000CF93DF938C017B0140E065E50E94DC2A4B
:10567000E70188E0E80EF11C699140E0C8010E9452
:10568000DC2ACE15DF05C1F7DF91CF911F910F9175
:10569000FF90EF90089540E06CEC0C94DC2AFC0144
:1056A0001386158614861286118610861782168236
:1056B00015821482138208951F93CF93DF93EC0118
:1056C000162F60E0812F0E94ED30612F70E0FB010A
:1056D000E059F54FE491E883FB01E957F54FE49178
:1056E000F0E0EE0FFF1FE256F54F859194919A83FB
:1056F0008983CE01DF91CF911F910C944F2BBF92E4
:10570000CF92DF92EF92FF920F931F93CF93DF938D
:10571000EC01B62EC72E142F8D85811105C0CE0148
:105720000E943B2A81110EC01B861D861C8680E0CC
:10573000DF91CF911F910F91FF90EF90DF90CF906D
:10574000BF90089540E060EF111101C06CEECE01F2
:105750000E94DC2A01E0E12CD12C11E0CE010E9454
:10576000B12AF82ECE010E94B12A91E0F91218C098
:10577000813099F51134C0F2DB86D11002C081E08E
:105780008D878B81882381F22396EB2DFC2DCF0111
:10579000089629912193E817F907D9F781E0C8CF36
:1057A000EE2DF0E0F8120FC08B851817A0F4DE0183
:1057B000AE0FBF1F13968C91802379F4F12C193012
:1057C00008F41C87D12EEC0FFD1F8381902F90953C
:1057D000892383830AC08113F1CFFE01EE0DF11DF1
:1057E0008381802B8383FF24F3946F2DCE010E944D
:1057F0007E2A1F5F000F11F4E39401E087E08E150D
:1058000008F0ACCFB7CFDC0180E0615090F09D9103
:105810009827E92FEF70F0E0E75CF54F2491E92F2E
:10582000E295EF70F0E0E75BF54FE491822F8E2771
:10583000ECCF0895FB018081883229F030F480316B
:1058400011F0823231F481E008958B33E1F3823438
:10585000D1F380E00895FC0177836683148215827A
:10586000108289E0818381E0828383830895CF93CE
:10587000DF93EC010E942B2C1B8A1A8ADF91CF91B7
:105880000895CF93DF93EB0167E0CE010E94032CD4
:1058900091E02F81281390E0892FDF91CF91089517
:1058A000EF92FF920F931F93CF93DF938C017B01B5
:1058B000D42FFC01868197810E944F2BC0E041E0EC
:1058C000B701F801868197810E947F2B882329F0F8
:1058D000DC1729F0CF5FDC1790F780E006C0B70136
:1058E000C8010E94412C8823A9F3DF91CF911F9119
:1058F0000F91FF90EF900895EF92FF920F931F93F7
:10590000CF93DF938C01EB017A01FC0186819781B3
:105910000E943B2A882311F1BE01F80186819781FC
:105920000E942C2B40E06EEBF801868197810E944B
:10593000DC2AE701F9E0EF0EF11CF801868197817E
:105940000E94102B8993CE15DF05B9F7F8018681E7
:1059500097810E943B2A91E0813009F090E0892FE5
:10596000DF91CF911F910F91FF90EF900895CF930A
:10597000DF93EA010E947C2C982F882341F068E095
:10598000CE010E94032C91E02885281390E0892FF6
:10599000DF91CF9108950F931F93CF93DF93EC0185
:1059A0008B018E819F810E943B2AB8018E819F814D
:1059B0000E942C2B40E064EB8E819F810E94DC2AA8
:1059C0008E819F810E94B12A182F8E819F810E9413
:1059D0003B2A81E0111180E0DF91CF911F910F915F
:1059E0000895CF93DF93CDB7DEB729970FB6F8941C
:1059F000DEBF0FBECDBFFB012081203199F0AE018B
:105A00004F5F5F4F0E94B72C882331F08D818F3319
:105A1000A9F020F48F31A1F080E007C08F3521F08C
:105A20008F37D1F78CE001C08BE029960FB6F89440
:105A3000DEBF0FBECDBFDF91CF9108958AE0F5CFD5
:105A400089E0F3CFFF920F931F93CF93DF93CDB7EE
:105A5000DEB728970FB6F894DEBF0FBECDBF8C011E
:105A6000FC01868197810E944F2BF80114821582D8
:105A700041E0BE016F5F7F4FF801868197810E94F0
:105A80007F2B8823A9F1BE016F5F7F4FC8010E9461
:105A9000412C882369F3F801808181110BC0BE017C
:105AA0006F5F7F4FC8010E94CB2C882319F081E0E3
:105AB000F8018083F801F180BE016F5F7F4FC8015C
:105AC0000E94F12C9F2DF81608F4982FF80191836D
:105AD00084818F5F8483BE016F5F7F4FC8010E9406
