:100000000C945C050C9492250C946A250C94840540
:100010000C9484050C9484050C9484050C9484053C
:100020000C9484050C9484050C9484050C9484052C
:100030000C9484050C9484050C9484050C9484051C
:100040000C9401240C9484050C94CF230C94A923C4
:100050000C9484050C9484050C9484050C948405FC
:100060000C944B240C948405000103070F1F3F7F61
:100070000080C0E0F0F8FCFE00000000003E5B4F96
:100080005B3E3E6B4F6B3E1C3E7C3E1C183C7E3CF8
:10009000181C577D571C1C5E7F5E1C00183C180006
:1000A000FFE7C3E7FF0018241800FFE7DBE7FF3096
:1000B000483A060E2629792926407F050507407F04
:1000C00005253F5A3CE73C5A7F3E1C1C08081C1C77
:1000D0003E7F14227F22145F5F005F5F06097F016D
:1000E0007F006689956A606060606094A2FFA29458
:1000F00008047E040810207E201008082A1C080826
:100100001C2A08081E101010100C1E0C1E0C303873
:100110003E3830060E3E0E06000000000000005F74
:1001200000000007000700147F147F14242A7F2A90
:100130001223130864623649562050000807030052
:10014000001C2241000041221C002A1C7F1C2A089E
:10015000083E080800807030000808080808000001
:1001600060600020100804023E5149453E00427F75
:10017000400072494949462141494D331814127FC4
:100180001027454545393C4A494931412111090764
:100190003649494936464949291E000014000000E5
:1001A00040340000000814224114141414140041B7
:1001B00022140802015909063E415D594E7C121174
:1001C000127C7F494949363E414141227F414141AC
:1001D0003E7F494949417F090909013E4141517327
:1001E0007F0808087F00417F41002040413F017F98
:1001F000081422417F404040407F021C027F7F0460
:1002000008107F3E4141413E7F090909063E4151A8
:10021000215E7F09192946264949493203017F0198
:10022000033F4040403F1F2040201F3F4038403F99
:10023000631408146303047804036159494D4300AF
:100240007F4141410204081020004141417F0402E6
:10025000010204404040404000030708002054547D
:1002600078407F284444383844444428384444285B
:100270007F385454541800087E090218A4A49C78AE
:100280007F0804047800447D40002040403D007F0A
:100290001028440000417F40007C047804787C08EA
:1002A0000404783844444438FC18242418182424BE
:1002B00018FC7C08040408485454542404043F44A3
:1002C000243C4040207C1C2040201C3C4030403CD2
:1002D00044281028444C9090907C4464544C440032
:1002E0000836410000007700000041360800020196
:1002F0000204023C2623263C1EA1A161123A404082
:10030000207A3854545559215555794122545478FE
:1003100042215554784020545579400C1E52721297
:100320003955555559395454545939555454580020
:1003300000457C410002457D420001457C407D1224
:1003400011127DF0282528F07C5455450020545486
:100350007C547C0A097F4932494949323A44444431
:100360003A324A4848303A4141217A3A424020786C
:10037000009DA0A07D3D4242423D3D4040403D3C6D
:1003800024FF2424487E4943662B2FFC2F2BFF0992
:1003900029F620C0887E0903205454794100004486
:1003A0007D413048484A32384040227A007A0A0A71
:1003B000727D0D19317D2629292F282629292926E4
:1003C00030484D4020380808080808080808382F29
:1003D00010C8ACBA2F102834FA00007B00000814B3
:1003E0002A142222142A14085500550055AA55AA89
:1003F00055AAFF55FF55FF000000FF00101010FF29
:1004000000141414FF001010FF00FF1010F010F083
:10041000141414FC001414F700FF0000FF00FF1474
:1004200014F404FC141417101F10101F101F1414C0
:10043000141F00101010F0000000001F101010100A
:100440001F10101010F010000000FF1010101010FE
:1004500010101010FF10000000FF140000FF00FF3C
:1004600000001F10170000FC04F4141417101714D8
:1004700014F404F40000FF00F714141414141414FA
:10048000F700F7141414171410101F101F1414146D
:10049000F4141010F010F000001F101F0000001FD7
:1004A00014000000FC140000F010F01010FF10FF0A
:1004B000141414FF141010101F00000000F010FF9F
:1004C000FFFFFFFFF0F0F0F0F0FFFFFF0000000083
:1004D00000FFFF0F0F0F0F0F3844443844FC4A4A07
:1004E0004A347E02020606027E027E0263554941BC
:1004F000633844443C04407E201E2006027E0202F3
:1005000099A5E7A5991C2A492A1C4C7201724C3006
:100510004A4D4D303048784830BC625A463D3E49DD
:100520004949007E0101017E2A2A2A2A2A44445F81
:10053000444440514A444040444A51400000FF0175
:1005400003E080FF000008086B6B08361236243683
:10055000060F090F060000181800000010100030E8
:1005600040FF0101001F01011E00191D1712003C70
:100570003C3C3C0000000000005EBCE2613FDD83CB
:10058000C29C7E20A3FD1F41009D23BE46DB65F873
:100590008C11AF32CA57E974000000080002010054
:1005A000000304070000000000000000000000003D
:1005B000240027002A00DB40A4A62EAFDA0281DA4D
:1005C0001281DA02818F2000A1C8D300408DAED500
:1005D00080A800000000250028002B00000060001B
:1005E00000000000000000000000000000E000002B
:1005F000000000000000000000000001E00000001A
:100600000000000000000000000001F000000000F9
:1006100000000000000000000003F00000000000E7
:10062000000000000000000007F0000000000000D3
:100630000000000000000007F800000000000000BB
:100640000000000000000FF800000003C0007E0062
:100650000001E0007F0FF800000003C000FE000072
:1006600001E000FFEFF800000003C000FE00000101
:10067000E000FFFFF800000003C000F00000000FE2
:10068000007FFE7FC0000003C000F00000000F00EC
:100690003FFE7FF83FF1FBCFFCFEF3BC3DEFE01FD8
:1006A000FE7FFF7FFBFFDFFEFEFFBC3DEFE01FC6CE
:1006B000FFFF7FFBFFDFFEFEFFBC3DEFE00FE3C768
:1006C000FE787BC3DE1EF0FFBC3DEF0007FF87FC1A
:1006D000787BC3DE1EF0F83C3DEF0001FFFFF00029
:1006E0007BC3C01EF0F03C3DEF0001F37FE03FFB19
:1006F000C3CFFEF0F03C3DEF0003E33F807FFBC340
:10070000DFFEF0F03C3DEF0007E73C00787BC3DE06
:100710001EF0F03C3DEF0007FFBE00787BC3DE1EFD
:10072000F0F03C3DEF0007FFFE00787BC3DE1EF0DB
:10073000F03C3DEF000FFFFE007FFBFFDFFEF0F01F
:100740003FFDEFE00FFFFF007FFBFFDFFEF0F03F1C
:10075000FDEFE00FF9FF003E79F9CF9EF0F01F3D6D
:10076000E7E01FF1FF0000000000000000000000B3
:10077000001F80FF007FFFFFFFFFFFFFFFFFFFE085
:100780001C007F007FFFFFFFFEB46D888D18E00026
:10079000001F007FFFFFFFFE95AD7DB577E00000F5
:1007A0000F007FFFFFFFFEA5AD9D8D19E000000645
:1007B000007FFFFFFFFEB5ADEDB57EE0000000005D
:1007C0000001800000000000000000000380000025
:1007D0000000000000000007C00000000000000052
:1007E000000007C00000000000000000000FC00073
:1007F00000000000000000001FE0000000000000FA
:100800000000001FE00000000000000000003FE0CA
:100810000000000000000000003FF00000000000A9
:10082000000000007FF0000000000000001FF87FC3
:10083000F0000000000000003FFE7FF0000000001C
:100840000000003FFF7FF0000000000000001FFFDD
:10085000FBE0000000000000000FFFF9FFC00000F7
:10086000000000000FFFF9FFF80000000000000783
:10087000FFF1FFFF00000000000003FC73FFFF809A
:10088000000000000001FE3FFFFF800000000000AC
:1008900000FF1E0FFF000000000000007FFE1FFC95
:1008A000000000000000003FFFFFF8000000000013
:1008B00000000FDFFFE0000000000000001F19FF34
:1008C000C0000000000000003F3CFF0000000000EE
:1008D0000000007E7CF800000000000000007FFEA9
:1008E0007C0000000000000000FFFFFC0000000092
:1008F00000000000FFFFFE0000000000000000FFFD
:10090000FFFE0000000000000001FFEFFE000000FD
:100910000000000001FFCFFE000000000000000307
:10092000FF07FE0000000000000003FC07FE0000BF
:10093000000000000003F003FE00000000000000C3
:10094000018000FE000000000000000000007E00AA
:100950000000000000000000003E00000000000059
:10096000000000000C000000000000078000FC00F8
:100970000003C0000000078001FC000003C000006D
:1009800000078001FC000003C0000000078001E0B8
:100990000000001E000000078001E00000001E00B3
:1009A0007FE3F79FF9FDE7787BDFC0FFF7FFBFFD2F
:1009B000FDFF787BDFC0FFF7FFBFFDFDFF787BDF2A
:1009C000C0F0F787BC3DE1FF787BDE00F0F787BC25
:1009D0003DE1F0787BDE0000F787803DE1E0787B49
:1009E000DE007FF7879FFDE1E0787BDE00FFF78781
:1009F000BFFDE1E0787BDE00F0F787BC3DE1E07809
:100A00007BDE00F0F787BC3DE1E0787BDE00F0F7AD
:100A100087BC3DE1E0787BDE00FFF7FFBFFDE1E052
:100A20007FFBDFC0FFF7FFBFFDE1E07FFBDFC07CA6
:100A3000F3F39F3DE1E03E7BCFC0000000000000EB
:100A40000000000000FFFFFFFFFFFFFFFFFFFFC0F0
:100A5000FFFFFFFFFD68DB111A31C0FFFFFFFFFD45
:100A60002B5AFB6AEFC0FFFFFFFFFD4B5B3B1A33C6
:100A7000C0FFFFFFFFFD6B5BDB6AFDC02200FF21B3
:100A80000001020408102040800102040810200127
:100A900002040810200000000023002600290004A2
:100AA0000404040404040402020202020203030315
:100AB00003030300BA252E3011241FBECFEFD8E068
:100AC000DEBFCDBF12E0A0E0B1E0E0EBF8E602C08F
:100AD00005900D92A03AB107D9F724E0A0EAB2E060
:100AE00001C01D92A43CB207E1F715E0CBE5D5E0CB
:100AF00004C02197FE010E946632CA35D107C9F7AA
:100B00000E9475270C944B340C94000091E0909354
:100B100087038093860310928503109284030895BF
:100B200090917B039111FCCF91E090937B03909384
:100B30007A032FEF2093790310927803260F2093E6
:100B400077039093760390917603880F892B809397
:100B50007603809175038130F9F4109275038091CA
:100B600076038093BB008091BC0083FDF8CF85ECB9
:100B70008093BC0080917B038130E1F38091780306
:100B8000861710F460917803A5E5B3E0E5E3F3E0A0
:100B900080E0861303C0089585EEEACF9D9191937E
:100BA0008F5FF7CF8091330390913403891B990BAA
:100BB0000895089508950895AF92BF92CF92DF925D
:100BC000EF92FF920F931F93CF93DF936C017B0102
:100BD0008B01040F151FEB015E01AE18BF08C01793
:100BE000D10759F06991D601ED91FC910190F08106
:100BF000E02DC6010995892B79F7C501DF91CF91C9
:100C00001F910F91FF90EF90DF90CF90BF90AF902A
:100C10000895FC01538D448D252F30E0842F90E002
:100C2000821B930B541710F0CF96089501970895E7
:100C3000FC01918D828D981761F0A28DAE0FBF2FB0
:100C4000B11D5D968C91928D9F5F9F73928F90E006
:100C500008958FEF9FEF0895FC01918D828D981775
:100C600031F0828DE80FF11D858D90E008958FEFB2
:100C70009FEF0895FC01918D228D892F90E0805C7B
:100C80009F4F821B91098F739927089588E893E0FD
:100C90000E943A0621E0892B09F420E0822F089572
:100CA00080E090E0892B29F00E94460681110C9487
:100CB00000000895FC01A48DA80FB92FB11DA35AFF
:100CC000BF4F2C91848D90E001968F739927848F6C
:100CD000A689B7892C93A089B1898C91837080648F
:100CE0008C93938D848D981306C00288F389E02D30
:100CF00080818F7D80830895EF92FF920F931F93E1
:100D0000CF93DF93EC0181E0888F9B8D8C8D9813BE
:100D10001AC0E889F989808185FF15C09FB7F894CA
:100D2000EE89FF896083E889F98980818370806416
:100D300080839FBF81E090E0DF91CF911F910F9161
:100D4000FF90EF900895F62E0B8D10E00F5F1F4F70
:100D50000F731127E02E8C8D8E110CC00FB607FC7F
:100D6000FACFE889F989808185FFF5CFCE010E940D
:100D70005A06F1CFEB8DEC0FFD2FF11DE35AFF4F1B
:100D8000F0829FB7F8940B8FEA89FB89808180629B
:100D9000CFCFCF93DF93EC01888D8823B9F0AA8958
:100DA000BB89E889F9898C9185FD03C0808186FD26
:100DB0000DC00FB607FCF7CF8C9185FFF2CF808175
:100DC00085FFEDCFCE010E945A06E9CFDF91CF918A
:100DD0000895833081F028F4813099F08230A9F0B1
:100DE00008958730A9F08830C9F08430B1F480913B
:100DF00080008F7D03C0809180008F77809380007A
:100E0000089584B58F7784BD089584B58F7DFBCF19
:100E10008091B0008F778093B00008958091B000EA
:100E20008F7DF9CFCF93DF93282F30E0F901E8567B
:100E3000FA4F8491F901EF57F54FD491F901E1563A
:100E4000F54FC491CC23A1F081110E94E906EC2F4B
:100E5000F0E0EE0FFF1FEB56F54FA591B491EC912A
:100E6000ED2381E090E009F480E0DF91CF910895D7
:100E700080E090E0FACF1F93CF93DF93282F30E0EC
:100E8000F901E856FA4F8491F901EF57F54FD491E3
:100E9000F901E156F54FC491CC23A9F0162F811129
:100EA0000E94E906EC2FF0E0EE0FFF1FEE52FA4F22
:100EB000A591B4918FB7F894EC91111108C0D09519
:100EC000DE23DC938FBFDF91CF911F910895DE2B3E
:100ED000F8CF1092340310923303109285031092CE
:100EE000840310927B0381E080937A031092750350
:100EF00061E082E10E943B0761E083E10E943B07E1
:100F0000E9EBF0E080818E7F808380818D7F80831C
:100F100088E48093B80085E48093BC0089ED95E077
:100F200090933203809331038AED95E090933003E0
:100F300080932F030895CF93DF9390E0FC01EF5748
:100F4000F54F24918156954FFC0184918823C9F077
:100F500090E0880F991FFC01E455FA4FA591B491D8
:100F6000FC01EE52FA4FC591D49161110DC09FB7AB
:100F7000F8948C91209582238C9388812823288350
:100F80009FBFDF91CF910895623051F49FB7F894DD
:100F90003C91822F809583238C93E8812E2BEFCF79
:100FA0008FB7F894EC912E2B2C938FBFEACF209122
:100FB000000190E4299F900111248E50822B809390
:100FC0007C0080917A00806480937A0080917A001E
:100FD00086FDFCCF809178009091790008953FB70D
:100FE000F8948091140390911503A0911603B09189
:100FF000170326B5A89B05C02F3F19F00196A11D28
:10100000B11D3FBFBA2FA92F982F8827BC01CD0152
:10101000620F711D811D911D42E0660F771F881FB1
:10102000991F4A95D1F708958F929F92AF92BF92E0
:10103000CF92DF92EF92FF926B017C010E94EF074B
:101040004B015C01C114D104E104F104B9F00E9428
:10105000EF07681979098A099B09683E7340810581
:10106000910580F321E0C21AD108E108F10888EE69
:10107000880E83E0981EA11CB11CE4CFFF90EF9076
:10108000DF90CF90BF90AF909F908F9008952FB733
:10109000F894609110037091110380911203909164
:1010A00013032FBF0895DC0180E0615090F09D9103
:1010B0009827E92FEF70F0E0E858FA4F2491E92FD4
:1010C000E295EF70F0E0E857FA4FE491822F8E2717
:1010D000ECCF0895DC012C911196ED91FC91F894E0
:1010E0008181822B81839281322F30959323928349
:1010F00087E090E00197F1F781818323818383E288
:1011000090E00197F1F790817894EFECF0E031975F
:10111000F1F7922381E009F480E00895FC019081C9
:101120000180F281E02D292F209560FF14C0F894F2
:101130008281822382838181892B8183A3E2B0E033
:101140001197F1F78281982B9283789487ED90E044
:101150000197F1F70895F894828182238283818137
:10116000892B8183AFEFB0E01197F1F78281982B43
:10117000928378948FE090E0EBCFDF92EF92FF9232
:101180000F931F93CF93DF93EC01D62EE42E08E04C
:1011900010E0FF24F39461E08D2D8F2109F460E0CD
:1011A000CE010E948E08FF0C01501109A1F7E11039
:1011B00010C0F894E981FA81918188818095892312
:1011C0008183E981FA819281888180958923828354
:1011D0007894DF91CF911F910F91FF90EF90DF9066
:1011E0000895EF92FF920F931F93CF93DF938C019B
:1011F0007B0140E065E50E94BD08E70188E0E80E5C
:10120000F11C699140E0C8010E94BD08CE15DF05C0
:10121000C1F7DF91CF911F910F91FF90EF9008954B
:10122000FC0190810180F281E02DF8948181292FC9
:1012300020958223818378943DE743E050E031504C
:1012400029F1DA011197F1F780818923C1F3F8942C
:101250008281822382838181892B81837894ABE789
:10126000B7E01197F1F7F894818182238183A3E19C
:10127000B1E01197F1F78081982381E009F080E0D7
:101280007894E3E6F6E03197F1F7089580E0089569
:10129000AF92BF92CF92DF92EF92FF920F931F9384
:1012A000CF93DF938B01BC0180912F049091300488
:1012B0000E94F10840E06EEB80912F049091300481
:1012C0000E94BD08E801680189E0C80ED11CA09009
:1012D0002F04B090300488E0E82EF12C10E001E0FB
:1012E000C5010E946A088111102B000F81E0E81AE5
:1012F000F108B1F71993CC16DD0649F780912F0458
:10130000909130040E94100991E0813009F090E042
:10131000892FDF91CF911F910F91FF90EF90DF9078
:10132000CF90BF90AF9008950F931F93CF93DF930B
:10133000CDB7DEB729970FB6F894DEBF0FBECDBF8D
:101340008C0180912F04909130040E94100981112A
:1013500002C080E01FC0BE016F5F7F4FC8010E94C6
:1013600048098823B1F368E0CE0101960E94530832
:1013700099858913EECF8D818F33B9F020F48F31A9
:1013800041F789E007C08F3521F08F3711F78CE0E6
:1013900001C08BE029960FB6F894DEBF0FBECDBF1B
:1013A000DF91CF911F910F9108958AE0F3CF0895B7
:1013B000FC016370668B8481958126813781613061
:1013C00039F0633029F09187808733872287089529
:1013D000318720879387828708952F923F924F927B
:1013E0005F926F927F928F929F92AF92BF92CF92B5
:1013F000DF92EF92FF920F931F93CF93DF93CDB7BE
:10140000DEB76A970FB6F894DEBF0FBECDBF9A8FD6
:10141000898F7A8369834A01D22E18870F83370117
:10142000BC2CDC0159962D913C915A972115310520
:1014300009F015C118968D919C9119976817790735
:101440000CF0D7C11A968D919C91481759070CF052
:10145000D0C14C2C512CB6E0CB9E600D711D1124D7
:101460007C876B87161617060CF0C3C1EA2DF0E0D7
:10147000FA87E98793E0EE0FFF1F9A95E1F7F88B63
:10148000EF87CF01840F951F181619060CF0B1C114
:10149000A98DBA8D58968C91811104C0BFEABD15F3
:1014A00008F4D394A98DBA8DED91FC911197028423
:1014B000F385E02DCD010995B5E0DB9EC001112437
:1014C000E981FA81FC83EB83312C212C9C01285883
:1014D0003F4F388F2F8B4A2D50E05E8B4D8BEF891D
:1014E000F88DE20DF31D44919E828D82D12CC12C8A
:1014F00069817A81620D731D7A8B698B842F90E0EC
:101500009C8B8B8BE98DFA8DA081B18140FF82C0CD
:10151000F1E0BF126FC0AF126DC01C96ED91FC914F
:101520002F813885A4014C0D5D1D69897A89898DCB
:101530009A8D0995EB89FC89F595E7954E2F5FEF1C
:10154000C51AD50A6D817E818D899E89680F791FA4
:101550007E836D8398E0C916D10481F6AFEF2A1A15
:101560003A0AEB81FC81E40DF51DFC83EB83F5E089
:101570002F16310409F0B3CF2F8138852615370592
:10158000B9F0A98DBA8DED91FC91B1E0BB1257C0B5
:10159000AB1255C069817A816B5F7F4F0088F189FA
:1015A000E02D830128E030E0A401898D9A8D099512
:1015B000A98DBA8DED91FC9111970688F789E02DE0
:1015C000CD016A960FB6F894DEBF0FBECDBFDF9196
:1015D000CF911F910F91FF90EF90DF90CF90BF9030
:1015E000AF909F908F907F906F905F904F903F90C3
:1015F0002F9009941E96ED91FC91EF80F884098557
:101600001A8592014D815E816B817C81898D9A8DD5
:10161000099590CF2F8138852615370509F48ACF93
:1016200031E0B31207C0A31205C01C96ED91FC91E6
:10163000930178CF1E96ED91FC917301E0CF6B85FD
:101640007C85641975090684F785E02D73010F8583
:1016500018899201A401898D9A8D0995A9CFF90164
:1016600034969491329745915491D91AB7E0DB9E04
:10167000400D511D1124F901259134913C8B2B8B88
:10168000FA0125903490FA01329674903196349193
:10169000398B329664903196449041E04C1518F0A5
:1016A0004A1508F07FC0662D062C000C770B7C8352
:1016B0006B83842D042C000C990B9E838D83A98D44
:1016C000BA8DED91FC9111970284F385E02DCD0147
:1016D0000995512CD12CC12CEA2DF0E0FA87E9872D
:1016E0002B2D30E03C872B87A401440D511D47FC76
:1016F0005A95588F4F8B69817A81660D711D67FCF1
:101700007A957E876D877989C71608F051CF2C2D81
:1017100030E04D815E81420F531FA985BA854A9FF3
:10172000C0014B9F900D5A9F900D1124FC01E80DB4
:10173000F91DF88BEF87852D612C4F89588D420F4D
:10174000531F5E8B4D8B671408F050C044244394A4
:10175000480E877041F4C1010196EB89FC89E20DC6
:10176000F31DD4901C01D7FE19C0A98DBA8DED913F
:10177000FC91662D70E0B1E0BB1219C0AB1217C02E
:101780002D853E85620F731F0484F585E02D2F8122
:1017900038854D895E89898D9A8D0995DD0C639414
:1017A000842DD1CF1E821D821C821B8288CF4B814B
:1017B0005C81640F751FAB85BC856A9FC0016B9F00
:1017C000900D7A9F900D112469817A81680F791F9D
:1017D0000684F785E02DEF80F88409851A859D0140
:1017E0004F855889898D9A8D0995D8CF570CC39408
:1017F0008ACF6A960FB6F894DEBF0FBECDBFDF91D9
:10180000CF911F910F91FF90EF90DF90CF90BF90FD
:10181000AF909F908F907F906F905F904F903F9090
:101820002F9008958F929F92AF92CF92EF92FF9256
:101830000F931F93CF93DF93EC01262F898D9A8D01
:10184000009709F051C06A30D1F41D861C868D893D
:1018500048E0849F900111248E859F85820F931FFD
:101860009F878E8781E090E0DF91CF911F910F914C
:10187000FF90EF90CF90AF909F908F9008956D3034
:1018800089F3CC88AD888F898823C1F08C859D85AC
:1018900036E0C39E800D911D112448855985481757
:1018A000590764F44E855F851D861C8638E0A39E2B
:1018B000C0011124840F951F9F878E87EA88FB88BB
:1018C000088919894E855F856C857D85CE010E94CA
:1018D000ED092C898C859D8546E0249F800D911D06
:1018E00011249D878C87BECF6A3069F41D861C86C3
:1018F000FC013696E4912D898E859F85E29F800DAF
:10190000911D1124ADCF6D3009F4ACCFFC0134969C
:101910003491631708F4A6CF3196E491E61708F4E2
:10192000A1CFFC01329685909490462F431B342F13
:1019300047E0349F800C911C1124F40132963491BD
:101940003196E4913323A9F1EE2399F1CC88F40187
:101950003596E491AD884F89442301F10E2E000C99
:10196000FF0BE30FF11DCE9EA001CF9E500D112461
:101970006C857D85460F571F6885798564177507C7
:101980006CF44E855F851D861C86FC013696E491BD
:10199000AE9E400D511D11245F874E87EA88FB885B
:1019A000088919894E855F856C857D85CE010E94E9
:1019B000ED09F4013496E4912C898C859D85E29F94
:1019C000800D911D11248DCF682F87E594E00C9434
:1019D000120C6F927F928F929F92AF92BF92CF9292
:1019E000DF92EF92FF920F931F93CF93DF93EC015F
:1019F0006B015A0139014801E881F9810284F385BC
:101A0000E02D0995E881F9810288F389E02D8701AD
:101A10009301A501B601CE010995A501480D591DF7
:101A200041505109E881F9810288F389E02D930141
:101A3000B601CE010995E881F9810088F189E02D90
:101A40009401A501B601CE010995C60CD71CB601BB
:101A500061507109E881F9810088F189E02D9401D4
:101A6000A501CE010995E881F9810688F789E02D65
:101A7000CE01DF91CF911F910F91FF90EF90DF90FA
:101A8000CF90BF90AF909F908F907F906F90099470
:101A90006F927F928F929F92AF92BF92CF92DF927E
:101AA000EF92FF920F931F93CF93DF935C01EB01B3
:101AB0006A01490138018701DC01ED91FC9162174F
:101AC000730719F5641675062CF0962D872D3A01CB
:101AD000C92ED82E9601261937092F5F3F4F048C47
:101AE000F58DE02DA301BE01C5010995DF91CF91D0
:101AF0001F910F91FF90EF90DF90CF90BF90AF902C
:101B00009F908F907F906F9008954615570591F4A0
:101B10002617370724F0892D4B01C22FD82F9E019D
:101B2000281939092F5F3F4F068CF78DE02DA6014C
:101B3000B401DACF0284F385E02D0995D501ED914A
:101B4000FC910488F589E02D83019401A601BE0172
:101B5000C5010995D501ED91FC910688F789E02D25
:101B6000C501DF91CF911F910F91FF90EF90DF9012
:101B7000CF90BF90AF909F908F907F906F9009947F
:101B8000EF92FF920F931F93DC011A960D911C9117
:101B90001B9718962D913C911997ED91FC9100A0FF
:101BA000F1A1E02D7B0150E040E070E060E009959C
:101BB0001F910F91FF90EF9008954F925F926F9257
:101BC0007F928F929F92AF92BF92CF92DF92EF92CD
:101BD000FF920F931F93CF93DF936C012B015A0158
:101BE00039014801DC01ED91FC910284F385E02D7F
:101BF0000995E201640C751CD601ED91FC91C615A6
:101C0000D7055CF40088F189E02D87019401A501D6
:101C1000BE01C60109952196EFCF0688F789E02D10
:101C2000C601DF91CF911F910F91FF90EF90DF9050
:101C3000CF90BF90AF909F908F907F906F905F906C
:101C40004F9009948F929F92AF92BF92CF92DF9262
:101C5000EF92FF920F931F93CF93DF93EC015B0101
:101C60004A016901E881F9810284F385E02D099533
:101C700095012C0D3D1D21503109E881F981048821
:101C8000F589E02D78018401A401B501CE01099503
:101C9000E881F9810688F789E02DCE01DF91CF91A7
:101CA0001F910F91FF90EF90DF90CF90BF90AF907A
:101CB0009F908F9009948F929F92AF92BF92CF92F4
:101CC000DF92EF92FF920F931F93CF93DF93EC017C
:101CD0005B014A0169017801E881F9810284F38599
:101CE000E02D0995C80CD91C860101501109E88125
:101CF000F9810488F589E02D9501A401B501CE0193
:101D00000995E881F9810688F789E02DCE01DF91F8
:101D1000CF911F910F91FF90EF90DF90CF90BF90E8
:101D2000AF909F908F900994EF92FF920F931F9323
:101D3000DC01ED91FC9100A0F1A1E02D09951F912E
:101D40000F91FF90EF9008950F931F93DC01ED9199
:101D5000FC91068CF78DE02D09951F910F91089548
:101D60000F931F93DC01ED91FC91048CF58DE02D18
:101D700009951F910F910895DC01ED91FC9100846C
:101D8000F185E02D09943F924F925F926F927F927E
:101D90008F929F92AF92BF92CF92DF92EF92FF927B
:101DA0000F931F93CF93DF935C017B014A0169017D
:101DB000390187E0680E711C93E0759467949A95D9
:101DC000E1F72B01400E511E10E000E0312CD0E075
:101DD000C0E0CE0187709927330C892B59F4FE019E
:101DE00083E0F595E7958A95E1F7E00FF11FE80D9F
:101DF000F91D349037FE0AC021E030E0A701B5019B
:101E00006C0F7D1F87E594E00E94BC0E2196CC16D6
:101E1000DD06F9F68FEFE81AF80A060D171DE4142F
:101E2000F504A9F6DF91CF911F910F91FF90EF90EC
:101E3000DF90CF90BF90AF909F908F907F906F90EA
:101E40005F904F903F9008952F923F924F925F92F4
:101E50006F927F928F929F92AF92BF92CF92DF92BA
:101E6000EF92FF920F931F93CF93DF9300D000D098
:101E700000D0CDB7DEB73C016A013E832D83FC82E2
:101E8000EB825801A41AB50AB7FE03C0B194A1941D
:101E9000B1088D809E80861A970A97FE03C09194A0
:101EA000819491088A149B045CF0902F812F0D81FE
:101EB0001E819D838E839C2D8D2D6B01692F782F24
:101EC0000C151D055CF09D818E817E836D83692FCD
:101ED000782F902F812F8601C92ED82E1601201A17
:101EE000310A2B012D813E81421A530A57FE03C04D
:101EF000519441945108710137FE03C03FEFE31A3A
:101F0000F30AF594E7948D819E81861797075CF517
:101F1000A1E0B0E0BA83A983C016D1064CF1D30189
:101F2000ED91FC910484F585E02D2B813C81A80185
:101F30006D817E818A149B041CF04D815E81B80105
:101F4000C3010995E418F508F7FE0AC02D813E810A
:101F500089819A81280F391F3E832D83E20CF31C5F
:101F60000F5F1F4FD9CF2FEF3FEF3A832983D4CF95
:101F700026960FB6F894DEBF0FBECDBFDF91CF918E
:101F80001F910F91FF90EF90DF90CF90BF90AF9097
:101F90009F908F907F906F905F904F903F902F9089
:101FA000089585ED8093BC008091BC0084FDFCCF3A
:101FB00010927B0308952091EC02260F3327331FE4
:101FC00021323105ECF420917B03FC0190E080E0AC
:101FD000243069F082E00895A091EC022191AC01D7
:101FE00044535D4FA40FB52FB11D2C930196861756
:101FF00098F38091EC02680F6093EC0280E0089502
:1020000081E00895E091340380913303E81730F4C0
:10201000F0E0EB5CFC4F808190E008958FEF9FEF44
:10202000089590913403809133032FEF3FEF981779
:1020300048F4E92FF0E0EB5CFC4F208130E09F5F3B
:1020400090933403C9010895CF92DF92EF92FF92EB
:102050000F931F93CF93DF937C01CB018A012091D3
:102060008703222389F0EB016B01C40ED51ECC152A
:10207000DD0569F06991D701ED91FC910190F08146
:10208000E02DC7010995F3CF642F0E94DB0FC80133
:10209000DF91CF911F910F91FF90EF90DF90CF9044
:1020A0000895CF93DF931F92CDB7DEB76983209158
:1020B00087032223F9F020918403203258F021E095
:1020C00030E0FC013383228390E080E00F90DF91C9
:1020D000CF91089580918503E82FF0E0E455FD4FFE
:1020E000998190838F5F809385038093840381E03F
:1020F00090E0ECCF61E0CE0101960E94DB0FF7CFBC
:10210000682F8BE494E00C9451102091840381E0BB
:10211000213208F044C080917B038111FCCF809173
:10212000860392E090937B0391E090937A039FEF74
:10213000909379031092780320937703ACEAB2E08E
:10214000E5E5F3E090E0291331C010927603909119
:102150007603880F892B80937603809175038130F5
:1021600049F510927503809176038093BB008091AE
:10217000BC0083FDF8CF85EC8093BC0080917B038D
:102180008230E1F3809179038F3FB1F08091790340
:102190008032A1F080917903803391F084E0109235
:1021A0008503109284031092870308953D91319323
:1021B0009F5FC9CF85EEE0CF80E0F1CF82E0EFCF27
:1021C00083E0EDCFCF9388E60E94860560E08BE444
:1021D00094E00E94511060E88BE494E00E9451105A
:1021E00080917D03CAE06C2F0E9446328295807FE9
:1021F000682F690F8BE494E00E94511080917E0358
:102200006C2F0E9446328295807F682F690F8BE485
:1022100094E00E94511080917F036C2F0E944632FF
:102220008295807F682F690F8BE494E00E945110A3
:10223000809180036C2F0E9446328295807F682FA8
:10224000690F8BE494E00E945110809181036C2F00
:102250000E9446328295807F682F690F8BE494E05C
:102260000E945110809182038E516C2F0E94463241
:102270008295807F682F690F8BE494E00E94511053
:102280008BE494E00E948510882329F01092830348
:1022900080E0CF91089581E08093830388E60E94D7
:1022A000860560E08BE494E00E94511080917C03ED
:1022B0006C2F0E9446328295807F682F690F8BE4D5
:1022C00094E00E9451108BE494E00E9485108111EB
:1022D000DDCF81E0DECFAF92BF92DF92EF92FF922F
:1022E0000F931F93CF93DF938B01040F151FEB0107
:1022F0005C01A61AB70A7501EC0EFD1ED9908091FB
:10230000BF040E9486058F2D90E00E948010C701B7
:1023100099270E9480106D2D8BE494E00E9451104B
:102320008BE494E00E9485106AE070E080E090E029
:102330000E941408C017D107F1F6DF91CF911F91C9
:102340000F91FF90EF90DF90BF90AF900895EF92C4
:10235000FF920F931F93CF93DF93EC01EC80FD80EE
:102360006E157F050CF070C057FF04C0240F351F99
:1023700050E040E08E819F81FA01E20FF31F8E173B
:102380009F071CF49C01241B350B121613060CF03E
:102390005BC0922F842F8695869586958E9DD00161
:1023A0008F9DB00D11246A0F7B1FAF8DB8A1A60FB2
:1023B000B71F477049F188E0841B482F682F70E0F1
:1023C000FB01E059FF4FE491281708F063C0621B3E
:1023D00071092FEF30E002C0359527956A95E2F735
:1023E000E2230130110539F0B0F10230110561F539
:1023F0008C91E82702C08C91E82BEC93941720F184
:102400002C813D81A20FB31FE92FE41BE83078F047
:102410000230110521F58E2F9C9190959C932C8173
:102420003D81A20FB31F88508830B0F7E770EE23CC
:1024300059F0F0E0E859FF4FE49101301105F9F04F
:1024400010F10230110519F1DF91CF911F910F9119
:10245000FF90EF900895E0958C91E823CECF81E036
:102460000115110509F480E081959E2F8C932C8134
:102470003D81A20FB31F98509830C0F7D7CF8C91F1
:10248000E82BEC93E1CFE0958C91E823FACF8C9187
:10249000E827F7CF0130110509F4ADCFE0F20230A3
:1024A000110509F4A5CFAE0DBF1DAECF0F931F933D
:1024B000CF93DF9377FF04C0260F371F70E060E0F3
:1024C000DC011496CD91DC91FB01E20FF31FCE17D6
:1024D000DF071CF49E01261B370B121613064CF562
:1024E000FA0157FD3796A3E0F595E795AA95E1F730
:1024F000EC9FD001ED9FB00DFC9FB00D11246A0F31
:102500007B1FDC015F96ED91FC91E60FF71F477092
:10251000552781E090E001C0880F4A95EAF7482FDF
:102520000130110559F0A8F02E0F3F1F02301105A0
:10253000E1F0DF91CF911F910F9108952E0F3F1F72
:10254000E217F307B1F38191DF011197842B8C938C
:10255000F7CF80952E0F3F1FE217F30751F39191AC
:10256000DF01119798239C93F7CFE217F30709F344
:102570008191DF01119784278C93F7CF0F931F93DD
:10258000FA01DC0156964C9156974230E9F04330FF
:10259000A1F1413061F514964D915C91DA01AE1BC9
:1025A000BF0BFD01E21BF30B77FD0BC0DC011696A0
:1025B0004D915C916417750724F4AB01BF010E9433
:1025C00056121F910F91089514964D915C91DA0166
:1025D000A61BB70BBD0161507109DC0116964D9128
:1025E0005C91DA01AE1BBF0BFD01E21BF30B77FD23
:1025F000E8CFAF010E94A711E4CF16964D915C91F0
:10260000DA01A61BB70BBD0161507109CDCF0F9345
:102610001F93FA01DC0156964C9156974230A9F06F
:10262000433091F1413019F514964D915C91DA01E6
:10263000AE1BBF0BFD013197F7FD04C0AB01BF011D
:102640000E94A7111F910F91089514964D915C91CE
:10265000DA01A61BB70BBD01DC0116964D915C910A
:10266000DA01AE1BBF0BFD013197621B730BF7FD47
:10267000E9CFDC0116964D915C91E417F50714F74C
:10268000AF010E945612DECF16964D915C91DA0191
:10269000A61BB70BBD01621B730BCECFFC0177FDF0
:1026A00064C080859185681779070CF05EC057FD7E
:1026B0005CC082859385481759070CF056C08689FF
:1026C0008230B1F0833029F1813041F484819581E9
:1026D000841B950BAB01BC016150710921303105A0
:1026E00009F108F443C02230310509F463C00895AC
:1026F00084819581DC01A61BB70BBD016150710976
:1027000086819781DC01A41BB50BAD0141505109B5
:10271000E5CF86819781861B970BBA01AC014150AA
:102720005109DCCFCA0157FD0796A3E0959587951F
:10273000AA95E1F7A481B5818A9F90018B9F300D06
:102740009A9F300D1124620F731F078CF0A1E02DAA
:10275000E60FF71F4770552721E030E001C0220F38
:102760004A95EAF78081822B80830895CA0157FD3C
:10277000079633E0959587953A95E1F7A481B58161
:102780008A9F90018B9F300D9A9F300D1124620F0C
:10279000731F078CF0A1E02DE60FF71F4770552738
:1027A00081E090E001C0880F4A95EAF7809590811A
:1027B0008923DACFCA0157FD079623E095958795BF
:1027C0002A95E1F7A481B5818A9F90018B9F300DF6
:1027D0009A9F300D1124620F731F078CF0A1E02D1A
:1027E000E60FF71F4770552721E030E001C0220FA8
:1027F0004A95EAF780818227B7CF08958EBD000001
:102800000DB407FEFDCF8EB50895FF920F931F9371
:10281000CF93DF93F82ED92FC62F80917404909117
:102820007504892B09F447C0809178040E948605BD
:102830008091740490917504DC01ED91FC910190FC
:10284000F081E02D60E009950F2D1D2FD1E0C150E2
:102850008091740490917504CF3F31F1D03298F09B
:102860000E948510809178040E94860580917404EE
:1028700090917504DC01ED91FC910190F081E02DC7
:1028800060E00995D1E08091740490917504F8019D
:102890006491DC01ED91FC910190F081E02D0995AE
:1028A000DF5F0F5F1F4FD3CFDF91CF911F910F914C
:1028B000FF900C948510E0918404F0918504908140
:1028C00080918A048095892380830F2D1D2FC1500C
:1028D00008F438C0F8018491209172043091730497
:1028E000232B29F00E94FE130F5F1F4FF0CF28E02B
:1028F00030E040E8E0918004F091810490918804F8
:10290000582F5423D9F05081952B9083E091820465
:10291000F0918304908150918904952B9083E091EC
:102920008204F091830450819091890490959523BD
:102930009083469521503109E9F6D6CF5081909584
:102940009523E3CFDF91CF911F910F91FF900895D1
:102950001F93CF93DF93EC018D8D9E8D892BF9F022
:10296000162F89A10E9486058D8D9E8DDC01ED912B
:10297000FC910190F081E02D60E009958D8D9E8D98
:10298000DC01ED91FC910190F081E02D612F099522
:102990008D8D9E8DDF91CF911F910C948510ADA5EB
:1029A000BEA59C918BA9809589238C938B8D9C8D42
:1029B000892B31F0862FDF91CF911F910C94FE135C
:1029C00028E030E080E8A9A5BAA599A9462F4823B8
:1029D000C1F04C91942B9C93ABA5BCA59C914AA9AA
:1029E000942B9C93ABA5BCA54C919AA9909594234C
:1029F0009C9386952150310931F7DF91CF911F913A
:102A000008954C9190959423E6CF8CBD9DBD08957B
:102A1000FF920F931F93CF93DF9380917404909153
:102A20007504892B09F472C08CE08093B80065E0CE
:102A30008CE79AE00E94051460915B04615087E581
:102A400094E00E94A81420915D0430915E04C901B5
:102A5000079697FD079623E0959587952A95E1F7C8
:102A600020915B0430915C04829F8001839F100D54
:102A7000929F100D1124C0917604D091770480911B
:102A80007404909175040C0F1D1F892B09F47CC0F0
:102A9000809178040E948605809174049091750459
:102AA000DC01ED91FC910190F081E02D60E409954D
:102AB000FF24F39480917404909175040C171D0702
:102AC000E1F1BFE1BF15A0F40E9485108091780468
:102AD0000E9486058091740490917504DC01ED914B
:102AE000FC910190F081E02D60E40995FF24F394BE
:102AF00080917404909175046991DC01ED91FC91D1
:102B00000190F081E02D0995F394D4CF8091720467
:102B100090917304892B31F080918C0490918D04F5
:102B20000E940515E0918604F091870490818091C0
:102B30008B048095892380837ACF0E9485108091B1
:102B4000740490917504892B09F45FC020918E0460
:102B500030918F04409190045091910460E074E2B0
:102B600084EF90E00E9467302051310941095109FA
:102B700056954795379527952093B800DF91CF91CB
:102B80001F910F91FF900895E0918404F0918504C6
:102B9000808190918A04892B80830C171D0779F21C
:102BA00089912091720430917304232B19F00E94B3
:102BB000FE13F3CF28E030E040E8E0918004F0918C
:102BC000810490918804582F5423D9F05081952B7B
:102BD0009083E0918204F091830490815091890464
:102BE000952B9083E0918204F09183045081909121
:102BF0008904909595239083469521503109E9F6F3
:102C0000CCCF508190959523E3CFE0918604F0914D
:102C10008704808190918B04892B8083AFCF1F9391
:102C2000CF93DF93EC01162F8D8D9E8D892B29F18B
:102C30008CE08093B80066EA111167EACE010E9429
:102C4000A8148D8D9E8D892B41F12FA938AD49ADEA
:102C50005AAD60E074E284EF90E00E94673020514A
:102C60003109410951095695479537952795209384
:102C7000B800DF91CF911F9108958B8D9C8D892B8A
:102C800021F08DA99EA90E940515EFA5F8A99081B4
:102C90008CA9809589238083CECFEFA5F8A9808168
:102CA0009CA9892B8083E5CF089590E080E008956A
:102CB0008093BB0084E88093BC008091BC0087FFB8
:102CC000FCCF9091B900987F81E0983231F0983133
:102CD00029F0903419F080E008950895089584EA69
:102CE0008093BC008091BC0087FFFCCF8091B9002D
:102CF000887F19F080EC0C94581680E008955F925C
:102D00006F927F928F929F92AF92BF92CF92DF92FB
:102D1000EF92FF920F931F93CF93DF93CDB7DEB760
:102D2000582E742E652EB62E922E0E946F16852D6B
:102D30000E9458168D2D0E9458168C2D0E945816F0
:102D40008B2D8370A82A80E081108CE08A290E9454
:102D50005816862D0E945816872D0E9458168CE012
:102D6000F694E794D794C7948A95D1F78C2D807FF9
:102D7000C82E892D8F708C290E945816812F0E9491
:102D80005816802F0E94581684E98093BC008091C9
:102D9000BC0084FDFCCFDF91CF911F910F91FF907C
:102DA000EF90DF90CF90BF90AF909F908F907F90EB
:102DB0006F905F9008954F925F926F927F928F9283
:102DC0009F92AF92BF92CF92DF92EF92FF920F93BA
:102DD0001F93CF93C82FC090B604D090B704E09053
:102DE000B804F090B904CB01BA01A70196010E9482
:102DF000673049015A0125E0F694E794D794C794C7
:102E00002A95D1F735E096958795779567953A9508
:102E1000D1F747E0660F771F881F991F4A95D1F7B2
:102E2000A70196010E94673029013A018B019C019C
:102E3000B501A401552766277727E7E0440F551F02
:102E4000661F771FEA95D1F7525061097109440D49
:102E5000551D661D771D812CA12C8C2F0E947F167D
:102E6000CF911F910F91FF90EF90DF90CF90BF9087
:102E7000AF909F908F907F906F905F904F9008954C
:102E80008F92AF92CF92DF92EF92FF920F931F93A8
:102E900088248394443051056105710509F0812C23
:102EA0004450510961097E4F97E0440F551F661F3A
:102EB000771F9A95D1F7A22EC12CD12C7601C394FD
:102EC00000E010E098010E947F161F910F91FF9083
:102ED000EF90DF90CF90AF908F900895CF93DF93D6
:102EE000D82FC62F0E946F168D2F0E9458168C2F38
:102EF0000E94581684E98093BC008091BC0084FD38
:102F0000FCCFDF91CF910895CF93C82F60E880E187
:102F10008C0F0E946E17EC2FF0E0EE0FFF1FE256B1
:102F2000FB4F11821082CF9108952F923F924F92C2
:102F30005F926F927F928F929F92AF92BF92CF9249
:102F4000DF92EF92FF920F931F93CF93DF9300D006
:102F500000D01F92CDB7DEB789838091AE049091E7
:102F6000AF04A091B004B091B104892B8A2B8B2BB4
:102F700019F481E00E9484178091B2049091B30407
:102F8000A091B404B091B504892B8A2B8B2B19F432
:102F900082E00E9484174090AE045090AF0460908D
:102FA000B0047090B104411451046104710409F437
:102FB0007FC12981222309F4A5C0C090A004D0902C
:102FC000A104F12CE12C4091A5044983A3019201B5
:102FD000C701B6010E9436329B01AC018981E82FFE
:102FE000F0E0EB5BFE4FA081B0E00E945C304B0153
:102FF0005C01DC01CB0180589545A84CB042813082
:10300000924CAB4EBB4008F446C0609124017091D5
:1030100025018091260190912701A30192010E9430
:10302000673069017A0181E044E0C416D104E1040B
:10303000F10408F489C086E0C816D104E104F10463
:1030400008F49BC019829DE2C91691E0D906E104FB
:10305000F10440F029812F5F2983F694E794D794F7
:10306000C794F1CF4981411103C0E894C0F8198297
:10307000A3019201C701B6010E9436329B01AC0147
:103080008981E82FF0E0EB5BFE4FA081B0E00E9469
:103090005C304B015C01B501A40182E20E94DB16A9
:1030A0008091A0049091A104B0E0A0E08C159D0552
:1030B000AE05BF0529F48091A50499818917D1F047
:1030C00029812295207FB701A60182E30E94401743
:1030D0006091A8046C6681E10E946E17D092A104F1
:1030E000C092A00429812093A5048091BE04806829
:1030F0008093BE048092BA049092BB04A092BC0458
:10310000B092BD04C090B204D090B304E090B40477
:10311000F090B504C114D104E104F10409F4B0C085
:103120008090BA049090BB04A090BC04B090BD0401
:10313000C501B401A70196010E946730283031050E
:103140004105510500F582E00F900F900F900F9010
:103150000F90DF91CF911F910F91FF90EF90DF9033
:10316000CF90BF90AF909F908F907F906F905F9027
:103170004F903F902F900C94841704E0C02ED12CD8
:10318000E12CF12C72CF1D8221343105410551050E
:1031900060F08D818F5F8D83CC0CDD1CEE1CFF1CDD
:1031A0005695479537952795EFCFC501B401A701EF
:1031B00096010E94673029833A834B835C832FEF0B
:1031C0003FEF4FE050E00E94733256016701E12C5F
:1031D000F12C00E010E00E94A03229013A019D810B
:1031E0009295907F9D83C12CD12C7601C39441147C
:1031F00051046104710431F0CC24CA94DC2CFFE04A
:10320000EF2EF12CC301B20127E0660F771F881F54
:10321000991F2A95D1F7A70196010E9467304901AD
:103220005A018B019C0149815A816B817C81552710
:1032300066277727E7E0440F551F661F771FEA953B
:10324000D1F7525061097109480D591D6A1D7B1D46
:10325000812CAD808AE30E947F168CE445284628A5
:10326000472809F08CE06091A9046062682B82E134
:103270000E946E1781E090E09093A3048093A204D3
:103280000F900F900F900F900F90DF91CF911F91A3
:103290000F91FF90EF90DF90CF90BF90AF909F90F5
:1032A0008F907F906F905F904F903F902F900895F8
:1032B0008090B2049090B304A090B404B090B50490
:1032C00081149104A104B104D9F2C090A204D09059
:1032D000A304F12CE12C2091A6042983A5019401DB
:1032E000C701B6010E9436329B01AC018981E82FEB
:1032F000F0E0EB5BFE4FA081B0E00E945C308B0100
:103300009C0100581545284C30420130124C2B4E80
:103310003B4008F443C060912401709125018091E5
:10332000260190912701A50194010E94673069014F
:103330007A0184E0C816D104E104F10408F403CF53
:1033400096E0C916D104E104F10408F458C01982CA
:103350002DE2C21621E0D206E104F10440F04981D9
:103360004F5F4983F694E794D794C794F1CF89814E
:10337000811103C0E894C0F81982A5019401C70126
:10338000B6010E9436329B01AC019981E92FF0E031
:10339000EB5BFE4FA081B0E00E945C30AB01BC0152
:1033A00082E20E94DB168091A2049091A304B0E017
:1033B000A0E08C159D05AE05BF0531F48091A604F3
:1033C0002981821709F45CCF29812295207FB701DA
:1033D000A6018AE30E9440176091A9046C6682E10D
:1033E0000E946E17D092A304C092A2044981409318
:1033F000A6048091BE0480688093BE0441CF84E01F
:10340000C82ED12CE12CF12CB5CF4F925F926F9248
:103410007F92AF92BF92CF92DF92EF92FF920F9383
:103420001F93CF93DF93D82F082F10E0F801EE0FF2
:10343000FF1FEE0FFF1FE655FB4F4080518062805B
:103440007380411451046104710489F48D2FDF915C
:10345000CF911F910F91FF90EF90DF90CF90BF9091
:10346000AF907F906F905F904F900C9484175801AD
:10347000AA0CBB1CF501E256FB4FC080D180F12C99
:10348000E12C02561B4FF801C681A3019201C7012E
:10349000B6010E9436329B01AC01EC2FF0E0EB5BF1
:1034A000FE4FA081B0E00E945C309B01AC0120582F
:1034B0003545484C50422130324C4B4E5B4008F46D
:1034C0003FC0609124017091250180912601909167
:1034D0002701A30192010E94673069017A0184E00B
:1034E000C816D104E104F10408F4B0CFE6E0CE162A
:1034F000D104E104F10408F470C0C0E0FDE2CF168D
:10350000F1E0DF06E104F10430F0CF5FF694E794D8
:10351000D794C794F3CFC11103C0E894C0F8C0E0BA
:10352000A3019201C701B6010E9436329B01AC0192
:10353000EC2FF0E0EB5BFE4FA081B0E00E945C302E
:103540002AE1D11122E2AB01BC01822F0E94DB16DD
:10355000F501E256FB4F80819181B0E0A0E08C152F
:103560009D05AE05BF0521F4F80186818C1731F168
:103570002C2F2295207FB701A6018D2F880F880F51
:10358000880F865D0E944017F801618580E0D111A7
:1035900080E26C64682B80E18D0F0E946E17F5014C
:1035A000E256FB4FD182C082F801C6838091BE04EF
:1035B00090E2D11190E8892B8093BE04DF91CF91E6
:1035C0001F910F91FF90EF90DF90CF90BF90AF9041
:1035D0007F906F905F904F90089584E0C82ED12C1B
:1035E000E12CF12C9ACFFF920F931F93CF93DF938F
:1035F00000D0CDB7DEB7E0E1F1E010E000E081916E
:10360000080F111D81E0E232F807C9F742E150E0EE
:1036100060E171E082E090E00E946B110F5F1F4F4C
:103620001A83098342E050E0BE016F5F7F4F90E054
:1036300080E00E946B11E9E0F1E080E191E010E0B0
:1036400000E02191020F111D8E179F07D1F7809185
:10365000110199E0F92E8F9DC001112447E050E03F
:1036600069E071E046960E946B110F5F1F4F1A834D
:103670000983809111018F9DC001112442E050E027
:10368000BE016F5F7F4F44960E946B110F900F90A9
:10369000DF91CF911F910F91FF90089580911D01AF
:1036A00090911E01092E000CAA0BBB0B8054934075
:1036B000A446BE4F8093B6049093B704A093B80479
:1036C000B093B90480E00E94051A82E00C94051AB8
:1036D0008F929F92AF92BF92CF92DF92EF92FF9222
:1036E0000F931F93CF9380910A0190910B01A091AA
:1036F0000C01B0910D0100911B0110911C01012ED4
:10370000000C220B330B8090AE049090AF04A0907D
:10371000B004B090B104C1E081149104A104B104DB
:1037200009F4C0E04091AA045091AB046091AC044C
:103730007091AD04E0910901EE2309F45CC0C090E2
:103740001301D0901401E0901501F09016018C0D3A
:103750009D1DAE1DBF1D805E9E45A84FBF4F800FB3
:10376000911FA21FB31F1092BE0484179507A607CE
:10377000B70759F08093AA049093AB04A093AC04CC
:10378000B093AD0480E00E94051A89288A288B280E
:1037900069F48091B2049091B304A091B404B09103
:1037A000B504C816D906EA06FB0699F01092AE04D5
:1037B0001092AF041092B0041092B104C092B204FF
:1037C000D092B304E092B404F092B5048C2F0E941E
:1037D00095176091BE04662319F181EBCF911F917B
:1037E0000F91FF90EF90DF90CF90BF90AF909F90A0
:1037F0008F900C946E17C0901701D0901801E09034
:103800001901F0901A018C0D9D1DAE1DBF1D805237
:10381000914AA740B109801B910BA20BB30BA3CF18
:10382000CF911F910F91FF90EF90DF90CF90BF90BD
:10383000AF909F908F9008958EE00E94D7072091BF
:103840001F0130E0DC010E946C322FEF33E040E0DA
:1038500050E00E943D302093AB02089580E10E9429
:10386000D70724E630E0DC010E946C322FEF33E012
:1038700040E050E00E943D302093AA020895DC0110
:10388000ED91FD918081ED91FD919081ED91FD9102
:103890006C9163708E2309F064609F2309F0686067
:1038A000ECE5FCE1E60FF11D659565956D936D9175
:1038B0007D918D919D91099423C01AC012C016C0AC
:1038C00010C01EC009C014C013C006C019C009C072
:1038D0000DC007C00DC014C06250704080409040C1
:1038E0000BC0615070408040904006C06E5F01C0C8
:1038F0006F5F7F4F8F4F9F4F9E938E937E936E93FC
:103900000895BF92CF92DF92EF92FF920F931F9391
:10391000CF93DF93EC01B62EC72E8D85811105C0A4
:10392000CE010E94100981110EC01B861D861C86C7
:1039300080E0DF91CF911F910F91FF90EF90DF908A
:10394000CF90BF90089540E060EFCE010E94BD0887
:1039500001E0E12CD12C11E0CE010E946A08F82E82
:10396000CE010E946A0891E0F91218C0813099F5E1
:103970001134D8F2DB86D11002C081E08D878B81B3
:10398000882399F22396EB2DFC2DCF0108962991DF
:103990002193E817F907D9F781E0CBCFEE2DF0E0BE
:1039A000F8120FC08B851817A0F4DE01AE0FBF1FF1
:1039B00013968C91802379F4F12C193008F41C872C
:1039C000D12EEC0FFD1F8381902F90958923838347
:1039D0000AC08113F1CFFE01EE0DF11D8381802B12
:1039E0008383FF24F3946F2DCE010E948E081F5F06
:1039F000000F11F4E39401E087E08E1508F0ACCFDE
:103A0000B7CF4F925F926F927F928F929F92AF92B9
:103A1000BF92CF92DF92EF92FF920F931F93CF93BB
:103A2000DF93CDB7DEB761970FB6F894DEBF0FBE58
:103A3000CDBF0E944708C090A502D090A602E0909A
:103A4000A702F090A8026C197D098E099F096938B8
:103A500073418105910508F458C08091A402811139
:103A600054C010922B0480912F04909130040E9436
:103A7000100940E06CEC80912F04909130040E947A
:103A8000BD084091290464E480912F049091300492
:103A90000E94BD0880912B04882391F1E0912A04B3
:103AA000E9500EEE12E0E33038F4F0E0EE0FFF1FC5
:103AB000EF5CFE4F0081118180912C04882309F472
:103AC00081C08091290481117DC00E9447084B016B
:103AD0005C012801110F6608770880912F049091EE
:103AE00030040E946A08813059F00E944708641926
:103AF000750986099709681579058A059B0568F394
:103B000081E080932B048093A4020E9447086C19E3
:103B10007D098E099F0961347F4181059105D8F1A6
:103B20008091A4028823B9F1E0912F04F091300430
:103B300013861586148612861186108617821682C1
:103B4000158214821382BE01665F7F4F80912F041D
:103B5000909130040E94811C81113BC060E070E0B4
:103B60008EEF92EC20E030E040E05FE30E9499307D
:103B70000E94053180912101680F6093A9020E9483
:103B800047086093A5027093A6028093A7029093C2
:103B9000A8021092A40261960FB6F894DEBF0FBE81
:103BA000CDBFDF91CF911F910F91FF90EF90DF90EC
:103BB000CF90BF90AF909F908F907F906F905F90CD
:103BC0004F900895B801110F880B990B0E941408AB
:103BD00097CF67E0CE010A960E945308998989130E
:103BE000BDCF80912F04909130040E94100988234A
:103BF00009F4B4CFBE016F5F7F4FCE010A960E94D9
:103C00004809882309F4AACF68E0CE0101960E94F2
:103C1000530899858913A2CF6A8170E0762F6627B1
:103C2000770F770F770F298158E0259F9001112496
:103C3000262B372B8A858031D1F4688570E08F81FF
:103C4000AB01481B5109CA019695982F8827979573
:103C500087950E945232CB014097B90153E0660F1D
:103C6000771F5A95E1F760789C01260F371F21389E
:103C700054EE35070CF472CFB901330F880B990B52
:103C80000E943D3120E030E040E05CE30E94C93119
:103C900069CF0F931F93CF93DF9380911D038823E8
:103CA00059F010927C030E94E21010921D03DF91E4
:103CB000CF911F910F9108950E9447080091A00293
:103CC0001091A1022091A2023091A302601B710BFE
:103CD000820B930B693E73408105910520F4012B03
:103CE000022B032B21F70E9447086093A0027093D8
:103CF000A1028093A2029093A30288E60E94860507
:103D000060E08BE494E00E9451108BE494E00E9408
:103D10008510882391F01092830380918303882378
:103D200031F210927E0310927D0310927C03DF919A
:103D3000CF911F910F910C94E21081E08093830347
:103D400067E088E60E949005109234038093330365
:103D5000873018F38BE494E00E941110D82F982F2D
:103D600092959770CAE08D2F8F709C9F800D1124C3
:103D700080937C038BE494E00E941110982F92951D
:103D80009F708F709C9F800D112480937D038BE426
:103D900094E00E941110982F929593708F709C9FC1
:103DA000800D112480937E038BE494E00E94111017
:103DB000982F92959F708F709C9F800D11248093F7
:103DC0007F038BE494E00E941110982F92959F70CE
:103DD0008F709C9F800D1124809380038BE494E06E
:103DE0000E941110982F92959F708F709C9F800D4C
:103DF0001124809381038BE494E00E941110982F8A
:103E00009F70925E82958F708C9F900D112490937D
:103E10008203D7FF4CCF81CFCF93DF93EC0180910A
:103E2000BF040E9486058D2F90E00E948010CE0175
:103E300099270E9480108BE494E00E94851061E035
:103E40008091BF040E949005109234038093330345
:103E5000882339F08BE494E00E941110DF91CF9118
:103E6000089580E0FBCFEF92FF920F931F93CF93C3
:103E7000DF938B01040F151FEB017C01E61AF70A93
:103E8000C7018C0F9D1F0E940C1F8993C017D1077B
:103E9000B9F7DF91CF911F910F91FF90EF900895A7
:103EA000DF92EF92FF920F931F93CF93DF9300D097
:103EB000CDB7DEB71A8219828091110129E0829F65
:103EC000C001112442E050E0BE016F5F7F4F449675
:103ED0000E94331FF12CE12C10E000E089E0D82E85
:103EE0008091110197018D9D200D311D1124C90173
:103EF00046960E940C1F080F111D3FEFE31AF30AAC
:103F000087E0E816F10461F70F5F1F4F89819A81FE
:103F100008171907B1F4809111018D9DC00111247A
:103F200047E050E069E071E046960E94331F0F9031
:103F30000F90DF91CF911F910F91FF90EF90DF9045
:103F400008950E94F31AF3CFFC0101900020E9F7D5
:103F50003197AF01481B590BBC0187E594E00C94E5
:103F6000DC058F929F92AF92BF920F931F93CF93D6
:103F7000DF93CDB7DEB7A1970FB6F894DEBF0FBEC3
:103F8000CDBF19A2423008F44AE08E010F5D1F4FE9
:103F9000842E912CB12CA12CA50194010E94673094
:103FA000E62FB901CA01EA30F4F4E05DD801EE93DE
:103FB0008D01232B242B252B79F790E080E010979F
:103FC00019F0CD010E94A41FA1960FB6F894DEBF90
:103FD0000FBECDBFDF91CF911F910F91BF90AF90DA
:103FE0009F908F900895E95CE1CF682F70E090E09A
:103FF00080E04AE00C94B11FCF92DF92EF92FF92E3
:10400000CF93DF936C01990FEE08FF08F7FE17C0FE
:104010008DE20E94E40CEC0166277727CB016C1936
:104020007D098E099F094AE00E94B11F8C0F9D1FD8
:10403000DF91CF91FF90EF90DF90CF9008954AE00D
:10404000C701B601DF91CF91FF90EF90DF90CF9045
:104050000C94B11FCF93DF934AE00E94B11FEC0193
:104060008DE991E00E94A41F8C0F9D1FDF91CF91DD
:104070000895CF93DF930E94A41FEC018DE991E096
:104080000E94A41F8C0F9D1FDF91CF9108950C9467
:10409000A41FCF92DF92EF92FF92CF93DF936C0138
:1040A000990FEE08FF08F7FE1DC08DE20E94E40C98
:1040B000EC0166277727CB016C197D098E099F09D2
:1040C0004AE00E94B11FC80FD91F8DE991E00E94FC
:1040D000A41F8C0F9D1FDF91CF91FF90EF90DF9079
:1040E000CF9008954AE0C701B6010E94B11FEC01CC
:1040F000ECCFCF93DF930E94F51FEC018DE991E0A7
:104100000E94A41F8C0F9D1FDF91CF9108952091D5
:104110005D0430915E04C901079697FD079623E080
:10412000959587952A95E1F720915B0430915C0481
:10413000829FA001839F500D929F500D112470E02B
:1041400060E080917604909177040C944434CF928F
:10415000DF92EF92FF920F931F93CF930E948720DD
:104160001092640410926304109266041092650425
:1041700081E090E090936A048093690490936804CE
:104180008093670483E080936B0480936C04E091D8
:104190002E03E03108F010C1F0E0EF52FF4D0C9417
:1041A0006632E12049225D227A229322AE22C22287
:1041B000E422FF2211232323332343235B2373238E
:1041C0008A2380910A0190910B01A0910C01B0917A
:1041D0000D0180389649A849B10520F487E192E0A5
:1041E0000E94472060910A0170910B0180910C019F
:1041F00090910D0130E4C32E32E4D32E3FE0E32E44
:10420000F12CA70196010E946730CA01B9014AE06A
:104210000E94B11F8091630490916404059690936D
:1042200064048093630460910A0170910B01809192
:104230000C0190910D01A70196010E946730603A30
:1042400076488140910520F480EA91E00E94472061
:1042500060910A0170910B0180910C0190910D0108
:1042600020E432E44FE050E00E9467306031774252
:104270008105910520F480EA91E00E944720609139
:104280000A0170910B0180910C0190910D0120E4C5
:1042900032E44FE050E00E94673028EEC22E23E067
:1042A000D22EE12CF12CA70196010E946730CA01A1
:1042B000B9014AE00E94B11F82E080936B048093B1
:1042C0006C04809163049091640405969093640457
:1042D0008093630487E090E0909366048093650484
:1042E00060910A0170910B0180910C0190910D0178
:1042F000A70196010E94673064367105810591051A
:1043000020F480EA91E00E94472060910A017091B8
:104310000B0180910C0190910D0128EE33E040E0FB
:1043200050E00E9467302AE030E040E050E00E9418
:104330006730CA01B9010E942A2081E080936B0492
:1043400080936C048091AB02843620F480EA91E083
:104350000E9447208091AB02CAE06C2F0E94463237
:1043600090E00E94FC1F82EA91E00E944720809129
:10437000AB026C2F0E944632892F90E00E94FC1FF6
:1043800084EA91E00E94472080912D038823E9F080
:1043900086EA91E00E9447202091AA0230E0EE24B4
:1043A000E394F12C09E010E047E150E060E470E0B4
:1043B00087E594E00E94DD0DCF911F910F91FF9052
:1043C000EF90DF90CF900C9408158091A90292E3B2
:1043D000980F953608F051C087FD04C087E192E040
:1043E0000E9447208091A902082E000C990B0E9480
:1043F000FC1F87EF0E94E40C8BEA91E00E944720AB
:10440000809124038823E1F187E192E00E94472014
:1044100080917E038A3020F487E192E00E94472059
:1044200080917E030E94F51F80917C0380FF2BC04A
:1044300085EB91E00E94472080917D038A3020F433
:1044400080EA91E00E94472080917D030E94F51F41
:10445000809109018823D1F087EB91E00E944720E9
:10446000809111018A3020F487E192E00E94472078
:10447000809111010E94F51F9FCF8DEA91E0BECF80
:1044800083EB91E0C3CF87E192E0D4CF8AEB91E058
:10449000E5CF809111010E94792081E080936B0427
:1044A00080936C0480912E030E94F51F8DEB91E0A8
:1044B0000E94472080911201DDCFE0911001F0E0D1
:1044C000EE0FFF1FE95CFE4F20813181AAE0B0E0D2
:1044D0000E9489300E942A2081E080936B0480939F
:1044E0006C0480912E030E94F51F8FEC91E00E94D6
:1044F000472062CF80910901882391F089ED91E0F6
:104500000E94392081E080936B0480936C04809139
:104510002E030E94F51F81EE91E00E9439204CCFBE
:104520008DED91E0EDCF80910E0124E6829FC001D8
:1045300011240E94492081E080936B0480936C04D5
:1045400080912E030E94F51F82EF91E00E94472088
:1045500080EF0E94E40C8EEF91E0C9CF80910F01B3
:1045600024E6829FC00111240E94492081E08093AB
:104570006B0480936C0480912E030E94F51F82E0EF
:1045800092E0E4CF82E080936B0480936C046091AE
:104590001701709118018091190190911A010E94E0
:1045A0002A2081E080936B0480936C0480912E0319
:1045B0000E94F51F8EE092E00E94472080EF0E944B
:1045C000E40C86ED91E093CF82E080936B048093BE
:1045D0006C04609113017091140180911501909108
:1045E00016010E942A2081E080936B0480936C0462
:1045F00080912E030E94F51F89E192E0DDCF80912A
:104600001B0190911C010E94492081E080936B0462
:1046100080936C0480912E030E94F51F84E292E047
:10462000CBCF80911D0190911E010E94492081E015
:1046300080936B0480936C0480912E030E94F51F7D
:1046400085E392E0B9CF80911F010E94792081E03B
:1046500080936B0480936C0480912E030E94F51F5D
:1046600081E492E044CF809112010E94792081E0A0
:1046700080936B0480936C0480912E030E94F51F3D
:104680008CE492E034CF80917E038A3020F480EA7B
:1046900091E00E94472080917E030E94792081E072
:1046A00080936B0480936C0480912E030E94F51F0D
:1046B0008CE592E01CCF80917D038A3020F480EA63
:1046C00091E00E94472080917D030E94792081E043
:1046D00080936B0480936C0480912E030E94F51FDD
:1046E00083E692E004CF80912001882381F08CE65C
:1046F00092E00E94392081E080936B0480936C04E7
:1047000080912E030E94F51F83E792E006CF80E799
:1047100092E0EFCF80912101082E000C990B0E94AE
:10472000492081E080936B0480936C0480912E0378
:104730000E94F51F85E892E00E94472080EF0E94CA
:10474000E40C87EF0E94E40C8BEA91E0D0CE0E944B
:104750003F341F920F920FB60F9211242F933F9365
:104760004F935F936F937F938F939F93AF93BF9379
:10477000EF93FF9388E893E00E945A06FF91EF9130
:10478000BF91AF919F918F917F916F915F914F9169
:104790003F912F910F900FBE0F901F9018951F9271
:1047A0000F920FB60F9211242F938F939F93EF9335
:1047B000FF93E0919803F09199038081E0919E032B
:1047C000F0919F0382FD1BC090818091A1038F5FB8
:1047D0008F732091A203821741F0E091A103F0E0D2
:1047E000E857FC4F958F8093A103FF91EF919F9124
:1047F0008F912F910F900FBE0F901F901895808171
:10480000F4CF1F920F920FB60F9211242F933F9364
:104810008F939F93AF93BF93809110039091110357
:10482000A0911203B091130330910F0323E0230FE3
:104830002D3758F50196A11DB11D20930F038093CC
:10484000100390931103A0931203B093130380916C
:10485000140390911503A0911603B09117030196CC
:10486000A11DB11D8093140390931503A09316030B
:10487000B0931703BF91AF919F918F913F912F916B
:104880000F900FBE0F901F90189526E8230F0296E9
:10489000A11DB11DD2CF1F920F920FB60F921124FE
:1048A0002F933F934F935F936F937F938F939F9338
:1048B000AF93BF93EF93FF938091B900887F8036C9
:1048C00009F44AC0F0F5883209F4A7C018F5803120
:1048D00009F49BC0B8F4882309F4F9C0883009F4BE
:1048E00094C0FF91EF91BF91AF919F918F917F9174
:1048F0006F915F914F913F912F910F900FBE0F904D
:104900001F901895883109F488C0803251F7809340
:10491000790314C0803409F49DC040F48033B9F3A6
:104920008833F9F68093790385ECB0C0803509F4BB
:1049300085C0883509F496C0883499F60E94D10F55
:10494000D0CF883909F48CC038F5883729F050F475
:10495000883611F0803729F683E080937B0310922C
:104960000E0357C0883809F47BC0803919F08038AD
:1049700009F0B7CF80910E03803208F071C0E0914A
:104980000E0381E08E0F80930E038091BB00F0E058
:10499000E251FD4F80833DC0803B39F0E0F4803A26
:1049A00009F479C0883A09F09CCF84E080937B03B6
:1049B0001092ED021092EC02E0913103F09132037B
:1049C00009958091EC0281110FC081E08093EC0287
:1049D0001092CC0209C0803C09F4A6CF883C09F4AF
:1049E000A3CF883B09F07DCFE091ED0281E08E0FEF
:1049F0008093ED02F0E0E453FD4F80818093BB0093
:104A00009091ED028091EC0229C080917603809311
:104A1000BB0085EC8093BC0064CF909178038091BB
:104A20007703981758F5E091780381E08E0F809313
:104A30007803F0E0EB5AFC4F8081E9CFE0917803F6
:104A400081E08E0F809378038091BB00F0E0EB5AF9
:104A5000FC4F808390917803809177039817C8F278
:104A600085E8D8CFE091780381E08E0F80937803BA
:104A70008091BB00F0E0EB5AFC4F808380917A0379
:104A800081115CCF81E08093750384EA8093BC0040
:104A900010927B0326CF85EC8093BC0010927B03A1
:104AA00080910E03803230F4E0910E03F0E0E25189
:104AB000FD4F108260910E0370E0E0912F03F091A2
:104AC00030038EEE92E0099510920E030ACF1092F9
:104AD000790334CF1F920F920FB60F9211242F93A8
:104AE0003F934F935F936F937F938F939F93AF9376
:104AF000BF93EF93FF9380912704909128040E9425
:104B00003F1CFF91EF91BF91AF919F918F917F914A
:104B10006F915F914F913F912F910F900FBE0F902A
:104B20001F9018951F920F920FB60F9211242F937A
:104B30003F934F935F936F937F938F939F93AF9325
:104B4000BF93EF93FF9380912504909126040E94D8
:104B50003F1CFF91EF91BF91AF919F918F917F91FA
:104B60006F915F914F913F912F910F900FBE0F90DA
:104B70001F901895CF92DF92EF92FF92CF93DF9321
:104B800010928B0310928A0398EEC92E93E0D92ECF
:104B9000E12CF12CC0928C03D0928D03E0928E0315
:104BA000F0928F0381E591E09093890380938803CD
:104BB00085EC90E0909395038093940384EC90E0CF
:104BC000909397038093960380EC90E090939903E1
:104BD0008093980381EC90E090939B0380939A03D9
:104BE00082EC90E090939D0380939C0386EC90E090
:104BF00090939F0380939E031092A1031092A203AF
:104C00001092A3031092A4030E94690710924E040D
:104C100010924D04C0924F04D0925004E09251047F
:104C2000F092520483E691E090934C0480934B04FD
:104C300080E58093BF0410929F0410929E0410920E
:104C4000A1041092A0041092A3041092A204109246
:104C5000A4041092A5041092A60480912E019091B4
:104C60002F01A09130018093A7049093A804A093F2
:104C7000A9041092AA041092AB041092AC041092F2
:104C8000AD041092AE041092AF041092B0041092D2
:104C9000B1041092B2041092B3041092B4041092B2
:104CA000B50480E892EBA6EEBEE08093B604909344
:104CB000B704A093B804B093B90462E082E00E9404
:104CC0009B0762E083E00E949B07E1EAFAE0E4913F
:104CD000F0E0EE0FFF1FEB56F54FA591B491B093A6
:104CE0009304A0939204E3E8FAE04491409396047D
:104CF000E2EAFAE0E491F0E0EE0FFF1FEB56F54F29
:104D0000C591D491D0939504C0939404E4E8FAE05B
:104D1000E491E09397041092990410929A041092EF
:104D20009B0410929C042BE33FE1C9010197F1F72A
:104D30009C91842F892391E009F490E08881E823F5
:104D400009F0926022E934E09093980430932604AD
:104D500020932504809169008C7F81608093690095
:104D6000E89AC1E0C0939D0430932804209327045F
:104D700080916900837F846080936900E99A82E072
:104D800080939D0410925A041092590420E830E058
:104D900030935C0420935B0480E290E090935E0487
:104DA00080935D043093600420935F0490936204C9
:104DB0008093610410926D04109264041092630455
:104DC0001092660410926504C0936C04C0936B0447
:104DD0008FEF9FEF90936A04809369049093680427
:104DE00080936704C0936E0410926F041092710454
:104DF0001092700485E791E09093580480935704D3
:104E00008BE494E09093750480937404109277047B
:104E1000109276048FEF80937B0480937C048093C0
:104E20007D0480937E0480937F0480E580938C04CE
:104E300010928D0480EA96E8A1E0B0E080938E04A1
:104E400090938F04A0939004B093910410927304F4
:104E50001092720460E08FE00E949B07E0E9FAE0A4
:104E6000E491E0933D04EEEAFAE0E491F0E0EE0F25
:104E7000FF1FEB56F54F8591949190933F048093DB
:104E80003E041092480410924A0410924904109271
:104E90004704109246041092450410924404109264
:104EA00043041092420410924104109240048DE396
:104EB00094E09093300480932F0410922D0410926C
:104EC0002E041092290489E080932A04C0932B04B5
:104ED000C0932C0410923C0410923B04DF91CF91BC
:104EE000FF90EF90DF90CF900895CF93DF93CDB7F1
:104EF000DEB760970FB6F894DEBF0FBECDBF7894D3
:104F000084B5826084BD84B5816084BD85B58260CE
:104F100085BD85B5816085BD80916E00816080937F
:104F20006E001092810080918100826080938100E8
:104F300080918100816080938100809180008160F8
:104F4000809380008091B10084608093B100809153
:104F5000B00081608093B00080917A00846080937B
:104F60007A0080917A00826080937A0080917A0042
:104F7000816080937A0080917A00806880937A00C3
:104F80001092C100E0919803F091990382E0808330
:104F9000E0919803F09199031082E0919403F091CD
:104FA00095031082E0919603F091970380E180834E
:104FB0001092A003E0919C03F0919D0386E0808312
:104FC000E0919A03F0919B03808180618083E0915E
:104FD0009A03F0919B03808188608083E0919A031B
:104FE000F0919B03808180688083E0919A03F09127
:104FF0009B0380818F7D808360E084E00E949B071B
:1050000060E080E10E949B07F8941092B00010923B
:10501000B1008091B00080648093B0008091B000B6
:1050200082608093B0008091B10086608093B1006F
:105030008DE38093B300789461E084E00E943B07A5
:1050400083E0809300018091760490917704892B0E
:1050500011F10E94872020915D0430915E048091BF
:105060005B0490915C04213231050CF0B4C0B901AD
:105070006052710977FF02C06F5F7F4F759567952A
:105080008357910997FD019600E210E023E730E095
:105090004CED55E0B3C020915D0430915E04C90130
:1050A000079697FD0796B3E095958795BA95E1F732
:1050B00020915B0430915C04AC01429FC001439F8E
:1050C000900D529F900D11240E941A3390937704F3
:1050D00080937604892B09F0BCCF0E9487200E9420
:1050E0000815E0912F04F09130041386158614867C
:1050F00012861186108617821682158214821382F8
:1051000010922D0410922E0401E0BE016F5F7F4FBC
:1051100080912F04909130040E94811C882309F40F
:1051200031C267E0CE0101960E9453089885891329
:10513000ECCF80912904811128C080912F04909197
:1051400030040E941009BE016F5F7F4F80912F04D1
:10515000909130040E94F10840E064EB80912F04AC
:10516000909130040E94BD0880912F0490913004EA
:105170000E946A08182F80912F04909130040E9499
:105180001009111102C00093290410912A04898189
:10519000803109F45FC7CE0101960E9494098117FE
:1051A00008F0DFC180912A0480932A0480912D04A5
:1051B0008F5F80932D048981883239F008F0DBC13C
:1051C000803119F0823209F0A0CF80912E048F5FD8
:1051D00080932E049ACFB9016054710977FF02C001
:1051E0006F5F7F4F759567958255910997FD019681
:1051F00000E410E022E530E04CEB57E09595879510
:105200000E94C30E82E0809379048091740490918F
:105210007504892B09F49AC08CE3809378040E946A
:10522000690780917F0487FD1EC061E00E949B0793
:1052300061E080917F040E943B0761E070E080E0C4
:1052400090E00E94140860E080917F040E943B0778
:105250006AE070E080E090E00E94140861E08091D4
:105260007F040E943B078091740490917504892B00
:1052700009F42BC18CE08093B80064E08EEC95E0DB
:105280000E94051460915D04615087E594E00E94DE
:10529000A81464E08AEC95E00E94051480917904DA
:1052A00060E1813009F064E187E594E00E94A81490
:1052B00064E086EC95E00E94051480915B04909177
:1052C0005C048038910509F02BC180915D049091B8
:1052D0005E048032910509F00FC164E082EC95E034
:1052E0000E94051469ED87E594E00E94A81480915E
:1052F000790462E2813009F061EF87E594E00E9471
:10530000A81466E086EB95E00E9405148091740471
:1053100090917504892B09F41AC120918E04309163
:105320008F04409190045091910460E074E284EF06
:1053300090E00E946730205131094109510956958A
:105340004795379527952093B800C7CE61E08091A7
:105350007D040E949B0761E080917E040E949B0770
:1053600080917D04082E000C990BFC01E156F54F4D
:10537000E491F0E0EE0FFF1FEE52FA4F25913491C9
:105380003093850420938404FC01EF57F54FE4919A
:10539000E0938A0480917E04082E000C990BFC0196
:1053A000E156F54FE491F0E0EE0FFF1FEE52FA4F99
:1053B000A591B491B0938704A0938604FC01EF57A4
:1053C000F54FE491E0938B048C91E82BEC93809162
:1053D000720490917304892B09F434C01FB7F894B8
:1053E00080911803811127C0E9EAFAE08491EBE883
:1053F000FAE09491E82FF0E0EE0FFF1FE455FA4F2A
:10540000A591B491EC91E92321F461E08AE00E9436
:105410003B0761E08AE00E949B078CB580618CBDF0
:105420008CB580648CBD61E08DE00E949B0761E0DB
:105430008BE00E949B07809118038F5F8093180375
:105440001FBFEFCE61E080917B040E949B0761E06B
:1054500080917C040E949B0780917B04082E000CA5
:10546000990BFC01E156F54FE491F0E0EE0FFF1FC0
:10547000EE52FA4F259134913093810420938004A9
:10548000FC01EF57F54FE491E093880480917C0490
:10549000082E000C990BFC01E156F54FE491F0E069
:1054A000EE0FFF1FEE52FA4FA591B491B093830413
:1054B000A0938204FC01EF57F54FE491E093890437
:1054C0008C91E095E823EC93ACCE8091720490919E
:1054D0007304892B31F080918C0490918D040E948B
:1054E0000515E0918604F0918704908180918B04EA
:1054F000809589238083C1CE8034910509F0F2CE56
:1055000063E08FEB95E00E940514809179046FE9C8
:10551000813009F06FEC87E594E00E94A814E2CE98
:105520008036910509F0DECE80915D0490915E0495
:10553000409709F0D7CE63E08CEB95E00E9405140C
:105540008091790460E1813031F36FEAE4CFE0913A
:105550008604F0918704808190918B04892B80834D
:10556000BCCD8981803111F48CE01ECECE01019634
:105570000E94940919CE8B3309F427CE823409F0A6
:10558000C4CD23CE1A82198242E050E0BE016F5F83
:105590007F4F90E080E00E94331F72E0E72EF12CF5
:1055A00010E000E0C7010E940C1F080F111D5FEF03
:1055B000E51AF50A84E1E816F104A1F70F5F1F4F21
:1055C00089819A810817190709F0D9C042E150E092
:1055D00060E171E082E090E00E94331F0E94501F62
:1055E0001092A7041092A8041092A90460E880E128
:1055F0000E946E1760E881E10E946E1760E882E108
:105600000E946E1780E896E3AEEBB6E28093240129
:1056100090932501A0932601B093270162E987EBBF
:105620000E946E170E944E1B0E94681B0E941C1C49
:105630000E942E1C0E94011D0E94491E0E9487206C
:105640001092640410926304109266041092650430
:1056500081E090E090936A048093690490936804D9
:105660008093670483E080936B0480936C0481E0F3
:1056700091E00E94392081E080936B0480936C0458
:1056800080E992E00E9439200E94081568EE73E0DC
:1056900080E090E00E9414080E94A72060E0262E7F
:1056A00060E0362E11E007E184E00E9412072091AD
:1056B0000801892B09F082C4222361F010920801AD
:1056C0000E9447086093190370931A0380931B0389
:1056D00090931C0380919D04823008F067C0F89479
:1056E00082E994E00E943F1C6091990470919A04B1
:1056F00080919B0490919C04789424E030E040E0F9
:1057000050E00E943D3069017A0180912001882398
:1057100041F0F094E094D094C094C11CD11CE11CE1
:10572000F11C80901F0390902003A0902103B09063
:1057300022038C149D04AE04BF0409F4DAC0E09186
:105740002E039FEF9E0F943010F410931E03E03150
:1057500008F0B9C0F0E0E155F44D0C946632D82B56
:10576000452D652D832D892DAD2DD12D3E2EAB2EB2
:10577000DA2E222F472F6D2F8B2FA72FB72F0E94A6
:10578000F31A2CCF10922E0338C48F5F843059F057
:1057900080932E0380912E03803108F447C484E067
:1057A00080932E0343C410922E03F4CFF8949CCF21
:1057B00040900A0150900B0160900C0170900D0117
:1057C000A0910F01B0E020EA36E841E050E00E94ED
:1057D0005C3069877A878B879C87A0910E01B0E047
:1057E0000E945C306D877E878F87988B8C149D0418
:1057F000AE04BF040CF019C189859A85AB85BC85C0
:1058000084159505A605B70550F1E0911001F0E06B
:10581000EE0FFF1FE95CFE4F20813181AAE0B0E06E
:105820000E9489304B015C01C301B201A5019401C2
:105830000E946730480C591C6A1C7B1C611571055D
:105840008105910521F0461A570A680A790A4092A3
:105850000A0150920B0160920C0170920D0180912F
:105860000A0190910B01A0910C01B0910D012D85C1
:105870003E854F85588982179307A407B50740F4E2
:1058800020930A0130930B0140930C0150930D01BA
:1058900080910A0190910B01A0910C01B0910D0132
:1058A00029853A854B855C85281739074A075B07A8
:1058B00040F420930A0130930B0140930C01509364
:1058C0000D010E94681B0E94470860932503709396
:1058D00026038093270390932803109324030E94A8
:1058E000A720C0921F03D0922003E0922103F092E0
:1058F000220381E10E94120720912D03892B09F4D4
:10590000A3C3211104C010932D030E94A7208091EE
:105910002D03882371F08091230381110AC08091A7
:105920002E038150833028F4239A10922E03109373
:10593000230380912D03811107C0809123038823C5
:1059400019F023981092230380912E03811161C0D6
:1059500080912D03882309F42AC324E630E0309394
:105960002301209322010E944708C0902903D09070
:105970002A03E0902B03F0902C03AB01BC014C19DF
:105980005D096E097F098091220190912301092E02
:10599000000CAA0BBB0B84179507A607B707C8F521
:1059A0000E944708C0902503D0902603E09027036B
:1059B000F09028036C197D098E099F0961317742A7
:1059C0008105910590F080912403882371F00E9455
:1059D00047086093250370932603809327039093D1
:1059E0002803109224030E94F31A0E941C1C0E9498
:1059F0002E1C0E94011D0E94491E0E94A7200E9489
:105A000047086093290370932A0380932B03909394
:105A10002C032114310409F447CE0E944606882342
:105A200009F440CE0E9400003DCEC814D904EA0417
:105A3000FB040CF014CF2D853E854F855889421606
:105A400053066406750608F40ACFE0911001F0E0F1
:105A5000EE0FFF1FE95CFE4F20813181AAE0B0E02C
:105A60000E9489304B015C01C301B201A501940180
:105A70000E946730611571058105910509F0E3CE3B
:105A8000481859086A087B08E2CE8091110190916C
:105A900012018C149D04AE04BF0474F4891718F429
:105AA0008F5F8093110180911101981710F49093EA
:105AB00011010E94501F05CFC814D904EA04FB0449
:105AC00094F7882381F38150ECCF809110018C14DE
:105AD0009D04AE04BF0474F4863018F48F5F809385
