:100000000C945C050C946C270C9444270C94840588
:100010000C9484050C9484050C9484050C94272579
:100020000C9484050C9484050C9484050C9484052C
:100030000C9484050C9484050C9484050C9484051C
:100040000C94DB250C9484050C94A9250C94832531
:100050000C9484050C9484050C9484050C948405FC
:100060000C9425260C948405000103070F1F3F7F85
:100070000080C0E0F0F8FCFE00000000003E5B4F96
:100080005B3E3E6B4F6B3E1C3E7C3E1C183C7E3CF8
:10009000181C577D571C1C5E7F5E1C00183C180006
:1000A000FFE7C3E7FF0018241800FFE7DBE7FF3096
:1000B000483A060E2629792926407F050507407F04
:1000C00005253F5A3CE73C5A7F3E1C1C08081C1C77
:1000D0003E7F14227F22145F5F005F5F06097F016D
:1000E0007F006689956A606060606094A2FFA29458
:1000F00008047E040810207E201008082A1C080826
:100100001C2A08081E101010100C1E0C1E0C303873
:100110003E3830060E3E0E06000000000000005F74
:1001200000000007000700147F147F14242A7F2A90
:100130001223130864623649562050000807030052
:10014000001C2241000041221C002A1C7F1C2A089E
:10015000083E080800807030000808080808000001
:1001600060600020100804023E5149453E00427F75
:10017000400072494949462141494D331814127FC4
:100180001027454545393C4A494931412111090764
:100190003649494936464949291E000014000000E5
:1001A00040340000000814224114141414140041B7
:1001B00022140802015909063E415D594E7C121174
:1001C000127C7F494949363E414141227F414141AC
:1001D0003E7F494949417F090909013E4141517327
:1001E0007F0808087F00417F41002040413F017F98
:1001F000081422417F404040407F021C027F7F0460
:1002000008107F3E4141413E7F090909063E4151A8
:10021000215E7F09192946264949493203017F0198
:10022000033F4040403F1F2040201F3F4038403F99
:10023000631408146303047804036159494D4300AF
:100240007F4141410204081020004141417F0402E6
:10025000010204404040404000030708002054547D
:1002600078407F284444383844444428384444285B
:100270007F385454541800087E090218A4A49C78AE
:100280007F0804047800447D40002040403D007F0A
:100290001028440000417F40007C047804787C08EA
:1002A0000404783844444438FC18242418182424BE
:1002B00018FC7C08040408485454542404043F44A3
:1002C000243C4040207C1C2040201C3C4030403CD2
:1002D00044281028444C9090907C4464544C440032
:1002E0000836410000007700000041360800020196
:1002F0000204023C2623263C1EA1A161123A404082
:10030000207A3854545559215555794122545478FE
:1003100042215554784020545579400C1E52721297
:100320003955555559395454545939555454580020
:1003300000457C410002457D420001457C407D1224
:1003400011127DF0282528F07C5455450020545486
:100350007C547C0A097F4932494949323A44444431
:100360003A324A4848303A4141217A3A424020786C
:10037000009DA0A07D3D4242423D3D4040403D3C6D
:1003800024FF2424487E4943662B2FFC2F2BFF0992
:1003900029F620C0887E0903205454794100004486
:1003A0007D413048484A32384040227A007A0A0A71
:1003B000727D0D19317D2629292F282629292926E4
:1003C00030484D4020380808080808080808382F29
:1003D00010C8ACBA2F102834FA00007B00000814B3
:1003E0002A142222142A14085500550055AA55AA89
:1003F00055AAFF55FF55FF000000FF00101010FF29
:1004000000141414FF001010FF00FF1010F010F083
:10041000141414FC001414F700FF0000FF00FF1474
:1004200014F404FC141417101F10101F101F1414C0
:10043000141F00101010F0000000001F101010100A
:100440001F10101010F010000000FF1010101010FE
:1004500010101010FF10000000FF140000FF00FF3C
:1004600000001F10170000FC04F4141417101714D8
:1004700014F404F40000FF00F714141414141414FA
:10048000F700F7141414171410101F101F1414146D
:10049000F4141010F010F000001F101F0000001FD7
:1004A00014000000FC140000F010F01010FF10FF0A
:1004B000141414FF141010101F00000000F010FF9F
:1004C000FFFFFFFFF0F0F0F0F0FFFFFF0000000083
:1004D00000FFFF0F0F0F0F0F3844443844FC4A4A07
:1004E0004A347E02020606027E027E0263554941BC
:1004F000633844443C04407E201E2006027E0202F3
:1005000099A5E7A5991C2A492A1C4C7201724C3006
:100510004A4D4D303048784830BC625A463D3E49DD
:100520004949007E0101017E2A2A2A2A2A44445F81
:10053000444440514A444040444A51400000FF0175
:1005400003E080FF000008086B6B08361236243683
:10055000060F090F060000181800000010100030E8
:1005600040FF0101001F01011E00191D1712003C70
:100570003C3C3C0000000000005EBCE2613FDD83CB
:10058000C29C7E20A3FD1F41009D23BE46DB65F873
:100590008C11AF32CA57E974000000080002010054
:1005A000000304070000000000000000000000003D
:1005B000240027002A00DB40A4A62EAFDA0281DA4D
:1005C0001281DA02818F2000A1C8D300408DAED500
:1005D00080A8000060000000000000000000000093
:1005E000000000E00000000000000000000000002B
:1005F0000001E0000000000000000000000000001A
:1006000001F00000000000000000000000000003F6
:10061000F00000000000000000000000000007F0F3
:100620000000000000000000000000000007F800CB
:100630000000000000000000000000000FF80000B3
:100640000003C0007E000001E0007F0FF800000002
:1006500003C000FE000001E000FFEFF8000000030F
:10066000C000FE000001E000FFFFF800000003C032
:1006700000F00000000F007FFE7FC0000003C000FC
:10068000F00000000F003FFE7FF83FF1FBCFFCFEC3
:10069000F3BC3DEFE01FFE7FFF7FFBFFDFFEFEFFB1
:1006A000BC3DEFE01FC6FFFF7FFBFFDFFEFEFFBC90
:1006B0003DEFE00FE3C7FE787BC3DE1EF0FFBC3DDD
:1006C000EF0007FF87FC787BC3DE1EF0F83C3DEFB0
:1006D0000001FFFFF0007BC3C01EF0F03C3DEF00C7
:1006E00001F37FE03FFBC3CFFEF0F03C3DEF0003A2
:1006F000E33F807FFBC3DFFEF0F03C3DEF0007E708
:100700003C00787BC3DE1EF0F03C3DEF0007FFBEEF
:1007100000787BC3DE1EF0F03C3DEF0007FFFE00DB
:10072000787BC3DE1EF0F03C3DEF000FFFFE007F44
:10073000FBFFDFFEF0F03FFDEFE00FFFFF007FFB70
:10074000FFDFFEF0F03FFDEFE00FF9FF003E79F92B
:10075000CF9EF0F01F3DE7E01FF1FF00000000001A
:10076000000000000000001F80FF007FFFFFFFFF70
:10077000FFFFFFFFFFE01C007F007FFFFFFFFEB4D5
:100780006D888D18E000001F007FFFFFFFFE95AD14
:100790007DB577E000000F007FFFFFFFFEA5AD9D58
:1007A0008D19E0000006007FFFFFFFFEB5ADEDB53F
:1007B0007EE000000000000180000000000000005A
:1007C0000000038000000000000000000007C000DF
:1007D000000000000000000007C000000000000052
:1007E0000000000FC00000000000000000001FE03B
:1007F0000000000000000000001FE00000000000FA
:10080000000000003FE00000000000000000003F8A
:10081000F00000000000000000007FF00000000079
:100820000000001FF87FF0000000000000003FFE05
:100830007FF0000000000000003FFF7FF00000009C
:10084000000000001FFFFBE0000000000000000FA0
:10085000FFF9FFC00000000000000FFFF9FFF800E3
:10086000000000000007FFF1FFFF00000000000093
:1008700003FC73FFFF80000000000001FE3FFFFF4C
:1008800080000000000000FF1E0FFF0000000000BD
:1008900000007FFE1FFC000000000000003FFFFF83
:1008A000F8000000000000000FDFFFE00000000083
:1008B0000000001F19FFC0000000000000003F3CC6
:1008C000FF00000000000000007E7CF80000000037
:1008D000000000007FFE7C0000000000000000FF20
:1008E000FFFC0000000000000000FFFFFE00000011
:1008F0000000000000FFFFFE0000000000000001FB
:10090000FFEFFE0000000000000001FFCFFE00002E
:10091000000000000003FF07FE00000000000000D0
:1009200003FC07FE0000000000000003F003FE00CF
:10093000000000000000018000FE00000000000038
:10094000000000007E000000000000000000003EEB
:10095000000000000000000000000C00000000008B
:1009600000078000FC000003C0000000078001FCBD
:10097000000003C0000000078001FC000003C0006D
:100980000000078001E00000001E00000007800159
:10099000E00000001E007FE3F79FF9FDE7787BDFB2
:1009A000C0FFF7FFBFFDFDFF787BDFC0FFF7FFBF94
:1009B000FDFDFF787BDFC0F0F787BC3DE1FF787B72
:1009C000DE00F0F787BC3DE1F0787BDE0000F787C2
:1009D000803DE1E0787BDE007FF7879FFDE1E078F6
:1009E0007BDE00FFF787BFFDE1E0787BDE00F0F7FC
:1009F00087BC3DE1E0787BDE00F0F787BC3DE1E0BD
:100A0000787BDE00F0F787BC3DE1E0787BDE00FF1D
:100A1000F7FFBFFDE1E07FFBDFC0FFF7FFBFFDE1B8
:100A2000E07FFBDFC07CF3F39F3DE1E03E7BCFC086
:100A30000000000000000000000000FFFFFFFFFFBB
:100A4000FFFFFFFFFFC0FFFFFFFFFD68DB111A3153
:100A5000C0FFFFFFFFFD2B5AFB6AEFC0FFFFFFFF48
:100A6000FD4B5B3B1A33C0FFFFFFFFFD6B5BDB6A97
:100A7000FDC000000000250028002B00022200FF1E
:100A80002100010204081020408001020408102007
:100A900001020408102000000000230026002900A5
:100AA0000404040404040404020202020202030314
:100AB000030303039427053311241FBECFEFD8E0AF
:100AC000DEBFCDBF12E0A0E0B1E0EEE5FEE602C081
:100AD00005900D92A03AB107D9F724E0A0EAB2E060
:100AE00001C01D92AB3DB207E1F715E0CBE5D5E0C3
:100AF00004C02197FE010E943D35CA35D107C9F7D0
:100B00000E9463290C9422370C94000008950895E4
:100B100091E090939603809395031092390410927C
:100B20003804089580913A0490913B04891B990BF5
:100B300008950895AF92BF92CF92DF92EF92FF9205
:100B40000F931F93CF93DF936C017B018B01040FF5
:100B5000151FEB015E01AE18BF08C017D10759F091
:100B60006991D601ED91FC910190F081E02DC601D3
:100B70000995892B79F7C501DF91CF911F910F91CD
:100B8000FF90EF90DF90CF90BF90AF900895FC0161
:100B9000538D448D252F30E0842F90E0821B930BE2
:100BA000541710F0CF96089501970895FC01918D88
:100BB000828D981761F0A28DAE0FBF2FB11D5D968B
:100BC0008C91928D9F5F9F73928F90E008958FEF2D
:100BD0009FEF0895FC01918D828D981731F0828DE1
:100BE000E80FF11D858D90E008958FEF9FEF089538
:100BF000FC01918D228D892F90E0805C9F4F821B9C
:100C000091098F739927089587E993E00E94F80569
:100C100021E0892B09F420E0822F089580E090E004
:100C2000892B29F00E94040681110C94000008957C
:100C3000FC01A48DA80FB92FB11DA35ABF4F2C9151
:100C4000848D90E001968F739927848FA689B78948
:100C50002C93A089B1898C91837080648C93938D3F
:100C6000848D981306C00288F389E02D80818F7DE2
:100C700080830895EF92FF920F931F93CF93DF939A
:100C8000EC0181E0888F9B8D8C8D98131AC0E889C8
:100C9000F989808185FF15C09FB7F894EE89FF8997
:100CA0006083E889F98980818370806480839FBF35
:100CB00081E090E0DF91CF911F910F91FF90EF9035
:100CC0000895F62E0B8D10E00F5F1F4F0F73112745
:100CD000E02E8C8D8E110CC00FB607FCFACFE88980
:100CE000F989808185FFF5CFCE010E941806F1CFEA
:100CF000EB8DEC0FFD2FF11DE35AFF4FF0829FB7F4
:100D0000F8940B8FEA89FB8980818062CFCFCF93E3
:100D1000DF93EC01888D8823B9F0AA89BB89E88923
:100D2000F9898C9185FD03C0808186FD0DC00FB6C9
:100D300007FCF7CF8C9185FFF2CF808185FFEDCF47
:100D4000CE010E941806E9CFDF91CF91089583303C
:100D500081F028F4813099F08230A9F0089587302D
:100D6000A9F08830C9F08430B1F4809180008F7D83
:100D700003C0809180008F7780938000089584B5B0
:100D80008F7784BD089584B58F7DFBCF8091B000AF
:100D90008F778093B00008958091B0008F7DF9CF58
:100DA000CF93DF93282F30E0F901E856FA4F849172
:100DB000F901EE57F54FD491F901E056F54FC49182
:100DC000CC23A1F081110E94A706EC2FF0E0EE0FDA
:100DD000FF1FEA56F54FA591B491EC91ED2381E008
:100DE00090E009F480E0DF91CF91089580E090E0F9
:100DF000FACF1F93CF93DF93282F30E0F901E85605
:100E0000FA4F8491F901EE57F54FD491F901E0566C
:100E1000F54FC491CC23A9F0162F81110E94A7068B
:100E2000EC2FF0E0EE0FFF1FEE58F54FA591B491B7
:100E30008FB7F894EC91111108C0D095DE23DC93A4
:100E40008FBFDF91CF911F910895DE2BF8CF909146
:100E5000220189130BC0ECE7FAE0E4919FEF909335
:100E60002201E13049F028F0E23061F060E00C94BA
:100E7000F90610926E00FACF90916F009D7F9093CB
:100E80006F00F4CF909170009D7F9093700091E07F
:100E90009093B0009091B100987F94609093B100CE
:100EA0001092B300E3CFCF93DF9390E0FC01EE57B5
:100EB000F54F24918056954FFC0184918823C9F009
:100EC00090E0880F991FFC01E455FA4FA591B49169
:100ED000FC01EE58F54FC591D49161110DC09FB73B
:100EE000F8948C91209582238C93888128232883E1
:100EF0009FBFDF91CF910895623051F49FB7F8946E
:100F00003C91822F809583238C93E8812E2BEFCF09
:100F10008FB7F894EC912E2B2C938FBFEACF2091B2
:100F2000000190E4299F900111248E50822B809320
:100F30007C0080917A00806480937A0080917A00AE
:100F400086FDFCCF809178009091790008953FB79D
:100F5000F8948091150390911603A0911703B09116
:100F6000180326B5A89B05C02F3F19F00196A11DB7
:100F7000B11D3FBFBA2FA92F982F8827BC01CD01E3
:100F8000620F711D811D911D42E0660F771F881F42
:100F9000991F4A95D1F708958F929F92AF92BF9271
:100FA000CF92DF92EF92FF926B017C010E94A70724
:100FB0004B015C01C114D104E104F104B9F00E94B9
:100FC000A707681979098A099B09683E734081055A
:100FD000910580F321E0C21AD108E108F10888EEFA
:100FE000880E83E0981EA11CB11CE4CFFF90EF9007
:100FF000DF90CF90BF90AF909F908F9008952FB7C4
:10100000F8946091110370911203809113039091F1
:1010100014032FBF0895DC0180E0615090F09D9192
:101020009827E92FEF70F0E0E858FA4F2491E92F64
:10103000E295EF70F0E0E857FA4FE491822F8E27A7
:10104000ECCF0895DC012C911196ED91FC91F89470
:101050008181822B81839281322F309593239283D9
:1010600087E090E00197F1F781818323818383E218
:1010700090E00197F1F790817894EFECF0E03197F0
:10108000F1F7922381E009F480E00895FC0190815A
:101090000180F281E02D292F209560FF14C0F89483
:1010A0008281822382838181892B8183A3E2B0E0C4
:1010B0001197F1F78281982B9283789487ED90E0D5
:1010C0000197F1F70895F8948281822382838181C8
:1010D000892B8183AFEFB0E01197F1F78281982BD4
:1010E000928378948FE090E0EBCFDF92EF92FF92C3
:1010F0000F931F93CF93DF93EC01D62EE42E08E0DD
:1011000010E0FF24F39461E08D2D8F2109F460E05D
:10111000CE010E944608FF0C01501109A1F7E11011
:1011200010C0F894E981FA819181888180958923A2
:101130008183E981FA8192818881809589238283E4
:101140007894DF91CF911F910F91FF90EF90DF90F6
:101150000895EF92FF920F931F93CF93DF938C012B
:101160007B0140E065E50E947508E70188E0E80E34
:10117000F11C699140E0C8010E947508CE15DF0599
:10118000C1F7DF91CF911F910F91FF90EF900895DC
:10119000FC0190810180F281E02DF8948181292F5A
:1011A00020958223818378943DE743E050E03150DD
:1011B00029F1DA011197F1F780818923C1F3F894BD
:1011C0008281822382838181892B81837894ABE71A
:1011D000B7E01197F1F7F894818182238183A3E12D
:1011E000B1E01197F1F78081982381E009F080E068
:1011F0007894E3E6F6E03197F1F7089580E00895FA
:10120000AF92BF92CF92DF92EF92FF920F931F9314
:10121000CF93DF938B01BC018091460490914704EA
:101220000E94A90840E06EEB80914604909147042B
:101230000E947508E801680189E0C80ED11CA090E1
:101240004604B090470488E0E82EF12C10E001E05D
:10125000C5010E9422088111102B000F81E0E81ABD
:10126000F108B1F71993CC16DD0649F780914604D1
:10127000909147040E94C80891E0813009F090E005
:10128000892FDF91CF911F910F91FF90EF90DF9009
:10129000CF90BF90AF9008950F931F93CF93DF939C
:1012A000CDB7DEB729970FB6F894DEBF0FBECDBF1E
:1012B0008C0180914604909147040E94C8088111D6
:1012C00002C080E01FC0BE016F5F7F4FC8010E9457
:1012D00000098823B1F368E0CE0101960E940B0853
:1012E00099858913EECF8D818F33B9F020F48F313A
:1012F00041F789E007C08F3521F08F3711F78CE077
:1013000001C08BE029960FB6F894DEBF0FBECDBFAB
:10131000DF91CF911F910F9108958AE0F3CF089547
:10132000FC016370668B84819581268137816130F1
:1013300039F0633029F091878087338722870895B9
:10134000318720879387828708952F923F924F920B
:101350005F926F927F928F929F92AF92BF92CF9245
:10136000DF92EF92FF920F931F93CF93DF93CDB74E
:10137000DEB76A970FB6F894DEBF0FBECDBF9A8F67
:10138000898F7A8369834A01D22E18870F833701A8
:10139000BC2CDC0159962D913C915A9721153105B1
:1013A00009F015C118968D919C91199768177907C6
:1013B0000CF0D7C11A968D919C91481759070CF0E3
:1013C000D0C14C2C512CB6E0CB9E600D711D112468
:1013D0007C876B87161617060CF0C3C1EA2DF0E068
:1013E000FA87E98793E0EE0FFF1F9A95E1F7F88BF4
:1013F000EF87CF01840F951F181619060CF0B1C1A5
:10140000A98DBA8D58968C91811104C0BFEABD1583
:1014100008F4D394A98DBA8DED91FC9111970284B3
:10142000F385E02DCD010995B5E0DB9EC0011124C7
:10143000E981FA81FC83EB83312C212C9C01285813
:101440003F4F388F2F8B4A2D50E05E8B4D8BEF89AD
:10145000F88DE20DF31D44919E828D82D12CC12C1A
:1014600069817A81620D731D7A8B698B842F90E07C
:101470009C8B8B8BE98DFA8DA081B18140FF82C05E
:10148000F1E0BF126FC0AF126DC01C96ED91FC91E0
:101490002F813885A4014C0D5D1D69897A89898D5C
:1014A0009A8D0995EB89FC89F595E7954E2F5FEFAD
:1014B000C51AD50A6D817E818D899E89680F791F35
:1014C0007E836D8398E0C916D10481F6AFEF2A1AA6
:1014D0003A0AEB81FC81E40DF51DFC83EB83F5E01A
:1014E0002F16310409F0B3CF2F8138852615370523
:1014F000B9F0A98DBA8DED91FC91B1E0BB1257C046
:10150000AB1255C069817A816B5F7F4F0088F1898A
:10151000E02D830128E030E0A401898D9A8D0995A2
:10152000A98DBA8DED91FC9111970688F789E02D70
:10153000CD016A960FB6F894DEBF0FBECDBFDF9126
:10154000CF911F910F91FF90EF90DF90CF90BF90C0
:10155000AF909F908F907F906F905F904F903F9053
:101560002F9009941E96ED91FC91EF80F8840985E7
:101570001A8592014D815E816B817C81898D9A8D66
:10158000099590CF2F8138852615370509F48ACF24
:1015900031E0B31207C0A31205C01C96ED91FC9177
:1015A000930178CF1E96ED91FC917301E0CF6B858E
:1015B0007C85641975090684F785E02D73010F8514
:1015C00018899201A401898D9A8D0995A9CFF901F5
:1015D00034969491329745915491D91AB7E0DB9E95
:1015E000400D511D1124F901259134913C8B2B8B19
:1015F000FA0125903490FA01329674903196349124
:10160000398B329664903196449041E04C1518F035
:101610004A1508F07FC0662D062C000C770B7C83E2
:101620006B83842D042C000C990B9E838D83A98DD4
:10163000BA8DED91FC9111970284F385E02DCD01D7
:101640000995512CD12CC12CEA2DF0E0FA87E987BD
:101650002B2D30E03C872B87A401440D511D47FC06
:101660005A95588F4F8B69817A81660D711D67FC81
:101670007A957E876D877989C71608F051CF2C2D12
:1016800030E04D815E81420F531FA985BA854A9F84
:10169000C0014B9F900D5A9F900D1124FC01E80D45
:1016A000F91DF88BEF87852D612C4F89588D420FDE
:1016B000531F5E8B4D8B671408F050C04424439435
:1016C000480E877041F4C1010196EB89FC89E20D57
:1016D000F31DD4901C01D7FE19C0A98DBA8DED91D0
:1016E000FC91662D70E0B1E0BB1219C0AB1217C0BF
:1016F0002D853E85620F731F0484F585E02D2F81B3
:1017000038854D895E89898D9A8D0995DD0C6394A4
:10171000842DD1CF1E821D821C821B8288CF4B81DB
:101720005C81640F751FAB85BC856A9FC0016B9F90
:10173000900D7A9F900D112469817A81680F791F2D
:101740000684F785E02DEF80F88409851A859D01D0
:101750004F855889898D9A8D0995D8CF570CC39498
:101760008ACF6A960FB6F894DEBF0FBECDBFDF9169
:10177000CF911F910F91FF90EF90DF90CF90BF908E
:10178000AF909F908F907F906F905F904F903F9021
:101790002F9008958F929F92AF92CF92EF92FF92E7
:1017A0000F931F93CF93DF93EC01262F898D9A8D92
:1017B000009709F051C06A30D1F41D861C868D89CE
:1017C00048E0849F900111248E859F85820F931F8E
:1017D0009F878E8781E090E0DF91CF911F910F91DD
:1017E000FF90EF90CF90AF909F908F9008956D30C5
:1017F00089F3CC88AD888F898823C1F08C859D853D
:1018000036E0C39E800D911D1124488559854817E7
:10181000590764F44E855F851D861C8638E0A39EBB
:10182000C0011124840F951F9F878E87EA88FB884B
:10183000088919894E855F856C857D85CE010E945A
:10184000A5092C898C859D8546E0249F800D911DDE
:1018500011249D878C87BECF6A3069F41D861C8653
:10186000FC013896E4912D898E859F85E29F800D3D
:10187000911D1124ADCF6D3009F4ACCFFC0134962D
:101880003491631708F4A6CF3296E491E61708F472
:10189000A1CFFC01329685909490462F431B342FA4
:1018A00047E0349F800C911C1124F401329634914E
:1018B0003196E4913323A9F1EE2399F1CC88F40118
:1018C0003596E491AD884F89442301F10E2E000C2A
:1018D000FF0BE30FF11DCE9EA001CF9E500D1124F2
:1018E0006C857D85460F571F688579856417750758
:1018F0006CF44E855F851D861C86FC013896E4914C
:10190000AE9E400D511D11245F874E87EA88FB88EB
:10191000088919894E855F856C857D85CE010E9479
:10192000A509F4013496E4912C898C859D85E29F6C
:10193000800D911D11248DCF682F8EE694E00C94BC
:10194000CA0B6F927F928F929F92AF92BF92CF926B
:10195000DF92EF92FF920F931F93CF93DF93EC01EF
:101960006B015A0139014801E881F9810284F3854C
:10197000E02D0995E881F9810288F389E02D87013E
:101980009301A501B601CE010995A501480D591D88
:1019900041505109E881F9810288F389E02D9301D2
:1019A000B601CE010995E881F9810088F189E02D21
:1019B0009401A501B601CE010995C60CD71CB6014C
:1019C00061507109E881F9810088F189E02D940165
:1019D000A501CE010995E881F9810688F789E02DF6
:1019E000CE01DF91CF911F910F91FF90EF90DF908B
:1019F000CF90BF90AF909F908F907F906F90099401
:101A00006F927F928F929F92AF92BF92CF92DF920E
:101A1000EF92FF920F931F93CF93DF935C01EB0143
:101A20006A01490138018701DC01ED91FC916217DF
:101A3000730719F5641675062CF0962D872D3A015B
:101A4000C92ED82E9601261937092F5F3F4F048CD7
:101A5000F58DE02DA301BE01C5010995DF91CF9160
:101A60001F910F91FF90EF90DF90CF90BF90AF90BC
:101A70009F908F907F906F9008954615570591F431
:101A80002617370724F0892D4B01C22FD82F9E012E
:101A9000281939092F5F3F4F068CF78DE02DA601DD
:101AA000B401DACF0284F385E02D0995D501ED91DB
:101AB000FC910488F589E02D83019401A601BE0103
:101AC000C5010995D501ED91FC910688F789E02DB6
:101AD000C501DF91CF911F910F91FF90EF90DF90A3
:101AE000CF90BF90AF909F908F907F906F90099410
:101AF000EF92FF920F931F93DC011A960D911C91A8
:101B00001B9718962D913C911997ED91FC9100A08F
:101B1000F1A1E02D7B0150E040E070E060E009952C
:101B20001F910F91FF90EF9008954F925F926F92E7
:101B30007F928F929F92AF92BF92CF92DF92EF925D
:101B4000FF920F931F93CF93DF936C012B015A01E8
:101B500039014801DC01ED91FC910284F385E02D0F
:101B60000995E201640C751CD601ED91FC91C61536
:101B7000D7055CF40088F189E02D87019401A50167
:101B8000BE01C60109952196EFCF0688F789E02DA1
:101B9000C601DF91CF911F910F91FF90EF90DF90E1
:101BA000CF90BF90AF909F908F907F906F905F90FD
:101BB0004F9009948F929F92AF92BF92CF92DF92F3
:101BC000EF92FF920F931F93CF93DF93EC015B0192
:101BD0004A016901E881F9810284F385E02D0995C4
:101BE00095012C0D3D1D21503109E881F9810488B2
:101BF000F589E02D78018401A401B501CE01099594
:101C0000E881F9810688F789E02DCE01DF91CF9137
:101C10001F910F91FF90EF90DF90CF90BF90AF900A
:101C20009F908F9009948F929F92AF92BF92CF9284
:101C3000DF92EF92FF920F931F93CF93DF93EC010C
:101C40005B014A0169017801E881F9810284F38529
:101C5000E02D0995C80CD91C860101501109E881B5
:101C6000F9810488F589E02D9501A401B501CE0123
:101C70000995E881F9810688F789E02DCE01DF9189
:101C8000CF911F910F91FF90EF90DF90CF90BF9079
:101C9000AF909F908F900994EF92FF920F931F93B4
:101CA000DC01ED91FC9100A0F1A1E02D09951F91BF
:101CB0000F91FF90EF9008950F931F93DC01ED912A
:101CC000FC91068CF78DE02D09951F910F910895D9
:101CD0000F931F93DC01ED91FC91048CF58DE02DA9
:101CE00009951F910F910895DC01ED91FC910084FD
:101CF000F185E02D09943F924F925F926F927F920F
:101D00008F929F92AF92BF92CF92DF92EF92FF920B
:101D10000F931F93CF93DF935C017B014A0169010D
:101D2000390187E0680E711C93E0759467949A9569
:101D3000E1F72B01400E511E10E000E0312CD0E005
:101D4000C0E0CE0187709927330C892B59F4FE012E
:101D500083E0F595E7958A95E1F7E00FF11FE80D2F
:101D6000F91D349037FE0AC021E030E0A701B5012B
:101D70006C0F7D1F8EE694E00E94740E2196CC16A7
:101D8000DD06F9F68FEFE81AF80A060D171DE414C0
:101D9000F504A9F6DF91CF911F910F91FF90EF907D
:101DA000DF90CF90BF90AF909F908F907F906F907B
:101DB0005F904F903F9008952F923F924F925F9285
:101DC0006F927F928F929F92AF92BF92CF92DF924B
:101DD000EF92FF920F931F93CF93DF9300D000D029
:101DE00000D0CDB7DEB73C016A013E832D83FC8273
:101DF000EB825801A41AB50AB7FE03C0B194A194AE
:101E0000B1088D809E80861A970A97FE03C0919430
:101E1000819491088A149B045CF0902F812F0D818E
:101E20001E819D838E839C2D8D2D6B01692F782FB4
:101E30000C151D055CF09D818E817E836D83692F5D
:101E4000782F902F812F8601C92ED82E1601201AA7
:101E5000310A2B012D813E81421A530A57FE03C0DD
:101E6000519441945108710137FE03C03FEFE31ACA
:101E7000F30AF594E7948D819E81861797075CF5A8
:101E8000A1E0B0E0BA83A983C016D1064CF1D3011A
:101E9000ED91FC910484F585E02D2B813C81A80116
:101EA0006D817E818A149B041CF04D815E81B80196
:101EB000C3010995E418F508F7FE0AC02D813E819B
:101EC00089819A81280F391F3E832D83E20CF31CF0
:101ED0000F5F1F4FD9CF2FEF3FEF3A832983D4CF26
:101EE00026960FB6F894DEBF0FBECDBFDF91CF911F
:101EF0001F910F91FF90EF90DF90CF90BF90AF9028
:101F00009F908F907F906F905F904F903F902F9019
:101F100008952091ED02260F3327331F213231051A
:101F2000ECF420918703FC0190E080E0243069F01C
:101F300082E00895A091ED022191AC0143535D4FE1
:101F4000A40FB52FB11D2C930196861798F380919D
:101F5000ED02680F6093ED0280E0089581E008953E
:101F60001092870381E0809366031092610361E021
:101F700082E10E94F90661E083E10E94F906E9EB43
:101F8000F0E080818E7F808380818D7F808388E4F4
:101F90008093B80085E48093BC000895CF93DF93CD
:101FA00091E09093CC028823B9F0C091B800D09111
:101FB000BA008091BC008A7B8093BC0060E082E123
:101FC0000E94F90660E083E10E94F9060E94B00FCA
:101FD000D093BA00C093B800DF91CF910895CF920B
:101FE000DF92EF92FF920F931F93CF93DF93D82F3F
:101FF000C62F613208F098C00E94A7076B017C01D0
:102000008091870381116BC081E080938703809367
:1020100066039FEF90936503109264039C0F909367
:1020200063038093620380916203DD0FD82BD0930A
:10203000620380916103813009F078C010926103DE
:102040000E94A7076B017C01809162038093BB0013
:102050008091890390918A03A0918B03B0918C03A6
:10206000892B8A2B8B2BA1F00E94A7070091890353
:1020700010918A0320918B0330918C036C197D0998
:102080008E099F09061717072807390708F448C063
:102090008091BC0083FDD8CF85EC8093BC000E946A
:1020A000A7076B017C0180918703813009F440C050
:1020B000809164038C1710F4C0916403E1E4F3E0B1
:1020C000A7E6B3E080E08C1355C08C2FDF91CF9151
:1020D0001F910F91FF90EF90DF90CF900895809126
:1020E000890390918A03A0918B03B0918C03892B73
:1020F0008A2B8B2B09F484CF0E94A70700918903B8
:1021000010918A0320918B0330918C036C197D0907
:102110008E099F09061717072807390708F070CF9F
:10212000809188030E94CE0FC0E0CFCF85EEB5CF5F
:102130008091890390918A03A0918B03B0918C03C5
:10214000892B8A2B8B2B09F4AECF0E94A707009115
:10215000890310918A0320918B0330918C036C19B1
:102160007D098E099F09061717072807390708F008
:102170009ACFD6CF91919D938F5FA5CFE0913B04ED
:1021800080913A04E81730F4F0E0E959FC4F80817F
:1021900090E008958FEF9FEF089590913B04809118
:1021A0003A042FEF3FEF981748F4E92FF0E0E95990
:1021B000FC4F208130E09F5F90933B04C90108955C
:1021C000CF92DF92EF92FF920F931F93CF93DF9303
:1021D0007C01CB018A0120919603222389F0EB0137
:1021E0006B01C40ED51ECC15DD0569F06991D701D0
:1021F000ED91FC910190F081E02DC7010995F3CF9D
:10220000642F0E94890FC801DF91CF911F910F9118
:10221000FF90EF90DF90CF900895CF93DF931F92C0
:10222000CDB7DEB76983209196032223F9F0209180
:102230003804203258F021E030E0FC01338322835F
:1022400090E080E00F90DF91CF9108958091390464
:10225000E82FF0E0E455FD4F998190838F5F8093E4
:1022600039048093380481E090E0ECCF61E0CE0146
:1022700001960E94890FF7CF682F82E694E00C94B4
:102280000D11CF92DF92EF92FF920F931F93CF9396
:10229000DF93D091380481E0D13208F09CC0C09126
:1022A00095030E94A7076B017C0180918703811130
:1022B0006CC082E08093870381E0809366038FEF98
:1022C0008093650310926403D0936303ACEAB2E099
:1022D000E1E4F3E080E0D8138DC0109262038091B6
:1022E0006203CC0FC82BC0936203809161038130DD
:1022F00009F084C0109261030E94A7076B017C0162
:10230000809162038093BB008091890390918A033E
:10231000A0918B03B0918C03892B8A2B8B2BA1F07E
:102320000E94A7070091890310918A0320918B03D3
:1023300030918C036C197D098E099F0906171707C8
:102340002807390708F442C08091BC0083FDD8CF2C
:1023500085EC8093BC000E94A7076B017C018091F3
:102360008703823009F44CC0809165038F3F09F4E4
:1023700069C080916503803209F466C0809165036D
:10238000803309F463C084E026C080918903909172
:102390008A03A0918B03B0918C03892B8A2B8B2B02
:1023A00009F483CF0E94A7070091890310918A0343
:1023B00020918B0330918C036C197D098E099F0944
:1023C000061717072807390708F06FCF8091880391
:1023D0000E94CE0F85E010923904109238041092BA
:1023E0009603DF91CF911F910F91FF90EF90DF90B7
:1023F000CF9008959D9191938F5F6DCF85EEA9CF7A
:102400008091890390918A03A0918B03B0918C03F2
:10241000892B8A2B8B2B09F4A2CF0E94A70700914E
:10242000890310918A0320918B0330918C036C19DE
:102430007D098E099F09061717072807390708F035
:102440008ECFC4CF80E0C7CF82E0C5CF83E0C3CFBB
:10245000CF9388E60E94880560E082E694E00E94BF
:102460000D1160E882E694E00E940D1180918E03C8
:10247000CAE06C2F0E941D358295807F682F690FFE
:1024800082E694E00E940D1180918F036C2F0E94D0
:102490001D358295807F682F690F82E694E00E9447
:1024A0000D11809190036C2F0E941D358295807FC5
:1024B000682F690F82E694E00E940D1180919103CC
:1024C0006C2F0E941D358295807F682F690F82E6F0
:1024D00094E00E940D11809192036C2F0E941D3593
:1024E0008295807F682F690F82E694E00E940D112B
:1024F000809193038E516C2F0E941D358295807FB1
:10250000682F690F82E694E00E940D1182E694E044
:102510000E944111882329F01092940380E0CF910A
:10252000089581E08093940388E60E94880560E026
:1025300082E694E00E940D1180918D036C2F0E9421
:102540001D358295807F682F690F82E694E00E9496
:102550000D1182E694E00E9441118111DDCF81E0EE
:10256000DECFAF92BF92DF92EF92FF920F931F9355
:10257000CF93DF938B01040F151FEB015C01A61AAB
:10258000B70A7501EC0EFD1ED9908091D6040E9409
:1025900088058F2D90E00E943C11C70199270E9469
:1025A0003C116D2D82E694E00E940D1182E694E0CC
:1025B0000E9441116AE070E080E090E00E94CC0748
:1025C000C017D107F1F6DF91CF911F910F91FF90C6
:1025D000EF90DF90BF90AF900895EF92FF920F932E
:1025E0001F93CF93DF93EC01EC80FD806E157F0588
:1025F0000CF070C057FF04C0240F351F50E040E0BE
:102600008E819F81FA01E20FF31F8E179F071CF442
:102610009C01241B350B121613060CF05BC0922F85
:10262000842F8695869586958E9DD0018F9DB00DC1
:1026300011246A0F7B1FAF8DB8A1A60FB71F47707B
:1026400049F188E0841B482F682F70E0FB01E059B6
:10265000FF4FE491281708F063C0621B71092FEF48
:1026600030E002C0359527956A95E2F7E223013004
:10267000110539F0B0F10230110561F58C91E827B0
:1026800002C08C91E82BEC93941720F12C813D81B2
:10269000A20FB31FE92FE41BE83078F002301105D8
:1026A00021F58E2F9C9190959C932C813D81A20FBA
:1026B000B31F88508830B0F7E770EE2359F0F0E090
:1026C000E859FF4FE49101301105F9F010F10230A3
:1026D000110519F1DF91CF911F910F91FF90EF90AC
:1026E0000895E0958C91E823CECF81E00115110586
:1026F00009F480E081959E2F8C932C813D81A20F5F
:10270000B31F98509830C0F7D7CF8C91E82BEC933B
:10271000E1CFE0958C91E823FACF8C91E827F7CFB1
:102720000130110509F4ADCFE0F20230110509F4D2
:10273000A5CFAE0DBF1DAECF0F931F93CF93DF93E9
:1027400077FF04C0260F371F70E060E0DC011496AD
:10275000CD91DC91FB01E20FF31FCE17DF071CF4D4
:102760009E01261B370B121613064CF5FA0157FD76
:102770003796A3E0F595E795AA95E1F7EC9FD00190
:10278000ED9FB00DFC9FB00D11246A0F7B1FDC0183
:102790005F96ED91FC91E60FF71F4770552781E09A
:1027A00090E001C0880F4A95EAF7482F01301105E3
:1027B00059F0A8F02E0F3F1F02301105E1F0DF9114
:1027C000CF911F910F9108952E0F3F1FE217F3072E
:1027D000B1F38191DF011197842B8C93F7CF809512
:1027E0002E0F3F1FE217F30751F39191DF0111976D
:1027F00098239C93F7CFE217F30709F38191DF0148
:10280000119784278C93F7CF0F931F93FA01DC0164
:1028100056964C9156974230E9F04330A1F1413041
:1028200061F514964D915C91DA01AE1BBF0BFD0171
:10283000E21BF30B77FD0BC0DC0116964D915C910A
:102840006417750724F4AB01BF010E949C131F910C
:102850000F91089514964D915C91DA01A61BB70B68
:10286000BD0161507109DC0116964D915C91DA0150
:10287000AE1BBF0BFD01E21BF30B77FDE8CFAF01F1
:102880000E94ED12E4CF16964D915C91DA01A61BE1
:10289000B70BBD0161507109CDCF0F931F93FA01A2
:1028A000DC0156964C9156974230A9F0433091F195
:1028B000413019F514964D915C91DA01AE1BBF0BB6
:1028C000FD013197F7FD04C0AB01BF010E94ED127D
:1028D0001F910F91089514964D915C91DA01A61BFA
:1028E000B70BBD01DC0116964D915C91DA01AE1B70
:1028F000BF0BFD013197621B730BF7FDE9CFDC01C4
:1029000016964D915C91E417F50714F7AF010E94FC
:102910009C13DECF16964D915C91DA01A61BB70B86
:10292000BD01621B730BCECFFC0177FD64C08085B7
:102930009185681779070CF05EC057FD5CC08285F1
:102940009385481759070CF056C086898230B1F03C
:10295000833029F1813041F484819581841B950B6A
:10296000AB01BC01615071092130310509F108F456
:1029700043C02230310509F463C0089584819581F4
:10298000DC01A61BB70BBD016150710986819781DF
:10299000DC01A41BB50BAD0141505109E5CF868187
:1029A0009781861B970BBA01AC0141505109DCCFCE
:1029B000CA0157FD0796A3E095958795AA95E1F77B
:1029C000A481B5818A9F90018B9F300D9A9F300D15
:1029D0001124620F731F078CF0A1E02DE60FF71F83
:1029E0004770552721E030E001C0220F4A95EAF7F1
:1029F0008081822B80830895CA0157FD079633E0BA
:102A0000959587953A95E1F7A481B5818A9F9001C4
:102A10008B9F300D9A9F300D1124620F731F078C0E
:102A2000F0A1E02DE60FF71F4770552781E090E0F9
:102A300001C0880F4A95EAF7809590818923DACF03
:102A4000CA0157FD079623E0959587952A95E1F7EA
:102A5000A481B5818A9F90018B9F300D9A9F300D84
:102A60001124620F731F078CF0A1E02DE60FF71FF2
:102A70004770552721E030E001C0220F4A95EAF760
:102A800080818227B7CF08958EBD00000DB407FE68
:102A9000FDCF8EB50895FF920F931F93CF93DF93D1
:102AA000F82ED92FC62F80918B0490918C04892BFE
:102AB00009F447C080918F040E94880580918B049F
:102AC00090918C04DC01ED91FC910190F081E02D5E
:102AD00060E009950F2D1D2FD1E0C15080918B042E
:102AE00090918C04CF3F31F1D03298F00E94411187
:102AF00080918F040E94880580918B0490918C04B2
:102B0000DC01ED91FC910190F081E02D60E00995F0
:102B1000D1E080918B0490918C04F8016491DC01E8
:102B2000ED91FC910190F081E02D0995DF5F0F5F41
:102B30001F4FD3CFDF91CF911F910F91FF900C9436
:102B40004111E0919B04F0919C0490818091A1043B
:102B50008095892380830F2D1D2FC15008F438C024
:102B6000F80184912091890430918A04232B29F063
:102B70000E9444150F5F1F4FF0CF28E030E040E87F
:102B8000E0919704F091980490919F04582F54235A
:102B9000D9F05081952B9083E0919904F0919A049B
:102BA00090815091A004952B9083E0919904F0912D
:102BB0009A0450819091A004909595239083469516
:102BC00021503109E9F6D6CF508190959523E3CF76
:102BD000DF91CF911F910F91FF9008951F93CF9395
:102BE000DF93EC018D8D9E8D892BF9F0162F89A135
:102BF0000E9488058D8D9E8DDC01ED91FC910190E8
:102C0000F081E02D60E009958D8D9E8DDC01ED91C8
:102C1000FC910190F081E02D612F09958D8D9E8DA5
:102C2000DF91CF911F910C944111ADA5BEA59C9150
:102C30008BA9809589238C938B8D9C8D892B31F06A
:102C4000862FDF91CF911F910C94441528E030E03E
:102C500080E8A9A5BAA599A9462F4823C1F04C91AF
:102C6000942B9C93ABA5BCA59C914AA9942B9C93B7
:102C7000ABA5BCA54C919AA9909594239C9386955D
:102C80002150310931F7DF91CF911F9108954C9177
:102C900090959423E6CF8CBD9DBD0895FF920F9330
:102CA0001F93CF93DF9380918B0490918C04892B99
:102CB00009F472C08CE08093B80065E08DE79AE07B
:102CC0000E944B156091720461508EE694E00E9460
:102CD000EE152091740430917504C901079697FD93
:102CE000079623E0959587952A95E1F72091720440
:102CF00030917304829F8001839F100D929F100D6D
:102D00001124C0918D04D0918E0480918B049091F8
:102D10008C040C0F1D1F892B09F47CC080918F043B
:102D20000E94880580918B0490918C04DC01ED91C8
:102D3000FC910190F081E02D60E40995FF24F3946B
:102D400080918B0490918C040C171D07E1F1BFE179
:102D5000BF15A0F40E94411180918F040E94880544
:102D600080918B0490918C04DC01ED91FC91019099
:102D7000F081E02D60E40995FF24F39480918B04A9
:102D800090918C046991DC01ED91FC910190F081AE
:102D9000E02D0995F394D4CF8091890490918A0411
:102DA000892B31F08091A3049091A4040E944B16CA
:102DB000E0919D04F0919E0490818091A204809501
:102DC000892380837ACF0E94411180918B04909156
:102DD0008C04892B09F45FC02091A5043091A604CE
:102DE0004091A7045091A80460E074E284EF90E061
:102DF0000E943E33205131094109510956954795AA
:102E0000379527952093B800DF91CF911F910F91AF
:102E1000FF900895E0919B04F0919C048081909133
:102E2000A104892B80830C171D0779F289912091C9
:102E3000890430918A04232B19F00E944415F3CFA2
:102E400028E030E040E8E0919704F09198049091F8
:102E50009F04582F5423D9F05081952B9083E091F3
:102E60009904F0919A0490815091A004952B90833D
:102E7000E0919904F0919A0450819091A00490956A
:102E800095239083469521503109E9F6CCCF5081A6
:102E900090959523E3CFE0919D04F0919E0480816D
:102EA0009091A204892B8083AFCF1F93CF93DF93A0
:102EB000EC01162F8D8D9E8D892B29F18CE080934E
:102EC000B80066EA111167EACE010E94EE158D8DF9
:102ED0009E8D892B41F12FA938AD49AD5AAD60E0E7
:102EE00074E284EF90E00E943E33205131094109A1
:102EF000510956954795379527952093B800DF914E
:102F0000CF911F9108958B8D9C8D892B21F08DA9D8
:102F10009EA90E944B16EFA5F8A990818CA98095D7
:102F200089238083CECFEFA5F8A980819CA9892B26
:102F30008083E5CF089590E080E008958093BB0002
:102F400084E88093BC008091BC0087FFFCCF909107
:102F5000B900987F81E0983231F0983129F09034AF
:102F600019F080E008950895089584EA8093BC00E4
:102F70008091BC0087FFFCCF8091B900887F19F059
:102F800080EC0C949E1780E008955F926F927F9280
:102F90008F929F92AF92BF92CF92DF92EF92FF9269
:102FA0000F931F93CF93DF93CDB7DEB7582E742EB8
:102FB000652EB62E922E0E94B517852D0E949E1763
:102FC0008D2D0E949E178C2D0E949E178B2D837035
:102FD000A82A80E081108CE08A290E949E17862D05
:102FE0000E949E17872D0E949E178CE0F694E7940E
:102FF000D794C7948A95D1F78C2D807FC82E892DC0
:103000008F708C290E949E17812F0E949E17802FFF
:103010000E949E1784E98093BC008091BC0084FDCF
:10302000FCCFDF91CF911F910F91FF90EF90DF9038
:10303000CF90BF90AF909F908F907F906F905F9058
:1030400008954F925F926F927F928F929F92AF926C
:10305000BF92CF92DF92EF92FF920F931F93CF9385
:10306000C82FC090CD04D090CE04E090CF04F09053
:10307000D004CB01BA01A70196010E943E33490159
:103080005A0125E0F694E794D794C7942A95D1F78E
:1030900035E096958795779567953A95D1F747E00E
:1030A000660F771F881F991F4A95D1F7A7019601D0
:1030B0000E943E3329013A018B019C01B501A40114
:1030C000552766277727E7E0440F551F661F771FB0
:1030D000EA95D1F7525061097109440D551D661DDD
:1030E000771D812CA12C8C2F0E94C517CF911F9189
:1030F0000F91FF90EF90DF90CF90BF90AF909F9097
:103100008F907F906F905F904F9008958F92AF92C5
:10311000CF92DF92EF92FF920F931F9388248394B4
:10312000443051056105710509F0812C4450510965
:1031300061097E4F97E0440F551F661F771F9A95D0
:10314000D1F7A22EC12CD12C7601C39400E010E05F
:1031500098010E94C5171F910F91FF90EF90DF908B
:10316000CF90AF908F900895CF93DF93D82FC62F35
:103170000E94B5178D2F0E949E178C2F0E949E17BC
:1031800084E98093BC008091BC0084FDFCCFDF917A
:10319000CF910895CF93C82F60E880E18C0F0E94F3
:1031A000B418EC2FF0E0EE0FFF1FEB54FB4F118231
:1031B0001082CF9108952F923F924F925F926F921B
:1031C0007F928F929F92AF92BF92CF92DF92EF92B7
:1031D000FF920F931F93CF93DF9300D000D01F92E5
:1031E000CDB7DEB789838091C5049091C604A091C4
:1031F000C704B091C804892B8A2B8B2B19F481E06A
:103200000E94CA188091C9049091CA04A091CB046D
:10321000B091CC04892B8A2B8B2B19F482E00E946D
:10322000CA184090C5045090C6046090C7047090BE
:10323000C804411451046104710409F47FC1298157
:10324000222309F4A5C0C090B704D090B804F12C93
:10325000E12C4091BC044983A3019201C701B6014E
:103260000E940D359B01AC018981E82FF0E0EA5BFB
:10327000FE4FA081B0E00E9433334B015C01DC01C2
:10328000CB0180589545A84CB0428130924CAB4E52
:10329000BB4008F446C060912501709126018091E1
:1032A000270190912801A30192010E943E336901F8
:1032B0007A0181E044E0C416D104E104F10408F489
:1032C00089C086E0C816D104E104F10408F49BC06B
:1032D00019829DE2C91691E0D906E104F10440F09B
:1032E00029812F5F2983F694E794D794C794F1CF6F
:1032F0004981411103C0E894C0F81982A3019201E9
:10330000C701B6010E940D359B01AC018981E82FF0
:10331000F0E0EA5BFE4FA081B0E00E9433334B0146
:103320005C01B501A40182E20E9421188091B704DA
:103330009091B804B0E0A0E08C159D05AE05BF05E6
:1033400029F48091BC0499818917D1F029812295B3
:10335000207FB701A60182E30E9486186091BF0416
:103360006C6681E10E94B418D092B804C092B70490
:1033700029812093BC048091D50480688093D50472
:103380008092D1049092D204A092D304B092D4043B
:10339000C090C904D090CA04E090CB04F090CC0453
:1033A000C114D104E104F10409F4B0C08090D10447
:1033B0009090D204A090D304B090D404C501B4017D
:1033C000A70196010E943E33283031054105510581
:1033D00000F582E00F900F900F900F900F90DF910B
:1033E000CF911F910F91FF90EF90DF90CF90BF9002
:1033F000AF909F908F907F906F905F904F903F9095
:103400002F900C94CA1804E0C02ED12CE12CF12C82
:1034100072CF1D82213431054105510560F08D8147
:103420008F5F8D83CC0CDD1CEE1CFF1C56954795E1
:1034300037952795EFCFC501B401A70196010E94EA
:103440003E3329833A834B835C832FEF3FEF4FE07A
:1034500050E00E944A3556016701E12CF12C00E052
:1034600010E00E94773529013A019D819295907F65
:103470009D83C12CD12C7601C39441145104610465
:10348000710431F0CC24CA94DC2CFFE0EF2EF12C37
:10349000C301B20127E0660F771F881F991F2A9585
:1034A000D1F7A70196010E943E3349015A018B01D1
:1034B0009C0149815A816B817C815527662777273A
:1034C000E7E0440F551F661F771FEA95D1F752506A
:1034D00061097109480D591D6A1D7B1D812CAD8044
:1034E0008AE30E94C5178CE445284628472809F03E
:1034F0008CE06091C0046062682B82E10E94B41885
:1035000081E090E09093BA048093B9040F900F90FB
:103510000F900F900F90DF91CF911F910F91FF901F
:10352000EF90DF90CF90BF90AF909F908F907F9063
:103530006F905F904F903F902F9008958090C904B6
:103540009090CA04A090CB04B090CC048114910454
:10355000A104B104D9F2C090B904D090BA04F12CFE
:10356000E12C2091BD042983A5019401C701B60176
:103570000E940D359B01AC018981E82FF0E0EA5BE8
:10358000FE4FA081B0E00E9433338B019C010058B4
:103590001545284C30420130124C2B4E3B4008F46C
:1035A00043C060912501709126018091270190917F
:1035B0002801A50194010E943E3369017A0184E04B
:1035C000C816D104E104F10408F403CF96E0C9164B
:1035D000D104E104F10408F458C019822DE2C216A6
:1035E00021E0D206E104F10440F049814F5F4983B4
:1035F000F694E794D794C794F1CF8981811103C0E1
:10360000E894C0F81982A5019401C701B6010E948F
:103610000D359B01AC019981E92FF0E0EA5BFE4F8B
:10362000A081B0E00E943333AB01BC0182E20E9472
:1036300021188091B9049091BA04B0E0A0E08C15F3
:103640009D05AE05BF0531F48091BD042981821727
:1036500009F45CCF29812295207FB701A6018AE376
:103660000E9486186091C0046C6682E10E94B418C2
:10367000D092BA04C092B90449814093BD048091AC
:10368000D50480688093D50441CF84E0C82ED12C26
:10369000E12CF12CB5CF4F925F926F927F92AF9257
:1036A000BF92CF92DF92EF92FF920F931F93CF932F
:1036B000DF93D82F082F10E0F801EE0FFF1FEE0F59
:1036C000FF1FEF53FB4F4080518062807380411495
:1036D00051046104710489F48D2FDF91CF911F9102
:1036E0000F91FF90EF90DF90CF90BF90AF907F90C1
:1036F0006F905F904F900C94CA185801AA0CBB1C95
:10370000F501EB54FB4FC080D180F12CE12C0B5420
:103710001B4FF801C681A3019201C701B6010E94A7
:103720000D359B01AC01EC2FF0E0EA5BFE4FA08170
:10373000B0E00E9433339B01AC0120583545484C22
:1037400050422130324C4B4E5B4008F43FC06091F8
:103750002501709126018091270190912801A301F4
:1037600092010E943E3369017A0184E0C816D104B7
:10377000E104F10408F4B0CFE6E0CE16D104E10490
:10378000F10408F470C0C0E0FDE2CF16F1E0DF06FE
:10379000E104F10430F0CF5FF694E794D794C79436
:1037A000F3CFC11103C0E894C0F8C0E0A3019201B7
:1037B000C701B6010E940D359B01AC01EC2FF0E072
:1037C000EA5BFE4FA081B0E00E9433332AE1D111C1
:1037D00022E2AB01BC01822F0E942118F501EB54BB
:1037E000FB4F80819181B0E0A0E08C159D05AE0576
:1037F000BF0521F4F80186818C1731F12C2F229519
:10380000207FB701A6018D2F880F880F880F865D56
:103810000E948618F801618580E0D11180E26C6415
:10382000682B80E18D0F0E94B418F501EB54FB4F1B
:10383000D182C082F801C6838091D50490E2D11173
:1038400090E8892B8093D504DF91CF911F910F9140
:10385000FF90EF90DF90CF90BF90AF907F906F90F0
:103860005F904F90089584E0C82ED12CE12CF12C6C
:103870009ACFFF920F931F93CF93DF9300D0CDB7D2
:10388000DEB7E0E1F1E010E000E08191080F111DEA
:1038900081E0E232F807C9F742E150E060E171E00F
:1038A00082E090E00E94B1120F5F1F4F1A830983DC
:1038B00042E050E0BE016F5F7F4F90E080E00E94E9
:1038C000B112E9E0F1E080E191E010E000E0219147
:1038D000020F111D8E179F07D1F78091110199E0FA
:1038E000F92E8F9DC001112447E050E069E071E09E
:1038F00046960E94B1120F5F1F4F1A830983809171
:1039000011018F9DC001112442E050E0BE016F5FA4
:103910007F4F44960E94B1120F900F90DF91CF918C
:103920001F910F91FF90089580911D0190911E01AC
:10393000092E000CAA0BBB0B80549340A446BE4F2B
:103940008093CD049093CE04A093CF04B093D00481
:1039500080E00E944B1B82E00C944B1B8F929F9245
:10396000AF92BF92CF92DF92EF92FF920F931F938D
:10397000CF9380910A0190910B01A0910C01B0911D
:103980000D0100911B0110911C01012E000C220B56
:10399000330B8090C5049090C604A090C704B090EB
:1039A000C804C1E081149104A104B10409F4C0E089
:1039B0004091C1045091C2046091C3047091C40449
:1039C000E0910901EE2309F45CC0C0901301D0908E
:1039D0001401E0901501F09016018C0D9D1DAE1D97
:1039E000BF1D805E9E45A84FBF4F800F911FA21F35
:1039F000B31F1092D50484179507A607B70759F08F
:103A00008093C1049093C204A093C304B093C404F0
:103A100080E00E944B1B89288A288B2869F48091BA
:103A2000C9049091CA04A091CB04B091CC04C816EB
:103A3000D906EA06FB0699F01092C5041092C60456
:103A40001092C7041092C804C092C904D092CA044C
:103A5000E092CB04F092CC048C2F0E94DB18609192
:103A6000D504662319F181EBCF911F910F91FF903F
:103A7000EF90DF90CF90BF90AF909F908F900C947D
:103A8000B418C0901701D0901801E0901901F0907F
:103A90001A018C0D9D1DAE1DBF1D8052914AA7407D
:103AA000B109801B910BA20BB30BA3CFCF911F9138
:103AB0000F91FF90EF90DF90CF90BF90AF909F90CD
:103AC0008F9008958EE00E948F0720911F0130E0B3
:103AD000DC010E9443352FEF33E040E050E00E94CC
:103AE00014332093AB02089580E10E948F0724E6EF
:103AF00030E0DC010E9443352FEF33E040E050E03E
:103B00000E9414332093AA020895DC01ED91FD91E7
:103B10008081ED91FD919081ED91FD916C916370AB
:103B20008E2309F064609F2309F06860E2EAFDE1FA
:103B3000E60FF11D659565956D936D917D918D9164
:103B40009D91099423C01AC012C016C010C01EC097
:103B500009C014C013C006C019C009C00DC007C0F9
:103B60000DC014C062507040804090400BC0615046
:103B700070408040904006C06E5F01C06F5F7F4F15
:103B80008F4F9F4F9E938E937E936E930895BF9217
:103B9000CF92DF92EF92FF920F931F93CF93DF9319
:103BA000EC01B62EC72E8D85811105C0CE010E9475
:103BB000C80881110EC01B861D861C8680E0DF911F
:103BC000CF911F910F91FF90EF90DF90CF90BF901A
:103BD000089540E060EFCE010E94750801E0E12CFD
:103BE000D12C11E0CE010E942208F82ECE010E94B5
:103BF000220891E0F91218C0813099F51134D8F2F9
:103C0000DB86D11002C081E08D878B81882399F2F9
:103C10002396EB2DFC2DCF01089629912193E817CF
:103C2000F907D9F781E0CBCFEE2DF0E0F8120FC005
:103C30008B851817A0F4DE01AE0FBF1F13968C9171
:103C4000802379F4F12C193008F41C87D12EEC0F65
:103C5000FD1F8381902F9095892383830AC0811350
:103C6000F1CFFE01EE0DF11D8381802B8383FF24B4
:103C7000F3946F2DCE010E9446081F5F000F11F4D0
:103C8000E39401E087E08E1508F0ACCFB7CF4F92F8
:103C90005F926F927F928F929F92AF92BF92CF92DC
:103CA000DF92EF92FF920F931F93CF93DF93CDB7E5
:103CB000DEB761970FB6F894DEBF0FBECDBF0E948E
:103CC000FF07C090A502D090A602E090A702F09056
:103CD000A8026C197D098E099F0969387341810515
:103CE000910508F458C08091A402811154C010922B
:103CF000420480914604909147040E94C80840E025
:103D00006CEC80914604909147040E9475084091A4
:103D1000400464E480914604909147040E94750831
:103D200080914204882391F1E0914104E9500EEE24
:103D300012E0E33038F4F0E0EE0FFF1FEE5CFE4FD0
:103D40000081118180914304882309F481C080910E
:103D5000400481117DC00E94FF074B015C012801D6
:103D6000110F6608770880914604909147040E94DD
:103D70002208813059F00E94FF07641975098609ED
:103D80009709681579058A059B0568F381E080939A
:103D900042048093A4020E94FF076C197D098E09DA
:103DA0009F0961347F4181059105D8F18091A4027A
:103DB0008823B9F1E0914604F091470413861586F3
:103DC0001486128611861086178216821582148236
:103DD0001382BE01665F7F4F809146049091470435
:103DE0000E94C71D81113BC060E070E08EEF92EC35
:103DF00020E030E040E05FE30E9470330E94DC335B
:103E000080912101680F6093A9020E94FF076093CF
:103E1000A5027093A6028093A7029093A802109225
:103E2000A40261960FB6F894DEBF0FBECDBFDF913E
:103E3000CF911F910F91FF90EF90DF90CF90BF90A7
:103E4000AF909F908F907F906F905F904F9008956C
:103E5000B801110F880B990B0E94CC0797CF67E030
:103E6000CE010A960E940B0899898913BDCF8091D3
:103E70004604909147040E94C808882309F4B4CFEF
:103E8000BE016F5F7F4FCE010A960E940009882312
:103E900009F4AACF68E0CE0101960E940B0899852B
:103EA0008913A2CF6A8170E0762F6627770F770F8C
:103EB000770F298158E0259F90011124262B372B5D
:103EC0008A858031D1F4688570E08F81AB01481B11
:103ED0005109CA019695982F8827979587950E9432
:103EE0002935CB014097B90153E0660F771F5A95EA
:103EF000E1F760789C01260F371F213854EE350713
:103F00000CF472CFB901330F880B990B0E94143453
:103F100020E030E040E05CE30E94A03469CF0F93E2
:103F20001F93CF93DF9380911E03882359F0109243
:103F30008D030E94281210921E03DF91CF911F91D2
:103F40000F9108950E94FF070091A0021091A10215
:103F50002091A2023091A302601B710B820B930B84
:103F6000693E73408105910520F4012B022B032B40
:103F700021F70E94FF076093A0027093A102809333
:103F8000A2029093A30288E60E94880560E082E680
:103F900094E00E940D1182E694E00E944111882372
:103FA00091F01092940380919403882331F210923F
:103FB0008F0310928E0310928D03DF91CF911F918A
:103FC0000F910C94281281E08093940367E088E6B7
:103FD0000E94EF0F10923B0480933A04873018F34D
:103FE00082E694E00E94CD10D82F982F929597707A
:103FF000CAE08D2F8F709C9F800D112480938D03BC
:1040000082E694E00E94CD10982F92959F708F7059
:104010009C9F800D112480938E0382E694E00E9481
:10402000CD10982F929593708F709C9F800D1124C6
:1040300080938F0382E694E00E94CD10982F929592
:104040009F708F709C9F800D11248093900382E657
:1040500094E00E94CD10982F92959F708F709C9F36
:10406000800D11248093910382E694E00E94CD108C
:10407000982F92959F708F709C9F800D1124809334
:10408000920382E694E00E94CD10982F9F70925E7A
:1040900082958F708C9F900D112490939303D7FF7E
:1040A0004CCF81CFCF93DF93EC018091D6040E9457
:1040B00088058D2F90E00E943C11CE0199270E9427
:1040C0003C1182E694E00E94411161E08091D604A7
:1040D0000E94EF0F10923B0480933A04882339F03A
:1040E00082E694E00E94CD10DF91CF91089580E0A8
:1040F000FBCFEF92FF920F931F93CF93DF938B0130
:10410000040F151FEB017C01E61AF70AC7018C0F9B
:104110009D1F0E9452208993C017D107B9F7DF91E4
:10412000CF911F910F91FF90EF900895DF92EF9242
:10413000FF920F931F93CF93DF9300D0CDB7DEB7DD
:104140001A8219828091110129E0829FC0011124F5
:1041500042E050E0BE016F5F7F4F44960E9479209D
:10416000F12CE12C10E000E089E0D82E80911101C3
:1041700097018D9D200D311D1124C90146960E9485
:104180005220080F111D3FEFE31AF30A87E0E816EB
:10419000F10461F70E5F1F4F89819A810817190793
:1041A000B1F4809111018D9DC001112447E050E0D0
:1041B00069E071E046960E9479200F900F90DF91A0
:1041C000CF911F910F91FF90EF90DF9008950E9483
:1041D000391CF3CFFC0101900020E9F73197AF01C2
:1041E000481B590BBC018EE694E00C949A058F9203
:1041F0009F92AF92BF920F931F93CF93DF93CDB750
:10420000DEB7A1970FB6F894DEBF0FBECDBF19A2DF
:10421000423008F44AE08E010F5D1F4F842E912C2E
:10422000B12CA12CA50194010E943E33E62FB901C7
:10423000CA01EA30F4F4E05DD801EE938D01232B3E
:10424000242B252B79F790E080E0109719F0CD0111
:104250000E94EA20A1960FB6F894DEBF0FBECDBF34
:10426000DF91CF911F910F91BF90AF909F908F9052
:104270000895E95CE1CF682F70E090E080E04AE0CB
:104280000C94F720CF92DF92EF92FF92CF93DF93BF
:104290006C01990FEE08FF08F7FE17C08DE20E942F
:1042A0009C0CEC0166277727CB016C197D098E09E0
:1042B0009F094AE00E94F7208C0F9D1FDF91CF914C
:1042C000FF90EF90DF90CF9008954AE0C701B601CC
:1042D000DF91CF91FF90EF90DF90CF900C94F7207B
:1042E000CF93DF934AE00E94F720EC018EE991E042
:1042F0000E94EA208C0F9D1FDF91CF910895CF93EC
:10430000DF930E94EA20EC018EE991E00E94EA200E
:104310008C0F9D1FDF91CF9108950C94EA20CF92CE
:10432000DF92EF92FF92CF93DF936C01990FEE082B
:10433000FF08F7FE1DC08DE20E949C0CEC01662771
:104340007727CB016C197D098E099F094AE00E94ED
:10435000F720C80FD91F8EE991E00E94EA208C0F48
:104360009D1FDF91CF91FF90EF90DF90CF90089548
:104370004AE0C701B6010E94F720EC01ECCFCF93D1
:10438000DF930E943B21EC018EE991E00E94EA203C
:104390008C0F9D1FDF91CF9108952091740430916F
:1043A0007504C901079697FD079623E095958795B3
:1043B0002A95E1F72091720430917304829FA00145
:1043C000839F500D929F500D112470E060E080910A
:1043D0008D0490918E040C941B37CF92DF92EF9254
:1043E000FF920F931F93CF930E94CD2110927B04D5
:1043F00010927A0410927D0410927C0481E090E087
:10440000909381048093800490937F0480937E0432
:1044100083E08093820480938304E0914003E03141
:1044200008F010C1F0E0E95EFD4D0C943D35272207
:104430008F23A323C023D923F42308242A2445242B
:104440005724692479248924A124B924D024809173
:104450000A0190910B01A0910C01B0910D018038DF
:104460009649A849B10520F486E192E00E948D2189
:1044700060910A0170910B0180910C0190910D01E6
:1044800030E4C32E32E4D32E3FE0E32EF12CA7011B
:1044900096010E943E33CA01B9014AE00E94F7200A
:1044A00080917A0490917B04059690937B0480938D
:1044B0007A0460910A0170910B0180910C01909136
:1044C0000D01A70196010E943E33603A7648814073
:1044D000910520F481EA91E00E948D2160910A010A
:1044E00070910B0180910C0190910D0120E432E458
:1044F0004FE050E00E943E336031774281059105E4
:1045000020F481EA91E00E948D2160910A0170916E
:104510000B0180910C0190910D0120E432E44FE0F9
:1045200050E00E943E3328EEC22E23E0D22EE12C32
:10453000F12CA70196010E943E33CA01B9014AE05D
:104540000E94F72082E0809382048093830480910C
:104550007A0490917B04059690937B0480937A046F
:1045600087E090E090937D0480937C0460910A0141
:1045700070910B0180910C0190910D01A7019601A2
:104580000E943E33643671058105910520F481EA6D
:1045900091E00E948D2160910A0170910B01809140
:1045A0000C0190910D0128EE33E040E050E00E94B4
:1045B0003E332AE030E040E050E00E943E33CA0142
:1045C000B9010E94702181E080938204809383046A
:1045D0008091AB02843620F481EA91E00E948D2123
:1045E0008091AB02CAE06C2F0E941D3590E00E94C2
:1045F000422183EA91E00E948D218091AB026C2FD1
:104600000E941D35892F90E00E94422185EA91E0A9
:104610000E948D2180913F038823E9F087EA91E091
:104620000E948D212091AA0230E0EE24E394F12C27
:1046300009E010E047E150E060E470E08EE694E0CD
:104640000E94950DCF911F910F91FF90EF90DF90F9
:10465000CF900C944E168091A90292E3980F953654
:1046600008F051C087FD04C086E192E00E948D21D0
:104670008091A902082E000C990B0E94422187EF1D
:104680000E949C0C8CEA91E00E948D21809136035F
:104690008823E1F186E192E00E948D2180918F03D1
:1046A0008A3020F486E192E00E948D2180918F0370
:1046B0000E943B2180918D0380FF2BC084EB91E011
:1046C0000E948D2180918E038A3020F481EA91E04E
:1046D0000E948D2180918E030E943B2180910901CF
:1046E0008823D1F086EB91E00E948D218091110109
:1046F0008A3020F486E192E00E948D2180911101A0
:104700000E943B219FCF8EEA91E0BECF83EA91E0E9
:10471000C3CF86E192E0D4CF89EB91E0E5CF8091E1
:1047200011010E94BF2181E0809382048093830461
:10473000809140030E943B218CEB91E00E948D21EF
:1047400080911201DDCFE0911001F0E0EE0FFF1F2C
:10475000E85CFE4F20813181AAE0B0E00E94603326
:104760000E94702181E08093820480938304809171
:1047700040030E943B218EEC91E00E948D2162CF8C
:1047800080910901882391F088ED91E00E947F21BA
:1047900081E08093820480938304809140030E948F
:1047A0003B2180EE91E00E947F214CCF8CED91E087
:1047B000EDCF80910E0124E6829FC00111240E945A
:1047C0008F2181E080938204809383048091400351
:1047D0000E943B2181EF91E00E948D2180EF0E9499
:1047E0009C0C8DEF91E0C9CF80910F0124E6829F50
:1047F000C00111240E948F2181E080938204809364
:104800008304809140030E943B2181E092E0E4CF49
:1048100082E08093820480938304609117017091F9
:1048200018018091190190911A010E94702181E074
:104830008093820480938304809140030E943B21F3
:104840008DE092E00E948D2180EF0E949C0C85ED0E
:1048500091E093CF82E080938204809383046091FF
:1048600013017091140180911501909116010E941D
:10487000702181E0809382048093830480914003BF
:104880000E943B2188E192E0DDCF80911B01909155
:104890001C010E948F2181E0809382048093830415
:1048A000809140030E943B2183E292E0CBCF809134
:1048B0001D0190911E010E948F2181E0809382044E
:1048C00080938304809140030E943B2184E392E023
:1048D000B9CF80911F010E94BF2181E080938204A3
:1048E00080938304809140030E943B2180E492E006
:1048F00044CF809112010E94BF2181E08093820405
:1049000080938304809140030E943B218BE492E0DA
:1049100034CF80918F038A3020F481EA91E00E94A5
:104920008D2180918F030E94BF2181E080938204BA
:1049300080938304809140030E943B218BE592E0A9
:104940001CCF80918E038A3020F481EA91E00E948E
:104950008D2180918E030E94BF2181E0809382048B
:1049600080938304809140030E943B2182E692E081
:1049700004CF80912001882381F08BE692E00E9491
:104980007F2181E08093820480938304809140039F
:104990000E943B2182E792E006CF8FE692E0EFCFC4
:1049A00080912101082E000C990B0E948F2181E03B
:1049B0008093820480938304809140030E943B2172
:1049C00084E892E00E948D2180EF0E949C0C87EF8A
:1049D0000E949C0C8CEA91E0D0CE0E94163785EDA7
:1049E0008093BC008091890390918A03A0918B03EE
:1049F000B0918C030796A11DB11D23E0B695A79534
:104A0000979587952A95D1F72091BC0024FD03C086
:104A10001092870308954091890350918A03609111
:104A20008B0370918C03452B462B472B69F3009722
:104A3000A105B10541F025E32A95F1F700000197A2
:104A4000A109B109E1CF809188030C94CE0F1F9288
:104A50000F920FB60F9211242F933F934F935F93B2
:104A60006F937F938F939F93AF93BF93EF93FF9336
:104A70008091290390912A03A0912B03B0912C03DC
:104A8000892B8A2B8B2BD1F190912403E091250364
:104A9000F09126038081892780838091290390915A
:104AA0002A03A0912B03B0912C03181619061A069D
:104AB0001B069CF48091290390912A03A0912B035B
:104AC000B0912C030197A109B10980932903909318
:104AD0002A03A0932B03B0932C03FF91EF91BF9176
:104AE000AF919F918F917F916F915F914F913F9186
:104AF0002F910F900FBE0F901F901895809122015B
:104B00000E942707EACF1F920F920FB60F9211242F
:104B10002F933F934F935F936F937F938F939F93C5
:104B2000AF93BF93EF93FF9387E993E00E9418063A
:104B3000FF91EF91BF91AF919F918F917F916F9175
:104B40005F914F913F912F910F900FBE0F901F904B
:104B500018951F920F920FB60F9211242F938F93D7
:104B60009F93EF93FF93E091A703F091A8038081B7
:104B7000E091AD03F091AE0382FD1BC09081809166
:104B8000B0038F5F8F732091B103821741F0E091E2
:104B9000B003F0E0E956FC4F958F8093B003FF918E
:104BA000EF919F918F912F910F900FBE0F901F90BB
:104BB00018958081F4CF1F920F920FB60F92112497
:104BC0002F933F938F939F93AF93BF938091110344
:104BD00090911203A0911303B0911403309110032C
:104BE00023E0230F2D3758F50196A11DB11D209309
:104BF00010038093110390931203A0931303B093B7
:104C000014038091150390911603A0911703B0919E
:104C100018030196A11DB11D8093150390931603EF
:104C2000A0931703B0931803BF91AF919F918F91F9
:104C30003F912F910F900FBE0F901F90189526E86F
:104C4000230F0296A11DB11DD2CF1F920F920FB656
:104C50000F9211242F933F934F935F936F937F9302
:104C60008F939F93AF93BF93EF93FF938091B9007E
:104C7000887F803609F44AC0F0F5883209F4A7C06D
:104C800018F5803109F49BC0B8F4882309F4F9C001
:104C9000883009F494C0FF91EF91BF91AF919F913B
:104CA0008F917F916F915F914F913F912F910F90D5
:104CB0000FBE0F901F901895883109F488C080327C
:104CC00051F78093650314C0803409F49DC040F40B
:104CD0008033B9F38833F9F68093650385ECB0C06F
:104CE000803509F485C0883509F496C0883499F672
:104CF0000E94EF24D0CF883909F48CC038F588376A
:104D000029F050F4883611F0803729F683E080933B
:104D1000870310920F0357C0883809F47BC080398D
:104D200019F0803809F0B7CF80910F03803208F076
:104D300071C0E0910F0381E08E0F80930F0380918B
:104D4000BB00F0E0E151FD4F80833DC0803B39F076
:104D5000E0F4803A09F479C0883A09F09CCF84E005
:104D6000809387031092EE021092ED02E0913404DA
:104D7000F091350409958091ED0281110FC081E019
:104D80008093ED021092CD0209C0803C09F4A6CFB9
:104D9000883C09F4A3CF883B09F07DCFE091EE0277
:104DA00081E08E0F8093EE02F0E0E353FD4F8081AF
:104DB0008093BB009091EE028091ED0229C080911A
:104DC00062038093BB0085EC8093BC0064CF90911C
:104DD000640380916303981758F5E091640381E0C0
:104DE0008E0F80936403F0E0EF5BFC4F8081E9CF8E
:104DF000E091640381E08E0F809364038091BB0097
:104E0000F0E0EF5BFC4F808390916403809163033B
:104E10009817C8F285E8D8CFE091640381E08E0F3F
:104E2000809364038091BB00F0E0EF5BFC4F8083D4
:104E30008091660381115CCF81E08093610384EAF5
:104E40008093BC001092870326CF85EC8093BC0032
:104E50001092870380910F03803230F4E0910F03AA
:104E6000F0E0E151FD4F108260910F0370E0E0919E
:104E70003604F09137048FEE92E0099510920F03FB
:104E80000ACF1092650334CF1F920F920FB60F9284
:104E900011242F933F934F935F936F937F938F933F
:104EA0009F93AF93BF93EF93FF9380913E049091B4
:104EB0003F040E94851DFF91EF91BF91AF919F919B
:104EC0008F917F916F915F914F913F912F910F90B3
:104ED0000FBE0F901F9018951F920F920FB60F9252
:104EE00011242F933F934F935F936F937F938F93EF
:104EF0009F93AF93BF93EF93FF9380913C04909166
:104F00003D040E94851DFF91EF91BF91AF919F914C
:104F10008F917F916F915F914F913F912F910F9062
:104F20000FBE0F901F901895CF92DF92EF92FF92D5
:104F3000CF93DF9310929A031092990398EEC92EA3
:104F400093E0D92EE12CF12CC0929B03D0929C03CC
:104F5000E0929D03F0929E0382E591E09093980386
:104F60008093970385EC90E09093A4038093A30330
:104F700084EC90E09093A6038093A50380EC90E0EE
:104F80009093A8038093A70381EC90E09093AA03E9
:104F90008093A90382EC90E09093AC038093AB03E1
:104FA00086EC90E09093AE038093AD031092B00333
:104FB0001092B1031092B2031092B30310923B040B
:104FC00010923A0410923904109238040E94B00FE3
:104FD00086E895E0909335048093340487E895E063
:104FE0009093370480933604109265041092640401
:104FF000C0926604D0926704E0926804F09269045B
:1050000084E691E0909363048093620480E580934A
:10501000D6041092B6041092B5041092B8041092FF
:10502000B7041092BA041092B9041092BB04109203
:10503000BC041092BD0480912F0190913001A09189
:1050400031018093BE049093BF04A093C0041092DA
:10505000C1041092C2041092C3041092C4041092AE
:10506000C5041092C6041092C7041092C80410928E
:10507000C9041092CA041092CB041092CC0480E8A8
:1050800092EBA6EEBEE08093CD049093CE04A09365
:10509000CF04B093D00462E082E00E94530762E044
:1050A00083E00E945307E2EAFAE0E491F0E0EE0FB9
:1050B000FF1FEA56F54FA591B491B093AA04A093AF
:1050C000A904E4E8FAE044914093AD04E3EAFAE08D
:1050D000E491F0E0EE0FFF1FEA56F54FC591D49131
:1050E000D093AC04C093AB04E5E8FAE0E491E0931C
:1050F000AE041092B0041092B1041092B204109257
:10510000B3042BE33FE1C9010197F1F79C91842F90
:10511000892391E009F490E08881E82309F0926006
:1051200029EA34E09093AF0430933D0420933C048B
:10513000809169008C7F816080936900E89AC1E06A
:10514000C093B40430933F0420933E0480916900DF
:10515000837F846080936900E99A82E08093B4043D
:10516000109271041092700420E830E030937304C0
:105170002093720480E290E090937504809374040D
:105180003093770420937604909379048093780485
:105190001092840410927B0410927A0410927D0481
:1051A00010927C04C0938304C09382048FEF9FEF1E
:1051B000909381048093800490937F0480937E0475
:1051C000C09385041092860410928804109287047C
:1051D00086E791E090936F0480936E0482E694E0FA
:1051E00090938C0480938B0410928E0410928D0403
:1051F0008FEF809392048093930480939404809320
:1052000095048093960480E58093A3041092A404EF
:1052100080EA96E8A1E0B0E08093A5049093A6040C
:10522000A093A704B093A80410928A041092890452
:1052300060E08FE00E945307E1E9FAE0E491E09337
:105240005404EFEAFAE0E491F0E0EE0FFF1FEA56B3
:10525000F54F859194919093560480935504109244
:105260005F04109261041092600410925E04109228
:105270005D0410925C0410925B0410925A04109228
:105280005904109258041092570484E594E09093C6
:1052900047048093460410924404109245041092EF
:1052A000400489E080934104C0934204C0934304C6
:1052B0001092530410925204DF91CF91FF90EF901F
:1052C000DF90CF900895CF93DF93CDB7DEB760978F
:1052D0000FB6F894DEBF0FBECDBF789484B5826060
:1052E00084BD84B5816084BD85B5826085BD85B58A
:1052F000816085BD80916E00816080936E00109208
:105300008100809181008260809381008091810082
:105310008160809381008091800081608093800013
:105320008091B10084608093B1008091B000816071
:105330008093B00080917A00846080937A0080919D
:105340007A00826080937A0080917A0081608093F5
:105350007A0080917A00806880937A001092C10070
:10536000E091A703F091A80382E08083E091A70376
:10537000F091A8031082E091A303F091A40310829E
:10538000E091A503F091A60380E180831092AF0322
:10539000E091AB03F091AC0386E08083E091A90338
:1053A000F091AA03808180618083E091A903F0914C
:1053B000AA03808188608083E091A903F091AA0309
:1053C000808180688083E091A903F091AA038081A5
:1053D0008F7D808360E084E00E94530760E080E17D
:1053E0000E94530761E08CE00E94530761E084E073
:1053F0000E94F90683E08093000180918D049091D2
:105400008E04892B11F10E94CD21209174043091DA
:1054100075048091720490917304213231050CF06F
:10542000B5C0B9016052710977FF02C06F5F7F4F4D
:10543000759567958357910997FD019600E210E0F5
:1054400023E730E042ED55E0B4C020917404309180
:105450007504C901079697FD0796B3E09595879562
:10546000BA95E1F72091720430917304AC01429F28
:10547000C001439F900D529F900D11240E94F13561
:1054800090938E0480938D04892B09F0BCCF0E94E9
:10549000CD210E944E16E0914604F09147041386F8
:1054A000158614861286118610861782168215823A
:1054B00014821382109244041092450401E0BE014C
:1054C0006F5F7F4F80914604909147040E94C71DF3
:1054D000882309F446C267E0CE0101960E940B08BA
:1054E00098858913ECCF80914004811128C0809168
:1054F0004604909147040E94C808BE016F5F7F4F29
:1055000080914604909147040E94A90840E064EB12
:1055100080914604909147040E947508809146044A
:10552000909147040E942208182F80914604909180
:1055300047040E94C808111102C000934004109152
:1055400041048981803111F40C940033CE0101961D
:105550000E944C09811708F0F3C1809141048093A7
:105560004104809144048F5F809344048981883290
:1055700039F008F0EFC1803119F0823209F09FCF85
:10558000809145048F5F8093450499CFB9016054A1
:10559000710977FF02C06F5F7F4F759567958255E0
:1055A000910997FD019600E410E022E530E042EB1E
:1055B00057E0959587950E947B0E82E0809390043A
:1055C00080918B0490918C04892B09F4AEC08CE3FC
:1055D00080938F0410923B0410923A041092390485
:1055E000109238040E94B00F86E895E0909335043D
:1055F0008093340487E895E09093370480933604D1
:105600008091960487FD1EC061E00E94530761E00F
:10561000809196040E94F90661E070E080E090E0DD
:105620000E94CC0760E0809196040E94F9066AE02F
:1056300070E080E090E00E94CC0761E080919604E9
:105640000E94F90680918B0490918C04892B09F4B7
:105650002BC18CE08093B80064E08EEC95E00E9452
:105660004B156091740461508EE694E00E94EE1533
:1056700064E08AEC95E00E944B158091900460E113
:10568000813009F064E18EE694E00E94EE1564E05A
:1056900086EC95E00E944B15809172049091730402
:1056A0008038910509F02BC18091740490917504A4
:1056B0008032910509F00FC164E082EC95E00E9410
:1056C0004B1569ED8EE694E00E94EE1580919004F2
:1056D00062E2813009F061EF8EE694E00E94EE15FF
:1056E00066E086EB95E00E944B1580918B049091CB
:1056F0008C04892B09F41AC12091A5043091A604C9
:105700004091A7045091A80460E074E284EF90E017
:105710000E943E3320513109410951095695479560
:10572000379527952093B800B2CE61E0809194041C
:105730000E94530761E0809195040E945307809175
:105740009404082E000C990BFC01E056F54FE491EF
:10575000F0E0EE0FFF1FEE58F54F25913491309396
:105760009C0420939B04FC01EE57F54FE491E093D9
:10577000A10480919504082E000C990BFC01E056C1
:10578000F54FE491F0E0EE0FFF1FEE58F54FA591B5
:10579000B491B0939E04A0939D04FC01EE57F54F85
:1057A000E491E093A2048C91E82BEC93809189041E
:1057B00090918A04892B09F434C01FB7F894809122
:1057C0001903811127C0EAEAFAE08491ECE8FAE0D3
:1057D0009491E82FF0E0EE0FFF1FE455FA4FA591EA
:1057E000B491EC91E92321F461E08AE00E94F9068A
:1057F00061E08AE00E9453078CB580618CBD8CB556
:1058000080648CBD61E08DE00E94530761E08BE015
:105810000E945307809119038F5F809319031FBF64
:10582000EFCE61E0809192040E94530761E0809185
:1058300093040E94530780919204082E000C990B48
:10584000FC01E056F54FE491F0E0EE0FFF1FEE583B
:10585000F54F259134913093980420939704FC01DF
:10586000EE57F54FE491E0939F0480919304082E46
:10587000000C990BFC01E056F54FE491F0E0EE0FBF
:10588000FF1FEE58F54FA591B491B0939A04A093E1
:105890009904FC01EE57F54FE491E093A0048C913C
:1058A000E095E823EC93ACCE8091890490918A0432
:1058B000892B31F08091A3049091A4040E944B168F
:1058C000E0919D04F0919E0490818091A2048095C6
:1058D00089238083C1CE8034910509F0F2CE63E044
:1058E0008FEB95E00E944B15809190046FE9813019
:1058F00009F06FEC8EE694E00E94EE15E2CE803661
:10590000910509F0DECE8091740490917504409762
:1059100009F0D7CE63E08CEB95E00E944B158091A7
:10592000900460E1813031F36FEAE4CFE0919D04AF
:10593000F0919E0480819091A204892B8083A7CD51
:105940008981803111F48CE00ACECE0101960E944B
:105950004C0905CE8B3309F413CE823409F0AFCD58
:105960000FCE1A82198242E050E0BE016F5F7F4F76
:1059700090E080E00E94792062E0E62EF12C10E0B9
:1059800000E0C7010E945220080F111D5FEFE51AC9
:10599000F50A84E1E816F104A1F70E5F1F4F898133
:1059A0009A810817190709F0D8C042E150E060E178
:1059B00071E082E090E00E9479200E94962010928F
:1059C000BE041092BF041092C00460E880E10E94FF
:1059D000B41860E881E10E94B41860E882E10E9496
:1059E000B41880E896E3AEEBB6E28093250190937D
:1059F0002601A0932701B093280162E987EB0E945A
:105A0000B4180E94941C0E94AE1C0E94621D0E9449
:105A1000741D0E94471E0E948F1F0E94CD2110926C
:105A20007B0410927A0410927D0410927C0481E031
:105A300090E0909381048093800490937F048093FE
:105A40007E0483E0809382048093830481E091E06C
:105A50000E947F2181E080938204809383048FE8F9
:105A600092E00E947F210E944E1668EE73E080E073
:105A700090E00E94CC070E94ED215CEA252E5AE0BE
:105A8000352E84E00E94D00620910801892B09F070
:105A90006AC5222361F0109208010E94FF076093FB
:105AA0001A0370931B0380931C0390931D03809132
:105AB000B404823008F068C0F89489EA94E00E9447
:105AC000851D6091B0047091B1048091B2049091F1
:105AD000B304789424E030E040E050E00E941433B6
