:100000000C9452050C94F42D0C94CC2D0C947A0580
:100010000C947A050C947A050C947A050C947A0564
:100020000C947A050C947A050C947A050C947A0554
:100030000C947A050C947A050C947A050C947A0544
:100040000C94582C0C947A050C947A050C947A052F
:100050000C947A050C947A050C947A050C947A0524
:100060000C94AD2C0C947A05000103070F1F3F7F01
:100070000080C0E0F0F8FCFE00000000003E5B4F96
:100080005B3E3E6B4F6B3E1C3E7C3E1C183C7E3CF8
:10009000181C577D571C1C5E7F5E1C00183C180006
:1000A000FFE7C3E7FF0018241800FFE7DBE7FF3096
:1000B000483A060E2629792926407F050507407F04
:1000C00005253F5A3CE73C5A7F3E1C1C08081C1C77
:1000D0003E7F14227F22145F5F005F5F06097F016D
:1000E0007F006689956A606060606094A2FFA29458
:1000F00008047E040810207E201008082A1C080826
:100100001C2A08081E101010100C1E0C1E0C303873
:100110003E3830060E3E0E06000000000000005F74
:1001200000000007000700147F147F14242A7F2A90
:100130001223130864623649562050000807030052
:10014000001C2241000041221C002A1C7F1C2A089E
:10015000083E080800807030000808080808000001
:1001600060600020100804023E5149453E00427F75
:10017000400072494949462141494D331814127FC4
:100180001027454545393C4A494931412111090764
:100190003649494936464949291E000014000000E5
:1001A00040340000000814224114141414140041B7
:1001B00022140802015909063E415D594E7C121174
:1001C000127C7F494949363E414141227F414141AC
:1001D0003E7F494949417F090909013E4141517327
:1001E0007F0808087F00417F41002040413F017F98
:1001F000081422417F404040407F021C027F7F0460
:1002000008107F3E4141413E7F090909063E4151A8
:10021000215E7F09192946264949493203017F0198
:10022000033F4040403F1F2040201F3F4038403F99
:10023000631408146303047804036159494D4300AF
:100240007F4141410204081020004141417F0402E6
:10025000010204404040404000030708002054547D
:1002600078407F284444383844444428384444285B
:100270007F385454541800087E090218A4A49C78AE
:100280007F0804047800447D40002040403D007F0A
:100290001028440000417F40007C047804787C08EA
:1002A0000404783844444438FC18242418182424BE
:1002B00018FC7C08040408485454542404043F44A3
:1002C000243C4040207C1C2040201C3C4030403CD2
:1002D00044281028444C9090907C4464544C440032
:1002E0000836410000007700000041360800020196
:1002F0000204023C2623263C1EA1A161123A404082
:10030000207A3854545559215555794122545478FE
:1003100042215554784020545579400C1E52721297
:100320003955555559395454545939555454580020
:1003300000457C410002457D420001457C407D1224
:1003400011127DF0282528F07C5455450020545486
:100350007C547C0A097F4932494949323A44444431
:100360003A324A4848303A4141217A3A424020786C
:10037000009DA0A07D3D4242423D3D4040403D3C6D
:1003800024FF2424487E4943662B2FFC2F2BFF0992
:1003900029F620C0887E0903205454794100004486
:1003A0007D413048484A32384040227A007A0A0A71
:1003B000727D0D19317D2629292F282629292926E4
:1003C00030484D4020380808080808080808382F29
:1003D00010C8ACBA2F102834FA00007B00000814B3
:1003E0002A142222142A14085500550055AA55AA89
:1003F00055AAFF55FF55FF000000FF00101010FF29
:1004000000141414FF001010FF00FF1010F010F083
:10041000141414FC001414F700FF0000FF00FF1474
:1004200014F404FC141417101F10101F101F1414C0
:10043000141F00101010F0000000001F101010100A
:100440001F10101010F010000000FF1010101010FE
:1004500010101010FF10000000FF140000FF00FF3C
:1004600000001F10170000FC04F4141417101714D8
:1004700014F404F40000FF00F714141414141414FA
:10048000F700F7141414171410101F101F1414146D
:10049000F4141010F010F000001F101F0000001FD7
:1004A00014000000FC140000F010F01010FF10FF0A
:1004B000141414FF141010101F00000000F010FF9F
:1004C000FFFFFFFFF0F0F0F0F0FFFFFF0000000083
:1004D00000FFFF0F0F0F0F0F3844443844FC4A4A07
:1004E0004A347E02020606027E027E0263554941BC
:1004F000633844443C04407E201E2006027E0202F3
:1005000099A5E7A5991C2A492A1C4C7201724C3006
:100510004A4D4D303048784830BC625A463D3E49DD
:100520004949007E0101017E2A2A2A2A2A44445F81
:10053000444440514A444040444A51400000FF0175
:1005400003E080FF000008086B6B08361236243683
:10055000060F090F060000181800000010100030E8
:1005600040FF0101001F01011E00191D1712003C70
:100570003C3C3C0000000000005EBCE2613FDD83CB
:10058000C29C7E20A3FD1F41009D23BE46DB65F873
:100590008C11AF32CA57E974000000002400270014
:1005A0002A00DB40A4A62EAFDA0281DA1281DA0239
:1005B000818F2000A1C8D300408DAED580A8000057
:1005C0000000250028002B00000060000000000053
:1005D000000000000000000000E00000000000003B
:1005E0000000000000000001E0000000000000002A
:1005F00000000000000001F000000000000000000A
:10060000000000000003F0000000000000000000F7
:100610000000000007F000000000000000000000E3
:1006200000000007F80000000000000000000000CB
:1006300000000FF800000003C0007E000001E00091
:100640007F0FF800000003C000FE000001E000FF83
:10065000EFF800000003C000FE000001E000FFFF13
:10066000F800000003C000F00000000F007FFE7FD4
:10067000C0000003C000F00000000F003FFE7FF844
:100680003FF1FBCFFCFEF3BC3DEFE01FFE7FFF7FA1
:10069000FBFFDFFEFEFFBC3DEFE01FC6FFFF7FFB61
:1006A000FFDFFEFEFFBC3DEFE00FE3C7FE787BC33C
:1006B000DE1EF0FFBC3DEF0007FF87FC787BC3DE4A
:1006C0001EF0F83C3DEF0001FFFFF0007BC3C01EB1
:1006D000F0F03C3DEF0001F37FE03FFBC3CFFEF0C5
:1006E000F03C3DEF0003E33F807FFBC3DFFEF0F013
:1006F0003C3DEF0007E73C00787BC3DE1EF0F03C9A
:100700003DEF0007FFBE00787BC3DE1EF0F03C3DEE
:10071000EF0007FFFE00787BC3DE1EF0F03C3DEFEC
:10072000000FFFFE007FFBFFDFFEF0F03FFDEFE07C
:100730000FFFFF007FFBFFDFFEF0F03FFDEFE00F5C
:10074000F9FF003E79F9CF9EF0F01F3DE7E01FF181
:10075000FF0000000000000000000000001F80FFFC
:10076000007FFFFFFFFFFFFFFFFFFFE01C007F0098
:100770007FFFFFFFFEB46D888D18E000001F007F33
:10078000FFFFFFFE95AD7DB577E000000F007FFF16
:10079000FFFFFEA5AD9D8D19E0000006007FFFFF65
:1007A000FFFEB5ADEDB57EE0000000000001800069
:1007B00000000000000000000380000000000000B6
:1007C00000000007C000000000000000000007C09B
:1007D0000000000000000000000FC000000000004A
:1007E000000000001FE00000000000000000001FEB
:1007F000E00000000000000000003FE000000000FA
:1008000000000000003FF0000000000000000000B9
:100810007FF0000000000000001FF87FF0000000E3
:10082000000000003FFE7FF0000000000000003FDD
:10083000FF7FF0000000000000001FFFFBE0000051
:1008400000000000000FFFF9FFC0000000000000E2
:100850000FFFF9FFF800000000000007FFF1FFFFA5
:1008600000000000000003FC73FFFF800000000098
:100870000001FE3FFFFF80000000000000FF1E0F90
:10088000FF000000000000007FFE1FFC00000000D1
:100890000000003FFFFFF8000000000000000FDF35
:1008A000FFE0000000000000001F19FFC000000072
:1008B000000000003F3CFF00000000000000007E40
:1008C0007CF800000000000000007FFE7C000000BB
:1008D0000000000000FFFFFC00000000000000001E
:1008E000FFFFFE0000000000000000FFFFFE000010
:1008F000000000000001FFEFFE000000000000000B
:1009000001FFCFFE0000000000000003FF07FE0013
:1009100000000000000003FC07FE000000000000D3
:100920000003F003FE00000000000000018000FE54
:10093000000000000000000000007E000000000039
:1009400000000000003E0000000000000000000069
:100950000C000000000000078000FC000003C00045
:100960000000078001FC000003C0000000078001B8
:10097000FC000003C0000000078001E00000001E32
:10098000000000078001E00000001E007FE3F79FE9
:10099000F9FDE7787BDFC0FFF7FFBFFDFDFF787B48
:1009A000DFC0FFF7FFBFFDFDFF787BDFC0F0F787FB
:1009B000BC3DE1FF787BDE00F0F787BC3DE1F078DD
:1009C0007BDE0000F787803DE1E0787BDE007FF78B
:1009D000879FFDE1E0787BDE00FFF787BFFDE1E068
:1009E000787BDE00F0F787BC3DE1E0787BDE00F04D
:1009F000F787BC3DE1E0787BDE00F0F787BC3DE1A6
:100A0000E0787BDE00FFF7FFBFFDE1E07FFBDFC0AA
:100A1000FFF7FFBFFDE1E07FFBDFC07CF3F39F3D0D
:100A2000E1E03E7BCFC000000000000000000000BD
:100A300000FFFFFFFFFFFFFFFFFFFFC0FFFFFFFF04
:100A4000FD68DB111A31C0FFFFFFFFFD2B5AFB6A67
:100A5000EFC0FFFFFFFFFD4B5B3B1A33C0FFFFFF03
:100A6000FFFD6B5BDB6AFDC02200FF210001020479
:100A70000810204080010204081020010204081020
:100A800020000000002300260029000404040404C0
:100A9000040404020202020202030303030303002C
:100AA0001C2EF53511241FBECFEFD8E0DEBFCDBF21
:100AB00024E0A4E0B3E001C01D92A73AB207E1F739
:100AC00013E0A0E0B1E0E2E3F4E702C005900D928C
:100AD000A430B107D9F715E0C1E5D5E004C02197EE
:100AE000FE010E94D236C035D107C9F70E94972F68
:100AF0000C940C3A0C94000091E0909307048093BE
:100B00000604109205041092040408959091FB03CA
:100B10009111FCCF91E09093FB039093FA032FEF98
:100B20002093F9031092F803260F2093F703909374
:100B3000F6039091F603880F892B8093F60380913A
:100B4000F503813011F51092F5038091F60380933F
:100B5000BB008091BC0083FDF8CF85EC8093BC0086
:100B60008091FB038130E1F38091F803861710F444
:100B70006091F80325ED33E0A5EBB3E0F9018E2F8A
:100B8000821B861720F0862F089585EEE7CF81918E
:100B90008D93F5CF8F929F92AF92BF92CF92DF92BB
:100BA000EF92FF92CF93611571058105910521F4B4
:100BB00061E070E080E090E023E0660F771F881F1F
:100BC000991F2A95D1F76115710521E082079105DA
:100BD00008F44EC06115710528E08207910508F4FC
:100BE0004BC06115710520E48207910508F048C0EB
:100BF00020E430E0C3E06901F12CE12CA7010E9460
:100C00003D3849015A0180918000807F80938000A7
:100C1000C861C0938100C9010197909387008093B8
:100C200086008091810087708093B40360E072E158
:100C30008AE790E0A70196010E941338AA24BB24FA
:100C4000CA01B901A50194010E94133860E472E45D
:100C50008FE090E00E943D38CA01B901CF91FF902A
:100C6000EF90DF90CF90BF90AF909F908F900895BE
:100C700021E030E0C1E0BFCF28E030E0C2E0BBCFF0
:100C800020E031E0C4E0B7CF8091B2039091B3038C
:100C9000891B990B089508950895482FE62F282F52
:100CA00030E0863009F459C000F58330E1F1853039
:100CB00009F44FC04830E0F14E3010F1443108F0F3
:100CC00063C02E50310981E090E0A0E0B0E004C0A4
:100CD000880F991FAA1FBB1F2A95D2F728B1EE23B0
:100CE00009F44FC0822B88B908958A30C9F18B303E
:100CF000D9F18930F9F6809180008F778093800058
:100D00002850310981E090E0A0E0B0E004C0880FF5
:100D1000991FAA1FBB1F2A95D2F7E1112EC025B13A
:100D2000809582232CC09091B0009F7D9093B0005D
:100D300081E090E0A0E0B0E004C0880F991FAA1FF6
:100D4000BB1F4A95D2F72BB1EE23A1F0822B8BB9B2
:100D5000089594B59F7D94BDEBCF94B59F77FBCF5D
:100D6000809180008F7DCACF8091B0008F77809373
:100D7000B000C6CF80958223EACF25B1822B85B9FA
:100D8000089580958223AFCF08951092B3031092F7
:100D9000B20310920504109204041092FB0381E048
:100DA0008093FA031092F503449A459AE9EBF0E038
:100DB00080818E7F808380818D7F808380E280939D
:100DC000B80085E48093BC008BE496E09093B10377
:100DD0008093B0038CE496E09093AF038093AE03CE
:100DE00008950895CF92DF92EF92FF920F931F9391
:100DF000613009F45BC0623009F490C08830C8F4F7
:100E00009AB141E050E060E070E004C0440F551F2B
:100E1000661F771F8A95D2F7409594239AB98BB1B4
:100E200048234BB91F910F91FF90EF90DF90CF9027
:100E300008958E30B0F424B1082F0850110B81E0D2
:100E400090E0A0E0B0E004C0880F991FAA1FBB1F6C
:100E50000A95D2F78095282324B995B1892385B9BD
:100E6000E1CF8431F8F6E7B190E09C012E503109D2
:100E700041E050E060E070E06A017B0104C0CC0C0E
:100E8000DD1CEE1CFF1C2A95D2F7860100950E236F
:100E900007B928B1089704C0440F551F661F771F74
:100EA0008A95D2F74095422348B9BCCF883078F470
:100EB0009AB141E050E060E070E004C0440F551F7B
:100EC000661F771F8A95D2F7942B9AB9ABCF8E30D5
:100ED00088F424B18850990B41E050E060E070E064
:100EE00004C0440F551F661F771F8A95D2F7242B25
:100EF00024B998CF843108F095CF27B18E50990B43
:100F000041E050E060E070E004C0440F551F661FF0
:100F1000771F8A95D2F7242B27B984CF8830B8F46D
:100F20003AB141E050E060E070E07A018B0104C02A
:100F3000EE0CFF1C001F111F8A95D2F7C7012E2D42
:100F4000209523232AB92BB1822B8BB96BCF8E30FE
:100F5000B0F434B1082F0850110B81E090E0A0E00C
:100F6000B0E004C0880F991FAA1FBB1F0A95D2F7D3
:100F7000282F2095232324B925B1822B70CF8431CB
:100F800008F050CF37B1682F6E50770B81E090E0BA
:100F9000A0E0B0E004C0880F991FAA1FBB1F6A958C
:100FA000D2F7282F2095232327B928B1822B88B97F
:100FB00039CFCF92DF92EF92FF920F931F93CF938F
:100FC000DF937C016A0110E000E00C151D0581F043
:100FD000EB01D701ED91FC910190F081E02D699139
:100FE000C7010995892B21F00F5F1F4FBE01EDCF7F
:100FF000C801DF91CF911F910F91FF90EF90DF908B
:10100000CF900895880F991F04970197F1F70895DD
:101010003FB7F8948091840390918503A091860353
:10102000B091870326B5A89B05C02F3F19F0019604
:10103000A11DB11D3FBFBA2FA92F982F8827BC0132
:10104000CD01620F711D811D911D43E0660F771F59
:10105000881F991F4A95D1F708958F929F92AF925A
:10106000BF92CF92DF92EF92FF926B017C010E94C0
:1010700008084B015C01C114D104E104F104B9F08A
:101080000E940808681979098A099B09683E73401B
:101090008105910580F381E0C81AD108E108F108C3
:1010A00028EE820E23E0921EA11CB11CE4CFFF901B
:1010B000EF90DF90CF90BF90AF909F908F9008956A
:1010C0002FB7F8946091800370918103809182031F
:1010D000909183032FBF08952091000190E4299FF0
:1010E000900111248E50822B80937C0080917A0095
:1010F000806480937A0080917A0086FDFCCF809195
:101100007800909179000895E0E0615098F0DC015A
:101110008D918E27E82FEF70F0E0E858FA4F949108
:10112000E82FE295EF70F0E0E857FA4FE491E927F5
:10113000CD01EBCF8E2F08950F931F93CF93DF93A5
:10114000FC011081C181D281F8948981812B89832E
:101150008A81012F009580238A8383E090E00E949A
:1011600002088981802389838AE090E00E94020836
:10117000C881789485E390E00E940208C12381E051
:1011800009F480E0DF91CF911F910F9108951F9393
:10119000CF93DF93FC011081C181D281912F909573
:1011A00060FF16C0F8948A8189238A838981812B04
:1011B00089838AE090E00E9402088A81182B1A83B2
:1011C000789487E390E0DF91CF911F910C9402080F
:1011D000F8948A8189238A838981812B898381E498
:1011E00090E00E9402088A81182B1A83789485E087
:1011F00090E0E9CFDF92EF92FF920F931F93CF938E
:10120000DF93EC01D62EE42E08E010E0FF24F394E7
:1012100061E08D2D8F2109F460E0CE010E94C708A6
:10122000FF0C01501109A1F7E11010C0F894E981F9
:10123000FA8191818881809589238183E981FA816E
:10124000928188818095892382837894DF91CF91E0
:101250001F910F91FF90EF90DF900895EF92FF9212
:101260000F931F93CF93DF938C017B0140E065E5E3
:101270000E94FA08E70188E0E80EF11C699140E05D
:10128000C8010E94FA08CE15DF05C1F7DF91CF91A2
:101290001F910F91FF90EF9008950895FC016370E6
:1012A000668B8481958126813781623021F063309D
:1012B00039F0613029F0918780873387228708953C
:1012C000318720879387828708952F923F924F928C
:1012D0005F926F927F928F929F92AF92BF92CF92C6
:1012E000DF92EF92FF920F931F93CF93DF93CDB7CF
:1012F000DEB76A970FB6F894DEBF0FBECDBF9A8FE8
:10130000898F7A8369834A01D22E18870F83370128
:10131000BC2CDC0159962D913C915A972115310531
:1013200009F015C118968D919C9119976817790746
:101330000CF0D7C11A968D919C91481759070CF063
:10134000D0C14C2C512CB6E0CB9E600D711D1124E8
:101350007C876B87161617060CF0C3C1EA2DF0E0E8
:10136000FA87E98793E0EE0FFF1F9A95E1F7F88B74
:10137000EF87CF01840F951F181619060CF0B1C125
:10138000A98DBA8D58968C91811104C0BFEABD1504
:1013900008F4D394A98DBA8DED91FC911197028434
:1013A000F385E02DCD010995B5E0DB9EC001112448
:1013B000E981FA81FC83EB83312C212C9C01285894
:1013C0003F4F388F2F8B4A2D50E05E8B4D8BEF892E
:1013D000F88DE20DF31D44919E828D82D12CC12C9B
:1013E00069817A81620D731D7A8B698B842F90E0FD
:1013F0009C8B8B8BE98DFA8DA081B18140FF82C0DF
:10140000F1E0BF126FC0AF126DC01C96ED91FC9160
:101410002F813885A4014C0D5D1D69897A89898DDC
:101420009A8D0995EB89FC89F595E7954E2F5FEF2D
:10143000C51AD50A6D817E818D899E89680F791FB5
:101440007E836D8398E0C916D10481F6AFEF2A1A26
:101450003A0AEB81FC81E40DF51DFC83EB83F5E09A
:101460002F16310409F0B3CF2F81388526153705A3
:10147000B9F0A98DBA8DED91FC91B1E0BB1257C0C6
:10148000AB1255C069817A816B5F7F4F0088F1890B
:10149000E02D830128E030E0A401898D9A8D099523
:1014A000A98DBA8DED91FC9111970688F789E02DF1
:1014B000CD016A960FB6F894DEBF0FBECDBFDF91A7
:1014C000CF911F910F91FF90EF90DF90CF90BF9041
:1014D000AF909F908F907F906F905F904F903F90D4
:1014E0002F9009941E96ED91FC91EF80F884098568
:1014F0001A8592014D815E816B817C81898D9A8DE7
:10150000099590CF2F8138852615370509F48ACFA4
:1015100031E0B31207C0A31205C01C96ED91FC91F7
:10152000930178CF1E96ED91FC917301E0CF6B850E
:101530007C85641975090684F785E02D73010F8594
:1015400018899201A401898D9A8D0995A9CFF90175
:1015500034969491329745915491D91AB7E0DB9E15
:10156000400D511D1124F901259134913C8B2B8B99
:10157000FA0125903490FA013296749031963491A4
:10158000398B329664903196449041E04C1518F0B6
:101590004A1508F07FC0662D062C000C770B7C8363
:1015A0006B83842D042C000C990B9E838D83A98D55
:1015B000BA8DED91FC9111970284F385E02DCD0158
:1015C0000995512CD12CC12CEA2DF0E0FA87E9873E
:1015D0002B2D30E03C872B87A401440D511D47FC87
:1015E0005A95588F4F8B69817A81660D711D67FC02
:1015F0007A957E876D877989C71608F051CF2C2D93
:1016000030E04D815E81420F531FA985BA854A9F04
:10161000C0014B9F900D5A9F900D1124FC01E80DC5
:10162000F91DF88BEF87852D612C4F89588D420F5E
:10163000531F5E8B4D8B671408F050C044244394B5
:10164000480E877041F4C1010196EB89FC89E20DD7
:10165000F31DD4901C01D7FE19C0A98DBA8DED9150
:10166000FC91662D70E0B1E0BB1219C0AB1217C03F
:101670002D853E85620F731F0484F585E02D2F8133
:1016800038854D895E89898D9A8D0995DD0C639425
:10169000842DD1CF1E821D821C821B8288CF4B815C
:1016A0005C81640F751FAB85BC856A9FC0016B9F11
:1016B000900D7A9F900D112469817A81680F791FAE
:1016C0000684F785E02DEF80F88409851A859D0151
:1016D0004F855889898D9A8D0995D8CF570CC39419
:1016E0008ACF6A960FB6F894DEBF0FBECDBFDF91EA
:1016F000CF911F910F91FF90EF90DF90CF90BF900F
:10170000AF909F908F907F906F905F904F903F90A1
:101710002F9008958F929F92AF92CF92EF92FF9267
:101720000F931F93CF93DF93EC01262F898D9A8D12
:10173000009709F051C06A30D1F41D861C868D894E
:1017400048E0849F900111248E859F85820F931F0E
:101750009F878E8781E090E0DF91CF911F910F915D
:10176000FF90EF90CF90AF909F908F9008956D3045
:1017700089F3CC88AD888F898823C1F08C859D85BD
:1017800036E0C39E800D911D112448855985481768
:10179000590764F44E855F851D861C8638E0A39E3C
:1017A000C0011124840F951F9F878E87EA88FB88CC
:1017B000088919894E855F856C857D85CE010E94DB
:1017C00065092C898C859D8546E0249F800D911D9F
:1017D00011249D878C87BECF6A3069F41D861C86D4
:1017E000FC013896E4912D898E859F85E29F800DBE
:1017F000911D1124ADCF6D3009F4ACCFFC013496AE
:101800003491631708F4A6CF3296E491E61708F4F2
:10181000A1CFFC01329685909490462F431B342F24
:1018200047E0349F800C911C1124F40132963491CE
:101830003196E4913323A9F1EE2399F1CC88F40198
:101840003596E491AD884F89442301F10E2E000CAA
:10185000FF0BE30FF11DCE9EA001CF9E500D112472
:101860006C857D85460F571F6885798564177507D8
:101870006CF44E855F851D861C86FC013896E491CC
:10188000AE9E400D511D11245F874E87EA88FB886C
:10189000088919894E855F856C857D85CE010E94FA
:1018A0006509F4013496E4912C898C859D85E29F2D
:1018B000800D911D11248DCF682F8AE394E00C9444
:1018C0008A0B6F927F928F929F92AF92BF92CF922C
:1018D000DF92EF92FF920F931F93CF93DF93EC0170
:1018E0006B015A0139014801E881F9810284F385CD
:1018F000E02D0995E881F9810288F389E02D8701BF
:101900009301A501B601CE010995A501480D591D08
:1019100041505109E881F9810288F389E02D930152
:10192000B601CE010995E881F9810088F189E02DA1
:101930009401A501B601CE010995C60CD71CB601CC
:1019400061507109E881F9810088F189E02D9401E5
:10195000A501CE010995E881F9810688F789E02D76
:10196000CE01DF91CF911F910F91FF90EF90DF900B
:10197000CF90BF90AF909F908F907F906F90099481
:101980008F929F92AF92BF92CF92DF92EF92FF928F
:101990000F931F93CF93DF934C016B015A01E90121
:1019A000DC01ED91FC916217730709F50417150727
:1019B00024F48B2D5801042F182F0A191B099801A4
:1019C0002F5F3F4F048CF58DE02D8701A501B601F7
:1019D000C4010995DF91CF911F910F91FF90EF9076
:1019E000DF90CF90BF90AF909F908F900895401759
:1019F000510781F42617370724F48D2D6901C62F6E
:101A0000D82F9E012C193D092F5F3F4F068CF78D73
:101A1000E02DDBCF0284F385E02D0995D401ED9113
:101A2000FC910488F589E02D9E01A501B601C40151
:101A30000995D401ED91FC910688F789E02DC40148
:101A4000DF91CF911F910F91FF90EF90DF90CF909A
:101A5000BF90AF909F908F900994EF92FF920F9359
:101A60001F93DC011A960D911C911B9718962D91CE
:101A70003C911997ED91FC9100A0F1A1E02D7B0123
:101A800050E040E070E060E009951F910F91FF90F9
:101A9000EF9008954F925F926F927F928F929F92F4
:101AA000AF92BF92CF92DF92EF92FF920F931F936C
:101AB000CF93DF936C012B015A0139014801DC01FE
:101AC000ED91FC910284F385E02D0995E201640C0F
:101AD000751CD601ED91FC91C615D7055CF4008804
:101AE000F189E02D87019401A501BE01C601099588
:101AF0002196EFCF0688F789E02DC601DF91CF91BF
:101B00001F910F91FF90EF90DF90CF90BF90AF901B
:101B10009F908F907F906F905F904F9009948F92DD
:101B20009F92AF92BF92CF92DF92EF92FF920F936C
:101B30001F93CF93DF93EC015B014A016901E881B8
:101B4000F9810284F385E02D099595012C0D3D1D49
:101B500021503109E881F9810488F589E02D780167
:101B60008401A401B501CE010995E881F9810688B7
:101B7000F789E02DCE01DF91CF911F910F91FF905A
:101B8000EF90DF90CF90BF90AF909F908F9009948F
:101B90008F929F92AF92BF92CF92DF92EF92FF927D
:101BA0000F931F93CF93DF93EC015B014A0169010F
:101BB0007801E881F9810284F385E02D0995C80C4C
:101BC000D91C860101501109E881F9810488F58941
:101BD000E02D9501A401B501CE010995E881F981B7
:101BE0000688F789E02DCE01DF91CF911F910F91EB
:101BF000FF90EF90DF90CF90BF90AF909F908F902D
:101C00000994EF92FF920F931F93DC01ED91FC91E9
:101C100000A0F1A1E02D09951F910F91FF90EF9089
:101C200008950F931F93DC01ED91FC91068CF78DC5
:101C3000E02D09951F910F9108950F931F93DC01DB
:101C4000ED91FC91048CF58DE02D09951F910F917C
:101C50000895DC01ED91FC910084F185E02D09945B
:101C60003F924F925F926F927F928F929F92AF922C
:101C7000BF92CF92DF92EF92FF920F931F93CF9379
:101C8000DF935C017B014A016901390187E0680E3D
:101C9000711C93E0759467949A95E1F72B01400EBF
:101CA000511E10E000E0312CD0E0C0E0CE01877082
:101CB0009927330C892B59F4FE0183E0F595E795BC
:101CC0008A95E1F7E00FF11FE80DF91D349037FE1A
:101CD0000AC021E030E0A701B5016C0F7D1F8AE347
:101CE00094E00E94290E2196CC16DD06F9F68FEFBE
:101CF000E81AF80A060D171DE414F504A9F6DF9199
:101D0000CF911F910F91FF90EF90DF90CF90BF90F8
:101D1000AF909F908F907F906F905F904F903F908B
:101D200008952F923F924F925F926F927F928F927F
:101D30009F92AF92BF92CF92DF92EF92FF920F935A
:101D40001F93CF93DF9300D000D000D0CDB7DEB784
:101D50002C017E836D836A015901C801FC82EB82EC
:101D60004801841A950A97FE03C0919481949108C2
:101D700035012D813E81621A730A77FE03C071948A
:101D800061947108681479045CF43A2D2B2D5C0180
:101D9000832F922F3D812E81DE82CD82C32ED22EC3
:101DA000AD81BE81AA16BB065CF43C2D2D2D6C01C5
:101DB000832F922F3D812E81BE82AD82A32EB22E23
:101DC00085012D813E81021B130B1C012C183D083F
:101DD00037FE03C0319421943108780117FF03C006
:101DE0003FEFE31AF30AF594E794C816D90664F1B5
:101DF0008FEF9FEF9A8389832D813E81A216B306D0
:101E000044F1D201ED91FC910484F585E02D2B8104
:101E10003C814D815E81B601681479041CF0A601F5
:101E20006D817E81C2010995E218F308F7FE06C0B4
:101E300029813A81C20ED31EE00EF11E8D819E8152
:101E400001969E838D83D8CFA1E0B0E0BA83A983A9
:101E5000D3CF26960FB6F894DEBF0FBECDBFDF916D
:101E6000CF911F910F91FF90EF90DF90CF90BF9097
:101E7000AF909F908F907F906F905F904F903F902A
:101E80002F90089585ED8093BC008091BC0084FD67
:101E9000FCCF1092FB03089520915C03260F33279B
:101EA000331F21323105ECF42091FB03FC0190E05B
:101EB00080E0243069F082E00895A0915C032191D4
:101EC000AC01445C5C4FA40FB52FB11D2C9301965F
:101ED000861798F380915C03680F60935C0380E041
:101EE000089581E00895E091B3038091B203E8176B
:101EF00030F4F0E0EB54FC4F808190E008958FEFD8
:101F00009FEF08959091B3038091B2032FEF3FEFBD
:101F1000981748F4E92FF0E0EB54FC4F208130E0B3
:101F20009F5F9093B303C9010895CF92DF92EF9220
:101F3000FF920F931F93CF93DF937C01CB018A0114
:101F400020910704222389F0EB016B01C40ED51EFA
:101F5000CC15DD0569F06991D701ED91FC910190F7
:101F6000F081E02DC7010995F3CF642F0E944C0F3B
:101F7000C801DF91CF911F910F91FF90EF90DF90FB
:101F8000CF900895CF93DF930F92CDB7DEB76983DB
:101F9000209107042223F9F020910404203258F004
:101FA00021E030E0FC013383228390E080E00F9059
:101FB000DF91CF91089580910504E82FF0E0E45E71
:101FC000FC4F998190838F5F809305048093040474
:101FD00081E090E0ECCF61E0CE0101960E944C0FD1
:101FE000F7CF682F8EE294E00C94C20F2091040486
:101FF00081E0213208F046C08091FB038111FCCFC3
:102000009091060432E03093FB0331E03093FA0301
:102010003FEF3093F9031092F8032093F7034CE15C
:1020200053E0A5EDB3E0FA013E2F341B321788F1DF
:102030001092F6032091F603990F922B9093F603DA
:102040009091F503913041F51092F5039091F603CC
:102050009093BB009091BC0093FDF8CF95EC9093CA
:10206000BC009091FB039230E1F39091F9039F3F04
:1020700049F08091F903803289F08091F90380332F
:1020800079F084E010920504109204041092070481
:10209000089531913D93C8CF95EEE1CF82E0F2CF24
:1020A00083E0F0CFCF9388E60E947C0560E08EE26B
:1020B00094E00E94C20F60E88EE294E00E94C20F9A
:1020C0008091FD03CAE06C2F0E9414368295807FB8
:1020D000682F690F8EE294E00E94C20F8091FE0388
:1020E0006C2F0E9414368295807F682F690F8EE2D4
:1020F00094E00E94C20F8091FF036C2F0E9414365F
:102100008295807F682F690F8EE294E00E94C20F53
:10211000809100046C2F0E9414368295807F682F76
:10212000690F8EE294E00E94C20F809101046C2F2F
:102130000E9414368295807F682F690F8EE294E0AA
:102140000E94C20F809102048E516C2F0E9414369F
:102150008295807F682F690F8EE294E00E94C20F03
:102160008EE294E00E94F60F882329F01092030477
:1021700080E0CF91089581E08093030488E60E9477
:102180007C0560E08EE294E00E94C20F8091FC0327
:102190006C2F0E9414368295807F682F690F8EE223
:1021A00094E00E94C20F8EE294E00E94F60F81112B
:1021B000DDCF81E0DECFBF92CF92DF92EF92FF9230
:1021C0000F931F93CF93DF938C017B01E40EF51ED9
:1021D000EB01B99068018FEFC81AD80A8091A20468
:1021E0000E947C05812F90E00E94F10FC801992781
:1021F0000E94F10F6B2D8EE294E00E94C20F8EE2DE
:1022000094E00E94F60F6AE070E080E090E00E94A7
:102210002D08BE018601CE15DF05D1F6DF91CF91E5
:102220001F910F91FF90EF90DF90CF90BF90089596
:102230000F931F93CF93DF93EC01EC81FD816E1719
:102240007F070CF073C0DA01A20FB31F57FF03C062
:102250009D0150E040E08E819F818A179B071CF40E
:102260009C01241B350B121613060CF05FC0922F35
:10227000842F8695869586958E9FD0018F9FB00D71
:102280001124A60FB71F6F8D78A1A60FB71F477037
:1022900059F188E0841B482F682F70E0FB01E0595A
:1022A000FF4FE491281708F065C0621B71092FEFFA
:1022B00030E002C0359527956A95E2F7E2230130B8
:1022C000110549F001151105B1F10230110571F543
:1022D0008C91E82702C08C91E82BEC93941730F195
:1022E0002C813D81A20FB31FE92FE41BE83078F069
:1022F0000230110521F58E2F9C9190959C932C8195
:102300003D81A20FB31F88508830B0F7E770EE23ED
:1023100069F0F0E0E859FF4FE49101301105F9F060
:102320000115110501F10230110509F1DF91CF917D
:102330001F910F910895E0958C91E823CECF81E015
:102340000115110509F480E081959E2F8C932C8155
:102350003D81A20FB31F98509830C0F7D7CF8C9112
:10236000E82BEC93E3CFE0958C91E823FACF8C91A6
:10237000E827F7CF0130110509F4ADCF011511059C
:10238000D1F20230110509F4A3CFAACF0F931F9306
:10239000CF93DF93FB01E20FF31F77FF03C09F0191
:1023A00070E060E0DC011496CD91DC91CE17DF0780
:1023B0001CF49E01261B370B121613065CF5FA015E
:1023C00057FD3796A3E0F595E795AA95E1F7EC9FC1
:1023D000D001ED9FB00DFC9FB00D11246A0F7B1F43
:1023E000DC015F96ED91FC91E60FF71F47705527D2
:1023F00081E090E001C0880F4A95EAF7482F01304C
:10240000110569F001151105A9F02E0F3F1F0230CB
:102410001105E1F0DF91CF911F910F9108952E0FDB
:102420003F1FE217F307B1F3DF018D91842B808307
:10243000FD01F7CF80952E0F3F1F2E173F0751F359
:10244000DF019D9198239083FD01F7CFE217F307F9
:1024500009F3DF018D9184278083FD01F7CF0F936E
:102460001F93FA01DC0156964C9156974230E9F0E1
:102470004330A1F1413061F514964D915C91DA0140
:10248000AE1BBF0BFD01E21BF30B77FD0BC0DC01A4
:1024900016964D915C916417750724F4AB01BF014A
:1024A0000E94C6111F910F91089514964D915C9151
:1024B000DA01A61BB70BBD0161507109DC0116964C
:1024C0004D915C91DA01AE1BBF0BFD01E21BF30BDA
:1024D00077FDE8CFAF010E941811E4CF16964D9119
:1024E0005C91DA01A61BB70BBD0161507109CDCF1C
:1024F0000F931F93FA01DC0156964C915697423088
:10250000A9F0433091F1413019F514964D915C9149
:10251000DA01AE1BBF0BFD013197F7FD04C0AB0123
:10252000BF010E9418111F910F91089514964D91AB
:102530005C91DA01A61BB70BBD01DC0116964D912B
:102540005C91DA01AE1BBF0BFD013197621B730B6F
:10255000F7FDE9CFDC0116964D915C91E417F50784
:1025600014F7AF010E94C611DECF16964D915C9113
:10257000DA01A61BB70BBD01621B730BCECFFC01AA
:1025800077FD66C080859185681779070CF060C07B
:1025900057FD5EC082859385481759070CF058C0D7
:1025A00086898230C1F0833039F1813041F48481F1
:1025B0009581841B950BAB01BC01615071092130E1
:1025C000310519F12115310509F443C022303105D7
:1025D00009F463C0089584819581DC01A61BB70BC3
:1025E000BD016150710986819781DC01A41BB50B87
:1025F000AD0141505109E3CF86819781861B970B2E
:10260000BA01AC0141505109DACFCA0157FD079612
:10261000A3E095958795AA95E1F7A481B5818A9F56
:1026200090018B9F300D9A9F300D1124620F731F04
:10263000078CF0A1E02DE60FF71F4770552721E02A
:1026400030E001C0220F4A95EAF78081822B808317
:102650000895CA0157FD079633E0959587953A95F9
:10266000E1F7A481B5818A9F90018B9F300D9A9FDD
:10267000300D1124620F731F078CF0A1E02DE60FBF
:10268000F71F4770552781E090E001C0880F4A95F9
:10269000EAF7809590818923DACFCA0157FD079622
:1026A00023E0959587952A95E1F7A481B5818A9FC6
:1026B00090018B9F300D9A9F300D1124620F731F74
:1026C000078CF0A1E02DE60FF71F4770552721E09A
:1026D00030E001C0220F4A95EAF780818227B7CF08
:1026E00008958EBD00000DB407FEFDCF8EB5089590
:1026F000FF920F931F93CF93DF93F82ED92FC62FFE
:102700008091570490915804892B09F447C0809117
:102710005B040E947C058091570490915804DC0171
:10272000ED91FC910190F081E02D60E009950F2D75
:102730001D2FD1E0C1508091570490915804CF3F94
:1027400031F1D03298F00E94F60F80915B040E9424
:102750007C058091570490915804DC01ED91FC9127
:102760000190F081E02D60E00995D1E0809157045F
:1027700090915804F8016491DC01ED91FC91019075
:10278000F081E02D0995DF5F0F5F1F4FD3CFDF9101
:10279000CF911F910F91FF900C94F60FE091670479
:1027A000F0916804908180916D04809589238083E5
:1027B0000F2D1D2FC15008F438C0F80184912091CD
:1027C000550430915604232B29F00E9471130F5F9A
:1027D0001F4FF0CF28E030E040E8E0916304F09133
:1027E000640490916B04582F5423D9F05081952B99
:1027F0009083E0916504F0916604908150916C049F
:10280000952B9083E0916504F0916604508190913E
:102810006C04909595239083469521503109E9F6F3
:10282000D6CF508190959523E3CFDF91CF911F9123
:102830000F91FF9008951F93CF93DF93EC01162F14
:102840008D8D9E8D892BF1F089A10E947C058D8D47
:102850009E8DDC01ED91FC910190F081E02D60E016
:1028600009958D8D9E8DDC01ED91FC910190F0819B
:10287000E02D612F09958D8D9E8DDF91CF911F9158
:102880000C94F60FEDA5FEA590818BA98095892368
:1028900080838B8D9C8D892B31F0862FDF91CF919A
:1028A0001F910C94711328E030E090E8E9A5FAA597
:1028B00089A9412F4923C1F04081842B8083EBA556
:1028C000FCA580814AA9842B8083EBA5FCA54081CF
:1028D0008AA980958423808396952150310931F708
:1028E000DF91CF911F910895408180958423E6CF99
:1028F0008CBD9DBD0895FF920F931F93CF93DF93DF
:102900008091570490915804892B09F472C082E099
:102910008093B80065E088E69AE00E9478136091A1
:102920003E0461508AE394E00E941B14209140040D
:1029300030914104C901079697FD079623E09595CC
:1029400087952A95E1F720913E0430913F04829FBC
:102950008001839F100D929F100D1124C091590486
:10296000D0915A0480915704909158040C0F1D1F68
:10297000892B09F47CC080915B040E947C058091C6
:10298000570490915804DC01ED91FC910190F08185
:10299000E02D60E40995FF24F39480915704909111
:1029A0005804C017D107E1F1BFE1BF15A0F40E94A0
:1029B000F60F80915B040E947C05809157049091F2
:1029C0005804DC01ED91FC910190F081E02D60E470
:1029D0000995FF24F3948091570490915804DC01E9
:1029E000ED91FC910190F081E02D69910995F394AE
:1029F000D4CF8091550490915604892B31F0809169
:102A00006F04909170040E947814E0916904F09131
:102A10006A04908180916E048095892380837ACFA7
:102A20000E94F60F8091570490915804892B09F465
:102A30005FC02091710430917204409173045091F1
:102A4000740460E072E18AE790E00E943D38205112
:102A50003109410951095695479537952795209396
:102A6000B800DF91CF911F910F91FF900895E091F1
:102A70006704F0916804808190916D04892B8083B4
:102A80000C171D0779F28991209155043091560455
:102A9000232B19F00E947113F3CF28E030E040E8B7
:102AA000E0916304F091640490916B04582F5423D7
:102AB000D9F05081952B9083E0916504F0916604E4
:102AC000908150916C04952B9083E0916504F09176
:102AD0006604508190916C0490959523908346955F
:102AE00021503109E9F6CCCF508190959523E3CF61
:102AF000E0916904F0916A04808190916E04892BC1
:102B00008083AFCF1F93CF93DF93EC01162F8D8D72
:102B10009E8D892B29F182E08093B80066EA11111D
:102B200067EACE010E941B148D8D9E8D892B41F189
:102B30002FA938AD49AD5AAD60E072E18AE790E067
:102B40000E943D3820513109410951095695479558
:102B5000379527952093B800DF91CF911F91089565
:102B60008B8D9C8D892B21F08DA99EA90E947814B4
:102B7000EFA5F8A990818CA9809589238083CECF79
:102B8000EFA5F8A980819CA9892B8083E5CF0895C2
:102B900090E080E008958093BB0084E88093BC00BF
:102BA0008091BC0087FFFCCF9091B900987F81E0B5
:102BB000983231F0983129F0903419F080E008957E
:102BC0000895089584EA8093BC008091BC0087FF3B
:102BD000FCCF8091B900887F19F080EC0C94CB1564
:102BE00080E008955F926F927F928F929F92AF9252
:102BF000BF92CF92DF92EF92FF920F931F93CF93EA
:102C0000DF93CDB7DEB7582E742E652EB62E922EDA
:102C10000E94E215852D0E94CB158D2D0E94CB15AB
:102C20008C2D0E94CB158B2D83708A2990E081100A
:102C30009CE0892B0E94CB15862D0E94CB15872DF9
:102C40000E94CB158CE0F694E794D794C7948A95AC
:102C5000D1F78C2D807FC82E892D8F708C290E94F2
:102C6000CB15812F0E94CB15802F0E94CB1584E9B4
:102C70008093BC008091BC0084FDFCCFDF91CF919C
:102C80001F910F91FF90EF90DF90CF90BF90AF908A
:102C90009F908F907F906F905F9008954F925F927A
:102CA0006F927F928F929F92AF92BF92CF92DF925C
:102CB000EF92FF920F931F93CF93C82FC090990468
:102CC000D0909A04E0909B04F0909C04CB01BA0150
:102CD000A70196010E943D3849015A0125E0F6946A
:102CE000E794D794C7942A95D1F735E096958795C0
:102CF000779567953A95D1F747E0660F771F881F5C
:102D0000991F4A95D1F7A70196010E943D382901E4
:102D10003A018B019C01B501A4015527662777274D
:102D2000E7E0440F551F661F771FEA95D1F7525011
:102D300061097109440D551D661D771D812CA12C5B
:102D40008C2F0E94F215CF911F910F91FF90EF9061
:102D5000DF90CF90BF90AF909F908F907F906F90BB
:102D60005F904F9008958F92AF92CF92DF92EF9243
:102D7000FF920F931F93882483944430510561057B
:102D8000710509F0812C4450510961097E4F97E08B
:102D9000440F551F661F771F9A95D1F7A22EC12C9D
:102DA000D12C7601C39400E010E098010E94F21546
:102DB0001F910F91FF90EF90DF90CF90AF908F9089
:102DC0000895CF93DF93D82FC62F0E94E2158D2F41
:102DD0000E94CB158C2F0E94CB1584E98093BC00F8
:102DE0008091BC0084FDFCCFDF91CF910895CF93FB
:102DF000C82F60E880E18C0F0E94E116EC2FF0E014
:102E0000EE0FFF1FEF57FB4F11821082CF910895F5
:102E10004F925F926F927F92AF92BF92CF92DF926A
:102E2000EF92FF920F931F93CF93DF93D82F082F2A
:102E300010E0F801EE0FFF1FEE0FFF1FE357FB4FEF
:102E40004080518062807380411451046104710498
:102E500089F48D2FDF91CF911F910F91FF90EF900B
:102E6000DF90CF90BF90AF907F906F905F904F902A
:102E70000C94F7165801AA0CBB1CF501EF57FB4F39
:102E8000C080D180F12CE12C0F571B4FF801C68177
:102E9000A3019201C701B6010E9404369B01AC0157
:102EA000EC2FF0E0E65AFE4FA081B0E00E943238ED
:102EB0009B01AC0120583447424D5A412130334ADE
:102EC000414E514108F43FC06091390170913A017F
:102ED00080913B0190913C01A30192010E943D38F9
:102EE00069017A0184E0C816D104E104F10408F410
:102EF000B0CFE6E0CE16D104E104F10408F470C0CE
:102F0000C0E0FDE2CF16F1E0DF06E104F10430F0AD
:102F1000CF5FF694E794D794C794F3CFC11103C061
:102F2000E894C0F8C0E0A3019201C701B6010E9475
:102F300004369B01AC01EC2FF0E0E65AFE4FA08175
:102F4000B0E00E9432382AE1D11122E2AB01BC018B
:102F5000822F0E944E16F501EF57FB4F8081918121
:102F6000B0E0A0E08C159D05AE05BF0521F4F80189
:102F700086818C1731F12C2F2295207FB701A60175
:102F80008D2F880F880F880F865D0E94B316F80179
:102F9000618580E0D11180E2682B6C6480E18D0F47
:102FA0000E94E116F501EF57FB4FD182C082F80174
:102FB000C6838091A10490E2D11190E8892B80937F
:102FC000A104DF91CF911F910F91FF90EF90DF90BF
:102FD000CF90BF90AF907F906F905F904F9008958B
:102FE00084E0C82ED12CE12CF12C9ACF2F923F9265
:102FF0004F925F926F927F928F929F92AF92BF9209
:10300000CF92DF92EF92FF920F931F93CF93DF93B4
:1030100000D000D00F92CDB7DEB749015A01270189
:1030200038011092A104C0909104D0909204E090D5
:103030009304F090940400918D0410918E042091DB
:103040008F0430919004061717072807390759F0A5
:1030500060938D0470938E0480938F0490939004FA
:1030600080E00E940817C814D904EA04FB0471F434
:103070008091950490919604A0919704B091980442
:1030800084159505A605B70509F403C1809291043E
:1030900090929204A0929304B0929404409295046A
:1030A000509296046092970470929804811491044F
:1030B000A104B10419F481E00E94F71680919504EF
:1030C00090919604A0919704B0919804892B8A2B33
:1030D0008B2B19F482E00E94F716409091045090D7
:1030E000920460909304709094044114510461041C
:1030F000710409F473C1C814D904EA04FB0409F487
:10310000A5C0C0908304D0908404F12CE12C2091C0
:1031100088042983A3019201C701B6010E940436E5
:103120009B01AC018981E82FF0E0E65AFE4FA081B7
:10313000B0E00E9432384B015C01DC01CB018058C9
:103140009447A24DBA418130934AA14EB14108F44F
:1031500046C06091390170913A0180913B01909194
:103160003C01A30192010E943D3869017A0181E08E
:1031700044E0C416D104E104F10408F488C086E0F8
:10318000C816D104E104F10408F4A4C019829DE238
:10319000C91691E0D906E104F10440F029812F5FBE
:1031A0002983F694E794D794C794F1CF49814111CC
:1031B00003C0E894C0F81982A3019201C701B601C7
:1031C0000E9404369B01AC018981E82FF0E0E65AA9
:1031D000FE4FA081B0E00E9432384B015C01B50186
:1031E000A40182E20E944E1680918304909184048F
:1031F000B0E0A0E08C159D05AE05BF0529F48091D7
:10320000880499818917D1F029812295207FB701FF
:10321000A60182E30E94B31660918B046C6681E183
:103220000E94E116D0928404C092830429812093E5
:1032300088048091A10480688093A10480929D04F9
:1032400090929E04A0929F04B092A004C090950416
:10325000D0909604E0909704F0909804C114D104A3
:10326000E104F104B1F080909D0490909E04A09040
:103270009F04B090A004C501B401A70196010E946B
:103280003D38283031054105510550F582E00E9456
:10329000F7166091A104662319F081EB0E94E116F4
:1032A0008091A1040F900F900F900F900F90DF91DD
:1032B000CF911F910F91FF90EF90DF90CF90BF9033
:1032C000AF909F908F907F906F905F904F903F90C6
:1032D0002F90089504E0C02ED12CE12CF12C69CF61
:1032E0001D82213431054105510560F08D818F5FCC
:1032F0008D83CC0CDD1CEE1CFF1C56954795379535
:103300002795EFCFC501B401A70196010E943D3872
:1033100029833A834B835C832FEF3FEF4FE050E0EC
:103320000E94483656016701E12CF12C00E010E0C4
:103330000E94753629013A019D819295907F9D8367
:10334000C12CD12C7601C394411451046104710441
:1033500031F0CC24CA94DC2CFFE0EF2EF12CC30119
:10336000B20127E0660F771F881F991F2A95D1F7B2
:10337000A70196010E943D3849015A018B019C0129
:1033800049815A816B817C81552766277727E7E041
:10339000440F551F661F771FEA95D1F752506109F8
:1033A0007109480D591D6A1D7B1D812CAD808AE372
:1033B0000E94F2156CE445284628472809F06CE085
:1033C00080918C04682B606282E10E94E11681E0AA
:1033D00090E090938604809385045BCF8090950461
:1033E00090909604A0909704B09098048114910452
:1033F000A104B10409F44DCFC0908504D090860497
:10340000F12CE12C209189042983A5019401C701A5
:10341000B6010E9404369B01AC018981E82FF0E0DF
:10342000E65AFE4FA081B0E00E9432388B019C0129
:1034300000581447224D3A410130134A214E314180
:1034400008F443C06091390170913A0180913B01C9
:1034500090913C01A50194010E943D3869017A01D7
:1034600084E0C816D104E104F10408F40FCF96E01B
:10347000C916D104E104F10408F458C019822DE200
:10348000C21621E0D206E104F10440F049814F5F09
:103490004983F694E794D794C794F1CF8981811139
:1034A00003C0E894C0F81982A5019401C701B601D0
:1034B0000E9404369B01AC019981E92FF0E0E65AA5
:1034C000FE4FA081B0E00E943238AB01BC0182E225
:1034D0000E944E168091850490918604B0E0A0E091
:1034E0008C159D05AE05BF0531F4809189042981B5
:1034F000821709F4CECE29812295207FB701A6013B
:103500008AE30E94B31660918C046C6682E10E948B
:10351000E116D0928604C0928504498140938904C3
:103520008091A10480688093A104B3CE84E0C82E6A
:10353000D12CE12CF12CB5CF0F931F9380911B035D
:1035400081111DC0A0913401B0E020EA36E841E0CD
:1035500050E00E94323800910C0110910D01209131
:103560000E0130910F01601771078207930718F55C
:1035700061E08BE00E944D0681E080931B03A091E7
:103580003401B0E020EA36E841E050E00E943238F1
:1035900000910C0110910D0120910E0130910F014D
:1035A000061717072807390730F460E08BE00E9400
:1035B0004D0610921B031F910F910895FF920F93D8
:1035C0001F93CF93DF9300D0CDB7DEB7E8E1F1E0F2
:1035D00010E000E08191080F111D81E0E933F80748
:1035E000C9F741E250E068E171E082E090E00E94BA
:1035F000DB100B5F1F4F1A83098342E050E0BE01CE
:103600006F5F7F4F90E080E00E94DB10EBE0F1E025
:1036100085E191E010E000E02191020F111D8E176D
:103620009F07D1F7809119019CE0F92E8F9DC00171
:1036300011244AE050E06BE071E085960E94DB10B7
:103640000B5F1F4F1A830983809119018F9DC00161
:10365000112442E050E0BE016F5F7F4F83960E94CD
:10366000DB100F900F90DF91CF911F910F91FF9082
:10367000089580912E0190912F01092E000CAA0B24
:10368000BB0B80549340A446BE4F80939904909303
:103690009A04A0939B04B0939C0480E00E940817B6
:1036A00082E00C9408178F929F92AF92BF92CF92B4
:1036B000DF92EF92FF920F931F93CF93C0919503E8
:1036C000CC23E9F140910B0160910C0170910D0147
:1036D00080910E0190910F0120919403222309F40F
:1036E0006EC080902C0190902D01092C000CAA082E
:1036F000BB08209136013AE0239F600111240D2C74
:10370000000CEE08FF08442309F444C02091200176
:10371000309121014091220150912301205E3E45CC
:10372000484F5F4F280D391D4A1D5B1D2C193D095F
:103730004E095F09E12CF12C87010E94F617809158
:103740009703882309F454C060910C0170910D0116
:1037500080910E0190910F0120910B012223B1F174
:10376000E0902001F09021010091220110912301AD
:1037700020E030E0A9010E94F617CF911F910F9130
:10378000FF90EF90DF90CF90BF90AF909F908F9081
:103790000C949C1A209128013091290140912A0112
:1037A00050912B012052314A47405109280D391DB3
:1037B0004A1D5B1D2C0D3D1D4E1D5F1DBBCFE12C19
:1037C000F12C870120E030E0A901B7CFE09028017B
:1037D000F090290100912A0110912B01C9CFE090AE
:1037E0002401F09025010091260110912701C0CFFE
:1037F000C111C3CF60910C0170910D0180910E0138
:1038000090910F0120910B01222349F3E0901C01BC
:10381000F0901D0100911E0110911F01A9CFCF93BF
:10382000DF93809112039091130327E0289FE0011A
:10383000299FD00D112485E10E946C08DE01A80F9C
:10384000B91FAA0FBB1F94E0B695A7959A95E1F70B
:10385000B0931303A09312032091300130E00E9433
:103860005F382FEF33E040E050E00E9413382093A0
:103870001903DF91CF910895CF93DF938FE00E94DA
:103880006C088091170390911803EC01CC0FDD1F99
:10389000C80FD91F8FE00E946C082196C80FD91F4E
:1038A000CC0FDD1FCC0FDD1F44E0D695C7954A95A0
:1038B000E1F7D0931803C0931703809115039091FB
:1038C0001603EC01CC0FDD1FC80FD91F80E10E9449
:1038D0006C082196C80FD91FCC0FDD1FCC0FDD1F40
:1038E00074E0D695C7957A95E1F7D0931603C09307
:1038F0001503DF91CF910895DC01ED91FD91808159
:10390000ED91FD919081ED91FD916C9163708E230D
:1039100009F064609F2309F06860E9E9FCE1E60FC3
:10392000F11D659565956D936D917D918D919D913D
:10393000099423C01AC012C016C010C01EC009C00E
:1039400014C013C006C019C009C00DC007C00DC007
:1039500014C062507040804090400BC06150704075
:103960008040904006C06E5F01C06F5F7F4F8F4FF9
:103970009F4F9E938E937E936E9308950F931F9304
:10398000CF93DF9380910D03882359F01092FC03AD
:103990000E94521010920D03DF91CF911F910F9151
:1039A00008950E946008009104031091050320917E
:1039B000060330910703601B710B820B930B693E6A
:1039C00073408105910520F4012B022B032B21F775
:1039D0000E946008609304037093050380930603BC
:1039E0009093070388E60E947C0560E08EE294E0F5
:1039F0000E94C20F8EE294E00E94F60F882319F015
:103A000010920304C9CF81E08093030467E088E645
:103A10000E9486051092B3038093B203873008F4A6
:103A200061C08EE294E00E94820FD82F982F929569
:103A30009770CAE08D2F8F709C9F800D112480930A
:103A4000FC038EE294E00E94820F982F92959F7063
:103A50008F709C9F800D11248093FD038EE294E073
:103A60000E94820F982F929593708F709C9F800D6B
:103A700011248093FE038EE294E00E94820F982F1F
:103A800092959F708F709C9F800D11248093FF03EF
:103A90008EE294E00E94820F982F92959F708F7013
:103AA0009C9F800D1124809300048EE294E00E947C
:103AB000820F982F92959F708F709C9F800D11247C
:103AC000809301048EE294E00E94820F982F9F70F1
:103AD000925E82958F708C9F900D112490930204BA
:103AE000D7FF5ACF1092FE031092FD031092FC03F1
:103AF000DF91CF911F910F910C945210CF93DF93D0
:103B0000EC018091A2040E947C058D2F90E00E9420
:103B1000F10FCE0199270E94F10F8EE294E00E94EE
:103B2000F60F61E08091A2040E9486051092B30313
:103B30008093B203882321F08EE294E00E94820FEA
:103B4000DF91CF910895EF92FF920F931F93CF9340
:103B5000DF938B01040F151F7C012FEFE21AF20A8D
:103B6000EB010E947E1D8993C701BE010C171D0742
:103B700099F7DF91CF911F910F91FF90EF900895EA
:103B8000DF92EF92FF920F931F93CF93DF9300D0BA
:103B9000CDB7DEB71A821982809119012CE0829F7D
:103BA000C001112442E050E0BE016F5F7F4F839659
:103BB0000E94A31DF12CE12C10E000E08CE0D82E37
:103BC0008091190197018D9D200D311D1124C9018E
:103BD00085960E947E1D080F111D3FEFE31AF30A20
:103BE0008AE0E816F10461F70B5F1F4F89819A8123
:103BF00008171907B1F4809119018D9DC001112496
:103C00004AE050E06BE071E085960E94A31D0F90A2
:103C10000F90DF91CF911F910F91FF90EF90DF9068
:103C200008950E94DE1AF3CFFF920F931F93CF9354
:103C3000DF93FC010081C181D281F8948981F02E4B
:103C4000F0948F21898378941DE7115009F18881C0
:103C50008023D9F3F8948A818F218A838981802BEC
:103C60008983789480EE91E00E940208F89489811B
:103C70008F21898386E490E00E94020888810823CE
:103C800011E009F010E078948AE991E00E940208BE
:103C9000812FDF91CF911F910F91FF900895AF92E7
:103CA000BF92CF92DF92EF92FF920F931F93CF9329
:103CB000DF938B01BC0180911204909113040E9448
:103CC0002E0940E06EEB80911204909113040E9443
:103CD000FA08E801680189E0C80ED11CA09012041E
:103CE000B090130488E0E82EF12C10E001E0C5014B
:103CF0000E949C088111102B000F81E0E81AF10846
:103D0000B1F71993CC16DD0649F780911204909112
:103D100013040E94141E91E0813009F090E0892F75
:103D2000DF91CF911F910F91FF90EF90DF90CF9097
:103D3000BF90AF900895BF92CF92DF92EF92FF9223
:103D40000F931F93CF93DF93EC01B62EC72E8D8573
:103D5000811105C0CE010E94141E81110EC01B8668
:103D60001D861C8680E0DF91CF911F910F91FF90FF
:103D7000EF90DF90CF90BF90089540E060EFCE01CC
:103D80000E94FA0801E0E12CD12C11E0CE010E9442
:103D90009C08F82ECE010E949C0891E0F91218C0F0
:103DA000813099F51134D8F2DB86D11002C081E060
:103DB0008D878B81882399F22396EB2DFC2DCF01E3
:103DC000089629912193E817F907D9F781E0CBCF1D
:103DD0002E2D30E0F8120EC08B851817A0F4FE01CE
:103DE000E20FF31F8381802381F4F12C193008F452
:103DF0001C87D12EFE01E20FF31F8381902F909537
:103E0000892383830AC08113F0CFFE01EE0DF11DDB
:103E10008381802B8383FF24F3946F2DCE010E9436
:103E2000C7081F5F000F11F4E39401E087E08E15CF
:103E300008F0ACCFB7CF0F931F93CF93DF93CDB7DD
:103E4000DEB729970FB6F894DEBF0FBECDBF8C0149
:103E5000FC018081803181F18091120490911304E2
:103E60000E94141E81110CC080E029960FB6F894B0
:103E7000DEBF0FBECDBFDF91CF911F910F9108958F
:103E8000BE016F5F7F4FC8010E944F1E882361F300
:103E900068E0CE0101960E94840899858913E4CFD9
:103EA0008D818F3359F020F48F31F1F689E0DDCF29
:103EB0008F3531F08F37C1F68CE0D7CF8AE0D5CF80
:103EC0008BE0D3CF4F925F926F927F928F929F92AF
:103ED000AF92BF92CF92DF92EF92FF920F931F9318
:103EE000CF93DF93CDB7DEB761970FB6F894DEBFFF
:103EF0000FBECDBF0E946008C0900903D0900A0396
:103F0000E0900B03F0900C036C197D098E099F095A
:103F1000693873418105910508F458C08091080300
:103F2000811154C010920E048091120490911304D8
:103F30000E94141E40E06CEC8091120490911304D6
:103F40000E94FA0840910C0464E48091120490915C
:103F500013040E94FA0880910E04882391F1E091E5
:103F60000D04E9500EEE12E0E33038F4F0E0EE0F0D
:103F7000FF1FEA5BFE4F0081118180910F048823AF
:103F800009F481C080910C0481117DC00E946008F9
:103F90004B015C012801110F66087708809112041B
:103FA000909113040E949C08813059F00E9460088F
:103FB0006419750986099709681579058A059B05AD
:103FC00068F381E080930E04809308030E946008E8
:103FD0006C197D098E099F0961347F418105910526
:103FE000D8F1809108038823B9F1E0911204F0918F
:103FF000130413861586148612861186108617827E
:104000001682158214821382BE01665F7F4F8091F3
:104010001204909113040E949B1E81113BC060E02A
:1040200070E08EEF92EC20E030E040E05FE30E9431
:104030006F380E94DB3880913301680F609314035E
:104040000E9460086093090370930A0380930B0336
:1040500090930C031092080361960FB6F894DEBF9C
:104060000FBECDBFDF91CF911F910F91FF90EF90C9
:10407000DF90CF90BF90AF909F908F907F906F9088
:104080005F904F900895B801110F880B990B0E9413
:104090002D0897CF67E0CE010A960E94840899897F
:1040A0008913BDCF80911204909113040E94141EB5
:1040B000882309F4B4CFBE016F5F7F4FCE010A960B
:1040C0000E944F1E882309F4AACF68E0CE01019612
:1040D0000E94840899858913A2CF6A8170E0762FA7
:1040E0006627770F770F770F298158E0259F90017A
:1040F0001124262B372B8A858031D1F4688570E016
:104100008F81AB01481B5109CA019695982F8827CA
:10411000979587950E943436CB014097B90153E0BB
:10412000660F771F5A95E1F760789C01260F371FBD
:10413000213854EE35070CF472CFB901330F880BD8
:10414000990B0E94133920E030E040E05CE30E94CC
:104150009F3969CF809195038823A9F180919403B9
:1041600081110CC080911A03882389F1809180000D
:104170008F7C8093800010921A0329C080911A03CB
:10418000811125C08091AD03811121C0209136019C
:1041900084E1289F90011124032E000C440B550B41
:1041A00060E472E48FE090E00E943D38CA01B901FA
:1041B0000E94CA05809180008F7C8061809380007E
:1041C00081E080931A0380919403882359F2089523
:1041D000009769F0FC0101900020E9F73197AF01E9
:1041E000481B590BBC018AE394E00C94D90790E07A
:1041F00080E00895CF93DF930E94E820EC0180EAED
:1042000091E00E94E8208C0F9D1FDF91CF910895CF
:104210000C94E8208F929F92AF92BF92CF92DF9240
:10422000EF92FF920F931F93CF93DF93CDB7DEB73B
:10423000A1970FB6F894DEBF0FBECDBF6B017C0116
:1042400019A2423008F44AE08E010F5D1F4F842E00
:10425000912CB12CA12CC701B601A50194010E949B
:104260003D386A3014F5605DF80162938F01C8141F
:10427000D904EA04FB04B0F4CF010E94E820A1961F
:104280000FB6F894DEBF0FBECDBFDF91CF911F9167
:104290000F91FF90EF90DF90CF90BF90AF909F90E5
:1042A0008F90089569017A01D6CF695CDDCF682FC0
:1042B00070E090E080E04AE00C940A21CF92DF9217
:1042C000EF92FF92CF93DF936C01990FEE08FF08F6
:1042D000F7FE17C08DE20E945C0CEC016627772781
:1042E000CB016C197D098E099F094AE00E940A21C1
:1042F0008C0F9D1FDF91CF91FF90EF90DF90CF90BB
:1043000008954AE0C701B601DF91CF91FF90EF9089
:10431000DF90CF900C940A21CF93DF934AE00E9464
:104320000A21EC0180EA91E00E94E8208C0F9D1F99
:10433000DF91CF910895CF93DF930E945E21EC012E
:1043400080EA91E00E94E8208C0F9D1FDF91CF91C1
:104350000895CF93DF930E945721EC0180EA91E00A
:104360000E94E8208C0F9D1FDF91CF91089520912E
:10437000400430914104C901079697FD079623E058
:10438000959587952A95E1F720913E0430913F0459
:10439000829FA001839F500D929F500D112470E0C9
:1043A00060E08091590490915A040C940C388F92DB
:1043B0009F92AF92BF92EF92FF920F931F93CF9372
:1043C0000E94B721109247041092460410924904AB
:1043D0001092480481E090E090934D0480934C0447
:1043E00090934B0480934A0483E080934E0480931F
:1043F0004F04C091AD03CB3109F46FC308F074C012
:10440000C53109F414C3A8F5C23009F4DAC288F43E
:10441000CC2309F4ECC0C13009F4C0C2CF911F9184
:104420000F91FF90EF90BF90AF909F908F900C9462
:104430007B14C33009F4E2C2C43181F780911001CA
:1044400024E6829FC00111240E949B2181E0809379
:104450004E0480934F048091AD030E9457218CEE4F
:1044600091E00E94082180EF0E945C0C88EF91E0AF
:10447000C2C2C83109F405C3E8F4C63109F4F1C277
:10448000C73161F68091FE038A3020F483EA91E01F
:104490000E9408218091FE030E94A92181E080935F
:1044A0004E0480934F048091AD030E94572185E113
:1044B00092E0A1C2C93109F4FCC2CA3109F0AECF01
:1044C000809136012AE0829FC00111240E949B2125
:1044D00081E080934E0480934F048091AD030E944D
:1044E000572182E392E087C2C83609F46FC3F0F522
:1044F000C53609F41CC3D8F4CC3109F4FEC2C43665
:1045000009F08CCF80911B01882309F40DC38EE440
:1045100092E00E94FA2081E080934E0480934F0441
:104520008091AD030E94572183E692E07AC2C6369D
:1045300009F42FC3C73609F071CF80912E019091F5
:104540002F010E949B2181E080934E0480934F04B1
:104550008091AD030E94572185E892E00E940821D6
:1045600080EF0E945C0C8CE392E045C2CB3609F4EC
:1045700063C308F5C93609F444C3CA3609F04ECFFF
:1045800082E080934E0480934F0460911C017091EF
:104590001D0180911E0190911F010E948C2181E0DC
:1045A00080934E0480934F048091AD030E94572165
:1045B00089EA92E0D3CFCD3609F46BC308F457C330
:1045C000CE3609F02BCF8091340124E6829FC001C2
:1045D00011240E949B2181E080934E0480934F041C
:1045E0008091AD030E9457218BED92E03ACF8091EC
:1045F0000C0190910D01A0910E01B0910F01803836
:104600009649A849B10520F483E892E00E94082168
:1046100060910C0170910D0180910E0190910F013C
:10462000E0E48E2EE2E49E2EEFE0AE2EB12CA5014A
:1046300094010E943D38CA01B9014AE00E940A2152
:104640008091460490914704059690934704809387
:10465000460460910C0170910D0180910E019091C2
:104660000F01A50194010E943D38603A76488140CF
:10467000910520F483EA91E00E94082160910C01E9
:1046800070910D0180910E0190910F0120E432E4B0
:104690004FE050E00E943D3860317742810591053E
:1046A00020F483EA91E00E94082160910C0170914E
:1046B0000D0180910E0190910F0120E432E44FE052
:1046C00050E00E943D3858EE852E53E0952EA12CE7
:1046D000B12CA50194010E943D38CA01B9014AE0FC
:1046E0000E940A2182E080934E0480934F048091BF
:1046F000460490914704059690934704809346049E
:1047000087E090E0909349048093480460910C0105
:1047100070910D0180910E0190910F01A5019401FE
:104720000E943D38643671058105910520F483EAC5
:1047300091E00E94082160910C0170910D0180911F
:104740000E0190910F0128EE33E040E050E00E940E
:104750003D382AE030E040E050E00E943D38CA0198
:10476000B9010E948C2181E080934E0480934F0414
:1047700080911903843620F483E892E00E94082196
:1047800080911903CAE06C2F0E94143690E00E94B9
:104790005E2185EA91E00E940821809119036C2F27
:1047A0000E941436892F90E00E945E2187EA91E0F2
:1047B0000E9408218091AC03882309F48BC060918A
:1047C0001703709118032091150330911603621797
:1047D000730709F43FC0CB01820F931F621B730B59
:1047E0000E9420366A30710520F483E892E00E942E
:1047F00008216091170370911803209115033091DF
:104800001603CB01820F931F621B730B0E9420368D
:1048100090E080E04AE00E940A2185EA91E00E944F
:1048200008216091170370911803209115033091AE
:104830001603CB01820F931F621B730B0E9420365D
:104840006AE070E00E942036BC0190E080E04AE01F
:104850000E940A21209117033091180350E040E094
:104860002150310941095109A4E6B0E00E943238D3
:104870002EEF822E23E0922EA12CB12CA5019401C3
:104880000E941338EE24E394F12C04E010E047E199
:1048900050E060E470E08AE394E00E944A0D2091C9
:1048A00015033091160350E040E0215031094109D1
:1048B0005109A4E6B0E00E943238A50194010E949B
:1048C00013384CE150E060E470E08AE394E00E9429
:1048D0004A0DA4CD8091140392E3980F953608F009
:1048E00051C087FD04C083E892E00E9408218091B6
:1048F0001403082E000C990B0E945E2187EF0E9482
:104900005C0C89EA91E00E9408218091A30388232E
:10491000E1F183E892E00E9408218091FE038A3051
:1049200020F483E892E00E9408218091FE030E9417
:1049300057218091FC0380FF2BC081EB91E00E9406
:1049400008218091FD038A3020F483EA91E00E94DF
:1049500008218091FD030E94572180910B0188233B
:10496000D1F083EB91E00E940821809119018A30F7
:1049700020F483E892E00E940821809119010E94AE
:1049800057214CCD8BEA91E0BECF85EA91E0C3CFB1
:1049900083E892E0D4CF86EB91E0E5CF80911901D6
:1049A0000E94A921C0934E04C0934F048091AD038F
:1049B0000E94572189EB91E00E94082180911A0101
:1049C000DECFE0911801F0E0EE0FFF1FE45BFE4F39
:1049D00020813181AAE0B0E00E945F380E948C21E2
:1049E00081E080934E0480934F048091AD030E9438
:1049F000572189EC91E00E94082110CD80910B0194
:104A0000882391F083ED91E00E94FA2081E0809369
:104A10004E0480934F048091AD030E9457218BED8B
:104A200091E00E94FA20FACC87ED91E0EDCF209141
:104A30001101309112014091130150911401A4E62B
:104A4000B0E00E9432380E948C2181E080934E04B5
:104A500080934F048091AD030E9457218CEF91E029
:104A600000CD80911A010E94A92181E080934E041B
:104A700080934F048091AD030E94572188E092E01B
:104A8000BACF8091FD038A3020F483EA91E00E943E
:104A900008218091FD030E94A92181E080934E04AA
:104AA00080934F048091AD030E9457218CE192E0E6
:104AB000A2CF809135012AE0829FC00111240E947B
:104AC0009B2181E080934E0480934F048091AD033D
:104AD0000E94572182E292E08ECF809132010E94A3
:104AE000A92181E080934E0480934F048091AD030F
:104AF0000E9457218FE392E07ECF8091310188237D
:104B000081F08EE492E00E94FA2081E080934E04CE
:104B100080934F048091AD030E94572185E592E078
:104B200080CF82E592E0EFCF82E592E0F2CC8091F7
:104B300030010E94A92181E080934E0480934F04AC
:104B40008091AD030E94572182E792E00E940821E4
:104B500080911903843620F483EA91E00E940821B1
:104B600080911903CAE06C2F0E94143690E00E94D5
:104B70005E2185EA91E00E940821809119036C2F43
:104B80000E941436892F90E00E945E2187EA91E00E
:104B900032CF80913301082E000C990B0E949B218B
:104BA00081E080934E0480934F048091AD030E9476
:104BB00057218AE792E00E94082180EF0E945C0C56
:104BC00087EF0E945C0C89EA91E015CF82E0809328
:104BD0004E0480934F0460912401709125018091CF
:104BE0002601909127010E948C2181E080934E0440
:104BF00080934F048091AD030E94572181E992E098
:104C0000ADCC82E080934E0480934F0460912801E4
:104C10007091290180912A0190912B010E948C2191
:104C200081E080934E0480934F048091AD030E94F5
:104C300057218DE992E092CC82E080934E048093DC
:104C40004F04609120017091210180912201909187
:104C500023010E948C2181E080934E0480934F04B5
:104C60008091AD030E94572185EB92E077CC809133
:104C70002C0190912D010E949B2181E080934E0494
:104C800080934F048091AD030E94572181EC92E004
:104C900065CC80913801882381F08EE492E00E94F7
:104CA000FA2081E080934E0480934F048091AD03FD
:104CB0000E9457218EEC92E0B4CE82E592E0EFCFD5
:104CC0004F925F926F927F928F929F92AF92BF921C
:104CD000CF92DF92EF92FF92CF93DF93CDB7DEB703
:104CE00028970FB6F894DEBF0FBECDBF8091800429
:104CF000823008F07BC0F89485E794E00E947C1C29
:104D000060917C0470917D0480917E0490917F0479
:104D100078942091090130E050E040E00E9413387F
:104D200069017A0190913101992341F0F094E09466
:104D3000D094C094C11CD11CE11CF11C80900E03C6
:104D400090900F03A0901003B09011038C149D0459
:104D5000AE04BF04B1F14C9B34C08091AD032FEF82
:104D6000280F243018F421E020939E038B3109F49E
:104D70005BC308F0A6C0853109F488C208F064C09E
:104D8000823009F452C2A0F5882309F466C181304B
:104D900009F42AC20E9460086093A4037093A503DB
:104DA0008093A6039093A70381E08093A3030E94BE
:104DB000D721C0920E03D0920F03E0921003F0921D
:104DC000110328960FB6F894DEBF0FBECDBFDF915A
:104DD000CF91FF90EF90DF90CF90BF90AF909F90DA
:104DE0008F907F906F905F904F900895F89488CF48
:104DF000833009F439C2843169F6809110018C1432
:104E00009D04AE04BF040CF036C28F5F8093100186
:104E1000409110018FE04F30A0F0809111019091EE
:104E20001201A0911301B091140150E070E060E014
:104E30000197A109B109481759076A077B0708F4C8
:104E4000CA0180931001A6CF883109F4A6C2F0F4FC
:104E5000863109F471C2873109F09CCF8091FE033D
:104E60008C149D04AE04BF040CF08CC2883138F45D
:104E70008F5F8093FE038091FE03883118F087E1F5
:104E80008093FE0381E080930D0384CF893109F480
:104E9000A3C28A3109F07ECF809136018C149D0423
:104EA000AE04BF040CF0B5C28F3F19F08F5F809342
:104EB0003601809136018A3008F48AE08093360109
:104EC00069CF883609F43AC308F04BC0853609F437
:104ED000D9C268F48C3109F4C4C2843609F05ACFBF
:104EE00080911B0191E0892780931B0153CF863667
:104EF00009F4EDC2873609F04DCF80912E019091D3
:104F00002F018C149D04AE04BF040CF000C3813348
:104F100055E795077CF4E0911801F0E0EE0FFF1FD4
:104F2000E45BFE4F20813181820F931F90932F010C
:104F300080932E0180912E0190912F018133B5E74E
:104F40009B0714F080E395E7803D2AE8920714F46C
:104F500080ED9AE890932F0180932E010E94391BD7
:104F600012C18B3609F4E5C308F05AC0893609F43A
:104F700054C38A3609F00ECF80911C0190911D0117
:104F8000A0911E01B0911F018C149D04AE04BF04BA
:104F90000CF0B2C3813034EB930734ECA30734E058
:104FA000B307A8F4E0911801F0E0EE0FFF1FE45BF7
:104FB000FE4F20813181820F931FA11DB11D80936F
:104FC0001C0190931D01A0931E01B0931F018091BD
:104FD0001C0190911D01A0911E01B0911F01813013
:104FE00054EB950754ECA50754E0B50720F080E09A
:104FF00094EBA4ECB4E0803823EC920729ECA207F0
:1050000021E0B20720F480E893ECA9ECB1E08093B2
:105010001C0190931D01A0931E01B0931F01B3C00A
:105020008D3609F433C408F4F3C38E3609F0B2CEDA
:10503000809134018C149D04AE04BF040CF02DC487
:105040008F5F80933401809134018F3008F48FE0BA
:10505000809334010E949C1A9DCE40900C01509088
:105060000D0160900E0170900F012091110130919F
:105070001201409113015091140160EA76E881E039
:1050800090E00E9404366D837E838F839887A09181
:105090001001B0E020EA36E841E050E00E943238EA
:1050A00069837A838B839C838C149D04AE04BF0434
:1050B0000CF06CC02D813E814F815885241535053B
:1050C0004605570550F1E0911801F0E0EE0FFF1F83
:1050D000E45BFE4F20813181AAE0B0E00E945F389E
:1050E0004B015C01C301B201A50194010E943D384E
:1050F000480C591C6A1C7B1C6115710581059105C2
:1051000021F0461A570A680A790A40920C01509217
:105110000D0160920E0170920F0180910C0190912F
:105120000D01A0910E01B0910F0129813A814B81AF
:105130005C8182179307A407B50760F489819A817F
:10514000AB81BC8180930C0190930D01A0930E0163
:10515000B0930F0180910C0190910D01A0910E016F
:10516000B0910F012D813E814F8158852817390755
:105170004A075B0740F420930C0130930D014093E4
:105180000E0150930F010E94531B04CEC814D90482
:10519000EA04FB0414F689819A81AB81BC8148162C
:1051A00059066A067B0650F2E0911801F0E0EE0F16
:1051B000FF1FE45BFE4F20813181AAE0B0E00E9436
:1051C0005F384B015C01C301B201A50194010E944B
:1051D0003D38611571058105910509F092CF481898
:1051E00059086A087B0891CF90911A0180911901A2
:1051F0008C149D04AE04BF047CF4891718F48F5FEF
:105200008093190180911901981708F4892F8093D0
:1052100019010E94C01DB7CFC814D904EA04FB04C9
:105220008CF7882379F38150EBCF809118018C148F
:105230009D04AE04BF0434F4863078F48F5F80930D
:105240001801A8CDC814D904EA04FB0434F4882357
:1052500009F4A0CD81508093180180911801873006
:1052600008F498CD86E0EBCF80910B0191E089277F
:1052700080930B0188CFC814D904EA04FB040CF016
:10528000C7CD8F3008F4C4CD8150C0CD80911101BD
:1052900090911201A0911301B09114018C149D04FE
:1052A000AE04BF04DCF58D3231E09307A105B105F2
:1052B00058F40196A11DB11D809311019093120124
:1052C000A0931301B0931401409111015091120168
:1052D00060911301709114018091100190E001968A
:1052E000092E000CAA0BBB0B481759076A077B074E
:1052F00060F0DB01CA018D3241E09407A105B105E0
:1053000020F08CE291E0A0E0B0E080931101909356
:105310001201A0931301B09314013CCDC814D90419
:10532000EA04FB048CF68F309105A105B10560F20B
:105330000197A109B109C0CF80911A018C149D0475
:10534000AE04BF047CF48E31B8F48F5F80931A01F1
:1053500080911A0190911901891708F01BCD809353
:10536000190118CDC814D904EA04FB042CF48823CD
:1053700079F3815080931A0180911A018F3140F3A3
:105380008EE1E4CFC814D904EA04FB040CF073CD19
:10539000882309F477CD81506CCD8091FD038C1466
:1053A0009D04AE04BF0474F48C3340F48F5F80938B
:1053B000FD038091FD038C3308F464CD8BE380936F
:1053C000FD0360CDC814D904EA04FB0494F78823D4
:1053D00009F458CD8150EBCF809135018C149D0498
:1053E000AE04BF046CF48F3F19F08F5F80933501DA
:1053F000809135018A3008F48AE080933501CACC67
:10540000C814D904EA04FB049CF7823088F3815065
:10541000EDCFC814D904EA04FB040CF04ACD823065
:1054200008F447CD815043CD809132018C149D0406
:10543000AE04BF046CF48F3F19F08F5F809332018C
:1054400080913201811101C081E080933201A2CCB0
:10545000C814D904EA04FB049CF7823088F3815015
:10546000EDCF992359F010923101F094E094D0944B
:10547000C094C11CD11CE11CF11C8CCC81E0809338
:105480003101F3CF809130018C149D04AE04BF0430
:105490006CF48F3F39F08F5F809330018091300141
:1054A0008F3F71F48EEF8093300174CCC814D9040F
:1054B000EA04FB049CF7843688F381508093300122
:1054C00080913001843608F065CC84E6ECCF809181
:1054D00033018C149D04AE04BF0484F48F311CF49A
:1054E0008F5F80933301809133018F310CF08EE117
:1054F000823E0CF482EE809333014CCCC814D90464
:10550000EA04FB0484F7823E74F38150EACFC814A6
:10551000D904EA04FB040CF00DCD803DAAE89A07FB
:105520000CF408CDE0911801F0E0EE0FFF1FE45BF2
:10553000FE4F20813181821B930BF8CC8091240196
:1055400090912501A0912601B09127018C149D0412
:10555000AE04BF040CF046C0813034EB930734EC4A
:10556000A30734E0B307A8F4E0911801F0E0EE0FD0
:10557000FF1FE45BFE4F20813181820F931FA11D2D
:10558000B11D8093240190932501A0932601B0932F
:1055900027018091240190912501A0912601B091CD
:1055A0002701813054EB950754ECA50754E0B5076B
:1055B00020F080E094EBA4ECB4E0803823EC920778
:1055C00029ECA20721E0B20720F480E893ECA9ECD3
:1055D000B1E08093240190932501A0932601B0931C
:1055E0002701D1CDC814D904EA04FB0494F680380D
:1055F00043EC940749ECA40741E0B40750F2E09172
:105600001801F0E0EE0FFF1FE45BFE4F20813181B7
:10561000821B930BA109B109B4CF8091280190910D
:105620002901A0912A01B0912B018C149D04AE0494
:10563000BF040CF046C0813034EB930734ECA30771
:1056400034E0B307A8F4E0911801F0E0EE0FFF1F7B
:10565000E45BFE4F20813181820F931FA11DB11D9C
:105660008093280190932901A0932A01B0932B01E4
:105670008091280190912901A0912A01B0912B01DC
:10568000813054EB950754ECA50754E0B50720F0A2
:1056900080E094EBA4ECB4E0803823EC920729EC92
:1056A000A20721E0B20720F480E893ECA9ECB1E076
:1056B0008093280190932901A0932A01B0932B0194
:1056C00062CDC814D904EA04FB0494F6803843EC94
:1056D000940749ECA40741E0B40750F2E0911801A7
:1056E000F0E0EE0FFF1FE45BFE4F20813181821B53
:1056F000930BA109B109B4CFC814D904EA04FB047F
:105700000CF065CC803843EC940749ECA40741E0E9
:10571000B40708F45CCCE0911801F0E0EE0FFF1F35
:10572000E45BFE4F20813181821B930BA109B109FB
:1057300046CC8091200190912101A0912201B0914D
:1057400023018C149D04AE04BF040CF046C08130CC
:1057500034EB930734ECA30734E0B307A8F4E091EB
:105760001801F0E0EE0FFF1FE45BFE4F2081318156
:10577000820F931FA11DB11D8093200190932101E1
:10578000A0932201B09323018091200190912101E7
:10579000A0912201B0912301813054EB950754EC84
:1057A000A50754E0B50720F080E094EBA4ECB4E04A
:1057B000803823EC920729ECA20721E0B20720F4FD
:1057C00080E893ECA9ECB1E0809320019093210153
:1057D000A0932201B0932301D6CCC814D904EA04C3
:1057E000FB0494F6803843EC940749ECA40741E0AD
:1057F000B40750F2E0911801F0E0EE0FFF1FE45BF8
:10580000FE4F20813181821B930BA109B109B4CFD6
:1058100080912C0190912D018C149D04AE04BF0445
:1058200024F5E0911801F0E0EE0FFF1FE45BFE4F5E
:1058300020813181820F931F90932D0180932C0141
:1058400080912C0190912D01893E33E0930714F053
:1058500088EE93E088314CEF940714F488E19CEFD4
:1058600090932D0180932C018ECCC814D904EA04A6
:10587000FB0434F7E0911801F0E0EE0FFF1FE45B4A
:10588000FE4F20813181821B930BD6CF809138014E
:1058900091E08927809338017DCAC814D904EA04AD
:1058A000FB040CF0D0CB8F3008F4CDCB8150C9CBAA
:1058B0001F921FB61F9211248F939F93AF93BF9394
:1058C0008091800390918103A0918203B091830322
:1058D0000296A11DB11D8093800390938103A09334
:1058E0008203B093830380917F0396E0980F9D37E6
:1058F000E8F490937F038091840390918503A091B5
:105900008603B09187030196A11DB11D8093840386
:1059100090938503A0938603B0938703BF91AF91C3
:105920009F918F911F901FBE1F901895875780934E
:105930007F038091800390918103A0918203B091B5
:1059400083030196A11DB11D809380039093810371
:10595000A0938203B0938303CECF1F920F920FB612
:105960000F9211242F933F934F935F936F937F93E5
:105970008F939F93AF93BF93EF93FF938091B90061
:10598000887F803609F44AC0F0F5883209F4A7C050
:1059900018F5803109F49BC0B8F4882309F4F9C0E4
:1059A000883009F494C0FF91EF91BF91AF919F911E
:1059B0008F917F916F915F914F913F912F910F90B8
:1059C0000FBE0F901F901895883109F488C080325F
:1059D00051F78093F90314C0803409F49DC040F45A
:1059E0008033B9F38833F9F68093F90385ECB0C0BE
:1059F000803509F485C0883509F496C0883499F655
:105A00000E94420FD0CF883909F48CC038F588370E
:105A100029F050F4883611F0803729F683E080931E
:105A2000FB0310927E0357C0883809F47BC080398D
:105A300019F0803809F0B7CF80917E03803208F0EA
:105A400071C0E0917E0381E08E0F80937E03809190
:105A5000BB00F0E0E25AFC4F80833DC0803B39F050
:105A6000E0F4803A09F479C0883A09F09CCF84E0E8
:105A70008093FB0310925D0310925C03E091B003EE
:105A8000F091B103099580915C0381110FC081E011
:105A900080935C0310923C0309C0803C09F4A6CFBC
:105AA000883C09F4A3CF883B09F07DCFE0915D03EA
:105AB00081E08E0F80935D03F0E0E45CFC4F808119
:105AC0008093BB0090915D0380915C0329C080911D
:105AD000F6038093BB0085EC8093BC0064CF90916B
