:100000000C945C050C94C2270C949A270C948405DC
:100010000C9484050C9484050C9484050C947D2523
:100020000C9484050C9484050C9484050C9484052C
:100030000C9484050C9484050C9484050C9484051C
:100040000C9431260C9484050C94FF250C94D9252E
:100050000C9484050C9484050C9484050C948405FC
:100060000C947B260C948405000103070F1F3F7F2F
:100070000080C0E0F0F8FCFE00000000003E5B4F96
:100080005B3E3E6B4F6B3E1C3E7C3E1C183C7E3CF8
:10009000181C577D571C1C5E7F5E1C00183C180006
:1000A000FFE7C3E7FF0018241800FFE7DBE7FF3096
:1000B000483A060E2629792926407F050507407F04
:1000C00005253F5A3CE73C5A7F3E1C1C08081C1C77
:1000D0003E7F14227F22145F5F005F5F06097F016D
:1000E0007F006689956A606060606094A2FFA29458
:1000F00008047E040810207E201008082A1C080826
:100100001C2A08081E101010100C1E0C1E0C303873
:100110003E3830060E3E0E06000000000000005F74
:1001200000000007000700147F147F14242A7F2A90
:100130001223130864623649562050000807030052
:10014000001C2241000041221C002A1C7F1C2A089E
:10015000083E080800807030000808080808000001
:1001600060600020100804023E5149453E00427F75
:10017000400072494949462141494D331814127FC4
:100180001027454545393C4A494931412111090764
:100190003649494936464949291E000014000000E5
:1001A00040340000000814224114141414140041B7
:1001B00022140802015909063E415D594E7C121174
:1001C000127C7F494949363E414141227F414141AC
:1001D0003E7F494949417F090909013E4141517327
:1001E0007F0808087F00417F41002040413F017F98
:1001F000081422417F404040407F021C027F7F0460
:1002000008107F3E4141413E7F090909063E4151A8
:10021000215E7F09192946264949493203017F0198
:10022000033F4040403F1F2040201F3F4038403F99
:10023000631408146303047804036159494D4300AF
:100240007F4141410204081020004141417F0402E6
:10025000010204404040404000030708002054547D
:1002600078407F284444383844444428384444285B
:100270007F385454541800087E090218A4A49C78AE
:100280007F0804047800447D40002040403D007F0A
:100290001028440000417F40007C047804787C08EA
:1002A0000404783844444438FC18242418182424BE
:1002B00018FC7C08040408485454542404043F44A3
:1002C000243C4040207C1C2040201C3C4030403CD2
:1002D00044281028444C9090907C4464544C440032
:1002E0000836410000007700000041360800020196
:1002F0000204023C2623263C1EA1A161123A404082
:10030000207A3854545559215555794122545478FE
:1003100042215554784020545579400C1E52721297
:100320003955555559395454545939555454580020
:1003300000457C410002457D420001457C407D1224
:1003400011127DF0282528F07C5455450020545486
:100350007C547C0A097F4932494949323A44444431
:100360003A324A4848303A4141217A3A424020786C
:10037000009DA0A07D3D4242423D3D4040403D3C6D
:1003800024FF2424487E4943662B2FFC2F2BFF0992
:1003900029F620C0887E0903205454794100004486
:1003A0007D413048484A32384040227A007A0A0A71
:1003B000727D0D19317D2629292F282629292926E4
:1003C00030484D4020380808080808080808382F29
:1003D00010C8ACBA2F102834FA00007B00000814B3
:1003E0002A142222142A14085500550055AA55AA89
:1003F00055AAFF55FF55FF000000FF00101010FF29
:1004000000141414FF001010FF00FF1010F010F083
:10041000141414FC001414F700FF0000FF00FF1474
:1004200014F404FC141417101F10101F101F1414C0
:10043000141F00101010F0000000001F101010100A
:100440001F10101010F010000000FF1010101010FE
:1004500010101010FF10000000FF140000FF00FF3C
:1004600000001F10170000FC04F4141417101714D8
:1004700014F404F40000FF00F714141414141414FA
:10048000F700F7141414171410101F101F1414146D
:10049000F4141010F010F000001F101F0000001FD7
:1004A00014000000FC140000F010F01010FF10FF0A
:1004B000141414FF141010101F00000000F010FF9F
:1004C000FFFFFFFFF0F0F0F0F0FFFFFF0000000083
:1004D00000FFFF0F0F0F0F0F3844443844FC4A4A07
:1004E0004A347E02020606027E027E0263554941BC
:1004F000633844443C04407E201E2006027E0202F3
:1005000099A5E7A5991C2A492A1C4C7201724C3006
:100510004A4D4D303048784830BC625A463D3E49DD
:100520004949007E0101017E2A2A2A2A2A44445F81
:10053000444440514A444040444A51400000FF0175
:1005400003E080FF000008086B6B08361236243683
:10055000060F090F060000181800000010100030E8
:1005600040FF0101001F01011E00191D1712003C70
:100570003C3C3C0000000000005EBCE2613FDD83CB
:10058000C29C7E20A3FD1F41009D23BE46DB65F873
:100590008C11AF32CA57E974000000080002010054
:1005A000000304070000000000000000000000003D
:1005B000240027002A00DB40A4A62EAFDA0281DA4D
:1005C0001281DA02818F2000A1C8D300408DAED500
:1005D00080A8000060000000000000000000000093
:1005E000000000E00000000000000000000000002B
:1005F0000001E0000000000000000000000000001A
:1006000001F00000000000000000000000000003F6
:10061000F00000000000000000000000000007F0F3
:100620000000000000000000000000000007F800CB
:100630000000000000000000000000000FF80000B3
:100640000003C0007E000001E0007F0FF800000002
:1006500003C000FE000001E000FFEFF8000000030F
:10066000C000FE000001E000FFFFF800000003C032
:1006700000F00000000F007FFE7FC0000003C000FC
:10068000F00000000F003FFE7FF83FF1FBCFFCFEC3
:10069000F3BC3DEFE01FFE7FFF7FFBFFDFFEFEFFB1
:1006A000BC3DEFE01FC6FFFF7FFBFFDFFEFEFFBC90
:1006B0003DEFE00FE3C7FE787BC3DE1EF0FFBC3DDD
:1006C000EF0007FF87FC787BC3DE1EF0F83C3DEFB0
:1006D0000001FFFFF0007BC3C01EF0F03C3DEF00C7
:1006E00001F37FE03FFBC3CFFEF0F03C3DEF0003A2
:1006F000E33F807FFBC3DFFEF0F03C3DEF0007E708
:100700003C00787BC3DE1EF0F03C3DEF0007FFBEEF
:1007100000787BC3DE1EF0F03C3DEF0007FFFE00DB
:10072000787BC3DE1EF0F03C3DEF000FFFFE007F44
:10073000FBFFDFFEF0F03FFDEFE00FFFFF007FFB70
:10074000FFDFFEF0F03FFDEFE00FF9FF003E79F92B
:10075000CF9EF0F01F3DE7E01FF1FF00000000001A
:10076000000000000000001F80FF007FFFFFFFFF70
:10077000FFFFFFFFFFE01C007F007FFFFFFFFEB4D5
:100780006D888D18E000001F007FFFFFFFFE95AD14
:100790007DB577E000000F007FFFFFFFFEA5AD9D58
:1007A0008D19E0000006007FFFFFFFFEB5ADEDB53F
:1007B0007EE000000000000180000000000000005A
:1007C0000000038000000000000000000007C000DF
:1007D000000000000000000007C000000000000052
:1007E0000000000FC00000000000000000001FE03B
:1007F0000000000000000000001FE00000000000FA
:10080000000000003FE00000000000000000003F8A
:10081000F00000000000000000007FF00000000079
:100820000000001FF87FF0000000000000003FFE05
:100830007FF0000000000000003FFF7FF00000009C
:10084000000000001FFFFBE0000000000000000FA0
:10085000FFF9FFC00000000000000FFFF9FFF800E3
:10086000000000000007FFF1FFFF00000000000093
:1008700003FC73FFFF80000000000001FE3FFFFF4C
:1008800080000000000000FF1E0FFF0000000000BD
:1008900000007FFE1FFC000000000000003FFFFF83
:1008A000F8000000000000000FDFFFE00000000083
:1008B0000000001F19FFC0000000000000003F3CC6
:1008C000FF00000000000000007E7CF80000000037
:1008D000000000007FFE7C0000000000000000FF20
:1008E000FFFC0000000000000000FFFFFE00000011
:1008F0000000000000FFFFFE0000000000000001FB
:10090000FFEFFE0000000000000001FFCFFE00002E
:10091000000000000003FF07FE00000000000000D0
:1009200003FC07FE0000000000000003F003FE00CF
:10093000000000000000018000FE00000000000038
:10094000000000007E000000000000000000003EEB
:10095000000000000000000000000C00000000008B
:1009600000078000FC000003C0000000078001FCBD
:10097000000003C0000000078001FC000003C0006D
:100980000000078001E00000001E00000007800159
:10099000E00000001E007FE3F79FF9FDE7787BDFB2
:1009A000C0FFF7FFBFFDFDFF787BDFC0FFF7FFBF94
:1009B000FDFDFF787BDFC0F0F787BC3DE1FF787B72
:1009C000DE00F0F787BC3DE1F0787BDE0000F787C2
:1009D000803DE1E0787BDE007FF7879FFDE1E078F6
:1009E0007BDE00FFF787BFFDE1E0787BDE00F0F7FC
:1009F00087BC3DE1E0787BDE00F0F787BC3DE1E0BD
:100A0000787BDE00F0F787BC3DE1E0787BDE00FF1D
:100A1000F7FFBFFDE1E07FFBDFC0FFF7FFBFFDE1B8
:100A2000E07FFBDFC07CF3F39F3DE1E03E7BCFC086
:100A30000000000000000000000000FFFFFFFFFFBB
:100A4000FFFFFFFFFFC0FFFFFFFFFD68DB111A3153
:100A5000C0FFFFFFFFFD2B5AFB6AEFC0FFFFFFFF48
:100A6000FD4B5B3B1A33C0FFFFFFFFFD6B5BDB6A97
:100A7000FDC000000000250028002B00022200FF1E
:100A80002100010204081020408001020408102007
:100A900001020408102000000000230026002900A5
:100AA0000404040404040404020202020202030314
:100AB00003030303EA277F3311241FBECFEFD8E0DF
:100AC000DEBFCDBF12E0A0E0B1E0ECE9F0E702C08C
:100AD00005900D92AA39B107D9F724E0AAE9B2E04E
:100AE00001C01D92A73DB207E1F715E0CBE5D5E0C7
:100AF00004C02197FE010E945C36CA35D107C9F7B0
:100B00000E94AE290C9441380C9400000895089579
:100B100091E0909392038093910310923504109288
:100B2000340408958091360490913704891B990B01
:100B300008950895AF92BF92CF92DF92EF92FF9205
:100B40000F931F93CF93DF936C017B018B01040FF5
:100B5000151FEB015E01AE18BF08C017D10759F091
:100B60006991D601ED91FC910190F081E02DC601D3
:100B70000995892B79F7C501DF91CF911F910F91CD
:100B8000FF90EF90DF90CF90BF90AF900895FC0161
:100B9000538D448D252F30E0842F90E0821B930BE2
:100BA000541710F0CF96089501970895FC01918D88
:100BB000828D981761F0A28DAE0FBF2FB11D5D968B
:100BC0008C91928D9F5F9F73928F90E008958FEF2D
:100BD0009FEF0895FC01918D828D981731F0828DE1
:100BE000E80FF11D858D90E008958FEF9FEF089538
:100BF000FC01918D228D892F90E0805C9F4F821B9C
:100C000091098F739927089583E993E00E94F8056D
:100C100021E0892B09F420E0822F089580E090E004
:100C2000892B29F00E94040681110C94000008957C
:100C3000FC01A48DA80FB92FB11DA35ABF4F2C9151
:100C4000848D90E001968F739927848FA689B78948
:100C50002C93A089B1898C91837080648C93938D3F
:100C6000848D981306C00288F389E02D80818F7DE2
:100C700080830895EF92FF920F931F93CF93DF939A
:100C8000EC0181E0888F9B8D8C8D98131AC0E889C8
:100C9000F989808185FF15C09FB7F894EE89FF8997
:100CA0006083E889F98980818370806480839FBF35
:100CB00081E090E0DF91CF911F910F91FF90EF9035
:100CC0000895F62E0B8D10E00F5F1F4F0F73112745
:100CD000E02E8C8D8E110CC00FB607FCFACFE88980
:100CE000F989808185FFF5CFCE010E941806F1CFEA
:100CF000EB8DEC0FFD2FF11DE35AFF4FF0829FB7F4
:100D0000F8940B8FEA89FB8980818062CFCFCF93E3
:100D1000DF93EC01888D8823B9F0AA89BB89E88923
:100D2000F9898C9185FD03C0808186FD0DC00FB6C9
:100D300007FCF7CF8C9185FFF2CF808185FFEDCF47
:100D4000CE010E941806E9CFDF91CF91089583303C
:100D500081F028F4813099F08230A9F0089587302D
:100D6000A9F08830C9F08430B1F4809180008F7D83
:100D700003C0809180008F7780938000089584B5B0
:100D80008F7784BD089584B58F7DFBCF8091B000AF
:100D90008F778093B00008958091B0008F7DF9CF58
:100DA000CF93DF93282F30E0F901E856FA4F849172
:100DB000F901EE57F54FD491F901E056F54FC49182
:100DC000CC23A1F081110E94A706EC2FF0E0EE0FDA
:100DD000FF1FEA56F54FA591B491EC91ED2381E008
:100DE00090E009F480E0DF91CF91089580E090E0F9
:100DF000FACF1F93CF93DF93282F30E0F901E85605
:100E0000FA4F8491F901EE57F54FD491F901E0566C
:100E1000F54FC491CC23A9F0162F81110E94A7068B
:100E2000EC2FF0E0EE0FFF1FEE58F54FA591B491B7
:100E30008FB7F894EC91111108C0D095DE23DC93A4
:100E40008FBFDF91CF911F910895DE2BF8CF909146
:100E5000230189130BC0ECE7FAE0E4919FEF909334
:100E60002301E13049F028F0E23061F060E00C94B9
:100E7000F90610926E00FACF90916F009D7F9093CB
:100E80006F00F4CF909170009D7F9093700091E07F
:100E90009093B0009091B100987F94609093B100CE
:100EA0001092B300E3CFCF93DF9390E0FC01EE57B5
:100EB000F54F24918056954FFC0184918823C9F009
:100EC00090E0880F991FFC01E455FA4FA591B49169
:100ED000FC01EE58F54FC591D49161110DC09FB73B
:100EE000F8948C91209582238C93888128232883E1
:100EF0009FBFDF91CF910895623051F49FB7F8946E
:100F00003C91822F809583238C93E8812E2BEFCF09
:100F10008FB7F894EC912E2B2C938FBFEACF2091B2
:100F2000000190E4299F900111248E50822B809320
:100F30007C0080917A00806480937A0080917A00AE
:100F400086FDFCCF809178009091790008953FB79D
:100F5000F89480910F0390911003A0911103B09128
:100F6000120326B5A89B05C02F3F19F00196A11DBD
:100F7000B11D3FBFBA2FA92F982F8827BC01CD01E3
:100F8000620F711D811D911D42E0660F771F881F42
:100F9000991F4A95D1F708958F929F92AF92BF9271
:100FA000CF92DF92EF92FF926B017C010E94A70724
:100FB0004B015C01C114D104E104F104B9F00E94B9
:100FC000A707681979098A099B09683E734081055A
:100FD000910580F321E0C21AD108E108F10888EEFA
:100FE000880E83E0981EA11CB11CE4CFFF90EF9007
:100FF000DF90CF90BF90AF909F908F9008952FB7C4
:10100000F89460910B0370910C0380910D03909103
:101010000E032FBF0895DC0180E0615090F09D9198
:101020009827E92FEF70F0E0E858FA4F2491E92F64
:10103000E295EF70F0E0E857FA4FE491822F8E27A7
:10104000ECCF0895DC012C911196ED91FC91F89470
:101050008181822B81839281322F309593239283D9
:1010600087E090E00197F1F781818323818383E218
:1010700090E00197F1F790817894EFECF0E03197F0
:10108000F1F7922381E009F480E00895FC0190815A
:101090000180F281E02D292F209560FF14C0F89483
:1010A0008281822382838181892B8183A3E2B0E0C4
:1010B0001197F1F78281982B9283789487ED90E0D5
:1010C0000197F1F70895F8948281822382838181C8
:1010D000892B8183AFEFB0E01197F1F78281982BD4
:1010E000928378948FE090E0EBCFDF92EF92FF92C3
:1010F0000F931F93CF93DF93EC01D62EE42E08E0DD
:1011000010E0FF24F39461E08D2D8F2109F460E05D
:10111000CE010E944608FF0C01501109A1F7E11011
:1011200010C0F894E981FA819181888180958923A2
:101130008183E981FA8192818881809589238283E4
:101140007894DF91CF911F910F91FF90EF90DF90F6
:101150000895EF92FF920F931F93CF93DF938C012B
:101160007B0140E065E50E947508E70188E0E80E34
:10117000F11C699140E0C8010E947508CE15DF0599
:10118000C1F7DF91CF911F910F91FF90EF900895DC
:10119000FC0190810180F281E02DF8948181292F5A
:1011A00020958223818378943DE743E050E03150DD
:1011B00029F1DA011197F1F780818923C1F3F894BD
:1011C0008281822382838181892B81837894ABE71A
:1011D000B7E01197F1F7F894818182238183A3E12D
:1011E000B1E01197F1F78081982381E009F080E068
:1011F0007894E3E6F6E03197F1F7089580E00895FA
:10120000AF92BF92CF92DF92EF92FF920F931F9314
:10121000CF93DF938B01BC0180914E0490914F04DA
:101220000E94A90840E06EEB80914E0490914F041B
:101230000E947508E801680189E0C80ED11CA090E1
:101240004E04B0904F0488E0E82EF12C10E001E04D
:10125000C5010E9422088111102B000F81E0E81ABD
:10126000F108B1F71993CC16DD0649F780914E04C9
:1012700090914F040E94C80891E0813009F090E0FD
:10128000892FDF91CF911F910F91FF90EF90DF9009
:10129000CF90BF90AF9008950F931F93CF93DF939C
:1012A000CDB7DEB729970FB6F894DEBF0FBECDBF1E
:1012B0008C0180914E0490914F040E94C8088111C6
:1012C00002C080E01FC0BE016F5F7F4FC8010E9457
:1012D00000098823B1F368E0CE0101960E940B0853
:1012E00099858913EECF8D818F33B9F020F48F313A
:1012F00041F789E007C08F3521F08F3711F78CE077
:1013000001C08BE029960FB6F894DEBF0FBECDBFAB
:10131000DF91CF911F910F9108958AE0F3CF089547
:10132000FC016370668B84819581268137816130F1
:1013300039F0633029F091878087338722870895B9
:10134000318720879387828708952F923F924F920B
:101350005F926F927F928F929F92AF92BF92CF9245
:10136000DF92EF92FF920F931F93CF93DF93CDB74E
:10137000DEB76A970FB6F894DEBF0FBECDBF9A8F67
:10138000898F7A8369834A01D22E18870F833701A8
:10139000BC2CDC0159962D913C915A9721153105B1
:1013A00009F015C118968D919C91199768177907C6
:1013B0000CF0D7C11A968D919C91481759070CF0E3
:1013C000D0C14C2C512CB6E0CB9E600D711D112468
:1013D0007C876B87161617060CF0C3C1EA2DF0E068
:1013E000FA87E98793E0EE0FFF1F9A95E1F7F88BF4
:1013F000EF87CF01840F951F181619060CF0B1C1A5
:10140000A98DBA8D58968C91811104C0BFEABD1583
:1014100008F4D394A98DBA8DED91FC9111970284B3
:10142000F385E02DCD010995B5E0DB9EC0011124C7
:10143000E981FA81FC83EB83312C212C9C01285813
:101440003F4F388F2F8B4A2D50E05E8B4D8BEF89AD
:10145000F88DE20DF31D44919E828D82D12CC12C1A
:1014600069817A81620D731D7A8B698B842F90E07C
:101470009C8B8B8BE98DFA8DA081B18140FF82C05E
:10148000F1E0BF126FC0AF126DC01C96ED91FC91E0
:101490002F813885A4014C0D5D1D69897A89898D5C
:1014A0009A8D0995EB89FC89F595E7954E2F5FEFAD
:1014B000C51AD50A6D817E818D899E89680F791F35
:1014C0007E836D8398E0C916D10481F6AFEF2A1AA6
:1014D0003A0AEB81FC81E40DF51DFC83EB83F5E01A
:1014E0002F16310409F0B3CF2F8138852615370523
:1014F000B9F0A98DBA8DED91FC91B1E0BB1257C046
:10150000AB1255C069817A816B5F7F4F0088F1898A
:10151000E02D830128E030E0A401898D9A8D0995A2
:10152000A98DBA8DED91FC9111970688F789E02D70
:10153000CD016A960FB6F894DEBF0FBECDBFDF9126
:10154000CF911F910F91FF90EF90DF90CF90BF90C0
:10155000AF909F908F907F906F905F904F903F9053
:101560002F9009941E96ED91FC91EF80F8840985E7
:101570001A8592014D815E816B817C81898D9A8D66
:10158000099590CF2F8138852615370509F48ACF24
:1015900031E0B31207C0A31205C01C96ED91FC9177
:1015A000930178CF1E96ED91FC917301E0CF6B858E
:1015B0007C85641975090684F785E02D73010F8514
:1015C00018899201A401898D9A8D0995A9CFF901F5
:1015D00034969491329745915491D91AB7E0DB9E95
:1015E000400D511D1124F901259134913C8B2B8B19
:1015F000FA0125903490FA01329674903196349124
:10160000398B329664903196449041E04C1518F035
:101610004A1508F07FC0662D062C000C770B7C83E2
:101620006B83842D042C000C990B9E838D83A98DD4
:10163000BA8DED91FC9111970284F385E02DCD01D7
:101640000995512CD12CC12CEA2DF0E0FA87E987BD
:101650002B2D30E03C872B87A401440D511D47FC06
:101660005A95588F4F8B69817A81660D711D67FC81
:101670007A957E876D877989C71608F051CF2C2D12
:1016800030E04D815E81420F531FA985BA854A9F84
:10169000C0014B9F900D5A9F900D1124FC01E80D45
:1016A000F91DF88BEF87852D612C4F89588D420FDE
:1016B000531F5E8B4D8B671408F050C04424439435
:1016C000480E877041F4C1010196EB89FC89E20D57
:1016D000F31DD4901C01D7FE19C0A98DBA8DED91D0
:1016E000FC91662D70E0B1E0BB1219C0AB1217C0BF
:1016F0002D853E85620F731F0484F585E02D2F81B3
:1017000038854D895E89898D9A8D0995DD0C6394A4
:10171000842DD1CF1E821D821C821B8288CF4B81DB
:101720005C81640F751FAB85BC856A9FC0016B9F90
:10173000900D7A9F900D112469817A81680F791F2D
:101740000684F785E02DEF80F88409851A859D01D0
:101750004F855889898D9A8D0995D8CF570CC39498
:101760008ACF6A960FB6F894DEBF0FBECDBFDF9169
:10177000CF911F910F91FF90EF90DF90CF90BF908E
:10178000AF909F908F907F906F905F904F903F9021
:101790002F9008958F929F92AF92CF92EF92FF92E7
:1017A0000F931F93CF93DF93EC01262F898D9A8D92
:1017B000009709F051C06A30D1F41D861C868D89CE
:1017C00048E0849F900111248E859F85820F931F8E
:1017D0009F878E8781E090E0DF91CF911F910F91DD
:1017E000FF90EF90CF90AF909F908F9008956D30C5
:1017F00089F3CC88AD888F898823C1F08C859D853D
:1018000036E0C39E800D911D1124488559854817E7
:10181000590764F44E855F851D861C8638E0A39EBB
:10182000C0011124840F951F9F878E87EA88FB884B
:10183000088919894E855F856C857D85CE010E945A
:10184000A5092C898C859D8546E0249F800D911DDE
:1018500011249D878C87BECF6A3069F41D861C8653
:10186000FC013696E4912D898E859F85E29F800D3F
:10187000911D1124ADCF6D3009F4ACCFFC0134962D
:101880003491631708F4A6CF3196E491E61708F473
:10189000A1CFFC01329685909490462F431B342FA4
:1018A00047E0349F800C911C1124F401329634914E
:1018B0003196E4913323A9F1EE2399F1CC88F40118
:1018C0003596E491AD884F89442301F10E2E000C2A
:1018D000FF0BE30FF11DCE9EA001CF9E500D1124F2
:1018E0006C857D85460F571F688579856417750758
:1018F0006CF44E855F851D861C86FC013696E4914E
:10190000AE9E400D511D11245F874E87EA88FB88EB
:10191000088919894E855F856C857D85CE010E9479
:10192000A509F4013496E4912C898C859D85E29F6C
:10193000800D911D11248DCF682F8AE694E00C94C0
:10194000CA0B6F927F928F929F92AF92BF92CF926B
:10195000DF92EF92FF920F931F93CF93DF93EC01EF
:101960006B015A0139014801E881F9810284F3854C
:10197000E02D0995E881F9810288F389E02D87013E
:101980009301A501B601CE010995A501480D591D88
:1019900041505109E881F9810288F389E02D9301D2
:1019A000B601CE010995E881F9810088F189E02D21
:1019B0009401A501B601CE010995C60CD71CB6014C
:1019C00061507109E881F9810088F189E02D940165
:1019D000A501CE010995E881F9810688F789E02DF6
:1019E000CE01DF91CF911F910F91FF90EF90DF908B
:1019F000CF90BF90AF909F908F907F906F90099401
:101A00006F927F928F929F92AF92BF92CF92DF920E
:101A1000EF92FF920F931F93CF93DF935C01EB0143
:101A20006A01490138018701DC01ED91FC916217DF
:101A3000730719F5641675062CF0962D872D3A015B
:101A4000C92ED82E9601261937092F5F3F4F048CD7
:101A5000F58DE02DA301BE01C5010995DF91CF9160
:101A60001F910F91FF90EF90DF90CF90BF90AF90BC
:101A70009F908F907F906F9008954615570591F431
:101A80002617370724F0892D4B01C22FD82F9E012E
:101A9000281939092F5F3F4F068CF78DE02DA601DD
:101AA000B401DACF0284F385E02D0995D501ED91DB
:101AB000FC910488F589E02D83019401A601BE0103
:101AC000C5010995D501ED91FC910688F789E02DB6
:101AD000C501DF91CF911F910F91FF90EF90DF90A3
:101AE000CF90BF90AF909F908F907F906F90099410
:101AF000EF92FF920F931F93DC011A960D911C91A8
:101B00001B9718962D913C911997ED91FC9100A08F
:101B1000F1A1E02D7B0150E040E070E060E009952C
:101B20001F910F91FF90EF9008954F925F926F92E7
:101B30007F928F929F92AF92BF92CF92DF92EF925D
:101B4000FF920F931F93CF93DF936C012B015A01E8
:101B500039014801DC01ED91FC910284F385E02D0F
:101B60000995E201640C751CD601ED91FC91C61536
:101B7000D7055CF40088F189E02D87019401A50167
:101B8000BE01C60109952196EFCF0688F789E02DA1
:101B9000C601DF91CF911F910F91FF90EF90DF90E1
:101BA000CF90BF90AF909F908F907F906F905F90FD
:101BB0004F9009948F929F92AF92BF92CF92DF92F3
:101BC000EF92FF920F931F93CF93DF93EC015B0192
:101BD0004A016901E881F9810284F385E02D0995C4
:101BE00095012C0D3D1D21503109E881F9810488B2
:101BF000F589E02D78018401A401B501CE01099594
:101C0000E881F9810688F789E02DCE01DF91CF9137
:101C10001F910F91FF90EF90DF90CF90BF90AF900A
:101C20009F908F9009948F929F92AF92BF92CF9284
:101C3000DF92EF92FF920F931F93CF93DF93EC010C
:101C40005B014A0169017801E881F9810284F38529
:101C5000E02D0995C80CD91C860101501109E881B5
:101C6000F9810488F589E02D9501A401B501CE0123
:101C70000995E881F9810688F789E02DCE01DF9189
:101C8000CF911F910F91FF90EF90DF90CF90BF9079
:101C9000AF909F908F900994EF92FF920F931F93B4
:101CA000DC01ED91FC9100A0F1A1E02D09951F91BF
:101CB0000F91FF90EF9008950F931F93DC01ED912A
:101CC000FC91068CF78DE02D09951F910F910895D9
:101CD0000F931F93DC01ED91FC91048CF58DE02DA9
:101CE00009951F910F910895DC01ED91FC910084FD
:101CF000F185E02D09943F924F925F926F927F920F
:101D00008F929F92AF92BF92CF92DF92EF92FF920B
:101D10000F931F93CF93DF935C017B014A0169010D
:101D2000390187E0680E711C93E0759467949A9569
:101D3000E1F72B01400E511E10E000E0312CD0E005
:101D4000C0E0CE0187709927330C892B59F4FE012E
:101D500083E0F595E7958A95E1F7E00FF11FE80D2F
:101D6000F91D349037FE0AC021E030E0A701B5012B
:101D70006C0F7D1F8AE694E00E94740E2196CC16AB
:101D8000DD06F9F68FEFE81AF80A060D171DE414C0
:101D9000F504A9F6DF91CF911F910F91FF90EF907D
:101DA000DF90CF90BF90AF909F908F907F906F907B
:101DB0005F904F903F9008952F923F924F925F9285
:101DC0006F927F928F929F92AF92BF92CF92DF924B
:101DD000EF92FF920F931F93CF93DF9300D000D029
:101DE00000D0CDB7DEB73C016A013E832D83FC8273
:101DF000EB825801A41AB50AB7FE03C0B194A194AE
:101E0000B1088D809E80861A970A97FE03C0919430
:101E1000819491088A149B045CF0902F812F0D818E
:101E20001E819D838E839C2D8D2D6B01692F782FB4
:101E30000C151D055CF09D818E817E836D83692F5D
:101E4000782F902F812F8601C92ED82E1601201AA7
:101E5000310A2B012D813E81421A530A57FE03C0DD
:101E6000519441945108710137FE03C03FEFE31ACA
:101E7000F30AF594E7948D819E81861797075CF5A8
:101E8000A1E0B0E0BA83A983C016D1064CF1D3011A
:101E9000ED91FC910484F585E02D2B813C81A80116
:101EA0006D817E818A149B041CF04D815E81B80196
:101EB000C3010995E418F508F7FE0AC02D813E819B
:101EC00089819A81280F391F3E832D83E20CF31CF0
:101ED0000F5F1F4FD9CF2FEF3FEF3A832983D4CF26
:101EE00026960FB6F894DEBF0FBECDBFDF91CF911F
:101EF0001F910F91FF90EF90DF90CF90BF90AF9028
:101F00009F908F907F906F905F904F903F902F9019
:101F100008952091E702260F3327331F2132310520
:101F2000ECF420918303FC0190E080E0243069F020
:101F300082E00895A091E7022191AC0149535D4FE1
:101F4000A40FB52FB11D2C930196861798F380919D
:101F5000E702680F6093E70280E0089581E008954A
:101F60001092830381E08093620310925D0361E02D
:101F700082E10E94F90661E083E10E94F906E9EB43
:101F8000F0E080818E7F808380818D7F808388E4F4
:101F90008093B80085E48093BC000895CF93DF93CD
:101FA00091E09093C6028823B9F0C091B800D09117
:101FB000BA008091BC008A7B8093BC0060E082E123
:101FC0000E94F90660E083E10E94F9060E94B00FCA
:101FD000D093BA00C093B800DF91CF910895CF920B
:101FE000DF92EF92FF920F931F93CF93DF93D82F3F
:101FF000C62F613208F098C00E94A7076B017C01D0
:102000008091830381116BC081E08093830380936F
:1020100062039FEF90936103109260039C0F909373
:102020005F0380935E0380915E03DD0FD82BD09316
:102030005E0380915D03813009F078C010925D03EA
:102040000E94A7076B017C0180915E038093BB0017
:102050008091850390918603A0918703B0918803B6
:10206000892B8A2B8B2BA1F00E94A7070091850357
:102070001091860320918703309188036C197D09A4
:102080008E099F09061717072807390708F448C063
:102090008091BC0083FDD8CF85EC8093BC000E946A
:1020A000A7076B017C0180918303813009F440C054
:1020B000809160038C1710F4C0916003EDE3F3E0AE
:1020C000A3E6B3E080E08C1355C08C2FDF91CF9155
:1020D0001F910F91FF90EF90DF90CF900895809126
:1020E000850390918603A0918703B0918803892B83
:1020F0008A2B8B2B09F484CF0E94A70700918503BC
:102100001091860320918703309188036C197D0913
:102110008E099F09061717072807390708F070CF9F
:10212000809184030E94CE0FC0E0CFCF85EEB5CF63
:102130008091850390918603A0918703B0918803D5
:10214000892B8A2B8B2B09F4AECF0E94A707009115
:1021500085031091860320918703309188036C19C1
:102160007D098E099F09061717072807390708F008
:102170009ACFD6CF91919D938F5FA5CFE0913704F1
:1021800080913604E81730F4F0E0ED59FC4F80817F
:1021900090E008958FEF9FEF08959091370480911C
:1021A00036042FEF3FEF981748F4E92FF0E0ED5990
:1021B000FC4F208130E09F5F90933704C901089560
:1021C000CF92DF92EF92FF920F931F93CF93DF9303
:1021D0007C01CB018A0120919203222389F0EB013B
:1021E0006B01C40ED51ECC15DD0569F06991D701D0
:1021F000ED91FC910190F081E02DC7010995F3CF9D
:10220000642F0E94890FC801DF91CF911F910F9118
:10221000FF90EF90DF90CF900895CF93DF931F92C0
:10222000CDB7DEB76983209192032223F9F0209184
:102230003404203258F021E030E0FC013383228363
:1022400090E080E00F90DF91CF9108958091350468
:10225000E82FF0E0EA55FD4F998190838F5F8093DE
:1022600035048093340481E090E0ECCF61E0CE014E
:1022700001960E94890FF7CF682F88E394E00C94B1
:102280000D11CF92DF92EF92FF920F931F93CF9396
:10229000DF93D091340481E0D13208F09CC0C0912A
:1022A00091030E94A7076B017C0180918303811138
:1022B0006CC082E08093830381E0809362038FEFA0
:1022C0008093610310926003D0935F03A6EAB2E0AB
:1022D000EDE3F3E080E0D8138DC010925E038091AF
:1022E0005E03CC0FC82BC0935E0380915D038130E9
:1022F00009F084C010925D030E94A7076B017C0166
:1023000080915E038093BB0080918503909186034A
:10231000A0918703B0918803892B8A2B8B2BA1F086
:102320000E94A707009185031091860320918703DF
:10233000309188036C197D098E099F0906171707CC
:102340002807390708F442C08091BC0083FDD8CF2C
:1023500085EC8093BC000E94A7076B017C018091F3
:102360008303823009F44CC0809161038F3F09F4EC
:1023700069C080916103803209F466C08091610375
:10238000803309F463C084E026C080918503909176
:102390008603A0918703B0918803892B8A2B8B2B0E
:1023A00009F483CF0E94A70700918503109186034B
:1023B00020918703309188036C197D098E099F094C
:1023C000061717072807390708F06FCF8091840395
:1023D0000E94CE0F85E010923504109234041092C2
:1023E0009203DF91CF911F910F91FF90EF90DF90BB
:1023F000CF9008959D9191938F5F6DCF85EEA9CF7A
:102400008091850390918603A0918703B091880302
:10241000892B8A2B8B2B09F4A2CF0E94A70700914E
:1024200085031091860320918703309188036C19EE
:102430007D098E099F09061717072807390708F035
:102440008ECFC4CF80E0C7CF82E0C5CF83E0C3CFBB
:10245000CF9388E60E94880560E088E394E00E94BC
:102460000D1160E888E394E00E940D1180918A03C9
:10247000CAE06C2F0E943C368295807F682F690FDE
:1024800088E394E00E940D1180918B036C2F0E94D1
:102490003C368295807F682F690F88E394E00E9424
:1024A0000D1180918C036C2F0E943C368295807FA9
:1024B000682F690F88E394E00E940D1180918D03CD
:1024C0006C2F0E943C368295807F682F690F88E3CD
:1024D00094E00E940D1180918E036C2F0E943C3677
:1024E0008295807F682F690F88E394E00E940D1128
:1024F00080918F038E516C2F0E943C368295807F95
:10250000682F690F88E394E00E940D1188E394E03E
:102510000E944111882329F01092900380E0CF910E
:10252000089581E08093900388E60E94880560E02A
:1025300088E394E00E940D11809189036C2F0E9422
:102540003C368295807F682F690F88E394E00E9473
:102550000D1188E394E00E9441118111DDCF81E0EB
:10256000DECFAF92BF92DF92EF92FF920F931F9355
:10257000CF93DF938B01040F151FEB015C01A61AAB
:10258000B70A7501EC0EFD1ED9908091D2040E940D
:1025900088058F2D90E00E943C11C70199270E9469
:1025A0003C116D2D88E394E00E940D1188E394E0C6
:1025B0000E9441116AE070E080E090E00E94CC0748
:1025C000C017D107F1F6DF91CF911F910F91FF90C6
:1025D000EF90DF90BF90AF900895EF92FF920F932E
:1025E0001F93CF93DF93EC01EC80FD806E157F0588
:1025F0000CF070C057FF04C0240F351F50E040E0BE
:102600008E819F81FA01E20FF31F8E179F071CF442
:102610009C01241B350B121613060CF05BC0922F85
:10262000842F8695869586958E9DD0018F9DB00DC1
:1026300011246A0F7B1FAF8DB8A1A60FB71F47707B
:1026400049F188E0841B482F682F70E0FB01E059B6
:10265000FF4FE491281708F063C0621B71092FEF48
:1026600030E002C0359527956A95E2F7E223013004
:10267000110539F0B0F10230110561F58C91E827B0
:1026800002C08C91E82BEC93941720F12C813D81B2
:10269000A20FB31FE92FE41BE83078F002301105D8
:1026A00021F58E2F9C9190959C932C813D81A20FBA
:1026B000B31F88508830B0F7E770EE2359F0F0E090
:1026C000E859FF4FE49101301105F9F010F10230A3
:1026D000110519F1DF91CF911F910F91FF90EF90AC
:1026E0000895E0958C91E823CECF81E00115110586
:1026F00009F480E081959E2F8C932C813D81A20F5F
:10270000B31F98509830C0F7D7CF8C91E82BEC933B
:10271000E1CFE0958C91E823FACF8C91E827F7CFB1
:102720000130110509F4ADCFE0F20230110509F4D2
:10273000A5CFAE0DBF1DAECF0F931F93CF93DF93E9
:1027400077FF04C0260F371F70E060E0DC011496AD
:10275000CD91DC91FB01E20FF31FCE17DF071CF4D4
:102760009E01261B370B121613064CF5FA0157FD76
:102770003796A3E0F595E795AA95E1F7EC9FD00190
:10278000ED9FB00DFC9FB00D11246A0F7B1FDC0183
:102790005F96ED91FC91E60FF71F4770552781E09A
:1027A00090E001C0880F4A95EAF7482F01301105E3
:1027B00059F0A8F02E0F3F1F02301105E1F0DF9114
:1027C000CF911F910F9108952E0F3F1FE217F3072E
:1027D000B1F38191DF011197842B8C93F7CF809512
:1027E0002E0F3F1FE217F30751F39191DF0111976D
:1027F00098239C93F7CFE217F30709F38191DF0148
:10280000119784278C93F7CF0F931F93FA01DC0164
:1028100056964C9156974230E9F04330A1F1413041
:1028200061F514964D915C91DA01AE1BBF0BFD0171
:10283000E21BF30B77FD0BC0DC0116964D915C910A
:102840006417750724F4AB01BF010E949C131F910C
:102850000F91089514964D915C91DA01A61BB70B68
:10286000BD0161507109DC0116964D915C91DA0150
:10287000AE1BBF0BFD01E21BF30B77FDE8CFAF01F1
:102880000E94ED12E4CF16964D915C91DA01A61BE1
:10289000B70BBD0161507109CDCF0F931F93FA01A2
:1028A000DC0156964C9156974230A9F0433091F195
:1028B000413019F514964D915C91DA01AE1BBF0BB6
:1028C000FD013197F7FD04C0AB01BF010E94ED127D
:1028D0001F910F91089514964D915C91DA01A61BFA
:1028E000B70BBD01DC0116964D915C91DA01AE1B70
:1028F000BF0BFD013197621B730BF7FDE9CFDC01C4
:1029000016964D915C91E417F50714F7AF010E94FC
:102910009C13DECF16964D915C91DA01A61BB70B86
:10292000BD01621B730BCECFFC0177FD64C08085B7
:102930009185681779070CF05EC057FD5CC08285F1
:102940009385481759070CF056C086898230B1F03C
:10295000833029F1813041F484819581841B950B6A
:10296000AB01BC01615071092130310509F108F456
:1029700043C02230310509F463C0089584819581F4
:10298000DC01A61BB70BBD016150710986819781DF
:10299000DC01A41BB50BAD0141505109E5CF868187
:1029A0009781861B970BBA01AC0141505109DCCFCE
:1029B000CA0157FD0796A3E095958795AA95E1F77B
:1029C000A481B5818A9F90018B9F300D9A9F300D15
:1029D0001124620F731F078CF0A1E02DE60FF71F83
:1029E0004770552721E030E001C0220F4A95EAF7F1
:1029F0008081822B80830895CA0157FD079633E0BA
:102A0000959587953A95E1F7A481B5818A9F9001C4
:102A10008B9F300D9A9F300D1124620F731F078C0E
:102A2000F0A1E02DE60FF71F4770552781E090E0F9
:102A300001C0880F4A95EAF7809590818923DACF03
:102A4000CA0157FD079623E0959587952A95E1F7EA
:102A5000A481B5818A9F90018B9F300D9A9F300D84
:102A60001124620F731F078CF0A1E02DE60FF71FF2
:102A70004770552721E030E001C0220F4A95EAF760
:102A800080818227B7CF08958EBD00000DB407FE68
:102A9000FDCF8EB50895FF920F931F93CF93DF93D1
:102AA000F82ED92FC62F8091870490918804892B06
:102AB00009F447C080918B040E94880580918704A7
:102AC00090918804DC01ED91FC910190F081E02D62
:102AD00060E009950F2D1D2FD1E0C1508091870432
:102AE00090918804CF3F31F1D03298F00E9441118B
:102AF00080918B040E9488058091870490918804BE
:102B0000DC01ED91FC910190F081E02D60E00995F0
:102B1000D1E08091870490918804F8016491DC01F0
:102B2000ED91FC910190F081E02D0995DF5F0F5F41
:102B30001F4FD3CFDF91CF911F910F91FF900C9436
:102B40004111E0919704F0919804908180919D0447
:102B50008095892380830F2D1D2FC15008F438C024
:102B6000F80184912091850430918604232B29F06B
:102B70000E9444150F5F1F4FF0CF28E030E040E87F
:102B8000E0919304F091940490919B04582F542366
:102B9000D9F05081952B9083E0919504F0919604A3
:102BA000908150919C04952B9083E0919504F09135
:102BB0009604508190919C0490959523908346951E
:102BC00021503109E9F6D6CF508190959523E3CF76
:102BD000DF91CF911F910F91FF9008951F93CF9395
:102BE000DF93EC018D8D9E8D892BF9F0162F89A135
:102BF0000E9488058D8D9E8DDC01ED91FC910190E8
:102C0000F081E02D60E009958D8D9E8DDC01ED91C8
:102C1000FC910190F081E02D612F09958D8D9E8DA5
:102C2000DF91CF911F910C944111ADA5BEA59C9150
:102C30008BA9809589238C938B8D9C8D892B31F06A
:102C4000862FDF91CF911F910C94441528E030E03E
:102C500080E8A9A5BAA599A9462F4823C1F04C91AF
:102C6000942B9C93ABA5BCA59C914AA9942B9C93B7
:102C7000ABA5BCA54C919AA9909594239C9386955D
:102C80002150310931F7DF91CF911F9108954C9177
:102C900090959423E6CF8CBD9DBD0895FF920F9330
:102CA0001F93CF93DF938091870490918804892BA1
:102CB00009F472C08CE08093B80065E08DE79AE07B
:102CC0000E944B1560916E0461508AE694E00E9468
:102CD000EE152091700430917104C901079697FD9B
:102CE000079623E0959587952A95E1F720916E0444
:102CF00030916F04829F8001839F100D929F100D71
:102D00001124C0918904D0918A0480918704909104
:102D100088040C0F1D1F892B09F47CC080918B0443
:102D20000E9488058091870490918804DC01ED91D0
:102D3000FC910190F081E02D60E40995FF24F3946B
:102D400080918704909188040C171D07E1F1BFE181
:102D5000BF15A0F40E94411180918B040E94880548
:102D60008091870490918804DC01ED91FC910190A1
:102D7000F081E02D60E40995FF24F39480918704AD
:102D8000909188046991DC01ED91FC910190F081B2
:102D9000E02D0995F394D4CF809185049091860419
:102DA000892B31F080919F049091A0040E944B16D2
:102DB000E0919904F0919A04908180919E0480950D
:102DC000892380837ACF0E9441118091870490915A
:102DD0008804892B09F45FC02091A1043091A204DA
:102DE0004091A3045091A40460E074E284EF90E069
:102DF0000E94B83320513109410951095695479530
:102E0000379527952093B800DF91CF911F910F91AF
:102E1000FF900895E0919704F0919804808190913B
:102E20009D04892B80830C171D0779F289912091CD
:102E3000850430918604232B19F00E944415F3CFAA
:102E400028E030E040E8E0919304F0919404909100
:102E50009B04582F5423D9F05081952B9083E091F7
:102E60009504F0919604908150919C04952B908349
:102E7000E0919504F0919604508190919C04909576
:102E800095239083469521503109E9F6CCCF5081A6
:102E900090959523E3CFE0919904F0919A04808175
:102EA00090919E04892B8083AFCF1F93CF93DF93A4
:102EB000EC01162F8D8D9E8D892B29F18CE080934E
:102EC000B80066EA111167EACE010E94EE158D8DF9
:102ED0009E8D892B41F12FA938AD49AD5AAD60E0E7
:102EE00074E284EF90E00E94B83320513109410927
:102EF000510956954795379527952093B800DF914E
:102F0000CF911F9108958B8D9C8D892B21F08DA9D8
:102F10009EA90E944B16EFA5F8A990818CA98095D7
:102F200089238083CECFEFA5F8A980819CA9892B26
:102F30008083E5CF089590E080E008958093BB0002
:102F400084E88093BC008091BC0087FFFCCF909107
:102F5000B900987F81E0983231F0983129F09034AF
:102F600019F080E008950895089584EA8093BC00E4
:102F70008091BC0087FFFCCF8091B900887F19F059
:102F800080EC0C949E1780E008955F926F927F9280
:102F90008F929F92AF92BF92CF92DF92EF92FF9269
:102FA0000F931F93CF93DF93CDB7DEB7582E742EB8
:102FB000652EB62E922E0E94B517852D0E949E1763
:102FC0008D2D0E949E178C2D0E949E178B2D837035
:102FD000A82A80E081108CE08A290E949E17862D05
:102FE0000E949E17872D0E949E178CE0F694E7940E
:102FF000D794C7948A95D1F78C2D807FC82E892DC0
:103000008F708C290E949E17812F0E949E17802FFF
:103010000E949E1784E98093BC008091BC0084FDCF
:10302000FCCFDF91CF911F910F91FF90EF90DF9038
:10303000CF90BF90AF909F908F907F906F905F9058
:1030400008954F925F926F927F928F929F92AF926C
:10305000BF92CF92DF92EF92FF920F931F93CF9385
:10306000C82FC090C904D090CA04E090CB04F0905F
:10307000CC04CB01BA01A70196010E94B8334901E3
:103080005A0125E0F694E794D794C7942A95D1F78E
:1030900035E096958795779567953A95D1F747E00E
:1030A000660F771F881F991F4A95D1F7A7019601D0
:1030B0000E94B83329013A018B019C01B501A4019A
:1030C000552766277727E7E0440F551F661F771FB0
:1030D000EA95D1F7525061097109440D551D661DDD
:1030E000771D812CA12C8C2F0E94C517CF911F9189
:1030F0000F91FF90EF90DF90CF90BF90AF909F9097
:103100008F907F906F905F904F9008958F92AF92C5
:10311000CF92DF92EF92FF920F931F9388248394B4
:10312000443051056105710509F0812C4450510965
:1031300061097E4F97E0440F551F661F771F9A95D0
:10314000D1F7A22EC12CD12C7601C39400E010E05F
:1031500098010E94C5171F910F91FF90EF90DF908B
:10316000CF90AF908F900895CF93DF93D82FC62F35
:103170000E94B5178D2F0E949E178C2F0E949E17BC
:1031800084E98093BC008091BC0084FDFCCFDF917A
:10319000CF910895CF93C82F60E880E18C0F0E94F3
:1031A000B418EC2FF0E0EE0FFF1FEF54FB4F11822D
:1031B0001082CF9108952F923F924F925F926F921B
:1031C0007F928F929F92AF92BF92CF92DF92EF92B7
:1031D000FF920F931F93CF93DF9300D000D01F92E5
:1031E000CDB7DEB789838091C1049091C204A091CC
:1031F000C304B091C404892B8A2B8B2B19F481E072
:103200000E94CA188091C5049091C604A091C70479
:10321000B091C804892B8A2B8B2B19F482E00E9471
:10322000CA184090C1045090C2046090C3047090CA
:10323000C404411451046104710409F47FC129815B
:10324000222309F4A5C0C090B304D090B404F12C9B
:10325000E12C4091B8044983A3019201C701B60152
:103260000E942C369B01AC018981E82FF0E0EB5BDA
:10327000FE4FA081B0E00E94AD334B015C01DC0148
:10328000CB0180589545A84CB0428130924CAB4E52
:10329000BB4008F446C060912601709127018091DF
:1032A000280190912901A30192010E94B83369017C
:1032B0007A0181E044E0C416D104E104F10408F489
:1032C00089C086E0C816D104E104F10408F49BC06B
:1032D00019829DE2C91691E0D906E104F10440F09B
:1032E00029812F5F2983F694E794D794C794F1CF6F
:1032F0004981411103C0E894C0F81982A3019201E9
:10330000C701B6010E942C369B01AC018981E82FD0
:10331000F0E0EB5BFE4FA081B0E00E94AD334B01CB
:103320005C01B501A40182E20E9421188091B304DE
:103330009091B404B0E0A0E08C159D05AE05BF05EA
:1033400029F48091B80499818917D1F029812295B7
:10335000207FB701A60182E30E9486186091BB041A
:103360006C6681E10E94B418D092B404C092B30498
:1033700029812093B8048091D10480688093D1047E
:103380008092CD049092CE04A092CF04B092D0044B
:10339000C090C504D090C604E090C704F090C80463
:1033A000C114D104E104F10409F4B0C08090CD044B
:1033B0009090CE04A090CF04B090D004C501B40189
:1033C000A70196010E94B833283031054105510507
:1033D00000F582E00F900F900F900F900F90DF910B
:1033E000CF911F910F91FF90EF90DF90CF90BF9002
:1033F000AF909F908F907F906F905F904F903F9095
:103400002F900C94CA1804E0C02ED12CE12CF12C82
:1034100072CF1D82213431054105510560F08D8147
:103420008F5F8D83CC0CDD1CEE1CFF1C56954795E1
:1034300037952795EFCFC501B401A70196010E94EA
:10344000B83329833A834B835C832FEF3FEF4FE000
:1034500050E00E94693656016701E12CF12C00E032
:1034600010E00E94963629013A019D819295907F45
:103470009D83C12CD12C7601C39441145104610465
:10348000710431F0CC24CA94DC2CFFE0EF2EF12C37
:10349000C301B20127E0660F771F881F991F2A9585
:1034A000D1F7A70196010E94B83349015A018B0157
:1034B0009C0149815A816B817C815527662777273A
:1034C000E7E0440F551F661F771FEA95D1F752506A
:1034D00061097109480D591D6A1D7B1D812CAD8044
:1034E0008AE30E94C5178CE445284628472809F03E
:1034F0008CE06091BC046062682B82E10E94B41889
:1035000081E090E09093B6048093B5040F900F9003
:103510000F900F900F90DF91CF911F910F91FF901F
:10352000EF90DF90CF90BF90AF909F908F907F9063
:103530006F905F904F903F902F9008958090C504BA
:103540009090C604A090C704B090C8048114910460
:10355000A104B104D9F2C090B504D090B604F12C06
:10356000E12C2091B9042983A5019401C701B6017A
:103570000E942C369B01AC018981E82FF0E0EB5BC7
:10358000FE4FA081B0E00E94AD338B019C0100583A
:103590001545284C30420130124C2B4E3B4008F46C
:1035A00043C060912601709127018091280190917C
:1035B0002901A50194010E94B83369017A0184E0D0
:1035C000C816D104E104F10408F403CF96E0C9164B
:1035D000D104E104F10408F458C019822DE2C216A6
:1035E00021E0D206E104F10440F049814F5F4983B4
:1035F000F694E794D794C794F1CF8981811103C0E1
:10360000E894C0F81982A5019401C701B6010E948F
:103610002C369B01AC019981E92FF0E0EB5BFE4F6A
:10362000A081B0E00E94AD33AB01BC0182E20E94F8
:1036300021188091B5049091B604B0E0A0E08C15FB
:103640009D05AE05BF0531F48091B904298182172B
:1036500009F45CCF29812295207FB701A6018AE376
:103660000E9486186091BC046C6682E10E94B418C6
:10367000D092B604C092B50449814093B9048091B8
:10368000D10480688093D10441CF84E0C82ED12C2E
:10369000E12CF12CB5CF4F925F926F927F92AF9257
:1036A000BF92CF92DF92EF92FF920F931F93CF932F
:1036B000DF93D82F082F10E0F801EE0FFF1FEE0F59
:1036C000FF1FE354FB4F40805180628073804114A0
:1036D00051046104710489F48D2FDF91CF911F9102
:1036E0000F91FF90EF90DF90CF90BF90AF907F90C1
:1036F0006F905F904F900C94CA185801AA0CBB1C95
:10370000F501EF54FB4FC080D180F12CE12C0F5418
:103710001B4FF801C681A3019201C701B6010E94A7
:103720002C369B01AC01EC2FF0E0EB5BFE4FA0814F
:10373000B0E00E94AD339B01AC0120583545484CA8
:1037400050422130324C4B4E5B4008F43FC06091F8
:103750002601709127018091280190912901A301F0
:1037600092010E94B83369017A0184E0C816D1043D
:10377000E104F10408F4B0CFE6E0CE16D104E10490
:10378000F10408F470C0C0E0FDE2CF16F1E0DF06FE
:10379000E104F10430F0CF5FF694E794D794C79436
:1037A000F3CFC11103C0E894C0F8C0E0A3019201B7
:1037B000C701B6010E942C369B01AC01EC2FF0E052
:1037C000EB5BFE4FA081B0E00E94AD332AE1D11146
:1037D00022E2AB01BC01822F0E942118F501EF54B7
:1037E000FB4F80819181B0E0A0E08C159D05AE0576
:1037F000BF0521F4F80186818C1731F12C2F229519
:10380000207FB701A6018D2F880F880F880F865D56
:103810000E948618F801618580E0D11180E26C6415
:10382000682B80E18D0F0E94B418F501EF54FB4F17
:10383000D182C082F801C6838091D10490E2D11177
:1038400090E8892B8093D104DF91CF911F910F9144
:10385000FF90EF90DF90CF90BF90AF907F906F90F0
:103860005F904F90089584E0C82ED12CE12CF12C6C
:103870009ACFFF920F931F93CF93DF9300D0CDB7D2
:10388000DEB7E0E1F1E010E000E08191080F111DEA
:1038900081E0E332F807C9F743E150E060E171E00D
:1038A00082E090E00E94B1120F5F1F4F1A830983DC
:1038B00042E050E0BE016F5F7F4F90E080E00E94E9
:1038C000B112E9E0F1E080E191E010E000E0219147
:1038D000020F111D8E179F07D1F78091110199E0FA
:1038E000F92E8F9DC001112447E050E069E071E09E
:1038F00047960E94B1120F5F1F4F1A830983809170
:1039000011018F9DC001112442E050E0BE016F5FA4
:103910007F4F45960E94B1120F900F90DF91CF918B
:103920001F910F91FF90089580911D0190911E01AC
:10393000092E000CAA0BBB0B80549340A446BE4F2B
:103940008093C9049093CA04A093CB04B093CC0491
:1039500080E00E944B1B82E00C944B1B4F925F92C5
:103960006F927F928F929F92AF92BF92CF92DF928F
:10397000EF92FF920F931F93CF93DF9300D000D06D
:103980001F92CDB7DEB740911E0350911F03052E45
:10399000000C660B770B40900A0150900B01609071
:1039A0000C0170900D0100911B0110911C01012E62
:1039B000000C220B330BC090C104D090C204E090E5
:1039C000C304F090C40481E08D83C114D104E104E8
:1039D000F10409F41D828091BD049091BE04A09170
:1039E000BF04B091C00489839A83AB83BC83809168
:1039F00009018823B9F18091130190911401A091DC
:103A00001501B09116014C015D01840E951EA61E94
:103A1000B71E840D951DA61DB71D805E9E45A84F3F
:103A2000BF4F840F951FA61FB71FAC01BD01400FEC
:103A3000511F621F731F1092D10489819A81AB813B
:103A4000BC8184179507A607B707B9F14093BD0459
:103A50005093BE046093BF047093C00480E00E9442
:103A60004B1B2BC08091170190911801A091190157
:103A7000B0911A014C015D01840E951EA61EB71E61
:103A8000840D951DA61DB71D8052914AA740B1090E
:103A9000840F951FA61FB71FAC01BD01401B510B22
:103AA000620B730B1092D10489819A81AB81BC8126
:103AB000481759076A077B0749F6CD28CE28CF2833
:103AC00069F48091C5049091C604A091C704B09197
:103AD000C80488169906AA06BB0699F01092C1047C
:103AE0001092C2041092C3041092C4048092C504C0
:103AF0009092C604A092C704B092C8048D810E941F
:103B0000DB186091D1046623C1F081EB0F900F9018
:103B10000F900F900F90DF91CF911F910F91FF9019
:103B2000EF90DF90CF90BF90AF909F908F907F905D
:103B30006F905F904F900C94B4180F900F900F906F
:103B40000F900F90DF91CF911F910F91FF90EF9009
:103B5000DF90CF90BF90AF909F908F907F906F90AD
:103B60005F904F9008958EE00E948F072091210171
:103B700030E0DC010E9462362FEF33E040E050E09D
:103B80000E948E332093A502089580E10E948F0742
:103B900024E630E0DC010E9462362FEF33E040E0A3
:103BA00050E00E948E332093A4020895DC01ED9131
:103BB000FD918081ED91FD919081ED91FD916C9150
:103BC00063708E2309F064609F2309F06860E3EF5F
:103BD000FDE1E60FF11D659565956D936D917D9104
:103BE0008D919D91099423C01AC012C016C010C0B7
:103BF0001EC009C014C013C006C019C009C00DC042
:103C000007C00DC014C062507040804090400BC08F
:103C1000615070408040904006C06E5F01C06F5F91
:103C20007F4F8F4F9F4F9E938E937E936E930895F9
:103C3000BF92CF92DF92EF92FF920F931F93CF9399
:103C4000DF93EC01B62EC72E8D85811105C0CE0104
:103C50000E94C80881110EC01B861D861C8680E04C
:103C6000DF91CF911F910F91FF90EF90DF90CF9058
:103C7000BF90089540E060EFCE010E94750801E01A
:103C8000E12CD12C11E0CE010E942208F82ECE01A9
:103C90000E94220891E0F91218C0813099F5113480
:103CA000D8F2DB86D11002C081E08D878B8188231A
:103CB00099F22396EB2DFC2DCF01089629912193A3
:103CC000E817F907D9F781E0CBCFEE2DF0E0F81235
:103CD0000FC08B851817A0F4DE01AE0FBF1F13961F
:103CE0008C91802379F4F12C193008F41C87D12EA3
:103CF000EC0FFD1F8381902F9095892383830AC049
:103D00008113F1CFFE01EE0DF11D8381802B8383A2
:103D1000FF24F3946F2DCE010E9446081F5F000F11
:103D200011F4E39401E087E08E1508F0ACCFB7CF33
:103D30004F925F926F927F928F929F92AF92BF92BB
:103D4000CF92DF92EF92FF920F931F93CF93DF9367
:103D5000CDB7DEB761970FB6F894DEBF0FBECDBF0B
:103D60000E94FF07C0909F02D090A002E090A102A5
:103D7000F090A2026C197D098E099F096938734180
:103D80008105910508F458C080919E02811154C0AC
:103D900010924A0480914E0490914F040E94C808EA
:103DA00040E06CEC80914E0490914F040E947508A5
:103DB0004091480464E480914E0490914F040E9425
:103DC000750880914A04882391F1E0914904E950F3
:103DD0000EEE12E0E33038F4F0E0EE0FFF1FED5C82
:103DE000FE4F0081118180914B04882309F47EC02D
:103DF0008091480481117AC00E94FF074B015C0149
:103E00002801110F6608770880914E0490914F04A5
:103E10000E942208813059F00E94FF076419750939
:103E200086099709681579058A059B0568F381E07D
:103E300080934A0480939E020E94FF076C197D09BB
:103E40008E099F0961347F4181059105C0F1809100
:103E50009E028823A1F1E0914E04F0914F04138655
:103E60001586148612861186108617821682158290
:103E700014821382BE01665F7F4F80914E04909141
:103E80004F040E94181E811138C060E070E08EEF70
:103E900092EC20E030E040E05FE30E94EA330E94D1
:103EA000CD346093A3020E94FF0760939F0270933A
:103EB000A0028093A1029093A20210929E026196AA
:103EC0000FB6F894DEBF0FBECDBFDF91CF911F912B
:103ED0000F91FF90EF90DF90CF90BF90AF909F90A9
:103EE0008F907F906F905F904F900895B801110F61
:103EF000880B990B0E94CC079ACF67E0CE010A96F7
:103F00000E940B0899898913C0CF80914E0490912B
:103F10004F040E94C808882309F4B7CFBE016F5F21
:103F20007F4FCE010A960E940009882309F4ADCF85
:103F300068E0CE0101960E940B0899858913A5CFF0
:103F40006A8170E0762F6627770F770F770F2981C8
:103F500058E0259F90011124262B372B8A8580312C
:103F6000D1F4688570E08F81AB01481B5109CA010B
:103F70009695982F8827979587950E944836CB016C
:103F80004097B90153E0660F771F5A95E1F76078C3
:103F90009C01260F371F213854EE35070CF475CFDE
:103FA000B901330F880B990B0E94053520E030E0F2
:103FB00040E05CE30E94BA356CCF0F931F93CF9320
:103FC000DF9380911803882359F0109289030E948F
:103FD000281210921803DF91CF911F910F9108952D
:103FE0000E94FF0700919A0210919B0220919C026F
:103FF00030919D02601B710B820B930B693E7340E5
:104000008105910520F4012B022B032B21F70E943F
:10401000FF0760939A0270939B0280939C02909397
:104020009D0288E60E94880560E088E394E00E9493
:104030000D1188E394E00E944111882391F01092C1
:10404000900380919003882331F210928B03109299
:104050008A0310928903DF91CF911F910F910C94E5
:10406000281281E08093900367E088E60E94EF0FBA
:104070001092370480933604873018F388E394E075
:104080000E94CD10D82F982F92959770CAE08D2F4F
:104090008F709C9F800D11248093890388E394E0A6
:1040A0000E94CD10982F92959F708F709C9F800DCD
:1040B000112480938A0388E394E00E94CD10982F06
:1040C000929593708F709C9F800D112480938B0329
:1040D00088E394E00E94CD10982F92959F708F7086
:1040E0009C9F800D112480938C0388E394E00E94B0
:1040F000CD10982F92959F708F709C9F800D1124EA
:1041000080938D0388E394E00E94CD10982F9295C0
:104110009F708F709C9F800D112480938E0388E385
:1041200094E00E94CD10982F9F70925E82958F70C0
:104130008C9F900D112490938F03D7FF4CCF81CF8C
:10414000CF93DF93EC018091D2040E9488058D2FDC
:1041500090E00E943C11CE0199270E943C1188E317
:1041600094E00E94411161E08091D2040E94EF0F1F
:104170001092370480933604882339F088E394E062
:104180000E94CD10DF91CF91089580E0FBCFEF9298
:10419000FF920F931F93CF93DF938B01040F151F93
:1041A000EB017C01E61AF70AC7018C0F9D1F0E94E4
:1041B000A0208993C017D107B9F7DF91CF911F9144
:1041C0000F91FF90EF900895DF92EF92FF920F937F
:1041D0001F93CF93DF9300D0CDB7DEB71A82198239
:1041E0008091110129E0829FC001112442E050E03A
:1041F000BE016F5F7F4F45960E94C720F12CE12CD6
:1042000010E000E089E0D82E8091110197018D9D8A
:10421000200D311D1124C90147960E94A020080FCE
:10422000111D3FEFE31AF30A87E0E816F10461F786
:104230000F5F1F4F89819A8108171907B1F4809188
:1042400011018D9DC001112447E050E069E071E04B
:1042500047960E94C7200F900F90DF91CF911F913A
:104260000F91FF90EF90DF9008950E94391CF3CFDB
:10427000FC0101900020E9F73197AF01481B590B71
:10428000BC018AE694E00C949A058F929F92AF92BB
:10429000BF920F931F93CF93DF93CDB7DEB7A19754
:1042A0000FB6F894DEBF0FBECDBF19A2423008F49E
:1042B0004AE08E010F5D1F4F842E912CB12CA12C52
:1042C000A50194010E94B833E62FB901CA01EA3072
:1042D000F4F4E05DD801EE938D01232B242B252BE4
:1042E00079F790E080E0109719F0CD010E94382115
:1042F000A1960FB6F894DEBF0FBECDBFDF91CF9170
:104300001F910F91BF90AF909F908F900895E95C9F
:10431000E1CF682F70E090E080E04AE00C94452106
:10432000CF93DF930E943821EC018DE991E00E9448
:1043300038218C0F9D1FDF91CF9108950C94382167
:10434000CF93DF930E948921EC018DE991E00E94D7
:1043500038218C0F9D1FDF91CF910895CF92DF926E
:10436000EF92FF92CF93DF936C01990FEE08FF0855
:10437000F7FE1DC08DE20E949C0CEC01662777279A
:10438000CB016C197D098E099F094AE00E944521E5
:10439000C80FD91F8DE991E00E9438218C0F9D1F15
:1043A000DF91CF91FF90EF90DF90CF9008954AE09A
:1043B000C701B6010E944521EC01ECCFCF93DF93FA
:1043C0004AE00E944521EC018DE991E00E943821EC
:1043D0008C0F9D1FDF91CF9108954F925F926F9246
:1043E0007F928F929F92AF92BF92CF92DF92EF9285
:1043F000FF920F931F93CF936B017C01742EAC013E
:104400009B010E942736882399F080EA91E0CF91A2
:104410001F910F91FF90EF90DF90CF90BF90AF90E2
:104420009F908F907F906F905F904F900C94382169
:1044300046015701E894B7F82FEF3FEF4FE75FE7EA
:10444000C501B4010E94273681110DC02FEF3FEF47
:104450004FE75FE7C501B4010E94563418161CF4FB
:1044600084EA91E0D4CF2FEF3FEF4FE75FE4C7013D
:10447000B6010E94B53518161CF488EA91E0C7CF42
:104480002FEF3FEF4FE75FECC701B6010E945634B4
:1044900087FDF3CF20E030E0A901C701B6010E94FB
:1044A000563410E000E087FF08C08DE20E949C0CAB
:1044B0008C01F7FAF094F7F8F094C0E060E070E057
:1044C00080E09FE37C1641F020E030E040E251E4E0
:1044D0000E945B34CF5FF6CFA70196010E94EA33BA
:1044E0002B013C010E94D4344B015C014AE00E9444
:1044F00045217C01E00EF11ECC23B1F1C501B401D0
:104500000E9403359B01AC01C301B2010E94E93353
:104510004B015C018EE20E949C0CE80EF91EC1501A
:1045200018F120E030E040E251E4C501B4010E94FE
:10453000BA352B013C010E94D4344B01B12CA12C83
:104540004AE0C501B4010E944521E80EF91EC501EB
:10455000B4010E9403359B01AC01C301B2010E946A
:10456000E9334B015C01DBCFC701CF911F910F9164
:10457000FF90EF90DF90CF90BF90AF909F908F9083
:104580007F906F905F904F900895209170043091CC
:104590007104C901079697FD079623E095958795C5
:1045A0002A95E1F720916E0430916F04829FA0015B
:1045B000839F500D929F500D112470E060E0809118
:1045C000890490918A040C943A38CF92DF92EF924A
:1045D000FF920F931F930E94C522109277041092AE
:1045E0007604109279041092780481E090E0909320
:1045F0007D0480937C0490937B0480937A0483E011
:1046000080937E0480937F04E0913C03E03108F0C6
:1046100071C0F0E0E25FFC4D0C945C361E23F02389
:104620000424212435244C2467247B249D24B8248D
:10463000CA24DC24EC24FC2414252C2560910A01D6
:1046400070910B0180910C0190910D01603826E969
:10465000720728E98207910528F022E020937E0462
:1046600020937F040E94033520E030E04AE754E4C1
:104670000E945B3442E00E94ED218DE991E00E94AE
:10468000382181E080937E0480937F048091A5028D
:10469000843620F48CEA91E00E949E216091A5026C
:1046A00070E090E080E00E94053520E030E040E2DC
:1046B00051E40E945B3442E00E94ED218EEA91E0D9
:1046C0000E949E2180913B038823E1F080EB91E0E2
:1046D0000E949E212091A40230E0EE24E394F12C6C
:1046E00009E010E047E150E060E470E08AE694E021
:1046F0000E94950D1F910F91FF90EF90DF90CF904A
:104700000C944E168091A30287FD04C08BE292E0C8
:104710000E949E21C090A3020C2C000CDD08EE0824
:10472000FF084AE0C701B601F7FE0BC08DE20E9408
:104730009C0C66277727CB016C197D098E099F0990
:104740004AE00E94452187EF0E949C0C85EB91E096
:104750000E949E21809132038823C9F18BE292E06E
:104760000E949E2180918B038A3020F48BE292E09C
:104770000E949E2180918B030E9489218091890350
:1047800080FF28C089EB91E00E949E2180918A03DE
:104790008A3020F48CEA91E00E949E2180918A0365
:1047A0000E948921809109018823B9F08BEB91E067
:1047B0000E949E21809111018A3020F48BE292E0C8
:1047C0000E949E21809111010E94892193CF87EB45
:1047D00091E0C6CF8BE292E0D7CF8EEB91E0E8CFAD
:1047E000809111010E94A02181E080937E0480933A
:1047F0007F0480913C030E94892181EC91E00E941A
:104800009E2180911201E0CFE0911001F0E0EE0FC7
:10481000FF1FE75CFE4F20813181AAE0B0E00E94DB
:10482000DA330E94DE2181E080937E0480937F044E
:1048300080913C030E94892183ED91E00E949E219A
:1048400059CF80911F01909120010E94AE2181E0FB
:1048500080937E0480937F0480913C030E94892191
:104860008DED91E00E94902145CF80910901882330
:1048700081F08DEE91E00E94902181E080937E0492
:1048800080937F0480913C030E94892185EF91E011
:10489000E9CF81EF91E0EFCF80910E0124E6829F76
:1048A000C00111240E94AE2181E080937E04809398
:1048B0007F0480913C030E94892186E092E00E945F
:1048C0009E2180EF0E949C0C82E192E0B7CF809104
:1048D0000F0124E6829FC00111240E94AE2181E0D5
:1048E00080937E0480937F0480913C030E94892101
:1048F00086E192E0E4CF82E080937E0480937F049F
:1049000060911701709118018091190190911A011D
:104910000E94DE2181E080937E0480937F04809159
:104920003C030E94892182E292E00E949E2180EF56
:104930000E949C0C8AED91E081CF82E080937E04FE
:1049400080937F046091130170911401809115018F
:10495000909116010E94DE2181E080937E04809375
:104960007F0480913C030E9489218DE292E0DDCF9B
:1049700080911B0190911C010E94AE2181E08093E7
:104980007E0480937F0480913C030E94892188E308
:1049900092E0CBCF80911D0190911E010E94AE212B
:1049A00081E080937E0480937F0480913C030E9489
:1049B000892189E492E0B9CF809121010E94A02150
:1049C00081E080937E0480937F0480913C030E9469
:1049D000892185E592E032CF809112010E94A021C9
:1049E00081E080937E0480937F0480913C030E9449
:1049F000892180E692E022CF80918B038A3020F4D7
:104A00008CEA91E00E949E2180918B030E94A0215C
:104A100081E080937E0480937F0480913C030E9418
:104A2000892180E792E00ACF80918A038A3020F4BE
:104A30008CEA91E00E949E2180918A030E94A0212D
:104A400081E080937E0480937F0480913C030E94E8
:104A5000892187E792E0F2CE80912201882381F0BC
:104A600080E892E00E94902181E080937E04809310
:104A70007F0480913C030E94892187E892E0F2CE76
:104A800084E892E0EFCF0E94353885ED8093BC003A
:104A90008091850390918603A0918703B09188034C
:104AA0000796A11DB11D23E0B695A795979587950B
:104AB0002A95D1F72091BC0024FD03C010928303F6
:104AC000089540918503509186036091870370910A
:104AD0008803452B462B472B69F30097A105B105A9
:104AE00041F025E32A95F1F700000197A109B109EA
:104AF000E1CF809184030C94CE0F1F920F920FB6DA
:104B00000F9211242F933F934F935F936F937F9353
:104B10008F939F93AF93BF93EF93FF938091250360
:104B200090912603A0912703B0912803892B8A2B0B
:104B30008B2BD1F190912003E0912103F09122037E
:104B40008081892780838091250390912603A091FD
:104B50002703B0912803181619061A061B069CF4A1
:104B60008091250390912603A0912703B0912803FB
:104B70000197A109B1098093250390932603A0937F
:104B80002703B0932803FF91EF91BF91AF919F91BD
:104B90008F917F916F915F914F913F912F910F90E6
:104BA0000FBE0F901F901895809123010E94270738
:104BB000EACF1F920F920FB60F9211242F933F93BB
:104BC0004F935F936F937F938F939F93AF93BF9315
:104BD000EF93FF9383E993E00E941806FF91EF9112
:104BE000BF91AF919F918F917F916F915F914F9105
:104BF0003F912F910F900FBE0F901F9018951F920D
:104C00000F920FB60F9211242F938F939F93EF93D0
:104C1000FF93E091A303F091A4038081E091A903A5
:104C2000F091AA0382FD1BC090818091AC038F5F3D
:104C30008F732091AD03821741F0E091AC03F0E057
:104C4000ED56FC4F958F8093AC03FF91EF919F91B0
:104C50008F912F910F900FBE0F901F90189580810C
:104C6000F4CF1F920F920FB60F9211242F933F9300
:104C70008F939F93AF93BF9380910B0390910C03FD
:104C8000A0910D03B0910E0330910A0323E0230F8E
:104C90002D3758F50196A11DB11D20930A0380936D
:104CA0000B0390930C03A0930D03B0930E0380911C
:104CB0000F0390911003A0911103B091120301967C
:104CC000A11DB11D80930F0390931003A0931103B6
:104CD000B0931203BF91AF919F918F913F912F910C
:104CE0000F900FBE0F901F90189526E8230F029685
:104CF000A11DB11DD2CF1F920F920FB60F9211249A
:104D00002F933F934F935F936F937F938F939F93D3
:104D1000AF93BF93EF93FF938091B900887F803664
:104D200009F44AC0F0F5883209F4A7C018F58031BB
:104D300009F49BC0B8F4882309F4F9C0883009F459
:104D400094C0FF91EF91BF91AF919F918F917F910F
:104D50006F915F914F913F912F910F900FBE0F90E8
:104D60001F901895883109F488C0803251F78093DC
:104D7000610314C0803409F49DC040F48033B9F35A
:104D80008833F9F68093610385ECB0C0803509F46F
:104D900085C0883509F496C0883499F60E94452567
:104DA000D0CF883909F48CC038F5883729F050F411
:104DB000883611F0803729F683E0809383031092C0
:104DC000090357C0883809F47BC0803919F080384E
:104DD00009F0B7CF80910903803208F071C0E091EB
:104DE000090381E08E0F809309038091BB00F0E0FE
:104DF000E751FD4F80833DC0803B39F0E0F4803ABD
:104E000009F479C0883A09F09CCF84E08093830349
:104E10001092E8021092E702E0913004F091310420
:104E200009958091E70281110FC081E08093E7022C
:104E30001092C70209C0803C09F4A6CF883C09F44F
:104E4000A3CF883B09F07DCFE091E80281E08E0F8F
:104E50008093E802F0E0E953FD4F80818093BB002E
:104E60009091E8028091E70229C080915E038093CF
:104E7000BB0085EC8093BC0064CF9091600380916F
:104E80005F03981758F5E091600381E08E0F8093DF
:104E90006003F0E0E35CFC4F8081E9CFE0916003C8
:104EA00081E08E0F809360038091BB00F0E0E35CB3
:104EB000FC4F80839091600380915F039817C8F244
:104EC00085E8D8CFE091600381E08E0F8093600386
:104ED0008091BB00F0E0E35CFC4F80838091620333
:104EE00081115CCF81E080935D0384EA8093BC00F4
:104EF0001092830326CF85EC8093BC00109283032D
:104F000080910903803230F4E0910903F0E0E75129
:104F1000FD4F10826091090370E0E0913204F0913E
:104F2000330489EE92E00995109209030ACF10929A
:104F3000610334CF1F920F920FB60F9211242F935B
:104F40003F934F935F936F937F938F939F93AF9311
:104F5000BF93EF93FF9380914604909147040E9482
:104F6000D61DFF91EF91BF91AF919F918F917F914E
:104F70006F915F914F913F912F910F900FBE0F90C6
:104F80001F9018951F920F920FB60F9211242F9316
:104F90003F934F935F936F937F938F939F93AF93C1
:104FA000BF93EF93FF9380914404909145040E9436
:104FB000D61DFF91EF91BF91AF919F918F917F91FE
:104FC0006F915F914F913F912F910F900FBE0F9076
:104FD0001F901895CF92DF92EF92FF92CF93DF93BD
:104FE000109296031092950398EEC92E93E0D92E55
:104FF000E12CF12CC0929703D0929803E092990390
:10500000F0929A0381E591E0909394038093930347
:1050100085EC90E09093A00380939F0384EC90E054
:105020009093A2038093A10380EC90E09093A4035B
:105030008093A30381EC90E09093A6038093A50353
:1050400082EC90E09093A8038093A70386EC90E015
:105050009093AA038093A9031092AC031092AD031E
:105060001092AE031092AF031092370410923604E0
:1050700010923504109234040E94B00F86E895E037
:10508000909331048093300487E895E09093330443
:105090008093320410923B0410923A04C0923C0474
:1050A000D0923D04E0923E04F0923F0483E691E00A
:1050B000909339048093380480E58093D204109251
:1050C000B2041092B1041092B4041092B30410927E
:1050D000B6041092B5041092B7041092B80410925E
:1050E000B9048091300190913101A09132018093F7
:1050F000BA049093BB04A093BC041092BD04109218
:10510000BE041092BF041092C0041092C104109209
:10511000C2041092C3041092C4041092C5041092E9
:10512000C6041092C7041092C80480E892EBA6EE61
:10513000BEE08093C9049093CA04A093CB04B093BB
:10514000CC0462E082E00E94530762E083E00E94A8
:105150005307E2EAFAE0E491F0E0EE0FFF1FEA56AF
:10516000F54FA591B491B093A604A093A504E4E8EB
:10517000FAE044914093A904E3EAFAE0E491F0E014
:10518000EE0FFF1FEA56F54FC591D491D093A804B6
:10519000C093A704E5E8FAE0E491E093AA04109232
:1051A000AC041092AD041092AE041092AF042BE345
:1051B0003FE1C9010197F1F79C91842F892391E088
:1051C00009F490E08881E82309F0926025EA34E050
:1051D0009093AB043093450420934404809169007C
:1051E0008C7F816080936900E89AC1E0C093B0042D
:1051F000309347042093460480916900837F846044
:1052000080936900E99A82E08093B00410926D0463
:1052100010926C0420E830E030936F0420936E0409
:1052200080E290E090937104809370043093730453
:1052300020937204909375048093740410928004F8
:1052400010927704109276041092790410927804E8
:10525000C0937F04C0937E048FEF9FEF90937D04F3
:1052600080937C0490937B0480937A04C0938104A0
:1052700010928204109284041092830485E791E0D6
:1052800090936B0480936A0488E394E0909388047D
:105290008093870410928A04109289048FEF809380
:1052A0008E0480938F04809390048093910484E013
:1052B0008093920480E580939F041092A004109242
:1052C00086041092850460E08FE00E945307E1E9B4
:1052D000FAE0E491E0935C04EFEAFAE0E491F0E0B4
:1052E000EE0FFF1FEA56F54F8591949190935E045F
:1052F00080935D0410926704109269041092680410
:105300001092660410926504109264041092630473
:1053100010926204109261041092600410925F0473
:105320008CE594E090934F0480934E0410924C04CB
:1053300010924D041092480489E080934904C09370
:105340004A04C0934B0410925B0410925A04DF91FC
:10535000CF91FF90EF90DF90CF900895CF93DF93A0
:10536000CDB7DEB760970FB6F894DEBF0FBECDBFE6
:10537000789484B5826084BD84B5816084BD85B530
:10538000826085BD85B5816085BD80916E0081603C
:1053900080936E00109281008091810082608093E2
:1053A00081008091810081608093810080918000E4
:1053B0008160809380008091B10084608093B1000F
:1053C0008091B00081608093B00080917A00846009
:1053D00080937A0080917A00826080937A00809135
:1053E0007A00816080937A0080917A00806880934F
:1053F0007A001092C100E091A303F091A40382E02F
:105400008083E091A303F091A4031082E0919F03B5
:10541000F091A0031082E091A103F091A20380E13A
:1054200080831092AB03E091A703F091A80386E07C
:105430008083E091A503F091A60380818061808341
:10544000E091A503F091A603808188608083E091BC
:10545000A503F091A603808180688083E091A50375
:10546000F091A60380818F7D808360E084E00E94BC
:10547000530760E080E10E94530761E08CE00E94E6
:10548000530761E084E00E94F90683E08093000105
:105490008091890490918A04892B11F10E94C52280
:1054A000209170043091710480916E0490916F048A
:1054B000213231050CF0B5C0B9016052710977FF96
:1054C00002C06F5F7F4F759567958357910997FD70
:1054D000019600E210E023E730E042ED55E0B4C071
:1054E0002091700430917104C901079697FD0796C9
:1054F000B3E095958795BA95E1F720916E043091C8
:105500006F04AC01429FC001439F900D529F900DCC
:1055100011240E94103790938A0480938904892B68
:1055200009F0BCCF0E94C5220E944E16E0914E04A5
:10553000F0914F0413861586148612861186108604
:105540001782168215821482138210924C041092D4
:105550004D0401E0BE016F5F7F4F80914E0490913A
:105560004F040E94181E882309F446C267E0CE014A
:1055700001960E940B0898858913ECCF809148040E
:10558000811128C080914E0490914F040E94C80858
:10559000BE016F5F7F4F80914E0490914F040E9437
:1055A000A90840E064EB80914E0490914F040E9462
:1055B000750880914E0490914F040E942208182F84
:1055C00080914E0490914F040E94C808111102C0AE
:1055D00000934804109149048981803111F40C949E
:1055E0007A33CE0101960E944C09811708F0F3C16D
:1055F000809149048093490480914C048F5F80938B
:105600004C048981883239F008F0EFC1803119F0FB
:10561000823209F09FCF80914D048F5F80934D04BB
:1056200099CFB9016054710977FF02C06F5F7F4F56
:10563000759567958255910997FD019600E410E0F4
:1056400022E530E042EB57E0959587950E947B0E6E
:1056500082E080938C048091870490918804892B48
:1056600009F4AEC08CE380938B041092370410923F
:10567000360410923504109234040E94B00F86E86C
:1056800095E0909331048093300487E895E09093FF
:105690003304809332048091920487FD1EC061E040
:1056A0000E94530761E0809192040E94F90661E034
:1056B00070E080E090E00E94CC0760E0809192046E
:1056C0000E94F9066AE070E080E090E00E94CC075A
:1056D00061E0809192040E94F90680918704909184
:1056E0008804892B09F42BC18CE08093B80064E016
:1056F0008EEC95E00E944B156091700461508AE633
:1057000094E00E94EE1564E08AEC95E00E944B154F
:1057100080918C0460E1813009F064E18AE694E0D4
:105720000E94EE1564E086EC95E00E944B15809196
:105730006E0490916F048038910509F02BC180911F
:105740007004909171048032910509F00FC164E0FA
:1057500082EC95E00E944B1569ED8AE694E00E9488
:10576000EE1580918C0462E2813009F061EF8AE6E7
:1057700094E00E94EE1566E086EB95E00E944B15E2
:105780008091870490918804892B09F41AC1209193
:10579000A1043091A2044091A3045091A40460E0BC
:1057A00074E284EF90E00E94B8332051310941093E
:1057B000510956954795379527952093B800B2CE55
:1057C00061E0809190040E94530761E08091910410
:1057D0000E94530780919004082E000C990BFC0145
:1057E000E056F54FE491F0E0EE0FFF1FEE58F54F55
:1057F000259134913093980420939704FC01EE573F
:10580000F54FE491E0939D0480919104082E000CE3
:10581000990BFC01E056F54FE491F0E0EE0FFF1F0D
:10582000EE58F54FA591B491B0939A04A0939904C2
:10583000FC01EE57F54FE491E0939E048C91E82B28
:10584000EC938091850490918604892B09F434C0EF
:105850001FB7F89480911303811127C0EAEAFAE098
:105860008491ECE8FAE09491E82FF0E0EE0FFF1F4E
:10587000E455FA4FA591B491EC91E92321F461E04C
:105880008AE00E94F90661E08AE00E9453078CB525
:1058900080618CBD8CB580648CBD61E08DE00E9420
:1058A000530761E08BE00E945307809113038F5FE1
:1058B000809313031FBFEFCE61E080918E040E949E
:1058C000530761E080918F040E94530780918E04FA
:1058D000082E000C990BFC01E056F54FE491F0E026
:1058E000EE0FFF1FEE58F54F25913491309394043D
:1058F00020939304FC01EE57F54FE491E0939B0451
:1059000080918F04082E000C990BFC01E056F54F96
:10591000E491F0E0EE0FFF1FEE58F54FA591B49122
:10592000B0939604A0939504FC01EE57F54FE491D3
:10593000E0939C048C91E095E823EC93ACCE8091AD
:10594000850490918604892B31F080919F04909179
:10595000A0040E944B16E0919904F0919A04908162
:1059600080919E04809589238083C1CE80349105E7
:1059700009F0F2CE63E08FEB95E00E944B15809129
:105980008C046FE9813009F06FEC8AE694E00E94A4
:10599000EE15E2CE8036910509F0DECE80917004DE
:1059A00090917104409709F0D7CE63E08CEB95E0BD
:1059B0000E944B1580918C0460E1813031F36FEAD5
:1059C000E4CFE0919904F0919A04808190919E0433
:1059D000892B8083A7CD8981803111F48CE00ACE98
:1059E000CE0101960E944C0905CE8B3309F413CEEB
:1059F000823409F0AFCD0FCE1A82198242E050E016
:105A0000BE016F5F7F4F90E080E00E94C72062E0A0
:105A1000E62EF12C10E000E0C7010E94A020080F44
:105A2000111D5FEFE51AF50A85E1E816F104A1F70B
:105A30000F5F1F4F89819A810817190709F0CFC09E
:105A400043E150E060E171E082E090E00E94C72015
:105A50000E94E4201092BA041092BB041092BC047D
:105A600060E880E10E94B41860E881E10E94B41807
:105A700060E882E10E94B41880E896E3AEEBB6E2FB
:105A80008093260190932701A0932801B0932901C8
:105A900062E987EB0E94B4180E94941C0E94AE1C1D
:105AA0000E94B31D0E94C51D0E94981E0E94DD1F0A
:105AB0000E94C52210927704109276041092790405
:105AC0001092780481E090E090937D0480937C04B0
:105AD00090937B0480937A0483E080937E04809388
