:100000000C9452050C94852C0C945D2C0C947A0560
:100010000C947A050C947A050C947A050C947A0564
:100020000C947A050C947A050C947A050C947A0554
:100030000C947A050C947A050C947A050C947A0544
:100040000C94E92A0C947A050C947A050C947A05A0
:100050000C947A050C947A050C947A050C947A0524
:100060000C943E2B0C947A05000103070F1F3F7F71
:100070000080C0E0F0F8FCFE00000000003E5B4F96
:100080005B3E3E6B4F6B3E1C3E7C3E1C183C7E3CF8
:10009000181C577D571C1C5E7F5E1C00183C180006
:1000A000FFE7C3E7FF0018241800FFE7DBE7FF3096
:1000B000483A060E2629792926407F050507407F04
:1000C00005253F5A3CE73C5A7F3E1C1C08081C1C77
:1000D0003E7F14227F22145F5F005F5F06097F016D
:1000E0007F006689956A606060606094A2FFA29458
:1000F00008047E040810207E201008082A1C080826
:100100001C2A08081E101010100C1E0C1E0C303873
:100110003E3830060E3E0E06000000000000005F74
:1001200000000007000700147F147F14242A7F2A90
:100130001223130864623649562050000807030052
:10014000001C2241000041221C002A1C7F1C2A089E
:10015000083E080800807030000808080808000001
:1001600060600020100804023E5149453E00427F75
:10017000400072494949462141494D331814127FC4
:100180001027454545393C4A494931412111090764
:100190003649494936464949291E000014000000E5
:1001A00040340000000814224114141414140041B7
:1001B00022140802015909063E415D594E7C121174
:1001C000127C7F494949363E414141227F414141AC
:1001D0003E7F494949417F090909013E4141517327
:1001E0007F0808087F00417F41002040413F017F98
:1001F000081422417F404040407F021C027F7F0460
:1002000008107F3E4141413E7F090909063E4151A8
:10021000215E7F09192946264949493203017F0198
:10022000033F4040403F1F2040201F3F4038403F99
:10023000631408146303047804036159494D4300AF
:100240007F4141410204081020004141417F0402E6
:10025000010204404040404000030708002054547D
:1002600078407F284444383844444428384444285B
:100270007F385454541800087E090218A4A49C78AE
:100280007F0804047800447D40002040403D007F0A
:100290001028440000417F40007C047804787C08EA
:1002A0000404783844444438FC18242418182424BE
:1002B00018FC7C08040408485454542404043F44A3
:1002C000243C4040207C1C2040201C3C4030403CD2
:1002D00044281028444C9090907C4464544C440032
:1002E0000836410000007700000041360800020196
:1002F0000204023C2623263C1EA1A161123A404082
:10030000207A3854545559215555794122545478FE
:1003100042215554784020545579400C1E52721297
:100320003955555559395454545939555454580020
:1003300000457C410002457D420001457C407D1224
:1003400011127DF0282528F07C5455450020545486
:100350007C547C0A097F4932494949323A44444431
:100360003A324A4848303A4141217A3A424020786C
:10037000009DA0A07D3D4242423D3D4040403D3C6D
:1003800024FF2424487E4943662B2FFC2F2BFF0992
:1003900029F620C0887E0903205454794100004486
:1003A0007D413048484A32384040227A007A0A0A71
:1003B000727D0D19317D2629292F282629292926E4
:1003C00030484D4020380808080808080808382F29
:1003D00010C8ACBA2F102834FA00007B00000814B3
:1003E0002A142222142A14085500550055AA55AA89
:1003F00055AAFF55FF55FF000000FF00101010FF29
:1004000000141414FF001010FF00FF1010F010F083
:10041000141414FC001414F700FF0000FF00FF1474
:1004200014F404FC141417101F10101F101F1414C0
:10043000141F00101010F0000000001F101010100A
:100440001F10101010F010000000FF1010101010FE
:1004500010101010FF10000000FF140000FF00FF3C
:1004600000001F10170000FC04F4141417101714D8
:1004700014F404F40000FF00F714141414141414FA
:10048000F700F7141414171410101F101F1414146D
:10049000F4141010F010F000001F101F0000001FD7
:1004A00014000000FC140000F010F01010FF10FF0A
:1004B000141414FF141010101F00000000F010FF9F
:1004C000FFFFFFFFF0F0F0F0F0FFFFFF0000000083
:1004D00000FFFF0F0F0F0F0F3844443844FC4A4A07
:1004E0004A347E02020606027E027E0263554941BC
:1004F000633844443C04407E201E2006027E0202F3
:1005000099A5E7A5991C2A492A1C4C7201724C3006
:100510004A4D4D303048784830BC625A463D3E49DD
:100520004949007E0101017E2A2A2A2A2A44445F81
:10053000444440514A444040444A51400000FF0175
:1005400003E080FF000008086B6B08361236243683
:10055000060F090F060000181800000010100030E8
:1005600040FF0101001F01011E00191D1712003C70
:100570003C3C3C0000000000005EBCE2613FDD83CB
:10058000C29C7E20A3FD1F41009D23BE46DB65F873
:100590008C11AF32CA57E974000000002400270014
:1005A0002A00DB40A4A62EAFDA0281DA1281DA0239
:1005B000818F2000A1C8D300408DAED580A8000057
:1005C0000000250028002B00000060000000000053
:1005D000000000000000000000E00000000000003B
:1005E0000000000000000001E0000000000000002A
:1005F00000000000000001F000000000000000000A
:10060000000000000003F0000000000000000000F7
:100610000000000007F000000000000000000000E3
:1006200000000007F80000000000000000000000CB
:1006300000000FF800000003C0007E000001E00091
:100640007F0FF800000003C000FE000001E000FF83
:10065000EFF800000003C000FE000001E000FFFF13
:10066000F800000003C000F00000000F007FFE7FD4
:10067000C0000003C000F00000000F003FFE7FF844
:100680003FF1FBCFFCFEF3BC3DEFE01FFE7FFF7FA1
:10069000FBFFDFFEFEFFBC3DEFE01FC6FFFF7FFB61
:1006A000FFDFFEFEFFBC3DEFE00FE3C7FE787BC33C
:1006B000DE1EF0FFBC3DEF0007FF87FC787BC3DE4A
:1006C0001EF0F83C3DEF0001FFFFF0007BC3C01EB1
:1006D000F0F03C3DEF0001F37FE03FFBC3CFFEF0C5
:1006E000F03C3DEF0003E33F807FFBC3DFFEF0F013
:1006F0003C3DEF0007E73C00787BC3DE1EF0F03C9A
:100700003DEF0007FFBE00787BC3DE1EF0F03C3DEE
:10071000EF0007FFFE00787BC3DE1EF0F03C3DEFEC
:10072000000FFFFE007FFBFFDFFEF0F03FFDEFE07C
:100730000FFFFF007FFBFFDFFEF0F03FFDEFE00F5C
:10074000F9FF003E79F9CF9EF0F01F3DE7E01FF181
:10075000FF0000000000000000000000001F80FFFC
:10076000007FFFFFFFFFFFFFFFFFFFE01C007F0098
:100770007FFFFFFFFEB46D888D18E000001F007F33
:10078000FFFFFFFE95AD7DB577E000000F007FFF16
:10079000FFFFFEA5AD9D8D19E0000006007FFFFF65
:1007A000FFFEB5ADEDB57EE0000000000001800069
:1007B00000000000000000000380000000000000B6
:1007C00000000007C000000000000000000007C09B
:1007D0000000000000000000000FC000000000004A
:1007E000000000001FE00000000000000000001FEB
:1007F000E00000000000000000003FE000000000FA
:1008000000000000003FF0000000000000000000B9
:100810007FF0000000000000001FF87FF0000000E3
:10082000000000003FFE7FF0000000000000003FDD
:10083000FF7FF0000000000000001FFFFBE0000051
:1008400000000000000FFFF9FFC0000000000000E2
:100850000FFFF9FFF800000000000007FFF1FFFFA5
:1008600000000000000003FC73FFFF800000000098
:100870000001FE3FFFFF80000000000000FF1E0F90
:10088000FF000000000000007FFE1FFC00000000D1
:100890000000003FFFFFF8000000000000000FDF35
:1008A000FFE0000000000000001F19FFC000000072
:1008B000000000003F3CFF00000000000000007E40
:1008C0007CF800000000000000007FFE7C000000BB
:1008D0000000000000FFFFFC00000000000000001E
:1008E000FFFFFE0000000000000000FFFFFE000010
:1008F000000000000001FFEFFE000000000000000B
:1009000001FFCFFE0000000000000003FF07FE0013
:1009100000000000000003FC07FE000000000000D3
:100920000003F003FE00000000000000018000FE54
:10093000000000000000000000007E000000000039
:1009400000000000003E0000000000000000000069
:100950000C000000000000078000FC000003C00045
:100960000000078001FC000003C0000000078001B8
:10097000FC000003C0000000078001E00000001E32
:10098000000000078001E00000001E007FE3F79FE9
:10099000F9FDE7787BDFC0FFF7FFBFFDFDFF787B48
:1009A000DFC0FFF7FFBFFDFDFF787BDFC0F0F787FB
:1009B000BC3DE1FF787BDE00F0F787BC3DE1F078DD
:1009C0007BDE0000F787803DE1E0787BDE007FF78B
:1009D000879FFDE1E0787BDE00FFF787BFFDE1E068
:1009E000787BDE00F0F787BC3DE1E0787BDE00F04D
:1009F000F787BC3DE1E0787BDE00F0F787BC3DE1A6
:100A0000E0787BDE00FFF7FFBFFDE1E07FFBDFC0AA
:100A1000FFF7FFBFFDE1E07FFBDFC07CF3F39F3D0D
:100A2000E1E03E7BCFC000000000000000000000BD
:100A300000FFFFFFFFFFFFFFFFFFFFC0FFFFFFFF04
:100A4000FD68DB111A31C0FFFFFFFFFD2B5AFB6A67
:100A5000EFC0FFFFFFFFFD4B5B3B1A33C0FFFFFF03
:100A6000FFFD6B5BDB6AFDC02200FF210001020479
:100A70000810204080010204081020010204081020
:100A800020000000002300260029000404040404C0
:100A9000040404020202020202030303030303002C
:100AA000AD2CF13311241FBECFEFD8E0DEBFCDBF98
:100AB00024E0ACECB2E001C01D92AA36B207E1F727
:100AC00012E0A0E0B1E0EAE2F0E702C005900D928A
:100AD000AC3CB107D9F715E0C1E5D5E004C02197DA
:100AE000FE010E94CE34C035D107C9F70E94282EDE
:100AF0000C9408380C94000091E09093CA03809302
:100B0000C9031092C8031092C70308959091BE03C1
:100B10009111FCCF91E09093BE039093BD032FEF12
:100B20002093BC031092BB03260F2093BA0390932B
:100B3000B9039091B903880F892B8093B9038091F1
:100B4000B803813011F51092B8038091B9038093F6
:100B5000BB008091BC0083FDF8CF85EC8093BC0086
:100B60008091BE038130E1F38091BB03861710F4BE
:100B70006091BB0328E933E0A8E7B3E0F9018E2FC9
:100B8000821B861720F0862F089585EEE7CF81918E
:100B90008D93F5CF8F929F92AF92BF92CF92DF92BB
:100BA000EF92FF92CF93611571058105910521F4B4
:100BB00061E070E080E090E023E0660F771F881F1F
:100BC000991F2A95D1F76115710521E082079105DA
:100BD00008F44EC06115710528E08207910508F4FC
:100BE0004BC06115710520E48207910508F048C0EB
:100BF00020E430E0C3E06901F12CE12CA7010E9460
:100C0000393649015A0180918000807F80938000AD
:100C1000C861C0938100C9010197909387008093B8
:100C200086008091810087708093770360E072E195
:100C30008AE790E0A70196010E940F36AA24BB2400
:100C4000CA01B901A50194010E940F3660E472E463
:100C50008FE090E00E943936CA01B901CF91FF9030
:100C6000EF90DF90CF90BF90AF909F908F900895BE
:100C700021E030E0C1E0BFCF28E030E0C2E0BBCFF0
:100C800020E031E0C4E0B7CF809175039091760306
:100C9000891B990B089508950895482FE62F282F52
:100CA00030E0863009F459C000F58330E1F1853039
:100CB00009F44FC04830E0F14E3010F1443108F0F3
:100CC00063C02E50310981E090E0A0E0B0E004C0A4
:100CD000880F991FAA1FBB1F2A95D2F728B1EE23B0
:100CE00009F44FC0822B88B908958A30C9F18B303E
:100CF000D9F18930F9F6809180008F778093800058
:100D00002850310981E090E0A0E0B0E004C0880FF5
:100D1000991FAA1FBB1F2A95D2F7E1112EC025B13A
:100D2000809582232CC09091B0009F7D9093B0005D
:100D300081E090E0A0E0B0E004C0880F991FAA1FF6
:100D4000BB1F4A95D2F72BB1EE23A1F0822B8BB9B2
:100D5000089594B59F7D94BDEBCF94B59F77FBCF5D
:100D6000809180008F7DCACF8091B0008F77809373
:100D7000B000C6CF80958223EACF25B1822B85B9FA
:100D8000089580958223AFCF089510927603109234
:100D900075031092C8031092C7031092BE0381E03E
:100DA0008093BD031092B803449A459AE9EBF0E0B2
:100DB00080818E7F808380818D7F808380E280939D
:100DC000B80085E48093BC008BE496E090937403B4
:100DD000809373038CE496E0909372038093710385
:100DE00008950895CF92DF92EF92FF920F931F9391
:100DF000613009F45BC0623009F490C08830C8F4F7
:100E00009AB141E050E060E070E004C0440F551F2B
:100E1000661F771F8A95D2F7409594239AB98BB1B4
:100E200048234BB91F910F91FF90EF90DF90CF9027
:100E300008958E30B0F424B1082F0850110B81E0D2
:100E400090E0A0E0B0E004C0880F991FAA1FBB1F6C
:100E50000A95D2F78095282324B995B1892385B9BD
:100E6000E1CF8431F8F6E7B190E09C012E503109D2
:100E700041E050E060E070E06A017B0104C0CC0C0E
:100E8000DD1CEE1CFF1C2A95D2F7860100950E236F
:100E900007B928B1089704C0440F551F661F771F74
:100EA0008A95D2F74095422348B9BCCF883078F470
:100EB0009AB141E050E060E070E004C0440F551F7B
:100EC000661F771F8A95D2F7942B9AB9ABCF8E30D5
:100ED00088F424B18850990B41E050E060E070E064
:100EE00004C0440F551F661F771F8A95D2F7242B25
:100EF00024B998CF843108F095CF27B18E50990B43
:100F000041E050E060E070E004C0440F551F661FF0
:100F1000771F8A95D2F7242B27B984CF8830B8F46D
:100F20003AB141E050E060E070E07A018B0104C02A
:100F3000EE0CFF1C001F111F8A95D2F7C7012E2D42
:100F4000209523232AB92BB1822B8BB96BCF8E30FE
:100F5000B0F434B1082F0850110B81E090E0A0E00C
:100F6000B0E004C0880F991FAA1FBB1F0A95D2F7D3
:100F7000282F2095232324B925B1822B70CF8431CB
:100F800008F050CF37B1682F6E50770B81E090E0BA
:100F9000A0E0B0E004C0880F991FAA1FBB1F6A958C
:100FA000D2F7282F2095232327B928B1822B88B97F
:100FB00039CFCF92DF92EF92FF920F931F93CF938F
:100FC000DF937C016A0110E000E00C151D0581F043
:100FD000EB01D701ED91FC910190F081E02D699139
:100FE000C7010995892B21F00F5F1F4FBE01EDCF7F
:100FF000C801DF91CF911F910F91FF90EF90DF908B
:10100000CF900895880F991F04970197F1F70895DD
:101010003FB7F89480914C0390914D03A0914E03FB
:10102000B0914F0326B5A89B05C02F3F19F001963C
:10103000A11DB11D3FBFBA2FA92F982F8827BC0132
:10104000CD01620F711D811D911D43E0660F771F59
:10105000881F991F4A95D1F708958F929F92AF925A
:10106000BF92CF92DF92EF92FF926B017C010E94C0
:1010700008084B015C01C114D104E104F104B9F08A
:101080000E940808681979098A099B09683E73401B
:101090008105910580F381E0C81AD108E108F108C3
:1010A00028EE820E23E0921EA11CB11CE4CFFF901B
:1010B000EF90DF90CF90BF90AF909F908F9008956A
:1010C0002FB7F894609148037091490380914A03C7
:1010D00090914B032FBF08952091000190E4299F28
:1010E000900111248E50822B80937C0080917A0095
:1010F000806480937A0080917A0086FDFCCF809195
:101100007800909179000895E0E0615098F0DC015A
:101110008D918E27E82FEF70F0E0E858FA4F949108
:10112000E82FE295EF70F0E0E857FA4FE491E927F5
:10113000CD01EBCF8E2F08950F931F93CF93DF93A5
:10114000FC011081C181D281F8948981812B89832E
:101150008A81012F009580238A8383E090E00E949A
:1011600002088981802389838AE090E00E94020836
:10117000C881789485E390E00E940208C12381E051
:1011800009F480E0DF91CF911F910F9108951F9393
:10119000CF93DF93FC011081C181D281912F909573
:1011A00060FF16C0F8948A8189238A838981812B04
:1011B00089838AE090E00E9402088A81182B1A83B2
:1011C000789487E390E0DF91CF911F910C9402080F
:1011D000F8948A8189238A838981812B898381E498
:1011E00090E00E9402088A81182B1A83789485E087
:1011F00090E0E9CFDF92EF92FF920F931F93CF938E
:10120000DF93EC01D62EE42E08E010E0FF24F394E7
:1012100061E08D2D8F2109F460E0CE010E94C708A6
:10122000FF0C01501109A1F7E11010C0F894E981F9
:10123000FA8191818881809589238183E981FA816E
:10124000928188818095892382837894DF91CF91E0
:101250001F910F91FF90EF90DF900895EF92FF9212
:101260000F931F93CF93DF938C017B0140E065E5E3
:101270000E94FA08E70188E0E80EF11C699140E05D
:10128000C8010E94FA08CE15DF05C1F7DF91CF91A2
:101290001F910F91FF90EF9008950895FC016370E6
:1012A000668B8481958126813781623021F063309D
:1012B00039F0613029F0918780873387228708953C
:1012C000318720879387828708952F923F924F928C
:1012D0005F926F927F928F929F92AF92BF92CF92C6
:1012E000DF92EF92FF920F931F93CF93DF93CDB7CF
:1012F000DEB76A970FB6F894DEBF0FBECDBF9A8FE8
:10130000898F7A8369834A01D22E18870F83370128
:10131000BC2CDC0159962D913C915A972115310531
:1013200009F015C118968D919C9119976817790746
:101330000CF0D7C11A968D919C91481759070CF063
:10134000D0C14C2C512CB6E0CB9E600D711D1124E8
:101350007C876B87161617060CF0C3C1EA2DF0E0E8
:10136000FA87E98793E0EE0FFF1F9A95E1F7F88B74
:10137000EF87CF01840F951F181619060CF0B1C125
:10138000A98DBA8D58968C91811104C0BFEABD1504
:1013900008F4D394A98DBA8DED91FC911197028434
:1013A000F385E02DCD010995B5E0DB9EC001112448
:1013B000E981FA81FC83EB83312C212C9C01285894
:1013C0003F4F388F2F8B4A2D50E05E8B4D8BEF892E
:1013D000F88DE20DF31D44919E828D82D12CC12C9B
:1013E00069817A81620D731D7A8B698B842F90E0FD
:1013F0009C8B8B8BE98DFA8DA081B18140FF82C0DF
:10140000F1E0BF126FC0AF126DC01C96ED91FC9160
:101410002F813885A4014C0D5D1D69897A89898DDC
:101420009A8D0995EB89FC89F595E7954E2F5FEF2D
:10143000C51AD50A6D817E818D899E89680F791FB5
:101440007E836D8398E0C916D10481F6AFEF2A1A26
:101450003A0AEB81FC81E40DF51DFC83EB83F5E09A
:101460002F16310409F0B3CF2F81388526153705A3
:10147000B9F0A98DBA8DED91FC91B1E0BB1257C0C6
:10148000AB1255C069817A816B5F7F4F0088F1890B
:10149000E02D830128E030E0A401898D9A8D099523
:1014A000A98DBA8DED91FC9111970688F789E02DF1
:1014B000CD016A960FB6F894DEBF0FBECDBFDF91A7
:1014C000CF911F910F91FF90EF90DF90CF90BF9041
:1014D000AF909F908F907F906F905F904F903F90D4
:1014E0002F9009941E96ED91FC91EF80F884098568
:1014F0001A8592014D815E816B817C81898D9A8DE7
:10150000099590CF2F8138852615370509F48ACFA4
:1015100031E0B31207C0A31205C01C96ED91FC91F7
:10152000930178CF1E96ED91FC917301E0CF6B850E
:101530007C85641975090684F785E02D73010F8594
:1015400018899201A401898D9A8D0995A9CFF90175
:1015500034969491329745915491D91AB7E0DB9E15
:10156000400D511D1124F901259134913C8B2B8B99
:10157000FA0125903490FA013296749031963491A4
:10158000398B329664903196449041E04C1518F0B6
:101590004A1508F07FC0662D062C000C770B7C8363
:1015A0006B83842D042C000C990B9E838D83A98D55
:1015B000BA8DED91FC9111970284F385E02DCD0158
:1015C0000995512CD12CC12CEA2DF0E0FA87E9873E
:1015D0002B2D30E03C872B87A401440D511D47FC87
:1015E0005A95588F4F8B69817A81660D711D67FC02
:1015F0007A957E876D877989C71608F051CF2C2D93
:1016000030E04D815E81420F531FA985BA854A9F04
:10161000C0014B9F900D5A9F900D1124FC01E80DC5
:10162000F91DF88BEF87852D612C4F89588D420F5E
:10163000531F5E8B4D8B671408F050C044244394B5
:10164000480E877041F4C1010196EB89FC89E20DD7
:10165000F31DD4901C01D7FE19C0A98DBA8DED9150
:10166000FC91662D70E0B1E0BB1219C0AB1217C03F
:101670002D853E85620F731F0484F585E02D2F8133
:1016800038854D895E89898D9A8D0995DD0C639425
:10169000842DD1CF1E821D821C821B8288CF4B815C
:1016A0005C81640F751FAB85BC856A9FC0016B9F11
:1016B000900D7A9F900D112469817A81680F791FAE
:1016C0000684F785E02DEF80F88409851A859D0151
:1016D0004F855889898D9A8D0995D8CF570CC39419
:1016E0008ACF6A960FB6F894DEBF0FBECDBFDF91EA
:1016F000CF911F910F91FF90EF90DF90CF90BF900F
:10170000AF909F908F907F906F905F904F903F90A1
:101710002F9008958F929F92AF92CF92EF92FF9267
:101720000F931F93CF93DF93EC01262F898D9A8D12
:10173000009709F051C06A30D1F41D861C868D894E
:1017400048E0849F900111248E859F85820F931F0E
:101750009F878E8781E090E0DF91CF911F910F915D
:10176000FF90EF90CF90AF909F908F9008956D3045
:1017700089F3CC88AD888F898823C1F08C859D85BD
:1017800036E0C39E800D911D112448855985481768
:10179000590764F44E855F851D861C8638E0A39E3C
:1017A000C0011124840F951F9F878E87EA88FB88CC
:1017B000088919894E855F856C857D85CE010E94DB
:1017C00065092C898C859D8546E0249F800D911D9F
:1017D00011249D878C87BECF6A3069F41D861C86D4
:1017E000FC013896E4912D898E859F85E29F800DBE
:1017F000911D1124ADCF6D3009F4ACCFFC013496AE
:101800003491631708F4A6CF3296E491E61708F4F2
:10181000A1CFFC01329685909490462F431B342F24
:1018200047E0349F800C911C1124F40132963491CE
:101830003196E4913323A9F1EE2399F1CC88F40198
:101840003596E491AD884F89442301F10E2E000CAA
:10185000FF0BE30FF11DCE9EA001CF9E500D112472
:101860006C857D85460F571F6885798564177507D8
:101870006CF44E855F851D861C86FC013896E491CC
:10188000AE9E400D511D11245F874E87EA88FB886C
:10189000088919894E855F856C857D85CE010E94FA
:1018A0006509F4013496E4912C898C859D85E29F2D
:1018B000800D911D11248DCF682F8DEF93E00C9436
:1018C0008A0B6F927F928F929F92AF92BF92CF922C
:1018D000DF92EF92FF920F931F93CF93DF93EC0170
:1018E0006B015A0139014801E881F9810284F385CD
:1018F000E02D0995E881F9810288F389E02D8701BF
:101900009301A501B601CE010995A501480D591D08
:1019100041505109E881F9810288F389E02D930152
:10192000B601CE010995E881F9810088F189E02DA1
:101930009401A501B601CE010995C60CD71CB601CC
:1019400061507109E881F9810088F189E02D9401E5
:10195000A501CE010995E881F9810688F789E02D76
:10196000CE01DF91CF911F910F91FF90EF90DF900B
:10197000CF90BF90AF909F908F907F906F90099481
:101980008F929F92AF92BF92CF92DF92EF92FF928F
:101990000F931F93CF93DF934C016B015A01E90121
:1019A000DC01ED91FC916217730709F50417150727
:1019B00024F48B2D5801042F182F0A191B099801A4
:1019C0002F5F3F4F048CF58DE02D8701A501B601F7
:1019D000C4010995DF91CF911F910F91FF90EF9076
:1019E000DF90CF90BF90AF909F908F900895401759
:1019F000510781F42617370724F48D2D6901C62F6E
:101A0000D82F9E012C193D092F5F3F4F068CF78D73
:101A1000E02DDBCF0284F385E02D0995D401ED9113
:101A2000FC910488F589E02D9E01A501B601C40151
:101A30000995D401ED91FC910688F789E02DC40148
:101A4000DF91CF911F910F91FF90EF90DF90CF909A
:101A5000BF90AF909F908F900994EF92FF920F9359
:101A60001F93DC011A960D911C911B9718962D91CE
:101A70003C911997ED91FC9100A0F1A1E02D7B0123
:101A800050E040E070E060E009951F910F91FF90F9
:101A9000EF9008954F925F926F927F928F929F92F4
:101AA000AF92BF92CF92DF92EF92FF920F931F936C
:101AB000CF93DF936C012B015A0139014801DC01FE
:101AC000ED91FC910284F385E02D0995E201640C0F
:101AD000751CD601ED91FC91C615D7055CF4008804
:101AE000F189E02D87019401A501BE01C601099588
:101AF0002196EFCF0688F789E02DC601DF91CF91BF
:101B00001F910F91FF90EF90DF90CF90BF90AF901B
:101B10009F908F907F906F905F904F9009948F92DD
:101B20009F92AF92BF92CF92DF92EF92FF920F936C
:101B30001F93CF93DF93EC015B014A016901E881B8
:101B4000F9810284F385E02D099595012C0D3D1D49
:101B500021503109E881F9810488F589E02D780167
:101B60008401A401B501CE010995E881F9810688B7
:101B7000F789E02DCE01DF91CF911F910F91FF905A
:101B8000EF90DF90CF90BF90AF909F908F9009948F
:101B90008F929F92AF92BF92CF92DF92EF92FF927D
:101BA0000F931F93CF93DF93EC015B014A0169010F
:101BB0007801E881F9810284F385E02D0995C80C4C
:101BC000D91C860101501109E881F9810488F58941
:101BD000E02D9501A401B501CE010995E881F981B7
:101BE0000688F789E02DCE01DF91CF911F910F91EB
:101BF000FF90EF90DF90CF90BF90AF909F908F902D
:101C00000994EF92FF920F931F93DC01ED91FC91E9
:101C100000A0F1A1E02D09951F910F91FF90EF9089
:101C200008950F931F93DC01ED91FC91068CF78DC5
:101C3000E02D09951F910F9108950F931F93DC01DB
:101C4000ED91FC91048CF58DE02D09951F910F917C
:101C50000895DC01ED91FC910084F185E02D09945B
:101C60003F924F925F926F927F928F929F92AF922C
:101C7000BF92CF92DF92EF92FF920F931F93CF9379
:101C8000DF935C017B014A016901390187E0680E3D
:101C9000711C93E0759467949A95E1F72B01400EBF
:101CA000511E10E000E0312CD0E0C0E0CE01877082
:101CB0009927330C892B59F4FE0183E0F595E795BC
:101CC0008A95E1F7E00FF11FE80DF91D349037FE1A
:101CD0000AC021E030E0A701B5016C0F7D1F8DEF38
:101CE00093E00E94290E2196CC16DD06F9F68FEFBF
:101CF000E81AF80A060D171DE414F504A9F6DF9199
:101D0000CF911F910F91FF90EF90DF90CF90BF90F8
:101D1000AF909F908F907F906F905F904F903F908B
:101D200008952F923F924F925F926F927F928F927F
:101D30009F92AF92BF92CF92DF92EF92FF920F935A
:101D40001F93CF93DF9300D000D000D0CDB7DEB784
:101D50002C017E836D836A015901C801FC82EB82EC
:101D60004801841A950A97FE03C0919481949108C2
:101D700035012D813E81621A730A77FE03C071948A
:101D800061947108681479045CF43A2D2B2D5C0180
:101D9000832F922F3D812E81DE82CD82C32ED22EC3
:101DA000AD81BE81AA16BB065CF43C2D2D2D6C01C5
:101DB000832F922F3D812E81BE82AD82A32EB22E23
:101DC00085012D813E81021B130B1C012C183D083F
:101DD00037FE03C0319421943108780117FF03C006
:101DE0003FEFE31AF30AF594E794C816D90664F1B5
:101DF0008FEF9FEF9A8389832D813E81A216B306D0
:101E000044F1D201ED91FC910484F585E02D2B8104
:101E10003C814D815E81B601681479041CF0A601F5
:101E20006D817E81C2010995E218F308F7FE06C0B4
:101E300029813A81C20ED31EE00EF11E8D819E8152
:101E400001969E838D83D8CFA1E0B0E0BA83A983A9
:101E5000D3CF26960FB6F894DEBF0FBECDBFDF916D
:101E6000CF911F910F91FF90EF90DF90CF90BF9097
:101E7000AF909F908F907F906F905F904F903F902A
:101E80002F90089585ED8093BC008091BC0084FD67
:101E9000FCCF1092BE03089520912403260F332710
:101EA000331F21323105ECF42091BE03FC0190E098
:101EB00080E0243069F082E00895A091240321910C
:101EC000AC014C5F5C4FA40FB52FB11D2C93019654
:101ED000861798F380912403680F6093240380E0B1
:101EE000089581E00895E091760380917503E817E5
:101EF00030F4F0E0E858FC4F808190E008958FEFD7
:101F00009FEF089590917603809175032FEF3FEF37
:101F1000981748F4E92FF0E0E858FC4F208130E0B2
:101F20009F5F90937603C9010895CF92DF92EF925D
:101F3000FF920F931F93CF93DF937C01CB018A0114
:101F40002091CA03222389F0EB016B01C40ED51E38
:101F5000CC15DD0569F06991D701ED91FC910190F7
:101F6000F081E02DC7010995F3CF642F0E944C0F3B
:101F7000C801DF91CF911F910F91FF90EF90DF90FB
:101F8000CF900895CF93DF930F92CDB7DEB76983DB
:101F90002091CA032223F9F02091C703203258F080
:101FA00021E030E0FC013383228390E080E00F9059
:101FB000DF91CF9108958091C803E82FF0E0EC51B4
:101FC000FD4F998190838F5F8093C8038093C703EF
:101FD00081E090E0ECCF61E0CE0101960E944C0FD1
:101FE000F7CF682F81EF93E00C94C20F2091C703C5
:101FF00081E0213208F046C08091BE038111FCCF00
:102000009091C90332E03093BE0331E03093BD03B9
:102010003FEF3093BC031092BB032093BA0344EE0E
:1020200052E0A8E9B3E0FA013E2F341B321788F1E1
:102030001092B9032091B903990F922B9093B90391
:102040009091B803913041F51092B8039091B90383
:102050009093BB009091BC0093FDF8CF95EC9093CA
:10206000BC009091BE039230E1F39091BC039F3F7E
:1020700049F08091BC03803289F08091BC038033A9
:1020800079F084E01092C8031092C7031092CA033B
:10209000089531913D93C8CF95EEE1CF82E0F2CF24
:1020A00083E0F0CFCF9388E60E947C0560E081EF6B
:1020B00093E00E94C20F60E881EF93E00E94C20F9C
:1020C0008091C003CAE06C2F0E9410348295807FFB
:1020D000682F690F81EF93E00E94C20F8091C103C6
:1020E0006C2F0E9410348295807F682F690F81EFDA
:1020F00093E00E94C20F8091C2036C2F0E941034A3
:102100008295807F682F690F81EF93E00E94C20F54
:102110008091C3036C2F0E9410348295807F682FBA
:10212000690F81EF93E00E94C20F8091C4036C2F6E
:102130000E9410348295807F682F690F81EF93E0B1
:102140000E94C20F8091C5038E516C2F0E941034E3
:102150008295807F682F690F81EF93E00E94C20F04
:1021600081EF93E00E94F60F882329F01092C603B6
:1021700080E0CF91089581E08093C60388E60E94B5
:102180007C0560E081EF93E00E94C20F8091BF0365
:102190006C2F0E9410348295807F682F690F81EF29
:1021A00093E00E94C20F81EF93E00E94F60F81112D
:1021B000DDCF81E0DECFBF92CF92DF92EF92FF9230
:1021C0000F931F93CF93DF938C017B01E40EF51ED9
:1021D000EB01B99068018FEFC81AD80A80916504A5
:1021E0000E947C05812F90E00E94F10FC801992781
:1021F0000E94F10F6B2D81EF93E00E94C20F81EFDF
:1022000093E00E94F60F6AE070E080E090E00E94A8
:102210002D08BE018601CE15DF05D1F6DF91CF91E5
:102220001F910F91FF90EF90DF90CF90BF90089596
:102230000F931F93CF93DF93EC01EC81FD816E1719
:102240007F070CF073C0DA01A20FB31F57FF03C062
:102250009D0150E040E08E819F818A179B071CF40E
:102260009C01241B350B121613060CF05FC0922F35
:10227000842F8695869586958E9FD0018F9FB00D71
:102280001124A60FB71F6F8D78A1A60FB71F477037
:1022900059F188E0841B482F682F70E0FB01E0595A
:1022A000FF4FE491281708F065C0621B71092FEFFA
:1022B00030E002C0359527956A95E2F7E2230130B8
:1022C000110549F001151105B1F10230110571F543
:1022D0008C91E82702C08C91E82BEC93941730F195
:1022E0002C813D81A20FB31FE92FE41BE83078F069
:1022F0000230110521F58E2F9C9190959C932C8195
:102300003D81A20FB31F88508830B0F7E770EE23ED
:1023100069F0F0E0E859FF4FE49101301105F9F060
:102320000115110501F10230110509F1DF91CF917D
:102330001F910F910895E0958C91E823CECF81E015
:102340000115110509F480E081959E2F8C932C8155
:102350003D81A20FB31F98509830C0F7D7CF8C9112
:10236000E82BEC93E3CFE0958C91E823FACF8C91A6
:10237000E827F7CF0130110509F4ADCF011511059C
:10238000D1F20230110509F4A3CFAACF0F931F9306
:10239000CF93DF93FB01E20FF31F77FF03C09F0191
:1023A00070E060E0DC011496CD91DC91CE17DF0780
:1023B0001CF49E01261B370B121613065CF5FA015E
:1023C00057FD3796A3E0F595E795AA95E1F7EC9FC1
:1023D000D001ED9FB00DFC9FB00D11246A0F7B1F43
:1023E000DC015F96ED91FC91E60FF71F47705527D2
:1023F00081E090E001C0880F4A95EAF7482F01304C
:10240000110569F001151105A9F02E0F3F1F0230CB
:102410001105E1F0DF91CF911F910F9108952E0FDB
:102420003F1FE217F307B1F3DF018D91842B808307
:10243000FD01F7CF80952E0F3F1F2E173F0751F359
:10244000DF019D9198239083FD01F7CFE217F307F9
:1024500009F3DF018D9184278083FD01F7CF0F936E
:102460001F93FA01DC0156964C9156974230E9F0E1
:102470004330A1F1413061F514964D915C91DA0140
:10248000AE1BBF0BFD01E21BF30B77FD0BC0DC01A4
:1024900016964D915C916417750724F4AB01BF014A
:1024A0000E94C6111F910F91089514964D915C9151
:1024B000DA01A61BB70BBD0161507109DC0116964C
:1024C0004D915C91DA01AE1BBF0BFD01E21BF30BDA
:1024D00077FDE8CFAF010E941811E4CF16964D9119
:1024E0005C91DA01A61BB70BBD0161507109CDCF1C
:1024F0000F931F93FA01DC0156964C915697423088
:10250000A9F0433091F1413019F514964D915C9149
:10251000DA01AE1BBF0BFD013197F7FD04C0AB0123
:10252000BF010E9418111F910F91089514964D91AB
:102530005C91DA01A61BB70BBD01DC0116964D912B
:102540005C91DA01AE1BBF0BFD013197621B730B6F
:10255000F7FDE9CFDC0116964D915C91E417F50784
:1025600014F7AF010E94C611DECF16964D915C9113
:10257000DA01A61BB70BBD01621B730BCECFFC01AA
:1025800077FD66C080859185681779070CF060C07B
:1025900057FD5EC082859385481759070CF058C0D7
:1025A00086898230C1F0833039F1813041F48481F1
:1025B0009581841B950BAB01BC01615071092130E1
:1025C000310519F12115310509F443C022303105D7
:1025D00009F463C0089584819581DC01A61BB70BC3
:1025E000BD016150710986819781DC01A41BB50B87
:1025F000AD0141505109E3CF86819781861B970B2E
:10260000BA01AC0141505109DACFCA0157FD079612
:10261000A3E095958795AA95E1F7A481B5818A9F56
:1026200090018B9F300D9A9F300D1124620F731F04
:10263000078CF0A1E02DE60FF71F4770552721E02A
:1026400030E001C0220F4A95EAF78081822B808317
:102650000895CA0157FD079633E0959587953A95F9
:10266000E1F7A481B5818A9F90018B9F300D9A9FDD
:10267000300D1124620F731F078CF0A1E02DE60FBF
:10268000F71F4770552781E090E001C0880F4A95F9
:10269000EAF7809590818923DACFCA0157FD079622
:1026A00023E0959587952A95E1F7A481B5818A9FC6
:1026B00090018B9F300D9A9F300D1124620F731F74
:1026C000078CF0A1E02DE60FF71F4770552721E09A
:1026D00030E001C0220F4A95EAF780818227B7CF08
:1026E00008958EBD00000DB407FEFDCF8EB5089590
:1026F000FF920F931F93CF93DF93F82ED92FC62FFE
:1027000080911A0490911B04892B09F447C0809191
:102710001E040E947C0580911A0490911B04DC0128
:10272000ED91FC910190F081E02D60E009950F2D75
:102730001D2FD1E0C15080911A0490911B04CF3F0E
:1027400031F1D03298F00E94F60F80911E040E9461
:102750007C0580911A0490911B04DC01ED91FC91A1
:102760000190F081E02D60E00995D1E080911A049C
:1027700090911B04F8016491DC01ED91FC910190B2
:10278000F081E02D0995DF5F0F5F1F4FD3CFDF9101
:10279000CF911F910F91FF900C94F60FE0912A04B6
:1027A000F0912B049081809130048095892380835F
:1027B0000F2D1D2FC15008F438C0F80184912091CD
:1027C000180430911904232B29F00E9471130F5F14
:1027D0001F4FF0CF28E030E040E8E0912604F09170
:1027E000270490912E04582F5423D9F05081952B13
:1027F0009083E0912804F0912904908150912F0456
:10280000952B9083E0912804F091290450819091B8
:102810002F04909595239083469521503109E9F630
:10282000D6CF508190959523E3CFDF91CF911F9123
:102830000F91FF9008951F93CF93DF93EC01162F14
:102840008D8D9E8D892BF1F089A10E947C058D8D47
:102850009E8DDC01ED91FC910190F081E02D60E016
:1028600009958D8D9E8DDC01ED91FC910190F0819B
:10287000E02D612F09958D8D9E8DDF91CF911F9158
:102880000C94F60FEDA5FEA590818BA98095892368
:1028900080838B8D9C8D892B31F0862FDF91CF919A
:1028A0001F910C94711328E030E090E8E9A5FAA597
:1028B00089A9412F4923C1F04081842B8083EBA556
:1028C000FCA580814AA9842B8083EBA5FCA54081CF
:1028D0008AA980958423808396952150310931F708
:1028E000DF91CF911F910895408180958423E6CF99
:1028F0008CBD9DBD0895FF920F931F93CF93DF93DF
:1029000080911A0490911B04892B09F472C082E013
:102910008093B80065E088E69AE00E9478136091A1
:10292000010461508DEF93E00E941B142091030479
:1029300030910404C901079697FD079623E0959509
:1029400087952A95E1F72091010430910204829F36
:102950008001839F100D929F100D1124C0911C04C3
:10296000D0911D0480911A0490911B040C0F1D1F1F
:10297000892B09F47CC080911E040E947C05809103
:102980001A0490911B04DC01ED91FC910190F081FF
:10299000E02D60E40995FF24F39480911A0490914E
:1029A0001B04C017D107E1F1BFE1BF15A0F40E94DD
:1029B000F60F80911E040E947C0580911A0490916C
:1029C0001B04DC01ED91FC910190F081E02D60E4AD
:1029D0000995FF24F39480911A0490911B04DC0163
:1029E000ED91FC910190F081E02D69910995F394AE
:1029F000D4CF8091180490911904892B31F08091E3
:102A00003204909133040E947814E0912C04F091E8
:102A10002D049081809131048095892380837ACF21
:102A20000E94F60F80911A0490911B04892B09F4DF
:102A30005FC02091340430913504409136045091A8
:102A4000370460E072E18AE790E00E943936205155
:102A50003109410951095695479537952795209396
:102A6000B800DF91CF911F910F91FF900895E091F1
:102A70002A04F0912B04808190913004892B80836B
:102A80000C171D0779F289912091180430911904CF
:102A9000232B19F00E947113F3CF28E030E040E8B7
:102AA000E0912604F091270490912E04582F54238E
:102AB000D9F05081952B9083E0912804F09129045E
:102AC000908150912F04952B9083E0912804F091F0
:102AD0002904508190912F049095952390834695D9
:102AE00021503109E9F6CCCF508190959523E3CF61
:102AF000E0912C04F0912D04808190913104892B78
:102B00008083AFCF1F93CF93DF93EC01162F8D8D72
:102B10009E8D892B29F182E08093B80066EA11111D
:102B200067EACE010E941B148D8D9E8D892B41F189
:102B30002FA938AD49AD5AAD60E072E18AE790E067
:102B40000E9439362051310941095109569547955E
:102B5000379527952093B800DF91CF911F91089565
:102B60008B8D9C8D892B21F08DA99EA90E947814B4
:102B7000EFA5F8A990818CA9809589238083CECF79
:102B8000EFA5F8A980819CA9892B8083E5CF0895C2
:102B900090E080E008958093BB0084E88093BC00BF
:102BA0008091BC0087FFFCCF9091B900987F81E0B5
:102BB000983231F0983129F0903419F080E008957E
:102BC0000895089584EA8093BC008091BC0087FF3B
:102BD000FCCF8091B900887F19F080EC0C94CB1564
:102BE00080E008955F926F927F928F929F92AF9252
:102BF000BF92CF92DF92EF92FF920F931F93CF93EA
:102C0000DF93CDB7DEB7582E742E652EB62E922EDA
:102C10000E94E215852D0E94CB158D2D0E94CB15AB
:102C20008C2D0E94CB158B2D83708A2990E081100A
:102C30009CE0892B0E94CB15862D0E94CB15872DF9
:102C40000E94CB158CE0F694E794D794C7948A95AC
:102C5000D1F78C2D807FC82E892D8F708C290E94F2
:102C6000CB15812F0E94CB15802F0E94CB1584E9B4
:102C70008093BC008091BC0084FDFCCFDF91CF919C
:102C80001F910F91FF90EF90DF90CF90BF90AF908A
:102C90009F908F907F906F905F9008954F925F927A
:102CA0006F927F928F929F92AF92BF92CF92DF925C
:102CB000EF92FF920F931F93CF93C82FC0905C04A5
:102CC000D0905D04E0905E04F0905F04CB01BA0107
:102CD000A70196010E94393649015A0125E0F69470
:102CE000E794D794C7942A95D1F735E096958795C0
:102CF000779567953A95D1F747E0660F771F881F5C
:102D0000991F4A95D1F7A70196010E9439362901EA
:102D10003A018B019C01B501A4015527662777274D
:102D2000E7E0440F551F661F771FEA95D1F7525011
:102D300061097109440D551D661D771D812CA12C5B
:102D40008C2F0E94F215CF911F910F91FF90EF9061
:102D5000DF90CF90BF90AF909F908F907F906F90BB
:102D60005F904F9008958F92AF92CF92DF92EF9243
:102D7000FF920F931F93882483944430510561057B
:102D8000710509F0812C4450510961097E4F97E08B
:102D9000440F551F661F771F9A95D1F7A22EC12C9D
:102DA000D12C7601C39400E010E098010E94F21546
:102DB0001F910F91FF90EF90DF90CF90AF908F9089
:102DC0000895CF93DF93D82FC62F0E94E2158D2F41
:102DD0000E94CB158C2F0E94CB1584E98093BC00F8
:102DE0008091BC0084FDFCCFDF91CF910895CF93FB
:102DF000C82F60E880E18C0F0E94E116EC2FF0E014
:102E0000EE0FFF1FEC5BFB4F11821082CF910895F4
:102E10004F925F926F927F92AF92BF92CF92DF926A
:102E2000EF92FF920F931F93CF93DF93D82F082F2A
:102E300010E0F801EE0FFF1FEE0FFF1FE05BFB4FEE
:102E40004080518062807380411451046104710498
:102E500089F48D2FDF91CF911F910F91FF90EF900B
:102E6000DF90CF90BF90AF907F906F905F904F902A
:102E70000C94F7165801AA0CBB1CF501EC5BFB4F38
:102E8000C080D180F12CE12C0C5B1B4FF801C68176
:102E9000A3019201C701B6010E9400349B01AC015D
:102EA000EC2FF0E0EE5AFE4FA081B0E00E942E36EB
:102EB0009B01AC0120583447424D5A412130334ADE
:102EC000414E514108F43FC060913101709132018F
:102ED0008091330190913401A30192010E9439360F
:102EE00069017A0184E0C816D104E104F10408F410
:102EF000B0CFE6E0CE16D104E104F10408F470C0CE
:102F0000C0E0FDE2CF16F1E0DF06E104F10430F0AD
:102F1000CF5FF694E794D794C794F3CFC11103C061
:102F2000E894C0F8C0E0A3019201C701B6010E9475
:102F300000349B01AC01EC2FF0E0EE5AFE4FA08173
:102F4000B0E00E942E362AE1D11122E2AB01BC0191
:102F5000822F0E944E16F501EC5BFB4F8081918120
:102F6000B0E0A0E08C159D05AE05BF0521F4F80189
:102F700086818C1731F12C2F2295207FB701A60175
:102F80008D2F880F880F880F865D0E94B316F80179
:102F9000618580E0D11180E2682B6C6480E18D0F47
:102FA0000E94E116F501EC5BFB4FD182C082F80173
:102FB000C6838091640490E2D11190E8892B8093BC
:102FC0006404DF91CF911F910F91FF90EF90DF90FC
:102FD000CF90BF90AF907F906F905F904F9008958B
:102FE00084E0C82ED12CE12CF12C9ACF2F923F9265
:102FF0004F925F926F927F928F929F92AF92BF9209
:10300000CF92DF92EF92FF920F931F93CF93DF93B4
:1030100000D000D00F92CDB7DEB7898380915404E1
:1030200090915504A0915604B0915704892B8A2B96
:103030008B2B19F481E00E94F7168091580490912F
:103040005904A0915A04B0915B04892B8A2B8B2BD5
:1030500019F482E00E94F7164090540450905504F1
:103060006090560470905704411451046104710437
:1030700009F47FC12981222309F4A5C0C090460428
:10308000D0904704F12CE12C40914B044983A301DB
:103090009201C701B6010E9400349B01AC018981F5
:1030A000E82FF0E0EE5AFE4FA081B0E00E942E36ED
:1030B0004B015C01DC01CB0180589447A24DBA4121
:1030C0008130934AA14EB14108F446C0609131016C
:1030D000709132018091330190913401A3019201EA
:1030E0000E94393669017A0181E044E0C416D104B6
:1030F000E104F10408F489C086E0C816D104E104B3
:10310000F10408F49BC019829DE2C91691E0D9062A
:10311000E104F10440F029812F5F2983F694E794BC
:10312000D794C794F1CF4981411103C0E894C0F806
:103130001982A3019201C701B6010E9400349B01CC
:10314000AC018981E82FF0E0EE5AFE4FA081B0E09B
:103150000E942E364B015C01B501A40182E20E945F
:103160004E168091460490914704B0E0A0E08C1583
:103170009D05AE05BF0529F480914B0499818917FF
:10318000D1F029812295207FB701A60182E30E9418
:10319000B31660914E046C6681E10E94E116D092F4
:1031A0004704C0924604298120934B048091640413
:1031B0008068809364048092600490926104A0927D
:1031C0006204B0926304C0905804D0905904E09017
:1031D0005A04F0905B04C114D104E104F10409F431
:1031E000B0C08090600490906104A0906204B090A0
:1031F0006304C501B401A70196010E943936283045
:1032000031054105510500F582E00F900F900F90B8
:103210000F900F90DF91CF911F910F91FF90EF9042
:10322000DF90CF90BF90AF909F908F907F906F90E6
:103230005F904F903F902F900C94F71604E0C02EB3
:10324000D12CE12CF12C72CF1D82213431054105A6
:10325000510560F08D818F5F8D83CC0CDD1CEE1CE1
:10326000FF1C5695479537952795EFCFC501B401BB
:10327000A70196010E94393629833A834B835C83E8
:103280002FEF3FEF4FE050E00E94443456016701BA
:10329000E12CF12C00E010E00E94713429013A0188
:1032A0009D819295907F9D83C12CD12C7601C394F2
:1032B000411451046104710431F0CC24CA94DC2C13
:1032C000FFE0EF2EF12CC301B20127E0660F771F5C
:1032D000881F991F2A95D1F7A70196010E943936B8
:1032E00049015A018B019C0149815A816B817C8182
:1032F000552766277727E7E0440F551F661F771F7E
:10330000EA95D1F7525061097109480D591D6A1D9E
:103310007B1D812CAD808AE30E94F2156CE4452868
:103320004628472809F06CE080914F04682B6062C2
:1033300082E10E94E11681E090E09093490480933D
:1033400048040F900F900F900F900F90DF91CF9146
:103350001F910F91FF90EF90DF90CF90BF90AF90B3
:103360009F908F907F906F905F904F903F902F90A5
:1033700008958090580490905904A0905A04B090F9
:103380005B0481149104A104B104D9F2C0904804F3
:10339000D0904904F12CE12C20914C042983A50103
:1033A0009401C701B6010E9400349B01AC018981E0
:1033B000E82FF0E0EE5AFE4FA081B0E00E942E36DA
:1033C0008B019C0100581447224D3A410130134AA9
:1033D000214E314108F443C06091310170913201B6
:1033E0008091330190913401A50194010E943936F6
:1033F00069017A0184E0C816D104E104F10408F4FB
:1034000003CF96E0C916D104E104F10408F458C0D2
:1034100019822DE2C21621E0D206E104F10440F047
:1034200049814F5F4983F694E794D794C794F1CFCD
:103430008981811103C0E894C0F81982A501940123
:10344000C701B6010E9400349B01AC019981E92FAC
:10345000F0E0EE5AFE4FA081B0E00E942E36AB01A4
:10346000BC0182E20E944E1680914804909149046A
:10347000B0E0A0E08C159D05AE05BF0531F480914C
:103480004C042981821709F45CCF29812295207F81
:10349000B701A6018AE30E94B31660914F046C66DF
:1034A00082E10E94E116D0924904C0924804498109
:1034B00040934C048091640480688093640441CFFD
:1034C00084E0C82ED12CE12CF12CB5CF0F931F93A3
:1034D0008091E30281111DC0A0912D01B0E020EA8E
:1034E00036E841E050E00E942E3600910B01109129
:1034F0000C0120910D0130910E01601771078207B8
:10350000930718F561E08BE00E944D0681E08093FF
:10351000E302A0912D01B0E020EA36E841E050E05E
:103520000E942E3600910B0110910C0120910D018B
:1035300030910E01061717072807390730F460E0AD
:103540008BE00E944D061092E3021F910F910895A7
:10355000FF920F931F93CF93DF9300D0CDB7DEB7C9
:10356000E7E1F1E010E000E08191080F111D81E03A
:10357000E133F807C9F74AE150E067E171E082E022
:1035800090E00E94DB100B5F1F4F1A83098342E01B
:1035900050E0BE016F5F7F4F90E080E00E94DB1043
:1035A000EAE0F1E084E191E010E000E02191020F17
:1035B000111D8E179F07D1F7809118019CE0F92EFD
:1035C0008F9DC00111244AE050E06AE071E04E9600
:1035D0000E94DB100B5F1F4F1A8309838091180133
:1035E0008F9DC001112442E050E0BE016F5F7F4F0C
:1035F0004C960E94DB100F900F90DF91CF911F919E
:103600000F91FF9008958091270190912801092E34
:10361000000CAA0BBB0B80549340A446BE4F809372
:103620005C0490935D04A0935E04B0935F0480E01B
:103630000E94081781E00E94081781E00C94081787
:103640004F925F926F927F928F929F92AF92BF92B2
:10365000CF92DF92EF92FF92CF93C0901B01D09058
:103660001C01E0901D01F0901E0180910B019091D2
:103670000C01A0910D01B0910E01409054045090A6
:103680005504609056047090570440915004509136
:103690005104609152047091530420910A018C0DE1
:1036A0009D1DAE1DBF1D222309F460C080901F0127
:1036B00090902001A0902101B0902201880D991DC9
:1036C000AA1DBB1D10926404C1E084149504A604D5
:1036D000B70409F4C0E084179507A607B70759F0A7
:1036E0008093500490935104A0935204B0935304D8
:1036F00080E00E94081784149504A604B70469F4B6
:103700008091580490915904A0915A04B0915B049F
:10371000C816D906EA06FB0699F0809254049092E6
:103720005504A0925604B0925704C0925804D09207
:103730005904E0925A04F0925B048C2F0E94F61711
:1037400060916404662319F081EB0E94E116CF9129
:10375000FF90EF90DF90CF90BF90AF909F908F90B1
:103760007F906F905F904F900C94661A8090230129
:1037700090902401A0902501B09026019FCFCF9377
:10378000DF938091DA029091DB0227E0289FE0012D
:10379000299FD00D112485E10E946C08DE01A80F3D
:1037A000B91FAA0FBB1F94E0B695A7959A95E1F7AC
:1037B000B093DB02A093DA022091290130E00E944D
:1037C0005B362FEF33E040E050E00E940F3620934D
:1037D000E102DF91CF910895CF93DF938FE00E94B4
:1037E0006C088091DF029091E002EC01CC0FDD1FAC
:1037F000C80FD91F8FE00E946C082196C80FD91FEF
:10380000CC0FDD1FCC0FDD1F44E0D695C7954A9540
:10381000E1F7D093E002C093DF028091DD02909146
:10382000DE02EC01CC0FDD1FC80FD91F80E10E9422
:103830006C082196C80FD91FCC0FDD1FCC0FDD1FE0
:1038400074E0D695C7957A95E1F7D093DE02C093E0
:10385000DD02DF91CF910895DC01ED91FD91808132
:10386000ED91FD919081ED91FD916C9163708E23AE
:1038700009F064609F2309F06860E9E4FCE1E60F69
:10388000F11D659565956D936D917D918D919D91DE
:10389000099423C01AC012C016C010C01EC009C0AF
:1038A00014C013C006C019C009C00DC007C00DC0A8
:1038B00014C062507040804090400BC06150704016
:1038C0008040904006C06E5F01C06F5F7F4F8F4F9A
:1038D0009F4F9E938E937E936E9308950F931F93A5
:1038E000CF93DF938091D502882359F01092BF03C4
:1038F0000E9452101092D502DF91CF911F910F912B
:1039000008950E9460080091CC021091CD02209190
:10391000CE023091CF02601B710B820B930B693E7C
:1039200073408105910520F4012B022B032B21F715
:103930000E9460086093CC027093CD028093CE0207
:103940009093CF0288E60E947C0560E081EF93E0CF
:103950000E94C20F81EF93E00E94F60F882319F0B6
:103960001092C603C9CF81E08093C60367E088E662
:103970000E9486051092760380937503873008F4C1
:1039800061C081EF93E00E94820FD82F982F92950B
:103990009770CAE08D2F8F709C9F800D11248093AB
:1039A000BF0381EF93E00E94820F982F92959F7042
:1039B0008F709C9F800D11248093C00381EF93E052
:1039C0000E94820F982F929593708F709C9F800D0C
:1039D00011248093C10381EF93E00E94820F982FFE
:1039E00092959F708F709C9F800D11248093C203CD
:1039F00081EF93E00E94820F982F92959F708F70B5
:103A00009C9F800D11248093C30381EF93E00E945B
:103A1000820F982F92959F708F709C9F800D11241C
:103A20008093C40381EF93E00E94820F982F9F70D0
:103A3000925E82958F708C9F900D11249093C50398
:103A4000D7FF5ACF1092C1031092C0031092BF0348
:103A5000DF91CF911F910F910C945210CF93DF9370
:103A6000EC01809165040E947C058D2F90E00E94FE
:103A7000F10FCE0199270E94F10F81EF93E00E9490
:103A8000F60F61E0809165040E948605109276032E
:103A900080937503882321F081EF93E00E94820FC9
:103AA000DF91CF910895EF92FF920F931F93CF93E1
:103AB000DF938B01040F151F7C012FEFE21AF20A2E
:103AC000EB010E942E1D8993C701BE010C171D0733
:103AD00099F7DF91CF911F910F91FF90EF9008958B
:103AE000DF92EF92FF920F931F93CF93DF9300D05B
:103AF000CDB7DEB71A821982809118012CE0829F1F
:103B0000C001112442E050E0BE016F5F7F4F4C9630
:103B10000E94531DF12CE12C10E000E08CE0D82E27
:103B20008091180197018D9D200D311D1124C9012F
:103B30004E960E942E1D080F111D3FEFE31AF30A47
:103B40008AE0E816F10461F70B5F1F4F89819A81C3
:103B500008171907B1F4809118018D9DC001112437
:103B60004AE050E06AE071E04E960E94531D0F90CB
:103B70000F90DF91CF911F910F91FF90EF90DF9009
:103B800008950E94A81AF3CF80915D038823A9F1BC
:103B900080915C0381110CC08091E202882389F13D
:103BA000809180008F7C809380001092E20229C077
:103BB0008091E202811125C080917003811121C0A2
:103BC00020912F0184E1289F90011124032E000CE5
:103BD000440B550B60E472E48FE090E00E943936AC
:103BE000CA01B9010E94CA05809180008F7C806162
:103BF0008093800081E08093E20280915C038823BF
:103C000059F20895FF920F931F93CF93DF93FC0116
:103C10000081C181D281F8948981F02EF0948F21A6
:103C2000898378941DE7115009F188818023D9F3A5
:103C3000F8948A818F218A838981802B8983789463
:103C400080EE91E00E940208F89489818F21898397
:103C500086E490E00E9402088881082311E009F0C0
:103C600010E078948AE991E00E940208812FDF91A8
:103C7000CF911F910F91FF900895AF92BF92CF9275
:103C8000DF92EF92FF920F931F93CF93DF938B01FD
:103C9000BC018091D5039091D6030E942E0940E08B
:103CA0006EEB8091D5039091D6030E94FA08E8014B
:103CB000680189E0C80ED11CA090D503B090D6034E
:103CC00088E0E82EF12C10E001E0C5010E949C087C
:103CD0008111102B000F81E0E81AF108B1F7199358
:103CE000CC16DD0649F78091D5039091D6030E944A
:103CF000021E91E0813009F090E0892FDF91CF9191
:103D00001F910F91FF90EF90DF90CF90BF90AF90F9
:103D10000895BF92CF92DF92EF92FF920F931F937D
:103D2000CF93DF93EC01B62EC72E8D85811105C090
:103D3000CE010E94021E81110EC01B861D861C86AC
:103D400080E0DF91CF911F910F91FF90EF90DF9076
:103D5000CF90BF90089540E060EFCE010E94FA0836
:103D600001E0E12CD12C11E0CE010E949C08F82E3C
:103D7000CE010E949C0891E0F91218C0813099F59B
:103D80001134D8F2DB86D11002C081E08D878B819F
:103D9000882399F22396EB2DFC2DCF0108962991CB
:103DA0002193E817F907D9F781E0CBCF2E2D30E02A
:103DB000F8120EC08B851817A0F4FE01E20FF31F56
:103DC0008381802381F4F12C193008F41C87D12ED3
:103DD000FE01E20FF31F8381902F90958923838347
:103DE0000AC08113F0CFFE01EE0DF11D8381802BFF
:103DF0008383FF24F3946F2DCE010E94C7081F5FB9
:103E0000000F11F4E39401E087E08E1508F0ACCFC9
:103E1000B7CF0F931F93CF93DF93CDB7DEB729971B
:103E20000FB6F894DEBF0FBECDBF8C01FC018081C0
:103E3000803181F18091D5039091D6030E94021EBA
:103E400081110CC080E029960FB6F894DEBF0FBE3A
:103E5000CDBFDF91CF911F910F910895BE016F5F8C
:103E60007F4FC8010E943D1E882361F368E0CE01A8
:103E700001960E94840899858913E4CF8D818F3340
:103E800059F020F48F31F1F689E0DDCF8F3531F034
:103E90008F37C1F68CE0D7CF8AE0D5CF8BE0D3CF78
:103EA0004F925F926F927F928F929F92AF92BF924A
:103EB000CF92DF92EF92FF920F931F93CF93DF93F6
:103EC000CDB7DEB761970FB6F894DEBF0FBECDBF9A
:103ED0000E946008C090D102D090D202E090D3023C
:103EE000F090D4026C197D098E099F0969387341DD
:103EF0008105910508F458C08091D002811154C009
:103F00001092D1038091D5039091D6030E94021E96
:103F100040E06CEC8091D5039091D6030E94FA08A2
:103F20004091CF0364E48091D5039091D6030E9421
:103F3000FA088091D103882391F1E091D003E950F0
:103F40000EEE12E0E33038F4F0E0EE0FFF1FE25C1B
:103F5000FE4F008111818091D203882309F481C032
:103F60008091CF0381117DC00E9460084B015C01EC
:103F70002801110F660877088091D5039091D60328
:103F80000E949C08813059F00E94600864197509EC
:103F900086099709681579058A059B0568F381E00C
:103FA0008093D1038093D0020E9460086C197D0930
:103FB0008E099F0961347F4181059105D8F1809177
:103FC000D0028823B9F1E091D503F091D60313868E
:103FD000158614861286118610861782168215821F
:103FE00014821382BE01665F7F4F8091D50390914A
:103FF000D6030E94891E81113BC060E070E08EEF05
:1040000092EC20E030E040E05FE30E946B360E94DB
:10401000D73680912C01680F6093DC020E94600803
:104020006093D1027093D2028093D3029093D40212
:104030001092D00261960FB6F894DEBF0FBECDBFCE
:10404000DF91CF911F910F91FF90EF90DF90CF9074
:10405000BF90AF909F908F907F906F905F904F90A8
:104060000895B801110F880B990B0E942D0897CF66
:1040700067E0CE010A960E94840899898913BDCF12
:104080008091D5039091D6030E94021E882309F4E3
:10409000B4CFBE016F5F7F4FCE010A960E943D1ED6
:1040A000882309F4AACF68E0CE0101960E94840813
:1040B00099858913A2CF6A8170E0762F6627770FE2
:1040C000770F770F298158E0259F90011124262B27
:1040D000372B8A858031D1F4688570E08F81AB0100
:1040E000481B5109CA019695982F8827979587955F
:1040F0000E943034CB014097B90153E0660F771F1F
:104100005A95E1F760789C01260F371F213854EE4D
:1041100035070CF472CFB901330F880B990B0E944D
:104120000F3720E030E040E05CE30E949B3769CF2E
:10413000009769F0FC0101900020E9F73197AF0189
:10414000481B590BBC018DEF93E00C94D90790E00C
:1041500080E00895CF93DF930E949820EC0188E9D6
:1041600091E00E9498208C0F9D1FDF91CF910895C0
:104170000C9498208F929F92AF92BF92CF92DF9231
:10418000EF92FF920F931F93CF93DF93CDB7DEB7DC
:10419000A1970FB6F894DEBF0FBECDBF6B017C01B7
:1041A00019A2423008F44AE08E010F5D1F4F842EA1
:1041B000912CB12CA12CC701B601A50194010E943C
:1041C00039366A3014F5605DF80162938F01C814C6
:1041D000D904EA04FB04B0F4CF010E949820A19610
:1041E0000FB6F894DEBF0FBECDBFDF91CF911F9108
:1041F0000F91FF90EF90DF90CF90BF90AF909F9086
:104200008F90089569017A01D6CF695CDDCF682F60
:1042100070E090E080E04AE00C94BA20CF92DF9208
:10422000EF92FF92CF93DF936C01990FEE08FF0896
:10423000F7FE17C08DE20E945C0CEC016627772721
:10424000CB016C197D098E099F094AE00E94BA20B2
:104250008C0F9D1FDF91CF91FF90EF90DF90CF905B
:1042600008954AE0C701B601DF91CF91FF90EF902A
:10427000DF90CF900C94BA20CF93DF934AE00E9456
:10428000BA20EC0188E991E00E9498208C0F9D1FD4
:10429000DF91CF910895CF93DF930E940E21EC011F
:1042A00088E991E00E9498208C0F9D1FDF91CF91AB
:1042B0000895CF93DF930E940721EC0188E991E0F4
:1042C0000E9498208C0F9D1FDF91CF91089520911F
:1042D000030430910404C901079697FD079623E073
:1042E000959587952A95E1F7209101043091020474
:1042F000829FA001839F500D929F500D112470E06A
:1043000060E080911C0490911D040C9408368F92FB
:104310009F92AF92BF92EF92FF920F931F93CF9312
:104320000E94672110920A041092090410920C0452
:1043300010920B0481E090E09093100480930F049E
:1043400090930E0480930D0483E080931104809376
:104350001204C0917003CA3109F454C308F04DC06F
:10436000C43109F4EAC2B8F4C13009F49DC2CC23C7
:1043700009F4C3C0C23009F4AAC2C33009F4C4C2EC
:10438000CF911F910F91FF90EF90BF90AF909F90B2
:104390008F900C947B14C73109F404C3A8F4C53181
:1043A00009F4E6C2C63161F7809119010E945921D2
:1043B00081E08093110480931204809170030E9425
:1043C000072180E092E09DC2C83109F403C3C931DE
:1043D000B9F680912E012AE0829FC00111240E942B
:1043E0004B2181E08093110480931204809170032B
:1043F0000E9407218AE192E084C2C63609F454C3C0
:10440000E8F5CC3109F422C308F410C3C43609F42A
:1044100034C3C53609F0B4CF809129010E945921D7
:1044200081E08093110480931204809170030E94B4
:1044300007218AE692E00E94B8208091E10284364A
:1044400020F48BE991E00E94B8208091E102CAE05B
:104450006C2F0E94103490E00E940E218DE991E0B3
:104460000E94B8208091E1026C2F0E941034892FA5
:1044700090E00E940E218FE991E043C2C93609F411
:1044800049C308F5C73609F42CC3C83609F078CFFC
:1044900082E0809311048093120460912301709153
:1044A000240180912501909126010E943C2181E008
:1044B0008093110480931204809170030E9407215D
:1044C00089E892E01FC3CA3609F43FC3CB3609F02E
:1044D00057CF80912D0124E6829FC00111240E94B4
:1044E0004B2181E08093110480931204809170032A
:1044F0000E94072181EA92E033C280910B019091E2
:104500000C01A0910D01B0910E0180389649A84987
:10451000B10520F480E992E00E94B82060910B017F
:1045200070910C0180910D0190910E01E0E48E2EAE
:10453000E2E49E2EEFE0AE2EB12CA50194010E9484
:104540003936CA01B9014AE00E94BA2080910904B3
:1045500090910A04059690930A048093090460914F
:104560000B0170910C0180910D0190910E01A5013C
:1045700094010E943936603A76488140910520F4D2
:104580008BE991E00E94B82060910B0170910C01C1
:1045900080910D0190910E0120E432E44FE050E053
:1045A0000E943936603177428105910520F48BE90C
:1045B00091E00E94B82060910B0170910C018091F4
:1045C0000D0190910E0120E432E44FE050E00E9492
:1045D000393658EE852E53E0952EA12CB12CA5012D
:1045E00094010E943936CA01B9014AE00E94BA20FA
:1045F00082E08093110480931204809109049091C9
:104600000A04059690930A048093090487E090E0D9
:1046100090930C0480930B0460910B0170910C013A
:1046200080910D0190910E01A50194010E943936EF
:10463000643671058105910520F48BE991E00E94B3
:10464000B82060910B0170910C0180910D01909147
:104650000E0128EE33E040E050E00E9439362AE0B7
:1046600030E040E050E00E943936CA01B9010E94B2
:104670003C2181E080931104809312048091E10237
:10468000843620F480E992E00E94B8208091E10213
:10469000CAE06C2F0E94103490E00E940E218DE938
:1046A00091E00E94B8208091E1026C2F0E941034AA
:1046B000892F90E00E940E218FE991E00E94B8209E
:1046C00080916F03882309F48BC06091DF027091A1
:1046D000E0022091DD023091DE026217730709F4D7
:1046E0003FC0CB01820F931F621B730B0E941C34CF
:1046F0006A30710520F480E992E00E94B820609150
:10470000DF027091E0022091DD023091DE02CB01E8
:10471000820F931F621B730B0E941C3490E080E099
:104720004AE00E94BA208DE991E00E94B820609191
:10473000DF027091E0022091DD023091DE02CB01B8
:10474000820F931F621B730B0E941C346AE070E09F
:104750000E941C34BC0190E080E04AE00E94BA2034
:104760002091DF023091E00250E040E02150310919
:1047700041095109A4E6B0E00E942E362EEF822EA8
:1047800023E0922EA12CB12CA50194010E940F369A
:10479000EE24E394F12C04E010E047E150E060E403
:1047A00070E08DEF93E00E944A0D2091DD02309180
:1047B000DE0250E040E02150310941095109A4E6F0
:1047C000B0E00E942E36A50194010E940F364CE104
:1047D00050E060E470E08DEF93E00E944A0DD0CD90
:1047E0008091DC0292E3980F953608F051C087FD66
:1047F00004C080E992E00E94B8208091DC02082E7B
:10480000000C990B0E940E2187EF0E945C0C81EA3C
:1048100091E00E94B820809166038823E1F180E94D
:1048200092E00E94B8208091C1038A3020F480E990
:1048300092E00E94B8208091C1030E9407218091DC
:10484000BF0380FF2BC089EA91E00E94B8208091CD
:10485000C0038A3020F48BE991E00E94B820809157
:10486000C0030E94072180910A018823D1F08BEABE
:1048700091E00E94B820809118018A3020F480E9EC
:1048800092E00E94B820809118010E94072178CD03
:1048900083EA91E0BECF8DE991E0C3CF80E992E059
:1048A000D4CF8EEA91E0E5CF809118010E94592182
:1048B000C0931104C0931204809170030E940721D9
:1048C00081EB91E00E94B82080911901DECFE09148
:1048D0001701F0E0EE0FFF1FEC5BFE4F20813181EE
:1048E000AAE0B0E00E945B360E943C2181E0809308
:1048F000110480931204809170030E94072181ECBF
:1049000091E00E94B8203CCD80910A01882391F06B
:104910008BEC91E00E94AA2081E0809311048093A7
:104920001204809170030E94072183ED91E00E94A0
:10493000AA2026CD8FEC91E0EDCF80910F0124E6E7
:10494000829FC00111240E944B2181E080931104B9
:1049500080931204809170030E94072184EE91E0FD
:104960000E94B82080EF0E945C0C80EF91E0C9CFDC
:1049700020911001309111014091120150911301C9
:10498000A4E6B0E00E942E360E943C2181E0809394
:10499000110480931204809170030E94072184EF18
:1049A00091E0DECF8091C1038A3020F48BE991E061
:1049B0000E94B8208091C1030E94592181E0809318
:1049C000110480931204809170030E9407218DE0EE
:1049D00092E097CF8091C0038A3020F48BE991E078
:1049E0000E94B8208091C0030E94592181E08093E9
:1049F000110480931204809170030E94072184E1C6
:104A000092E07FCF80912F012AE0829FC001112484
:104A10000E944B2181E080931104809312048091C5
:104A200070030E9407218AE292E06BCF80912B01F4
:104A30000E94592181E08093110480931204809197
:104A400070030E94072187E392E05BCF80912A01E7
:104A5000882381F086E492E00E94AA2081E080937E
:104A6000110480931204809170030E9407218DE449
:104A700092E05DCF8AE492E0EFCF80911A01882323
:104A800081F086E492E00E94AA2081E080931104E4
:104A900080931204809170030E9407218BE592E0BD
:104AA00046CF8AE492E0EFCF80912C01082E000CD3
:104AB000990B0E944B2181E0809311048093120492
:104AC000809170030E94072182E792E00E94B82043
:104AD00080EF0E945C0C87EF0E945C0C81EA91E001
:104AE00010CF80912701909128010E944B2181E0F5
:104AF0008093110480931204809170030E94072117
:104B00008DE792E00E94B82080EF0E945C0C84E365
:104B100092E0F7CE82E080931104809312046091BA
:104B20001F017091200180912101909122010E942A
:104B30003C2181E0809311048093120480917003E2
:104B40000E94072182E992E0DDCF82E08093110488
:104B50008093120460911B0170911C0180911D01D2
:104B600090911E010E943C2181E08093110480936A
:104B70001204809170030E9407218BE992E0C2CF5A
:104B80004F925F926F927F928F929F92AF92BF925D
:104B9000CF92DF92EF92FF92CF93DF93CDB7DEB744
:104BA00028970FB6F894DEBF0FBECDBF80914304A7
:104BB000823008F07CC0F89488E394E00E942C1CBA
:104BC00060913F04709140048091410490914204AF
:104BD00078942091090130E050E040E00E940F36C7
:104BE00069017A0190912A01992341F0F094E094AF
:104BF000D094C094C11CD11CE11CF11C8090D60241
:104C00009090D702A090D802B090D9028C149D0445
:104C1000AE04BF04B9F14C9B35C0809170032FEFF7
:104C2000280F243018F421E0209361038A3109F41D
:104C300006C308F07AC0843109F422C2D0F581306D
:104C400009F4D7C1882309F40DC1823009F4F2C1F7
:104C5000833009F40EC20E9460086093670370936A
:104C600068038093690390936A0381E080936603ED
:104C70000E948721C092D602D092D702E092D80239
:104C8000F092D90228960FB6F894DEBF0FBECDBFC2
:104C9000DF91CF91FF90EF90DF90CF90BF90AF90DA
:104CA0009F908F907F906F905F904F900895F894B1
:104CB00087CF873109F47BC2E8F4853109F40FC24C
:104CC000863149F6809119018C149D04AE04BF040D
:104CD0000CF05BC28E3108F063C28F5F80931901C4
:104CE0008091190190911801891708F0B4CF809331
:104CF0001801B1CF883109F47AC2893109F0ABCFFC
:104D000080912E018C149D04AE04BF040CF08CC263
:104D10008F3F19F08F5F80932E0180912E018A3092
:104D200008F48AE080932E0196CF863609F4E8C213
:104D300010F58C3109F4BDC208F49EC2843609F422
:104D4000C9C2853609F087CF809129018C149D0452
:104D5000AE04BF040CF0C5C28F3F19F08F5F809383
:104D6000290180912901843608F4C6C28F3F09F0D9
:104D7000C4C28EEFC2C2893609F446C308F057C0D8
:104D8000873609F4DDC2883609F065CF80912301AA
:104D900090912401A0912501B09126018C149D04CD
:104DA000AE04BF040CF014C3813E36E393073FEC1E
:104DB000A307B105A8F4E0911701F0E0EE0FFF1F83
:104DC000EC5BFE4F20813181820F931FA11DB11D2D
:104DD0008093230190932401A0932501B093260191
:104DE0008091230190912401A0912501B091260189
:104DF000813E56E395075FECA507B10520F080EEF4
:104E000096E3AFECB0E0803A2AE992072EECA207D5
:104E1000B10520F480EA9AE9AEECB0E0809323017A
:104E200090932401A0932501B0932601B1C08A3646
:104E300009F455C38E3609F00ECF80912D018C14E4
:104E40009D04AE04BF040CF0B9C38F5F80932D01A5
:104E500080912D018F3008F48FE080932D010E9406
:104E6000661AF9CE40900B0150900C0160900D0134
:104E700070900E01209110013091110140911201AA
:104E80005091130160EA76E881E090E00E940034DE
:104E90006D837E838F839887A0910F01B0E020EA15
:104EA00036E841E050E00E942E3669837A838B8396
:104EB0009C838C149D04AE04BF040CF06CC02D8147
:104EC0003E814F815885241535054605570550F11B
:104ED000E0911701F0E0EE0FFF1FEC5BFE4F208129
:104EE0003181AAE0B0E00E945B364B015C01C30156
:104EF000B201A50194010E943936480C591C6A1C64
:104F00007B1C611571058105910521F0461A570A30
:104F1000680A790A40920B0150920C0160920D01CF
:104F200070920E0180910B0190910C01A0910D01E6
:104F3000B0910E0129813A814B815C8182179307E0
:104F4000A407B50760F489819A81AB81BC81809305
:104F50000B0190930C01A0930D01B0930E01809171
:104F60000B0190910C01A0910D01B0910E012D81CA
:104F70003E814F815885281739074A075B0740F45F
:104F800020930B0130930C0140930D0150930E01BF
:104F90000E94201B60CEC814D904EA04FB0414F656
:104FA00089819A81AB81BC81481659066A067B06C5
:104FB00050F2E0911701F0E0EE0FFF1FEC5BFE4FA7
:104FC00020813181AAE0B0E00E945B364B015C0198
:104FD000C301B201A50194010E9439366115710522
:104FE0008105910509F092CF481859086A087B0895
:104FF00091CF90911901809118018C149D04AE04F9
:10500000BF047CF4891718F48F5F80931801809196
:105010001801981708F4892F809318010E94701DB9
:10502000B7CFC814D904EA04FB048CF7882379F3BA
:105030008150EBCF809117018C149D04AE04BF0406
:1050400034F4863078F48F5F8093170104CEC8144F
:10505000D904EA04FB0434F4882309F4FCCD81501C
:105060008093170180911701873008F4F4CD86E012
:10507000EBCF80910A0191E0892780930A0188CFC4
:1050800080910F018C149D04AE04BF04FCF48F5F6B
:1050900080930F0140910F018FE04F30A0F080917D
:1050A000100190911101A0911201B091130150E0F3
:1050B00070E060E00197A109B109481759076A0734
:1050C0007B0708F4CA0180930F01C5CDC814D90429
:1050D000EA04FB04FCF68F30E8F28150D9CF8091CE
:1050E000100190911101A0911201B09113018C1443
:1050F0009D04AE04BF04DCF58D3231E09307A105B9
:10510000B10558F40196A11DB11D80931001909333
:105110001101A0931201B09313014091100150911D
:105120001101609112017091130180910F0190E0C3
:105130000196092E000CAA0BBB0B481759076A07EA
:105140007B0760F0DB01CA018D3241E09407A105C5
:10515000B10520F08CE291E0A0E0B0E08093100176
:1051600090931101A0931201B093130174CDC81450
:10517000D904EA04FB048CF68F309105A105B10532
:1051800060F20197A109B109C0CFC814D904EA049B
:10519000FB0434F4882309F4A3CD815080931901D2
:1051A000809119018F3108F49BCD8EE197CD8091CC
:1051B000C1038C149D04AE04BF0484F4883138F418
:1051C0008F5F8093C1038091C103883118F087E11C
:1051D0008093C10381E08093D5023DCDC814D904EA
:1051E000EA04FB0484F78823A9F38150EACF809175
:1051F000C0038C149D04AE04BF046CF48C3338F4EB
:105200008F5F8093C0038091C0038C3318F38BE3CE
:105210008093C003DFCFC814D904EA04FB049CF7D1
:105220008823C1F28150EDCFC814D904EA04FB04ED
:105230000CF073CD823008F470CD81506CCD80912C
:105240002F018C149D04AE04BF046CF48F3F19F041
:105250008F5F80932F0180912F018A3008F48AE0BC
:1052600080932F01F8CCC814D904EA04FB049CF7FE
:10527000823088F38150EDCF80912B018C149D04F6
:10528000AE04BF046CF48F3F19F08F5F80932B0145
:1052900080912B01811101C081E080932B01DBCC37
:1052A000C814D904EA04FB049CF7823088F38150C7
:1052B000EDCF992359F010922A01F094E094D09404
:1052C000C094C11CD11CE11CF11CC5CC81E08093B1
:1052D0002A01F3CF80911A0191E0892780931A0166
:1052E000BACCC814D904EA04FB040CF03ACD8436D5
:1052F00008F437CD815033CD84E680932901ABCCBF
:1053000080912C018C149D04AE04BF0484F48F3171
:105310001CF48F5F80932C0180912C018F310CF055
:105320008EE1823E0CF482EE80932C0194CCC81462
:10533000D904EA04FB0484F7823E74F38150EACF77
:1053400080912701909128018C149D04AE04BF0424
:1053500054F5813355E795077CF4E0911701F0E0AF
:10536000EE0FFF1FEC5BFE4F20813181820F931FF8
:105370009093280180932701809127019091280123
:105380008133B5E79B0714F080E395E7803D2AE879
:10539000920714F480ED9AE89093280180932701F6
:1053A0000E94031BF5CDC814D904EA04FB0424F7BA
:1053B000803DAAE89A0704F3E0911701F0E0EE0FB0
:1053C000FF1FEC5BFE4F20813181821B930BD0CFFE
:1053D000C814D904EA04FB040CF002CD803A4AE96F
:1053E00094074EECA407B10508F4FACCE09117013C
:1053F000F0E0EE0FFF1FEC5BFE4F20813181821B3E
:10540000930BA109B109E4CC80911F019091200177
:10541000A0912101B09122018C149D04AE04BF041F
:105420000CF043C0813E36E393073FECA307B10580
:10543000A8F4E0911701F0E0EE0FFF1FEC5BFE4FC8
:1054400020813181820F931FA11DB11D80931F0107
:1054500090932001A0932101B093220180911F011C
:1054600090912001A0912101B0912201813E56E34B
:1054700095075FECA507B10520F080EE96E3AFEC51
:10548000B0E0803A2AE992072EECA207B10520F499
:1054900080EA9AE9AEECB0E080931F01909320017E
:1054A000A0932101B093220173CDC814D904EA045A
:1054B000FB04A4F6803A4AE994074EECA407B10530
:1054C00068F2E0911701F0E0EE0FFF1FEC5BFE4F7A
:1054D00020813181821B930BA109B109B7CF809143
:1054E0001B0190911C01A0911D01B0911E018C1413
:1054F0009D04AE04BF040CF046C0813034EB93072A
:1055000034ECA30734E0B307A8F4E0911701F0E00E
:10551000EE0FFF1FEC5BFE4F20813181820F931F46
:10552000A11DB11D80931B0190931C01A0931D012F
:10553000B0931E0180911B0190911C01A0911D014F
:10554000B0911E01813054EB950754ECA50754E04F
:10555000B50720F080E094EBA4ECB4E0803823ECB5
:10556000920729ECA20721E0B20720F480E893EC2F
:10557000A9ECB1E080931B0190931C01A0931D0145
:10558000B0931E0105CDC814D904EA04FB0494F6B7
:10559000803843EC940749ECA40741E0B40750F28B
:1055A000E0911701F0E0EE0FFF1FEC5BFE4F208152
:1055B0003181821B930BA109B109B4CFC814D9045E
:1055C000EA04FB040CF044CC8F3008F441CC815049
:1055D0003DCC1F921FB61F9211248F939F93AF93C0
:1055E000BF938091480390914903A0914A03B091E1
:1055F0004B030296A11DB11D80934803909349036C
:10560000A0934A03B0934B038091470396E0980F11
:105610009D37E8F49093470380914C0390914D039C
:10562000A0914E03B0914F030196A11DB11D80932F
:105630004C0390934D03A0934E03B0934F03BF913F
:10564000AF919F918F911F901FBE1F901895875704
:10565000809347038091480390914903A0914A03A6
:10566000B0914B030196A11DB11D80934803909307
:105670004903A0934A03B0934B03CECF1F920F92DE
:105680000FB60F9211242F933F934F935F936F9315
:105690007F938F939F93AF93BF93EF93FF938091EB
:1056A000B900887F803609F44AC0F0F5883209F4E1
:1056B000A7C018F5803109F49BC0B8F4882309F419
:1056C000F9C0883009F494C0FF91EF91BF91AF9178
:1056D0009F918F917F916F915F914F913F912F910A
:1056E0000F900FBE0F901F901895883109F488C055
:1056F000803251F78093BC0314C0803409F49DC0FC
:1057000040F48033B9F38833F9F68093BC0385EC19
:10571000B0C0803509F485C0883509F496C0883456
:1057200099F60E94420FD0CF883909F48CC038F521
:10573000883729F050F4883611F0803729F683E055
:105740008093BE031092460357C0883809F47BC08B
:10575000803919F0803809F0B7CF80914603803244
:1057600008F071C0E091460381E08E0F80934603FC
:105770008091BB00F0E0EA5DFC4F80833DC0803B40
:1057800039F0E0F4803A09F479C0883A09F09CCF06
:1057900084E08093BE031092250310922403E091CD
:1057A0007303F091740309958091240381110FC054
:1057B00081E0809324031092040309C0803C09F423
:1057C000A6CF883C09F4A3CF883B09F07DCFE091B8
:1057D000250381E08E0F80932503F0E0EC5FFC4F02
:1057E00080818093BB00909125038091240329C080
:1057F0008091B9038093BB0085EC8093BC0064CF9B
:105800009091BB038091BA03981758F5E091BB03C0
:1058100081E08E0F8093BB03F0E0E856FC4F80815F
:10582000E9CFE091BB0381E08E0F8093BB038091B1
:10583000BB00F0E0E856FC4F80839091BB03809161
:10584000BA039817C8F285E8D8CFE091BB0381E08E
:105850008E0F8093BB038091BB00F0E0E856FC4FB5
:1058600080838091BD0381115CCF81E08093B80378
:1058700084EA8093BC001092BE0326CF85EC80930F
:10588000BC001092BE0380914603803230F4E09158
:105890004603F0E0EA5DFC4F10826091460370E041
:1058A000E0917103F091720386E293E00995109202
:1058B00046030ACF1092BC0334CF1F920F920FB64B
:1058C0000F9211242F933F934F935F936F937F9386
:1058D0008F939F93AF93BF93EF93FF938091CD03EB
:1058E0009091CE030E942C1CFF91EF91BF91AF913C
:1058F0009F918F917F916F915F914F913F912F91E8
:105900000F900FBE0F901F9018951F920F920FB619
:105910000F9211242F933F934F935F936F937F9335
:105920008F939F93AF93BF93EF93FF938091CB039C
:105930009091CC030E942C1CFF91EF91BF91AF91ED
:105940009F918F917F916F915F914F913F912F9197
:105950000F900FBE0F901F901895CF930E94C50611
:105960001092F4031092F30388EE93E0A0E0B0E00D
:105970008093F5039093F603A093F703B093F80395
:105980008EE591E09093F2038093F10380E580939C
:10599000650410924504109244041092470410923A
:1059A0004604109249041092480410924A0410923E
:1059B0004B0410924C0480913B0190913C01A091CA
:1059C0003D0180934D0490934E04A0934F04109298
:1059D00050041092510410925204109253041092E9
:1059E00054041092550410925604109257041092C9
:1059F00058041092590410925A0410925B0480E8E3
:105A00009FEDA7E1B0E180935C0490935D04A093C7
:105A10005E04B0935F0462E082E00E94F20662E0FE
:105A200083E00E94F206EDE8FAE0E491F0E0EE0F88
:105A3000FF1FEF57F54F8591949190933904809310
:105A40003804EFE6FAE0E491E0933C04EEE8FAE093
:105A5000E491F0E0EE0FFF1FEF57F54F8591949121
:105A600090933B0480933A04E0E7FAE0E491E093FA
:105A70003D0410923F041092400410924104109291
:105A8000420480ED97E00E940208E0913804F09112
:105A90003904908180913C04982381E009F480E0EE
:105AA000E0913A04F0913B04908120913D049223CF
:105AB00009F0826028E334E080933E043093CC0305
:105AC0002093CB03809169008C7F81608093690073
:105AD000E89AC1E0C09343043093CE032093CD03F2
