:100000000C9452050C94212E0C94F92D0C947A0525
:100010000C947A050C947A050C947A050C947A0564
:100020000C947A050C947A050C947A050C947A0554
:100030000C947A050C947A050C947A050C947A0544
:100040000C94852C0C947A050C947A050C947A0502
:100050000C947A050C947A050C947A050C947A0524
:100060000C94DA2C0C947A05000103070F1F3F7FD4
:100070000080C0E0F0F8FCFE00000000003E5B4F96
:100080005B3E3E6B4F6B3E1C3E7C3E1C183C7E3CF8
:10009000181C577D571C1C5E7F5E1C00183C180006
:1000A000FFE7C3E7FF0018241800FFE7DBE7FF3096
:1000B000483A060E2629792926407F050507407F04
:1000C00005253F5A3CE73C5A7F3E1C1C08081C1C77
:1000D0003E7F14227F22145F5F005F5F06097F016D
:1000E0007F006689956A606060606094A2FFA29458
:1000F00008047E040810207E201008082A1C080826
:100100001C2A08081E101010100C1E0C1E0C303873
:100110003E3830060E3E0E06000000000000005F74
:1001200000000007000700147F147F14242A7F2A90
:100130001223130864623649562050000807030052
:10014000001C2241000041221C002A1C7F1C2A089E
:10015000083E080800807030000808080808000001
:1001600060600020100804023E5149453E00427F75
:10017000400072494949462141494D331814127FC4
:100180001027454545393C4A494931412111090764
:100190003649494936464949291E000014000000E5
:1001A00040340000000814224114141414140041B7
:1001B00022140802015909063E415D594E7C121174
:1001C000127C7F494949363E414141227F414141AC
:1001D0003E7F494949417F090909013E4141517327
:1001E0007F0808087F00417F41002040413F017F98
:1001F000081422417F404040407F021C027F7F0460
:1002000008107F3E4141413E7F090909063E4151A8
:10021000215E7F09192946264949493203017F0198
:10022000033F4040403F1F2040201F3F4038403F99
:10023000631408146303047804036159494D4300AF
:100240007F4141410204081020004141417F0402E6
:10025000010204404040404000030708002054547D
:1002600078407F284444383844444428384444285B
:100270007F385454541800087E090218A4A49C78AE
:100280007F0804047800447D40002040403D007F0A
:100290001028440000417F40007C047804787C08EA
:1002A0000404783844444438FC18242418182424BE
:1002B00018FC7C08040408485454542404043F44A3
:1002C000243C4040207C1C2040201C3C4030403CD2
:1002D00044281028444C9090907C4464544C440032
:1002E0000836410000007700000041360800020196
:1002F0000204023C2623263C1EA1A161123A404082
:10030000207A3854545559215555794122545478FE
:1003100042215554784020545579400C1E52721297
:100320003955555559395454545939555454580020
:1003300000457C410002457D420001457C407D1224
:1003400011127DF0282528F07C5455450020545486
:100350007C547C0A097F4932494949323A44444431
:100360003A324A4848303A4141217A3A424020786C
:10037000009DA0A07D3D4242423D3D4040403D3C6D
:1003800024FF2424487E4943662B2FFC2F2BFF0992
:1003900029F620C0887E0903205454794100004486
:1003A0007D413048484A32384040227A007A0A0A71
:1003B000727D0D19317D2629292F282629292926E4
:1003C00030484D4020380808080808080808382F29
:1003D00010C8ACBA2F102834FA00007B00000814B3
:1003E0002A142222142A14085500550055AA55AA89
:1003F00055AAFF55FF55FF000000FF00101010FF29
:1004000000141414FF001010FF00FF1010F010F083
:10041000141414FC001414F700FF0000FF00FF1474
:1004200014F404FC141417101F10101F101F1414C0
:10043000141F00101010F0000000001F101010100A
:100440001F10101010F010000000FF1010101010FE
:1004500010101010FF10000000FF140000FF00FF3C
:1004600000001F10170000FC04F4141417101714D8
:1004700014F404F40000FF00F714141414141414FA
:10048000F700F7141414171410101F101F1414146D
:10049000F4141010F010F000001F101F0000001FD7
:1004A00014000000FC140000F010F01010FF10FF0A
:1004B000141414FF141010101F00000000F010FF9F
:1004C000FFFFFFFFF0F0F0F0F0FFFFFF0000000083
:1004D00000FFFF0F0F0F0F0F3844443844FC4A4A07
:1004E0004A347E02020606027E027E0263554941BC
:1004F000633844443C04407E201E2006027E0202F3
:1005000099A5E7A5991C2A492A1C4C7201724C3006
:100510004A4D4D303048784830BC625A463D3E49DD
:100520004949007E0101017E2A2A2A2A2A44445F81
:10053000444440514A444040444A51400000FF0175
:1005400003E080FF000008086B6B08361236243683
:10055000060F090F060000181800000010100030E8
:1005600040FF0101001F01011E00191D1712003C70
:100570003C3C3C0000000000005EBCE2613FDD83CB
:10058000C29C7E20A3FD1F41009D23BE46DB65F873
:100590008C11AF32CA57E974000000002400270014
:1005A0002A00DB40A4A62EAFDA0281DA1281DA0239
:1005B000818F2000A1C8D300408DAED580A8000057
:1005C0000000250028002B00000060000000000053
:1005D000000000000000000000E00000000000003B
:1005E0000000000000000001E0000000000000002A
:1005F00000000000000001F000000000000000000A
:10060000000000000003F0000000000000000000F7
:100610000000000007F000000000000000000000E3
:1006200000000007F80000000000000000000000CB
:1006300000000FF800000003C0007E000001E00091
:100640007F0FF800000003C000FE000001E000FF83
:10065000EFF800000003C000FE000001E000FFFF13
:10066000F800000003C000F00000000F007FFE7FD4
:10067000C0000003C000F00000000F003FFE7FF844
:100680003FF1FBCFFCFEF3BC3DEFE01FFE7FFF7FA1
:10069000FBFFDFFEFEFFBC3DEFE01FC6FFFF7FFB61
:1006A000FFDFFEFEFFBC3DEFE00FE3C7FE787BC33C
:1006B000DE1EF0FFBC3DEF0007FF87FC787BC3DE4A
:1006C0001EF0F83C3DEF0001FFFFF0007BC3C01EB1
:1006D000F0F03C3DEF0001F37FE03FFBC3CFFEF0C5
:1006E000F03C3DEF0003E33F807FFBC3DFFEF0F013
:1006F0003C3DEF0007E73C00787BC3DE1EF0F03C9A
:100700003DEF0007FFBE00787BC3DE1EF0F03C3DEE
:10071000EF0007FFFE00787BC3DE1EF0F03C3DEFEC
:10072000000FFFFE007FFBFFDFFEF0F03FFDEFE07C
:100730000FFFFF007FFBFFDFFEF0F03FFDEFE00F5C
:10074000F9FF003E79F9CF9EF0F01F3DE7E01FF181
:10075000FF0000000000000000000000001F80FFFC
:10076000007FFFFFFFFFFFFFFFFFFFE01C007F0098
:100770007FFFFFFFFEB46D888D18E000001F007F33
:10078000FFFFFFFE95AD7DB577E000000F007FFF16
:10079000FFFFFEA5AD9D8D19E0000006007FFFFF65
:1007A000FFFEB5ADEDB57EE0000000000001800069
:1007B00000000000000000000380000000000000B6
:1007C00000000007C000000000000000000007C09B
:1007D0000000000000000000000FC000000000004A
:1007E000000000001FE00000000000000000001FEB
:1007F000E00000000000000000003FE000000000FA
:1008000000000000003FF0000000000000000000B9
:100810007FF0000000000000001FF87FF0000000E3
:10082000000000003FFE7FF0000000000000003FDD
:10083000FF7FF0000000000000001FFFFBE0000051
:1008400000000000000FFFF9FFC0000000000000E2
:100850000FFFF9FFF800000000000007FFF1FFFFA5
:1008600000000000000003FC73FFFF800000000098
:100870000001FE3FFFFF80000000000000FF1E0F90
:10088000FF000000000000007FFE1FFC00000000D1
:100890000000003FFFFFF8000000000000000FDF35
:1008A000FFE0000000000000001F19FFC000000072
:1008B000000000003F3CFF00000000000000007E40
:1008C0007CF800000000000000007FFE7C000000BB
:1008D0000000000000FFFFFC00000000000000001E
:1008E000FFFFFE0000000000000000FFFFFE000010
:1008F000000000000001FFEFFE000000000000000B
:1009000001FFCFFE0000000000000003FF07FE0013
:1009100000000000000003FC07FE000000000000D3
:100920000003F003FE00000000000000018000FE54
:10093000000000000000000000007E000000000039
:1009400000000000003E0000000000000000000069
:100950000C000000000000078000FC000003C00045
:100960000000078001FC000003C0000000078001B8
:10097000FC000003C0000000078001E00000001E32
:10098000000000078001E00000001E007FE3F79FE9
:10099000F9FDE7787BDFC0FFF7FFBFFDFDFF787B48
:1009A000DFC0FFF7FFBFFDFDFF787BDFC0F0F787FB
:1009B000BC3DE1FF787BDE00F0F787BC3DE1F078DD
:1009C0007BDE0000F787803DE1E0787BDE007FF78B
:1009D000879FFDE1E0787BDE00FFF787BFFDE1E068
:1009E000787BDE00F0F787BC3DE1E0787BDE00F04D
:1009F000F787BC3DE1E0787BDE00F0F787BC3DE1A6
:100A0000E0787BDE00FFF7FFBFFDE1E07FFBDFC0AA
:100A1000FFF7FFBFFDE1E07FFBDFC07CF3F39F3D0D
:100A2000E1E03E7BCFC000000000000000000000BD
:100A300000FFFFFFFFFFFFFFFFFFFFC0FFFFFFFF04
:100A4000FD68DB111A31C0FFFFFFFFFD2B5AFB6A67
:100A5000EFC0FFFFFFFFFD4B5B3B1A33C0FFFFFF03
:100A6000FFFD6B5BDB6AFDC02200FF210001020479
:100A70000810204080010204081020010204081020
:100A800020000000002300260029000404040404C0
:100A9000040404020202020202030303030303002C
:100AA000492E223611241FBECFEFD8E0DEBFCDBFC6
:100AB00024E0A0E0B3E001C01D92A33AB207E1F741
:100AC00013E0A0E0B1E0ECE8F4E702C005900D927D
:100AD000A030B107D9F715E0C1E5D5E004C02197F2
:100AE000FE010E94FF36C035D107C9F70E94C42F0E
:100AF0000C94393A0C94000091E090930304809395
:100B00000204109201041092000408959091F703DA
:100B10009111FCCF91E09093F7039093F6032FEFA0
:100B20002093F5031092F403260F2093F303909380
:100B3000F2039091F203880F892B8093F203809146
:100B4000F103813011F51092F1038091F20380934B
:100B5000BB008091BC0083FDF8CF85EC8093BC0086
:100B60008091F7038130E1F38091F403861710F44C
:100B70006091F40321ED33E0A1EBB3E0F9018E2F96
:100B8000821B861720F0862F089585EEE7CF81918E
:100B90008D93F5CF8F929F92AF92BF92CF92DF92BB
:100BA000EF92FF92CF93611571058105910521F4B4
:100BB00061E070E080E090E023E0660F771F881F1F
:100BC000991F2A95D1F76115710521E082079105DA
:100BD00008F44EC06115710528E08207910508F4FC
:100BE0004BC06115710520E48207910508F048C0EB
:100BF00020E430E0C3E06901F12CE12CA7010E9460
:100C00006A3849015A0180918000807F809380007A
:100C1000C861C0938100C9010197909387008093B8
:100C200086008091810087708093B00360E072E15C
:100C30008AE790E0A70196010E944038AA24BB24CD
:100C4000CA01B901A50194010E94403860E472E430
:100C50008FE090E00E946A38CA01B901CF91FF90FD
:100C6000EF90DF90CF90BF90AF909F908F900895BE
:100C700021E030E0C1E0BFCF28E030E0C2E0BBCFF0
:100C800020E031E0C4E0B7CF8091AE039091AF0394
:100C9000891B990B089508950895482FE62F282F52
:100CA00030E0863009F459C000F58330E1F1853039
:100CB00009F44FC04830E0F14E3010F1443108F0F3
:100CC00063C02E50310981E090E0A0E0B0E004C0A4
:100CD000880F991FAA1FBB1F2A95D2F728B1EE23B0
:100CE00009F44FC0822B88B908958A30C9F18B303E
:100CF000D9F18930F9F6809180008F778093800058
:100D00002850310981E090E0A0E0B0E004C0880FF5
:100D1000991FAA1FBB1F2A95D2F7E1112EC025B13A
:100D2000809582232CC09091B0009F7D9093B0005D
:100D300081E090E0A0E0B0E004C0880F991FAA1FF6
:100D4000BB1F4A95D2F72BB1EE23A1F0822B8BB9B2
:100D5000089594B59F7D94BDEBCF94B59F77FBCF5D
:100D6000809180008F7DCACF8091B0008F77809373
:100D7000B000C6CF80958223EACF25B1822B85B9FA
:100D8000089580958223AFCF08951092AF031092FB
:100D9000AE0310920104109200041092F70381E058
:100DA0008093F6031092F103449A459AE9EBF0E040
:100DB00080818E7F808380818D7F808380E280939D
:100DC000B80085E48093BC008BE496E09093AD037B
:100DD0008093AC038CE496E09093AB038093AA03DA
:100DE00008950895CF92DF92EF92FF920F931F9391
:100DF000613009F45BC0623009F490C08830C8F4F7
:100E00009AB141E050E060E070E004C0440F551F2B
:100E1000661F771F8A95D2F7409594239AB98BB1B4
:100E200048234BB91F910F91FF90EF90DF90CF9027
:100E300008958E30B0F424B1082F0850110B81E0D2
:100E400090E0A0E0B0E004C0880F991FAA1FBB1F6C
:100E50000A95D2F78095282324B995B1892385B9BD
:100E6000E1CF8431F8F6E7B190E09C012E503109D2
:100E700041E050E060E070E06A017B0104C0CC0C0E
:100E8000DD1CEE1CFF1C2A95D2F7860100950E236F
:100E900007B928B1089704C0440F551F661F771F74
:100EA0008A95D2F74095422348B9BCCF883078F470
:100EB0009AB141E050E060E070E004C0440F551F7B
:100EC000661F771F8A95D2F7942B9AB9ABCF8E30D5
:100ED00088F424B18850990B41E050E060E070E064
:100EE00004C0440F551F661F771F8A95D2F7242B25
:100EF00024B998CF843108F095CF27B18E50990B43
:100F000041E050E060E070E004C0440F551F661FF0
:100F1000771F8A95D2F7242B27B984CF8830B8F46D
:100F20003AB141E050E060E070E07A018B0104C02A
:100F3000EE0CFF1C001F111F8A95D2F7C7012E2D42
:100F4000209523232AB92BB1822B8BB96BCF8E30FE
:100F5000B0F434B1082F0850110B81E090E0A0E00C
:100F6000B0E004C0880F991FAA1FBB1F0A95D2F7D3
:100F7000282F2095232324B925B1822B70CF8431CB
:100F800008F050CF37B1682F6E50770B81E090E0BA
:100F9000A0E0B0E004C0880F991FAA1FBB1F6A958C
:100FA000D2F7282F2095232327B928B1822B88B97F
:100FB00039CFCF92DF92EF92FF920F931F93CF938F
:100FC000DF937C016A0110E000E00C151D0581F043
:100FD000EB01D701ED91FC910190F081E02D699139
:100FE000C7010995892B21F00F5F1F4FBE01EDCF7F
:100FF000C801DF91CF911F910F91FF90EF90DF908B
:10100000CF900895880F991F04970197F1F70895DD
:101010003FB7F8948091800390918103A09182035F
:10102000B091830326B5A89B05C02F3F19F0019608
:10103000A11DB11D3FBFBA2FA92F982F8827BC0132
:10104000CD01620F711D811D911D43E0660F771F59
:10105000881F991F4A95D1F708958F929F92AF925A
:10106000BF92CF92DF92EF92FF926B017C010E94C0
:1010700008084B015C01C114D104E104F104B9F08A
:101080000E940808681979098A099B09683E73401B
:101090008105910580F381E0C81AD108E108F108C3
:1010A00028EE820E23E0921EA11CB11CE4CFFF901B
:1010B000EF90DF90CF90BF90AF909F908F9008956A
:1010C0002FB7F89460917C0370917D0380917E032B
:1010D00090917F032FBF08952091000190E4299FF4
:1010E000900111248E50822B80937C0080917A0095
:1010F000806480937A0080917A0086FDFCCF809195
:101100007800909179000895E0E0615098F0DC015A
:101110008D918E27E82FEF70F0E0E858FA4F949108
:10112000E82FE295EF70F0E0E857FA4FE491E927F5
:10113000CD01EBCF8E2F08950F931F93CF93DF93A5
:10114000FC011081C181D281F8948981812B89832E
:101150008A81012F009580238A8383E090E00E949A
:1011600002088981802389838AE090E00E94020836
:10117000C881789485E390E00E940208C12381E051
:1011800009F480E0DF91CF911F910F9108951F9393
:10119000CF93DF93FC011081C181D281912F909573
:1011A00060FF16C0F8948A8189238A838981812B04
:1011B00089838AE090E00E9402088A81182B1A83B2
:1011C000789487E390E0DF91CF911F910C9402080F
:1011D000F8948A8189238A838981812B898381E498
:1011E00090E00E9402088A81182B1A83789485E087
:1011F00090E0E9CFDF92EF92FF920F931F93CF938E
:10120000DF93EC01D62EE42E08E010E0FF24F394E7
:1012100061E08D2D8F2109F460E0CE010E94C708A6
:10122000FF0C01501109A1F7E11010C0F894E981F9
:10123000FA8191818881809589238183E981FA816E
:10124000928188818095892382837894DF91CF91E0
:101250001F910F91FF90EF90DF900895EF92FF9212
:101260000F931F93CF93DF938C017B0140E065E5E3
:101270000E94FA08E70188E0E80EF11C699140E05D
:10128000C8010E94FA08CE15DF05C1F7DF91CF91A2
:101290001F910F91FF90EF9008950895FC016370E6
:1012A000668B8481958126813781623021F063309D
:1012B00039F0613029F0918780873387228708953C
:1012C000318720879387828708952F923F924F928C
:1012D0005F926F927F928F929F92AF92BF92CF92C6
:1012E000DF92EF92FF920F931F93CF93DF93CDB7CF
:1012F000DEB76A970FB6F894DEBF0FBECDBF9A8FE8
:10130000898F7A8369834A01D22E18870F83370128
:10131000BC2CDC0159962D913C915A972115310531
:1013200009F015C118968D919C9119976817790746
:101330000CF0D7C11A968D919C91481759070CF063
:10134000D0C14C2C512CB6E0CB9E600D711D1124E8
:101350007C876B87161617060CF0C3C1EA2DF0E0E8
:10136000FA87E98793E0EE0FFF1F9A95E1F7F88B74
:10137000EF87CF01840F951F181619060CF0B1C125
:10138000A98DBA8D58968C91811104C0BFEABD1504
:1013900008F4D394A98DBA8DED91FC911197028434
:1013A000F385E02DCD010995B5E0DB9EC001112448
:1013B000E981FA81FC83EB83312C212C9C01285894
:1013C0003F4F388F2F8B4A2D50E05E8B4D8BEF892E
:1013D000F88DE20DF31D44919E828D82D12CC12C9B
:1013E00069817A81620D731D7A8B698B842F90E0FD
:1013F0009C8B8B8BE98DFA8DA081B18140FF82C0DF
:10140000F1E0BF126FC0AF126DC01C96ED91FC9160
:101410002F813885A4014C0D5D1D69897A89898DDC
:101420009A8D0995EB89FC89F595E7954E2F5FEF2D
:10143000C51AD50A6D817E818D899E89680F791FB5
:101440007E836D8398E0C916D10481F6AFEF2A1A26
:101450003A0AEB81FC81E40DF51DFC83EB83F5E09A
:101460002F16310409F0B3CF2F81388526153705A3
:10147000B9F0A98DBA8DED91FC91B1E0BB1257C0C6
:10148000AB1255C069817A816B5F7F4F0088F1890B
:10149000E02D830128E030E0A401898D9A8D099523
:1014A000A98DBA8DED91FC9111970688F789E02DF1
:1014B000CD016A960FB6F894DEBF0FBECDBFDF91A7
:1014C000CF911F910F91FF90EF90DF90CF90BF9041
:1014D000AF909F908F907F906F905F904F903F90D4
:1014E0002F9009941E96ED91FC91EF80F884098568
:1014F0001A8592014D815E816B817C81898D9A8DE7
:10150000099590CF2F8138852615370509F48ACFA4
:1015100031E0B31207C0A31205C01C96ED91FC91F7
:10152000930178CF1E96ED91FC917301E0CF6B850E
:101530007C85641975090684F785E02D73010F8594
:1015400018899201A401898D9A8D0995A9CFF90175
:1015500034969491329745915491D91AB7E0DB9E15
:10156000400D511D1124F901259134913C8B2B8B99
:10157000FA0125903490FA013296749031963491A4
:10158000398B329664903196449041E04C1518F0B6
:101590004A1508F07FC0662D062C000C770B7C8363
:1015A0006B83842D042C000C990B9E838D83A98D55
:1015B000BA8DED91FC9111970284F385E02DCD0158
:1015C0000995512CD12CC12CEA2DF0E0FA87E9873E
:1015D0002B2D30E03C872B87A401440D511D47FC87
:1015E0005A95588F4F8B69817A81660D711D67FC02
:1015F0007A957E876D877989C71608F051CF2C2D93
:1016000030E04D815E81420F531FA985BA854A9F04
:10161000C0014B9F900D5A9F900D1124FC01E80DC5
:10162000F91DF88BEF87852D612C4F89588D420F5E
:10163000531F5E8B4D8B671408F050C044244394B5
:10164000480E877041F4C1010196EB89FC89E20DD7
:10165000F31DD4901C01D7FE19C0A98DBA8DED9150
:10166000FC91662D70E0B1E0BB1219C0AB1217C03F
:101670002D853E85620F731F0484F585E02D2F8133
:1016800038854D895E89898D9A8D0995DD0C639425
:10169000842DD1CF1E821D821C821B8288CF4B815C
:1016A0005C81640F751FAB85BC856A9FC0016B9F11
:1016B000900D7A9F900D112469817A81680F791FAE
:1016C0000684F785E02DEF80F88409851A859D0151
:1016D0004F855889898D9A8D0995D8CF570CC39419
:1016E0008ACF6A960FB6F894DEBF0FBECDBFDF91EA
:1016F000CF911F910F91FF90EF90DF90CF90BF900F
:10170000AF909F908F907F906F905F904F903F90A1
:101710002F9008958F929F92AF92CF92EF92FF9267
:101720000F931F93CF93DF93EC01262F898D9A8D12
:10173000009709F051C06A30D1F41D861C868D894E
:1017400048E0849F900111248E859F85820F931F0E
:101750009F878E8781E090E0DF91CF911F910F915D
:10176000FF90EF90CF90AF909F908F9008956D3045
:1017700089F3CC88AD888F898823C1F08C859D85BD
:1017800036E0C39E800D911D112448855985481768
:10179000590764F44E855F851D861C8638E0A39E3C
:1017A000C0011124840F951F9F878E87EA88FB88CC
:1017B000088919894E855F856C857D85CE010E94DB
:1017C00065092C898C859D8546E0249F800D911D9F
:1017D00011249D878C87BECF6A3069F41D861C86D4
:1017E000FC013896E4912D898E859F85E29F800DBE
:1017F000911D1124ADCF6D3009F4ACCFFC013496AE
:101800003491631708F4A6CF3296E491E61708F4F2
:10181000A1CFFC01329685909490462F431B342F24
:1018200047E0349F800C911C1124F40132963491CE
:101830003196E4913323A9F1EE2399F1CC88F40198
:101840003596E491AD884F89442301F10E2E000CAA
:10185000FF0BE30FF11DCE9EA001CF9E500D112472
:101860006C857D85460F571F6885798564177507D8
:101870006CF44E855F851D861C86FC013896E491CC
:10188000AE9E400D511D11245F874E87EA88FB886C
:10189000088919894E855F856C857D85CE010E94FA
:1018A0006509F4013496E4912C898C859D85E29F2D
:1018B000800D911D11248DCF682F86E394E00C9448
:1018C0008A0B6F927F928F929F92AF92BF92CF922C
:1018D000DF92EF92FF920F931F93CF93DF93EC0170
:1018E0006B015A0139014801E881F9810284F385CD
:1018F000E02D0995E881F9810288F389E02D8701BF
:101900009301A501B601CE010995A501480D591D08
:1019100041505109E881F9810288F389E02D930152
:10192000B601CE010995E881F9810088F189E02DA1
:101930009401A501B601CE010995C60CD71CB601CC
:1019400061507109E881F9810088F189E02D9401E5
:10195000A501CE010995E881F9810688F789E02D76
:10196000CE01DF91CF911F910F91FF90EF90DF900B
:10197000CF90BF90AF909F908F907F906F90099481
:101980008F929F92AF92BF92CF92DF92EF92FF928F
:101990000F931F93CF93DF934C016B015A01E90121
:1019A000DC01ED91FC916217730709F50417150727
:1019B00024F48B2D5801042F182F0A191B099801A4
:1019C0002F5F3F4F048CF58DE02D8701A501B601F7
:1019D000C4010995DF91CF911F910F91FF90EF9076
:1019E000DF90CF90BF90AF909F908F900895401759
:1019F000510781F42617370724F48D2D6901C62F6E
:101A0000D82F9E012C193D092F5F3F4F068CF78D73
:101A1000E02DDBCF0284F385E02D0995D401ED9113
:101A2000FC910488F589E02D9E01A501B601C40151
:101A30000995D401ED91FC910688F789E02DC40148
:101A4000DF91CF911F910F91FF90EF90DF90CF909A
:101A5000BF90AF909F908F900994EF92FF920F9359
:101A60001F93DC011A960D911C911B9718962D91CE
:101A70003C911997ED91FC9100A0F1A1E02D7B0123
:101A800050E040E070E060E009951F910F91FF90F9
:101A9000EF9008954F925F926F927F928F929F92F4
:101AA000AF92BF92CF92DF92EF92FF920F931F936C
:101AB000CF93DF936C012B015A0139014801DC01FE
:101AC000ED91FC910284F385E02D0995E201640C0F
:101AD000751CD601ED91FC91C615D7055CF4008804
:101AE000F189E02D87019401A501BE01C601099588
:101AF0002196EFCF0688F789E02DC601DF91CF91BF
:101B00001F910F91FF90EF90DF90CF90BF90AF901B
:101B10009F908F907F906F905F904F9009948F92DD
:101B20009F92AF92BF92CF92DF92EF92FF920F936C
:101B30001F93CF93DF93EC015B014A016901E881B8
:101B4000F9810284F385E02D099595012C0D3D1D49
:101B500021503109E881F9810488F589E02D780167
:101B60008401A401B501CE010995E881F9810688B7
:101B7000F789E02DCE01DF91CF911F910F91FF905A
:101B8000EF90DF90CF90BF90AF909F908F9009948F
:101B90008F929F92AF92BF92CF92DF92EF92FF927D
:101BA0000F931F93CF93DF93EC015B014A0169010F
:101BB0007801E881F9810284F385E02D0995C80C4C
:101BC000D91C860101501109E881F9810488F58941
:101BD000E02D9501A401B501CE010995E881F981B7
:101BE0000688F789E02DCE01DF91CF911F910F91EB
:101BF000FF90EF90DF90CF90BF90AF909F908F902D
:101C00000994EF92FF920F931F93DC01ED91FC91E9
:101C100000A0F1A1E02D09951F910F91FF90EF9089
:101C200008950F931F93DC01ED91FC91068CF78DC5
:101C3000E02D09951F910F9108950F931F93DC01DB
:101C4000ED91FC91048CF58DE02D09951F910F917C
:101C50000895DC01ED91FC910084F185E02D09945B
:101C60003F924F925F926F927F928F929F92AF922C
:101C7000BF92CF92DF92EF92FF920F931F93CF9379
:101C8000DF935C017B014A016901390187E0680E3D
:101C9000711C93E0759467949A95E1F72B01400EBF
:101CA000511E10E000E0312CD0E0C0E0CE01877082
:101CB0009927330C892B59F4FE0183E0F595E795BC
:101CC0008A95E1F7E00FF11FE80DF91D349037FE1A
:101CD0000AC021E030E0A701B5016C0F7D1F86E34B
:101CE00094E00E94290E2196CC16DD06F9F68FEFBE
:101CF000E81AF80A060D171DE414F504A9F6DF9199
:101D0000CF911F910F91FF90EF90DF90CF90BF90F8
:101D1000AF909F908F907F906F905F904F903F908B
:101D200008952F923F924F925F926F927F928F927F
:101D30009F92AF92BF92CF92DF92EF92FF920F935A
:101D40001F93CF93DF9300D000D000D0CDB7DEB784
:101D50002C017E836D836A015901C801FC82EB82EC
:101D60004801841A950A97FE03C0919481949108C2
:101D700035012D813E81621A730A77FE03C071948A
:101D800061947108681479045CF43A2D2B2D5C0180
:101D9000832F922F3D812E81DE82CD82C32ED22EC3
:101DA000AD81BE81AA16BB065CF43C2D2D2D6C01C5
:101DB000832F922F3D812E81BE82AD82A32EB22E23
:101DC00085012D813E81021B130B1C012C183D083F
:101DD00037FE03C0319421943108780117FF03C006
:101DE0003FEFE31AF30AF594E794C816D90664F1B5
:101DF0008FEF9FEF9A8389832D813E81A216B306D0
:101E000044F1D201ED91FC910484F585E02D2B8104
:101E10003C814D815E81B601681479041CF0A601F5
:101E20006D817E81C2010995E218F308F7FE06C0B4
:101E300029813A81C20ED31EE00EF11E8D819E8152
:101E400001969E838D83D8CFA1E0B0E0BA83A983A9
:101E5000D3CF26960FB6F894DEBF0FBECDBFDF916D
:101E6000CF911F910F91FF90EF90DF90CF90BF9097
:101E7000AF909F908F907F906F905F904F903F902A
:101E80002F90089585ED8093BC008091BC0084FD67
:101E9000FCCF1092F703089520915803260F3327A3
:101EA000331F21323105ECF42091F703FC0190E05F
:101EB00080E0243069F082E00895A09158032191D8
:101EC000AC01485C5C4FA40FB52FB11D2C9301965B
:101ED000861798F380915803680F6093580380E049
:101EE000089581E00895E091AF038091AE03E81773
:101EF00030F4F0E0EF54FC4F808190E008958FEFD4
:101F00009FEF08959091AF038091AE032FEF3FEFC5
:101F1000981748F4E92FF0E0EF54FC4F208130E0AF
:101F20009F5F9093AF03C9010895CF92DF92EF9224
:101F3000FF920F931F93CF93DF937C01CB018A0114
:101F400020910304222389F0EB016B01C40ED51EFE
:101F5000CC15DD0569F06991D701ED91FC910190F7
:101F6000F081E02DC7010995F3CF642F0E944C0F3B
:101F7000C801DF91CF911F910F91FF90EF90DF90FB
:101F8000CF900895CF93DF930F92CDB7DEB76983DB
:101F9000209103042223F9F020910004203258F00C
:101FA00021E030E0FC013383228390E080E00F9059
:101FB000DF91CF91089580910104E82FF0E0E85E71
:101FC000FC4F998190838F5F80930104809300047C
:101FD00081E090E0ECCF61E0CE0101960E944C0FD1
:101FE000F7CF682F8AE294E00C94C20F209100048E
:101FF00081E0213208F046C08091F7038111FCCFC7
:102000009091020432E03093F70331E03093F6030D
:102010003FEF3093F5031092F4032093F30348E16C
:1020200053E0A1EDB3E0FA013E2F341B321788F1E3
:102030001092F2032091F203990F922B9093F203E6
:102040009091F103913041F51092F1039091F203D8
:102050009093BB009091BC0093FDF8CF95EC9093CA
:10206000BC009091F7039230E1F39091F5039F3F0C
:1020700049F08091F503803289F08091F503803337
:1020800079F084E01092010410920004109203048D
:10209000089531913D93C8CF95EEE1CF82E0F2CF24
:1020A00083E0F0CFCF9388E60E947C0560E08AE26F
:1020B00094E00E94C20F60E88AE294E00E94C20F9E
:1020C0008091F903CAE06C2F0E9441368295807F8F
:1020D000682F690F8AE294E00E94C20F8091FA0390
:1020E0006C2F0E9441368295807F682F690F8AE2AB
:1020F00094E00E94C20F8091FB036C2F0E94413636
:102100008295807F682F690F8AE294E00E94C20F57
:102110008091FC036C2F0E9441368295807F682F4E
:10212000690F8AE294E00E94C20F8091FD036C2F38
:102130000E9441368295807F682F690F8AE294E081
:102140000E94C20F8091FE038E516C2F0E94413677
:102150008295807F682F690F8AE294E00E94C20F07
:102160008AE294E00E94F60F882329F01092FF0380
:1021700080E0CF91089581E08093FF0388E60E947C
:102180007C0560E08AE294E00E94C20F8091F8032F
:102190006C2F0E9441368295807F682F690F8AE2FA
:1021A00094E00E94C20F8AE294E00E94F60F81112F
:1021B000DDCF81E0DECFBF92CF92DF92EF92FF9230
:1021C0000F931F93CF93DF938C017B01E40EF51ED9
:1021D000EB01B99068018FEFC81AD80A80919E046C
:1021E0000E947C05812F90E00E94F10FC801992781
:1021F0000E94F10F6B2D8AE294E00E94C20F8AE2E6
:1022000094E00E94F60F6AE070E080E090E00E94A7
:102210002D08BE018601CE15DF05D1F6DF91CF91E5
:102220001F910F91FF90EF90DF90CF90BF90089596
:102230000F931F93CF93DF93EC01EC81FD816E1719
:102240007F070CF073C0DA01A20FB31F57FF03C062
:102250009D0150E040E08E819F818A179B071CF40E
:102260009C01241B350B121613060CF05FC0922F35
:10227000842F8695869586958E9FD0018F9FB00D71
:102280001124A60FB71F6F8D78A1A60FB71F477037
:1022900059F188E0841B482F682F70E0FB01E0595A
:1022A000FF4FE491281708F065C0621B71092FEFFA
:1022B00030E002C0359527956A95E2F7E2230130B8
:1022C000110549F001151105B1F10230110571F543
:1022D0008C91E82702C08C91E82BEC93941730F195
:1022E0002C813D81A20FB31FE92FE41BE83078F069
:1022F0000230110521F58E2F9C9190959C932C8195
:102300003D81A20FB31F88508830B0F7E770EE23ED
:1023100069F0F0E0E859FF4FE49101301105F9F060
:102320000115110501F10230110509F1DF91CF917D
:102330001F910F910895E0958C91E823CECF81E015
:102340000115110509F480E081959E2F8C932C8155
:102350003D81A20FB31F98509830C0F7D7CF8C9112
:10236000E82BEC93E3CFE0958C91E823FACF8C91A6
:10237000E827F7CF0130110509F4ADCF011511059C
:10238000D1F20230110509F4A3CFAACF0F931F9306
:10239000CF93DF93FB01E20FF31F77FF03C09F0191
:1023A00070E060E0DC011496CD91DC91CE17DF0780
:1023B0001CF49E01261B370B121613065CF5FA015E
:1023C00057FD3796A3E0F595E795AA95E1F7EC9FC1
:1023D000D001ED9FB00DFC9FB00D11246A0F7B1F43
:1023E000DC015F96ED91FC91E60FF71F47705527D2
:1023F00081E090E001C0880F4A95EAF7482F01304C
:10240000110569F001151105A9F02E0F3F1F0230CB
:102410001105E1F0DF91CF911F910F9108952E0FDB
:102420003F1FE217F307B1F3DF018D91842B808307
:10243000FD01F7CF80952E0F3F1F2E173F0751F359
:10244000DF019D9198239083FD01F7CFE217F307F9
:1024500009F3DF018D9184278083FD01F7CF0F936E
:102460001F93FA01DC0156964C9156974230E9F0E1
:102470004330A1F1413061F514964D915C91DA0140
:10248000AE1BBF0BFD01E21BF30B77FD0BC0DC01A4
:1024900016964D915C916417750724F4AB01BF014A
:1024A0000E94C6111F910F91089514964D915C9151
:1024B000DA01A61BB70BBD0161507109DC0116964C
:1024C0004D915C91DA01AE1BBF0BFD01E21BF30BDA
:1024D00077FDE8CFAF010E941811E4CF16964D9119
:1024E0005C91DA01A61BB70BBD0161507109CDCF1C
:1024F0000F931F93FA01DC0156964C915697423088
:10250000A9F0433091F1413019F514964D915C9149
:10251000DA01AE1BBF0BFD013197F7FD04C0AB0123
:10252000BF010E9418111F910F91089514964D91AB
:102530005C91DA01A61BB70BBD01DC0116964D912B
:102540005C91DA01AE1BBF0BFD013197621B730B6F
:10255000F7FDE9CFDC0116964D915C91E417F50784
:1025600014F7AF010E94C611DECF16964D915C9113
:10257000DA01A61BB70BBD01621B730BCECFFC01AA
:1025800077FD66C080859185681779070CF060C07B
:1025900057FD5EC082859385481759070CF058C0D7
:1025A00086898230C1F0833039F1813041F48481F1
:1025B0009581841B950BAB01BC01615071092130E1
:1025C000310519F12115310509F443C022303105D7
:1025D00009F463C0089584819581DC01A61BB70BC3
:1025E000BD016150710986819781DC01A41BB50B87
:1025F000AD0141505109E3CF86819781861B970B2E
:10260000BA01AC0141505109DACFCA0157FD079612
:10261000A3E095958795AA95E1F7A481B5818A9F56
:1026200090018B9F300D9A9F300D1124620F731F04
:10263000078CF0A1E02DE60FF71F4770552721E02A
:1026400030E001C0220F4A95EAF78081822B808317
:102650000895CA0157FD079633E0959587953A95F9
:10266000E1F7A481B5818A9F90018B9F300D9A9FDD
:10267000300D1124620F731F078CF0A1E02DE60FBF
:10268000F71F4770552781E090E001C0880F4A95F9
:10269000EAF7809590818923DACFCA0157FD079622
:1026A00023E0959587952A95E1F7A481B5818A9FC6
:1026B00090018B9F300D9A9F300D1124620F731F74
:1026C000078CF0A1E02DE60FF71F4770552721E09A
:1026D00030E001C0220F4A95EAF780818227B7CF08
:1026E00008958EBD00000DB407FEFDCF8EB5089590
:1026F000FF920F931F93CF93DF93F82ED92FC62FFE
:102700008091530490915404892B09F447C080911F
:1027100057040E947C058091530490915404DC017D
:10272000ED91FC910190F081E02D60E009950F2D75
:102730001D2FD1E0C1508091530490915404CF3F9C
:1027400031F1D03298F00E94F60F809157040E9428
:102750007C058091530490915404DC01ED91FC912F
:102760000190F081E02D60E00995D1E08091530463
:1027700090915404F8016491DC01ED91FC91019079
:10278000F081E02D0995DF5F0F5F1F4FD3CFDF9101
:10279000CF911F910F91FF900C94F60FE09163047D
:1027A000F0916404908180916904809589238083ED
:1027B0000F2D1D2FC15008F438C0F80184912091CD
:1027C000510430915204232B29F00E9471130F5FA2
:1027D0001F4FF0CF28E030E040E8E0915F04F09137
:1027E000600490916704582F5423D9F05081952BA1
:1027F0009083E0916104F0916204908150916804AB
:10280000952B9083E0916104F09162045081909146
:102810006804909595239083469521503109E9F6F7
:10282000D6CF508190959523E3CFDF91CF911F9123
:102830000F91FF9008951F93CF93DF93EC01162F14
:102840008D8D9E8D892BF1F089A10E947C058D8D47
:102850009E8DDC01ED91FC910190F081E02D60E016
:1028600009958D8D9E8DDC01ED91FC910190F0819B
:10287000E02D612F09958D8D9E8DDF91CF911F9158
:102880000C94F60FEDA5FEA590818BA98095892368
:1028900080838B8D9C8D892B31F0862FDF91CF919A
:1028A0001F910C94711328E030E090E8E9A5FAA597
:1028B00089A9412F4923C1F04081842B8083EBA556
:1028C000FCA580814AA9842B8083EBA5FCA54081CF
:1028D0008AA980958423808396952150310931F708
:1028E000DF91CF911F910895408180958423E6CF99
:1028F0008CBD9DBD0895FF920F931F93CF93DF93DF
:102900008091530490915404892B09F472C082E0A1
:102910008093B80065E088E69AE00E9478136091A1
:102920003A04615086E394E00E941B1420913C0419
:1029300030913D04C901079697FD079623E09595D0
:1029400087952A95E1F720913A0430913B04829FC4
:102950008001839F100D929F100D1124C09155048A
:10296000D091560480915304909154040C0F1D1F74
:10297000892B09F47CC0809157040E947C058091CA
:10298000530490915404DC01ED91FC910190F0818D
:10299000E02D60E40995FF24F39480915304909115
:1029A0005404C017D107E1F1BFE1BF15A0F40E94A4
:1029B000F60F809157040E947C05809153049091FA
:1029C0005404DC01ED91FC910190F081E02D60E474
:1029D0000995FF24F3948091530490915404DC01F1
:1029E000ED91FC910190F081E02D69910995F394AE
:1029F000D4CF8091510490915204892B31F0809171
:102A00006B0490916C040E947814E0916504F0913D
:102A10006604908180916A048095892380837ACFAF
:102A20000E94F60F8091530490915404892B09F46D
:102A30005FC020916D0430916E0440916F045091FD
:102A4000700460E072E18AE790E00E946A382051E9
:102A50003109410951095695479537952795209396
:102A6000B800DF91CF911F910F91FF900895E091F1
:102A70006304F0916404808190916904892B8083C0
:102A80000C171D0779F2899120915104309152045D
:102A9000232B19F00E947113F3CF28E030E040E8B7
:102AA000E0915F04F091600490916704582F5423E3
:102AB000D9F05081952B9083E0916104F0916204EC
:102AC000908150916804952B9083E0916104F0917E
:102AD0006204508190916804909595239083469567
:102AE00021503109E9F6CCCF508190959523E3CF61
:102AF000E0916504F0916604808190916A04892BCD
:102B00008083AFCF1F93CF93DF93EC01162F8D8D72
:102B10009E8D892B29F182E08093B80066EA11111D
:102B200067EACE010E941B148D8D9E8D892B41F189
:102B30002FA938AD49AD5AAD60E072E18AE790E067
:102B40000E946A382051310941095109569547952B
:102B5000379527952093B800DF91CF911F91089565
:102B60008B8D9C8D892B21F08DA99EA90E947814B4
:102B7000EFA5F8A990818CA9809589238083CECF79
:102B8000EFA5F8A980819CA9892B8083E5CF0895C2
:102B900090E080E008958093BB0084E88093BC00BF
:102BA0008091BC0087FFFCCF9091B900987F81E0B5
:102BB000983231F0983129F0903419F080E008957E
:102BC0000895089584EA8093BC008091BC0087FF3B
:102BD000FCCF8091B900887F19F080EC0C94CB1564
:102BE00080E008955F926F927F928F929F92AF9252
:102BF000BF92CF92DF92EF92FF920F931F93CF93EA
:102C0000DF93CDB7DEB7582E742E652EB62E922EDA
:102C10000E94E215852D0E94CB158D2D0E94CB15AB
:102C20008C2D0E94CB158B2D83708A2990E081100A
:102C30009CE0892B0E94CB15862D0E94CB15872DF9
:102C40000E94CB158CE0F694E794D794C7948A95AC
:102C5000D1F78C2D807FC82E892D8F708C290E94F2
:102C6000CB15812F0E94CB15802F0E94CB1584E9B4
:102C70008093BC008091BC0084FDFCCFDF91CF919C
:102C80001F910F91FF90EF90DF90CF90BF90AF908A
:102C90009F908F907F906F905F9008954F925F927A
:102CA0006F927F928F929F92AF92BF92CF92DF925C
:102CB000EF92FF920F931F93CF93C82FC09095046C
:102CC000D0909604E0909704F0909804CB01BA015C
:102CD000A70196010E946A3849015A0125E0F6943D
:102CE000E794D794C7942A95D1F735E096958795C0
:102CF000779567953A95D1F747E0660F771F881F5C
:102D0000991F4A95D1F7A70196010E946A382901B7
:102D10003A018B019C01B501A4015527662777274D
:102D2000E7E0440F551F661F771FEA95D1F7525011
:102D300061097109440D551D661D771D812CA12C5B
:102D40008C2F0E94F215CF911F910F91FF90EF9061
:102D5000DF90CF90BF90AF909F908F907F906F90BB
:102D60005F904F9008958F92AF92CF92DF92EF9243
:102D7000FF920F931F93882483944430510561057B
:102D8000710509F0812C4450510961097E4F97E08B
:102D9000440F551F661F771F9A95D1F7A22EC12C9D
:102DA000D12C7601C39400E010E098010E94F21546
:102DB0001F910F91FF90EF90DF90CF90AF908F9089
:102DC0000895CF93DF93D82FC62F0E94E2158D2F41
:102DD0000E94CB158C2F0E94CB1584E98093BC00F8
:102DE0008091BC0084FDFCCFDF91CF910895CF93FB
:102DF000C82F60E880E18C0F0E94E116EC2FF0E014
:102E0000EE0FFF1FE358FB4F11821082CF91089500
:102E10004F925F926F927F92AF92BF92CF92DF926A
:102E2000EF92FF920F931F93CF93DF93D82F082F2A
:102E300010E0F801EE0FFF1FEE0FFF1FE757FB4FEB
:102E40004080518062807380411451046104710498
:102E500089F48D2FDF91CF911F910F91FF90EF900B
:102E6000DF90CF90BF90AF907F906F905F904F902A
:102E70000C94F7165801AA0CBB1CF501E358FB4F44
:102E8000C080D180F12CE12C03581B4FF801C68182
:102E9000A3019201C701B6010E9431369B01AC012A
:102EA000EC2FF0E0EA5AFE4FA081B0E00E945F38BC
:102EB0009B01AC0120583447424D5A412130334ADE
:102EC000414E514108F43FC0609135017091360187
:102ED0008091370190913801A30192010E946A38D4
:102EE00069017A0184E0C816D104E104F10408F410
:102EF000B0CFE6E0CE16D104E104F10408F470C0CE
:102F0000C0E0FDE2CF16F1E0DF06E104F10430F0AD
:102F1000CF5FF694E794D794C794F3CFC11103C061
:102F2000E894C0F8C0E0A3019201C701B6010E9475
:102F300031369B01AC01EC2FF0E0EA5AFE4FA08144
:102F4000B0E00E945F382AE1D11122E2AB01BC015E
:102F5000822F0E944E16F501E358FB4F808191812C
:102F6000B0E0A0E08C159D05AE05BF0521F4F80189
:102F700086818C1731F12C2F2295207FB701A60175
:102F80008D2F880F880F880F865D0E94B316F80179
:102F9000618580E0D11180E2682B6C6480E18D0F47
:102FA0000E94E116F501E358FB4FD182C082F8017F
:102FB000C68380919D0490E2D11190E8892B809383
:102FC0009D04DF91CF911F910F91FF90EF90DF90C3
:102FD000CF90BF90AF907F906F905F904F9008958B
:102FE00084E0C82ED12CE12CF12C9ACF2F923F9265
:102FF0004F925F926F927F928F929F92AF92BF9209
:10300000CF92DF92EF92FF920F931F93CF93DF93B4
:1030100000D000D00F92CDB7DEB749015A01270189
:10302000380110929D04C0908D04D0908E04E090E1
:103030008F04F09090040091890410918A042091EB
:103040008B0430918C04061717072807390759F0AD
:103050006093890470938A0480938B0490938C040A
:1030600080E00E940817C814D904EA04FB0471F434
:103070008091910490919204A0919304B091940452
:1030800084159505A605B70509F403C180928D0442
:1030900090928E04A0928F04B0929004409291047A
:1030A000509292046092930470929404811491045B
:1030B000A104B10419F481E00E94F71680919104F3
:1030C00090919204A0919304B0919404892B8A2B3F
:1030D0008B2B19F482E00E94F71640908D045090DB
:1030E0008E0460908F047090900441145104610428
:1030F000710409F473C1C814D904EA04FB0409F487
:10310000A5C0C0907F04D0908004F12CE12C2091C8
:1031100084042983A3019201C701B6010E943136BC
:103120009B01AC018981E82FF0E0EA5AFE4FA081B3
:10313000B0E00E945F384B015C01DC01CB0180589C
:103140009447A24DBA418130934AA14EB14108F44F
:1031500046C06091350170913601809137019091A0
:103160003801A30192010E946A3869017A0181E065
:1031700044E0C416D104E104F10408F488C086E0F8
:10318000C816D104E104F10408F4A4C019829DE238
:10319000C91691E0D906E104F10440F029812F5FBE
:1031A0002983F694E794D794C794F1CF49814111CC
:1031B00003C0E894C0F81982A3019201C701B601C7
:1031C0000E9431369B01AC018981E82FF0E0EA5A78
:1031D000FE4FA081B0E00E945F384B015C01B50159
:1031E000A40182E20E944E1680917F049091800497
:1031F000B0E0A0E08C159D05AE05BF0529F48091D7
:10320000840499818917D1F029812295207FB70103
:10321000A60182E30E94B316609187046C6681E187
:103220000E94E116D0928004C0927F0429812093ED
:10323000840480919D04806880939D048092990409
:1032400090929A04A0929B04B0929C04C090910426
:10325000D0909204E0909304F0909404C114D104AF
:10326000E104F104B1F08090990490909A04A09048
:103270009B04B0909C04C501B401A70196010E9473
:103280006A38283031054105510550F582E00E9429
:10329000F71660919D04662319F081EB0E94E116F8
:1032A00080919D040F900F900F900F900F90DF91E1
:1032B000CF911F910F91FF90EF90DF90CF90BF9033
:1032C000AF909F908F907F906F905F904F903F90C6
:1032D0002F90089504E0C02ED12CE12CF12C69CF61
:1032E0001D82213431054105510560F08D818F5FCC
:1032F0008D83CC0CDD1CEE1CFF1C56954795379535
:103300002795EFCFC501B401A70196010E946A3845
:1033100029833A834B835C832FEF3FEF4FE050E0EC
:103320000E94753656016701E12CF12C00E010E097
:103330000E94A23629013A019D819295907F9D833A
:10334000C12CD12C7601C394411451046104710441
:1033500031F0CC24CA94DC2CFFE0EF2EF12CC30119
:10336000B20127E0660F771F881F991F2A95D1F7B2
:10337000A70196010E946A3849015A018B019C01FC
:1033800049815A816B817C81552766277727E7E041
:10339000440F551F661F771FEA95D1F752506109F8
:1033A0007109480D591D6A1D7B1D812CAD808AE372
:1033B0000E94F2156CE445284628472809F06CE085
:1033C00080918804682B606282E10E94E11681E0AE
:1033D00090E090938204809381045BCF809091046D
:1033E00090909204A0909304B0909404811491045E
:1033F000A104B10409F44DCFC0908104D09082049F
:10340000F12CE12C209185042983A5019401C701A9
:10341000B6010E9431369B01AC018981E82FF0E0B2
:10342000EA5AFE4FA081B0E00E945F388B019C01F8
:1034300000581447224D3A410130134A214E314180
:1034400008F443C0609135017091360180913701D5
:1034500090913801A50194010E946A3869017A01AE
:1034600084E0C816D104E104F10408F40FCF96E01B
:10347000C916D104E104F10408F458C019822DE200
:10348000C21621E0D206E104F10440F049814F5F09
:103490004983F694E794D794C794F1CF8981811139
:1034A00003C0E894C0F81982A5019401C701B601D0
:1034B0000E9431369B01AC019981E92FF0E0EA5A74
:1034C000FE4FA081B0E00E945F38AB01BC0182E2F8
:1034D0000E944E168091810490918204B0E0A0E099
:1034E0008C159D05AE05BF0531F4809185042981B9
:1034F000821709F4CECE29812295207FB701A6013B
:103500008AE30E94B316609188046C6682E10E948F
:10351000E116D0928204C0928104498140938504CF
:1035200080919D04806880939D04B3CE84E0C82E72
:10353000D12CE12CF12CB5CF0F931F938091170361
:1035400081111DC0A0913001B0E020EA36E841E0D1
:1035500050E00E945F3800910B0110910C01209106
:103560000D0130910E01601771078207930718F55E
:1035700061E08BE00E944D0681E080931703A091EB
:103580003001B0E020EA36E841E050E00E945F38C8
:1035900000910B0110910C0120910D0130910E0151
:1035A000061717072807390730F460E08BE00E9400
:1035B0004D06109217031F910F910895FF920F93DC
:1035C0001F93CF93DF9300D0CDB7DEB7E4E1F1E0F6
:1035D00010E000E08191080F111D81E0E533F8074C
:1035E000C9F741E250E064E171E082E090E00E94BE
:1035F000DB100D5F1F4F1A83098342E050E0BE01CC
:103600006F5F7F4F90E080E00E94DB10EAE0F1E026
:1036100081E191E010E000E02191020F111D8E1771
:103620009F07D1F78091150199E0F92E8F9DC00178
:10363000112447E050E06AE071E085960E94DB10BB
:103640000D5F1F4F1A830983809115018F9DC00163
:10365000112442E050E0BE016F5F7F4F83960E94CD
:10366000DB100F900F90DF91CF911F910F91FF9082
:10367000089580912A0190912B01092E000CAA0B2C
:10368000BB0B80549340A446BE4F80939504909307
:103690009604A0939704B093980480E00E940817C2
:1036A00082E00C9408178F929F92AF92BF92CF92B4
:1036B000DF92EF92FF920F931F93CF93C0919103EC
:1036C000CC2309F454C020910A0180910B01909100
:1036D0000C01A0910D01B0910E0140912801509173
:1036E0002901052E000C660B770B309190033323D4
:1036F00009F4A3C0809032010AE0809E6001112489
:103700000D2C000CEE08FF08222309F472C0009172
:103710001C0110911D0120911E0130911F014801D3
:103720005901E0E28E0EE1EA9E1EE7E0AE1EB11CFA
:10373000840E951EA61EB71E8C189D08AE08BF08E5
:10374000800F911FA21FB31F8C019D01005E1E45BB
:10375000284F3F4FCB01BA01600F711F821F931F8B
:10376000E12CF12C8701A50194010E94F6178091AC
:103770009303882309F4AFC080910B0190910C0151
:10378000A0910D01B0910E01809028019090290127
:10379000092C000CAA08BB0840910A01442309F433
:1037A0007EC0E0901C01F0901D0100911E0110915F
:1037B0001F018E0D9F1DA01FB11FBC01CD01605EBA
:1037C0007E45884F9F4F680D791D8A1D9B1D20E007
:1037D00030E0A9010E94F617CF911F910F91FF9041
:1037E000EF90DF90CF90BF90AF909F908F900C9410
:1037F0009C1A0091240110912501209126013091FD
:10380000270148015901E0E28E1AE1EA9E0AE7E049
:10381000AE0AB108840E951EA61EB71E8C0C9D1C08
:10382000AE1CBF1C800F911FA21FB31F8C019D01F6
:103830000052114A274031098DCF2223F9F000911F
:103840001C0110911D0120911E0130911F01800F5C
:10385000911FA21FB31F805E9E45A84FBF4F8C01D2
:103860009D01040F151F261F371FC901B801E12C48
:10387000F12C870120E030E0A90177CF00912401ED
:10388000109125012091260130912701800F911F71
:10389000A21FB31F8052914AA740B109E0CFE09028
:1038A0002401F090250100912601109127018E0D31
:1038B0009F1DA01FB11FBC01CD016052714A8740FE
:1038C000910981CFE0902001F09021010091220127
:1038D00010912301ECCFC1117FCF80910B0190910A
:1038E0000C01A0910D01B0910E01809028019090E3
:1038F0002901092C000CAA08BB0840910A014423A5
:1039000009F3E0901801F090190100911A0110914B
:103910001B014FCFCF93DF9380910E0390910F0344
:1039200027E0289FE001299FD00D112485E10E9406
:103930006C08DE01A80FB91FAA0FBB1F94E0B69553
:10394000A7959A95E1F7B0930F03A0930E032091EA
:103950002C0130E00E948C382FEF33E040E050E043
:103960000E94403820931503DF91CF910895CF93A3
:10397000DF938FE00E946C088091130390911403F1
:10398000EC01CC0FDD1FC80FD91F8FE00E946C081F
:103990002196C80FD91FCC0FDD1FCC0FDD1F44E0CF
:1039A000D695C7954A95E1F7D0931403C0931303B6
:1039B0008091110390911203EC01CC0FDD1FC80F11
:1039C000D91F80E10E946C082196C80FD91FCC0F27
:1039D000DD1FCC0FDD1F74E0D695C7957A95E1F712
:1039E000D0931203C0931103DF91CF910895DC01AE
:1039F000ED91FD918081ED91FD919081ED91FD9191
:103A00006C9163708E2309F064609F2309F06860F5
:103A1000E4E1FDE1E60FF11D659565956D936D910E
:103A20007D918D919D91099423C01AC012C016C03A
:103A300010C01EC009C014C013C006C019C009C000
:103A40000DC007C00DC014C062507040804090404F
:103A50000BC0615070408040904006C06E5F01C056
:103A60006F5F7F4F8F4F9F4F9E938E937E936E938A
:103A700008950F931F93CF93DF93809109038823B9
:103A800059F01092F8030E94521010920903DF912E
:103A9000CF911F910F9108950E946008009100033B
:103AA000109101032091020330910303601B710BFD
:103AB000820B930B693E73408105910520F4012B25
:103AC000022B032B21F70E94600860930003709380
:103AD0000103809302039093030388E60E947C0510
:103AE00060E08AE294E00E94C20F8AE294E00E94C1
:103AF000F60F882319F01092FF03C9CF81E080935D
:103B0000FF0367E088E60E9486051092AF0380936A
:103B1000AE03873008F461C08AE294E00E94820F0D
:103B2000D82F982F92959770CAE08D2F8F709C9FF9
:103B3000800D11248093F8038AE294E00E94820FA2
:103B4000982F92959F708F709C9F800D1124809369
:103B5000F9038AE294E00E94820F982F9295937065
:103B60008F709C9F800D11248093FA038AE294E069
:103B70000E94820F982F92959F708F709C9F800D4E
:103B800011248093FB038AE294E00E94820F982F15
:103B900092959F708F709C9F800D11248093FC03E1
:103BA0008AE294E00E94820F982F92959F708F7006
:103BB0009C9F800D11248093FD038AE294E00E9473
:103BC000820F982F9F70925E82958F708C9F900DC0
:103BD00011249093FE03D7FF5ACF1092FA0310924C
:103BE000F9031092F803DF91CF911F910F910C947C
:103BF0005210CF93DF93EC0180919E040E947C05CC
:103C00008D2F90E00E94F10FCE0199270E94F10FB5
:103C10008AE294E00E94F60F61E080919E040E9487
:103C200086051092AF038093AE03882321F08AE2C9
:103C300094E00E94820FDF91CF910895EF92FF925E
:103C40000F931F93CF93DF938B01040F151F7C01FC
:103C50002FEFE21AF20AEB010E94F91D8993C701C6
:103C6000BE010C171D0799F7DF91CF911F910F919E
:103C7000FF90EF900895DF92EF92FF920F931F93C2
:103C8000CF93DF9300D0CDB7DEB71A82198280912F
:103C9000150129E0829FC001112442E050E0BE01DD
:103CA0006F5F7F4F83960E941E1EF12CE12C10E067
:103CB00000E089E0D82E8091150197018D9D200D9F
:103CC000311D1124C90185960E94F91D080F111D8F
:103CD0003FEFE31AF30A87E0E816F10461F70D5F9E
:103CE0001F4F89819A8108171907B1F48091150136
:103CF0008D9DC001112447E050E06AE071E0859697
:103D00000E941E1E0F900F90DF91CF911F910F9177
:103D1000FF90EF90DF9008950E94DE1AF3CFFF929C
:103D20000F931F93CF93DF93FC010081C181D28158
:103D3000F8948981F02EF0948F21898378941DE77F
:103D4000115009F188818023D9F3F8948A818F2159
:103D50008A838981802B8983789480EE91E00E9408
:103D60000208F89489818F21898386E490E00E947B
:103D700002088881082311E009F010E078948AE9AC
:103D800091E00E940208812FDF91CF911F910F9146
:103D9000FF900895AF92BF92CF92DF92EF92FF9281
:103DA0000F931F93CF93DF938B01BC0180910E047F
:103DB00090910F040E942E0940E06EEB80910E045A
:103DC00090910F040E94FA08E801680189E0C80E8A
:103DD000D11CA0900E04B0900F0488E0E82EF12CC6
:103DE00010E001E0C5010E949C088111102B000F1A
:103DF00081E0E81AF108B1F71993CC16DD0649F70E
:103E000080910E0490910F040E948F1E91E08130EA
:103E100009F090E0892FDF91CF911F910F91FF90D2
:103E2000EF90DF90CF90BF90AF900895BF92CF9268
:103E3000DF92EF92FF920F931F93CF93DF93EC01EA
:103E4000B62EC72E8D85811105C0CE010E948F1E12
:103E500081110EC01B861D861C8680E0DF91CF91EC
:103E60001F910F91FF90EF90DF90CF90BF9008953A
:103E700040E060EFCE010E94FA0801E0E12CD12C75
:103E800011E0CE010E949C08F82ECE010E949C08F1
:103E900091E0F91218C0813099F51134D8F2DB861F
:103EA000D11002C081E08D878B81882399F22396FF
:103EB000EB2DFC2DCF01089629912193E817F907E6
:103EC000D9F781E0CBCF2E2D30E0F8120EC08B85D4
:103ED0001817A0F4FE01E20FF31F8381802381F401
:103EE000F12C193008F41C87D12EFE01E20FF31FCC
:103EF0008381902F9095892383830AC08113F0CF0B
:103F0000FE01EE0DF11D8381802B8383FF24F3944A
:103F10006F2DCE010E94C7081F5F000F11F4E394BC
:103F200001E087E08E1508F0ACCFB7CF0F931F9359
:103F3000CF93DF93CDB7DEB729970FB6F894DEBFE6
:103F40000FBECDBF8C01FC018081803181F1809159
:103F50000E0490910F040E948F1E81110CC080E00E
:103F600029960FB6F894DEBF0FBECDBFDF91CF917B
:103F70001F910F910895BE016F5F7F4FC8010E948E
:103F8000CA1E882361F368E0CE0101960E9484086E
:103F900099858913E4CF8D818F3359F020F48F31C7
:103FA000F1F689E0DDCF8F3531F08F37C1F68CE047
:103FB000D7CF8AE0D5CF8BE0D3CF4F925F926F926D
:103FC0007F928F929F92AF92BF92CF92DF92EF92A9
:103FD000FF920F931F93CF93DF93CDB7DEB7619717
:103FE0000FB6F894DEBF0FBECDBF0E946008C09030
:103FF0000503D0900603E0900703F09008036C19C6
:104000007D098E099F09693873418105910508F47E
:1040100058C080910403811154C010920A04809109
:104020000E0490910F040E948F1E40E06CEC809172
:104030000E0490910F040E94FA084091080464E471
:1040400080910E0490910F040E94FA0880910A0456
:10405000882391F1E0910904E9500EEE12E0E3307B
:1040600038F4F0E0EE0FFF1FEE5BFE4F0081118190
:1040700080910B04882309F481C080910804811188
:104080007DC00E9460084B015C012801110F660889
:10409000770880910E0490910F040E949C08813053
:1040A00059F00E9460086419750986099709681516
:1040B00079058A059B0568F381E080930A04809363
:1040C00004030E9460086C197D098E099F09613400
:1040D0007F4181059105D8F1809104038823B9F1CE
:1040E000E0910E04F0910F04138615861486128653
:1040F0001186108617821682158214821382BE01E1
:10410000665F7F4F80910E0490910F040E94161FEE
:1041100081113BC060E070E08EEF92EC20E030E077
:1041200040E05FE30E949C380E94083980912F0193
:10413000680F609310030E946008609305037093FA
:10414000060380930703909308031092040361967B
:104150000FB6F894DEBF0FBECDBFDF91CF911F9198
:104160000F91FF90EF90DF90CF90BF90AF909F9016
:104170008F907F906F905F904F900895B801110FCE
:10418000880B990B0E942D0897CF67E0CE010A9605
:104190000E94840899898913BDCF80910E04909163
:1041A0000F040E948F1E882309F4B4CFBE016F5FF5
:1041B0007F4FCE010A960E94CA1E882309F4AACF17
:1041C00068E0CE0101960E94840899858913A2CFE8
:1041D0006A8170E0762F6627770F770F770F298136
:1041E00058E0259F90011124262B372B8A8580319A
:1041F000D1F4688570E08F81AB01481B5109CA0179
:104200009695982F8827979587950E946136CB01C0
:104210004097B90153E0660F771F5A95E1F7607830
:104220009C01260F371F213854EE35070CF472CF4E
:10423000B901330F880B990B0E94403920E030E020
:1042400040E05CE30E94CC3969CF809191038823E0
:10425000A9F18091900381110CC0809116038823ED
:1042600089F1809180008F7C8093800010921603EA
:1042700029C080911603811125C08091A903811165
:1042800021C02091320184E1289F90011124032E46
:10429000000C440B550B60E472E48FE090E00E9448
:1042A0006A38CA01B9010E94CA05809180008F7CDA
:1042B00080618093800081E0809316038091900359
:1042C000882359F20895009769F0FC0101900020BD
:1042D000E9F73197AF01481B590BBC0186E394E025
:1042E0000C94D90790E080E00895CF93DF930E946B
:1042F0006321EC018CE991E00E9463218C0F9D1FEA
:10430000DF91CF9108950C9463218F929F92AF9289
:10431000BF92CF92DF92EF92FF920F931F93CF93B2
:10432000DF93CDB7DEB7A1970FB6F894DEBF0FBE0F
:10433000CDBF6B017C0119A2423008F44AE08E0126
:104340000F5D1F4F842E912CB12CA12CC701B601FB
:10435000A50194010E946A386A3014F5605DF80185
:1043600062938F01C814D904EA04FB04B0F4CF01AE
:104370000E946321A1960FB6F894DEBF0FBECDBF99
:10438000DF91CF911F910F91FF90EF90DF90CF9031
:10439000BF90AF909F908F90089569017A01D6CF1A
:1043A000695CDDCF682F70E090E080E04AE00C941B
:1043B0008521CF92DF92EF92FF92CF93DF936C0132
:1043C000990FEE08FF08F7FE17C08DE20E945C0C03
:1043D000EC0166277727CB016C197D098E099F09AF
:1043E0004AE00E9485218C0F9D1FDF91CF91FF90A5
:1043F000EF90DF90CF9008954AE0C701B601DF91BA
:10440000CF91FF90EF90DF90CF900C948521CF93C8
:10441000DF934AE00E948521EC018CE991E00E9443
:1044200063218C0F9D1FDF91CF910895CF93DF9370
:104430000E94D921EC018CE991E00E9463218C0F4C
:104440009D1FDF91CF910895CF93DF930E94D221DA
:10445000EC018CE991E00E9463218C0F9D1FDF919C
:10446000CF91089520913C0430913D04C9010796F5
:1044700097FD079623E0959587952A95E1F720917A
:104480003A0430913B04829FA001839F500D929F7C
:10449000500D112470E060E0809155049091560415
:1044A0000C9439388F929F92AF92BF92EF92FF9205
:1044B0000F931F93CF930E943222109243041092C5
:1044C0004204109245041092440481E090E09093DD
:1044D000490480934804909347048093460483E002
:1044E00080934A0480934B04C091A903CB3109F413
:1044F00069C308F074C0C53109F414C3A8F5C2300B
:1045000009F4DAC288F4CC2309F4ECC0C13009F410
:10451000C0C2CF911F910F91FF90EF90BF90AF90CD
:104520009F908F900C947B14C33009F4E2C2C43185
:1045300081F780910F0124E6829FC00111240E941F
:10454000162281E080934A0480934B048091A90352
:104550000E94D22188EE91E00E94832180EF0E9488
:104560005C0C84EF91E0C2C2C83109F4FFC2E8F4E8
:10457000C63109F4EBC2C73161F68091FA038A3083
:1045800020F48FE991E00E9483218091FA030E9438
:10459000242281E080934A0480934B048091A903F4
:1045A0000E94D22181E192E0A1C2C93109F4F6C290
:1045B000CA3109F0AECF809132012AE0829FC0015A
:1045C00011240E94162281E080934A0480934B04B8
:1045D0008091A9030E94D2218EE292E087C2C83660
:1045E00009F469C3F0F5C53609F416C3D8F4CC3123
:1045F00009F4F8C2C43609F08CCF809117018823E2
:1046000009F407C38AE492E00E94752181E0809357
:104610004A0480934B048091A9030E94D2218FE524
:1046200092E07AC2C63609F429C3C73609F071CFC1
:1046300080912A0190912B010E94162281E08093A3
:104640004A0480934B048091A9030E94D22181E8FF
:1046500092E00E94832180EF0E945C0C88E392E04C
:1046600045C2CB3609F45DC308F5C93609F43EC32B
:10467000CA3609F04ECF82E080934A0480934B04FF
:10468000609118017091190180911A0190911B019C
:104690000E94072281E080934A0480934B0480911A
:1046A000A9030E94D22185EA92E0D3CFCD3609F446
:1046B00065C308F451C3CE3609F02BCF8091300189
:1046C00024E6829FC00111240E94162281E080937B
:1046D0004A0480934B048091A9030E94D22187ED64
:1046E00092E03ACF80910B0190910C01A0910D01C5
:1046F000B0910E0180389649A849B10520F48FE7A2
:1047000092E00E94832160910B0170910C018091D5
:104710000D0190910E01E0E48E2EE2E49E2EEFE07A
:10472000AE2EB12CA50194010E946A38CA01B901CC
:104730004AE00E94852180914204909143040596AD
:10474000909343048093420460910B0170910C019B
:1047500080910D0190910E01A50194010E946A388B
:10476000603A76488140910520F48FE991E00E94FB
:10477000832160910B0170910C0180910D0190914A
:104780000E0120E432E44FE050E00E946A386031CC
:1047900077428105910520F48FE991E00E94832101
:1047A00060910B0170910C0180910D0190910E01AF
:1047B00020E432E44FE050E00E946A3858EE852E43
:1047C00053E0952EA12CB12CA50194010E946A38CA
:1047D000CA01B9014AE00E94852182E080934A041F
:1047E00080934B04809142049091430405969093EA
:1047F00043048093420487E090E0909345048093C3
:10480000440460910B0170910C0180910D01909115
:104810000E01A50194010E946A3864367105810574
:10482000910520F48FE991E00E94832160910B01B2
:1048300070910C0180910D0190910E0128EE33E0F2
:1048400040E050E00E946A382AE030E040E050E06A
:104850000E946A38CA01B9010E94072281E0809350
:104860004A0480934B0480911503843620F48FE72B
:1048700092E00E94832180911503CAE06C2F0E9470
:10488000413690E00E94D92181EA91E00E94832183
:10489000809115036C2F0E944136892F90E00E9471
:1048A000D92183EA91E00E9483218091A803882383
:1048B00009F48BC0609113037091140320911103CC
:1048C000309112036217730709F43FC0CB01820FC6
:1048D000931F621B730B0E944D366A30710520F4E2
:1048E0008FE792E00E94832160911303709114037B
:1048F0002091110330911203CB01820F931F621B91
:10490000730B0E944D3690E080E04AE00E948521C2
:1049100081EA91E00E948321609113037091140356
:104920002091110330911203CB01820F931F621B60
:10493000730B0E944D366AE070E00E944D36BC0158
:1049400090E080E04AE00E9485212091130330919D
:10495000140350E040E02150310941095109A4E617
:10496000B0E00E945F382EEF822E23E0922EA12C21
:10497000B12CA50194010E944038EE24E394F12C5F
:1049800004E010E047E150E060E470E086E394E08A
:104990000E944A0D209111033091120350E040E033
:1049A0002150310941095109A4E6B0E00E945F3865
:1049B000A50194010E9440384CE150E060E470E0B1
:1049C00086E394E00E944A0DA4CD8091100392E307
:1049D000980F953608F051C087FD04C08FE792E02C
:1049E0000E94832180911003082E000C990B0E94D5
:1049F000D92187EF0E945C0C85EA91E00E94832117
:104A000080919F038823E1F18FE792E00E94832148
:104A10008091FA038A3020F48FE792E00E9483218C
:104A20008091FA030E94D2218091F80380FF2BC06D
:104A30008DEA91E00E9483218091F9038A3020F46D
:104A40008FE991E00E9483218091F9030E94D22195
:104A500080910A018823D1F08FEA91E00E9483219E
:104A6000809115018A3020F48FE792E00E94832123
:104A7000809115010E94D2214CCD87EA91E0BECFF2
:104A800081EA91E0C3CF8FE792E0D4CF82EB91E04F
:104A9000E5CF809115010E942422C0934A04C0935F
:104AA0004B048091A9030E94D22185EB91E00E94E2
:104AB000832180911601DECFE0911401F0E0EE0F2A
:104AC000FF1FE85BFE4F20813181AAE0B0E00E9429
:104AD0008C380E94072281E080934A0480934B0423
:104AE0008091A9030E94D22185EC91E00E9483214C
:104AF00010CD80910A01882391F08FEC91E00E9403
:104B0000752181E080934A0480934B048091A9032E
:104B10000E94D22187ED91E00E947521FACC83EDAD
:104B200091E0EDCF8091100124E6829FC001112415
:104B30000E94162281E080934A0480934B04809166
:104B4000A9030E94D22188EF91E006CD8091160141
:104B50000E94242281E080934A0480934B04809138
:104B6000A9030E94D22184E092E0C0CF8091F90392
:104B70008A3020F48FE991E00E9483218091F9032B
:104B80000E94242281E080934A0480934B04809108
:104B9000A9030E94D22188E192E0A8CF809131013F
:104BA0002AE0829FC00111240E94162281E0809396
:104BB0004A0480934B048091A9030E94D2218EE184
:104BC00092E094CF80912E010E94242281E0809374
:104BD0004A0480934B048091A9030E94D2218BE365
:104BE00092E084CF80912D01882381F08AE492E0C5
:104BF0000E94752181E080934A0480934B04809148
:104C0000A9030E94D22181E592E086CF8EE492E052
:104C1000EFCF8EE492E0F8CC80912C010E94242208
:104C200081E080934A0480934B048091A9030E9401
:104C3000D2218EE692E00E94832180911503843672
:104C400020F48FE991E00E94832180911503CAE04E
:104C50006C2F0E94413690E00E94D92181EA91E0B8
:104C60000E948321809115036C2F0E944136892F69
:104C700090E00E94D92183EA91E038CF80912F0102
:104C8000082E000C990B0E94162281E080934A04A2
:104C900080934B048091A9030E94D22186E792E081
:104CA0000E94832180EF0E945C0C87EF0E945C0CC5
:104CB00085EA91E01BCF82E080934A0480934B0405
:104CC0006091200170912101809122019091230136
:104CD0000E94072281E080934A0480934B048091D4
:104CE000A9030E94D2218DE892E0B3CC82E08093A8
:104CF0004A0480934B0460912401709125018091B6
:104D00002601909127010E94072281E080934A04A6
:104D100080934B048091A9030E94D22189E992E0FB
:104D200098CC82E080934A0480934B0460911C01EC
:104D300070911D0180911E0190911F010E94072218
:104D400081E080934A0480934B048091A9030E94E0
:104D5000D22181EB92E07DCC8091280190912901B4
:104D60000E94162281E080934A0480934B04809134
:104D7000A9030E94D2218DEB92E06BCC809134018B
:104D8000882381F08AE492E00E94752181E080937B
:104D90004A0480934B048091A9030E94D2218AEC9B
:104DA00092E0BACE8EE492E0EFCF4F925F926F9294
:104DB0007F928F929F92AF92BF92CF92DF92EF92AB
:104DC000FF92CF93DF93CDB7DEB728970FB6F89455
:104DD000DEBF0FBECDBF80917C04823008F07BC067
:104DE000F89481E794E00E94F71C60917804709138
:104DF000790480917A0490917B0478942091080141
:104E000030E050E040E00E94403869017A01909122
:104E10002D01992341F0F094E094D094C094C11CEA
:104E2000D11CE11CF11C80900A0390900B03A09010
:104E30000C03B0900D038C149D04AE04BF04B1F1BB
:104E40004C9B34C08091A9032FEF280F243018F415
:104E500021E020939A038B3109F41AC308F09AC019
:104E6000853109F479C208F058C0823009F441C292
:104E7000A0F5882309F45EC1813009F419C20E94AB
:104E800060086093A0037093A1038093A2039093A2
:104E9000A30381E080939F030E945222C0920A03E1
:104EA000D0920B03E0920C03F0920D0328960FB6FC
:104EB000F894DEBF0FBECDBFDF91CF91FF90EF9092
:104EC000DF90CF90BF90AF909F908F907F906F902A
:104ED0005F904F900895F89488CF833009F428C2EA
:104EE000843169F680910F018C149D04AE04BF04D7
:104EF0000CF025C2883C18F48F5F80930F018091DD
:104F00000F018A3008F426C290911001891710F021
:104F10008FEF890F80930F01B2CF883109F471C2EE
:104F2000F0F4863109F43CC2873109F0A8CF8091B2
:104F3000FA038C149D04AE04BF040CF057C28831F0
:104F400038F48F5F8093FA038091FA03883118F068
:104F500087E18093FA0381E08093090390CF893140
:104F600009F46EC28A3109F08ACF809132018C1423
:104F70009D04AE04BF040CF080C28F3F19F08F5F18
:104F800080933201809132018A3008F48AE0809364
:104F9000320175CF883609F405C308F04BC0853659
:104FA00009F4A4C268F48C3109F48FC2843609F084
:104FB00066CF8091170191E08927809317015FCF19
:104FC000863609F4B8C2873609F059CF80912A0194
:104FD00090912B018C149D04AE04BF040CF0CBC245
:104FE000813335E793077CF4E0911401F0E0EE0F94
:104FF000FF1FE85BFE4F20813181820F931F90934A
:105000002B0180932A0180912A0190912B018133F9
:1050100055E7950714F080E395E7803DAAE89A07E5
:1050200014F480ED9AE890932B0180932A010E945A
:10503000391B0DC18B3609F4ABC308F059C0893652
:1050400009F41DC38A3609F01ACF80911801909196
:105050001901A0911A01B0911B018C149D04AE049A
:10506000BF040CF079C3813823EC920729ECA20726
:1050700021E0B207A8F4E0911401F0E0EE0FFF1F69
:10508000E85BFE4F20813181820F931FA11DB11D6E
:105090008093180190931901A0931A01B0931B01FA
:1050A0008091180190911901A0911A01B0911B01F2
:1050B000813843EC940749ECA40741E0B40720F0A1
:1050C00080E893ECA9ECB1E0803452E495075FE00E
:1050D000A507B10520F480E492E4AFE0B0E080934E
:1050E000180190931901A0931A01B0931B01AFC04E
:1050F0008D3609F4F8C308F4B8C38E3609F0BFCE74
:10510000809130018C149D04AE04BF040CF0F2C3F6
:10511000883C18F48F5F8093300180913001883C87
:1051200008F087EC8A3008F48AE0809330010E940E
:105130009C1AA5CE40900B0150900C0160900D017F
:1051400070900E01A0911001B0E020EA36E841E035
:1051500050E00E945F386D837E838F839887A09193
:105160000F01B0E00E945F3869837A838B839C8350
:105170008C149D04AE04BF040CF06CC02D813E81E4
:105180004F815885241535054605570550F1E091A6
:105190001401F0E0EE0FFF1FE85BFE4F208131812C
:1051A000AAE0B0E00E948C384B015C01C301B2015F
:1051B000A50194010E946A38480C591C6A1C7B1C8A
:1051C000611571058105910521F0461A570A680A93
:1051D000790A40920B0150920C0160920D0170927D
:1051E0000E0180910B0190910C01A0910D01B091E5
:1051F0000E0129813A814B815C8182179307A407B4
:10520000B50760F489819A81AB81BC8180930B01E1
:1052100090930C01A0930D01B0930E0180910B01AE
:1052200090910C01A0910D01B0910E012D813E8154
:105230004F815885281739074A075B0740F42093A8
:105240000B0130930C0140930D0150930E010E940D
:10525000531B15CEC814D904EA04FB0414F6898143
:105260009A81AB81BC81481659066A067B0650F2CA
:10527000E0911401F0E0EE0FFF1FE85BFE4F20818C
:105280003181AAE0B0E00E948C384B015C01C3017F
:10529000B201A50194010E946A386115710581056A
:1052A000910509F092CF481859086A087B0891CFF8
:1052B00090911601809115018C149D04AE04BF04D9
:1052C0007CF4891718F48F5F809315018091150184
:1052D000981708F4892F809315010E943B1EB7CFC1
:1052E000C814D904EA04FB048CF7882379F38150AD
:1052F000EBCF809114018C149D04AE04BF0434F4F0
:10530000863078F48F5F80931401B9CDC814D90426
:10531000EA04FB0434F4882309F4B1CD815080936E
:10532000140180911401873008F4A9CD86E0EBCFF9
:1053300080910A0191E0892780930A0188CFC814DF
:10534000D904EA04FB040CF0DACD8A3008F4D7CD96
:105350008150D3CD8AE0DECD809110018C149D0464
:10536000AE04BF0484F4883C18F48F5F809310016E
:1053700090910F0180911001981770F081E0890FD2
:10538000809310017CCDC814D904EA04FB0484F78F
:105390008A3070F38150EACF883C90F387ECF0CFED
:1053A000809116018C149D04AE04BF047CF48E31F0
:1053B000B8F48F5F809316018091160190911501CA
:1053C000891708F05CCD8093150159CDC814D90414
:1053D000EA04FB042CF4882379F3815080931601AE
:1053E000809116018F3140F38EE1E4CFC814D904C7
:1053F000EA04FB040CF0A8CD882309F4ACCD81505D
:10540000A1CD8091F9038C149D04AE04BF0474F403
:105410008C3340F48F5F8093F9038091F9038C33D0
:1054200008F499CD8BE38093F90395CDC814D90482
:10543000EA04FB0494F7882309F48DCD8150EBCF67
:10544000809131018C149D04AE04BF046CF48F3F35
:1054500019F08F5F80933101809131018A3008F417
:105460008AE0809331010BCDC814D904EA04FB040F
:105470009CF7823088F38150EDCFC814D904EA0438
:10548000FB040CF07FCD823008F47CCD815078CDC8
:1054900080912E018C149D04AE04BF046CF48F3FE8
:1054A00019F08F5F80932E0180912E01811101C030
:1054B00081E080932E01E3CCC814D904EA04FB04F4
:1054C0009CF7823088F38150EDCF992359F01092E8
:1054D0002D01F094E094D094C094C11CD11CE11C27
:1054E000F11CCDCC81E080932D01F3CF80912C0174
:1054F0008C149D04AE04BF046CF48F3F39F08F5FB1
:1055000080932C0180912C018F3F71F48EEF80935A
:105510002C01B5CCC814D904EA04FB049CF78436EA
:1055200088F3815080932C0180912C01843608F0FF
:10553000A6CC84E6ECCF80912F018C149D04AE04A0
:10554000BF0484F48F311CF48F5F80932F0180910E
:105550002F018F310CF08EE1823E0CF482EE8093AD
:105560002F018DCCC814D904EA04FB0484F7823ED1
:1055700074F38150EACFC814D904EA04FB040CF098
:1055800042CD803D4AE894070CF43DCDE0911401F2
:10559000F0E0EE0FFF1FE85BFE4F20813181821BA0
:1055A000930B2DCD8091200190912101A09122019A
:1055B000B09123018C149D04AE04BF040CF045C0CF
:1055C000813823EC920729ECA20721E0B207A8F466
:1055D000E0911401F0E0EE0FFF1FE85BFE4F208129
:1055E0003181820F931FA11DB11D809320019093E3
:1055F0002101A0932201B093230180912001909179
:105600002101A0912201B0912301813843EC94073C
:1056100049ECA40741E0B40720F080E893ECA9EC42
:10562000B1E0803452E495075FE0A507B10520F4AE
:1056300080E492E4AFE0B0E08093200190932101F8
:10564000A0932201B093230102CEC814D904EA0426
:10565000FB049CF6803432E493073FE0A307B105D6
:1056600060F2E0911401F0E0EE0FFF1FE85BFE4FE7
:1056700020813181821B930BA109B109B6CF8091A2
:10568000240190912501A0912601B09127018C144D
:105690009D04AE04BF040CF045C0813823EC920792
:1056A00029ECA20721E0B207A8F4E0911401F0E090
:1056B000EE0FFF1FE85BFE4F20813181820F931FA9
:1056C000A11DB11D8093240190932501A093260173
:1056D000B09327018091240190912501A09126018A
:1056E000B0912701813843EC940749ECA40741E0CD
:1056F000B40720F080E893ECA9ECB1E0803452E4E8
:1057000095075FE0A507B10520F480E492E4AFE0DF
:10571000B0E08093240190932501A0932601B093DB
:10572000270195CDC814D904EA04FB049CF6803403
:1057300032E493073FE0A307B10560F2E091140162
:10574000F0E0EE0FFF1FE85BFE4F20813181821BEE
:10575000930BA109B109B6CFC814D904EA04FB041C
:105760000CF09ECC803432E493073FE0A307B105F0
:1057700008F496CCE0911401F0E0EE0FFF1FE85B17
:10578000FE4F20813181821B930BA109B10980CC8E
:1057900080911C0190911D01A0911E01B0911F01EB
:1057A0008C149D04AE04BF040CF045C0813823EC7A
:1057B000920729ECA20721E0B207A8F4E0911401B6
:1057C000F0E0EE0FFF1FE85BFE4F20813181820F7A
:1057D000931FA11DB11D80931C0190931D01A093E7
:1057E0001E01B0931F0180911C0190911D01A09199
:1057F0001E01B0911F01813843EC940749ECA407C6
:1058000041E0B40720F080E893ECA9ECB1E08034EB
:1058100052E495075FE0A507B10520F480E492E427
:10582000AFE0B0E080931C0190931D01A0931E0196
:10583000B0931F010CCDC814D904EA04FB049CF6F4
:10584000803432E493073FE0A307B10560F2E091B2
:105850001401F0E0EE0FFF1FE85BFE4F2081318165
:10586000821B930BA109B109B6CF809128019091B9
:1058700029018C149D04AE04BF0424F5E0911401A9
:10588000F0E0EE0FFF1FE85BFE4F20813181820FB9
:10589000931F909329018093280180912801909172
:1058A0002901893EA3E09A0714F088EE93E088313D
:1058B000BCEF9B0714F488E19CEF9093290180933F
:1058C0002801C5CCC814D904EA04FB0434F7E091DC
:1058D0001401F0E0EE0FFF1FE85BFE4F20813181E5
:1058E000821B930BD6CF8091340191E0892780935E
:1058F0003401C5CAC814D904EA04FB040CF00DCC69
:105900008A3008F40ACC815006CC1F921FB61F9231
:1059100011248F939F93AF93BF9380917C039091B9
:105920007D03A0917E03B0917F030296A11DB11D5E
:1059300080937C0390937D03A0937E03B0937F03B9
:1059400080917B0396E0980F9D37E8F490937B035A
:105950008091800390918103A0918203B091830391
:105960000196A11DB11D8093800390938103A093A4
:105970008203B0938303BF91AF919F918F911F904A
:105980001FBE1F901895875780937B0380917C03DF
:1059900090917D03A0917E03B0917F030196A11D9C
:1059A000B11D80937C0390937D03A0937E03B093FD
:1059B0007F03CECF1F920F920FB60F9211242F9319
:1059C0003F934F935F936F937F938F939F93AF9387
:1059D000BF93EF93FF938091B900887F803609F4DD
:1059E0004AC0F0F5883209F4A7C018F5803109F4EF
:1059F0009BC0B8F4882309F4F9C0883009F494C036
:105A0000FF91EF91BF91AF919F918F917F916F9196
:105A10005F914F913F912F910F900FBE0F901F906C
:105A20001895883109F488C0803251F78093F503C6
:105A300014C0803409F49DC040F48033B9F3883336
:105A4000F9F68093F50385ECB0C0803509F485C084
:105A5000883509F496C0883499F60E94420FD0CF59
:105A6000883909F48CC038F5883729F050F4883625
:105A700011F0803729F683E08093F70310927A03C0
:105A800057C0883809F47BC0803919F0803809F094
:105A9000B7CF80917A03803208F071C0E0917A0329
:105AA00081E08E0F80937A038091BB00F0E0E65A8C
:105AB000FC4F80833DC0803B39F0E0F4803A09F42C
:105AC00079C0883A09F09CCF84E08093F703109264
:105AD000590310925803E091AC03F091AD0309957E
