:100000000C945C050C9448260C9420260C948405D2
:100010000C9484050C9484050C9484050C945B2446
:100020000C9484050C9484050C9484050C9484052C
:100030000C9484050C9484050C9484050C9484051C
:100040000C94B7240C9484050C9484050C948405BA
:100050000C9484050C9484050C9484050C948405FC
:100060000C9401250C948405000103070F1F3F7FAA
:100070000080C0E0F0F8FCFE00000000003E5B4F96
:100080005B3E3E6B4F6B3E1C3E7C3E1C183C7E3CF8
:10009000181C577D571C1C5E7F5E1C00183C180006
:1000A000FFE7C3E7FF0018241800FFE7DBE7FF3096
:1000B000483A060E2629792926407F050507407F04
:1000C00005253F5A3CE73C5A7F3E1C1C08081C1C77
:1000D0003E7F14227F22145F5F005F5F06097F016D
:1000E0007F006689956A606060606094A2FFA29458
:1000F00008047E040810207E201008082A1C080826
:100100001C2A08081E101010100C1E0C1E0C303873
:100110003E3830060E3E0E06000000000000005F74
:1001200000000007000700147F147F14242A7F2A90
:100130001223130864623649562050000807030052
:10014000001C2241000041221C002A1C7F1C2A089E
:10015000083E080800807030000808080808000001
:1001600060600020100804023E5149453E00427F75
:10017000400072494949462141494D331814127FC4
:100180001027454545393C4A494931412111090764
:100190003649494936464949291E000014000000E5
:1001A00040340000000814224114141414140041B7
:1001B00022140802015909063E415D594E7C121174
:1001C000127C7F494949363E414141227F414141AC
:1001D0003E7F494949417F090909013E4141517327
:1001E0007F0808087F00417F41002040413F017F98
:1001F000081422417F404040407F021C027F7F0460
:1002000008107F3E4141413E7F090909063E4151A8
:10021000215E7F09192946264949493203017F0198
:10022000033F4040403F1F2040201F3F4038403F99
:10023000631408146303047804036159494D4300AF
:100240007F4141410204081020004141417F0402E6
:10025000010204404040404000030708002054547D
:1002600078407F284444383844444428384444285B
:100270007F385454541800087E090218A4A49C78AE
:100280007F0804047800447D40002040403D007F0A
:100290001028440000417F40007C047804787C08EA
:1002A0000404783844444438FC18242418182424BE
:1002B00018FC7C08040408485454542404043F44A3
:1002C000243C4040207C1C2040201C3C4030403CD2
:1002D00044281028444C9090907C4464544C440032
:1002E0000836410000007700000041360800020196
:1002F0000204023C2623263C1EA1A161123A404082
:10030000207A3854545559215555794122545478FE
:1003100042215554784020545579400C1E52721297
:100320003955555559395454545939555454580020
:1003300000457C410002457D420001457C407D1224
:1003400011127DF0282528F07C5455450020545486
:100350007C547C0A097F4932494949323A44444431
:100360003A324A4848303A4141217A3A424020786C
:10037000009DA0A07D3D4242423D3D4040403D3C6D
:1003800024FF2424487E4943662B2FFC2F2BFF0992
:1003900029F620C0887E0903205454794100004486
:1003A0007D413048484A32384040227A007A0A0A71
:1003B000727D0D19317D2629292F282629292926E4
:1003C00030484D4020380808080808080808382F29
:1003D00010C8ACBA2F102834FA00007B00000814B3
:1003E0002A142222142A14085500550055AA55AA89
:1003F00055AAFF55FF55FF000000FF00101010FF29
:1004000000141414FF001010FF00FF1010F010F083
:10041000141414FC001414F700FF0000FF00FF1474
:1004200014F404FC141417101F10101F101F1414C0
:10043000141F00101010F0000000001F101010100A
:100440001F10101010F010000000FF1010101010FE
:1004500010101010FF10000000FF140000FF00FF3C
:1004600000001F10170000FC04F4141417101714D8
:1004700014F404F40000FF00F714141414141414FA
:10048000F700F7141414171410101F101F1414146D
:10049000F4141010F010F000001F101F0000001FD7
:1004A00014000000FC140000F010F01010FF10FF0A
:1004B000141414FF141010101F00000000F010FF9F
:1004C000FFFFFFFFF0F0F0F0F0FFFFFF0000000083
:1004D00000FFFF0F0F0F0F0F3844443844FC4A4A07
:1004E0004A347E02020606027E027E0263554941BC
:1004F000633844443C04407E201E2006027E0202F3
:1005000099A5E7A5991C2A492A1C4C7201724C3006
:100510004A4D4D303048784830BC625A463D3E49DD
:100520004949007E0101017E2A2A2A2A2A44445F81
:10053000444440514A444040444A51400000FF0175
:1005400003E080FF000008086B6B08361236243683
:10055000060F090F060000181800000010100030E8
:1005600040FF0101001F01011E00191D1712003C70
:100570003C3C3C0000000000005EBCE2613FDD83CB
:10058000C29C7E20A3FD1F41009D23BE46DB65F873
:100590008C11AF32CA57E974000000080002010054
:1005A000000304070000000000000000000000003D
:1005B000240027002A00DB40A4A62EAFDA0281DA4D
:1005C0001281DA02818F2000A1C8D300408DAED500
:1005D00080A8000060000000000000000000000093
:1005E000000000E00000000000000000000000002B
:1005F0000001E0000000000000000000000000001A
:1006000001F00000000000000000000000000003F6
:10061000F00000000000000000000000000007F0F3
:100620000000000000000000000000000007F800CB
:100630000000000000000000000000000FF80000B3
:100640000003C0007E000001E0007F0FF800000002
:1006500003C000FE000001E000FFEFF8000000030F
:10066000C000FE000001E000FFFFF800000003C032
:1006700000F00000000F007FFE7FC0000003C000FC
:10068000F00000000F003FFE7FF83FF1FBCFFCFEC3
:10069000F3BC3DEFE01FFE7FFF7FFBFFDFFEFEFFB1
:1006A000BC3DEFE01FC6FFFF7FFBFFDFFEFEFFBC90
:1006B0003DEFE00FE3C7FE787BC3DE1EF0FFBC3DDD
:1006C000EF0007FF87FC787BC3DE1EF0F83C3DEFB0
:1006D0000001FFFFF0007BC3C01EF0F03C3DEF00C7
:1006E00001F37FE03FFBC3CFFEF0F03C3DEF0003A2
:1006F000E33F807FFBC3DFFEF0F03C3DEF0007E708
:100700003C00787BC3DE1EF0F03C3DEF0007FFBEEF
:1007100000787BC3DE1EF0F03C3DEF0007FFFE00DB
:10072000787BC3DE1EF0F03C3DEF000FFFFE007F44
:10073000FBFFDFFEF0F03FFDEFE00FFFFF007FFB70
:10074000FFDFFEF0F03FFDEFE00FF9FF003E79F92B
:10075000CF9EF0F01F3DE7E01FF1FF00000000001A
:10076000000000000000001F80FF007FFFFFFFFF70
:10077000FFFFFFFFFFE01C007F007FFFFFFFFEB4D5
:100780006D888D18E000001F007FFFFFFFFE95AD14
:100790007DB577E000000F007FFFFFFFFEA5AD9D58
:1007A0008D19E0000006007FFFFFFFFEB5ADEDB53F
:1007B0007EE000000000000180000000000000005A
:1007C0000000038000000000000000000007C000DF
:1007D000000000000000000007C000000000000052
:1007E0000000000FC00000000000000000001FE03B
:1007F0000000000000000000001FE00000000000FA
:10080000000000003FE00000000000000000003F8A
:10081000F00000000000000000007FF00000000079
:100820000000001FF87FF0000000000000003FFE05
:100830007FF0000000000000003FFF7FF00000009C
:10084000000000001FFFFBE0000000000000000FA0
:10085000FFF9FFC00000000000000FFFF9FFF800E3
:10086000000000000007FFF1FFFF00000000000093
:1008700003FC73FFFF80000000000001FE3FFFFF4C
:1008800080000000000000FF1E0FFF0000000000BD
:1008900000007FFE1FFC000000000000003FFFFF83
:1008A000F8000000000000000FDFFFE00000000083
:1008B0000000001F19FFC0000000000000003F3CC6
:1008C000FF00000000000000007E7CF80000000037
:1008D000000000007FFE7C0000000000000000FF20
:1008E000FFFC0000000000000000FFFFFE00000011
:1008F0000000000000FFFFFE0000000000000001FB
:10090000FFEFFE0000000000000001FFCFFE00002E
:10091000000000000003FF07FE00000000000000D0
:1009200003FC07FE0000000000000003F003FE00CF
:10093000000000000000018000FE00000000000038
:10094000000000007E000000000000000000003EEB
:10095000000000000000000000000C00000000008B
:1009600000078000FC000003C0000000078001FCBD
:10097000000003C0000000078001FC000003C0006D
:100980000000078001E00000001E00000007800159
:10099000E00000001E007FE3F79FF9FDE7787BDFB2
:1009A000C0FFF7FFBFFDFDFF787BDFC0FFF7FFBF94
:1009B000FDFDFF787BDFC0F0F787BC3DE1FF787B72
:1009C000DE00F0F787BC3DE1F0787BDE0000F787C2
:1009D000803DE1E0787BDE007FF7879FFDE1E078F6
:1009E0007BDE00FFF787BFFDE1E0787BDE00F0F7FC
:1009F00087BC3DE1E0787BDE00F0F787BC3DE1E0BD
:100A0000787BDE00F0F787BC3DE1E0787BDE00FF1D
:100A1000F7FFBFFDE1E07FFBDFC0FFF7FFBFFDE1B8
:100A2000E07FFBDFC07CF3F39F3DE1E03E7BCFC086
:100A30000000000000000000000000FFFFFFFFFFBB
:100A4000FFFFFFFFFFC0FFFFFFFFFD68DB111A3153
:100A5000C0FFFFFFFFFD2B5AFB6AEFC0FFFFFFFF48
:100A6000FD4B5B3B1A33C0FFFFFFFFFD6B5BDB6A97
:100A7000FDC000000000250028002B00022200FF1E
:100A80002100010204081020408001020408102007
:100A900001020408102000000000230026002900A5
:100AA0000404040404040404020202020202030314
:100AB000030303037026B63111241FBECFEFD8E025
:100AC000DEBFCDBF12E0A0E0B1E0E0ECFBE602C08B
:100AD00005900D92A23AB107D9F724E0A2EAB2E05C
:100AE00001C01D92A134B207E1F715E0CBE5D5E0D6
:100AF00004C02197FE010E94EE33CA35D107C9F721
:100B00000E94F7270C94D3350C94000008950895A3
:100B100091E0909399038093980310929F03109211
:100B20009E0308958091A0039091A103891B990BC6
:100B300008950895AF92BF92CF92DF92EF92FF9205
:100B40000F931F93CF93DF936C017B018B01040FF5
:100B5000151FEB015E01AE18BF08C017D10759F091
:100B60006991D601ED91FC910190F081E02DC601D3
:100B70000995892B79F7C501DF91CF911F910F91CD
:100B8000FF90EF90DF90CF90BF90AF9008958330AB
:100B900081F028F4813099F08230A9F008958730EF
:100BA000A9F08830C9F08430B1F4809180008F7D45
:100BB00003C0809180008F7780938000089584B572
:100BC0008F7784BD089584B58F7DFBCF8091B00071
:100BD0008F778093B00008958091B0008F7DF9CF1A
:100BE000CF93DF93282F30E0F901E856FA4F849134
:100BF000F901EE57F54FD491F901E056F54FC49144
:100C0000CC23A1F081110E94C705EC2FF0E0EE0F7C
:100C1000FF1FEA56F54FA591B491EC91ED2381E0C9
:100C200090E009F480E0DF91CF91089580E090E0BA
:100C3000FACF1F93CF93DF93282F30E0F901E856C6
:100C4000FA4F8491F901EE57F54FD491F901E0562E
:100C5000F54FC491CC23A9F0162F81110E94C7052E
:100C6000EC2FF0E0EE0FFF1FEE58F54FA591B49179
:100C70008FB7F894EC91111108C0D095DE23DC9366
:100C80008FBFDF91CF911F910895DE2BF8CF909108
:100C9000250189130BC0ECE7FAE0E4919FEF9093F4
:100CA0002501E13049F028F0E23061F060E00C9479
:100CB000190610926E00FACF90916F009D7F90936D
:100CC0006F00F4CF909170009D7F9093700091E041
:100CD0009093B0009091B100987F94609093B10090
:100CE0001092B300E3CFCF93DF9390E0FC01EE5777
:100CF000F54F24918056954FFC0184918823C9F0CB
:100D000090E0880F991FFC01E455FA4FA591B4912A
:100D1000FC01EE58F54FC591D49161110DC09FB7FC
:100D2000F8948C91209582238C93888128232883A2
:100D30009FBFDF91CF910895623051F49FB7F8942F
:100D40003C91822F809583238C93E8812E2BEFCFCB
:100D50008FB7F894EC912E2B2C938FBFEACF209174
:100D6000000190E4299F900111248E50822B8093E2
:100D70007C0080917A00806480937A0080917A0070
:100D800086FDFCCF809178009091790008953FB75F
:100D9000F8948091170390911803A0911903B091D2
:100DA0001A0326B5A89B05C02F3F19F00196A11D77
:100DB000B11D3FBFBA2FA92F982F8827BC01CD01A5
:100DC000620F711D811D911D42E0660F771F881F04
:100DD000991F4A95D1F708958F929F92AF92BF9233
:100DE000CF92DF92EF92FF926B017C010E94C706C7
:100DF0004B015C01C114D104E104F104B9F00E947B
:100E0000C706681979098A099B09683E73408105FC
:100E1000910580F321E0C21AD108E108F10888EEBB
:100E2000880E83E0981EA11CB11CE4CFFF90EF90C8
:100E3000DF90CF90BF90AF909F908F9008952FB785
:100E4000F8946091130370911403809115039091AD
:100E500016032FBF0895DC0180E0615090F09D9152
:100E60009827E92FEF70F0E0E858FA4F2491E92F26
:100E7000E295EF70F0E0E857FA4FE491822F8E2769
:100E8000ECCF0895DC012C911196ED91FC91F89432
:100E90008181822B81839281322F3095932392839B
:100EA00087E090E00197F1F781818323818383E2DA
:100EB00090E00197F1F790817894EFECF0E03197B2
:100EC000F1F7922381E009F480E00895FC0190811C
:100ED0000180F281E02D292F209560FF14C0F89445
:100EE0008281822382838181892B8183A3E2B0E086
:100EF0001197F1F78281982B9283789487ED90E097
:100F00000197F1F70895F894828182238283818189
:100F1000892B8183AFEFB0E01197F1F78281982B95
:100F2000928378948FE090E0EBCFDF92EF92FF9284
:100F30000F931F93CF93DF93EC01D62EE42E08E09E
:100F400010E0FF24F39461E08D2D8F2109F460E01F
:100F5000CE010E946607FF0C01501109A1F7E110B4
:100F600010C0F894E981FA81918188818095892364
:100F70008183E981FA8192818881809589238283A6
:100F80007894DF91CF911F910F91FF90EF90DF90B8
:100F90000895EF92FF920F931F93CF93DF938C01ED
:100FA0007B0140E065E50E949507E70188E0E80ED7
:100FB000F11C699140E0C8010E949507CE15DF053C
:100FC000C1F7DF91CF911F910F91FF90EF9008959E
:100FD000FC0190810180F281E02DF8948181292F1C
:100FE00020958223818378943DE743E050E031509F
:100FF00029F1DA011197F1F780818923C1F3F8947F
:101000008281822382838181892B81837894ABE7DB
:10101000B7E01197F1F7F894818182238183A3E1EE
:10102000B1E01197F1F78081982381E009F080E029
:101030007894E3E6F6E03197F1F7089580E00895BB
:10104000AF92BF92CF92DF92EF92FF920F931F93D6
:10105000CF93DF938B01BC018091AC039091AD03E2
:101060000E94C90740E06EEB8091AC039091AD0304
:101070000E949507E801680189E0C80ED11CA09084
:10108000AC03B090AD0388E0E82EF12C10E001E055
:10109000C5010E9442078111102B000F81E0E81A60
:1010A000F108B1F71993CC16DD0649F78091AC032E
:1010B0009091AD030E94E80791E0813009F090E043
:1010C000892FDF91CF911F910F91FF90EF90DF90CB
:1010D000CF90BF90AF9008950F931F93CF93DF935E
:1010E000CDB7DEB729970FB6F894DEBF0FBECDBFE0
:1010F0008C018091AC039091AD030E94E8078111AF
:1011000002C080E01FC0BE016F5F7F4FC8010E9418
:1011100020088823B1F368E0CE0101960E942B07D6
:1011200099858913EECF8D818F33B9F020F48F31FB
:1011300041F789E007C08F3521F08F3711F78CE038
:1011400001C08BE029960FB6F894DEBF0FBECDBF6D
:10115000DF91CF911F910F9108958AE0F3CF089509
:10116000FC016370668B84819581268137816130B3
:1011700039F0633029F0918780873387228708957B
:10118000318720879387828708952F923F924F92CD
:101190005F926F927F928F929F92AF92BF92CF9207
:1011A000DF92EF92FF920F931F93CF93DF93CDB710
:1011B000DEB76A970FB6F894DEBF0FBECDBF9A8F29
:1011C000898F7A8369834A01D22E18870F8337016A
:1011D000BC2CDC0159962D913C915A972115310573
:1011E00009F015C118968D919C9119976817790788
:1011F0000CF0D7C11A968D919C91481759070CF0A5
:10120000D0C14C2C512CB6E0CB9E600D711D112429
:101210007C876B87161617060CF0C3C1EA2DF0E029
:10122000FA87E98793E0EE0FFF1F9A95E1F7F88BB5
:10123000EF87CF01840F951F181619060CF0B1C166
:10124000A98DBA8D58968C91811104C0BFEABD1545
:1012500008F4D394A98DBA8DED91FC911197028475
:10126000F385E02DCD010995B5E0DB9EC001112489
:10127000E981FA81FC83EB83312C212C9C012858D5
:101280003F4F388F2F8B4A2D50E05E8B4D8BEF896F
:10129000F88DE20DF31D44919E828D82D12CC12CDC
:1012A00069817A81620D731D7A8B698B842F90E03E
:1012B0009C8B8B8BE98DFA8DA081B18140FF82C020
:1012C000F1E0BF126FC0AF126DC01C96ED91FC91A2
:1012D0002F813885A4014C0D5D1D69897A89898D1E
:1012E0009A8D0995EB89FC89F595E7954E2F5FEF6F
:1012F000C51AD50A6D817E818D899E89680F791FF7
:101300007E836D8398E0C916D10481F6AFEF2A1A67
:101310003A0AEB81FC81E40DF51DFC83EB83F5E0DB
:101320002F16310409F0B3CF2F81388526153705E4
:10133000B9F0A98DBA8DED91FC91B1E0BB1257C007
:10134000AB1255C069817A816B5F7F4F0088F1894C
:10135000E02D830128E030E0A401898D9A8D099564
:10136000A98DBA8DED91FC9111970688F789E02D32
:10137000CD016A960FB6F894DEBF0FBECDBFDF91E8
:10138000CF911F910F91FF90EF90DF90CF90BF9082
:10139000AF909F908F907F906F905F904F903F9015
:1013A0002F9009941E96ED91FC91EF80F8840985A9
:1013B0001A8592014D815E816B817C81898D9A8D28
:1013C000099590CF2F8138852615370509F48ACFE6
:1013D00031E0B31207C0A31205C01C96ED91FC9139
:1013E000930178CF1E96ED91FC917301E0CF6B8550
:1013F0007C85641975090684F785E02D73010F85D6
:1014000018899201A401898D9A8D0995A9CFF901B6
:1014100034969491329745915491D91AB7E0DB9E56
:10142000400D511D1124F901259134913C8B2B8BDA
:10143000FA0125903490FA013296749031963491E5
:10144000398B329664903196449041E04C1518F0F7
:101450004A1508F07FC0662D062C000C770B7C83A4
:101460006B83842D042C000C990B9E838D83A98D96
:10147000BA8DED91FC9111970284F385E02DCD0199
:101480000995512CD12CC12CEA2DF0E0FA87E9877F
:101490002B2D30E03C872B87A401440D511D47FCC8
:1014A0005A95588F4F8B69817A81660D711D67FC43
:1014B0007A957E876D877989C71608F051CF2C2DD4
:1014C00030E04D815E81420F531FA985BA854A9F46
:1014D000C0014B9F900D5A9F900D1124FC01E80D07
:1014E000F91DF88BEF87852D612C4F89588D420FA0
:1014F000531F5E8B4D8B671408F050C044244394F7
:10150000480E877041F4C1010196EB89FC89E20D18
:10151000F31DD4901C01D7FE19C0A98DBA8DED9191
:10152000FC91662D70E0B1E0BB1219C0AB1217C080
:101530002D853E85620F731F0484F585E02D2F8174
:1015400038854D895E89898D9A8D0995DD0C639466
:10155000842DD1CF1E821D821C821B8288CF4B819D
:101560005C81640F751FAB85BC856A9FC0016B9F52
:10157000900D7A9F900D112469817A81680F791FEF
:101580000684F785E02DEF80F88409851A859D0192
:101590004F855889898D9A8D0995D8CF570CC3945A
:1015A0008ACF6A960FB6F894DEBF0FBECDBFDF912B
:1015B000CF911F910F91FF90EF90DF90CF90BF9050
:1015C000AF909F908F907F906F905F904F903F90E3
:1015D0002F9008958F929F92AF92CF92EF92FF92A9
:1015E0000F931F93CF93DF93EC01262F898D9A8D54
:1015F000009709F051C06A30D1F41D861C868D8990
:1016000048E0849F900111248E859F85820F931F4F
:101610009F878E8781E090E0DF91CF911F910F919E
:10162000FF90EF90CF90AF909F908F9008956D3086
:1016300089F3CC88AD888F898823C1F08C859D85FE
:1016400036E0C39E800D911D1124488559854817A9
:10165000590764F44E855F851D861C8638E0A39E7D
:10166000C0011124840F951F9F878E87EA88FB880D
:10167000088919894E855F856C857D85CE010E941C
:10168000C5082C898C859D8546E0249F800D911D81
:1016900011249D878C87BECF6A3069F41D861C8615
:1016A000FC013896E4912D898E859F85E29F800DFF
:1016B000911D1124ADCF6D3009F4ACCFFC013496EF
:1016C0003491631708F4A6CF3296E491E61708F434
:1016D000A1CFFC01329685909490462F431B342F66
:1016E00047E0349F800C911C1124F4013296349110
:1016F0003196E4913323A9F1EE2399F1CC88F401DA
:101700003596E491AD884F89442301F10E2E000CEB
:10171000FF0BE30FF11DCE9EA001CF9E500D1124B3
:101720006C857D85460F571F688579856417750719
:101730006CF44E855F851D861C86FC013896E4910D
:10174000AE9E400D511D11245F874E87EA88FB88AD
:10175000088919894E855F856C857D85CE010E943B
:10176000C508F4013496E4912C898C859D85E29F0F
:10177000800D911D11248DCF682F84ED93E00C9482
:10178000EA0A6F927F928F929F92AF92BF92CF920E
:10179000DF92EF92FF920F931F93CF93DF93EC01B1
:1017A0006B015A0139014801E881F9810284F3850E
:1017B000E02D0995E881F9810288F389E02D870100
:1017C0009301A501B601CE010995A501480D591D4A
:1017D00041505109E881F9810288F389E02D930194
:1017E000B601CE010995E881F9810088F189E02DE3
:1017F0009401A501B601CE010995C60CD71CB6010E
:1018000061507109E881F9810088F189E02D940126
:10181000A501CE010995E881F9810688F789E02DB7
:10182000CE01DF91CF911F910F91FF90EF90DF904C
:10183000CF90BF90AF909F908F907F906F900994C2
:101840006F927F928F929F92AF92BF92CF92DF92D0
:10185000EF92FF920F931F93CF93DF935C01EB0105
:101860006A01490138018701DC01ED91FC916217A1
:10187000730719F5641675062CF0962D872D3A011D
:10188000C92ED82E9601261937092F5F3F4F048C99
:10189000F58DE02DA301BE01C5010995DF91CF9122
:1018A0001F910F91FF90EF90DF90CF90BF90AF907E
:1018B0009F908F907F906F9008954615570591F4F3
:1018C0002617370724F0892D4B01C22FD82F9E01F0
:1018D000281939092F5F3F4F068CF78DE02DA6019F
:1018E000B401DACF0284F385E02D0995D501ED919D
:1018F000FC910488F589E02D83019401A601BE01C5
:10190000C5010995D501ED91FC910688F789E02D77
:10191000C501DF91CF911F910F91FF90EF90DF9064
:10192000CF90BF90AF909F908F907F906F900994D1
:10193000EF92FF920F931F93DC011A960D911C9169
:101940001B9718962D913C911997ED91FC9100A051
:10195000F1A1E02D7B0150E040E070E060E00995EE
:101960001F910F91FF90EF9008954F925F926F92A9
:101970007F928F929F92AF92BF92CF92DF92EF921F
:10198000FF920F931F93CF93DF936C012B015A01AA
:1019900039014801DC01ED91FC910284F385E02DD1
:1019A0000995E201640C751CD601ED91FC91C615F8
:1019B000D7055CF40088F189E02D87019401A50129
:1019C000BE01C60109952196EFCF0688F789E02D63
:1019D000C601DF91CF911F910F91FF90EF90DF90A3
:1019E000CF90BF90AF909F908F907F906F905F90BF
:1019F0004F9009948F929F92AF92BF92CF92DF92B5
:101A0000EF92FF920F931F93CF93DF93EC015B0153
:101A10004A016901E881F9810284F385E02D099585
:101A200095012C0D3D1D21503109E881F981048873
:101A3000F589E02D78018401A401B501CE01099555
:101A4000E881F9810688F789E02DCE01DF91CF91F9
:101A50001F910F91FF90EF90DF90CF90BF90AF90CC
:101A60009F908F9009948F929F92AF92BF92CF9246
:101A7000DF92EF92FF920F931F93CF93DF93EC01CE
:101A80005B014A0169017801E881F9810284F385EB
:101A9000E02D0995C80CD91C860101501109E88177
:101AA000F9810488F589E02D9501A401B501CE01E5
:101AB0000995E881F9810688F789E02DCE01DF914B
:101AC000CF911F910F91FF90EF90DF90CF90BF903B
:101AD000AF909F908F900994EF92FF920F931F9376
:101AE000DC01ED91FC9100A0F1A1E02D09951F9181
:101AF0000F91FF90EF9008950F931F93DC01ED91EC
:101B0000FC91068CF78DE02D09951F910F9108959A
:101B10000F931F93DC01ED91FC91048CF58DE02D6A
:101B200009951F910F910895DC01ED91FC910084BE
:101B3000F185E02D09943F924F925F926F927F92D0
:101B40008F929F92AF92BF92CF92DF92EF92FF92CD
:101B50000F931F93CF93DF935C017B014A016901CF
:101B6000390187E0680E711C93E0759467949A952B
:101B7000E1F72B01400E511E10E000E0312CD0E0C7
:101B8000C0E0CE0187709927330C892B59F4FE01F0
:101B900083E0F595E7958A95E1F7E00FF11FE80DF1
:101BA000F91D349037FE0AC021E030E0A701B501ED
:101BB0006C0F7D1F84ED93E00E94940D2196CC164E
:101BC000DD06F9F68FEFE81AF80A060D171DE41482
:101BD000F504A9F6DF91CF911F910F91FF90EF903F
:101BE000DF90CF90BF90AF909F908F907F906F903D
:101BF0005F904F903F9008952F923F924F925F9247
:101C00006F927F928F929F92AF92BF92CF92DF920C
:101C1000EF92FF920F931F93CF93DF9300D000D0EA
:101C200000D0CDB7DEB73C016A013E832D83FC8234
:101C3000EB825801A41AB50AB7FE03C0B194A1946F
:101C4000B1088D809E80861A970A97FE03C09194F2
:101C5000819491088A149B045CF0902F812F0D8150
:101C60001E819D838E839C2D8D2D6B01692F782F76
:101C70000C151D055CF09D818E817E836D83692F1F
:101C8000782F902F812F8601C92ED82E1601201A69
:101C9000310A2B012D813E81421A530A57FE03C09F
:101CA000519441945108710137FE03C03FEFE31A8C
:101CB000F30AF594E7948D819E81861797075CF56A
:101CC000A1E0B0E0BA83A983C016D1064CF1D301DC
:101CD000ED91FC910484F585E02D2B813C81A801D8
:101CE0006D817E818A149B041CF04D815E81B80158
:101CF000C3010995E418F508F7FE0AC02D813E815D
:101D000089819A81280F391F3E832D83E20CF31CB1
:101D10000F5F1F4FD9CF2FEF3FEF3A832983D4CFE7
:101D200026960FB6F894DEBF0FBECDBFDF91CF91E0
:101D30001F910F91FF90EF90DF90CF90BF90AF90E9
:101D40009F908F907F906F905F904F903F902F90DB
:101D500008952091EF02260F3327331F21323105DA
:101D6000ECF420918A03FC0190E080E0243069F0DB
:101D700082E00895A091EF022191AC0141535D4FA3
:101D8000A40FB52FB11D2C930196861798F380915F
:101D9000EF02680F6093EF0280E0089581E00895FC
:101DA00010928A0381E0809369031092640361E0DA
:101DB00082E10E94190661E083E10E941906E9EBC5
:101DC000F0E080818E7F808380818D7F808388E4B6
:101DD0008093B80085E48093BC000895CF93DF938F
:101DE00091E09093CE028823B9F0C091B800D091D1
:101DF000BA008091BC008A7B8093BC0060E082E1E5
:101E00000E94190660E083E10E9419060E94D00E2C
:101E1000D093BA00C093B800DF91CF910895CF92CC
:101E2000DF92EF92FF920F931F93CF93DF93D82F00
:101E3000C62F613208F098C00E94C7066B017C0172
:101E400080918A0381116BC081E080938A03809323
:101E500069039FEF90936803109267039C0F909320
:101E600066038093650380916503DD0FD82BD093C3
:101E7000650380916403813009F078C01092640397
:101E80000E94C7066B017C01809165038093BB00B3
:101E900080918C0390918D03A0918E03B0918F035C
:101EA000892B8A2B8B2BA1F00E94C70600918C03F3
:101EB00010918D0320918E0330918F036C197D0951
:101EC0008E099F09061717072807390708F448C025
:101ED0008091BC0083FDD8CF85EC8093BC000E942C
:101EE000C7066B017C0180918A03813009F440C0F0
:101EF000809167038C1710F4C0916703E4E4F3E06A
:101F0000AAE6B3E080E08C1355C08C2FDF91CF910F
:101F10001F910F91FF90EF90DF90CF9008958091E7
:101F20008C0390918D03A0918E03B0918F03892B28
:101F30008A2B8B2B09F484CF0E94C70600918C0357
:101F400010918D0320918E0330918F036C197D09C0
:101F50008E099F09061717072807390708F070CF61
:101F600080918B030E94EE0EC0E0CFCF85EEB5CFFF
:101F700080918C0390918D03A0918E03B0918F037B
:101F8000892B8A2B8B2B09F4AECF0E94C7060091B8
:101F90008C0310918D0320918E0330918F036C1967
:101FA0007D098E099F09061717072807390708F0CA
:101FB0009ACFD6CF91919D938F5FA5CFE091A1034A
:101FC0008091A003E81730F4F0E0E659FC4F8081DF
:101FD00090E008958FEF9FEF08959091A103809175
:101FE000A0032FEF3FEF981748F4E92FF0E0E659F0
:101FF000FC4F208130E09F5F9093A103C9010895B9
:10200000CF92DF92EF92FF920F931F93CF93DF93C4
:102010007C01CB018A0120919903222389F0EB01F5
:102020006B01C40ED51ECC15DD0569F06991D70191
:10203000ED91FC910190F081E02DC7010995F3CF5E
:10204000642F0E94A90EC801DF91CF911F910F91BB
:10205000FF90EF90DF90CF900895CF93DF931F9282
:10206000CDB7DEB76983209199032223F9F020913F
:102070009E03203258F021E030E0FC0133832283BC
:1020800090E080E00F90DF91CF91089580919F03C1
:10209000E82FF0E0E255FD4F998190838F5F8093A8
:1020A0009F0380939E0381E090E0ECCF61E0CE013E
:1020B00001960E94A90EF7CF682F88EC93E00C944C
:1020C0002D10CF92DF92EF92FF920F931F93CF9339
:1020D000DF93D0919E0381E0D13208F09CC0C09183
:1020E00098030E94C7066B017C0180918A038111CD
:1020F0006CC082E080938A0381E0809369038FEF54
:102100008093680310926703D0936603AEEAB2E04F
:10211000E4E4F3E080E0D8138DC010926503809171
:102120006503CC0FC82BC093650380916403813095
:1021300009F084C0109264030E94C7066B017C0101
:10214000809165038093BB0080918C0390918D03F7
:10215000A0918E03B0918F03892B8A2B8B2BA1F03A
:102160000E94C70600918C0310918D0320918E036D
:1021700030918F036C197D098E099F090617170787
:102180002807390708F442C08091BC0083FDD8CFEE
:1021900085EC8093BC000E94C7066B017C01809196
:1021A0008A03823009F44CC0809168038F3F09F4A0
:1021B00069C080916803803209F466C08091680329
:1021C000803309F463C084E026C080918C03909131
:1021D0008D03A0918E03B0918F03892B8A2B8B2BBB
:1021E00009F483CF0E94C70600918C0310918D03E0
:1021F00020918E0330918F036C197D098E099F0900
:10220000061717072807390708F06FCF80918B034F
:102210000E94EE0E85E010929F0310929E03109292
:102220009903DF91CF911F910F91FF90EF90DF9075
:10223000CF9008959D9191938F5F6DCF85EEA9CF3B
:1022400080918C0390918D03A0918E03B0918F03A8
:10225000892B8A2B8B2B09F4A2CF0E94C7060091F1
:102260008C0310918D0320918E0330918F036C1994
:102270007D098E099F09061717072807390708F0F7
:102280008ECFC4CF80E0C7CF82E0C5CF83E0C3CF7D
:10229000CF9388E60E94880560E088EC93E00E9476
:1022A0002D1060E888EC93E00E942D10809191033E
:1022B000CAE06C2F0E94CE338295807F682F690F11
:1022C00088EC93E00E942D10809192036C2F0E9465
:1022D000CE338295807F682F690F88EC93E00E944F
:1022E0002D10809193036C2F0E94CE338295807FB6
:1022F000682F690F88EC93E00E942D108091940361
:102300006C2F0E94CE338295807F682F690F88ECF6
:1023100093E00E942D10809195036C2F0E94CE3384
:102320008295807F682F690F88EC93E00E942D10C2
:10233000809196038E516C2F0E94CE338295807FC0
:10234000682F690F88EC93E00E942D1088EC93E0D1
:102350000E946110882329F01092970380E0CF91AA
:10236000089581E08093970388E60E94880560E0E5
:1023700088EC93E00E942D10809190036C2F0E94B6
:10238000CE338295807F682F690F88EC93E00E949E
:102390002D1088EC93E00E9461108111DDCF81E067
:1023A000DECFAF92BF92DF92EF92FF920F931F9317
:1023B000CF93DF938B01040F151FEB015C01A61A6D
:1023C000B70A7501EC0EFD1ED99080913C040E9465
:1023D00088058F2D90E00E945C10C70199270E940C
:1023E0005C106D2D88EC93E00E942D1088EC93E03A
:1023F0000E9461106AE070E080E090E00E94EC06CC
:10240000C017D107F1F6DF91CF911F910F91FF9087
:10241000EF90DF90BF90AF900895EF92FF920F93EF
:102420001F93CF93DF93EC01EC80FD806E157F0549
:102430000CF070C057FF04C0240F351F50E040E07F
:102440008E819F81FA01E20FF31F8E179F071CF404
:102450009C01241B350B121613060CF05BC0922F47
:10246000842F8695869586958E9DD0018F9DB00D83
:1024700011246A0F7B1FAF8DB8A1A60FB71F47703D
:1024800049F188E0841B482F682F70E0FB01E05978
:10249000FF4FE491281708F063C0621B71092FEF0A
:1024A00030E002C0359527956A95E2F7E2230130C6
:1024B000110539F0B0F10230110561F58C91E82772
:1024C00002C08C91E82BEC93941720F12C813D8174
:1024D000A20FB31FE92FE41BE83078F0023011059A
:1024E00021F58E2F9C9190959C932C813D81A20F7C
:1024F000B31F88508830B0F7E770EE2359F0F0E052
:10250000E859FF4FE49101301105F9F010F1023064
:10251000110519F1DF91CF911F910F91FF90EF906D
:102520000895E0958C91E823CECF81E00115110547
:1025300009F480E081959E2F8C932C813D81A20F20
:10254000B31F98509830C0F7D7CF8C91E82BEC93FD
:10255000E1CFE0958C91E823FACF8C91E827F7CF73
:102560000130110509F4ADCFE0F20230110509F494
:10257000A5CFAE0DBF1DAECF0F931F93CF93DF93AB
:1025800077FF04C0260F371F70E060E0DC0114966F
:10259000CD91DC91FB01E20FF31FCE17DF071CF496
:1025A0009E01261B370B121613064CF5FA0157FD38
:1025B0003796A3E0F595E795AA95E1F7EC9FD00152
:1025C000ED9FB00DFC9FB00D11246A0F7B1FDC0145
:1025D0005F96ED91FC91E60FF71F4770552781E05C
:1025E00090E001C0880F4A95EAF7482F01301105A5
:1025F00059F0A8F02E0F3F1F02301105E1F0DF91D6
:10260000CF911F910F9108952E0F3F1FE217F307EF
:10261000B1F38191DF011197842B8C93F7CF8095D3
:102620002E0F3F1FE217F30751F39191DF0111972E
:1026300098239C93F7CFE217F30709F38191DF0109
:10264000119784278C93F7CF0F931F93FA01DC0126
:1026500056964C9156974230E9F04330A1F1413003
:1026600061F514964D915C91DA01AE1BBF0BFD0133
:10267000E21BF30B77FD0BC0DC0116964D915C91CC
:102680006417750724F4AB01BF010E94BC121F91AF
:102690000F91089514964D915C91DA01A61BB70B2A
:1026A000BD0161507109DC0116964D915C91DA0112
:1026B000AE1BBF0BFD01E21BF30B77FDE8CFAF01B3
:1026C0000E940D12E4CF16964D915C91DA01A61B83
:1026D000B70BBD0161507109CDCF0F931F93FA0164
:1026E000DC0156964C9156974230A9F0433091F157
:1026F000413019F514964D915C91DA01AE1BBF0B78
:10270000FD013197F7FD04C0AB01BF010E940D121E
:102710001F910F91089514964D915C91DA01A61BBB
:10272000B70BBD01DC0116964D915C91DA01AE1B31
:10273000BF0BFD013197621B730BF7FDE9CFDC0185
:1027400016964D915C91E417F50714F7AF010E94BE
:10275000BC12DECF16964D915C91DA01A61BB70B29
:10276000BD01621B730BCECFFC0177FD64C0808579
:102770009185681779070CF05EC057FD5CC08285B3
:102780009385481759070CF056C086898230B1F0FE
:10279000833029F1813041F484819581841B950B2C
:1027A000AB01BC01615071092130310509F108F418
:1027B00043C02230310509F463C0089584819581B6
:1027C000DC01A61BB70BBD016150710986819781A1
:1027D000DC01A41BB50BAD0141505109E5CF868149
:1027E0009781861B970BBA01AC0141505109DCCF90
:1027F000CA0157FD0796A3E095958795AA95E1F73D
:10280000A481B5818A9F90018B9F300D9A9F300DD6
:102810001124620F731F078CF0A1E02DE60FF71F44
:102820004770552721E030E001C0220F4A95EAF7B2
:102830008081822B80830895CA0157FD079633E07B
:10284000959587953A95E1F7A481B5818A9F900186
:102850008B9F300D9A9F300D1124620F731F078CD0
:10286000F0A1E02DE60FF71F4770552781E090E0BB
:1028700001C0880F4A95EAF7809590818923DACFC5
:10288000CA0157FD079623E0959587952A95E1F7AC
:10289000A481B5818A9F90018B9F300D9A9F300D46
:1028A0001124620F731F078CF0A1E02DE60FF71FB4
:1028B0004770552721E030E001C0220F4A95EAF722
:1028C00080818227B7CF08958EBD00000DB407FE2A
:1028D000FDCF8EB50895FF920F931F93CF93DF9393
:1028E000F82ED92FC62F8091F1039091F203892BF6
:1028F00009F447C08091F5030E9488058091F10397
:102900009091F203DC01ED91FC910190F081E02DBA
:1029100060E009950F2D1D2FD1E0C1508091F1038A
:102920009091F203CF3F31F1D03298F00E946110C4
:102930008091F5030E9488058091F1039091F20344
:10294000DC01ED91FC910190F081E02D60E00995B2
:10295000D1E08091F1039091F203F8016491DC01E0
:10296000ED91FC910190F081E02D0995DF5F0F5F03
:102970001F4FD3CFDF91CF911F910F91FF900C94F8
:102980006110E0910104F0910204908180910704AC
:102990008095892380830F2D1D2FC15008F438C0E6
:1029A000F80184912091EF033091F003232B29F05B
:1029B0000E9464140F5F1F4FF0CF28E030E040E822
:1029C000E091FD03F091FE0390910504582F5423EC
:1029D000D9F05081952B9083E091FF03F091000492
:1029E000908150910604952B9083E091FF03F09124
:1029F000000450819091060490959523908346950C
:102A000021503109E9F6D6CF508190959523E3CF37
:102A1000DF91CF911F910F91FF9008951F93CF9356
:102A2000DF93EC018D8D9E8D892BF9F0162F89A1F6
:102A30000E9488058D8D9E8DDC01ED91FC910190A9
:102A4000F081E02D60E009958D8D9E8DDC01ED918A
:102A5000FC910190F081E02D612F09958D8D9E8D67
:102A6000DF91CF911F910C946110ADA5BEA59C91F3
:102A70008BA9809589238C938B8D9C8D892B31F02C
:102A8000862FDF91CF911F910C94641428E030E0E1
:102A900080E8A9A5BAA599A9462F4823C1F04C9171
:102AA000942B9C93ABA5BCA59C914AA9942B9C9379
:102AB000ABA5BCA54C919AA9909594239C9386951F
:102AC0002150310931F7DF91CF911F9108954C9139
:102AD00090959423E6CF8CBD9DBD0895FF920F93F2
:102AE0001F93CF93DF938091F1039091F203892B91
:102AF00009F472C08CE08093B80065E08DE79AE03D
:102B00000E946B146091D803615084ED93E00E94A1
:102B10000E152091DA033091DB03C901079697FD6A
:102B2000079623E0959587952A95E1F72091D8039C
:102B30003091D903829F8001839F100D929F100DC9
:102B40001124C091F303D091F4038091F10390918B
:102B5000F2030C0F1D1F892B09F47CC08091F50333
:102B60000E9488058091F1039091F203DC01ED91C0
:102B7000FC910190F081E02D60E40995FF24F3942D
:102B80008091F1039091F2030C171D07E1F1BFE171
:102B9000BF15A0F40E9461108091F5030E94880582
:102BA0008091F1039091F203DC01ED91FC91019091
:102BB000F081E02D60E40995FF24F3948091F10306
:102BC0009091F2036991DC01ED91FC910190F0810B
:102BD000E02D0995F394D4CF8091EF039091F00309
:102BE000892B31F08091090490910A040E946B15A1
:102BF000E0910304F0910404908180910804809591
:102C0000892380837ACF0E9461108091F103909193
:102C1000F203892B09F45FC020910B0430910C045E
:102C200040910D0450910E0460E074E284EF90E056
:102C30000E94EF31205131094109510956954795BC
:102C4000379527952093B800DF91CF911F910F9171
:102C5000FF900895E0910104F09102048081909129
:102C60000704892B80830C171D0779F28991209125
:102C7000EF033091F003232B19F00E946414F3CF7B
:102C800028E030E040E8E091FD03F091FE039091F0
:102C90000504582F5423D9F05081952B9083E0914F
:102CA000FF03F0910004908150910604952B9083CE
:102CB000E091FF03F09100045081909106049095FB
:102CC00095239083469521503109E9F6CCCF508168
:102CD00090959523E3CFE0910304F0910404808163
:102CE00090910804892B8083AFCF1F93CF93DF93FC
:102CF000EC01162F8D8D9E8D892B29F18CE0809310
:102D0000B80066EA111167EACE010E940E158D8D9A
:102D10009E8D892B41F12FA938AD49AD5AAD60E0A8
:102D200074E284EF90E00E94EF31205131094109B3
:102D3000510956954795379527952093B800DF910F
:102D4000CF911F9108958B8D9C8D892B21F08DA99A
:102D50009EA90E946B15EFA5F8A990818CA980957A
:102D600089238083CECFEFA5F8A980819CA9892BE8
:102D70008083E5CF089590E080E008958093BB00C4
:102D800084E88093BC008091BC0087FFFCCF9091C9
:102D9000B900987F81E0983231F0983129F0903471
:102DA00019F080E008950895089584EA8093BC00A6
:102DB0008091BC0087FFFCCF8091B900887F19F01B
:102DC00080EC0C94BE1680E008955F926F927F9223
:102DD0008F929F92AF92BF92CF92DF92EF92FF922B
:102DE0000F931F93CF93DF93CDB7DEB7582E742E7A
:102DF000652EB62E922E0E94D516852D0E94BE16E7
:102E00008D2D0E94BE168C2D0E94BE168B2D8370B8
:102E1000A82A80E081108CE08A290E94BE16862DA7
:102E20000E94BE16872D0E94BE168CE0F694E79491
:102E3000D794C7948A95D1F78C2D807FC82E892D81
:102E40008F708C290E94BE16812F0E94BE16802F83
:102E50000E94BE1684E98093BC008091BC0084FD72
:102E6000FCCFDF91CF911F910F91FF90EF90DF90FA
:102E7000CF90BF90AF909F908F907F906F905F901A
:102E800008954F925F926F927F928F929F92AF922E
:102E9000BF92CF92DF92EF92FF920F931F93CF9347
:102EA000C82FC0903304D0903404E0903504F090E3
:102EB0003604CB01BA01A70196010E94EF31490106
:102EC0005A0125E0F694E794D794C7942A95D1F750
:102ED00035E096958795779567953A95D1F747E0D0
:102EE000660F771F881F991F4A95D1F7A701960192
:102EF0000E94EF3129013A018B019C01B501A40127
:102F0000552766277727E7E0440F551F661F771F71
:102F1000EA95D1F7525061097109440D551D661D9E
:102F2000771D812CA12C8C2F0E94E516CF911F912B
:102F30000F91FF90EF90DF90CF90BF90AF909F9058
:102F40008F907F906F905F904F9008958F92AF9287
:102F5000CF92DF92EF92FF920F931F938824839476
:102F6000443051056105710509F0812C4450510927
:102F700061097E4F97E0440F551F661F771F9A9592
:102F8000D1F7A22EC12CD12C7601C39400E010E021
:102F900098010E94E5161F910F91FF90EF90DF902E
:102FA000CF90AF908F900895CF93DF93D82FC62FF7
:102FB0000E94D5168D2F0E94BE168C2F0E94BE1621
:102FC00084E98093BC008091BC0084FDFCCFDF913C
:102FD000CF910895CF93C82F60E880E18C0F0E94B5
:102FE000D417EC2FF0E0EE0FFF1FE55EFB4F1182D0
:102FF0001082CF9108952F923F924F925F926F92DD
:103000007F928F929F92AF92BF92CF92DF92EF9278
:10301000FF920F931F93CF93DF9300D000D01F92A6
:10302000CDB7DEB7898380912B0490912C04A091B9
:103030002D04B0912E04892B8A2B8B2B19F481E05F
:103040000E94EA1780912F0490913004A0913104DE
:10305000B0913204892B8A2B8B2B19F482E00E94C9
:10306000EA1740902B0450902C0460902D0470902F
:103070002E04411451046104710409F47FC12981B3
:10308000222309F4A5C0C0901D04D0901E04F12C89
:10309000E12C409122044983A3019201C701B601AA
:1030A0000E94BE339B01AC018981E82FF0E0E75B11
:1030B000FE4FA081B0E00E94E4314B015C01DC01D5
:1030C000CB0180589545A84CB0428130924CAB4E14
:1030D000BB4008F446C0609128017091290180919D
:1030E0002A0190912B01A30192010E94EF31690105
:1030F0007A0181E044E0C416D104E104F10408F44B
:1031000089C086E0C816D104E104F10408F49BC02C
:1031100019829DE2C91691E0D906E104F10440F05C
:1031200029812F5F2983F694E794D794C794F1CF30
:103130004981411103C0E894C0F81982A3019201AA
:10314000C701B6010E94BE339B01AC018981E82F03
:10315000F0E0E75BFE4FA081B0E00E94E4314B015C
:103160005C01B501A40182E20E94411780911D0417
:1031700090911E04B0E0A0E08C159D05AE05BF0542
:1031800029F48091220499818917D1F0298122950F
:10319000207FB701A60182E30E94A6176091250453
:1031A0006C6681E10E94D417D0921E04C0921D0467
:1031B00029812093220480913B04806880933B0402
:1031C0008092370490923804A0923904B0923A0465
:1031D000C0902F04D0903004E0903104F09032047D
:1031E000C114D104E104F10409F4B0C080903704A3
:1031F00090903804A0903904B0903A04C501B4010D
:10320000A70196010E94EF31283031054105510593
:1032100000F582E00F900F900F900F900F90DF91CC
:10322000CF911F910F91FF90EF90DF90CF90BF90C3
:10323000AF909F908F907F906F905F904F903F9056
:103240002F900C94EA1704E0C02ED12CE12CF12C25
:1032500072CF1D82213431054105510560F08D8109
:103260008F5F8D83CC0CDD1CEE1CFF1C56954795A3
:1032700037952795EFCFC501B401A70196010E94AC
:10328000EF3129833A834B835C832FEF3FEF4FE08D
:1032900050E00E94FB3356016701E12CF12C00E065
:1032A00010E00E94283429013A019D819295907F77
:1032B0009D83C12CD12C7601C39441145104610427
:1032C000710431F0CC24CA94DC2CFFE0EF2EF12CF9
:1032D000C301B20127E0660F771F881F991F2A9547
:1032E000D1F7A70196010E94EF3149015A018B01E4
:1032F0009C0149815A816B817C81552766277727FC
:10330000E7E0440F551F661F771FEA95D1F752502B
:1033100061097109480D591D6A1D7B1D812CAD8005
:103320008AE30E94E5168CE445284628472809F0E0
:103330008CE0609126046062682B82E10E94D417C1
:1033400081E090E09093200480931F040F900F90F1
:103350000F900F900F90DF91CF911F910F91FF90E1
:10336000EF90DF90CF90BF90AF909F908F907F9025
:103370006F905F904F903F902F90089580902F0412
:1033800090903004A0903104B090320481149104E4
:10339000A104B104D9F2C0901F04D0902004F12CF4
:1033A000E12C209123042983A5019401C701B601D2
:1033B0000E94BE339B01AC018981E82FF0E0E75BFE
:1033C000FE4FA081B0E00E94E4318B019C010058C7
:1033D0001545284C30420130124C2B4E3B4008F42E
:1033E00043C0609128017091290180912A01909138
:1033F0002B01A50194010E94EF3169017A0184E05B
:10340000C816D104E104F10408F403CF96E0C9160C
:10341000D104E104F10408F458C019822DE2C21667
:1034200021E0D206E104F10440F049814F5F498375
:10343000F694E794D794C794F1CF8981811103C0A2
:10344000E894C0F81982A5019401C701B6010E9451
:10345000BE339B01AC019981E92FF0E0E75BFE4FA1
:10346000A081B0E00E94E431AB01BC0182E20E9485
:10347000411780911F0490912004B0E0A0E08C15CA
:103480009D05AE05BF0531F4809123042981821783
:1034900009F45CCF29812295207FB701A6018AE338
:1034A0000E94A617609126046C6682E10E94D417E0
:1034B000D0922004C0921F0449814093230480913C
:1034C0003B04806880933B0441CF84E0C82ED12C1C
:1034D000E12CF12CB5CF4F925F926F927F92AF9219
:1034E000BF92CF92DF92EF92FF920F931F93CF93F1
:1034F000DF93D82F082F10E0F801EE0FFF1FEE0F1B
:10350000FF1FE95DFB4F4080518062807380411452
:1035100051046104710489F48D2FDF91CF911F91C3
:103520000F91FF90EF90DF90CF90BF90AF907F9082
:103530006F905F904F900C94EA175801AA0CBB1C37
:10354000F501E55EFB4FC080D180F12CE12C055EDA
:103550001B4FF801C681A3019201C701B6010E9469
:10356000BE339B01AC01EC2FF0E0E75BFE4FA08186
:10357000B0E00E94E4319B01AC0120583545484C35
:1035800050422130324C4B4E5B4008F43FC06091BA
:1035900028017091290180912A0190912B01A301AA
:1035A00092010E94EF3169017A0184E0C816D104CA
:1035B000E104F10408F4B0CFE6E0CE16D104E10452
:1035C000F10408F470C0C0E0FDE2CF16F1E0DF06C0
:1035D000E104F10430F0CF5FF694E794D794C794F8
:1035E000F3CFC11103C0E894C0F8C0E0A301920179
:1035F000C701B6010E94BE339B01AC01EC2FF0E085
:10360000E75BFE4FA081B0E00E94E4312AE1D111D6
:1036100022E2AB01BC01822F0E944117F501E55E59
:10362000FB4F80819181B0E0A0E08C159D05AE0537
:10363000BF0521F4F80186818C1731F12C2F2295DA
:10364000207FB701A6018D2F880F880F880F865D18
:103650000E94A617F801618580E0D11180E26C64B8
:10366000682B80E18D0F0E94D417F501E55EFB4FBA
:10367000D182C082F801C68380913B0490E2D111CF
:1036800090E8892B80933B04DF91CF911F910F919C
:10369000FF90EF90DF90CF90BF90AF907F906F90B2
:1036A0005F904F90089584E0C82ED12CE12CF12C2E
:1036B0009ACFFF920F931F93CF93DF9300D0CDB794
:1036C000DEB7E0E1F1E010E000E08191080F111DAC
:1036D00081E0E532F807C9F745E150E060E171E0CB
:1036E00082E090E00E94D1110F5F1F4F1A8309837F
:1036F00042E050E0BE016F5F7F4F90E080E00E94AB
:10370000D111E9E0F1E080E191E010E000E02191E9
:10371000020F111D8E179F07D1F78091110199E0BB
:10372000F92E8F9DC001112447E050E069E071E05F
:1037300049960E94D1110F5F1F4F1A830983809110
:1037400011018F9DC001112442E050E0BE016F5F66
:103750007F4F47960E94D1110F900F90DF91CF912C
:103760001F910F91FF90089580911F01909120016A
:10377000092E000CAA0BBB0B80549340A446BE4FED
:103780008093330490933404A0933504B0933604AB
:1037900080E00E946B1A81E00C946B1A4F925F924A
:1037A0006F927F928F929F92AF92BF92CF92DF9251
:1037B000EF92FF92CF93C0901B01D0901C01E0903C
:1037C0001D01F0901E0180910A0190910B01A091C2
:1037D0000C01B0910D0140902B0450902C0460908E
:1037E0002D0470902E04C1E04C145D046E047F041F
:1037F00009F4C0E040912704509128046091290405
:1038000070912A0420910901222309F45BC0809061
:10381000130190901401A0901501B09016018C0D29
:103820009D1DAE1DBF1D880D991DAA1DBB1D1092AB
:103830003B0484179507A607B70759F08093270420
:1038400090932804A0932904B0932A0480E00E9456
:103850006B1A4C145D046E047F0469F480912F048C
:1038600090913004A0913104B091320488169906E9
:10387000AA06BB0699F0C0922B04D0922C04E092C9
:103880002D04F0922E0480922F0490923004A09286
:103890003104B09232048C2F0E94FB1760913B04DC
:1038A000662309F181EBCF91FF90EF90DF90CF90ED
:1038B000BF90AF909F908F907F906F905F904F9050
:1038C0000C94D4178090170190901801A0901901C2
:1038D000B0901A01880D991DAA1DBB1D8C199D0958
:1038E000AE09BF09A4CFCF91FF90EF90DF90CF90AA
:1038F000BF90AF909F908F907F906F905F904F9010
:10390000089585E10E94AF062091210130E0DC019D
:103910000E94F4332FEF33E040E050E00E94C531C5
:103920002093AD0208958FE00E94AF069C01A4E6AB
:10393000B0E00E9411322FEF33E040E050E00E94EF
:10394000C5312093AC020895DC01ED91FD91808199
:10395000ED91FD919081ED91FD916C9163708E23BD
:1039600009F064609F2309F06860E1ECFCE1E60F78
:10397000F11D659565956D936D917D918D919D91ED
:10398000099423C01AC012C016C010C01EC009C0BE
:1039900014C013C006C019C009C00DC007C00DC0B7
:1039A00014C062507040804090400BC06150704025
:1039B0008040904006C06E5F01C06F5F7F4F8F4FA9
:1039C0009F4F9E938E937E936E930895BF92CF9256
:1039D000DF92EF92FF920F931F93CF93DF93EC014F
:1039E000B62EC72E8D85811105C0CE010E94E80735
:1039F00081110EC01B861D861C8680E0DF91CF9151
:103A00001F910F91FF90EF90DF90CF90BF9008959E
:103A100040E060EFCE010E94950701E0E12CD12C3F
:103A200011E0CE010E944207F82ECE010E9442070B
:103A300091E0F91218C0813099F51134D8F2DB8683
:103A4000D11002C081E08D878B81882399F2239663
:103A5000EB2DFC2DCF01089629912193E817F9074A
:103A6000D9F781E0CBCFEE2DF0E0F8120FC08B85B7
:103A70001817A0F4DE01AE0FBF1F13968C918023A0
:103A800079F4F12C193008F41C87D12EEC0FFD1FAE
:103A90008381902F9095892383830AC08113F1CF6E
:103AA000FE01EE0DF11D8381802B8383FF24F394AF
:103AB0006F2DCE010E9466071F5F000F11F4E39483
:103AC00001E087E08E1508F0ACCFB7CF4F925F9240
:103AD0006F927F928F929F92AF92BF92CF92DF921E
:103AE000EF92FF920F931F93CF93DF93CDB7DEB783
:103AF00061970FB6F894DEBF0FBECDBF0E941F07BF
:103B0000C090A702D090A802E090A902F090AA026B
:103B10006C197D098E099F096938734181059105EA
:103B200008F458C08091A602811154C01092A803D5
:103B30008091AC039091AD030E94E80740E06CECEB
:103B40008091AC039091AD030E9495074091A6032C
:103B500064E48091AC039091AD030E94950780913D
:103B6000A803882391F1E091A703E9500EEE12E03B
:103B7000E33038F4F0E0EE0FFF1FEB5CFE4F008106
:103B800011818091A903882309F481C08091A60343
:103B900081117DC00E941F074B015C012801110F9C
:103BA000660877088091AC039091AD030E944207AC
:103BB000813059F00E941F07641975098609970919
:103BC000681579058A059B0568F381E08093A80351
:103BD0008093A6020E941F076C197D098E099F0918
:103BE00061347F4181059105D8F18091A602882337
:103BF000B9F1E091AC03F091AD03138615861486FC
:103C000012861186108617821682158214821382FC
:103C1000BE01665F7F4F8091AC039091AD030E941F
:103C2000E61C81113BC060E070E08EEF92EC20E07A
:103C300030E040E05FE30E9421320E948D328091AB
:103C40002401680F6093AB020E941F076093A702D4
:103C50007093A8028093A9029093AA021092A602E0
:103C600061960FB6F894DEBF0FBECDBFDF91CF9146
:103C70001F910F91FF90EF90DF90CF90BF90AF908A
:103C80009F908F907F906F905F904F900895B801B4
:103C9000110F880B990B0E94EC0697CF67E0CE01BD
:103CA0000A960E942B0799898913BDCF8091AC0396
:103CB0009091AD030E94E807882309F4B4CFBE01B8
:103CC0006F5F7F4FCE010A960E942008882309F477
:103CD000AACF68E0CE0101960E942B07998589132F
:103CE000A2CF6A8170E0762F6627770F770F770F64
:103CF000298158E0259F90011124262B372B8A8596
:103D00008031D1F4688570E08F81AB01481B510987
:103D1000CA019695982F8827979587950E94DA3340
:103D2000CB014097B90153E0660F771F5A95E1F731
:103D300060789C01260F371F213854EE35070CF4AC
:103D400072CFB901330F880B990B0E94C53220E066
:103D500030E040E05CE30E94513369CF0F931F9342
:103D6000CF93DF9380912003882359F01092900322
:103D70000E94481110922003DF91CF911F910F9163
:103D800008950E941F070091A2021091A3022091A2
:103D9000A4023091A502601B710B820B930B693E4C
:103DA00073408105910520F4012B022B032B21F791
:103DB0000E941F076093A2027093A3028093A40243
:103DC0009093A50288E60E94880560E088EC93E065
:103DD0000E942D1088EC93E00E946110882391F0DE
:103DE0001092970380919703882331F210929203E7
:103DF0001092910310929003DF91CF911F910F9138
:103E00000C94481181E08093970367E088E60E9454
:103E10000F0F1092A1038093A003873018F388EC52
:103E200093E00E94ED0FD82F982F92959770CAE0DB
:103E30008D2F8F709C9F800D11248093900388ECB0
:103E400093E00E94ED0F982F92959F708F709C9F2A
:103E5000800D11248093910388EC93E00E94ED0F74
:103E6000982F929593708F709C9F800D1124809352
:103E7000920388EC93E00E94ED0F982F92959F702B
:103E80008F709C9F800D11248093930388EC93E0A6
:103E90000E94ED0F982F92959F708F709C9F800DC0
:103EA00011248093940388EC93E00E94ED0F982FE7
:103EB00092959F708F709C9F800D11248093950325
:103EC00088EC93E00E94ED0F982F9F70925E829590
:103ED0008F708C9F900D112490939603D7FF4CCF39
:103EE00081CFCF93DF93EC0180913C040E94880541
:103EF0008D2F90E00E945C10CE0199270E945C10EB
:103F000088EC93E00E94611061E080913C040E9483
:103F10000F0F1092A1038093A003882339F088EC3F
:103F200093E00E94ED0FDF91CF91089580E0FBCFE9
:103F3000EF92FF920F931F93CF93DF938B01040FA8
:103F4000151FEB017C01E61AF70AC7018C0F9D1FB4
:103F50000E94711F8993C017D107B9F7DF91CF91E4
:103F60001F910F91FF90EF900895DF92EF92FF92D3
:103F70000F931F93CF93DF9300D0CDB7DEB71A8294
:103F800019828091110129E0829FC001112442E031
:103F900050E0BE016F5F7F4F47960E94981FF12C43
:103FA000E12C10E000E089E0D82E8091110197010A
:103FB0008D9D200D311D1124C90149960E94711F4C
:103FC000080F111D3FEFE31AF30A87E0E816F1042A
:103FD00061F70F5F1F4F89819A8108171907B1F4A4
:103FE000809111018D9DC001112447E050E069E0EE
:103FF00071E049960E94981F0F900F90DF91CF912A
:104000001F910F91FF90EF90DF9008950E94591B30
:10401000F3CFFC0101900020E9F73197AF01481B75
:10402000590BBC0184ED93E00C949A058F929F92FA
:10403000AF92BF920F931F93CF93DF93CDB7DEB7AD
:10404000A1970FB6F894DEBF0FBECDBF19A24230C4
:1040500008F44AE08E010F5D1F4F842E912CB12C85
:10406000A12CA50194010E94EF31E62FB901CA01EC
:10407000EA30F4F4E05DD801EE938D01232B242B7C
:10408000252B79F790E080E0109719F0CD010E9480
:104090000920A1960FB6F894DEBF0FBECDBFDF9109
:1040A000CF911F910F91BF90AF909F908F900895E7
:1040B000E95CE1CF682F70E090E080E04AE00C948A
:1040C0001620CF92DF92EF92FF92CF93DF936C0195
:1040D000990FEE08FF08F7FE17C08DE20E94BC0B97
:1040E000EC0166277727CB016C197D098E099F09A2
:1040F0004AE00E9416208C0F9D1FDF91CF91FF9008
:10410000EF90DF90CF9008954AE0C701B601DF91AC
:10411000CF91FF90EF90DF90CF900C941620CF932B
:10412000DF934AE00E941620EC018FE891E00E94A4
:1041300009208C0F9D1FDF91CF910895CF93DF93BE
:104140000E940920EC018FE891E00E9409208C0F69
:104150009D1FDF91CF9108950C940920CF92DF929B
:10416000EF92FF92CF93DF936C01990FEE08FF0857
:10417000F7FE1DC08DE20E94BC0BEC01662777277D
:10418000CB016C197D098E099F094AE00E94162017
:10419000C80FD91F8FE891E00E9409208C0F9D1F46
:1041A000DF91CF91FF90EF90DF90CF9008954AE09C
:1041B000C701B6010E941620EC01ECCFCF93DF932C
:1041C0000E945A20EC018FE891E00E9409208C0F98
:1041D0009D1FDF91CF9108952091DA033091DB0389
:1041E000C901079697FD079623E0959587952A952F
:1041F000E1F72091D8033091D903829FA001839FDA
:10420000500D929F500D112470E060E08091F303F7
:104210009091F4030C94CC35CF92DF92EF92FF9201
:104220000F931F93CF930E94EC201092E103109202
:10423000E0031092E3031092E20381E090E0909398
:10424000E7038093E6039093E5038093E40383E020
:104250008093E8038093E903E0914303E13108F0A0
:1042600011C1F0E0EA5CFE4D0C94EE334721AF2221
:10427000C322E022F922142328234A2365237B2327
:104280008D239D23AD23C523DD23F42304248091B6
:104290000A0190910B01A0910C01B0910D018038A1
:1042A0009649A849B10520F487E092E00E94AC202D
:1042B00060910A0170910B0180910C0190910D01A8
:1042C00030E4C32E32E4D32E3FE0E32EF12CA701DD
:1042D00096010E94EF31CA01B9014AE00E941620FE
:1042E0008091E0039091E10305969093E103809320
:1042F000E00360910A0170910B0180910C01909193
:104300000D01A70196010E94EF31603A7648814085
:10431000910520F482E991E00E94AC2060910A01AD
:1043200070910B0180910C0190910D0120E432E419
:104330004FE050E00E94EF316031774281059105F6
:1043400020F482E991E00E94AC2060910A01709112
:104350000B0180910C0190910D0120E432E44FE0BB
:1043600050E00E94EF3128EEC22E23E0D22EE12C45
:10437000F12CA70196010E94EF31CA01B9014AE070
:104380000E94162082E08093E8038093E9038091E5
:10439000E0039091E10305969093E1038093E0039D
:1043A00087E090E09093E3038093E20360910A0139
:1043B00070910B0180910C0190910D01A701960164
:1043C0000E94EF31643671058105910520F482E980
:1043D00091E00E94AC2060910A0170910B018091E4
:1043E0000C0190910D0128EE33E040E050E00E9476
:1043F000EF312AE030E040E050E00E94EF31CA01A6
:10440000B9010E948F2081E08093E8038093E90343
:104410008091AD02843620F482E991E00E94AC20C4
:104420008091AD02CAE06C2F0E94CE3390E00E94D2
:10443000612084E991E00E94AC208091AD026C2F54
:104440000E94CE33892F90E00E94612086E991E09E
:104450000E94AC20809142038823E9F088E991E032
:104460000E94AC202091AC0230E0EE24E394F12CC9
:1044700009E010E047E150E060E470E084ED93E093
:104480000E94B50CCF911F910F91FF90EF90DF909C
:10449000CF900C946E158091AB0292E3980F9536F5
:1044A00008F051C087FD04C087E092E00E94AC2074
:1044B0008091AB02082E000C990B0E94612087EFBF
:1044C0000E94BC0B8DE991E00E94AC2080913903E1
:1044D0008823E1F187E092E00E94AC208091920372
:1044E0008A3020F487E092E00E94AC208091920311
:1044F0000E945A208091900380FF2BC085EA91E0B2
:104500000E94AC20809191038A3020F482E991E0EE
:104510000E94AC20809191030E945A208091090151
:104520008823D1F087EA91E00E94AC2080911101AC
:104530008A3020F487E092E00E94AC208091110143
:104540000E945A209FCF8FE991E0BECF84E991E08D
:10455000C3CF87E092E0D4CF8AEA91E0E5CF8091A3
:1045600011010E94DE2081E08093E8038093E9033B
:10457000809143030E945A208DEA91E00E94AC2072
:1045800080911201DDCFE0911001F0E0EE0FFF1FEE
:10459000E55CFE4F20813181AAE0B0E00E9411323B
:1045A0000E948F2081E08093E8038093E90380914B
:1045B00043030E945A208FEB91E00E94AC2062CF0F
:1045C00080910901882391F089EC91E00E949E205E
:1045D00081E08093E8038093E903809143030E9484
:1045E0005A2081ED91E00E949E204CCF8DEC91E00D
:1045F000EDCF80910E0124E6829FC00111240E941C
:10460000AE2081E08093E8038093E9038091430327
:104610000E945A2082EE91E00E94AC2080EF0E941E
:10462000BC0B8EEE91E0C9CF80910F0124E6829FF2
:10463000C00111240E94AE2081E08093E8038093A2
:10464000E903809143030E945A2082EF91E0E4CF76
:1046500082E08093E8038093E903609117017091F1
:1046600018018091190190911A010E948F2081E018
:104670008093E8038093E903809143030E945A20CA
:104680008EEF91E00E94AC2080EF0E94BC0B86EC84
:1046900091E093CF82E08093E8038093E9036091F7
:1046A00013017091140180911501909116010E94DF
:1046B0008F2081E08093E8038093E9038091430396
:1046C0000E945A2089E092E0DDCF60911B01709139
:1046D0001C0180911D0190911E010E948F2081E09C
:1046E0008093E8038093E903809143030E945A205A
:1046F00084E192E0C7CF80911F01909120010E9438
:10470000AE2081E08093E8038093E9038091430326
:104710000E945A2085E292E0B5CF809121010E944B
:10472000DE2081E08093E8038093E90380914303D6
:104730000E945A2081E392E040CF809112010E94B2
:10474000DE2081E08093E8038093E90380914303B6
:104750000E945A208CE392E030CF809192038A30FD
:1047600020F482E991E00E94AC20809192030E94A3
:10477000DE2081E08093E8038093E9038091430386
:104780000E945A208CE492E018CF809191038A30E5
:1047900020F482E991E00E94AC20809191030E9474
:1047A000DE2081E08093E8038093E9038091430356
:1047B0000E945A2083E592E000CF80912201882355
:1047C00081F08CE592E00E949E2081E08093E803D6
:1047D0008093E903809143030E945A2083E692E08C
:1047E00002CF80E692E0EFCF809123010E94DE208D
:1047F00081E08093E8038093E903809143030E9462
:104800005A2085E792E0D9CE80912401082E000C31
:10481000990B0E94AE2081E08093E8038093E90326
:10482000809143030E945A2087E892E00E94AC20C6
:1048300080EF0E94BC0B87EF0E94BC0B8DE991E0DA
:10484000BCCE0E94C73585ED8093BC0080918C035F
:1048500090918D03A0918E03B0918F030796A11DB7
:10486000B11D23E0B695A795979587952A95D1F721
:104870002091BC0024FD03C010928A03089540914A
:104880008C0350918D0360918E0370918F03452BA3
:10489000462B472B69F30097A105B10541F025E3AD
:1048A0002A95F1F700000197A109B109E1CF8091A4
:1048B0008B030C94EE0E1F920F920FB60F921124E1
:1048C0002F933F934F935F936F937F938F939F9318
:1048D000AF93BF93EF93FF9380912C0390912D039F
:1048E000A0912E03B0912F03892B8A2B8B2BD1F112
:1048F00090912703E0912803F09129038081892773
:10490000808380912C0390912D03A0912E03B09170
:104910002F03181619061A061B069CF480912C0307
:1049200090912D03A0912E03B0912F030197A1091F
:10493000B10980932C0390932D03A0932E03B09381
:104940002F03FF91EF91BF91AF919F918F917F9135
:104950006F915F914F913F912F910F900FBE0F90EC
:104960001F901895809125010E944706EACF1F925B
:104970000F920FB60F9211242F933F938F939F9313
:10498000AF93BF938091130390911403A0911503EB
:10499000B09116033091120323E0230F2D3758F501
:1049A0000196A11DB11D20931203809313039093D0
:1049B0001403A0931503B0931603809117039091ED
:1049C0001803A0911903B0911A030196A11DB11DFE
:1049D0008093170390931803A0931903B0931A03BD
:1049E000BF91AF919F918F913F912F910F900FBEEB
:1049F0000F901F90189526E8230F0296A11DB11D58
:104A0000D2CF1F920F920FB60F9211242F933F9384
:104A10004F935F936F937F938F939F93AF93BF93C6
:104A2000EF93FF938091B900887F803609F44AC0E4
:104A3000F0F5883209F4A7C018F5803109F49BC05D
:104A4000B8F4882309F4F9C0883009F494C0FF91C0
:104A5000EF91BF91AF919F918F917F916F915F91F6
:104A60004F913F912F910F900FBE0F901F9018956F
:104A7000883109F488C0803251F78093680314C0EC
:104A8000803409F49DC040F48033B9F38833F9F6DB
:104A90008093680385ECB0C0803509F485C0883503
:104AA00009F496C0883499F60E942324D0CF88391F
:104AB00009F48CC038F5883729F050F4883611F0A5
:104AC000803729F683E080938A031092110357C040
:104AD000883809F47BC0803919F0803809F0B7CFE5
:104AE00080911103803208F071C0E091110381E0E0
:104AF0008E0F809311038091BB00F0E0EF50FD4FCB
:104B000080833DC0803B39F0E0F4803A09F479C0FD
:104B1000883A09F09CCF84E080938A031092F002D7
:104B20001092EF02E0919A03F0919B030995809116
:104B3000EF0281110FC081E08093EF021092CF024B
:104B400009C0803C09F4A6CF883C09F4A3CF883B78
:104B500009F07DCFE091F00281E08E0F8093F002AA
:104B6000F0E0E153FD4F80818093BB009091F00213
:104B70008091EF0229C0809165038093BB0085EC92
:104B80008093BC0064CF909167038091660398176F
:104B900058F5E091670381E08E0F80936703F0E0A2
:104BA000EC5BFC4F8081E9CFE091670381E08E0FE1
:104BB000809367038091BB00F0E0EC5BFC4F808347
:104BC00090916703809166039817C8F285E8D8CF63
:104BD000E091670381E08E0F809367038091BB00B3
:104BE000F0E0EC5BFC4F80838091690381115CCF26
:104BF00081E08093640384EA8093BC0010928A036E
:104C000026CF85EC8093BC0010928A03809111031B
:104C1000803230F4E0911103F0E0EF50FD4F10824C
:104C20006091110370E0E0919C03F0919D0381EF8E
:104C300092E00995109211030ACF1092680334CFC5
:104C40001F920F920FB60F9211242F933F934F9301
:104C50005F936F937F938F939F93AF93BF93EF93E4
:104C6000FF938091A4039091A5030E94A41CFF913F
:104C7000EF91BF91AF919F918F917F916F915F91D4
:104C80004F913F912F910F900FBE0F901F9018954D
:104C90001F920F920FB60F9211242F933F934F93B1
:104CA0005F936F937F938F939F93AF93BF93EF9394
:104CB000FF938091A2039091A3030E94A41CFF91F3
:104CC000EF91BF91AF919F918F917F916F915F9184
:104CD0004F913F912F910F900FBE0F901F901895FD
:104CE000CF93DF931092A1031092A00310929F0321
:104CF00010929E030E94D00E86E895E090939B034D
:104D000080939A0387E895E090939D0380939C039A
:104D10001092CB031092CA0388EE93E0A0E0B0E0BB
:104D20008093CC039093CD03A093CE03B093CF0395
:104D300085E591E09093C9038093C80380E5809353
:104D40003C0410921C0410921B0410921E0410923A
:104D50001D041092200410921F041092210410923E
:104D60002204109223048091320190913301A0918A
:104D700034018093240490932504A0932604109278
:104D80002704109228041092290410922A041092E9
:104D90002B0410922C0410922D0410922E041092C9
:104DA0002F0410923004109231041092320480E8E3
:104DB00092EBA6EEBEE08093330490933404A0936C
:104DC0003504B093360462E082E00E94730662E02C
:104DD00083E00E947306E2EAFAE0E491F0E0EE0F6D
:104DE000FF1FEA56F54FA591B491B0931004A0931C
:104DF0000F04E4E8FAE0449140931304E3EAFAE094
:104E0000E491F0E0EE0FFF1FEA56F54FC591D49103
:104E1000D0931204C0931104E5E8FAE0E491E09322
:104E20001404109216041092170410921804109291
:104E300019042BE33FE1C9010197F1F79C91842FFD
:104E4000892391E009F490E08881E82309F09260D9
:104E50002FE034E0909315043093A3032093A20332
:104E6000809169008C7F816080936900E89AC1E03D
:104E7000C0931A043093A5032093A4038091690082
:104E8000837F846080936900E99A82E080931A04AA
:104E90001092D7031092D60320E830E03093D90364
:104EA0002093D80380E290E09093DB038093DA03B1
:104EB0003093DD032093DC039093DF038093DE03C4
:104EC0001092EA031092E1031092E0031092E303C0
:104ED0001092E203C093E903C093E8038FEF9FEFC2
:104EE0009093E7038093E6039093E5038093E403B4
:104EF000C093EB031092EC031092EE031092ED03BB
:104F000087E691E09093D5038093D40388EC93E0F7
:104F10009093F2038093F1031092F4031092F30341
:104F20008FEF8093F8038093F9038093FA038093C3
:104F3000FB038093FC0380E58093090410920A042C
:104F400080EA96E8A1E0B0E080930B0490930C0413
:104F5000A0930D04B0930E041092F0031092EF038F
:104F600060E08EE00E947306E0E9FAE0E491E093ED
:104F7000BA03EEEAFAE0E491F0E0EE0FFF1FEA5622
:104F8000F54F859194919093BC038093BB0310924D
:104F9000C5031092C7031092C6031092C403109267
:104FA000C3031092C2031092C1031092C003109267
:104FB000BF031092BE031092BD038AEB93E090935F
:104FC000AD038093AC031092AA031092AB0310922E
:104FD000A60389E08093A703C093A803C093A90305
:104FE0001092B9031092B803DF91CF910895CF9337
:104FF000DF93CDB7DEB760970FB6F894DEBF0FBE74
:10500000CDBF789484B5826084BD84B5816084BD51
:1050100085B5826085BD85B5816085BD80916E0056
:10502000816080936E001092810080918100826087
:1050300080938100809181008160809381008091C4
:1050400080008160809380008091B10084608093B3
:10505000B1008091B00081608093B00080917A00AF
:10506000846080937A0080917A00826080937A00D5
:1050700080917A00816080937A0080917A008068C4
:1050800080937A001092C10060E084E00E94730671
:1050900060E08FE00E94730660E080E10E9473068A
:1050A00061E08CE00E94730661E084E00E941906D2
:1050B00083E0809300018091F3039091F403892BA6
:1050C00011F10E94EC202091DA033091DB038091F2
:1050D000D8039091D903213231050CF0B5C0B90144
:1050E0006052710977FF02C06F5F7F4F75956795BA
:1050F0008357910997FD019600E210E023E730E025
:1051000042ED55E0B4C02091DA033091DB03C901D0
:10511000079697FD0796B3E095958795BA95E1F7C1
:105120002091D8033091D903AC01429FC001439F25
:10513000900D529F900D11240E94A2349093F4037D
:105140008093F303892B09F0BCCF0E94EC200E94CE
:105150006E15E091AC03F091AD03138615861486AD
:105160001286118610861782168215821482138287
:105170001092AA031092AB0301E0BE016F5F7F4F54
:105180008091AC039091AD030E94E61C882309F442
:1051900046C267E0CE0101960E942B0798858913CD
:1051A000ECCF8091A603811128C08091AC0390912F
:1051B000AD030E94E807BE016F5F7F4F8091AC0393
:1051C0009091AD030E94C90740E064EB8091AC036D
:1051D0009091AD030E9495078091AC039091AD032F
:1051E0000E944207182F8091AC039091AD030E945A
:1051F000E807111102C00093A6031091A70389814B
:10520000803111F40C94B131CE0101960E946C08EA
:10521000811708F0F3C18091A7038093A7038091C1
:10522000AA038F5F8093AA038981883239F008F03E
:10523000EFC1803119F0823209F09FCF8091AB032A
:105240008F5F8093AB0399CFB9016054710977FFE9
:1052500002C06F5F7F4F759567958255910997FDE5
:10526000019600E410E022E530E042EB57E095952E
:1052700087950E949B0D82E08093F6038091F10355
:105280009091F203892B09F4AEC08CE38093F5036F
:105290001092A1031092A00310929F0310929E03FC
:1052A0000E94D00E86E895E090939B0380939A032A
:1052B00087E895E090939D0380939C038091FC0385
:1052C00087FD1EC061E00E94730661E08091FC03CF
:1052D0000E94190661E070E080E090E00E94EC0618
:1052E00060E08091FC030E9419066AE070E080E0B3
:1052F00090E00E94EC0661E08091FC030E94190698
:105300008091F1039091F203892B09F42BC18CE079
:105310008093B80064E08EEC95E00E946B1460917D
:10532000DA03615084ED93E00E940E1564E08AEC8C
:1053300095E00E946B148091F60360E1813009F0E2
:1053400064E184ED93E00E940E1564E086EC95E044
:105350000E946B148091D8039091D90380389105F5
:1053600009F02BC18091DA039091DB038032910523
:1053700009F00FC164E082EC95E00E946B1469EDC6
:1053800084ED93E00E940E158091F60362E2813075
:1053900009F061EF84ED93E00E940E1566E086EB64
:1053A00095E00E946B148091F1039091F203892B98
:1053B00009F41AC120910B0430910C0440910D04A2
:1053C00050910E0460E074E284EF90E00E94EF31AF
:1053D000205131094109510956954795379527952F
:1053E0002093B800B2CE61E08091FA030E94730668
:1053F00061E08091FB030E9473068091FA03082EFE
:10540000000C990BFC01E056F54FE491F0E0EE0F33
:10541000FF1FEE58F54F25913491309302042093ED
:105420000104FC01EE57F54FE491E09307048091ED
:10543000FB03082E000C990BFC01E056F54FE4919C
:10544000F0E0EE0FFF1FEE58F54FA591B491B09329
:105450000404A0930304FC01EE57F54FE491E0939C
:1054600008048C91E82BEC938091EF039091F0036A
:10547000892B09F434C01FB7F89480911B03811164
:1054800027C0EAEAFAE08491ECE8FAE09491E82F88
:10549000F0E0EE0FFF1FE455FA4FA591B491EC91A7
:1054A000E92321F461E08AE00E94190661E08AE0C4
:1054B0000E9473068CB580618CBD8CB580648CBDF8
:1054C00061E08DE00E94730661E08BE00E9473064C
:1054D00080911B038F5F80931B031FBFEFCE61E0A2
:1054E0008091F8030E94730661E08091F9030E94A5
:1054F00073068091F803082E000C990BFC01E0560E
:10550000F54FE491F0E0EE0FFF1FEE58F54F2591B7
:1055100034913093FE032093FD03FC01EE57F54FC9
:10552000E491E09305048091F903082E000C990B97
:10553000FC01E056F54FE491F0E0EE0FFF1FEE584E
:10554000F54FA591B491B0930004A093FF03FC0123
:10555000EE57F54FE491E09306048C91E095E82333
:10556000EC93ACCE8091EF039091F003892B31F056
:105570008091090490910A040E946B15E091030444
:10558000F0910404908180910804809589238083A0
:10559000C1CE8034910509F0F2CE63E08FEB95E047
:1055A0000E946B148091F6036FE9813009F06FEC73
:1055B00084ED93E00E940E15E2CE8036910509F04D
:1055C000DECE8091DA039091DB03409709F0D7CECD
:1055D00063E08CEB95E00E946B148091F60360E130
:1055E000813031F36FEAE4CFE0910304F0910404D9
:1055F000808190910804892B8083A7CD8981803197
:1056000011F48CE00ACECE0101960E946C0805CE02
:105610008B3309F413CE823409F0AFCD0FCE1A824A
:10562000198242E050E0BE016F5F7F4F90E080E062
:105630000E94981F62E0E62EF12C10E000E0C70106
:105640000E94711F080F111D5FEFE51AF50A87E12F
:10565000E816F104A1F70F5F1F4F89819A8108179F
:10566000190709F0E4C045E150E060E171E082E033
:1056700090E00E94981F0E94B51F809123018093A3
:10568000260310922404109225041092260460E848
:1056900080E10E94D41760E881E10E94D41760E89D
:1056A00082E10E94D41780E896E3AEEBB6E28093E5
:1056B000280190932901A0932A01B0932B0162ED58
:1056C00087EB0E94D4170E94B41B0E94CE1B0E943D
:1056D000811C0E94931C0E94661D0E94AE1E0E94A7
:1056E000EC201092E1031092E0031092E303109279
:1056F000E20381E090E09093E7038093E6039093C8
:10570000E5038093E40383E08093E8038093E90357
:1057100081E091E00E949E2081E08093E8038093E5
:10572000E90382E992E00E949E200E946E1568EED5
:1057300073E080E090E00E94EC060E940C215CEA9D
:10574000252E5AE0352E84E00E94F00520910801B4
:10575000892B09F0B9C5222361F0109208010E943B
:105760001F0760931C0370931D0380931E03909387
:105770001F0380911A04823008F070C0F8948FE003
:1057800094E00E94A41C609116047091170480910B
:1057900018049091190478942091260330E050E089
:1057A00040E00E94C53169017A018091220188237D
:1057B00041F0F094E094D094C094C11CD11CE11C41
:1057C000F11C8090220390902303A0902403B090BA
:1057D00025038C149D04AE04BF0409F4E3C084E0E7
:1057E0000E94F005892B09F4DDC0E09143038FEF9F
:1057F0008E0F843018F481E080932103E13108F0AA
:10580000BAC0F0E0EA5FF34D0C94EE33302C3C2D3F
:105810005C2D7A2D812DA52DC92D362EA32EFF2E80
:10582000472F6C2F922FB22FCE2FE12FFE2F0E94E9
:10583000591B21CF1092430367C58F5F843059F005
:105840008093430380914303813108F476C584E05B
:105850008093430372C510924303F4CFF89493CF1F
:1058600040900A0150900B0160900C0170900D0166
:10587000A0910F01B0E020EA36E841E050E00E943C
:10588000E4316D877E878F87988BA0910E01B0E001
:105890000E94E43169877A878B879C878C149D04EA
:1058A000AE04BF040CF0B8C02D853E854F855889E5
:1058B000241535054605570550F1E0911001F0E03B
:1058C000EE0FFF1FE55CFE4F20813181AAE0B0E0C2
:1058D0000E9411324B015C01C301B201A501940188
:1058E0000E94EF31480C591C6A1C7B1C6115710524
:1058F0008105910521F0461A570A680A790A4092F3
:105900000A0150920B0160920C0170920D0180917E
:105910000A0190910B01A0910C01B0910D01298514
:105920003A854B855C8582179307A407B50740F439
:1059300020930A0130930B0140930C0150930D0109
:1059400080910A0190910B01A0910C01B0910D0181
:105950002D853E854F855889281739074A075B07EB
:1059600040F420930A0130930B0140930C015093B3
:105970000D010E94CE1B0E941F0760933A03709393
:105980003B0380933C0390933D0381E08093390374
:105990000E940C21C0922203D0922303E0922403A0
:1059A000F092250381E10E94F00520914203892BAA
:1059B00009F4D1C4211105C081E0809342030E9403
:1059C0000C2180914203882309F4E5C380913803B8
:1059D0008111E1C3809143038150833008F0DBC320
:1059E000809125018C3009F029C3ECE7FAE014918D
:1059F00017FDCCC361E08CE00E947306112309F40B
:105A00008FC3123009F0A3C38091B100887F8460F6
:105A10008093B10089EF3EC4C814D904EA04FB04A2
:105A20000CF075CF89859A85AB85BC8548165906DB
:105A30006A067B0608F46BCFE0911001F0E0EE0FF0
:105A4000FF1FE55CFE4F20813181AAE0B0E00E949B
:105A500011324B015C01C301B201A50194010E9406
:105A6000EF31611571058105910509F044CF4818A2
:105A700059086A087B0843CF809111019091120167
:105A80008C149D04AE04BF0474F4891718F48F5F5E
:105A90008093110180911101981710F490931101D6
:105AA0000E94B51F66CFC814D904EA04FB0494F71A
:105AB000882381F38150ECCF809110018C149D04D8
:105AC000AE04BF0474F4863018F48F5F8093100125
:105AD00080911001873008F44ECF86E0809310014A
