:100000000C945C050C9474270C944C270C94840578
:100010000C9484050C9484050C9484050C94872519
:100020000C9484050C9484050C9484050C9484052C
:100030000C9484050C9484050C9484050C9484051C
:100040000C94E3250C9484050C9484050C9484058D
:100050000C9484050C9484050C9484050C948405FC
:100060000C942D260C948405000103070F1F3F7F7D
:100070000080C0E0F0F8FCFE00000000003E5B4F96
:100080005B3E3E6B4F6B3E1C3E7C3E1C183C7E3CF8
:10009000181C577D571C1C5E7F5E1C00183C180006
:1000A000FFE7C3E7FF0018241800FFE7DBE7FF3096
:1000B000483A060E2629792926407F050507407F04
:1000C00005253F5A3CE73C5A7F3E1C1C08081C1C77
:1000D0003E7F14227F22145F5F005F5F06097F016D
:1000E0007F006689956A606060606094A2FFA29458
:1000F00008047E040810207E201008082A1C080826
:100100001C2A08081E101010100C1E0C1E0C303873
:100110003E3830060E3E0E06000000000000005F74
:1001200000000007000700147F147F14242A7F2A90
:100130001223130864623649562050000807030052
:10014000001C2241000041221C002A1C7F1C2A089E
:10015000083E080800807030000808080808000001
:1001600060600020100804023E5149453E00427F75
:10017000400072494949462141494D331814127FC4
:100180001027454545393C4A494931412111090764
:100190003649494936464949291E000014000000E5
:1001A00040340000000814224114141414140041B7
:1001B00022140802015909063E415D594E7C121174
:1001C000127C7F494949363E414141227F414141AC
:1001D0003E7F494949417F090909013E4141517327
:1001E0007F0808087F00417F41002040413F017F98
:1001F000081422417F404040407F021C027F7F0460
:1002000008107F3E4141413E7F090909063E4151A8
:10021000215E7F09192946264949493203017F0198
:10022000033F4040403F1F2040201F3F4038403F99
:10023000631408146303047804036159494D4300AF
:100240007F4141410204081020004141417F0402E6
:10025000010204404040404000030708002054547D
:1002600078407F284444383844444428384444285B
:100270007F385454541800087E090218A4A49C78AE
:100280007F0804047800447D40002040403D007F0A
:100290001028440000417F40007C047804787C08EA
:1002A0000404783844444438FC18242418182424BE
:1002B00018FC7C08040408485454542404043F44A3
:1002C000243C4040207C1C2040201C3C4030403CD2
:1002D00044281028444C9090907C4464544C440032
:1002E0000836410000007700000041360800020196
:1002F0000204023C2623263C1EA1A161123A404082
:10030000207A3854545559215555794122545478FE
:1003100042215554784020545579400C1E52721297
:100320003955555559395454545939555454580020
:1003300000457C410002457D420001457C407D1224
:1003400011127DF0282528F07C5455450020545486
:100350007C547C0A097F4932494949323A44444431
:100360003A324A4848303A4141217A3A424020786C
:10037000009DA0A07D3D4242423D3D4040403D3C6D
:1003800024FF2424487E4943662B2FFC2F2BFF0992
:1003900029F620C0887E0903205454794100004486
:1003A0007D413048484A32384040227A007A0A0A71
:1003B000727D0D19317D2629292F282629292926E4
:1003C00030484D4020380808080808080808382F29
:1003D00010C8ACBA2F102834FA00007B00000814B3
:1003E0002A142222142A14085500550055AA55AA89
:1003F00055AAFF55FF55FF000000FF00101010FF29
:1004000000141414FF001010FF00FF1010F010F083
:10041000141414FC001414F700FF0000FF00FF1474
:1004200014F404FC141417101F10101F101F1414C0
:10043000141F00101010F0000000001F101010100A
:100440001F10101010F010000000FF1010101010FE
:1004500010101010FF10000000FF140000FF00FF3C
:1004600000001F10170000FC04F4141417101714D8
:1004700014F404F40000FF00F714141414141414FA
:10048000F700F7141414171410101F101F1414146D
:10049000F4141010F010F000001F101F0000001FD7
:1004A00014000000FC140000F010F01010FF10FF0A
:1004B000141414FF141010101F00000000F010FF9F
:1004C000FFFFFFFFF0F0F0F0F0FFFFFF0000000083
:1004D00000FFFF0F0F0F0F0F3844443844FC4A4A07
:1004E0004A347E02020606027E027E0263554941BC
:1004F000633844443C04407E201E2006027E0202F3
:1005000099A5E7A5991C2A492A1C4C7201724C3006
:100510004A4D4D303048784830BC625A463D3E49DD
:100520004949007E0101017E2A2A2A2A2A44445F81
:10053000444440514A444040444A51400000FF0175
:1005400003E080FF000008086B6B08361236243683
:10055000060F090F060000181800000010100030E8
:1005600040FF0101001F01011E00191D1712003C70
:100570003C3C3C0000000000005EBCE2613FDD83CB
:10058000C29C7E20A3FD1F41009D23BE46DB65F873
:100590008C11AF32CA57E974000000080002010054
:1005A000000304070000000000000000000000003D
:1005B000240027002A00DB40A4A62EAFDA0281DA4D
:1005C0001281DA02818F2000A1C8D300408DAED500
:1005D00080A8000060000000000000000000000093
:1005E000000000E00000000000000000000000002B
:1005F0000001E0000000000000000000000000001A
:1006000001F00000000000000000000000000003F6
:10061000F00000000000000000000000000007F0F3
:100620000000000000000000000000000007F800CB
:100630000000000000000000000000000FF80000B3
:100640000003C0007E000001E0007F0FF800000002
:1006500003C000FE000001E000FFEFF8000000030F
:10066000C000FE000001E000FFFFF800000003C032
:1006700000F00000000F007FFE7FC0000003C000FC
:10068000F00000000F003FFE7FF83FF1FBCFFCFEC3
:10069000F3BC3DEFE01FFE7FFF7FFBFFDFFEFEFFB1
:1006A000BC3DEFE01FC6FFFF7FFBFFDFFEFEFFBC90
:1006B0003DEFE00FE3C7FE787BC3DE1EF0FFBC3DDD
:1006C000EF0007FF87FC787BC3DE1EF0F83C3DEFB0
:1006D0000001FFFFF0007BC3C01EF0F03C3DEF00C7
:1006E00001F37FE03FFBC3CFFEF0F03C3DEF0003A2
:1006F000E33F807FFBC3DFFEF0F03C3DEF0007E708
:100700003C00787BC3DE1EF0F03C3DEF0007FFBEEF
:1007100000787BC3DE1EF0F03C3DEF0007FFFE00DB
:10072000787BC3DE1EF0F03C3DEF000FFFFE007F44
:10073000FBFFDFFEF0F03FFDEFE00FFFFF007FFB70
:10074000FFDFFEF0F03FFDEFE00FF9FF003E79F92B
:10075000CF9EF0F01F3DE7E01FF1FF00000000001A
:10076000000000000000001F80FF007FFFFFFFFF70
:10077000FFFFFFFFFFE01C007F007FFFFFFFFEB4D5
:100780006D888D18E000001F007FFFFFFFFE95AD14
:100790007DB577E000000F007FFFFFFFFEA5AD9D58
:1007A0008D19E0000006007FFFFFFFFEB5ADEDB53F
:1007B0007EE000000000000180000000000000005A
:1007C0000000038000000000000000000007C000DF
:1007D000000000000000000007C000000000000052
:1007E0000000000FC00000000000000000001FE03B
:1007F0000000000000000000001FE00000000000FA
:10080000000000003FE00000000000000000003F8A
:10081000F00000000000000000007FF00000000079
:100820000000001FF87FF0000000000000003FFE05
:100830007FF0000000000000003FFF7FF00000009C
:10084000000000001FFFFBE0000000000000000FA0
:10085000FFF9FFC00000000000000FFFF9FFF800E3
:10086000000000000007FFF1FFFF00000000000093
:1008700003FC73FFFF80000000000001FE3FFFFF4C
:1008800080000000000000FF1E0FFF0000000000BD
:1008900000007FFE1FFC000000000000003FFFFF83
:1008A000F8000000000000000FDFFFE00000000083
:1008B0000000001F19FFC0000000000000003F3CC6
:1008C000FF00000000000000007E7CF80000000037
:1008D000000000007FFE7C0000000000000000FF20
:1008E000FFFC0000000000000000FFFFFE00000011
:1008F0000000000000FFFFFE0000000000000001FB
:10090000FFEFFE0000000000000001FFCFFE00002E
:10091000000000000003FF07FE00000000000000D0
:1009200003FC07FE0000000000000003F003FE00CF
:10093000000000000000018000FE00000000000038
:10094000000000007E000000000000000000003EEB
:10095000000000000000000000000C00000000008B
:1009600000078000FC000003C0000000078001FCBD
:10097000000003C0000000078001FC000003C0006D
:100980000000078001E00000001E00000007800159
:10099000E00000001E007FE3F79FF9FDE7787BDFB2
:1009A000C0FFF7FFBFFDFDFF787BDFC0FFF7FFBF94
:1009B000FDFDFF787BDFC0F0F787BC3DE1FF787B72
:1009C000DE00F0F787BC3DE1F0787BDE0000F787C2
:1009D000803DE1E0787BDE007FF7879FFDE1E078F6
:1009E0007BDE00FFF787BFFDE1E0787BDE00F0F7FC
:1009F00087BC3DE1E0787BDE00F0F787BC3DE1E0BD
:100A0000787BDE00F0F787BC3DE1E0787BDE00FF1D
:100A1000F7FFBFFDE1E07FFBDFC0FFF7FFBFFDE1B8
:100A2000E07FFBDFC07CF3F39F3DE1E03E7BCFC086
:100A30000000000000000000000000FFFFFFFFFFBB
:100A4000FFFFFFFFFFC0FFFFFFFFFD68DB111A3153
:100A5000C0FFFFFFFFFD2B5AFB6AEFC0FFFFFFFF48
:100A6000FD4B5B3B1A33C0FFFFFFFFFD6B5BDB6A97
:100A7000FDC000000000250028002B00022200FF1E
:100A80002100010204081020408001020408102007
:100A900001020408102000000000230026002900A5
:100AA0000404040404040404020202020202030314
:100AB000030303039C270C3411241FBECFEFD8E09F
:100AC000DEBFCDBF12E0A0E0B1E0ECE6F0E702C08F
:100AD00005900D92A03DB107D9F724E0A0EDB2E05A
:100AE00001C01D92A038B207E1F715E0CBE5D5E0D3
:100AF00004C02197FE010E945836CA35D107C9F7B4
:100B00000E9423290C9429380C940000089508951C
:100B100091E09093D8038093D7031092DE03109254
:100B2000DD0308958091DF039091E003891B990B09
:100B300008950895AF92BF92CF92DF92EF92FF9205
:100B40000F931F93CF93DF936C017B018B01040FF5
:100B5000151FEB015E01AE18BF08C017D10759F091
:100B60006991D601ED91FC910190F081E02DC601D3
:100B70000995892B79F7C501DF91CF911F910F91CD
:100B8000FF90EF90DF90CF90BF90AF9008958330AB
:100B900081F028F4813099F08230A9F008958730EF
:100BA000A9F08830C9F08430B1F4809180008F7D45
:100BB00003C0809180008F7780938000089584B572
:100BC0008F7784BD089584B58F7DFBCF8091B00071
:100BD0008F778093B00008958091B0008F7DF9CF1A
:100BE000CF93DF93282F30E0F901E856FA4F849134
:100BF000F901EE57F54FD491F901E056F54FC49144
:100C0000CC23A1F081110E94C705EC2FF0E0EE0F7C
:100C1000FF1FEA56F54FA591B491EC91ED2381E0C9
:100C200090E009F480E0DF91CF91089580E090E0BA
:100C3000FACF1F93CF93DF93282F30E0F901E856C6
:100C4000FA4F8491F901EE57F54FD491F901E0562E
:100C5000F54FC491CC23A9F0162F81110E94C7052E
:100C6000EC2FF0E0EE0FFF1FEE58F54FA591B49179
:100C70008FB7F894EC91111108C0D095DE23DC9366
:100C80008FBFDF91CF911F910895DE2BF8CF909108
:100C9000290189130BC0ECE7FAE0E4919FEF9093F0
:100CA0002901E13049F028F0E23061F060E00C9475
:100CB000190610926E00FACF90916F009D7F90936D
:100CC0006F00F4CF909170009D7F9093700091E041
:100CD0009093B0009091B100987F94609093B10090
:100CE0001092B300E3CFCF93DF9390E0FC01EE5777
:100CF000F54F24918056954FFC0184918823C9F0CB
:100D000090E0880F991FFC01E455FA4FA591B4912A
:100D1000FC01EE58F54FC591D49161110DC09FB7FC
:100D2000F8948C91209582238C93888128232883A2
:100D30009FBFDF91CF910895623051F49FB7F8942F
:100D40003C91822F809583238C93E8812E2BEFCFCB
:100D50008FB7F894EC912E2B2C938FBFEACF209174
:100D6000000190E4299F900111248E50822B8093E2
:100D70007C0080917A00806480937A0080917A0070
:100D800086FDFCCF809178009091790008953FB75F
:100D9000F8948091490390914A03A0914B03B0913C
:100DA0004C0326B5A89B05C02F3F19F00196A11D45
:100DB000B11D3FBFBA2FA92F982F8827BC01CD01A5
:100DC000620F711D811D911D42E0660F771F881F04
:100DD000991F4A95D1F708958F929F92AF92BF9233
:100DE000CF92DF92EF92FF926B017C010E94C706C7
:100DF0004B015C01C114D104E104F104B9F00E947B
:100E0000C706681979098A099B09683E73408105FC
:100E1000910580F321E0C21AD108E108F10888EEBB
:100E2000880E83E0981EA11CB11CE4CFFF90EF90C8
:100E3000DF90CF90BF90AF909F908F9008952FB785
:100E4000F894609145037091460380914703909117
:100E500048032FBF0895DC0180E0615090F09D9120
:100E60009827E92FEF70F0E0E858FA4F2491E92F26
:100E7000E295EF70F0E0E857FA4FE491822F8E2769
:100E8000ECCF0895DC012C911196ED91FC91F89432
:100E90008181822B81839281322F3095932392839B
:100EA00087E090E00197F1F781818323818383E2DA
:100EB00090E00197F1F790817894EFECF0E03197B2
:100EC000F1F7922381E009F480E00895FC0190811C
:100ED0000180F281E02D292F209560FF14C0F89445
:100EE0008281822382838181892B8183A3E2B0E086
:100EF0001197F1F78281982B9283789487ED90E097
:100F00000197F1F70895F894828182238283818189
:100F1000892B8183AFEFB0E01197F1F78281982B95
:100F2000928378948FE090E0EBCFDF92EF92FF9284
:100F30000F931F93CF93DF93EC01D62EE42E08E09E
:100F400010E0FF24F39461E08D2D8F2109F460E01F
:100F5000CE010E946607FF0C01501109A1F7E110B4
:100F600010C0F894E981FA81918188818095892364
:100F70008183E981FA8192818881809589238283A6
:100F80007894DF91CF911F910F91FF90EF90DF90B8
:100F90000895EF92FF920F931F93CF93DF938C01ED
:100FA0007B0140E065E50E949507E70188E0E80ED7
:100FB000F11C699140E0C8010E949507CE15DF053C
:100FC000C1F7DF91CF911F910F91FF90EF9008959E
:100FD000FC0190810180F281E02DF8948181292F1C
:100FE00020958223818378943DE743E050E031509F
:100FF00029F1DA011197F1F780818923C1F3F8947F
:101000008281822382838181892B81837894ABE7DB
:10101000B7E01197F1F7F894818182238183A3E1EE
:10102000B1E01197F1F78081982381E009F080E029
:101030007894E3E6F6E03197F1F7089580E00895BB
:10104000AF92BF92CF92DF92EF92FF920F931F93D6
:10105000CF93DF938B01BC018091EB039091EC0364
:101060000E94C90740E06EEB8091EB039091EC0386
:101070000E949507E801680189E0C80ED11CA09084
:10108000EB03B090EC0388E0E82EF12C10E001E0D7
:10109000C5010E9442078111102B000F81E0E81A60
:1010A000F108B1F71993CC16DD0649F78091EB03EF
:1010B0009091EC030E94E80791E0813009F090E004
:1010C000892FDF91CF911F910F91FF90EF90DF90CB
:1010D000CF90BF90AF9008950F931F93CF93DF935E
:1010E000CDB7DEB729970FB6F894DEBF0FBECDBFE0
:1010F0008C018091EB039091EC030E94E807811131
:1011000002C080E01FC0BE016F5F7F4FC8010E9418
:1011100020088823B1F368E0CE0101960E942B07D6
:1011200099858913EECF8D818F33B9F020F48F31FB
:1011300041F789E007C08F3521F08F3711F78CE038
:1011400001C08BE029960FB6F894DEBF0FBECDBF6D
:10115000DF91CF911F910F9108958AE0F3CF089509
:10116000FC016370668B84819581268137816130B3
:1011700039F0633029F0918780873387228708957B
:10118000318720879387828708952F923F924F92CD
:101190005F926F927F928F929F92AF92BF92CF9207
:1011A000DF92EF92FF920F931F93CF93DF93CDB710
:1011B000DEB76A970FB6F894DEBF0FBECDBF9A8F29
:1011C000898F7A8369834A01D22E18870F8337016A
:1011D000BC2CDC0159962D913C915A972115310573
:1011E00009F015C118968D919C9119976817790788
:1011F0000CF0D7C11A968D919C91481759070CF0A5
:10120000D0C14C2C512CB6E0CB9E600D711D112429
:101210007C876B87161617060CF0C3C1EA2DF0E029
:10122000FA87E98793E0EE0FFF1F9A95E1F7F88BB5
:10123000EF87CF01840F951F181619060CF0B1C166
:10124000A98DBA8D58968C91811104C0BFEABD1545
:1012500008F4D394A98DBA8DED91FC911197028475
:10126000F385E02DCD010995B5E0DB9EC001112489
:10127000E981FA81FC83EB83312C212C9C012858D5
:101280003F4F388F2F8B4A2D50E05E8B4D8BEF896F
:10129000F88DE20DF31D44919E828D82D12CC12CDC
:1012A00069817A81620D731D7A8B698B842F90E03E
:1012B0009C8B8B8BE98DFA8DA081B18140FF82C020
:1012C000F1E0BF126FC0AF126DC01C96ED91FC91A2
:1012D0002F813885A4014C0D5D1D69897A89898D1E
:1012E0009A8D0995EB89FC89F595E7954E2F5FEF6F
:1012F000C51AD50A6D817E818D899E89680F791FF7
:101300007E836D8398E0C916D10481F6AFEF2A1A67
:101310003A0AEB81FC81E40DF51DFC83EB83F5E0DB
:101320002F16310409F0B3CF2F81388526153705E4
:10133000B9F0A98DBA8DED91FC91B1E0BB1257C007
:10134000AB1255C069817A816B5F7F4F0088F1894C
:10135000E02D830128E030E0A401898D9A8D099564
:10136000A98DBA8DED91FC9111970688F789E02D32
:10137000CD016A960FB6F894DEBF0FBECDBFDF91E8
:10138000CF911F910F91FF90EF90DF90CF90BF9082
:10139000AF909F908F907F906F905F904F903F9015
:1013A0002F9009941E96ED91FC91EF80F8840985A9
:1013B0001A8592014D815E816B817C81898D9A8D28
:1013C000099590CF2F8138852615370509F48ACFE6
:1013D00031E0B31207C0A31205C01C96ED91FC9139
:1013E000930178CF1E96ED91FC917301E0CF6B8550
:1013F0007C85641975090684F785E02D73010F85D6
:1014000018899201A401898D9A8D0995A9CFF901B6
:1014100034969491329745915491D91AB7E0DB9E56
:10142000400D511D1124F901259134913C8B2B8BDA
:10143000FA0125903490FA013296749031963491E5
:10144000398B329664903196449041E04C1518F0F7
:101450004A1508F07FC0662D062C000C770B7C83A4
:101460006B83842D042C000C990B9E838D83A98D96
:10147000BA8DED91FC9111970284F385E02DCD0199
:101480000995512CD12CC12CEA2DF0E0FA87E9877F
:101490002B2D30E03C872B87A401440D511D47FCC8
:1014A0005A95588F4F8B69817A81660D711D67FC43
:1014B0007A957E876D877989C71608F051CF2C2DD4
:1014C00030E04D815E81420F531FA985BA854A9F46
:1014D000C0014B9F900D5A9F900D1124FC01E80D07
:1014E000F91DF88BEF87852D612C4F89588D420FA0
:1014F000531F5E8B4D8B671408F050C044244394F7
:10150000480E877041F4C1010196EB89FC89E20D18
:10151000F31DD4901C01D7FE19C0A98DBA8DED9191
:10152000FC91662D70E0B1E0BB1219C0AB1217C080
:101530002D853E85620F731F0484F585E02D2F8174
:1015400038854D895E89898D9A8D0995DD0C639466
:10155000842DD1CF1E821D821C821B8288CF4B819D
:101560005C81640F751FAB85BC856A9FC0016B9F52
:10157000900D7A9F900D112469817A81680F791FEF
:101580000684F785E02DEF80F88409851A859D0192
:101590004F855889898D9A8D0995D8CF570CC3945A
:1015A0008ACF6A960FB6F894DEBF0FBECDBFDF912B
:1015B000CF911F910F91FF90EF90DF90CF90BF9050
:1015C000AF909F908F907F906F905F904F903F90E3
:1015D0002F9008958F929F92AF92CF92EF92FF92A9
:1015E0000F931F93CF93DF93EC01262F898D9A8D54
:1015F000009709F051C06A30D1F41D861C868D8990
:1016000048E0849F900111248E859F85820F931F4F
:101610009F878E8781E090E0DF91CF911F910F919E
:10162000FF90EF90CF90AF909F908F9008956D3086
:1016300089F3CC88AD888F898823C1F08C859D85FE
:1016400036E0C39E800D911D1124488559854817A9
:10165000590764F44E855F851D861C8638E0A39E7D
:10166000C0011124840F951F9F878E87EA88FB880D
:10167000088919894E855F856C857D85CE010E941C
:10168000C5082C898C859D8546E0249F800D911D81
:1016900011249D878C87BECF6A3069F41D861C8615
:1016A000FC013896E4912D898E859F85E29F800DFF
:1016B000911D1124ADCF6D3009F4ACCFFC013496EF
:1016C0003491631708F4A6CF3296E491E61708F434
:1016D000A1CFFC01329685909490462F431B342F66
:1016E00047E0349F800C911C1124F4013296349110
:1016F0003196E4913323A9F1EE2399F1CC88F401DA
:101700003596E491AD884F89442301F10E2E000CEB
:10171000FF0BE30FF11DCE9EA001CF9E500D1124B3
:101720006C857D85460F571F688579856417750719
:101730006CF44E855F851D861C86FC013896E4910D
:10174000AE9E400D511D11245F874E87EA88FB88AD
:10175000088919894E855F856C857D85CE010E943B
:10176000C508F4013496E4912C898C859D85E29F0F
:10177000800D911D11248DCF682F83E194E00C948E
:10178000EA0A6F927F928F929F92AF92BF92CF920E
:10179000DF92EF92FF920F931F93CF93DF93EC01B1
:1017A0006B015A0139014801E881F9810284F3850E
:1017B000E02D0995E881F9810288F389E02D870100
:1017C0009301A501B601CE010995A501480D591D4A
:1017D00041505109E881F9810288F389E02D930194
:1017E000B601CE010995E881F9810088F189E02DE3
:1017F0009401A501B601CE010995C60CD71CB6010E
:1018000061507109E881F9810088F189E02D940126
:10181000A501CE010995E881F9810688F789E02DB7
:10182000CE01DF91CF911F910F91FF90EF90DF904C
:10183000CF90BF90AF909F908F907F906F900994C2
:101840006F927F928F929F92AF92BF92CF92DF92D0
:10185000EF92FF920F931F93CF93DF935C01EB0105
:101860006A01490138018701DC01ED91FC916217A1
:10187000730719F5641675062CF0962D872D3A011D
:10188000C92ED82E9601261937092F5F3F4F048C99
:10189000F58DE02DA301BE01C5010995DF91CF9122
:1018A0001F910F91FF90EF90DF90CF90BF90AF907E
:1018B0009F908F907F906F9008954615570591F4F3
:1018C0002617370724F0892D4B01C22FD82F9E01F0
:1018D000281939092F5F3F4F068CF78DE02DA6019F
:1018E000B401DACF0284F385E02D0995D501ED919D
:1018F000FC910488F589E02D83019401A601BE01C5
:10190000C5010995D501ED91FC910688F789E02D77
:10191000C501DF91CF911F910F91FF90EF90DF9064
:10192000CF90BF90AF909F908F907F906F900994D1
:10193000EF92FF920F931F93DC011A960D911C9169
:101940001B9718962D913C911997ED91FC9100A051
:10195000F1A1E02D7B0150E040E070E060E00995EE
:101960001F910F91FF90EF9008954F925F926F92A9
:101970007F928F929F92AF92BF92CF92DF92EF921F
:10198000FF920F931F93CF93DF936C012B015A01AA
:1019900039014801DC01ED91FC910284F385E02DD1
:1019A0000995E201640C751CD601ED91FC91C615F8
:1019B000D7055CF40088F189E02D87019401A50129
:1019C000BE01C60109952196EFCF0688F789E02D63
:1019D000C601DF91CF911F910F91FF90EF90DF90A3
:1019E000CF90BF90AF909F908F907F906F905F90BF
:1019F0004F9009948F929F92AF92BF92CF92DF92B5
:101A0000EF92FF920F931F93CF93DF93EC015B0153
:101A10004A016901E881F9810284F385E02D099585
:101A200095012C0D3D1D21503109E881F981048873
:101A3000F589E02D78018401A401B501CE01099555
:101A4000E881F9810688F789E02DCE01DF91CF91F9
:101A50001F910F91FF90EF90DF90CF90BF90AF90CC
:101A60009F908F9009948F929F92AF92BF92CF9246
:101A7000DF92EF92FF920F931F93CF93DF93EC01CE
:101A80005B014A0169017801E881F9810284F385EB
:101A9000E02D0995C80CD91C860101501109E88177
:101AA000F9810488F589E02D9501A401B501CE01E5
:101AB0000995E881F9810688F789E02DCE01DF914B
:101AC000CF911F910F91FF90EF90DF90CF90BF903B
:101AD000AF909F908F900994EF92FF920F931F9376
:101AE000DC01ED91FC9100A0F1A1E02D09951F9181
:101AF0000F91FF90EF9008950F931F93DC01ED91EC
:101B0000FC91068CF78DE02D09951F910F9108959A
:101B10000F931F93DC01ED91FC91048CF58DE02D6A
:101B200009951F910F910895DC01ED91FC910084BE
:101B3000F185E02D09943F924F925F926F927F92D0
:101B40008F929F92AF92BF92CF92DF92EF92FF92CD
:101B50000F931F93CF93DF935C017B014A016901CF
:101B6000390187E0680E711C93E0759467949A952B
:101B7000E1F72B01400E511E10E000E0312CD0E0C7
:101B8000C0E0CE0187709927330C892B59F4FE01F0
:101B900083E0F595E7958A95E1F7E00FF11FE80DF1
:101BA000F91D349037FE0AC021E030E0A701B501ED
:101BB0006C0F7D1F83E194E00E94940D2196CC165A
:101BC000DD06F9F68FEFE81AF80A060D171DE41482
:101BD000F504A9F6DF91CF911F910F91FF90EF903F
:101BE000DF90CF90BF90AF909F908F907F906F903D
:101BF0005F904F903F9008952F923F924F925F9247
:101C00006F927F928F929F92AF92BF92CF92DF920C
:101C1000EF92FF920F931F93CF93DF9300D000D0EA
:101C200000D0CDB7DEB73C016A013E832D83FC8234
:101C3000EB825801A41AB50AB7FE03C0B194A1946F
:101C4000B1088D809E80861A970A97FE03C09194F2
:101C5000819491088A149B045CF0902F812F0D8150
:101C60001E819D838E839C2D8D2D6B01692F782F76
:101C70000C151D055CF09D818E817E836D83692F1F
:101C8000782F902F812F8601C92ED82E1601201A69
:101C9000310A2B012D813E81421A530A57FE03C09F
:101CA000519441945108710137FE03C03FEFE31A8C
:101CB000F30AF594E7948D819E81861797075CF56A
:101CC000A1E0B0E0BA83A983C016D1064CF1D301DC
:101CD000ED91FC910484F585E02D2B813C81A801D8
:101CE0006D817E818A149B041CF04D815E81B80158
:101CF000C3010995E418F508F7FE0AC02D813E815D
:101D000089819A81280F391F3E832D83E20CF31CB1
:101D10000F5F1F4FD9CF2FEF3FEF3A832983D4CFE7
:101D200026960FB6F894DEBF0FBECDBFDF91CF91E0
:101D30001F910F91FF90EF90DF90CF90BF90AF90E9
:101D40009F908F907F906F905F904F903F902F90DB
:101D5000089520912103260F3327331F21323105A7
:101D6000ECF42091C903FC0190E080E0243069F09C
:101D700082E00895A09121032191AC014F5F5C4F57
:101D8000A40FB52FB11D2C930196861798F380915F
:101D90002103680F6093210380E0089581E0089596
:101DA0001092C90381E08093A8031092A30361E01D
:101DB00082E10E94190661E083E10E941906E9EBC5
:101DC000F0E080818E7F808380818D7F808388E4B6
:101DD0008093B80085E48093BC000895CF93DF938F
:101DE00091E0909300038823B9F0C091B800D0919E
:101DF000BA008091BC008A7B8093BC0060E082E1E5
:101E00000E94190660E083E10E9419060E94D00E2C
:101E1000D093BA00C093B800DF91CF910895CF92CC
:101E2000DF92EF92FF920F931F93CF93DF93D82F00
:101E3000C62F613208F098C00E94C7066B017C0172
:101E40008091C90381116BC081E08093C9038093A5
:101E5000A8039FEF9093A7031092A6039C0F909363
:101E6000A5038093A4038091A403DD0FD82BD09306
:101E7000A4038091A303813009F078C01092A303DA
:101E80000E94C7066B017C018091A4038093BB0074
:101E90008091CB039091CC03A091CD03B091CE0360
:101EA000892B8A2B8B2BA1F00E94C7060091CB03B4
:101EB0001091CC032091CD033091CE036C197D0994
:101EC0008E099F09061717072807390708F448C025
:101ED0008091BC0083FDD8CF85EC8093BC000E942C
:101EE000C7066B017C018091C903813009F440C0B1
:101EF0008091A6038C1710F4C091A603E3E8F3E0E9
:101F0000A9EAB3E080E08C1355C08C2FDF91CF910C
:101F10001F910F91FF90EF90DF90CF9008958091E7
:101F2000CB039091CC03A091CD03B091CE03892B2C
:101F30008A2B8B2B09F484CF0E94C7060091CB0318
:101F40001091CC032091CD033091CE036C197D0903
:101F50008E099F09061717072807390708F070CF61
:101F60008091CA030E94EE0EC0E0CFCF85EEB5CFC0
:101F70008091CB039091CC03A091CD03B091CE037F
:101F8000892B8A2B8B2B09F4AECF0E94C7060091B8
:101F9000CB031091CC032091CD033091CE036C196B
:101FA0007D098E099F09061717072807390708F0CA
:101FB0009ACFD6CF91919D938F5FA5CFE091E0030B
:101FC0008091DF03E81730F4F0E0E755FC4F8081A3
:101FD00090E008958FEF9FEF08959091E003809136
:101FE000DF032FEF3FEF981748F4E92FF0E0E755B4
:101FF000FC4F208130E09F5F9093E003C90108957A
:10200000CF92DF92EF92FF920F931F93CF93DF93C4
:102010007C01CB018A012091D803222389F0EB01B6
:102020006B01C40ED51ECC15DD0569F06991D70191
:10203000ED91FC910190F081E02DC7010995F3CF5E
:10204000642F0E94A90EC801DF91CF911F910F91BB
:10205000FF90EF90DF90CF900895CF93DF931F9282
:10206000CDB7DEB769832091D8032223F9F0209100
:10207000DD03203258F021E030E0FC01338322837D
:1020800090E080E00F90DF91CF9108958091DE0382
:10209000E82FF0E0E052FD4F998190838F5F8093AD
:1020A000DE038093DD0381E090E0ECCF61E0CE01C0
:1020B00001960E94A90EF7CF682F87E094E00C9458
:1020C0002D10CF92DF92EF92FF920F931F93CF9339
:1020D000DF93D091DD0381E0D13208F09CC0C09144
:1020E000D7030E94C7066B017C018091C90381114F
:1020F0006CC082E08093C90381E08093A8038FEFD6
:102100008093A7031092A603D093A503A0EEB2E09C
:10211000E3E8F3E080E0D8138DC01092A40380912F
:10212000A403CC0FC82BC093A4038091A3038130D8
:1021300009F084C01092A3030E94C7066B017C01C2
:102140008091A4038093BB008091CB039091CC033A
:10215000A091CD03B091CE03892B8A2B8B2BA1F0BC
:102160000E94C7060091CB031091CC032091CD03B0
:102170003091CE036C197D098E099F090617170748
:102180002807390708F442C08091BC0083FDD8CFEE
:1021900085EC8093BC000E94C7066B017C01809196
:1021A000C903823009F44CC08091A7038F3F09F422
:1021B00069C08091A703803209F466C08091A703AB
:1021C000803309F463C084E026C08091CB039091F2
:1021D000CC03A091CD03B091CE03892B8A2B8B2BFE
:1021E00009F483CF0E94C7060091CB031091CC0362
:1021F0002091CD033091CE036C197D098E099F0982
:10220000061717072807390708F06FCF8091CA0310
:102210000E94EE0E85E01092DE031092DD03109214
:10222000D803DF91CF911F910F91FF90EF90DF9036
:10223000CF9008959D9191938F5F6DCF85EEA9CF3B
:102240008091CB039091CC03A091CD03B091CE03AC
:10225000892B8A2B8B2B09F4A2CF0E94C7060091F1
:10226000CB031091CC032091CD033091CE036C1998
:102270007D098E099F09061717072807390708F0F7
:102280008ECFC4CF80E0C7CF82E0C5CF83E0C3CF7D
:10229000CF9388E60E94880560E087E094E00E9482
:1022A0002D1060E887E094E00E942D108091D0030B
:1022B000CAE06C2F0E9424368295807F682F690FB8
:1022C00087E094E00E942D108091D1036C2F0E9432
:1022D00024368295807F682F690F87E094E00E9402
:1022E0002D108091D2036C2F0E9424368295807F1E
:1022F000682F690F87E094E00E942D108091D3032E
:102300006C2F0E9424368295807F682F690F87E0AA
:1023100094E00E942D108091D4036C2F0E942436EB
:102320008295807F682F690F87E094E00E942D10CE
:102330008091D5038E516C2F0E9424368295807F28
:10234000682F690F87E094E00E942D1087E094E0E9
:102350000E946110882329F01092D60380E0CF916B
:10236000089581E08093D60388E60E94880560E0A6
:1023700087E094E00E942D108091CF036C2F0E9483
:1023800024368295807F682F690F87E094E00E9451
:102390002D1087E094E00E9461108111DDCF81E073
:1023A000DECFAF92BF92DF92EF92FF920F931F9317
:1023B000CF93DF938B01040F151FEB015C01A61A6D
:1023C000B70A7501EC0EFD1ED99080917B040E9426
:1023D00088058F2D90E00E945C10C70199270E940C
:1023E0005C106D2D87E094E00E942D1087E094E052
:1023F0000E9461106AE070E080E090E00E94EC06CC
:10240000C017D107F1F6DF91CF911F910F91FF9087
:10241000EF90DF90BF90AF900895EF92FF920F93EF
:102420001F93CF93DF93EC01EC80FD806E157F0549
:102430000CF070C057FF04C0240F351F50E040E07F
:102440008E819F81FA01E20FF31F8E179F071CF404
:102450009C01241B350B121613060CF05BC0922F47
:10246000842F8695869586958E9DD0018F9DB00D83
:1024700011246A0F7B1FAF8DB8A1A60FB71F47703D
:1024800049F188E0841B482F682F70E0FB01E05978
:10249000FF4FE491281708F063C0621B71092FEF0A
:1024A00030E002C0359527956A95E2F7E2230130C6
:1024B000110539F0B0F10230110561F58C91E82772
:1024C00002C08C91E82BEC93941720F12C813D8174
:1024D000A20FB31FE92FE41BE83078F0023011059A
:1024E00021F58E2F9C9190959C932C813D81A20F7C
:1024F000B31F88508830B0F7E770EE2359F0F0E052
:10250000E859FF4FE49101301105F9F010F1023064
:10251000110519F1DF91CF911F910F91FF90EF906D
:102520000895E0958C91E823CECF81E00115110547
:1025300009F480E081959E2F8C932C813D81A20F20
:10254000B31F98509830C0F7D7CF8C91E82BEC93FD
:10255000E1CFE0958C91E823FACF8C91E827F7CF73
:102560000130110509F4ADCFE0F20230110509F494
:10257000A5CFAE0DBF1DAECF0F931F93CF93DF93AB
:1025800077FF04C0260F371F70E060E0DC0114966F
:10259000CD91DC91FB01E20FF31FCE17DF071CF496
:1025A0009E01261B370B121613064CF5FA0157FD38
:1025B0003796A3E0F595E795AA95E1F7EC9FD00152
:1025C000ED9FB00DFC9FB00D11246A0F7B1FDC0145
:1025D0005F96ED91FC91E60FF71F4770552781E05C
:1025E00090E001C0880F4A95EAF7482F01301105A5
:1025F00059F0A8F02E0F3F1F02301105E1F0DF91D6
:10260000CF911F910F9108952E0F3F1FE217F307EF
:10261000B1F38191DF011197842B8C93F7CF8095D3
:102620002E0F3F1FE217F30751F39191DF0111972E
:1026300098239C93F7CFE217F30709F38191DF0109
:10264000119784278C93F7CF0F931F93FA01DC0126
:1026500056964C9156974230E9F04330A1F1413003
:1026600061F514964D915C91DA01AE1BBF0BFD0133
:10267000E21BF30B77FD0BC0DC0116964D915C91CC
:102680006417750724F4AB01BF010E94BC121F91AF
:102690000F91089514964D915C91DA01A61BB70B2A
:1026A000BD0161507109DC0116964D915C91DA0112
:1026B000AE1BBF0BFD01E21BF30B77FDE8CFAF01B3
:1026C0000E940D12E4CF16964D915C91DA01A61B83
:1026D000B70BBD0161507109CDCF0F931F93FA0164
:1026E000DC0156964C9156974230A9F0433091F157
:1026F000413019F514964D915C91DA01AE1BBF0B78
:10270000FD013197F7FD04C0AB01BF010E940D121E
:102710001F910F91089514964D915C91DA01A61BBB
:10272000B70BBD01DC0116964D915C91DA01AE1B31
:10273000BF0BFD013197621B730BF7FDE9CFDC0185
:1027400016964D915C91E417F50714F7AF010E94BE
:10275000BC12DECF16964D915C91DA01A61BB70B29
:10276000BD01621B730BCECFFC0177FD64C0808579
:102770009185681779070CF05EC057FD5CC08285B3
:102780009385481759070CF056C086898230B1F0FE
:10279000833029F1813041F484819581841B950B2C
:1027A000AB01BC01615071092130310509F108F418
:1027B00043C02230310509F463C0089584819581B6
:1027C000DC01A61BB70BBD016150710986819781A1
:1027D000DC01A41BB50BAD0141505109E5CF868149
:1027E0009781861B970BBA01AC0141505109DCCF90
:1027F000CA0157FD0796A3E095958795AA95E1F73D
:10280000A481B5818A9F90018B9F300D9A9F300DD6
:102810001124620F731F078CF0A1E02DE60FF71F44
:102820004770552721E030E001C0220F4A95EAF7B2
:102830008081822B80830895CA0157FD079633E07B
:10284000959587953A95E1F7A481B5818A9F900186
:102850008B9F300D9A9F300D1124620F731F078CD0
:10286000F0A1E02DE60FF71F4770552781E090E0BB
:1028700001C0880F4A95EAF7809590818923DACFC5
:10288000CA0157FD079623E0959587952A95E1F7AC
:10289000A481B5818A9F90018B9F300D9A9F300D46
:1028A0001124620F731F078CF0A1E02DE60FF71FB4
:1028B0004770552721E030E001C0220F4A95EAF722
:1028C00080818227B7CF08958EBD00000DB407FE2A
:1028D000FDCF8EB50895FF920F931F93CF93DF9393
:1028E000F82ED92FC62F8091300490913104892B76
:1028F00009F447C0809134040E9488058091300417
:1029000090913104DC01ED91FC910190F081E02D7A
:1029100060E009950F2D1D2FD1E0C150809130044A
:1029200090913104CF3F31F1D03298F00E94611084
:10293000809134040E948805809130049091310484
:10294000DC01ED91FC910190F081E02D60E00995B2
:10295000D1E08091300490913104F8016491DC0160
:10296000ED91FC910190F081E02D0995DF5F0F5F03
:102970001F4FD3CFDF91CF911F910F91FF900C94F8
:102980006110E0914004F0914104908180914604EF
:102990008095892380830F2D1D2FC15008F438C0E6
:1029A000F801849120912E0430912F04232B29F0DB
:1029B0000E9464140F5F1F4FF0CF28E030E040E822
:1029C000E0913C04F0913D0490914404582F54232D
:1029D000D9F05081952B9083E0913E04F0913F0413
:1029E000908150914504952B9083E0913E04F091A5
:1029F0003F0450819091450490959523908346958E
:102A000021503109E9F6D6CF508190959523E3CF37
:102A1000DF91CF911F910F91FF9008951F93CF9356
:102A2000DF93EC018D8D9E8D892BF9F0162F89A1F6
:102A30000E9488058D8D9E8DDC01ED91FC910190A9
:102A4000F081E02D60E009958D8D9E8DDC01ED918A
:102A5000FC910190F081E02D612F09958D8D9E8D67
:102A6000DF91CF911F910C946110ADA5BEA59C91F3
:102A70008BA9809589238C938B8D9C8D892B31F02C
:102A8000862FDF91CF911F910C94641428E030E0E1
:102A900080E8A9A5BAA599A9462F4823C1F04C9171
:102AA000942B9C93ABA5BCA59C914AA9942B9C9379
:102AB000ABA5BCA54C919AA9909594239C9386951F
:102AC0002150310931F7DF91CF911F9108954C9139
:102AD00090959423E6CF8CBD9DBD0895FF920F93F2
:102AE0001F93CF93DF938091300490913104892B11
:102AF00009F472C08CE08093B80065E08DE79AE03D
:102B00000E946B1460911704615083E194E00E946D
:102B10000E152091190430911A04C901079697FDEA
:102B2000079623E0959587952A95E1F7209117045C
:102B300030911804829F8001839F100D929F100D89
:102B40001124C0913204D0913304809130049091CB
:102B500031040C0F1D1F892B09F47CC080913404B3
:102B60000E9488058091300490913104DC01ED9140
:102B7000FC910190F081E02D60E40995FF24F3942D
:102B800080913004909131040C171D07E1F1BFE1F1
:102B9000BF15A0F40E946110809134040E94880542
:102BA0008091300490913104DC01ED91FC91019011
:102BB000F081E02D60E40995FF24F39480913004C6
:102BC000909131046991DC01ED91FC910190F081CB
:102BD000E02D0995F394D4CF80912E0490912F0489
:102BE000892B31F080914804909149040E946B1523
:102BF000E0914204F09143049081809147048095D4
:102C0000892380837ACF0E94611080913004909153
:102C10003104892B09F45FC020914A0430914B04A0
:102C200040914C0450914D0460E074E284EF90E0D8
:102C30000E94453420513109410951095695479563
:102C4000379527952093B800DF91CF911F910F9171
:102C5000FF900895E0914004F091410480819091AB
:102C60004604892B80830C171D0779F289912091E6
:102C70002E0430912F04232B19F00E946414F3CFFB
:102C800028E030E040E8E0913C04F0913D04909170
:102C90004404582F5423D9F05081952B9083E09110
:102CA0003E04F0913F04908150914504952B908310
:102CB000E0913E04F0913F0450819091450490953D
:102CC00095239083469521503109E9F6CCCF508168
:102CD00090959523E3CFE0914204F09143048081E5
:102CE00090914704892B8083AFCF1F93CF93DF93BD
:102CF000EC01162F8D8D9E8D892B29F18CE0809310
:102D0000B80066EA111167EACE010E940E158D8D9A
:102D10009E8D892B41F12FA938AD49AD5AAD60E0A8
:102D200074E284EF90E00E9445342051310941095A
:102D3000510956954795379527952093B800DF910F
:102D4000CF911F9108958B8D9C8D892B21F08DA99A
:102D50009EA90E946B15EFA5F8A990818CA980957A
:102D600089238083CECFEFA5F8A980819CA9892BE8
:102D70008083E5CF089590E080E008958093BB00C4
:102D800084E88093BC008091BC0087FFFCCF9091C9
:102D9000B900987F81E0983231F0983129F0903471
:102DA00019F080E008950895089584EA8093BC00A6
:102DB0008091BC0087FFFCCF8091B900887F19F01B
:102DC00080EC0C94BE1680E008955F926F927F9223
:102DD0008F929F92AF92BF92CF92DF92EF92FF922B
:102DE0000F931F93CF93DF93CDB7DEB7582E742E7A
:102DF000652EB62E922E0E94D516852D0E94BE16E7
:102E00008D2D0E94BE168C2D0E94BE168B2D8370B8
:102E1000A82A80E081108CE08A290E94BE16862DA7
:102E20000E94BE16872D0E94BE168CE0F694E79491
:102E3000D794C7948A95D1F78C2D807FC82E892D81
:102E40008F708C290E94BE16812F0E94BE16802F83
:102E50000E94BE1684E98093BC008091BC0084FD72
:102E6000FCCFDF91CF911F910F91FF90EF90DF90FA
:102E7000CF90BF90AF909F908F907F906F905F901A
:102E800008954F925F926F927F928F929F92AF922E
:102E9000BF92CF92DF92EF92FF920F931F93CF9347
:102EA000C82FC0907204D0907304E0907404F09026
:102EB0007504CB01BA01A70196010E94453449016E
:102EC0005A0125E0F694E794D794C7942A95D1F750
:102ED00035E096958795779567953A95D1F747E0D0
:102EE000660F771F881F991F4A95D1F7A701960192
:102EF0000E94453429013A018B019C01B501A401CE
:102F0000552766277727E7E0440F551F661F771F71
:102F1000EA95D1F7525061097109440D551D661D9E
:102F2000771D812CA12C8C2F0E94E516CF911F912B
:102F30000F91FF90EF90DF90CF90BF90AF909F9058
:102F40008F907F906F905F904F9008958F92AF9287
:102F5000CF92DF92EF92FF920F931F938824839476
:102F6000443051056105710509F0812C4450510927
:102F700061097E4F97E0440F551F661F771F9A9592
:102F8000D1F7A22EC12CD12C7601C39400E010E021
:102F900098010E94E5161F910F91FF90EF90DF902E
:102FA000CF90AF908F900895CF93DF93D82FC62FF7
:102FB0000E94D5168D2F0E94BE168C2F0E94BE1621
:102FC00084E98093BC008091BC0084FDFCCFDF913C
:102FD000CF910895CF93C82F60E880E18C0F0E94B5
:102FE000D417EC2FF0E0EE0FFF1FE65AFB4F1182D3
:102FF0001082CF9108954F925F926F927F92AF921D
:10300000BF92CF92DF92EF92FF920F931F93CF93D5
:10301000DF93D82F082F10E0F801EE0FFF1FEE0FFF
:10302000FF1FEA59FB4F408051806280738041143A
:1030300051046104710489F48D2FDF91CF911F91A8
:103040000F91FF90EF90DF90CF90BF90AF907F9067
:103050006F905F904F900C94EA175801AA0CBB1C1C
:10306000F501E65AFB4FC080D180F12CE12C065AC5
:103070001B4FF801C681A3019201C701B6010E944E
:1030800014369B01AC01EC2FF0E0E35BFE4FA08116
:10309000B0E00E943A349B01AC0120583447424DC5
:1030A0005A412130334A414E514108F43FC06091AA
:1030B0002C0170912D0180912E0190912F01A3017F
:1030C00092010E94453469017A0184E0C816D10456
:1030D000E104F10408F4B0CFE6E0CE16D104E10437
:1030E000F10408F470C0C0E0FDE2CF16F1E0DF06A5
:1030F000E104F10430F0CF5FF694E794D794C794DD
:10310000F3CFC11103C0E894C0F8C0E0A30192015D
:10311000C701B6010E9414369B01AC01EC2FF0E010
:10312000E35BFE4FA081B0E00E943A342AE1D11166
:1031300022E2AB01BC01822F0E944117F501E65A41
:10314000FB4F80819181B0E0A0E08C159D05AE051C
:10315000BF0521F4F80186818C1731F12C2F2295BF
:10316000207FB701A6018D2F880F880F880F865DFD
:103170000E94A617F801618580E0D11180E26C649D
:10318000682B80E18D0F0E94D417F501E65AFB4FA2
:10319000D182C082F801C68380917A0490E2D11175
:1031A00090E8892B80937A04DF91CF911F910F9142
:1031B000FF90EF90DF90CF90BF90AF907F906F9097
:1031C0005F904F90089584E0C82ED12CE12CF12C13
:1031D0009ACF2F923F924F925F926F927F928F92EF
:1031E0009F92AF92BF92CF92DF92EF92FF920F9396
:1031F0001F93CF93DF9300D000D01F92CDB7DEB7DF
:1032000049015A012701380110927A04C0906A04DA
:10321000D0906B04E0906C04F0906D040091660413
:10322000109167042091680430916904061717070C
:103230002807390759F060936604709367048093F8
:1032400068049093690480E00E94FB17C814D904B5
:10325000EA04FB0471F480916E0490916F04A091D4
:103260007004B091710484159505A605B70509F49D
:1032700003C180926A0490926B04A0926C04B09295
:103280006D0440926E0450926F04609270047092CC
:10329000710481149104A104B10419F481E00E9425
:1032A000EA1780916E0490916F04A0917004B09120
:1032B0007104892B8A2B8B2B19F482E00E94EA1768
:1032C00040906A0450906B0460906C0470906D04A0
:1032D000411451046104710409F473C1C814D90480
:1032E000EA04FB0409F4A5C0C0905C04D0905D041E
:1032F000F12CE12C209161042983A3019201C701E3
:10330000B6010E9414369B01AC018981E82FF0E0E0
:10331000E35BFE4FA081B0E00E943A344B015C01B8
:10332000DC01CB0180589447A24DBA418130934AC9
:10333000A14EB14108F446C060912C0170912D015D
:1033400080912E0190912F01A30192010E9445349A
:1033500069017A0181E044E0C416D104E104F1047A
:1033600008F488C086E0C816D104E104F10408F42A
:10337000A4C019829DE2C91691E0D906E104F104C6
:1033800040F029812F5F2983F694E794D794C7945E
:10339000F1CF4981411103C0E894C0F81982A3011B
:1033A0009201C701B6010E9414369B01AC018981CC
:1033B000E82FF0E0E35BFE4FA081B0E00E943A34DA
:1033C0004B015C01B501A40182E20E94411780918A
:1033D0005C0490915D04B0E0A0E08C159D05AE0505
:1033E000BF0529F48091610499818917D1F0298161
:1033F0002295207FB701A60182E30E94A617609163
:1034000064046C6681E10E94D417D0925D04C0927E
:103410005C0429812093610480917A048068809300
:103420007A048092760490927704A0927804B09205
:103430007904C0906E04D0906F04E0907004F09016
:103440007104C114D104E104F104B1F08090760458
:1034500090907704A0907804B0907904C501B401ED
:10346000A70196010E9445342830310541055105D8
:1034700050F582E00E94EA1760917A04662319F001
:1034800081EB0E94D41780917A040F900F900F90D7
:103490000F900F90DF91CF911F910F91FF90EF90C0
:1034A000DF90CF90BF90AF909F908F907F906F9064
:1034B0005F904F903F902F90089504E0C02ED12C44
:1034C000E12CF12C69CF1D822134310541055105D4
:1034D00060F08D818F5F8D83CC0CDD1CEE1CFF1C9A
:1034E0005695479537952795EFCFC501B401A701AC
:1034F00096010E94453429833A834B835C832FEFE6
:103500003FEF4FE050E00E94653656016701E12C25
:10351000F12C00E010E00E94923629013A019D81D1
:103520009295907F9D83C12CD12C7601C394411438
:1035300051046104710431F0CC24CA94DC2CFFE006
:10354000EF2EF12CC301B20127E0660F771F881F11
:10355000991F2A95D1F7A70196010E944534490188
:103560005A018B019C0149815A816B817C815527CD
:1035700066277727E7E0440F551F661F771FEA95F8
:10358000D1F7525061097109480D591D6A1D7B1D03
:10359000812CAD808AE30E94E5168CE445284628FC
:1035A000472809F08CE0609165046062682B82E135
:1035B0000E94D41781E090E090935F0480935E04B2
:1035C0005BCF80906E0490906F04A0907004B090D8
:1035D000710481149104A104B10409F44DCFC09089
:1035E0005E04D0905F04F12CE12C209162042983C9
:1035F000A5019401C701B6010E9414369B01AC01DC
:103600008981E82FF0E0E35BFE4FA081B0E00E94EB
:103610003A348B019C0100581447224D3A41013045
:10362000134A214E314108F443C060912C0170913E
:103630002D0180912E0190912F01A50194010E94EE
:10364000453469017A0184E0C816D104E104F1042B
:1036500008F40FCF96E0C916D104E104F10408F490
:1036600058C019822DE2C21621E0D206E104F1040D
:1036700040F049814F5F4983F694E794D794C7940B
:10368000F1CF8981811103C0E894C0F81982A501A6
:103690009401C701B6010E9414369B01AC019981C7
:1036A000E92FF0E0E35BFE4FA081B0E00E943A34E6
:1036B000AB01BC0182E20E94411780915E049091AF
:1036C0005F04B0E0A0E08C159D05AE05BF0531F4A8
:1036D000809162042981821709F4CECE2981229536
:1036E000207FB701A6018AE30E94A61760916504B6
:1036F0006C6682E10E94D417D0925F04C0925E048F
:1037000049814093620480917A04806880937A04AE
:10371000B3CE84E0C82ED12CE12CF12CB5CF909102
:103720008103911111C0882389F060E088E00E9434
:10373000190661E089E00C94190660E089E00E94B6
:10374000190661E088E0F7CF8823B9F30895FF9266
:103750000F931F93CF93DF9300D0CDB7DEB7E0E197
:10376000F1E010E000E08191080F111D81E0E832E6
:10377000F807C9F748E150E060E171E082E090E0CD
:103780000E94D1110F5F1F4F1A83098342E050E05E
:10379000BE016F5F7F4F90E080E00E94D111E9E0B1
:1037A000F1E080E191E010E000E02191020F111DB5
:1037B0008E179F07D1F78091110199E0F92E8F9D07
:1037C000C001112447E050E069E071E04C960E948E
:1037D000D1110F5F1F4F1A830983809111018F9DB3
:1037E000C001112442E050E0BE016F5F7F4F4A9656
:1037F0000E94D1110F900F90DF91CF911F910F91E7
:10380000FF90089580911D0190911E01092E000CDA
:10381000AA0BBB0B80549340A446BE4F8093720406
:1038200090937304A0937404B093750480E00E9495
:10383000FB1782E00C94FB178F929F92AF92BF927E
:10384000CF92DF92EF92FF920F931F933091090175
:1038500080910A0190910B01A0910C01B0910D0192
:1038600040911B0150911C01052E000C660B770B3B
:1038700020915903222309F4AAC02091580322233E
:1038800009F46BC0809024010AE0809E600111243D
:103890000D2C000CEE08FF083323D9F10091130121
:1038A0001091140120911501309116014801590120
:1038B000E0E28E0EE1EA9E1EE7E0AE1EB11C840E31
:1038C000951EA61EB71E8C189D08AE08BF08800F57
:1038D000911FA21FB31F8C019D01005E1E45284F42
:1038E0003F4FCB01BA01600F711F821F931FE12C64
:1038F000F12C8701A50194010E94E9181F910F91F5
:10390000FF90EF90DF90CF90BF90AF909F908F90FF
:10391000089500911701109118012091190130911B
:103920001A0148015901E0E28E1AE1EA9E0AE7E035
:10393000AE0AB108840E951EA61EB71E8C0C9D1CE7
:10394000AE1CBF1C800F911FA21FB31F8C019D01D5
:103950000052114A27403109C4CF3323F9F00091B6
:103960001301109114012091150130911601800F5F
:10397000911FA21FB31F805E9E45A84FBF4F5C01E1
:103980006D01A40EB51EC61ED71EC601B501E12CE1
:10399000F12C870120E030E0A901AECF00911701A2
:1039A000109118012091190130911A01800F911F77
:1039B000A21FB31F8052914AA740B1098C019D01FB
:1039C000040F151F261F371FC901B801E0CF33238D
:1039D000C9F0E0901301F0901401009115011091CD
:1039E00016018E0D9F1DA01FB11F805E9E45A84F22
:1039F000BF4F5C016D01A40EB51EC61ED71EC601C9
:103A0000B501C8CFE0901701F0901801009119019D
:103A100010911A018E0D9F1DA01FB11F8052914A57
:103A2000A740B109E6CF85E10E94AF0620911F01B2
:103A300030E0DC010E945E362FEF33E040E050E0E2
:103A40000E941B342093DF020895CF93DF938FE011
:103A50000E94AF06EC019093DE028093DD0280E1CC
:103A60000E94AF069093DC028093DB029E01A4E6E5
:103A7000B0E00E9467342FEF33E040E050E00E9456
:103A80001B342093DA02DF91CF910895DC01ED9190
:103A9000FD918081ED91FD919081ED91FD916C9171
:103AA00063708E2309F064609F2309F06860E3E689
:103AB000FDE1E60FF11D659565956D936D917D9125
:103AC0008D919D91099423C01AC012C016C010C0D8
:103AD0001EC009C014C013C006C019C009C00DC063
:103AE00007C00DC014C062507040804090400BC0B1
:103AF000615070408040904006C06E5F01C06F5FB3
:103B00007F4F8F4F9F4F9E938E937E936E9308951A
:103B1000BF92CF92DF92EF92FF920F931F93CF93BA
:103B2000DF93EC01B62EC72E8D85811105C0CE0125
:103B30000E94E80781110EC01B861D861C8680E04E
:103B4000DF91CF911F910F91FF90EF90DF90CF9079
:103B5000BF90089540E060EFCE010E94950701E01C
:103B6000E12CD12C11E0CE010E944207F82ECE01AB
:103B70000E94420791E0F91218C0813099F5113482
:103B8000D8F2DB86D11002C081E08D878B8188233B
:103B900099F22396EB2DFC2DCF01089629912193C4
:103BA000E817F907D9F781E0CBCFEE2DF0E0F81256
:103BB0000FC08B851817A0F4DE01AE0FBF1F139640
:103BC0008C91802379F4F12C193008F41C87D12EC4
:103BD000EC0FFD1F8381902F9095892383830AC06A
:103BE0008113F1CFFE01EE0DF11D8381802B8383C4
:103BF000FF24F3946F2DCE010E9466071F5F000F14
:103C000011F4E39401E087E08E1508F0ACCFB7CF54
:103C10004F925F926F927F928F929F92AF92BF92DC
:103C2000CF92DF92EF92FF920F931F93CF93DF9388
:103C3000CDB7DEB761970FB6F894DEBF0FBECDBF2C
:103C40000E941F07C090D502D090D602E090D70204
:103C5000F090D8026C197D098E099F09693873416B
:103C60008105910508F458C08091D402811154C097
:103C70001092E7038091EB039091EC030E94E80718
:103C800040E06CEC8091EB039091EC030E9495076F
:103C90004091E50364E48091EB039091EC030E9472
:103CA00095078091E703882391F1E091E603E950BD
:103CB0000EEE12E0E33038F4F0E0EE0FFF1FE75CA9
:103CC000FE4F008111818091E803882309F481C0AF
:103CD0008091E50381117DC00E941F074B015C01AB
:103CE0002801110F660877088091EB039091EC038F
:103CF0000E944207813059F00E941F07641975091C
:103D000086099709681579058A059B0568F381E09E
:103D10008093E7038093D4020E941F076C197D09EA
:103D20008E099F0961347F4181059105D8F1809109
:103D3000D4028823B9F1E091EB03F091EC031386F0
:103D400015861486128611861086178216821582B1
:103D500014821382BE01665F7F4F8091EB039091C6
:103D6000EC030E94881D81113BC060E070E08EEF83
:103D700092EC20E030E040E05FE30E9477340E9464
:103D8000E33480912201680F6093D9020E941F07DB
:103D90006093D5027093D6028093D7029093D80295
:103DA0001092D40261960FB6F894DEBF0FBECDBF5D
:103DB000DF91CF911F910F91FF90EF90DF90CF9007
:103DC000BF90AF909F908F907F906F905F904F903B
:103DD0000895B801110F880B990B0E94EC0697CF3C
:103DE00067E0CE010A960E942B0799898913BDCFFF
:103DF0008091EB039091EC030E94E807882309F47B
:103E0000B4CFBE016F5F7F4FCE010A960E9420089B
:103E1000882309F4AACF68E0CE0101960E942B07FF
:103E200099858913A2CF6A8170E0762F6627770F74
:103E3000770F770F298158E0259F90011124262BB9
:103E4000372B8A858031D1F4688570E08F81AB0192
:103E5000481B5109CA019695982F882797958795F1
:103E60000E944436CB014097B90153E0660F771F9B
:103E70005A95E1F760789C01260F371F213854EEE0
:103E800035070CF472CFB901330F880B990B0E94E0
:103E90001B3520E030E040E05CE30E94A73569CFAD
:103EA0000F931F93CF93DF9380916003882359F082
:103EB0001092CF030E94481110926003DF91CF91BE
:103EC0001F910F9108950E941F070091D002109139
:103ED000D1022091D2023091D302601B710B820B70
:103EE000930B693E73408105910520F4012B022B51
:103EF000032B21F70E941F076093D0027093D10219
:103F00008093D2029093D30288E60E94880560E0F5
:103F100087E094E00E942D1087E094E00E946110F9
:103F2000882391F01092D6038091D603882331F232
:103F30001092D1031092D0031092CF03DF91CF9152
:103F40001F910F910C94481181E08093D60367E094
:103F500088E60E940F0F1092E0038093DF03873002
:103F600018F387E094E00E94ED0FD82F982F9295D8
:103F70009770CAE08D2F8F709C9F800D11248093C5
:103F8000CF0387E094E00E94ED0F982F92959F70E9
:103F90008F709C9F800D11248093D00387E094E064
:103FA0000E94ED0F982F929593708F709C9F800DBB
:103FB00011248093D10387E094E00E94ED0F982FA5
:103FC00092959F708F709C9F800D11248093D203D7
:103FD00087E094E00E94ED0F982F92959F708F706C
:103FE0009C9F800D11248093D30387E094E00E946E
:103FF000ED0F982F92959F708F709C9F800D1124CC
:104000008093D40387E094E00E94ED0F982F9F7077
:10401000925E82958F708C9F900D11249093D503A2
:10402000D7FF4CCF81CFCF93DF93EC0180917B04FE
:104030000E9488058D2F90E00E945C10CE01992788
:104040000E945C1087E094E00E94611061E0809122
:104050007B040E940F0F1092E0038093DF038823FC
:1040600039F087E094E00E94ED0FDF91CF91089541
:1040700080E0FBCFEF92FF920F931F93CF93DF93DC
:104080008B01040F151FEB017C01E61AF70AC7012B
:104090008C0F9D1F0E9413208993C017D107B9F779
:1040A000DF91CF911F910F91FF90EF900895DF92D4
:1040B000EF92FF920F931F93CF93DF9300D0CDB772
:1040C000DEB71A8219828091110129E0829FC00116
:1040D000112442E050E0BE016F5F7F4F4A960E947C
:1040E0003A20F12CE12C10E000E089E0D82E8091FC
:1040F000110197018D9D200D311D1124C9014C9690
:104100000E941320080F111D3FEFE31AF30A87E006
:10411000E816F10461F70F5F1F4F89819A81081734
:104120001907B1F4809111018D9DC001112447E060
:1041300050E069E071E04C960E943A200F900F9099
:10414000DF91CF911F910F91FF90EF90DF90089535
:104150000E94A71BF3CFFC0101900020E9F73197E3
:10416000AF01481B590BBC0183E194E00C949A0504
:104170008F929F92AF92BF920F931F93CF93DF9333
:10418000CDB7DEB7A1970FB6F894DEBF0FBECDBF97
:1041900019A2423008F44AE08E010F5D1F4F842EB1
:1041A000912CB12CA12CA50194010E944534E62F3D
:1041B000B901CA01EA30F4F4E05DD801EE938D0153
:1041C000232B242B252B79F790E080E0109719F012
:1041D000CD010E94AB20A1960FB6F894DEBF0FBEB2
:1041E000CDBFDF91CF911F910F91BF90AF909F9066
:1041F0008F900895E95CE1CF682F70E090E080E057
:104200004AE00C94B820CF92DF92EF92FF92CF93C6
:10421000DF936C01990FEE08FF08F7FE17C08DE2DF
:104220000E94BC0BEC0166277727CB016C197D0936
:104230008E099F094AE00E94B8208C0F9D1FDF91D4
:10424000CF91FF90EF90DF90CF9008954AE0C701A3
:10425000B601DF91CF91FF90EF90DF90CF900C945B
:10426000B820CF93DF934AE00E94B820EC0183E9A5
:1042700091E00E94AB208C0F9D1FDF91CF9108959C
:10428000CF93DF930E94AB20EC0183E991E00E9481
:10429000AB208C0F9D1FDF91CF9108950C94AB2024
:1042A000CF92DF92EF92FF92CF93DF936C01990F41
:1042B000EE08FF08F7FE1DC08DE20E94BC0BEC016A
:1042C00066277727CB016C197D098E099F094AE083
:1042D0000E94B820C80FD91F83E991E00E94AB204B
:1042E0008C0F9D1FDF91CF91FF90EF90DF90CF90CB
:1042F00008954AE0C701B6010E94B820EC01ECCF56
:10430000CF93DF930E94FC20EC0183E991E00E94AF
:10431000AB208C0F9D1FDF91CF9108952091190440
:1043200030911A04C901079697FD079623E09595E9
:1043300087952A95E1F72091170430911804829F00
:10434000A001839F500D929F500D112470E060E0FA
:1043500080913204909133040C942238CF92DF92F2
:10436000EF92FF920F931F93CF930E948E21109292
:10437000200410921F04109222041092210481E064
:1043800090E09093260480932504909324048093D6
:10439000230483E08093270480932804E091820320
:1043A000E43108F063C1F0E0E852FE4D0C94583659
:1043B000EC21A323B723D423ED2308241C243E247B
:1043C00059246B247D248D249D24B524CD24E424FC
:1043D000F42411252525392580910A0190910B019E
:1043E000A0910C01B0910D0180389649A849B10502
:1043F00020F486E092E00E944E2160910A017091C3
:104400000B0180910C0190910D0130E4C32E32E438
:10441000D32E3FE0E32EF12CA70196010E944534F4
:10442000CA01B9014AE00E94B82080911F0490910E
:10443000200405969093200480931F0460910A0144
:1044400070910B0180910C0190910D01A7019601D3
:104450000E944534603A76488140910520F486E90F
:1044600091E00E944E2160910A0170910B018091B0
:104470000C0190910D0120E432E44FE050E00E94E5
:104480004534603177428105910520F486E991E059
:104490000E944E2160910A0170910B0180910C01E4
:1044A00090910D0120E432E44FE050E00E94453449
:1044B00028EEC22E23E0D22EE12CF12CA70196018A
:1044C0000E944534CA01B9014AE00E94B82082E046
:1044D000809327048093280480911F0490912004E6
:1044E00005969093200480931F0487E090E09093BA
:1044F00022048093210460910A0170910B01809144
:104500000C0190910D01A70196010E94453464367B
:1045100071058105910520F486E991E00E944E2104
:1045200060910A0170910B0180910C0190910D0135
:1045300028EE33E040E050E00E9445342AE030E0CD
:1045400040E050E00E944534CA01B9010E94312187
:1045500081E080932704809328048091DF028436D1
:1045600020F486E991E00E944E218091DF02CAE0AA
:104570006C2F0E94243690E00E94032188E991E08C
:104580000E944E218091DF026C2F0E942436892FD9
:1045900090E00E9403218AE991E00E944E2181E08F
:1045A000809327048093280480918103882309F451
:1045B00066C06091DD027091DE022091DB023091D5
:1045C000DC02CB01820F931F6F5F7F4F621B730B67
:1045D0000E9430366A30710520F486E092E00E9435
:1045E0004E216091DD027091DE022091DB0230915C
:1045F000DC02CB01820F931F6F5F7F4F621B730B37
:104600000E94303690E080E04AE00E94B82088E9BD
:1046100091E00E944E216091DD027091DE022091B6
:10462000DB023091DC02CB01820F931F6F5F7F4F63
:10463000621B730B0E9430366AE070E00E943036D5
:10464000BC0190E080E04AE00E94B8202091DA02AC
:1046500030E0EE24E394F12C09E010E047E150E073
:1046600060E470E083E194E00E94B50CCF911F916B
:104670000F91FF90EF90DF90CF900C946E1580918A
:10468000D90292E3980F953608F051C087FD04C017
:1046900086E092E00E944E218091D902082E000C03
:1046A000990B0E94032187EF0E94BC0B8CE991E0DB
:1046B0000E944E21809178038823E1F186E092E008
:1046C0000E944E218091D1038A3020F486E092E04E
:1046D0000E944E218091D1030E94FC208091CF0343
:1046E00080FF2BC084EA91E00E944E218091D0038C
:1046F0008A3020F486E991E00E944E218091D00317
:104700000E94FC20809109018823D1F086EA91E083
:104710000E944E21809111018A3020F486E092E0BF
:104720000E944E21809111010E94FC209FCF8EE9B2
:1047300091E0BECF88E991E0C3CF86E092E0D4CF8C
:1047400089EA91E0E5CF809111010E94802181E00A
:104750008093270480932804809182030E94FC2088
:104760008CEA91E00E944E2180911201DDCFE09110
:104770001001F0E0EE0FFF1FE15CFE4F2081318160
:10478000AAE0B0E00E9467340E94312181E080936A
:10479000270480932804809182030E94FC208EEBE2
:1047A00091E00E944E2162CF80910901882391F00F
:1047B00088EC91E00E94402181E08093270480935F
:1047C0002804809182030E94FC2080ED91E00E94E9
:1047D00040214CCF8CEC91E0EDCF80910E0124E68E
:1047E000829FC00111240E94502181E08093270400
:1047F00080932804809182030E94FC2081EE91E046
:104800000E944E2180EF0E94BC0B8DEE91E0C9CF3B
:1048100080910F0124E6829FC00111240E94502143
:1048200081E08093270480932804809182030E9472
:10483000FC2081EF91E0E4CF82E080932704809315
:1048400028046091170170911801809119019091CD
:104850001A010E94312181E080932704809328046B
:10486000809182030E94FC208DEF91E00E944E21F6
:1048700080EF0E94BC0B8BEA92E093CF82E08093A2
:104880002704809328046091130170911401809192
:104890001501909116010E94312181E08093270437
:1048A00080932804809182030E94FC2088E092E09B
:1048B000DDCF80911B0190911C010E94502181E06D
:1048C0008093270480932804809182030E94FC2017
:1048D00083E192E0CBCF80911D0190911E010E9457
:1048E000502181E0809327048093280480918203E3
:1048F0000E94FC2084E292E0B9CF80911F010E94C7
:10490000802181E080932704809328048091820392
:104910000E94FC2080E392E044CF809112010E942B
:10492000802181E080932704809328048091820372
:104930000E94FC208BE392E034CF8091D1038A3037
:1049400020F486E991E00E944E218091D1030E94DB
:10495000802181E080932704809328048091820342
:104960000E94FC208BE492E01CCF8091D0038A301F
:1049700020F486E991E00E944E218091D0030E94AC
:10498000802181E080932704809328048091820312
:104990000E94FC2082E592E004CF809120018823D0
:1049A00081F08BE592E00E94402181E08093270412
:1049B00080932804809182030E94FC2082E692E08A
:1049C00006CF8FE592E0EFCF809121010E948021F8
:1049D00081E08093270480932804809182030E94C1
:1049E000FC2084E792E0DDCE80912201082E000CAD
:1049F000990B0E94502181E0809327048093280422
:104A0000809182030E94FC2086E892E00E944E2161
:104A100080EF0E94BC0B87EF0E94BC0B8CE991E0F9
:104A2000C0CE809123012AE0829FC00111240E9400
:104A3000502181E080932704809328048091820391
:104A40000E94FC2081E992E0ACCE809124012AE012
:104A5000829FC00111240E94502181E0809327048D
:104A600080932804809182030E94FC2081EA92E0D6
:104A700098CE809127012AE0829FC00111240E94D4
:104A8000502181E080932704809328048091820341
:104A90000E94FC208EEA92E084CE0E941D3885EDB3
:104AA0008093BC008091CB039091CC03A091CD0367
:104AB000B091CE030796A11DB11D23E0B695A79531
:104AC000979587952A95D1F72091BC0024FD03C0C6
:104AD0001092C90308954091CB035091CC0360918B
:104AE000CD037091CE03452B462B472B69F30097DE
:104AF000A105B10541F025E32A95F1F700000197E2
:104B0000A109B109E1CF8091CA030C94EE0E1F9266
:104B10000F920FB60F9211242F933F934F935F93F1
:104B20006F937F938F939F93AF93BF93EF93FF9375
:104B300080916B0390916C03A0916D03B0916E0313
:104B4000892B8A2B8B2BD1F190916603E09167031F
:104B5000F091680380818927808380916B03909115
:104B60006C03A0916D03B0916E03181619061A0616
:104B70001B069CF480916B0390916C03A0916D03D4
:104B8000B0916E030197A109B10980936B039093D3
:104B90006C03A0936D03B0936E03FF91EF91BF91EF
:104BA000AF919F918F917F916F915F914F913F91C5
:104BB0002F910F900FBE0F901F9018958091290193
:104BC0000E944706EACF1F920F920FB60F92112450
:104BD0002F933F938F939F93AF93BF938091450300
:104BE00090914603A0914703B0914803309144034C
:104BF00023E0230F2D3758F50196A11DB11D2093F9
:104C000044038093450390934603A0934703B093D6
:104C100048038091490390914A03A0914B03B091BE
:104C20004C030196A11DB11D8093490390934A0343
:104C3000A0934B03B0934C03BF91AF919F918F9181
:104C40003F912F910F900FBE0F901F90189526E85F
:104C5000230F0296A11DB11DD2CF1F920F920FB646
:104C60000F9211242F933F934F935F936F937F93F2
:104C70008F939F93AF93BF93EF93FF938091B9006E
:104C8000887F803609F44AC0F0F5883209F4A7C05D
:104C900018F5803109F49BC0B8F4882309F4F9C0F1
:104CA000883009F494C0FF91EF91BF91AF919F912B
:104CB0008F917F916F915F914F913F912F910F90C5
:104CC0000FBE0F901F901895883109F488C080326C
:104CD00051F78093A70314C0803409F49DC040F4B9
:104CE0008033B9F38833F9F68093A70385ECB0C01D
:104CF000803509F485C0883509F496C0883499F662
:104D00000E944F25D0CF883909F48CC038F58837F8
:104D100029F050F4883611F0803729F683E080932B
:104D2000C9031092430357C0883809F47BC0803907
:104D300019F0803809F0B7CF80914303803208F032
:104D400071C0E091430381E08E0F80934303809113
:104D5000BB00F0E0ED5DFC4F80833DC0803B39F04F
:104D6000E0F4803A09F479C0883A09F09CCF84E0F5
:104D70008093C9031092220310922103E091D9037A
:104D8000F091DA0309958091210381110FC081E030
:104D9000809321031092010309C0803C09F4A6CF3F
:104DA000883C09F4A3CF883B09F07DCFE091220332
:104DB00081E08E0F80932203F0E0EF5FFC4F808153
:104DC0008093BB00909122038091210329C08091A0
:104DD000A4038093BB0085EC8093BC0064CF9091CA
:104DE000A6038091A503981758F5E091A60381E0EA
:104DF0008E0F8093A603F0E0ED57FC4F8081E9CF42
:104E0000E091A60381E08E0F8093A6038091BB0002
:104E1000F0E0ED57FC4F80839091A6038091A503AD
:104E20009817C8F285E8D8CFE091A60381E08E0FED
:104E30008093A6038091BB00F0E0ED57FC4F808388
:104E40008091A80381115CCF81E08093A30384EA61
:104E50008093BC001092C90326CF85EC8093BC00E0
:104E60001092C90380914303803230F4E0914303F0
:104E7000F0E0ED5DFC4F10826091430370E0E09143
:104E8000DB03F091DC0383E293E009951092430386
:104E90000ACF1092A70334CF1F920F920FB60F9232
:104EA00011242F933F934F935F936F937F938F932F
:104EB0009F93AF93BF93EF93FF938091E303909100
:104EC000E4030E94461DFF91EF91BF91AF919F9126
:104ED0008F917F916F915F914F913F912F910F90A3
:104EE0000FBE0F901F9018951F920F920FB60F9242
:104EF00011242F933F934F935F936F937F938F93DF
:104F00009F93AF93BF93EF93FF938091E1039091B1
:104F1000E2030E94461DFF91EF91BF91AF919F91D7
:104F20008F917F916F915F914F913F912F910F9052
:104F30000FBE0F901F901895CF93DF931092E00350
:104F40001092DF031092DE031092DD030E94D00E58
:104F500086E895E09093DA038093D90387E895E09B
:104F60009093DC038093DB0310920A0410920904EF
:104F700088EE93E0A0E0B0E080930B0490930C04E3
:104F8000A0930D04B0930E0489E591E0909308047A
:104F90008093070480E580937B0410925B04109259
:104FA0005A0410925D0410925C0410925F041092F7
:104FB0005E04109260041092610410926204809169
:104FC000360190913701A09138018093630490934A
:104FD0006404A09365041092660410926704109212
:104FE00068041092690410926A0410926B04109283
:104FF0006C0410926D0410926E0410926F04109263
:1050000070041092710480E89FEDA7E1B0E18093F5
:10501000720490937304A0937404B093750462E0D7
:1050200082E00E94730662E083E00E947306E2EA77
:10503000FAE0E491F0E0EE0FFF1FEA56F54FA5917C
:10504000B491B0934F04A0934E04E4E8FAE0449185
:1050500040935204E3EAFAE0E491F0E0EE0FFF1F20
:10506000EA56F54FC591D491D0935104C0935004A2
:10507000E5E8FAE0E491E0935304109255041092AD
:10508000560410925704109258042BE33FE1C901D3
:105090000197F1F79C91842F892391E009F490E026
:1050A0008881E82309F092602EE434E09093540460
:1050B0003093E2032093E103809169008C7F81604B
:1050C00080936900E89AC1E0C09359043093E403E7
:1050D0002093E30380916900837F8460809369005B
:1050E000E99A82E0809359041092160410921504F4
:1050F00020E830E0309318042093170480E290E019
:1051000090931A048093190430931C0420931B0479
:1051100090931E0480931D04109229041092200481
:1051200010921F041092220410922104C0932804AC
:10513000C09327048FEF9FEF90932604809325045C
:105140009093240480932304C0932A0410922B0488
:1051500010922D0410922C048BE691E0909314048D
:105160008093130487E094E090933104809330049B
:1051700010923304109232048FEF8093370480939F
:1051800038048093390480933A0480933B0480E58B
:10519000809348041092490480EA96E8A1E0B0E0C8
:1051A00080934A0490934B04A0934C04B0934D0415
:1051B00010922F0410922E0460E08EE00E9473067D
:1051C000E0E9FAE0E491E093F903EEEAFAE0E49131
:1051D000F0E0EE0FFF1FEA56F54F85919491909302
:1051E000FB038093FA0310920404109206041092B9
:1051F000050410920304109202041092010410920C
:1052000000041092FF031092FE031092FD0310920F
:10521000FC0389EF93E09093EC038093EB031092EF
:10522000E9031092EA031092E50389E08093E60314
:10523000C093E703C093E8031092F8031092F703BA
:10524000DF91CF910895CF93DF93CDB7DEB760970D
:105250000FB6F894DEBF0FBECDBF789484B58260E0
:1052600084BD84B5816084BD85B5826085BD85B50A
:10527000816085BD80916E00816080936E00109288
:105280008100809181008260809381008091810003
:105290008160809381008091800081608093800094
:1052A0008091B10084608093B1008091B0008160F2
:1052B0008093B00080917A00846080937A0080911E
:1052C0007A00826080937A0080917A008160809376
:1052D0007A0080917A00806880937A001092C100F1
:1052E00060E086E00E94730661E089E00E94730638
:1052F00061E088E00E94730660E086E00E94190683
:1053000060E089E00E94190660E088E00E941906CA
:1053100060E085E00E94730660E087E00E9473060B
:1053200060E085E00E94190660E087E00E941906AF
:1053300060E084E00E94730660E08FE00E947306E4
:1053400060E080E10E94730661E08CE00E947306D9
:1053500061E084E00E94190683E08093000180915F
:10536000320490913304892B11F10E948E212091F7
:10537000190430911A048091170490911804213275
:1053800031050CF0B5C0B9016052710977FF02C058
:105390006F5F7F4F759567958357910997FD0196CC
:1053A00000E210E023E730E042ED55E0B4C0209188
:1053B000190430911A04C901079697FD0796B3E0C6
:1053C00095958795BA95E1F72091170430911804C7
:1053D000AC01429FC001439F900D529F900D11243C
:1053E0000E94F8369093330480933204892B09F09D
:1053F000BCCF0E948E210E946E15E091EB03F091CC
:10540000EC03138615861486128611861086178281
:1054100016821582148213821092E9031092EA0315
:1054200001E0BE016F5F7F4F8091EB039091EC0331
:105430000E94881D882309F446C267E0CE010196C8
:105440000E942B0798858913ECCF8091E503811189
:1054500028C08091EB039091EC030E94E807BE0105
:105460006F5F7F4F8091EB039091EC030E94C9071F
:1054700040E064EB8091EB039091EC030E94950770
:105480008091EB039091EC030E944207182F8091CA
:10549000EB039091EC030E94E807111102C0009306
:1054A000E5031091E6038981803111F40C940734EF
:1054B000CE0101960E946C08811708F0F3C180911B
:1054C000E6038093E6038091E9038F5F8093E9030D
:1054D0008981883239F008F0EFC1803119F08232C9
:1054E00009F09FCF8091EA038F5F8093EA0399CF01
:1054F000B9016054710977FF02C06F5F7F4F7595E6
:1055000067958255910997FD019600E410E022E528
:1055100030E042EB57E0959587950E949B0D82E025
:10552000809335048091300490913104892B09F4E3
:10553000AEC08CE3809334041092E0031092DF033A
:105540001092DE031092DD030E94D00E86E895E0F3
:105550009093DA038093D90387E895E09093DC0376
:105560008093DB0380913B0487FD1EC061E00E94B5
:10557000730661E080913B040E94190661E070E0CF
:1055800080E090E00E94EC0660E080913B040E9485
:1055900019066AE070E080E090E00E94EC0661E0AD
:1055A00080913B040E94190680913004909131044F
:1055B000892B09F42BC18CE08093B80064E08EEC59
:1055C00095E00E946B1460911904615083E194E0AE
:1055D0000E940E1564E08AEC95E00E946B148091A5
:1055E000350460E1813009F064E183E194E00E94D8
:1055F0000E1564E086EC95E00E946B148091170410
:10560000909118048038910509F02BC180911904FC
:1056100090911A048032910509F00FC164E082EC88
:1056200095E00E946B1469ED83E194E00E940E15F1
:105630008091350462E2813009F061EF83E194E00A
:105640000E940E1566E086EB95E00E946B14809137
:10565000300490913104892B09F41AC120914A0435
:1056600030914B0440914C0450914D0460E074E241
:1056700084EF90E00E9445342051310941095109DD
:1056800056954795379527952093B800B2CE61E09F
:10569000809139040E94730661E080913A040E946F
:1056A000730680913904082E000C990BFC01E0561A
:1056B000F54FE491F0E0EE0FFF1FEE58F54F259106
:1056C00034913093410420934004FC01EE57F54F90
:1056D000E491E093460480913A04082E000C990B63
:1056E000FC01E056F54FE491F0E0EE0FFF1FEE589D
:1056F000F54FA591B491B0934304A0934204FC01EB
:10570000EE57F54FE491E09347048C91E82BEC932E
:1057100080912E0490912F04892B09F434C01FB777
:10572000F89480914D03811127C0EAEAFAE0849150
:10573000ECE8FAE09491E82FF0E0EE0FFF1FE4555B
:10574000FA4FA591B491EC91E92321F461E08AE04C
:105750000E94190661E08AE00E9473068CB58061A0
:105760008CBD8CB580648CBD61E08DE00E947306B9
:1057700061E08BE00E94730680914D038F5F809300
:105780004D031FBFEFCE61E0809137040E94730686
:1057900061E0809138040E94730680913704082EDE
:1057A000000C990BFC01E056F54FE491F0E0EE0F90
:1057B000FF1FEE58F54F2591349130933D0420930F
:1057C0003C04FC01EE57F54FE491E09344048091D2
:1057D0003804082E000C990BFC01E056F54FE491BB
:1057E000F0E0EE0FFF1FEE58F54FA591B491B09386
:1057F0003F04A0933E04FC01EE57F54FE491E09383
:1058000045048C91E095E823EC93ACCE80912E0476
:1058100090912F04892B31F0809148049091490494
:105820000E946B15E0914204F091430490818091B5
:105830004704809589238083C1CE8034910509F087
:10584000F2CE63E08FEB95E00E946B1480913504FB
:105850006FE9813009F06FEC83E194E00E940E154E
:10586000E2CE8036910509F0DECE80911904909148
:105870001A04409709F0D7CE63E08CEB95E00E94C4
:105880006B148091350460E1813031F36FEAE4CF2D
:10589000E0914204F0914304808190914704892B68
:1058A0008083A7CD8981803111F48CE00ACECE01AE
:1058B00001960E946C0805CE8B3309F413CE823416
:1058C00009F0AFCD0FCE1A82198242E050E0BE013E
:1058D0006F5F7F4F90E080E00E943A2072E0E72EF9
:1058E000F12C10E000E0C7010E941320080F111DE9
:1058F0005FEFE51AF50A8AE1E816F104A1F70F5FF8
:105900001F4F89819A810817190709F03CC148E1A6
:1059100050E060E171E082E090E00E943A200E9455
:1059200057208091210180932801109263041092E6
:1059300064041092650460E880E10E94D41760E876
:1059400081E10E94D41760E882E10E94D41780E0D0
:1059500096E4A3ECB3E280932C0190932D01A093E5
:105960002E01B0932F0162ED87EB0E94D4170E94A5
:10597000021C0E941C1C0E94131D0E94251D0E94D7
:10598000081E0E94501F0E948E2110922004109227
:105990001F04109222041092210481E090E0909361
:1059A000260480932504909324048093230483E0A9
:1059B000809327048093280481E091E00E94402195
:1059C00081E080932704809328048FEB92E00E946B
:1059D00040210E946E1568EE73E080E090E00E9426
:1059E000EC060E94AE211AE06EE8262E6AE0362E02
:1059F000F0905903F11023C0E0905B0386E00E9411
:105A0000F005892B09F0C2C0809153038F5F80930A
:105A10005303809153038B3090F010935303809184
:105A20005203811103C081E08093520380915B0394
:105A3000811132C081E080935B030E948F1B8091B3
:105A40005B03811129C085E00E94F005892B09F0D4
:105A5000DBC080915A038F5F80935A0380915A0371
:105A60008B30D0F010935A0380915803811105C0F8
:105A700081E0809358030E941C1C8091590381117E
:105A80000BC080915803882339F081E0809359033B
:105A90000E948F1B0E941C1C84E00E94F005209134
:105AA0000801892B09F066C6222361F010920801D3
:105AB0000E941F0760935C0370935D0380935E03F5
:105AC00090935F0380915904823008F0F3C0F894FA
:105AD0008EE494E00E94461D609155047091560436
