:100000000C945C050C9451290C9429290C948405BA
:100010000C9484050C9484050C9484050C9464273A
:100020000C9484050C9484050C9484050C9484052C
:100030000C9484050C9484050C9484050C9484051C
:100040000C94C0270C9484050C9484050C948405AE
:100050000C9484050C9484050C9484050C948405FC
:100060000C940A280C948405000103070F1F3F7F9E
:100070000080C0E0F0F8FCFE00000000003E5B4F96
:100080005B3E3E6B4F6B3E1C3E7C3E1C183C7E3CF8
:10009000181C577D571C1C5E7F5E1C00183C180006
:1000A000FFE7C3E7FF0018241800FFE7DBE7FF3096
:1000B000483A060E2629792926407F050507407F04
:1000C00005253F5A3CE73C5A7F3E1C1C08081C1C77
:1000D0003E7F14227F22145F5F005F5F06097F016D
:1000E0007F006689956A606060606094A2FFA29458
:1000F00008047E040810207E201008082A1C080826
:100100001C2A08081E101010100C1E0C1E0C303873
:100110003E3830060E3E0E06000000000000005F74
:1001200000000007000700147F147F14242A7F2A90
:100130001223130864623649562050000807030052
:10014000001C2241000041221C002A1C7F1C2A089E
:10015000083E080800807030000808080808000001
:1001600060600020100804023E5149453E00427F75
:10017000400072494949462141494D331814127FC4
:100180001027454545393C4A494931412111090764
:100190003649494936464949291E000014000000E5
:1001A00040340000000814224114141414140041B7
:1001B00022140802015909063E415D594E7C121174
:1001C000127C7F494949363E414141227F414141AC
:1001D0003E7F494949417F090909013E4141517327
:1001E0007F0808087F00417F41002040413F017F98
:1001F000081422417F404040407F021C027F7F0460
:1002000008107F3E4141413E7F090909063E4151A8
:10021000215E7F09192946264949493203017F0198
:10022000033F4040403F1F2040201F3F4038403F99
:10023000631408146303047804036159494D4300AF
:100240007F4141410204081020004141417F0402E6
:10025000010204404040404000030708002054547D
:1002600078407F284444383844444428384444285B
:100270007F385454541800087E090218A4A49C78AE
:100280007F0804047800447D40002040403D007F0A
:100290001028440000417F40007C047804787C08EA
:1002A0000404783844444438FC18242418182424BE
:1002B00018FC7C08040408485454542404043F44A3
:1002C000243C4040207C1C2040201C3C4030403CD2
:1002D00044281028444C9090907C4464544C440032
:1002E0000836410000007700000041360800020196
:1002F0000204023C2623263C1EA1A161123A404082
:10030000207A3854545559215555794122545478FE
:1003100042215554784020545579400C1E52721297
:100320003955555559395454545939555454580020
:1003300000457C410002457D420001457C407D1224
:1003400011127DF0282528F07C5455450020545486
:100350007C547C0A097F4932494949323A44444431
:100360003A324A4848303A4141217A3A424020786C
:10037000009DA0A07D3D4242423D3D4040403D3C6D
:1003800024FF2424487E4943662B2FFC2F2BFF0992
:1003900029F620C0887E0903205454794100004486
:1003A0007D413048484A32384040227A007A0A0A71
:1003B000727D0D19317D2629292F282629292926E4
:1003C00030484D4020380808080808080808382F29
:1003D00010C8ACBA2F102834FA00007B00000814B3
:1003E0002A142222142A14085500550055AA55AA89
:1003F00055AAFF55FF55FF000000FF00101010FF29
:1004000000141414FF001010FF00FF1010F010F083
:10041000141414FC001414F700FF0000FF00FF1474
:1004200014F404FC141417101F10101F101F1414C0
:10043000141F00101010F0000000001F101010100A
:100440001F10101010F010000000FF1010101010FE
:1004500010101010FF10000000FF140000FF00FF3C
:1004600000001F10170000FC04F4141417101714D8
:1004700014F404F40000FF00F714141414141414FA
:10048000F700F7141414171410101F101F1414146D
:10049000F4141010F010F000001F101F0000001FD7
:1004A00014000000FC140000F010F01010FF10FF0A
:1004B000141414FF141010101F00000000F010FF9F
:1004C000FFFFFFFFF0F0F0F0F0FFFFFF0000000083
:1004D00000FFFF0F0F0F0F0F3844443844FC4A4A07
:1004E0004A347E02020606027E027E0263554941BC
:1004F000633844443C04407E201E2006027E0202F3
:1005000099A5E7A5991C2A492A1C4C7201724C3006
:100510004A4D4D303048784830BC625A463D3E49DD
:100520004949007E0101017E2A2A2A2A2A44445F81
:10053000444440514A444040444A51400000FF0175
:1005400003E080FF000008086B6B08361236243683
:10055000060F090F060000181800000010100030E8
:1005600040FF0101001F01011E00191D1712003C70
:100570003C3C3C0000000000005EBCE2613FDD83CB
:10058000C29C7E20A3FD1F41009D23BE46DB65F873
:100590008C11AF32CA57E974000000080002010054
:1005A000000304070000000000000000000000003D
:1005B000240027002A00DB40A4A62EAFDA0281DA4D
:1005C0001281DA02818F2000A1C8D300408DAED500
:1005D00080A8000060000000000000000000000093
:1005E000000000E00000000000000000000000002B
:1005F0000001E0000000000000000000000000001A
:1006000001F00000000000000000000000000003F6
:10061000F00000000000000000000000000007F0F3
:100620000000000000000000000000000007F800CB
:100630000000000000000000000000000FF80000B3
:100640000003C0007E000001E0007F0FF800000002
:1006500003C000FE000001E000FFEFF8000000030F
:10066000C000FE000001E000FFFFF800000003C032
:1006700000F00000000F007FFE7FC0000003C000FC
:10068000F00000000F003FFE7FF83FF1FBCFFCFEC3
:10069000F3BC3DEFE01FFE7FFF7FFBFFDFFEFEFFB1
:1006A000BC3DEFE01FC6FFFF7FFBFFDFFEFEFFBC90
:1006B0003DEFE00FE3C7FE787BC3DE1EF0FFBC3DDD
:1006C000EF0007FF87FC787BC3DE1EF0F83C3DEFB0
:1006D0000001FFFFF0007BC3C01EF0F03C3DEF00C7
:1006E00001F37FE03FFBC3CFFEF0F03C3DEF0003A2
:1006F000E33F807FFBC3DFFEF0F03C3DEF0007E708
:100700003C00787BC3DE1EF0F03C3DEF0007FFBEEF
:1007100000787BC3DE1EF0F03C3DEF0007FFFE00DB
:10072000787BC3DE1EF0F03C3DEF000FFFFE007F44
:10073000FBFFDFFEF0F03FFDEFE00FFFFF007FFB70
:10074000FFDFFEF0F03FFDEFE00FF9FF003E79F92B
:10075000CF9EF0F01F3DE7E01FF1FF00000000001A
:10076000000000000000001F80FF007FFFFFFFFF70
:10077000FFFFFFFFFFE01C007F007FFFFFFFFEB4D5
:100780006D888D18E000001F007FFFFFFFFE95AD14
:100790007DB577E000000F007FFFFFFFFEA5AD9D58
:1007A0008D19E0000006007FFFFFFFFEB5ADEDB53F
:1007B0007EE000000000000180000000000000005A
:1007C0000000038000000000000000000007C000DF
:1007D000000000000000000007C000000000000052
:1007E0000000000FC00000000000000000001FE03B
:1007F0000000000000000000001FE00000000000FA
:10080000000000003FE00000000000000000003F8A
:10081000F00000000000000000007FF00000000079
:100820000000001FF87FF0000000000000003FFE05
:100830007FF0000000000000003FFF7FF00000009C
:10084000000000001FFFFBE0000000000000000FA0
:10085000FFF9FFC00000000000000FFFF9FFF800E3
:10086000000000000007FFF1FFFF00000000000093
:1008700003FC73FFFF80000000000001FE3FFFFF4C
:1008800080000000000000FF1E0FFF0000000000BD
:1008900000007FFE1FFC000000000000003FFFFF83
:1008A000F8000000000000000FDFFFE00000000083
:1008B0000000001F19FFC0000000000000003F3CC6
:1008C000FF00000000000000007E7CF80000000037
:1008D000000000007FFE7C0000000000000000FF20
:1008E000FFFC0000000000000000FFFFFE00000011
:1008F0000000000000FFFFFE0000000000000001FB
:10090000FFEFFE0000000000000001FFCFFE00002E
:10091000000000000003FF07FE00000000000000D0
:1009200003FC07FE0000000000000003F003FE00CF
:10093000000000000000018000FE00000000000038
:10094000000000007E000000000000000000003EEB
:10095000000000000000000000000C00000000008B
:1009600000078000FC000003C0000000078001FCBD
:10097000000003C0000000078001FC000003C0006D
:100980000000078001E00000001E00000007800159
:10099000E00000001E007FE3F79FF9FDE7787BDFB2
:1009A000C0FFF7FFBFFDFDFF787BDFC0FFF7FFBF94
:1009B000FDFDFF787BDFC0F0F787BC3DE1FF787B72
:1009C000DE00F0F787BC3DE1F0787BDE0000F787C2
:1009D000803DE1E0787BDE007FF7879FFDE1E078F6
:1009E0007BDE00FFF787BFFDE1E0787BDE00F0F7FC
:1009F00087BC3DE1E0787BDE00F0F787BC3DE1E0BD
:100A0000787BDE00F0F787BC3DE1E0787BDE00FF1D
:100A1000F7FFBFFDE1E07FFBDFC0FFF7FFBFFDE1B8
:100A2000E07FFBDFC07CF3F39F3DE1E03E7BCFC086
:100A30000000000000000000000000FFFFFFFFFFBB
:100A4000FFFFFFFFFFC0FFFFFFFFFD68DB111A3153
:100A5000C0FFFFFFFFFD2B5AFB6AEFC0FFFFFFFF48
:100A6000FD4B5B3B1A33C0FFFFFFFFFD6B5BDB6A97
:100A7000FDC000000000250028002B00022200FF1E
:100A80002100010204081020408001020408102007
:100A900001020408102000000000230026002900A5
:100AA0000404040404040404020202020202030314
:100AB000030303037929113511241FBECFEFD8E0BA
:100AC000DEBFCDBF12E0A0E0B1E0E6E7F2E702C092
:100AD00005900D92A03DB107D9F724E0A0EDB2E05A
:100AE00001C01D92A138B207E1F715E0CBE5D5E0D2
:100AF00004C02197FE010E945D37CA35D107C9F7AE
:100B00000E94002B0C942E390C9400000895089537
:100B100091E09093D9038093D8031092DF03109251
:100B2000DE0308958091E0039091E103891B990B06
:100B300008950895AF92BF92CF92DF92EF92FF9205
:100B40000F931F93CF93DF936C017B018B01040FF5
:100B5000151FEB015E01AE18BF08C017D10759F091
:100B60006991D601ED91FC910190F081E02DC601D3
:100B70000995892B79F7C501DF91CF911F910F91CD
:100B8000FF90EF90DF90CF90BF90AF9008958330AB
:100B900081F028F4813099F08230A9F008958730EF
:100BA000A9F08830C9F08430B1F4809180008F7D45
:100BB00003C0809180008F7780938000089584B572
:100BC0008F7784BD089584B58F7DFBCF8091B00071
:100BD0008F778093B00008958091B0008F7DF9CF1A
:100BE000CF93DF93282F30E0F901E856FA4F849134
:100BF000F901EE57F54FD491F901E056F54FC49144
:100C0000CC23A1F081110E94C705EC2FF0E0EE0F7C
:100C1000FF1FEA56F54FA591B491EC91ED2381E0C9
:100C200090E009F480E0DF91CF91089580E090E0BA
:100C3000FACF1F93CF93DF93282F30E0F901E856C6
:100C4000FA4F8491F901EE57F54FD491F901E0562E
:100C5000F54FC491CC23A9F0162F81110E94C7052E
:100C6000EC2FF0E0EE0FFF1FEE58F54FA591B49179
:100C70008FB7F894EC91111108C0D095DE23DC9366
:100C80008FBFDF91CF911F910895DE2BF8CF909108
:100C90002B0189130BC0ECE7FAE0E4919FEF9093EE
:100CA0002B01E13049F028F0E23061F060E00C9473
:100CB000190610926E00FACF90916F009D7F90936D
:100CC0006F00F4CF909170009D7F9093700091E041
:100CD0009093B0009091B100987F94609093B10090
:100CE0001092B300E3CFCF93DF9390E0FC01EE5777
:100CF000F54F24918056954FFC0184918823C9F0CB
:100D000090E0880F991FFC01E455FA4FA591B4912A
:100D1000FC01EE58F54FC591D49161110DC09FB7FC
:100D2000F8948C91209582238C93888128232883A2
:100D30009FBFDF91CF910895623051F49FB7F8942F
:100D40003C91822F809583238C93E8812E2BEFCFCB
:100D50008FB7F894EC912E2B2C938FBFEACF8F9204
:100D60009F92AF92BF92CF92DF92EF92FF92CF937A
:100D70006B0190912B01891769F09F3F09F498C08E
:100D8000CF91FF90EF90DF90CF90BF90AF909F906A
:100D90008F900895ECE7FAE0C491C7FDF1CF61E0D0
:100DA0000E9473064601B12CA12CCC23D9F0F12C62
:100DB000E12CC23009F0F5C04601570160E970ED41
:100DC00083E090E0A70196010E942035215031096F
:100DD0004109510983E02F3F31054105510509F0D3
:100DE0000CF457C060E072E18AE790E0A50194013D
:100DF0000E94203569017A0168E478EE81E090E094
:100E0000A50194010E942035215031094109510961
:100E1000CC2309F426C1C23009F053C184E02F3F2E
:100E2000310541055105A9F1A4F164E274EF80E0B8
:100E300090E0A50194010E9420352150310941091B
:100E4000510985E02F3F31054105510511F108F1A8
:100E500062E17AE780E090E0A50194010E942035EC
:100E6000215031094109510986E02F3F31054105E3
:100E7000510579F074F08AE0F594E794D794C7941B
:100E80008A95D1F7A70196012150310941095109ED
:100E900087E09091B100987F892B8093B100C13099
:100EA00009F4A8C0C23009F4BAC0C11169CFF7C0B3
:100EB00080932B01ECE7FAE0C491CF3F09F460CFB7
:100EC000C13039F148F0C23009F445C0C7FD58CFF0
:100ED00061E00E9473066BCF14BC15BC94B59260A0
:100EE00094BD95B5916095BD282F30E0F901E0568D
:100EF000F54FE491F0E0EE0FFF1FEE58F54F4591EE
:100F00005491F901EE57F54FE491E0937703C0E077
:100F100046CF1092800010928100909181009860DD
:100F20009093810090918100916090938100282F8F
:100F300030E0F901E056F54FE491F0E0EE0FFF1FCD
:100F4000EE58F54F45915491F901EE57F54FE49164
:100F5000E093760324CF1092B0001092B1009091EC
:100F6000B00092609093B0009091B1009160909326
:100F7000B100282F30E0F901E056F54FE491F0E0A0
:100F8000EE0FFF1FEE58F54F4591549150937503A6
:100F900040937403F901EE57F54FE491E093730326
:100FA000FECE60E072E18AE790E0A70196010E9420
:100FB0002035215031094109510991E021153105B0
:100FC00081E0480751056CF068E478EE81E090E03C
:100FD000A70196010E94203521503109410951098C
:100FE00093E0C13009F05BCF80918100887F892B2D
:100FF0008093810030938900209388008FEF9FEFCA
:10100000DC0180937C0390937D03A0937E03B093D7
:101010007F0380916F00826080936F00B1CE209338
:10102000B3008FEF9FEFDC018093780390937903F7
:10103000A0937A03B0937B038091700082608093C9
:1010400070009ECE9AE0F594E794D794C7949A9551
:10105000D1F7A7019601215031094109510995E0C5
:101060001AC093E02F3F310541055105A1F09CF0D6
:1010700062E17AE780E090E0A50194010E942035CA
:1010800021503109410951092F3F310541055105D1
:1010900009F0C4F694E085B5887F892B85BD27BD0E
:1010A0008FEF9FEFDC018093800390938103A093E7
:1010B0008203B093830380916E00826080936E0000
:1010C0005FCE84E0BFCE2091000190E4299F900183
:1010D00011248E50822B80937C0080917A00806452
:1010E00080937A0080917A0086FDFCCF8091780011
:1010F0009091790008953FB7F89480914A039091B8
:101100004B03A0914C03B0914D0326B5A89B05C09D
:101110002F3F19F00196A11DB11D3FBFBA2FA92F76
:10112000982F8827BC01CD01620F711D811D911D73
:1011300042E0660F771F881F991F4A95D1F70895DF
:101140008F929F92AF92BF92CF92DF92EF92FF92D7
:101150006B017C010E947B084B015C01C114D1042E
:10116000E104F104B9F00E947B08681979098A0941
:101170009B09683E73408105910580F321E0C21A06
:10118000D108E108F10888EE880E83E0981EA11CC2
:10119000B11CE4CFFF90EF90DF90CF90BF90AF9065
:1011A0009F908F9008952FB7F894609146037091A7
:1011B000470380914803909149032FBF0895DC01B4
:1011C00080E0615090F09D919827E92FEF70F0E05A
:1011D000E858FA4F2491E92FE295EF70F0E0E857D4
:1011E000FA4FE491822F8E27ECCF0895DC012C91E9
:1011F0001196ED91FC91F8948181822B81839281EB
:10120000322F30959323928387E090E00197F1F796
:1012100081818323818383E290E00197F1F79081BC
:101220007894EFECF0E03197F1F7922381E009F444
:1012300080E00895FC0190810180F281E02D292F4A
:10124000209560FF14C0F89482818223828381817B
:10125000892B8183A3E2B0E01197F1F78281982B6B
:101260009283789487ED90E00197F1F70895F894D0
:101270008281822382838181892B8183AFEFB0E0D9
:101280001197F1F78281982B928378948FE090E008
:10129000EBCFDF92EF92FF920F931F93CF93DF93E9
:1012A000EC01D62EE42E08E010E0FF24F39461E078
:1012B0008D2D8F2109F460E0CE010E941A09FF0CE8
:1012C00001501109A1F7E11010C0F894E981FA81E9
:1012D00091818881809589238183E981FA81928136
:1012E00088818095892382837894DF91CF911F91A3
:1012F0000F91FF90EF90DF900895EF92FF920F9380
:101300001F93CF93DF938C017B0140E065E50E9442
:101310004909E70188E0E80EF11C699140E0C80145
:101320000E944909CE15DF05C1F7DF91CF911F91CA
:101330000F91FF90EF900895FC0190810180F28160
:10134000E02DF8948181292F209582238183789440
:101350003DE743E050E0315029F1DA011197F1F710
:1013600080818923C1F3F8948281822382838181E1
:10137000892B81837894ABE7B7E01197F1F7F89464
:10138000818182238183A3E1B1E01197F1F780810C
:10139000982381E009F080E07894E3E6F6E0319765
:1013A000F1F7089580E00895AF92BF92CF92DF9257
:1013B000EF92FF920F931F93CF93DF938B01BC01AA
:1013C0008091EC039091ED030E947D0940E06EEB6B
:1013D0008091EC039091ED030E944909E8016801B6
:1013E00089E0C80ED11CA090EC03B090ED0388E01A
:1013F000E82EF12C10E001E0C5010E94F6088111F1
:10140000102B000F81E0E81AF108B1F71993CC1600
:10141000DD0649F78091EC039091ED030E949C0951
:1014200091E0813009F090E0892FDF91CF911F91F9
:101430000F91FF90EF90DF90CF90BF90AF90089505
:101440000F931F93CF93DF93CDB7DEB729970FB6D6
:10145000F894DEBF0FBECDBF8C018091EC0390915C
:10146000ED030E949C09811102C080E01FC0BE01F3
:101470006F5F7F4FC8010E94D4098823B1F368E0F1
:10148000CE0101960E94DF0899858913EECF8D81E8
:101490008F33B9F020F48F3141F789E007C08F35E1
:1014A00021F08F3711F78CE001C08BE029960FB641
:1014B000F894DEBF0FBECDBFDF91CF911F910F918A
:1014C00008958AE0F3CF0895FC016370668B8481F0
:1014D000958126813781613039F0633029F0918719
:1014E0008087338722870895318720879387828773
:1014F00008952F923F924F925F926F927F928F92B8
:101500009F92AF92BF92CF92DF92EF92FF920F9392
:101510001F93CF93DF93CDB7DEB76A970FB6F894DA
:10152000DEBF0FBECDBF9A8F898F7A8369834A0150
:10153000D22E18870F833701BC2CDC0159962D91D0
:101540003C915A972115310509F015C118968D91D6
:101550009C911997681779070CF0D7C11A968D914D
:101560009C91481759070CF0D0C14C2C512CB6E077
:10157000CB9E600D711D11247C876B871616170694
:101580000CF0C3C1EA2DF0E0FA87E98793E0EE0F93
:10159000FF1F9A95E1F7F88BEF87CF01840F951F16
:1015A000181619060CF0B1C1A98DBA8D58968C91F8
:1015B000811104C0BFEABD1508F4D394A98DBA8D7A
:1015C000ED91FC9111970284F385E02DCD010995F1
:1015D000B5E0DB9EC0011124E981FA81FC83EB8335
:1015E000312C212C9C0128583F4F388F2F8B4A2DAE
:1015F00050E05E8B4D8BEF89F88DE20DF31D449129
:101600009E828D82D12CC12C69817A81620D731DDD
:101610007A8B698B842F90E09C8B8B8BE98DFA8D74
:10162000A081B18140FF82C0F1E0BF126FC0AF1254
:101630006DC01C96ED91FC912F813885A4014C0D55
:101640005D1D69897A89898D9A8D0995EB89FC8957
:10165000F595E7954E2F5FEFC51AD50A6D817E810E
:101660008D899E89680F791F7E836D8398E0C916E6
:10167000D10481F6AFEF2A1A3A0AEB81FC81E40D1E
:10168000F51DFC83EB83F5E02F16310409F0B3CF91
:101690002F81388526153705B9F0A98DBA8DED91C2
:1016A000FC91B1E0BB1257C0AB1255C069817A8181
:1016B0006B5F7F4F0088F189E02D830128E030E0E7
:1016C000A401898D9A8D0995A98DBA8DED91FC9112
:1016D00011970688F789E02DCD016A960FB6F89428
:1016E000DEBF0FBECDBFDF91CF911F910F91FF9055
:1016F000EF90DF90CF90BF90AF909F908F907F90B2
:101700006F905F904F903F902F9009941E96ED91AF
:10171000FC91EF80F88409851A8592014D815E81E4
:101720006B817C81898D9A8D099590CF2F81388529
:101730002615370509F48ACF31E0B31207C0A3128A
:1017400005C01C96ED91FC91930178CF1E96ED910A
:10175000FC917301E0CF6B857C8564197509068463
:10176000F785E02D73010F8518899201A401898DF9
:101770009A8D0995A9CFF9013496949132974591A4
:101780005491D91AB7E0DB9E400D511D1124F90187
:10179000259134913C8B2B8BFA0125903490FA01E2
:1017A0003296749031963491398B3296649031969A
:1017B000449041E04C1518F04A1508F07FC0662DA2
:1017C000062C000C770B7C836B83842D042C000C7F
:1017D000990B9E838D83A98DBA8DED91FC91119704
:1017E0000284F385E02DCD010995512CD12CC12C1B
:1017F000EA2DF0E0FA87E9872B2D30E03C872B8734
:10180000A401440D511D47FC5A95588F4F8B698197
:101810007A81660D711D67FC7A957E876D8779895F
:10182000C71608F051CF2C2D30E04D815E81420F5C
:10183000531FA985BA854A9FC0014B9F900D5A9F9F
:10184000900D1124FC01E80DF91DF88BEF87852D13
:10185000612C4F89588D420F531F5E8B4D8B67143F
:1018600008F050C044244394480E877041F4C101ED
:101870000196EB89FC89E20DF31DD4901C01D7FE83
:1018800019C0A98DBA8DED91FC91662D70E0B1E083
:10189000BB1219C0AB1217C02D853E85620F731F96
:1018A0000484F585E02D2F8138854D895E89898DE9
:1018B0009A8D0995DD0C6394842DD1CF1E821D82F3
:1018C0001C821B8288CF4B815C81640F751FAB85A6
:1018D000BC856A9FC0016B9F900D7A9F900D11246B
:1018E00069817A81680F791F0684F785E02DEF8082
:1018F000F88409851A859D014F855889898D9A8DAF
:101900000995D8CF570CC3948ACF6A960FB6F8942E
:10191000DEBF0FBECDBFDF91CF911F910F91FF9022
:10192000EF90DF90CF90BF90AF909F908F907F907F
:101930006F905F904F903F902F9008958F929F925D
:10194000AF92CF92EF92FF920F931F93CF93DF93BB
:10195000EC01262F898D9A8D009709F051C06A30CD
:10196000D1F41D861C868D8948E0849F9001112446
:101970008E859F85820F931F9F878E8781E090E0E1
:10198000DF91CF911F910F91FF90EF90CF90AF908B
:101990009F908F9008956D3089F3CC88AD888F89A2
:1019A0008823C1F08C859D8536E0C39E800D911DF6
:1019B0001124488559854817590764F44E855F8579
:1019C0001D861C8638E0A39EC0011124840F951F3C
:1019D0009F878E87EA88FB88088919894E855F85ED
:1019E0006C857D85CE010E94790A2C898C859D8528
:1019F00046E0249F800D911D11249D878C87BECFCA
:101A00006A3069F41D861C86FC013896E4912D89A4
:101A10008E859F85E29F800D911D1124ADCF6D3085
:101A200009F4ACCFFC0134963491631708F4A6CFC7
:101A30003296E491E61708F4A1CFFC013296859026
:101A40009490462F431B342F47E0349F800C911C09
:101A50001124F401329634913196E4913323A9F1A3
:101A6000EE2399F1CC88F4013596E491AD884F8945
:101A7000442301F10E2E000CFF0BE30FF11DCE9E4F
:101A8000A001CF9E500D11246C857D85460F571FF8
:101A900068857985641775076CF44E855F851D86AA
:101AA0001C86FC013896E491AE9E400D511D112418
:101AB0005F874E87EA88FB88088919894E855F858C
:101AC0006C857D85CE010E94790AF4013496E491FB
:101AD0002C898C859D85E29F800D911D11248DCFD1
:101AE000682F84E194E00C949E0C6F927F928F9209
:101AF0009F92AF92BF92CF92DF92EF92FF920F939D
:101B00001F93CF93DF93EC016B015A013901480118
:101B1000E881F9810284F385E02D0995E881F98156
:101B20000288F389E02D87019301A501B601CE015A
:101B30000995A501480D591D41505109E881F981C8
:101B40000288F389E02D9301B601CE010995E88161
:101B5000F9810088F189E02D9401A501B601CE013B
:101B60000995C60CD71CB60161507109E881F9814D
:101B70000088F189E02D9401A501CE010995E88145
:101B8000F9810688F789E02DCE01DF91CF911F9171
:101B90000F91FF90EF90DF90CF90BF90AF909F900C
:101BA0008F907F906F9009946F927F928F929F9207
:101BB000AF92BF92CF92DF92EF92FF920F931F935B
:101BC000CF93DF935C01EB016A0149013801870182
:101BD000DC01ED91FC916217730719F56416750627
:101BE0002CF0962D872D3A01C92ED82E9601261954
:101BF00037092F5F3F4F048CF58DE02DA301BE0107
:101C0000C5010995DF91CF911F910F91FF90EF9042
:101C1000DF90CF90BF90AF909F908F907F906F900C
:101C200008954615570591F42617370724F0892D96
:101C30004B01C22FD82F9E01281939092F5F3F4F22
:101C4000068CF78DE02DA601B401DACF0284F3856E
:101C5000E02D0995D501ED91FC910488F589E02DE1
:101C600083019401A601BE01C5010995D501ED913D
:101C7000FC910688F789E02DC501DF91CF911F9176
:101C80000F91FF90EF90DF90CF90BF90AF909F901B
:101C90008F907F906F900994EF92FF920F931F9314
:101CA000DC011A960D911C911B9718962D913C9171
:101CB0001997ED91FC9100A0F1A1E02D7B0150E07E
:101CC00040E070E060E009951F910F91FF90EF9068
:101CD00008954F925F926F927F928F929F92AF92F0
:101CE000BF92CF92DF92EF92FF920F931F93CF9309
:101CF000DF936C012B015A0139014801DC01ED91A0
:101D0000FC910284F385E02D0995E201640C751CB9
:101D1000D601ED91FC91C615D7055CF40088F189D8
:101D2000E02D87019401A501BE01C6010995219608
:101D3000EFCF0688F789E02DC601DF91CF911F9183
:101D40000F91FF90EF90DF90CF90BF90AF909F905A
:101D50008F907F906F905F904F9009948F929F9299
:101D6000AF92BF92CF92DF92EF92FF920F931F93A9
:101D7000CF93DF93EC015B014A016901E881F981AE
:101D80000284F385E02D099595012C0D3D1D215010
:101D90003109E881F9810488F589E02D7801840111
:101DA000A401B501CE010995E881F9810688F7897A
:101DB000E02DCE01DF91CF911F910F91FF90EF9019
:101DC000DF90CF90BF90AF909F908F9009948F92AB
:101DD0009F92AF92BF92CF92DF92EF92FF920F93BA
:101DE0001F93CF93DF93EC015B014A0169017801F6
:101DF000E881F9810284F385E02D0995C80CD91C8E
:101E0000860101501109E881F9810488F589E02DE6
:101E10009501A401B501CE010995E881F9810688F3
:101E2000F789E02DCE01DF91CF911F910F91FF90A7
:101E3000EF90DF90CF90BF90AF909F908F900994DC
:101E4000EF92FF920F931F93DC01ED91FC9100A0A4
:101E5000F1A1E02D09951F910F91FF90EF9008954A
:101E60000F931F93DC01ED91FC91068CF78DE02D13
:101E700009951F910F9108950F931F93DC01ED9128
:101E8000FC91048CF58DE02D09951F910F9108951B
:101E9000DC01ED91FC910084F185E02D09943F92E5
:101EA0004F925F926F927F928F929F92AF92BF926A
:101EB000CF92DF92EF92FF920F931F93CF93DF9316
:101EC0005C017B014A016901390187E0680E711CE0
:101ED00093E0759467949A95E1F72B01400E511E9B
:101EE00010E000E0312CD0E0C0E0CE0187709927EF
:101EF000330C892B59F4FE0183E0F595E7958A951B
:101F0000E1F7E00FF11FE80DF91D349037FE0AC02C
:101F100021E030E0A701B5016C0F7D1F84E194E062
:101F20000E94480F2196CC16DD06F9F68FEFE81ACD
:101F3000F80A060D171DE414F504A9F6DF91CF91F8
:101F40001F910F91FF90EF90DF90CF90BF90AF90D7
:101F50009F908F907F906F905F904F903F900895EB
:101F60002F923F924F925F926F927F928F929F92A9
:101F7000AF92BF92CF92DF92EF92FF920F931F9397
:101F8000CF93DF9300D000D000D0CDB7DEB73C01B7
:101F90006A013E832D83FC82EB825801A41AB50AA4
:101FA000B7FE03C0B194A194B1088D809E80861ABB
:101FB000970A97FE03C09194819491088A149B0418
:101FC0005CF0902F812F0D811E819D838E839C2D2F
:101FD0008D2D6B01692F782F0C151D055CF09D81EF
:101FE0008E817E836D83692F782F902F812F8601BC
:101FF000C92ED82E1601201A310A2B012D813E81BF
:10200000421A530A57FE03C051944194510871017A
:1020100037FE03C03FEFE31AF30AF594E7948D818E
:102020009E81861797075CF5A1E0B0E0BA83A9838B
:10203000C016D1064CF1D301ED91FC910484F585D5
:10204000E02D2B813C81A8016D817E818A149B0447
:102050001CF04D815E81B801C3010995E418F508B3
:10206000F7FE0AC02D813E8189819A81280F391F90
:102070003E832D83E20CF31C0F5F1F4FD9CF2FEF50
:102080003FEF3A832983D4CF26960FB6F894DEBF6C
:102090000FBECDBFDF91CF911F910F91FF90EF90B9
:1020A000DF90CF90BF90AF909F908F907F906F9078
:1020B0005F904F903F902F90089520912203260F1C
:1020C0003327331F21323105ECF42091CA03FC0180
:1020D00090E080E0243069F082E00895A09122032E
:1020E0002191AC014E5F5C4FA40FB52FB11D2C9315
:1020F0000196861798F380912203680F609322035C
:1021000080E0089581E008951092CA0381E08093F1
:10211000A9031092A40361E082E10E94190661E024
:1021200083E10E941906E9EBF0E080818E7F8083D5
:1021300080818D7F808388E48093B80085E48093DC
:10214000BC000895CF93DF9391E09093010388231F
:10215000B9F0C091B800D091BA008091BC008A7BE0
:102160008093BC0060E082E10E94190660E083E198
:102170000E9419060E948410D093BA00C093B80040
:10218000DF91CF910895CF92DF92EF92FF920F935C
:102190001F93CF93DF93D82FC62F613208F098C0DA
:1021A0000E947B086B017C018091CA0381116BC086
:1021B00081E08093CA038093A9039FEF9093A803C3
:1021C0001092A7039C0F9093A6038093A503809180
:1021D000A503DD0FD82BD093A5038091A4038130F4
:1021E00009F078C01092A4030E947B086B017C0167
:1021F0008091A5038093BB008091CC039091CD0387
:10220000A091CE03B091CF03892B8A2B8B2BA1F009
:102210000E947B080091CC031091CD032091CE0346
:102220003091CF036C197D098E099F090617170796
:102230002807390708F448C08091BC0083FDD8CF37
:1022400085EC8093BC000E947B086B017C0180912F
:10225000CA03813009F440C08091A7038C1710F4A1
:10226000C091A703E4E8F3E0AAEAB3E080E08C13AE
:1022700055C08C2FDF91CF911F910F91FF90EF9060
:10228000DF90CF9008958091CC039091CD03A091E1
:10229000CE03B091CF03892B8A2B8B2B09F484CFEB
:1022A0000E947B080091CC031091CD032091CE03B6
:1022B0003091CF036C197D098E099F090617170706
:1022C0002807390708F070CF8091CB030E94A21035
:1022D000C0E0CFCF85EEB5CF8091CC039091CD03F8
:1022E000A091CE03B091CF03892B8A2B8B2B09F4BD
:1022F000AECF0E947B080091CC031091CD032091BA
:10230000CE033091CF036C197D098E099F09061702
:1023100017072807390708F09ACFD6CF91919D93D8
:102320008F5FA5CFE091E1038091E003E81730F4DF
:10233000F0E0E655FC4F808190E008958FEF9FEF2D
:1023400008959091E1038091E0032FEF3FEF9817FC
:1023500048F4E92FF0E0E655FC4F208130E09F5F24
:102360009093E103C9010895CF92DF92EF92FF921B
:102370000F931F93CF93DF937C01CB018A012091B0
:10238000D903222389F0EB016B01C40ED51ECC15B5
:10239000DD0569F06991D701ED91FC910190F08123
:1023A000E02DC7010995F3CF642F0E945D10C8018D
:1023B000DF91CF911F910F91FF90EF90DF90CF9021
:1023C0000895CF93DF931F92CDB7DEB76983209135
:1023D000D9032223F9F02091DE03203258F021E0C6
:1023E00030E0FC013383228390E080E00F90DF91A6
:1023F000CF9108958091DF03E82FF0E0EF51FD4F7A
:10240000998190838F5F8093DF038093DE0381E067
:1024100090E0ECCF61E0CE0101960E945D10F7CF15
:10242000682F88E094E00C94E111CF92DF92EF9254
:10243000FF920F931F93CF93DF93D091DE0381E040
:10244000D13208F09CC0C091D8030E947B086B0178
:102450007C018091CA0381116CC082E08093CA0321
:1024600081E08093A9038FEF8093A8031092A703C4
:10247000D093A603A1EEB2E0E4E8F3E080E0D81345
:102480008DC01092A5038091A503CC0FC82BC093DB
:10249000A5038091A403813009F084C01092A403A5
:1024A0000E947B086B017C018091A5038093BB0097
:1024B0008091CC039091CD03A091CE03B091CF0336
:1024C000892B8A2B8B2BA1F00E947B080091CC03D7
:1024D0001091CD032091CE033091CF036C197D096B
:1024E0008E099F09061717072807390708F442C005
:1024F0008091BC0083FDD8CF85EC8093BC000E9406
:102500007B086B017C018091CA03823009F44CC0C6
:102510008091A8038F3F09F469C08091A80380329D
:1025200009F466C08091A803803309F463C084E095
:1025300026C08091CC039091CD03A091CE03B091A1
:10254000CF03892B8A2B8B2B09F483CF0E947B0826
:102550000091CC031091CD032091CE033091CF0395
:102560006C197D098E099F09061717072807390777
:1025700008F06FCF8091CB030E94A21085E01092EB
:10258000DF031092DE031092D903DF91CF911F91E8
:102590000F91FF90EF90DF90CF9008959D919193D0
:1025A0008F5F6DCF85EEA9CF8091CC039091CD0345
:1025B000A091CE03B091CF03892B8A2B8B2B09F4EA
:1025C000A2CF0E947B080091CC031091CD032091F3
:1025D000CE033091CF036C197D098E099F09061730
:1025E00017072807390708F08ECFC4CF80E0C7CF80
:1025F00082E0C5CF83E0C3CFCF9388E60E948805F1
:1026000060E088E094E00E94E11160E888E094E0F6
:102610000E94E1118091D103CAE06C2F0E942937FA
:102620008295807F682F690F88E094E00E94E11115
:102630008091D2036C2F0E9429378295807F682F6A
:10264000690F88E094E00E94E1118091D3036C2F20
:102650000E9429378295807F682F690F88E094E077
:102660000E94E1118091D4036C2F0E94293782953A
:10267000807F682F690F88E094E00E94E1118091CB
:10268000D5036C2F0E9429378295807F682F690FB0
:1026900088E094E00E94E1118091D6038E516C2F66
:1026A0000E9429378295807F682F690F88E094E027
:1026B0000E94E11188E094E00E941512882329F01D
:1026C0001092D70380E0CF91089581E08093D703E3
:1026D00088E60E94880560E088E094E00E94E111AD
:1026E0008091D0036C2F0E9429378295807F682FBC
:1026F000690F88E094E00E94E11188E094E00E9474
:1027000015128111DDCF81E0DECFAF92BF92DF9253
:10271000EF92FF920F931F93CF93DF938B01040FE0
:10272000151FEB015C01A61AB70A7501EC0EFD1E20
:10273000D99080917C040E9488058F2D90E00E94A2
:102740001012C70199270E9410126D2D88E094E0A5
:102750000E94E11188E094E00E9415126AE070E0A6
:1027600080E090E00E94A008C017D107F1F6DF9149
:10277000CF911F910F91FF90EF90DF90BF90AF909E
:102780000895EF92FF920F931F93CF93DF93EC0185
:10279000EC80FD806E157F050CF070C057FF04C003
:1027A000240F351F50E040E08E819F81FA01E20F37
:1027B000F31F8E179F071CF49C01241B350B121668
:1027C00013060CF05BC0922F842F86958695869514
:1027D0008E9DD0018F9DB00D11246A0F7B1FAF8D90
:1027E000B8A1A60FB71F477049F188E0841B482F96
:1027F000682F70E0FB01E059FF4FE491281708F0C3
:1028000063C0621B71092FEF30E002C03595279538
:102810006A95E2F7E2230130110539F0B0F1023098
:10282000110561F58C91E82702C08C91E82BEC939F
:10283000941720F12C813D81A20FB31FE92FE41BD7
:10284000E83078F00230110521F58E2F9C9190959B
:102850009C932C813D81A20FB31F88508830B0F724
:10286000E770EE2359F0F0E0E859FF4FE4910130B2
:102870001105F9F010F10230110519F1DF91CF9136
:102880001F910F91FF90EF900895E0958C91E823B0
:10289000CECF81E00115110509F480E081959E2FCE
:1028A0008C932C813D81A20FB31F98509830C0F7B4
:1028B000D7CF8C91E82BEC93E1CFE0958C91E82376
:1028C000FACF8C91E827F7CF0130110509F4ADCF8D
:1028D000E0F20230110509F4A5CFAE0DBF1DAECF59
:1028E0000F931F93CF93DF9377FF04C0260F371FFB
:1028F00070E060E0DC011496CD91DC91FB01E20F09
:10290000F31FCE17DF071CF49E01261B370B121690
:1029100013064CF5FA0157FD3796A3E0F595E795B8
:10292000AA95E1F7EC9FD001ED9FB00DFC9FB00D93
:1029300011246A0F7B1FDC015F96ED91FC91E60F7D
:10294000F71F4770552781E090E001C0880F4A9536
:10295000EAF7482F0130110559F0A8F02E0F3F1F5C
:1029600002301105E1F0DF91CF911F910F91089591
:102970002E0F3F1FE217F307B1F38191DF0111978B
:10298000842B8C93F7CF80952E0F3F1FE217F30710
:1029900051F39191DF01119798239C93F7CFE217A0
:1029A000F30709F38191DF01119784278C93F7CF07
:1029B0000F931F93FA01DC0156964C9156974230C3
:1029C000E9F04330A1F1413061F514964D915C91ED
:1029D000DA01AE1BBF0BFD01E21BF30B77FD0BC051
:1029E000DC0116964D915C916417750724F4AB01D8
:1029F000BF010E9470141F910F91089514964D917C
:102A00005C91DA01A61BB70BBD0161507109DC01B5
:102A100016964D915C91DA01AE1BBF0BFD01E21BD6
:102A2000F30B77FDE8CFAF010E94C113E4CF1696F8
:102A30004D915C91DA01A61BB70BBD016150710984
:102A4000CDCF0F931F93FA01DC0156964C91569708
:102A50004230A9F0433091F1413019F514964D916F
:102A60005C91DA01AE1BBF0BFD013197F7FD04C08D
:102A7000AB01BF010E94C1131F910F9108951496DD
:102A80004D915C91DA01A61BB70BBD01DC011696D6
:102A90004D915C91DA01AE1BBF0BFD013197621BBA
:102AA000730BF7FDE9CFDC0116964D915C91E417AD
:102AB000F50714F7AF010E947014DECF16964D9102
:102AC0005C91DA01A61BB70BBD01621B730BCECF65
:102AD000FC0177FD64C080859185681779070CF04B
:102AE0005EC057FD5CC082859385481759070CF07E
:102AF00056C086898230B1F0833029F1813041F4AB
:102B000084819581841B950BAB01BC0161507109D7
:102B10002130310509F108F443C02230310509F4B0
:102B200063C0089584819581DC01A61BB70BBD01AC
:102B30006150710986819781DC01A41BB50BAD0141
:102B400041505109E5CF86819781861B970BBA01C9
:102B5000AC0141505109DCCFCA0157FD0796A3E0F3
:102B600095958795AA95E1F7A481B5818A9F9001F3
:102B70008B9F300D9A9F300D1124620F731F078CAD
:102B8000F0A1E02DE60FF71F4770552721E030E058
:102B900001C0220F4A95EAF78081822B8083089535
:102BA000CA0157FD079633E0959587953A95E1F769
:102BB000A481B5818A9F90018B9F300D9A9F300D23
:102BC0001124620F731F078CF0A1E02DE60FF71F91
:102BD0004770552781E090E001C0880F4A95EAF7D9
:102BE000809590818923DACFCA0157FD079623E0AB
:102BF000959587952A95E1F7A481B5818A9F9001E3
:102C00008B9F300D9A9F300D1124620F731F078C1C
:102C1000F0A1E02DE60FF71F4770552721E030E0C7
:102C200001C0220F4A95EAF780818227B7CF089525
:102C30008EBD00000DB407FEFDCF8EB50895FF9246
:102C40000F931F93CF93DF93F82ED92FC62F809128
:102C5000310490913204892B09F447C080913504E6
:102C60000E9488058091310490913204DC01ED913D
:102C7000FC910190F081E02D60E009950F2D1D2F52
:102C8000D1E0C1508091310490913204CF3F31F1B5
:102C9000D03298F00E941512809135040E94880568
:102CA0008091310490913204DC01ED91FC9101900E
:102CB000F081E02D60E00995D1E0809131049091A0
:102CC0003204F8016491DC01ED91FC910190F081F6
:102CD000E02D0995DF5F0F5F1F4FD3CFDF91CF91BD
:102CE0001F910F91FF900C941512E0914104F09107
:102CF00042049081809147048095892380830F2D21
:102D00001D2FC15008F438C0F801849120912F0480
:102D100030913004232B29F00E9418160F5F1F4FAB
:102D2000F0CF28E030E040E8E0913D04F0913E042F
:102D300090914504582F5423D9F05081952B9083BE
:102D4000E0913F04F0914004908150914604952B0E
:102D50009083E0913F04F0914004508190914604AB
:102D6000909595239083469521503109E9F6D6CF69
:102D7000508190959523E3CFDF91CF911F910F91D3
:102D8000FF9008951F93CF93DF93EC018D8D9E8D5F
:102D9000892BF9F0162F89A10E9488058D8D9E8DB3
:102DA000DC01ED91FC910190F081E02D60E009954E
:102DB0008D8D9E8DDC01ED91FC910190F081E02DD7
:102DC000612F09958D8D9E8DDF91CF911F910C9470
:102DD0001512ADA5BEA59C918BA9809589238C93D6
:102DE0008B8D9C8D892B31F0862FDF91CF911F9198
:102DF0000C94181628E030E080E8A9A5BAA599A996
:102E0000462F4823C1F04C91942B9C93ABA5BCA5B5
:102E10009C914AA9942B9C93ABA5BCA54C919AA9D3
:102E2000909594239C9386952150310931F7DF9139
:102E3000CF911F9108954C9190959423E6CF8CBD2E
:102E40009DBD0895FF920F931F93CF93DF938091C1
:102E5000310490913204892B09F472C08CE0809384
:102E6000B80065E08DE79AE00E941F166091180493
:102E7000615084E194E00E94C21620911A043091BE
:102E80001B04C901079697FD079623E09595879542
:102E90002A95E1F72091180430911904829F80014E
:102EA000839F100D929F100D1124C0913304D09177
:102EB000340480913104909132040C0F1D1F892B32
:102EC00009F47CC0809135040E948805809131040A
:102ED00090913204DC01ED91FC910190F081E02DA4
:102EE00060E40995FF24F3948091310490913204B9
:102EF0000C171D07E1F1BFE1BF15A0F40E941512E8
:102F0000809135040E9488058091310490913204AB
:102F1000DC01ED91FC910190F081E02D60E40995D8
:102F2000FF24F39480913104909132046991DC0183
:102F3000ED91FC910190F081E02D0995F394D4CFAF
:102F400080912F0490913004892B31F080914904B5
:102F500090914A040E941F17E0914304F0914404A9
:102F60009081809148048095892380837ACF0E9444
:102F700015128091310490913204892B09F45FC0BD
:102F800020914B0430914C0440914D0450914E04DB
:102F900060E074E284EF90E00E944A3520513109EC
:102FA0004109510956954795379527952093B800C3
:102FB000DF91CF911F910F91FF900895E09141040F
:102FC000F0914204808190914704892B80830C17F3
:102FD0001D0779F2899120912F0430913004232B21
:102FE00019F00E941816F3CF28E030E040E8E09195
:102FF0003D04F0913E0490914504582F5423D9F09C
:103000005081952B9083E0913F04F0914004908192
:1030100050914604952B9083E0913F04F091400439
:103020005081909146049095952390834695215028
:103030003109E9F6CCCF508190959523E3CFE0910B
:103040004304F0914404808190914804892B80834B
:10305000AFCF1F93CF93DF93EC01162F8D8D9E8DF5
:10306000892B29F18CE08093B80066EA111167EA98
:10307000CE010E94C2168D8D9E8D892B41F12FA904
:1030800038AD49AD5AAD60E074E284EF90E00E9443
:103090004A352051310941095109569547953795CF
:1030A00027952093B800DF91CF911F9108958B8DC4
:1030B0009C8D892B21F08DA99EA90E941F17EFA539
:1030C000F8A990818CA9809589238083CECFEFA524
:1030D000F8A980819CA9892B8083E5CF089590E091
:1030E00080E008958093BB0084E88093BC008091C9
:1030F000BC0087FFFCCF9091B900987F81E09832A7
:1031000031F0983129F0903419F080E00895089555
:10311000089584EA8093BC008091BC0087FFFCCFB7
:103120008091B900887F19F080EC0C94721880E0CF
:1031300008955F926F927F928F929F92AF92BF920B
:10314000CF92DF92EF92FF920F931F93CF93DF9373
:10315000CDB7DEB7582E742E652EB62E922E0E9455
:103160008918852D0E9472188D2D0E9472188C2D41
:103170000E9472188B2D8370A82A80E081108CE049
:103180008A290E947218862D0E947218872D0E942B
:1031900072188CE0F694E794D794C7948A95D1F787
:1031A0008C2D807FC82E892D8F708C290E947218DB
:1031B000812F0E947218802F0E94721884E98093D8
:1031C000BC008091BC0084FDFCCFDF91CF911F91AA
:1031D0000F91FF90EF90DF90CF90BF90AF909F90B6
:1031E0008F907F906F905F9008954F925F926F9253
:1031F0007F928F929F92AF92BF92CF92DF92EF9287
:10320000FF920F931F93CF93C82FC0907304D09059
:103210007404E0907504F0907604CB01BA01A70124
:1032200096010E944A3549015A0125E0F694E79437
:10323000D794C7942A95D1F735E0969587957795D9
:1032400067953A95D1F747E0660F771F881F991F5A
:103250004A95D1F7A70196010E944A3529013A0102
:103260008B019C01B501A401552766277727E7E06C
:10327000440F551F661F771FEA95D1F75250610919
:103280007109440D551D661D771D812CA12C8C2FB5
:103290000E949918CF911F910F91FF90EF90DF90AE
:1032A000CF90BF90AF909F908F907F906F905F90E6
:1032B0004F9008958F92AF92CF92DF92EF92FF924C
:1032C0000F931F9388248394443051056105710541
:1032D00009F0812C4450510961097E4F97E0440F59
:1032E000551F661F771F9A95D1F7A22EC12CD12C9E
:1032F0007601C39400E010E098010E9499181F9194
:103300000F91FF90EF90DF90CF90AF908F90089546
:10331000CF93DF93D82FC62F0E9489188D2F0E943C
:1033200072188C2F0E94721884E98093BC008091DF
:10333000BC0084FDFCCFDF91CF910895CF93C82FBF
:1033400060E880E18C0F0E948819EC2FF0E0EE0F0E
:10335000FF1FE55AFB4F11821082CF9108954F92C3
:103360005F926F927F92AF92BF92CF92DF92EF9275
:10337000FF920F931F93CF93DF93D82F082F10E066
:10338000F801EE0FFF1FEE0FFF1FE959FB4F4080C2
:10339000518062807380411451046104710489F486
:1033A0008D2FDF91CF911F910F91FF90EF90DF90C4
:1033B000CF90BF90AF907F906F905F904F900C94A4
:1033C0009E195801AA0CBB1CF501E55AFB4FC080A1
:1033D000D180F12CE12C055A1B4FF801C681A301C5
:1033E0009201C701B6010E9419379B01AC01EC2F75
:1033F000F0E0E35BFE4FA081B0E00E943F359B010F
:10340000AC0120583447424D5A412130334A414E95
:10341000514108F43FC060912C0170912D018091C1
:103420002E0190912F01A30192010E944A3569015A
:103430007A0184E0C816D104E104F10408F4B0CFA5
:10344000E6E0CE16D104E104F10408F470C0C0E057
:10345000FDE2CF16F1E0DF06E104F10430F0CF5FCA
:10346000F694E794D794C794F3CFC11103C0E894BE
:10347000C0F8C0E0A3019201C701B6010E9419374C
:103480009B01AC01EC2FF0E0E35BFE4FA081B0E0CC
:103490000E943F352AE1D11122E2AB01BC01822F0B
:1034A0000E94F518F501E55AFB4F80819181B0E04B
:1034B000A0E08C159D05AE05BF0521F4F8018681BD
:1034C0008C1731F12C2F2295207FB701A6018D2F6B
:1034D000880F880F880F865D0E945A19F801618550
:1034E00080E0D11180E26C64682B80E18D0F0E9436
:1034F0008819F501E55AFB4FD182C082F801C683D5
:1035000080917B0490E2D11190E8892B80937B0419
:10351000DF91CF911F910F91FF90EF90DF90CF90AF
:10352000BF90AF907F906F905F904F90089584E030
:10353000C82ED12CE12CF12C9ACF2F923F924F9292
:103540005F926F927F928F929F92AF92BF92CF9233
:10355000DF92EF92FF920F931F93CF93DF9300D0F0
:1035600000D01F92CDB7DEB749015A0127013801BB
:1035700010927B04C0906B04D0906C04E0906D04BA
:10358000F0906E0400916704109168042091690422
:1035900030916A04061717072807390759F0609316
:1035A0006704709368048093690490936A0480E0D0
:1035B0000E94AF19C814D904EA04FB0471F4809185
:1035C0006F0490917004A0917104B09172048415FD
:1035D0009505A605B70509F403C180926B04909286
:1035E0006C04A0926D04B0926E0440926F045092ED
:1035F0007004609271047092720481149104A104A9
:10360000B10419F481E00E949E1980916F04909199
:103610007004A0917104B0917204892B8A2B8B2BBA
:1036200019F482E00E949E1940906B0450906C0443
:1036300060906D0470906E04411451046104710433
:1036400009F473C1C814D904EA04FB0409F4A5C041
:10365000C0905D04D0905E04F12CE12C20916204B6
:103660002983A3019201C701B6010E9419379B016A
:10367000AC018981E82FF0E0E35BFE4FA081B0E070
:103680000E943F354B015C01DC01CB01805894471F
:10369000A24DBA418130934AA14EB14108F446C0CF
:1036A00060912C0170912D0180912E0190912F013C
:1036B000A30192010E944A3569017A0181E044E048
:1036C000C416D104E104F10408F488C086E0C816E9
:1036D000D104E104F10408F4A4C019829DE2C916E2
:1036E00091E0D906E104F10440F029812F5F29839C
:1036F000F694E794D794C794F1CF4981411103C060
:10370000E894C0F81982A3019201C701B6010E9492
:1037100019379B01AC018981E82FF0E0E35BFE4F94
:10372000A081B0E00E943F354B015C01B501A401CE
:1037300082E20E94F51880915D0490915E04B0E0F1
:10374000A0E08C159D05AE05BF0529F480916204AB
:1037500099818917D1F029812295207FB701A6018F
:1037600082E30E945A19609165046C6681E10E94AF
:103770008819D0925E04C0925D042981209362046E
:1037800080917B04806880937B0480927704909280
:103790007804A0927904B0927A04C0906F04D0901B
:1037A0007004E0907104F0907204C114D104E1043B
:1037B000F104B1F08090770490907804A09079049F
:1037C000B0907A04C501B401A70196010E944A3560
:1037D000283031054105510550F582E00E949E19BF
:1037E00060917B04662319F081EB0E948819809117
:1037F0007B040F900F900F900F900F90DF91CF915F
:103800001F910F91FF90EF90DF90CF90BF90AF90FE
:103810009F908F907F906F905F904F903F902F90F0
:10382000089504E0C02ED12CE12CF12C69CF1D822B
:10383000213431054105510560F08D818F5F8D8305
:10384000CC0CDD1CEE1CFF1C569547953795279533
:10385000EFCFC501B401A70196010E944A35298323
:103860003A834B835C832FEF3FEF4FE050E00E94A1
:103870006A3756016701E12CF12C00E010E00E944C
:10388000973729013A019D819295907F9D83C12CA4
:10389000D12C7601C394411451046104710431F0B8
:1038A000CC24CA94DC2CFFE0EF2EF12CC301B20132
:1038B00027E0660F771F881F991F2A95D1F7A70168
:1038C00096010E944A3549015A018B019C014981A8
:1038D0005A816B817C81552766277727E7E0440F63
:1038E000551F661F771FEA95D1F75250610971097C
:1038F000480D591D6A1D7B1D812CAD808AE30E94F5
:1039000099188CE445284628472809F08CE06091F6
:1039100066046062682B82E10E94881981E090E071
:103920009093600480935F045BCF80906F049090CD
:103930007004A0907104B090720481149104A104E9
:10394000B10409F44DCFC0905F04D0906004F12C15
:10395000E12C209163042983A5019401C701B601DC
:103960000E9419379B01AC018981E82FF0E0E35BED
:10397000FE4FA081B0E00E943F358B019C010058B2
:103980001447224D3A410130134A214E314108F487
:1039900043C060912C0170912D0180912E01909176
:1039A0002F01A50194010E944A3569017A0184E042
:1039B000C816D104E104F10408F40FCF96E0C9164B
:1039C000D104E104F10408F458C019822DE2C216B2
:1039D00021E0D206E104F10440F049814F5F4983C0
:1039E000F694E794D794C794F1CF8981811103C0ED
:1039F000E894C0F81982A5019401C701B6010E949C
:103A000019379B01AC019981E92FF0E0E35BFE4F90
:103A1000A081B0E00E943F35AB01BC0182E20E9470
:103A2000F51880915F0490916004B0E0A0E08C15DF
:103A30009D05AE05BF0531F480916304298182178D
:103A400009F4CECE29812295207FB701A6018AE311
:103A50000E945A19609166046C6682E10E9488197E
:103A6000D0926004C0925F044981409363048091C6
:103A70007B04806880937B04B3CE84E0C82ED12C75
:103A8000E12CF12CB5CF90917103911111C08823D5
:103A900089F060E088E00E94190661E089E00C94FA
:103AA000190660E089E00E94190661E088E0F7CF1E
:103AB0008823B9F308958091590390915A0399236B
:103AC000B9F08823B9F08091E00281111CC0809187
:103AD0007203811118C0609124018AE0689FB001CF
:103AE00011248BE00E94AF0681E08093E0020895EC
:103AF000811109C08091E002882329F08BE00E94A7
:103B000047061092E0020895FF920F931F93CF9300
:103B1000DF9300D0CDB7DEB7E0E1F1E010E000E0E8
:103B20008191080F111D81E0E832F807C9F748E1DB
:103B300050E060E171E082E090E00E9485130F5F49
:103B40001F4F1A83098342E050E0BE016F5F7F4F31
:103B500090E080E00E948513E9E0F1E080E191E0EF
:103B600010E000E02191020F111D8E179F07D1F781
:103B70008091110199E0F92E8F9DC001112447E039
:103B800050E069E071E04C960E9485130F5F1F4F73
:103B90001A830983809111018F9DC001112442E095
:103BA00050E0BE016F5F7F4F4A960E9485130F90D1
:103BB0000F90DF91CF911F910F91FF900895809109
:103BC0001D0190911E01092E000CAA0BBB0B805405
:103BD0009340A446BE4F8093730490937404A093C3
:103BE0007504B093760480E00E94AF1982E00C94D3
:103BF000AF198F929F92AF92BF92CF92DF92EF92C6
:103C0000FF920F931F933091090180910A019091C7
:103C10000B01A0910C01B0910D0140911B0150913D
:103C20001C01052E000C660B770B20915A032223F2
:103C300009F4AAC020915903222309F46BC0809093
:103C400024010AE0809E600111240D2C000CEE0876
:103C5000FF083323D9F10091130110911401209131
:103C600015013091160148015901E0E28E0EE1EA9A
:103C70009E1EE7E0AE1EB11C840E951EA61EB71E4A
:103C80008C189D08AE08BF08800F911FA21FB31F9C
:103C90008C019D01005E1E45284F3F4FCB01BA01AC
:103CA000600F711F821F931FE12CF12C8701A5016A
:103CB00094010E949D1A1F910F91FF90EF90DF9049
:103CC000CF90BF90AF909F908F9008950091170173
:103CD000109118012091190130911A0148015901E0
:103CE000E0E28E1AE1EA9E0AE7E0AE0AB108840E2D
:103CF000951EA61EB71E8C0C9D1CAE1CBF1C800FF3
:103D0000911FA21FB31F8C019D010052114A274031
:103D10003109C4CF3323F9F000911301109114013C
:103D20002091150130911601800F911FA21FB31F22
:103D3000805E9E45A84FBF4F5C016D01A40EB51E6D
:103D4000C61ED71EC601B501E12CF12C870120E06B
:103D500030E0A901AECF0091170110911801209118
:103D6000190130911A01800F911FA21FB31F8052B9
:103D7000914AA740B1098C019D01040F151F261F10
:103D8000371FC901B801E0CF3323C9F0E090130118
:103D9000F090140100911501109116018E0D9F1DD8
:103DA000A01FB11F805E9E45A84FBF4F5C016D01F3
:103DB000A40EB51EC61ED71EC601B501C8CFE09021
:103DC0001701F09018010091190110911A018E0D40
:103DD0009F1DA01FB11F8052914AA740B109E6CF95
:103DE00085E10E94630820911F0130E0DC010E9400
:103DF00063372FEF33E040E050E00E9420352093FE
:103E0000DF020895CF93DF938FE00E946308EC01F7
:103E10009093DE028093DD0280E10E94630890931C
:103E2000DC028093DB029E01A4E6B0E00E946C35C8
:103E30002FEF33E040E050E00E9420352093DA027B
:103E4000DF91CF910895DC01ED91FD918081ED919D
:103E5000FD919081ED91FD916C9163708E2309F03D
:103E600064609F2309F06860E0E4FFE1E60FF11D64
:103E7000659565956D936D917D918D919D91099459
:103E800023C01AC012C016C010C01EC009C014C082
:103E900013C006C019C009C00DC007C00DC014C0B2
:103EA00062507040804090400BC061507040804034
:103EB000904006C06E5F01C06F5F7F4F8F4F9F4F76
:103EC0009E938E937E936E930895BF92CF92DF92CE
:103ED000EF92FF920F931F93CF93DF93EC01B62ED7
:103EE000C72E8D85811105C0CE010E949C098111CC
:103EF0000EC01B861D861C8680E0DF91CF911F912E
:103F00000F91FF90EF90DF90CF90BF90089540E029
:103F100060EFCE010E94490901E0E12CD12C11E0B3
:103F2000CE010E94F608F82ECE010E94F60891E01C
:103F3000F91218C0813099F51134D8F2DB86D1100E
:103F400002C081E08D878B81882399F22396EB2D27
:103F5000FC2DCF01089629912193E817F907D9F78D
:103F600081E0CBCFEE2DF0E0F8120FC08B85181753
:103F7000A0F4DE01AE0FBF1F13968C91802379F45D
:103F8000F12C193008F41C87D12EEC0FFD1F838112
:103F9000902F9095892383830AC08113F1CFFE016E
:103FA000EE0DF11D8381802B8383FF24F3946F2D0D
:103FB000CE010E941A091F5F000F11F4E39401E083
:103FC00087E08E1508F0ACCFB7CF4F925F926F921B
:103FD0007F928F929F92AF92BF92CF92DF92EF9299
:103FE000FF920F931F93CF93DF93CDB7DEB7619707
:103FF0000FB6F894DEBF0FBECDBF0E94D308C090AD
:10400000D502D090D602E090D702F090D8026C1979
:104010007D098E099F09693873418105910508F46E
:1040200058C08091D402811154C01092E80380914D
:10403000EC039091ED030E949C0940E06CEC8091B0
:10404000EC039091ED030E9449094091E60364E47A
:104050008091EC039091ED030E9449098091E8035F
:10406000882391F1E091E703E9500EEE12E0E3308E
:1040700038F4F0E0EE0FFF1FE75CFE4F0081118186
:104080008091E903882309F481C08091E6038111BE
:104090007DC00E94D3084B015C012801110F660806
:1040A00077088091EC039091ED030E94F60881302F
:1040B00059F00E94D3086419750986099709681593
:1040C00079058A059B0568F381E08093E803809376
:1040D000D4020E94D3086C197D098E099F096134AE
:1040E0007F4181059105D8F18091D4028823B9F1EF
:1040F000E091EC03F091ED03138615861486128689
:104100001186108617821682158214821382BE01D0
:10411000665F7F4F8091EC039091ED030E94651FD5
:1041200081113BC060E070E08EEF92EC20E030E067
:1041300040E05FE30E947C350E94E83580912201D7
:10414000680F6093D9020E94D3086093D5027093E0
:10415000D6028093D7029093D8021092D40261962F
:104160000FB6F894DEBF0FBECDBFDF91CF911F9188
:104170000F91FF90EF90DF90CF90BF90AF909F9006
:104180008F907F906F905F904F900895B801110FBE
:10419000880B990B0E94A00897CF67E0CE010A9682
:1041A0000E94DF0899898913BDCF8091EC0390911B
:1041B000ED030E949C09882309F4B4CFBE016F5F10
:1041C0007F4FCE010A960E94D409882309F4AACF12
:1041D00068E0CE0101960E94DF0899858913A2CF7D
:1041E0006A8170E0762F6627770F770F770F298126
:1041F00058E0259F90011124262B372B8A8580318A
:10420000D1F4688570E08F81AB01481B5109CA0168
:104210009695982F8827979587950E944937CB01C7
:104220004097B90153E0660F771F5A95E1F7607820
:104230009C01260F371F213854EE35070CF472CF3E
:10424000B901330F880B990B0E94203620E030E033
:1042500040E05CE30E94AC3669CF0F931F93CF938D
:10426000DF9380916103882359F01092D0030E945C
:10427000FC1210926103DF91CF911F910F9108956D
:104280000E94D3080091D0021091D1022091D20255
:104290003091D302601B710B820B930B693E73400C
:1042A0008105910520F4012B022B032B21F70E949D
:1042B000D3086093D0027093D1028093D20290937E
:1042C000D30288E60E94880560E088E094E00E94BE
:1042D000E11188E094E00E941512882391F0109279
:1042E000D7038091D703882331F21092D203109222
:1042F000D1031092D003DF91CF911F910F910C94B5
:10430000FC1281E08093D70367E088E60E94C31027
:104310001092E1038093E003873018F388E094E083
:104320000E94A111D82F982F92959770CAE08D2FD7
:104330008F709C9F800D11248093D00388E094E0BF
:104340000E94A111982F92959F708F709C9F800D55
:1043500011248093D10388E094E00E94A111982F4A
:10436000929593708F709C9F800D11248093D2033F
:1043700088E094E00E94A111982F92959F708F7011
:104380009C9F800D11248093D30388E094E00E94C9
:10439000A111982F92959F708F709C9F800D112472
:1043A0008093D40388E094E00E94A111982F929505
:1043B0009F708F709C9F800D11248093D50388E09F
:1043C00094E00E94A111982F9F70925E82958F7049
:1043D0008C9F900D11249093D603D7FF4CCF81CFA3
:1043E000CF93DF93EC0180917C040E9488058D2F90
:1043F00090E00E941012CE0199270E94101288E0CE
:1044000094E00E94151261E080917C040E94C31028
:104410001092E1038093E003882339F088E094E070
:104420000E94A111DF91CF91089580E0FBCFEF9220
:10443000FF920F931F93CF93DF938B01040F151FF0
:10444000EB017C01E61AF70AC7018C0F9D1F0E9441
:10445000F0218993C017D107B9F7DF91CF911F9150
:104460000F91FF90EF900895DF92EF92FF920F93DC
:104470001F93CF93DF9300D0CDB7DEB71A82198296
:104480008091110129E0829FC001112442E050E097
:10449000BE016F5F7F4F4A960E941722F12CE12CDC
:1044A00010E000E089E0D82E8091110197018D9DE8
:1044B000200D311D1124C9014C960E94F021080FD6
:1044C000111D3FEFE31AF30A87E0E816F10461F7E4
:1044D0000F5F1F4F89819A8108171907B1F48091E6
:1044E00011018D9DC001112447E050E069E071E0A9
:1044F0004C960E9417220F900F90DF91CF911F9141
:104500000F91FF90EF90DF9008950E94841DF3CFEC
:10451000FC0101900020E9F73197AF01481B590BCE
:10452000BC0184E194E00C949A058F929F92AF9223
:10453000BF920F931F93CF93DF93CDB7DEB7A197B1
:104540000FB6F894DEBF0FBECDBF19A2423008F4FB
:104550004AE08E010F5D1F4F842E912CB12CA12CAF
:10456000A50194010E944A35E62FB901CA01EA303B
:10457000F4F4E05DD801EE938D01232B242B252B41
:1045800079F790E080E0109719F0CD010E94882221
:10459000A1960FB6F894DEBF0FBECDBFDF91CF91CD
:1045A0001F910F91BF90AF909F908F900895E95CFD
:1045B000E1CF682F70E090E080E04AE00C94952213
:1045C000CF92DF92EF92FF92CF93DF936C01990F1E
:1045D000EE08FF08F7FE17C08DE20E94700DEC0197
:1045E00066277727CB016C197D098E099F094AE060
:1045F0000E9495228C0F9D1FDF91CF91FF90EF902D
:10460000DF90CF9008954AE0C701B601DF91CF91C6
:10461000FF90EF90DF90CF900C949522CF93DF9393
:104620004AE00E949522EC0183E991E00E948822F1
:104630008C0F9D1FDF91CF910895CF93DF930E9440
:104640008822EC0183E991E00E9488228C0F9D1F53
:10465000DF91CF9108950C948822CF92DF92EF9250
:10466000FF92CF93DF936C01990FEE08FF08F7FEDE
:104670001DC08DE20E94700DEC0166277727CB01EB
:104680006C197D098E099F094AE00E949522C80F86
:10469000D91F83E991E00E9488228C0F9D1FDF9132
:1046A000CF91FF90EF90DF90CF9008954AE0C7013F
:1046B000B6010E949522EC01ECCFCF93DF930E94CC
:1046C000D922EC0183E991E00E9488228C0F9D1F82
:1046D000DF91CF91089520911A0430911B04C901F4
:1046E000079697FD079623E0959587952A95E1F71C
:1046F0002091180430911904829FA001839F500DCE
:10470000929F500D112470E060E0809133049091ED
:1047100034040C942739CF92DF92EF92FF920F93DB
:104720001F93CF930E946B231092210410922004B8
:10473000109223041092220481E090E090932704C9
:1047400080932604909325048093240483E080932F
:10475000280480932904E0917203E43108F063C1D6
:10476000F0E0EB54FC4D0C945D37C9238025942573
:10477000B125CA25E525F9251B26362648265A26C1
:104780006A267A269226AA26C126D126EE26022756
:10479000162780910A0190910B01A0910C01B09114
:1047A0000D0180389649A849B10520F486E092E0D1
:1047B0000E942B2360910A0170910B0180910C01E2
:1047C00090910D0130E4C32E32E4D32E3FE0E32E6E
:1047D000F12CA70196010E944A35CA01B9014AE0AD
:1047E0000E94952280912004909121040596909337
:1047F00021048093200460910A0170910B01809143
:104800000C0190910D01A70196010E944A35603A72
:1048100076488140910520F486E991E00E942B239F
:1048200060910A0170910B0180910C0190910D0132
:1048300020E432E44FE050E00E944A356031774294
:104840008105910520F486E991E00E942B23609177
:104850000A0170910B0180910C0190910D0120E4EF
:1048600032E44FE050E00E944A3528EEC22E23E0A9
:10487000D22EE12CF12CA70196010E944A35CA01E3
:10488000B9014AE00E94952282E080932804809337
:10489000290480912004909121040596909321048D
:1048A0008093200487E090E0909323048093220477
:1048B00060910A0170910B0180910C0190910D01A2
:1048C000A70196010E944A3564367105810591055C
:1048D00020F486E991E00E942B2360910A017091F7
:1048E0000B0180910C0190910D0128EE33E040E026
:1048F00050E00E944A352AE030E040E050E00E945B
:104900004A35CA01B9010E940E2381E08093280430
:10491000809329048091DF02843620F486E991E0B7
:104920000E942B238091DF02CAE06C2F0E9429375E
:1049300090E00E94E02288E991E00E942B23809180
:10494000DF026C2F0E942937892F90E00E94E0221D
:104950008AE991E00E942B2381E0809328048093D0
:10496000290480917103882309F466C06091DD02F7
:104970007091DE022091DB023091DC02CB01820FCC
:10498000931F6F5F7F4F621B730B0E9435376A3036
:10499000710520F486E092E00E942B236091DD02F5
:1049A0007091DE022091DB023091DC02CB01820F9C
:1049B000931F6F5F7F4F621B730B0E94353790E030
:1049C00080E04AE00E94952288E991E00E942B2332
:1049D0006091DD027091DE022091DB023091DC02F9
:1049E000CB01820F931F6F5F7F4F621B730B0E947F
:1049F00035376AE070E00E943537BC0190E080E016
:104A00004AE00E9495222091DA0230E0EE24E394FD
:104A1000F12C09E010E047E150E060E470E084E14F
:104A200094E00E94690ECF911F910F91FF90EF903B
:104A3000DF90CF900C9422178091D90292E3980FC7
:104A4000953608F051C087FD04C086E092E00E94D0
:104A50002B238091D902082E000C990B0E94E02292
:104A600087EF0E94700D8CE991E00E942B238091CA
:104A700068038823E1F186E092E00E942B23809175
:104A8000D2038A3020F486E092E00E942B238091AA
:104A9000D2030E94D9228091D00380FF2BC084EAE8
:104AA00091E00E942B238091D1038A3020F486E983
:104AB00091E00E942B238091D1030E94D922809102
:104AC00009018823D1F086EA91E00E942B2380918E
:104AD00011018A3020F486E092E00E942B2380911D
:104AE00011010E94D9229FCF8EE991E0BECF88E9C3
:104AF00091E0C3CF86E092E0D4CF89EA91E0E5CFA0
:104B0000809111010E945D2381E0809328048093AD
:104B10002904809172030E94D9228CEA91E00E94BC
:104B20002B2380911201DDCFE0911001F0E0EE0F18
:104B3000FF1FE15CFE4F20813181AAE0B0E00E94BE
:104B40006C350E940E2381E0809328048093290411
:104B5000809172030E94D9228EEB91E00E942B2358
:104B600062CF80910901882391F088EC91E00E9446
:104B70001D2381E08093280480932904809172038F
:104B80000E94D92280ED91E00E941D234CCF8CEC35
:104B900091E0EDCF80910E0124E6829FC0011124A7
:104BA0000E942D2381E08093280480932904809122
:104BB00072030E94D92281EE91E00E942B2380EFA4
:104BC0000E94700D8DEE91E0C9CF80910F0124E617
:104BD000829FC00111240E942D2381E0809328042C
:104BE00080932904809172030E94D92281EF91E081
:104BF000E4CF82E080932804809329046091170118
:104C0000709118018091190190911A010E940E2350
:104C100081E08093280480932904809172030E948C
:104C2000D9228DEF91E00E942B2380EF0E94700D1E
:104C30008BEA92E093CF82E080932804809329044A
:104C400060911301709114018091150190911601EA
:104C50000E940E2381E08093280480932904809190
:104C600072030E94D92288E092E0DDCF80911B017F
:104C700090911C010E942D2381E080932804809351
:104C80002904809172030E94D92283E192E0CBCF64
:104C900080911D0190911E010E942D2381E080933F
:104CA000280480932904809172030E94D92284E20F
:104CB00092E0B9CF80911F010E945D2381E0809333
:104CC000280480932904809172030E94D92280E3F2
:104CD00092E044CF809112010E945D2381E0809395
:104CE000280480932904809172030E94D9228BE3C7
:104CF00092E034CF8091D2038A3020F486E991E0AB
:104D00000E942B238091D2030E945D2381E0809337
:104D1000280480932904809172030E94D9228BE495
:104D200092E01CCF8091D1038A3020F486E991E093
:104D30000E942B238091D1030E945D2381E0809308
:104D4000280480932904809172030E94D92282E56D
:104D500092E004CF80912001882381F08BE592E0DE
:104D60000E941D2381E08093280480932904809170
:104D700072030E94D92282E692E006CF8FE592E08C
:104D8000EFCF809121010E945D2381E08093280470
:104D900080932904809172030E94D92284E792E0D3
:104DA000DDCE80912201082E000C990B0E942D234C
:104DB00081E08093280480932904809172030E94EB
:104DC000D92286E892E00E942B2380EF0E94700D8A
:104DD00087EF0E94700D8CE991E0C0CE8091230195
:104DE0002AE0829FC00111240E942D2381E080933C
:104DF000280480932904809172030E94D92281E9BA
:104E000092E0ACCE809124012AE0829FC00111245F
:104E10000E942D2381E080932804809329048091AF
:104E200072030E94D92281EA92E098CE80912701F4
:104E30002AE0829FC00111240E942D2381E08093EB
:104E4000280480932904809172030E94D9228EEA5B
:104E500092E084CE0E94223985ED8093BC0080913F
:104E6000CC039091CD03A091CE03B091CF030796D0
:104E7000A11DB11D23E0B695A795979587952A9515
:104E8000D1F72091BC0024FD03C01092CA030895FD
:104E90004091CC035091CD036091CE037091CF032C
:104EA000452B462B472B69F30097A105B10541F02F
:104EB00025E32A95F1F700000197A109B109E1CF97
:104EC0008091CB030C94A2101F920F920FB60F92F9
:104ED00011242F933F934F935F936F937F938F93FF
:104EE0009F93AF93BF93EF93FF938091780390913B
:104EF0007903A0917A03B0917B03892B8A2B8B2BAA
:104F0000D1F190917303E0917403F0917503808166
:104F1000892780838091780390917903A0917A0307
:104F2000B0917B03181619061A061B069CF4809193
:104F3000780390917903A0917A03B0917B03019754
:104F4000A109B1098093780390937903A0937A0320
:104F5000B0937B03FF91EF91BF91AF919F918F91A0
:104F60007F916F915F914F913F912F910F900FBE65
:104F70000F901F90189580912B010E944706EACF51
:104F80001F920F920FB60F9211242F933F938F937E
:104F90009F93AF93BF938091460390914703A09155
:104FA0004803B09149033091450323E0230F2D3787
:104FB00058F50196A11DB11D20934503809346032A
:104FC00090934703A0934803B093490380914A0309
:104FD00090914B03A0914C03B0914D030196A11DFC
:104FE000B11D80934A0390934B03A0934C03B0935D
:104FF0004D03BF91AF919F918F913F912F910F9052
:105000000FBE0F901F90189526E8230F0296A11D42
:10501000B11DD2CF1F920F920FB60F9211242F9372
:105020003F934F935F936F937F938F939F93AF9330
:10503000BF93EF93FF938091B900887F803609F486
:105040004AC0F0F5883209F4A7C018F5803109F498
:105050009BC0B8F4882309F4F9C0883009F494C0DF
:10506000FF91EF91BF91AF919F918F917F916F9140
:105070005F914F913F912F910F900FBE0F901F9016
:105080001895883109F488C0803251F78093A803BD
:1050900014C0803409F49DC040F48033B9F38833E0
:1050A000F9F68093A80385ECB0C0803509F485C07B
:1050B000883509F496C0883499F60E942C27D0CF01
:1050C000883909F48CC038F5883729F050F48836CF
:1050D00011F0803729F683E08093CA0310924403CD
:1050E00057C0883809F47BC0803919F0803809F03E
:1050F000B7CF80914403803208F071C0E09144033F
:1051000081E08E0F809344038091BB00F0E0EC5D62
:10511000FC4F80833DC0803B39F0E0F4803A09F4D5
:1051200079C0883A09F09CCF84E08093CA0310923A
:10513000230310922203E091DA03F091DB03099537
:105140008091220381110FC081E08093220310928D
:10515000020309C0803C09F4A6CF883C09F4A3CF20
:10516000883B09F07DCFE091230381E08E0F80938F
:105170002303F0E0EE5FFC4F80818093BB009091B1
:1051800023038091220329C08091A5038093BB0053
:1051900085EC8093BC0064CF9091A7038091A60317
:1051A000981758F5E091A70381E08E0F8093A7032D
:1051B000F0E0EC57FC4F8081E9CFE091A70381E05C
:1051C0008E0F8093A7038091BB00F0E0EC57FC4F5B
:1051D00080839091A7038091A6039817C8F285E871
:1051E000D8CFE091A70381E08E0F8093A703809131
:1051F000BB00F0E0EC57FC4F80838091A903811144
:105200005CCF81E08093A40384EA8093BC00109279
:10521000CA0326CF85EC8093BC001092CA0380910C
:105220004403803230F4E0914403F0E0EC5DFC4F45
:1052300010826091440370E0E091DC03F091DD03A3
:1052400084E293E00995109244030ACF1092A803D8
:1052500034CF1F920F920FB60F9211242F933F93CA
:105260004F935F936F937F938F939F93AF93BF936E
:10527000EF93FF938091E4039091E5030E94231F35
:10528000FF91EF91BF91AF919F918F917F916F911E
:105290005F914F913F912F910F900FBE0F901F90F4
:1052A00018951F920F920FB60F9211242F933F93D0
:1052B0004F935F936F937F938F939F93AF93BF931E
:1052C000EF93FF938091E2039091E3030E94231FE9
:1052D000FF91EF91BF91AF919F918F917F916F91CE
:1052E0005F914F913F912F910F900FBE0F901F90A4
:1052F0001895CF93DF931092E1031092E003109280
:10530000DF031092DE030E94841086E895E09093FC
:10531000DB038093DA0387E895E09093DD038093C5
:10532000DC0310920B0410920A0488EE93E0A0E0D4
:10533000B0E080930C0490930D04A0930E04B093FE
:105340000F0489E591E0909309048093080480E5B7
:1053500080937C0410925C0410925B0410925E04B3
:1053600010925D041092600410925F041092610428
:10537000109262041092630480913601909137017B
:10538000A09138018093640490936504A09366040F
:1053900010926704109268041092690410926A04D3
:1053A00010926B0410926C0410926D0410926E04B3
:1053B00010926F0410927004109271041092720493
:1053C00080E89FEDA7E1B0E18093730490937404AB
:1053D000A0937504B093760462E082E00E947306A5
:1053E00062E083E00E947306E2EAFAE0E491F0E012
:1053F000EE0FFF1FEA56F54FA591B491B0935004FC
:10540000A0934F04E4E8FAE0449140935304E3EAA4
:10541000FAE0E491F0E0EE0FFF1FEA56F54FC59178
:10542000D491D0935204C0935104E5E8FAE0E4919A
:10543000E0935404109256041092570410925804AA
:10544000109259042BE33FE1C9010197F1F79C91B8
:10545000842F892391E009F490E08881E82309F002
:1054600092602FE434E0909355043093E30320934B
:10547000E203809169008C7F816080936900E89AE3
:10548000C1E0C0935A043093E5032093E403809174
:105490006900837F846080936900E99A82E0809349
:1054A0005A04109217041092160420E830E030934A
:1054B00019042093180480E290E090931B048093D9
:1054C0001A0430931D0420931C0490931F048093AE
:1054D0001E0410922A0410922104109220041092AB
:1054E000230410922204C0932904C09328048FEF50
:1054F0009FEF909327048093260490932504809334
:105500002404C0932B0410922C0410922E041092A9
:105510002D048BE691E0909315048093140488E0A9
:1055200094E09093320480933104109234041092EA
:1055300033048FEF809338048093390480933A04C6
:1055400080933B0480933C0480E58093490410924F
:105550004A0480EA96E8A1E0B0E080934B0490937F
:105560004C04A0934D04B0934E041092300410925A
:105570002F0460E08EE00E947306E0E9FAE0E49117
:10558000E093FA03EEEAFAE0E491F0E0EE0FFF1F99
:10559000EA56F54F859194919093FC038093FB0319
:1055A000109205041092070410920604109204044D
:1055B000109203041092020410920104109200044D
:1055C0001092FF031092FE031092FD038AEF93E006
:1055D0009093ED038093EC031092EA031092EB0397
:1055E0001092E60389E08093E703C093E803C09339
:1055F000E9031092F9031092F803DF91CF91089517
:10560000CF93DF93CDB7DEB760970FB6F894DEBFC8
:105610000FBECDBF789484B5826084BD84B58160AF
:1056200084BD85B5826085BD85B5816085BD80916D
:105630006E00816080936E001092810080918100E5
:1056400082608093810080918100816080938100DD
:10565000809180008160809380008091B10084609F
:105660008093B1008091B00081608093B000809100
:105670007A00846080937A0080917A0082608093BF
:105680007A0080917A00816080937A0080917A001C
:10569000806880937A001092C10060E086E00E94EA
:1056A000730661E089E00E94730661E088E00E9471
:1056B000730660E086E00E94190660E089E00E94BF
:1056C000190660E088E00E94190660E085E00E940B
:1056D000730660E087E00E94730660E085E00E9448
:1056E000190660E087E00E94190661E08BE00E94E5
:1056F000730660E08BE00E94190660E084E00E947F
:10570000730660E08FE00E94730660E080E10E9413
:10571000730661E08CE00E94730661E084E00E9401
:10572000190683E080930001809133049091340442
:10573000892B11F10E946B2320911A0430911B04D4
:105740008091180490911904213231050CF0B5C0F4
:10575000B9016052710977FF02C06F5F7F4F759585
:1057600067958357910997FD019600E210E023E7C2
:1057700030E042ED55E0B4C020911A0430911B0492
:10578000C901079697FD0796B3E095958795BA9559
:10579000E1F72091180430911904AC01429FC00137
:1057A000439F900D529F900D11240E94FD379093BE
:1057B000340480933304892B09F0BCCF0E946B23FF
:1057C0000E942217E091EC03F091ED0313861586F9
:1057D000148612861186108617821682158214820C
:1057E00013821092EA031092EB0301E0BE016F5F97
:1057F0007F4F8091EC039091ED030E94651F8823F9
:1058000009F446C267E0CE0101960E94DF08988540
:105810008913ECCF8091E603811128C08091EC03BD
:105820009091ED030E949C09BE016F5F7F4F8091B4
:10583000EC039091ED030E947D0940E064EB8091C0
:10584000EC039091ED030E9449098091EC03909143
:10585000ED030E94F608182F8091EC039091ED0360
:105860000E949C09111102C00093E6031091E70306
:105870008981803111F40C940C35CE0101960E947F
:10588000200A811708F0F3C18091E7038093E703B2
:105890008091EA038F5F8093EA038981883239F02F
:1058A00008F0EFC1803119F0823209F09FCF80916A
:1058B000EB038F5F8093EB0399CFB90160547109BB
:1058C00077FF02C06F5F7F4F75956795825591098D
:1058D00097FD019600E410E022E530E042EB57E04E
:1058E000959587950E944F0F82E0809336048091B2
:1058F000310490913204892B09F4AEC08CE380937B
:1059000035041092E1031092E0031092DF0310922D
:10591000DE030E94841086E895E09093DB03809379
:10592000DA0387E895E09093DD038093DC038091B0
:105930003C0487FD1EC061E00E94730661E0809117
:105940003C040E94190661E070E080E090E00E9453
:10595000A00860E080913C040E9419066AE070E0B3
:1059600080E090E00E94A00861E080913C040E94E9
:1059700019068091310490913204892B09F42BC1CE
:105980008CE08093B80064E08EEC95E00E941F16D6
:1059900060911A04615084E194E00E94C21664E0B0
:1059A0008AEC95E00E941F168091360460E18130F8
:1059B00009F064E184E194E00E94C21664E086ECA0
:1059C00095E00E941F168091180490911904803868
:1059D000910509F02BC180911A0490911B0480322B
:1059E000910509F00FC164E082EC95E00E941F165A
:1059F00069ED84E194E00E94C2168091360462E26F
:105A0000813009F061EF84E194E00E94C21666E003
:105A100086EB95E00E941F1680913104909132042C
:105A2000892B09F41AC120914B0430914C04409108
:105A30004D0450914E0460E074E284EF90E00E94C7
:105A40004A352051310941095109569547953795F5
:105A500027952093B800B2CE61E080913A040E946D
:105A6000730661E080913B040E94730680913A04C2
:105A7000082E000C990BFC01E056F54FE491F0E084
:105A8000EE0FFF1FEE58F54F2591349130934204ED
:105A900020934104FC01EE57F54FE491E093470455
:105AA00080913B04082E000C990BFC01E056F54F49
:105AB000E491F0E0EE0FFF1FEE58F54FA591B49181
:105AC000B0934404A0934304FC01EE57F54FE491D6
:105AD000E09348048C91E82BEC9380912F049091F3
