:100000000C9452050C94AA2D0C94822D0C947A0514
:100010000C947A050C947A050C947A050C947A0564
:100020000C947A050C947A050C947A050C947A0554
:100030000C947A050C947A050C947A050C947A0544
:100040000C940E2C0C947A050C947A050C947A0579
:100050000C947A050C947A050C947A050C947A0524
:100060000C94632C0C947A05000103070F1F3F7F4B
:100070000080C0E0F0F8FCFE00000000003E5B4F96
:100080005B3E3E6B4F6B3E1C3E7C3E1C183C7E3CF8
:10009000181C577D571C1C5E7F5E1C00183C180006
:1000A000FFE7C3E7FF0018241800FFE7DBE7FF3096
:1000B000483A060E2629792926407F050507407F04
:1000C00005253F5A3CE73C5A7F3E1C1C08081C1C77
:1000D0003E7F14227F22145F5F005F5F06097F016D
:1000E0007F006689956A606060606094A2FFA29458
:1000F00008047E040810207E201008082A1C080826
:100100001C2A08081E101010100C1E0C1E0C303873
:100110003E3830060E3E0E06000000000000005F74
:1001200000000007000700147F147F14242A7F2A90
:100130001223130864623649562050000807030052
:10014000001C2241000041221C002A1C7F1C2A089E
:10015000083E080800807030000808080808000001
:1001600060600020100804023E5149453E00427F75
:10017000400072494949462141494D331814127FC4
:100180001027454545393C4A494931412111090764
:100190003649494936464949291E000014000000E5
:1001A00040340000000814224114141414140041B7
:1001B00022140802015909063E415D594E7C121174
:1001C000127C7F494949363E414141227F414141AC
:1001D0003E7F494949417F090909013E4141517327
:1001E0007F0808087F00417F41002040413F017F98
:1001F000081422417F404040407F021C027F7F0460
:1002000008107F3E4141413E7F090909063E4151A8
:10021000215E7F09192946264949493203017F0198
:10022000033F4040403F1F2040201F3F4038403F99
:10023000631408146303047804036159494D4300AF
:100240007F4141410204081020004141417F0402E6
:10025000010204404040404000030708002054547D
:1002600078407F284444383844444428384444285B
:100270007F385454541800087E090218A4A49C78AE
:100280007F0804047800447D40002040403D007F0A
:100290001028440000417F40007C047804787C08EA
:1002A0000404783844444438FC18242418182424BE
:1002B00018FC7C08040408485454542404043F44A3
:1002C000243C4040207C1C2040201C3C4030403CD2
:1002D00044281028444C9090907C4464544C440032
:1002E0000836410000007700000041360800020196
:1002F0000204023C2623263C1EA1A161123A404082
:10030000207A3854545559215555794122545478FE
:1003100042215554784020545579400C1E52721297
:100320003955555559395454545939555454580020
:1003300000457C410002457D420001457C407D1224
:1003400011127DF0282528F07C5455450020545486
:100350007C547C0A097F4932494949323A44444431
:100360003A324A4848303A4141217A3A424020786C
:10037000009DA0A07D3D4242423D3D4040403D3C6D
:1003800024FF2424487E4943662B2FFC2F2BFF0992
:1003900029F620C0887E0903205454794100004486
:1003A0007D413048484A32384040227A007A0A0A71
:1003B000727D0D19317D2629292F282629292926E4
:1003C00030484D4020380808080808080808382F29
:1003D00010C8ACBA2F102834FA00007B00000814B3
:1003E0002A142222142A14085500550055AA55AA89
:1003F00055AAFF55FF55FF000000FF00101010FF29
:1004000000141414FF001010FF00FF1010F010F083
:10041000141414FC001414F700FF0000FF00FF1474
:1004200014F404FC141417101F10101F101F1414C0
:10043000141F00101010F0000000001F101010100A
:100440001F10101010F010000000FF1010101010FE
:1004500010101010FF10000000FF140000FF00FF3C
:1004600000001F10170000FC04F4141417101714D8
:1004700014F404F40000FF00F714141414141414FA
:10048000F700F7141414171410101F101F1414146D
:10049000F4141010F010F000001F101F0000001FD7
:1004A00014000000FC140000F010F01010FF10FF0A
:1004B000141414FF141010101F00000000F010FF9F
:1004C000FFFFFFFFF0F0F0F0F0FFFFFF0000000083
:1004D00000FFFF0F0F0F0F0F3844443844FC4A4A07
:1004E0004A347E02020606027E027E0263554941BC
:1004F000633844443C04407E201E2006027E0202F3
:1005000099A5E7A5991C2A492A1C4C7201724C3006
:100510004A4D4D303048784830BC625A463D3E49DD
:100520004949007E0101017E2A2A2A2A2A44445F81
:10053000444440514A444040444A51400000FF0175
:1005400003E080FF000008086B6B08361236243683
:10055000060F090F060000181800000010100030E8
:1005600040FF0101001F01011E00191D1712003C70
:100570003C3C3C0000000000005EBCE2613FDD83CB
:10058000C29C7E20A3FD1F41009D23BE46DB65F873
:100590008C11AF32CA57E974000000002400270014
:1005A0002A00DB40A4A62EAFDA0281DA1281DA0239
:1005B000818F2000A1C8D300408DAED580A8000057
:1005C0000000250028002B00000060000000000053
:1005D000000000000000000000E00000000000003B
:1005E0000000000000000001E0000000000000002A
:1005F00000000000000001F000000000000000000A
:10060000000000000003F0000000000000000000F7
:100610000000000007F000000000000000000000E3
:1006200000000007F80000000000000000000000CB
:1006300000000FF800000003C0007E000001E00091
:100640007F0FF800000003C000FE000001E000FF83
:10065000EFF800000003C000FE000001E000FFFF13
:10066000F800000003C000F00000000F007FFE7FD4
:10067000C0000003C000F00000000F003FFE7FF844
:100680003FF1FBCFFCFEF3BC3DEFE01FFE7FFF7FA1
:10069000FBFFDFFEFEFFBC3DEFE01FC6FFFF7FFB61
:1006A000FFDFFEFEFFBC3DEFE00FE3C7FE787BC33C
:1006B000DE1EF0FFBC3DEF0007FF87FC787BC3DE4A
:1006C0001EF0F83C3DEF0001FFFFF0007BC3C01EB1
:1006D000F0F03C3DEF0001F37FE03FFBC3CFFEF0C5
:1006E000F03C3DEF0003E33F807FFBC3DFFEF0F013
:1006F0003C3DEF0007E73C00787BC3DE1EF0F03C9A
:100700003DEF0007FFBE00787BC3DE1EF0F03C3DEE
:10071000EF0007FFFE00787BC3DE1EF0F03C3DEFEC
:10072000000FFFFE007FFBFFDFFEF0F03FFDEFE07C
:100730000FFFFF007FFBFFDFFEF0F03FFDEFE00F5C
:10074000F9FF003E79F9CF9EF0F01F3DE7E01FF181
:10075000FF0000000000000000000000001F80FFFC
:10076000007FFFFFFFFFFFFFFFFFFFE01C007F0098
:100770007FFFFFFFFEB46D888D18E000001F007F33
:10078000FFFFFFFE95AD7DB577E000000F007FFF16
:10079000FFFFFEA5AD9D8D19E0000006007FFFFF65
:1007A000FFFEB5ADEDB57EE0000000000001800069
:1007B00000000000000000000380000000000000B6
:1007C00000000007C000000000000000000007C09B
:1007D0000000000000000000000FC000000000004A
:1007E000000000001FE00000000000000000001FEB
:1007F000E00000000000000000003FE000000000FA
:1008000000000000003FF0000000000000000000B9
:100810007FF0000000000000001FF87FF0000000E3
:10082000000000003FFE7FF0000000000000003FDD
:10083000FF7FF0000000000000001FFFFBE0000051
:1008400000000000000FFFF9FFC0000000000000E2
:100850000FFFF9FFF800000000000007FFF1FFFFA5
:1008600000000000000003FC73FFFF800000000098
:100870000001FE3FFFFF80000000000000FF1E0F90
:10088000FF000000000000007FFE1FFC00000000D1
:100890000000003FFFFFF8000000000000000FDF35
:1008A000FFE0000000000000001F19FFC000000072
:1008B000000000003F3CFF00000000000000007E40
:1008C0007CF800000000000000007FFE7C000000BB
:1008D0000000000000FFFFFC00000000000000001E
:1008E000FFFFFE0000000000000000FFFFFE000010
:1008F000000000000001FFEFFE000000000000000B
:1009000001FFCFFE0000000000000003FF07FE0013
:1009100000000000000003FC07FE000000000000D3
:100920000003F003FE00000000000000018000FE54
:10093000000000000000000000007E000000000039
:1009400000000000003E0000000000000000000069
:100950000C000000000000078000FC000003C00045
:100960000000078001FC000003C0000000078001B8
:10097000FC000003C0000000078001E00000001E32
:10098000000000078001E00000001E007FE3F79FE9
:10099000F9FDE7787BDFC0FFF7FFBFFDFDFF787B48
:1009A000DFC0FFF7FFBFFDFDFF787BDFC0F0F787FB
:1009B000BC3DE1FF787BDE00F0F787BC3DE1F078DD
:1009C0007BDE0000F787803DE1E0787BDE007FF78B
:1009D000879FFDE1E0787BDE00FFF787BFFDE1E068
:1009E000787BDE00F0F787BC3DE1E0787BDE00F04D
:1009F000F787BC3DE1E0787BDE00F0F787BC3DE1A6
:100A0000E0787BDE00FFF7FFBFFDE1E07FFBDFC0AA
:100A1000FFF7FFBFFDE1E07FFBDFC07CF3F39F3D0D
:100A2000E1E03E7BCFC000000000000000000000BD
:100A300000FFFFFFFFFFFFFFFFFFFFC0FFFFFFFF04
:100A4000FD68DB111A31C0FFFFFFFFFD2B5AFB6A67
:100A5000EFC0FFFFFFFFFD4B5B3B1A33C0FFFFFF03
:100A6000FFFD6B5BDB6AFDC02200FF210001020479
:100A70000810204080010204081020010204081020
:100A800020000000002300260029000404040404C0
:100A9000040404020202020202030303030303002C
:100AA000D22D003511241FBECFEFD8E0DEBFCDBF61
:100AB00024E0AEEDB2E001C01D92AA37B207E1F723
:100AC00012E0A0E0B1E0E8E4F2E702C005900D9288
:100AD000AE3DB107D9F715E0C1E5D5E004C02197D7
:100AE000FE010E94DD35C035D107C9F70E944D2FA8
:100AF0000C9417390C94000091E09093DA038093E2
:100B0000D9031092D8031092D70308959091CE0381
:100B10009111FCCF91E09093CE039093CD032FEFF2
:100B20002093CC031092CB03260F2093CA039093FB
:100B3000C9039091C903880F892B8093C9038091C1
:100B4000C803813011F51092C8038091C9038093C6
:100B5000BB008091BC0083FDF8CF85EC8093BC0086
:100B60008091CE038130E1F38091CB03861710F49E
:100B70006091CB0328EA33E0A8E8B3E0F9018E2FB7
:100B8000821B861720F0862F089585EEE7CF81918E
:100B90008D93F5CF0F931F93CF93DF93611571055D
:100BA0008105910509F444C0DC01CB01813020E4CA
:100BB0009207A105B10520F080E090E4A0E0B0E04C
:100BC000BC01CD0124E0660F771F881F991F2A956D
:100BD000D1F76F3F71058105910509F008F478C0E0
:100BE000611528E072078105910538F1611520E251
:100BF00072078105910508F45FC0611520E4720752
:100C00008105910508F45CC0611520E87207810533
:100C1000910508F459C0C0E0D4E017E061157105F2
:100C200021E08207910560F416E0C0E0D1E00FC03A
:100C300081E090E0A0E0B0E0C3CFC8E0D0E012E0F7
:100C400000E06115710524E08207910531F09E01F5
:100C500050E040E00E944837022F8091B000807F32
:100C600082608093B0001093B1008FEF800F80936B
:100C7000B3008091B1008770809387039E0150E09C
:100C800040E060E074E284EF90E00E941E37CA0109
:100C9000B901202F30E050E040E00E941E3760E4B0
:100CA00072E48FE090E00E944837CA01B901DF91F9
:100CB000CF911F910F910895C0E2D0E013E0C0CF13
:100CC000C0E4D0E014E0BCCFC0E8D0E015E0B8CF7D
:100CD00011E0C1E0D0E0BBCF809185039091860305
:100CE000891B990B089508950895482FE62F282F02
:100CF00030E0863009F459C000F58330E1F18530E9
:100D000009F44FC04830E0F14E3010F1443108F0A2
:100D100063C02E50310981E090E0A0E0B0E004C053
:100D2000880F991FAA1FBB1F2A95D2F728B1EE235F
:100D300009F44FC0822B88B908958A30C9F18B30ED
:100D4000D9F18930F9F6809180008F778093800007
:100D50002850310981E090E0A0E0B0E004C0880FA5
:100D6000991FAA1FBB1F2A95D2F7E1112EC025B1EA
:100D7000809582232CC09091B0009F7D9093B0000D
:100D800081E090E0A0E0B0E004C0880F991FAA1FA6
:100D9000BB1F4A95D2F72BB1EE23A1F0822B8BB962
:100DA000089594B59F7D94BDEBCF94B59F77FBCF0D
:100DB000809180008F7DCACF8091B0008F77809323
:100DC000B000C6CF80958223EACF25B1822B85B9AA
:100DD000089580958223AFCF0895109286031092D4
:100DE00085031092D8031092D7031092CE0381E0AE
:100DF0008093CD031092C803449A459AE9EBF0E042
:100E000080818E7F808380818D7F808388E4809342
:100E1000B80085E48093BC0083E796E09093840358
:100E20008093830384E796E0909382038093810309
:100E300008950895CF92DF92EF92FF920F931F9340
:100E4000613009F45BC0623009F490C08830C8F4A6
:100E50009AB141E050E060E070E004C0440F551FDB
:100E6000661F771F8A95D2F7409594239AB98BB164
:100E700048234BB91F910F91FF90EF90DF90CF90D7
:100E800008958E30B0F424B1082F0850110B81E082
:100E900090E0A0E0B0E004C0880F991FAA1FBB1F1C
:100EA0000A95D2F78095282324B995B1892385B96D
:100EB000E1CF8431F8F6E7B190E09C012E50310982
:100EC00041E050E060E070E06A017B0104C0CC0CBE
:100ED000DD1CEE1CFF1C2A95D2F7860100950E231F
:100EE00007B928B1089704C0440F551F661F771F24
:100EF0008A95D2F74095422348B9BCCF883078F420
:100F00009AB141E050E060E070E004C0440F551F2A
:100F1000661F771F8A95D2F7942B9AB9ABCF8E3084
:100F200088F424B18850990B41E050E060E070E013
:100F300004C0440F551F661F771F8A95D2F7242BD4
:100F400024B998CF843108F095CF27B18E50990BF2
:100F500041E050E060E070E004C0440F551F661FA0
:100F6000771F8A95D2F7242B27B984CF8830B8F41D
:100F70003AB141E050E060E070E07A018B0104C0DA
:100F8000EE0CFF1C001F111F8A95D2F7C7012E2DF2
:100F9000209523232AB92BB1822B8BB96BCF8E30AE
:100FA000B0F434B1082F0850110B81E090E0A0E0BC
:100FB000B0E004C0880F991FAA1FBB1F0A95D2F783
:100FC000282F2095232324B925B1822B70CF84317B
:100FD00008F050CF37B1682F6E50770B81E090E06A
:100FE000A0E0B0E004C0880F991FAA1FBB1F6A953C
:100FF000D2F7282F2095232327B928B1822B88B92F
:1010000039CFCF92DF92EF92FF920F931F93CF933E
:10101000DF937C016A0110E000E00C151D0581F0F2
:10102000EB01D701ED91FC910190F081E02D6991E8
:10103000C7010995892B21F00F5F1F4FBE01EDCF2E
:10104000C801DF91CF911F910F91FF90EF90DF903A
:10105000CF900895880F991F880F991F05970197C2
:10106000F1F708953FB7F89480915D0390915E0386
:10107000A0915F03B091600326B5A89B05C02F3FE8
:1010800019F00196A11DB11D3FBFBA2FA92F982FAE
:101090008827BC01CD01620F711D811D911D42E0A9
:1010A000660F771F881F991F4A95D1F708958F9271
:1010B0009F92AF92BF92CF92DF92EF92FF926B011D
:1010C0007C010E9432084B015C01C114D104E1048F
:1010D000F104B9F00E943208681979098A099B095C
:1010E000683E73408105910580F381E0C81AD108FC
:1010F000E108F10828EE820E23E0921EA11CB11C2B
:10110000E4CFFF90EF90DF90CF90BF90AF909F9093
:101110008F9008952FB7F8946091590370915A03F6
:1011200080915B0390915C032FBF08952091000193
:1011300090E4299F900111248E50822B80937C0093
:1011400080917A00806480937A0080917A0086FD95
:10115000FCCF80917800909179000895E0E0615093
:1011600098F0DC018D918E27E82FEF70F0E0E858C1
:10117000FA4F9491E82FE295EF70F0E0E857FA4FBC
:10118000E491E927CD01EBCF8E2F08950F931F93A4
:10119000CF93DF93FC011081C181D281F8948981C2
:1011A000812B89838A81012F009580238A8383E0A4
:1011B00090E00E942A088981802389838AE090E058
:1011C0000E942A08C881789485E390E00E942A084A
:1011D000C12381E009F480E0DF91CF911F910F914D
:1011E00008951F93CF93DF93FC011081C181D281B9
:1011F000912F909560FF16C0F8948A8189238A8385
:101200008981812B89838AE090E00E942A088A8163
:10121000182B1A83789487E390E0DF91CF911F9188
:101220000C942A08F8948A8189238A838981812BE6
:10123000898381E490E00E942A088A81182B1A830E
:10124000789485E090E0E9CFDF92EF92FF920F93E0
:101250001F93CF93DF93EC01D62EE42E08E010E02D
:10126000FF24F39461E08D2D8F2109F460E0CE011D
:101270000E94F108FF0C01501109A1F7E11010C004
:10128000F894E981FA81918188818095892381830D
:10129000E981FA819281888180958923828378947B
:1012A000DF91CF911F910F91FF90EF90DF90089504
:1012B000EF92FF920F931F93CF93DF938C017B01EB
:1012C00040E065E50E942409E70188E0E80EF11C92
:1012D000699140E0C8010E942409CE15DF05C1F7DD
:1012E000DF91CF911F910F91FF90EF900895FF92A2
:1012F0000F931F93CF93DF93FC010081C181D281B3
:10130000F8948981F02EF0948F21898378941DE7D9
:10131000115029F182E090E00E942A088881802300
:10132000B9F3F8948A818F218A838981802B8983FC
:10133000789480EE91E00E942A08F89489818F21A8
:10134000898386E490E00E942A088881082311E0BE
:1013500009F010E078948AE991E00E942A08812F30
:10136000DF91CF911F910F91FF900895AF92BF929F
:10137000CF92DF92EF92FF920F931F93CF93DF9361
:101380008B01BC018091E5039091E6030E9458090E
:1013900040E06EEB8091E5039091E6030E94240902
:1013A000E801680189E0C80ED11CA090E503B09067
:1013B000E60388E0E82EF12C10E001E0C5010E9470
:1013C000C6088111102B000F81E0E81AF108B1F76F
:1013D0001993CC16DD0649F78091E5039091E60359
:1013E0000E94770991E0813009F090E0892FDF9128
:1013F000CF911F910F91FF90EF90DF90CF90BF9012
:10140000AF9008950F931F93CF93DF93CDB7DEB7BF
:1014100029970FB6F894DEBF0FBECDBF8C01FC013B
:101420008081803181F18091E5039091E6030E94F3
:10143000770981110CC080E029960FB6F894DEBFC1
:101440000FBECDBFDF91CF911F910F910895BE01C7
:101450006F5F7F4FC8010E94B609882361F368E07F
:10146000CE0101960E94AE0899858913E4CF8D8143
:101470008F3359F020F48F31F1F689E0DDCF8F35CD
:1014800031F08F37C1F68CE0D7CF8AE0D5CF8BE033
:10149000D3CF0895FC016370668B8481958126818A
:1014A0003781623021F0633039F0613029F0918763
:1014B00080873387228708953187208793878287A3
:1014C00008952F923F924F925F926F927F928F92E8
:1014D0009F92AF92BF92CF92DF92EF92FF920F93C3
:1014E0001F93CF93DF93CDB7DEB76A970FB6F8940B
:1014F000DEBF0FBECDBF9A8F898F7A8369834A0181
:10150000D22E18870F833701BC2CDC0159962D9100
:101510003C915A972115310509F015C118968D9106
:101520009C911997681779070CF0D7C11A968D917D
:101530009C91481759070CF0D0C14C2C512CB6E0A7
:10154000CB9E600D711D11247C876B8716161706C4
:101550000CF0C3C1EA2DF0E0FA87E98793E0EE0FC3
:10156000FF1F9A95E1F7F88BEF87CF01840F951F46
:10157000181619060CF0B1C1A98DBA8D58968C9128
:10158000811104C0BFEABD1508F4D394A98DBA8DAA
:10159000ED91FC9111970284F385E02DCD01099521
:1015A000B5E0DB9EC0011124E981FA81FC83EB8365
:1015B000312C212C9C0128583F4F388F2F8B4A2DDE
:1015C00050E05E8B4D8BEF89F88DE20DF31D449159
:1015D0009E828D82D12CC12C69817A81620D731D0E
:1015E0007A8B698B842F90E09C8B8B8BE98DFA8DA5
:1015F000A081B18140FF82C0F1E0BF126FC0AF1285
:101600006DC01C96ED91FC912F813885A4014C0D85
:101610005D1D69897A89898D9A8D0995EB89FC8987
:10162000F595E7954E2F5FEFC51AD50A6D817E813E
:101630008D899E89680F791F7E836D8398E0C91616
:10164000D10481F6AFEF2A1A3A0AEB81FC81E40D4E
:10165000F51DFC83EB83F5E02F16310409F0B3CFC1
:101660002F81388526153705B9F0A98DBA8DED91F2
:10167000FC91B1E0BB1257C0AB1255C069817A81B1
:101680006B5F7F4F0088F189E02D830128E030E017
:10169000A401898D9A8D0995A98DBA8DED91FC9142
:1016A00011970688F789E02DCD016A960FB6F89458
:1016B000DEBF0FBECDBFDF91CF911F910F91FF9085
:1016C000EF90DF90CF90BF90AF909F908F907F90E2
:1016D0006F905F904F903F902F9009941E96ED91E0
:1016E000FC91EF80F88409851A8592014D815E8115
:1016F0006B817C81898D9A8D099590CF2F8138855A
:101700002615370509F48ACF31E0B31207C0A312BA
:1017100005C01C96ED91FC91930178CF1E96ED913A
:10172000FC917301E0CF6B857C8564197509068493
:10173000F785E02D73010F8518899201A401898D29
:101740009A8D0995A9CFF9013496949132974591D4
:101750005491D91AB7E0DB9E400D511D1124F901B7
:10176000259134913C8B2B8BFA0125903490FA0112
:101770003296749031963491398B329664903196CA
:10178000449041E04C1518F04A1508F07FC0662DD2
:10179000062C000C770B7C836B83842D042C000CAF
:1017A000990B9E838D83A98DBA8DED91FC91119734
:1017B0000284F385E02DCD010995512CD12CC12C4B
:1017C000EA2DF0E0FA87E9872B2D30E03C872B8764
:1017D000A401440D511D47FC5A95588F4F8B6981C8
:1017E0007A81660D711D67FC7A957E876D87798990
:1017F000C71608F051CF2C2D30E04D815E81420F8D
:10180000531FA985BA854A9FC0014B9F900D5A9FCF
:10181000900D1124FC01E80DF91DF88BEF87852D43
:10182000612C4F89588D420F531F5E8B4D8B67146F
:1018300008F050C044244394480E877041F4C1011D
:101840000196EB89FC89E20DF31DD4901C01D7FEB3
:1018500019C0A98DBA8DED91FC91662D70E0B1E0B3
:10186000BB1219C0AB1217C02D853E85620F731FC6
:101870000484F585E02D2F8138854D895E89898D19
:101880009A8D0995DD0C6394842DD1CF1E821D8223
:101890001C821B8288CF4B815C81640F751FAB85D6
:1018A000BC856A9FC0016B9F900D7A9F900D11249B
:1018B00069817A81680F791F0684F785E02DEF80B2
:1018C000F88409851A859D014F855889898D9A8DDF
:1018D0000995D8CF570CC3948ACF6A960FB6F8945F
:1018E000DEBF0FBECDBFDF91CF911F910F91FF9053
:1018F000EF90DF90CF90BF90AF909F908F907F90B0
:101900006F905F904F903F902F9008958F929F928D
:10191000AF92CF92EF92FF920F931F93CF93DF93EB
:10192000EC01262F898D9A8D009709F051C06A30FD
:10193000D1F41D861C868D8948E0849F9001112476
:101940008E859F85820F931F9F878E8781E090E011
:10195000DF91CF911F910F91FF90EF90CF90AF90BB
:101960009F908F9008956D3089F3CC88AD888F89D2
:101970008823C1F08C859D8536E0C39E800D911D26
:101980001124488559854817590764F44E855F85A9
:101990001D861C8638E0A39EC0011124840F951F6C
:1019A0009F878E87EA88FB88088919894E855F851D
:1019B0006C857D85CE010E94610A2C898C859D8570
:1019C00046E0249F800D911D11249D878C87BECFFA
:1019D0006A3069F41D861C86FC013896E4912D89D5
:1019E0008E859F85E29F800D911D1124ADCF6D30B6
:1019F00009F4ACCFFC0134963491631708F4A6CFF8
:101A00003296E491E61708F4A1CFFC013296859056
:101A10009490462F431B342F47E0349F800C911C39
:101A20001124F401329634913196E4913323A9F1D3
:101A3000EE2399F1CC88F4013596E491AD884F8975
:101A4000442301F10E2E000CFF0BE30FF11DCE9E7F
:101A5000A001CF9E500D11246C857D85460F571F28
:101A600068857985641775076CF44E855F851D86DA
:101A70001C86FC013896E491AE9E400D511D112448
:101A80005F874E87EA88FB88088919894E855F85BC
:101A90006C857D85CE010E94610AF4013496E49143
:101AA0002C898C859D85E29F800D911D11248DCF01
:101AB000682F8DE094E00C94860C6F927F928F9249
:101AC0009F92AF92BF92CF92DF92EF92FF920F93CD
:101AD0001F93CF93DF93EC016B015A013901480149
:101AE000E881F9810284F385E02D0995E881F98187
:101AF0000288F389E02D87019301A501B601CE018B
:101B00000995A501480D591D41505109E881F981F8
:101B10000288F389E02D9301B601CE010995E88191
:101B2000F9810088F189E02D9401A501B601CE016B
:101B30000995C60CD71CB60161507109E881F9817D
:101B40000088F189E02D9401A501CE010995E88175
:101B5000F9810688F789E02DCE01DF91CF911F91A1
:101B60000F91FF90EF90DF90CF90BF90AF909F903C
:101B70008F907F906F9009948F929F92AF92BF92B7
:101B8000CF92DF92EF92FF920F931F93CF93DF9349
:101B90004C016B015A01E901DC01ED91FC916217E6
:101BA000730709F50417150724F48B2D5801042F2A
:101BB000182F0A191B0998012F5F3F4F048CF58DD0
:101BC000E02D8701A501B601C4010995DF91CF91F0
:101BD0001F910F91FF90EF90DF90CF90BF90AF904B
:101BE0009F908F9008954017510781F4261737076B
:101BF00024F48D2D6901C62FD82F9E012C193D0983
:101C00002F5F3F4F068CF78DE02DDBCF0284F385ED
:101C1000E02D0995D401ED91FC910488F589E02D22
:101C20009E01A501B601C4010995D401ED91FC9175
:101C30000688F789E02DC401DF91CF911F910F91A4
:101C4000FF90EF90DF90CF90BF90AF909F908F90DC
:101C50000994EF92FF920F931F93DC011A960D9156
:101C60001C911B9718962D913C911997ED91FC9121
:101C700000A0F1A1E02D7B0150E040E070E060E0C9
:101C800009951F910F91FF90EF9008954F925F92E9
:101C90006F927F928F929F92AF92BF92CF92DF927C
:101CA000EF92FF920F931F93CF93DF936C012B0161
:101CB0005A0139014801DC01ED91FC910284F38560
:101CC000E02D0995E201640C751CD601ED91FC91A3
:101CD000C615D7055CF40088F189E02D87019401D1
:101CE000A501BE01C60109952196EFCF0688F789A7
:101CF000E02DC601DF91CF911F910F91FF90EF90E2
:101D0000DF90CF90BF90AF909F908F907F906F901B
:101D10005F904F9009948F929F92AF92BF92CF9213
:101D2000DF92EF92FF920F931F93CF93DF93EC011B
:101D30005B014A016901E881F9810284F385E02DA4
:101D4000099595012C0D3D1D21503109E881F9813E
:101D50000488F589E02D78018401A401B501CE0144
:101D60000995E881F9810688F789E02DCE01DF9198
:101D7000CF911F910F91FF90EF90DF90CF90BF9088
:101D8000AF909F908F9009948F929F92AF92BF9245
:101D9000CF92DF92EF92FF920F931F93CF93DF9337
:101DA000EC015B014A0169017801E881F981028453
:101DB000F385E02D0995C80CD91C86010150110945
:101DC000E881F9810488F589E02D9501A401B50128
:101DD000CE010995E881F9810688F789E02DCE01C9
:101DE000DF91CF911F910F91FF90EF90DF90CF90F7
:101DF000BF90AF909F908F900994EF92FF920F93B6
:101E00001F93DC01ED91FC9100A0F1A1E02D09955B
:101E10001F910F91FF90EF9008950F931F93DC0196
:101E2000ED91FC91068CF78DE02D09951F910F9196
:101E300008950F931F93DC01ED91FC91048CF58DB7
:101E4000E02D09951F910F910895DC01ED91FC9112
:101E50000084F185E02D09943F924F925F926F923A
:101E60007F928F929F92AF92BF92CF92DF92EF922A
:101E7000FF920F931F93CF93DF935C017B014A0185
:101E80006901390187E0680E711C93E075946794CD
:101E90009A95E1F72B01400E511E10E000E0312C25
:101EA000D0E0C0E0CE0187709927330C892B59F41C
:101EB000FE0183E0F595E7958A95E1F7E00FF11FC4
:101EC000E80DF91D349037FE0AC021E030E0A7018B
:101ED000B5016C0F7D1F8DE094E00E94250F2196C7
:101EE000CC16DD06F9F68FEFE81AF80A060D171D75
:101EF000E414F504A9F6DF91CF911F910F91FF90A3
:101F0000EF90DF90CF90BF90AF909F908F907F9099
:101F10006F905F904F903F9008952F923F924F9215
:101F20005F926F927F928F929F92AF92BF92CF9269
:101F3000DF92EF92FF920F931F93CF93DF9300D026
:101F400000D000D0CDB7DEB72C017E836D836A014F
:101F50005901C801FC82EB824801841A950A97FE58
:101F600003C091948194910835012D813E81621ABC
:101F7000730A77FE03C07194619471086814790440
:101F80005CF43A2D2B2D5C01832F922F3D812E8105
:101F9000DE82CD82C32ED22EAD81BE81AA16BB06B3
:101FA0005CF43C2D2D2D6C01832F922F3D812E81D1
:101FB000BE82AD82A32EB22E85012D813E81021BF1
:101FC000130B1C012C183D0837FE03C031942194DB
:101FD0003108780117FF03C03FEFE31AF30AF594C5
:101FE000E794C816D90664F18FEF9FEF9A8389832F
:101FF0002D813E81A216B30644F1D201ED91FC91F0
:102000000484F585E02D2B813C814D815E81B601F4
:10201000681479041CF0A6016D817E81C2010995C6
:10202000E218F308F7FE06C029813A81C20ED31EDA
:10203000E00EF11E8D819E8101969E838D83D8CF07
:10204000A1E0B0E0BA83A983D3CF26960FB6F89467
:10205000DEBF0FBECDBFDF91CF911F910F91FF90DB
:10206000EF90DF90CF90BF90AF909F908F907F9038
:102070006F905F904F903F902F90089585ED8093E3
:10208000BC008091BC0084FDFCCF1092CE0308956B
:1020900020913503260F3327331F21323105ECF40D
:1020A0002091CE03FC0190E080E0243069F082E0D2
:1020B0000895A09135032191AC014B5E5C4FA40FB4
:1020C000B52FB11D2C930196861798F38091350397
:1020D000680F6093350380E0089581E00895E091F2
:1020E000860380918503E81730F4F0E0E857FC4F51
:1020F000808190E008958FEF9FEF0895909186037F
:10210000809185032FEF3FEF981748F4E92FF0E017
:10211000E857FC4F208130E09F5F90938603C90110
:102120000895CF92DF92EF92FF920F931F93CF9378
:10213000DF937C01CB018A012091DA03222389F00D
:10214000EB016B01C40ED51ECC15DD0569F069915C
:10215000D701ED91FC910190F081E02DC701099527
:10216000F3CF642F0E944810C801DF91CF911F91D7
:102170000F91FF90EF90DF90CF900895CF93DF9372
:102180000F92CDB7DEB769832091DA032223F9F0ED
:102190002091D703203258F021E030E0FC01338356
:1021A000228390E080E00F90DF91CF91089580919D
:1021B000D803E82FF0E0EB50FD4F998190838F5FBB
:1021C0008093D8038093D70381E090E0ECCF61E067
:1021D000CE0101960E944810F7CF682F81E094E06D
:1021E0000C94BE102091D70381E0213208F046C044
:1021F0008091CE038111FCCF9091D90332E03093CE
:10220000CE0331E03093CD033FEF3093CC031092F7
:10221000CB032093CA0345EF52E0A8EAB3E0FA01EA
:102220003E2F341B321788F11092C9032091C90345
:10223000990F922B9093C9039091C803913041F567
:102240001092C8039091C9039093BB009091BC0079
:1022500093FDF8CF95EC9093BC009091CE03923013
:10226000E1F39091CC039F3F49F08091CC03803201
:1022700089F08091CC03803379F084E01092D80308
:102280001092D7031092DA03089531913D93C8CF8D
:1022900095EEE1CF82E0F2CF83E0F0CFCF9388E6F6
:1022A0000E947C0560E081E094E00E94BE1060E83E
:1022B00081E094E00E94BE108091D003CAE06C2FB0
:1022C0000E941F358295807F682F690F81E094E01E
:1022D0000E94BE108091D1036C2F0E941F35829501
:1022E000807F682F690F81E094E00E94BE1080918A
:1022F000D2036C2F0E941F358295807F682F690F53
:1023000081E094E00E94BE108091D3036C2F0E9464
:102310001F358295807F682F690F81E094E00E94CD
:10232000BE108091D4036C2F0E941F358295807F50
:10233000682F690F81E094E00E94BE108091D50360
:102340008E516C2F0E941F358295807F682F690FF8
:1023500081E094E00E94BE1081E094E00E94F210BF
:10236000882329F01092D60380E0CF91089581E070
:102370008093D60388E60E947C0560E081E094E0CB
:102380000E94BE108091CF036C2F0E941F35829552
:10239000807F682F690F81E094E00E94BE1081E089
:1023A00094E00E94F2108111DDCF81E0DECFBF9278
:1023B000CF92DF92EF92FF920F931F93CF93DF9311
:1023C0008C017B01E40EF51EEB01B99068018FEFE3
:1023D000C81AD80A809175040E947C05812F90E06C
:1023E0000E94ED10C80199270E94ED106B2D81E02D
:1023F00094E00E94BE1081E094E00E94F2106AE036
:1024000070E080E090E00E945708BE018601CE1582
:10241000DF05D1F6DF91CF911F910F91FF90EF90E3
:10242000DF90CF90BF9008950F931F93CF93DF93CA
:10243000EC01EC81FD816E177F070CF073C0DA01AF
:10244000A20FB31F57FF03C09D0150E040E08E81F3
:102450009F818A179B071CF49C01241B350B1216C5
:1024600013060CF05FC0922F842F86958695869573
:102470008E9FD0018F9FB00D1124A60FB71F6F8DB7
:1024800078A1A60FB71F477059F188E0841B482F29
:10249000682F70E0FB01E059FF4FE491281708F026
:1024A00065C0621B71092FEF30E002C0359527959A
:1024B0006A95E2F7E2230130110549F00115110593
:1024C000B1F10230110571F58C91E82702C08C91B1
:1024D000E82BEC93941730F12C813D81A20FB31FB0
:1024E000E92FE41BE83078F00230110521F58E2F3A
:1024F0009C9190959C932C813D81A20FB31F885095
:102500008830B0F7E770EE2369F0F0E0E859FF4F4C
:10251000E49101301105F9F00115110501F10230C6
:10252000110509F1DF91CF911F910F910895E09569
:102530008C91E823CECF81E00115110509F480E0EC
:1025400081959E2F8C932C813D81A20FB31F9850B3
:102550009830C0F7D7CF8C91E82BEC93E3CFE09580
:102560008C91E823FACF8C91E827F7CF0130110541
:1025700009F4ADCF01151105D1F20230110509F4AE
:10258000A3CFAACF0F931F93CF93DF93FB01E20F4B
:10259000F31F77FF03C09F0170E060E0DC01149639
:1025A000CD91DC91CE17DF071CF49E01261B370B63
:1025B000121613065CF5FA0157FD3796A3E0F59560
:1025C000E795AA95E1F7EC9FD001ED9FB00DFC9F38
:1025D000B00D11246A0F7B1FDC015F96ED91FC9119
:1025E000E60FF71F4770552781E090E001C0880F84
:1025F0004A95EAF7482F0130110569F001151105D8
:10260000A9F02E0F3F1F02301105E1F0DF91CF91AD
:102610001F910F9108952E0F3F1FE217F307B1F39B
:10262000DF018D91842B8083FD01F7CF80952E0FE4
:102630003F1F2E173F0751F3DF019D919823908391
:10264000FD01F7CFE217F30709F3DF018D9184272E
:102650008083FD01F7CF0F931F93FA01DC0156969B
:102660004C9156974230E9F04330A1F1413061F589
:1026700014964D915C91DA01AE1BBF0BFD01E21B7C
:10268000F30B77FD0BC0DC0116964D915C9164173E
:10269000750724F4AB01BF010E94C2121F910F9174
:1026A000089514964D915C91DA01A61BB70BBD01FC
:1026B00061507109DC0116964D915C91DA01AE1BF7
:1026C000BF0BFD01E21BF30B77FDE8CFAF010E94CA
:1026D0001412E4CF16964D915C91DA01A61BB70B4C
:1026E000BD0161507109CDCF0F931F93FA01DC0139
:1026F00056964C9156974230A9F0433091F14130B3
:1027000019F514964D915C91DA01AE1BBF0BFD01DA
:102710003197F7FD04C0AB01BF010E9414121F9155
:102720000F91089514964D915C91DA01A61BB70B99
:10273000BD01DC0116964D915C91DA01AE1BBF0B19
:10274000FD013197621B730BF7FDE9CFDC01169693
:102750004D915C91E417F50714F7AF010E94C21286
:10276000DECF16964D915C91DA01A61BB70BBD0129
:10277000621B730BCECFFC0177FD66C0808591850F
:10278000681779070CF060C057FD5EC0828593859D
:10279000481759070CF058C086898230C1F0833041
:1027A00039F1813041F484819581841B950BAB0113
:1027B000BC01615071092130310519F12115310534
:1027C00009F443C02230310509F463C008958481BF
:1027D0009581DC01A61BB70BBD0161507109868193
:1027E0009781DC01A41BB50BAD0141505109E3CF2A
:1027F00086819781861B970BBA01AC014150510924
:10280000DACFCA0157FD0796A3E095958795AA955B
:10281000E1F7A481B5818A9F90018B9F300D9A9F2B
:10282000300D1124620F731F078CF0A1E02DE60F0D
:10283000F71F4770552721E030E001C0220F4A956D
:10284000EAF78081822B80830895CA0157FD07969D
:1028500033E0959587953A95E1F7A481B5818A9FF4
:1028600090018B9F300D9A9F300D1124620F731FC2
:10287000078CF0A1E02DE60FF71F4770552781E088
:1028800090E001C0880F4A95EAF7809590818923EE
:10289000DACFCA0157FD079623E0959587952A95CB
:1028A000E1F7A481B5818A9F90018B9F300D9A9F9B
:1028B000300D1124620F731F078CF0A1E02DE60F7D
:1028C000F71F4770552721E030E001C0220F4A95DD
:1028D000EAF780818227B7CF08958EBD00000DB43E
:1028E00007FEFDCF8EB50895FF920F931F93CF93F0
:1028F000DF93F82ED92FC62F80912A0490912B04B4
:10290000892B09F447C080912E040E947C05809198
:102910002A0490912B04DC01ED91FC910190F0814F
:10292000E02D60E009950F2D1D2FD1E0C150809161
:102930002A0490912B04CF3F31F1D03298F00E94BD
:10294000F21080912E040E947C0580912A049091BF
:102950002B04DC01ED91FC910190F081E02D60E011
:102960000995D1E080912A0490912B04F80164919B
:10297000DC01ED91FC910190F081E02D0995DF5F84
:102980000F5F1F4FD3CFDF91CF911F910F91FF901A
:102990000C94F210E0913A04F0913B049081809104
:1029A00040048095892380830F2D1D2FC15008F48A
:1029B00038C0F80184912091280430912904232BF8
:1029C00029F00E946D140F5F1F4FF0CF28E030E018
:1029D00040E8E0913604F091370490913E04582F7E
:1029E0005423D9F05081952B9083E0913804F091D5
:1029F0003904908150913F04952B9083E0913804E5
:102A0000F0913904508190913F04909595239083E3
:102A1000469521503109E9F6D6CF508190959523FE
:102A2000E3CFDF91CF911F910F91FF9008951F93F6
:102A3000CF93DF93EC01162F8D8D9E8D892BF1F0B6
:102A400089A10E947C058D8D9E8DDC01ED91FC910C
:102A50000190F081E02D60E009958D8D9E8DDC0167
:102A6000ED91FC910190F081E02D612F09958D8D04
:102A70009E8DDF91CF911F910C94F210EDA5FEA5D4
:102A800090818BA98095892380838B8D9C8D892B48
:102A900031F0862FDF91CF911F910C946D1428E0B7
:102AA00030E090E8E9A5FAA589A9412F4923C1F0B2
:102AB0004081842B8083EBA5FCA580814AA9842BCF
:102AC0008083EBA5FCA540818AA98095842380831F
:102AD00096952150310931F7DF91CF911F910895DB
:102AE000408180958423E6CF8CBD9DBD0895FF92E3
:102AF0000F931F93CF93DF9380912A0490912B041F
:102B0000892B09F472C08CE08093B80065E088E6F8
:102B10009AE00E9474146091110461508DE094E079
:102B20000E9417152091130430911404C9010796CF
:102B300097FD079623E0959587952A95E1F72091D3
:102B4000110430911204829F8001839F100D929F87
:102B5000100D1124C0912C04D0912D0480912A04D1
:102B600090912B040C0F1D1F892B09F47CC08091C0
:102B70002E040E947C0580912A0490912B04DC0194
:102B8000ED91FC910190F081E02D60E40995FF2426
:102B9000F39480912A0490912B04C017D107E1F19E
:102BA000BFE1BF15A0F40E94F21080912E040E9494
:102BB0007C0580912A0490912B04DC01ED91FC911D
:102BC0000190F081E02D60E40995FF24F394809159
:102BD0002A0490912B04DC01ED91FC910190F0818D
:102BE000E02D69910995F394D4CF809128049091B8
:102BF0002904892B31F080914204909143040E9472
:102C00007415E0913C04F0913D0490818091410461
:102C10008095892380837ACF0E94F21080912A04C4
:102C200090912B04892B09F45FC0209144043091CA
:102C30004504409146045091470460E074E284EFFB
:102C400090E00E94483720513109410951095695B9
:102C50004795379527952093B800DF91CF911F9125
:102C60000F91FF900895E0913A04F0913B04808128
:102C700090914004892B80830C171D0779F289916C
:102C80002091280430912904232B19F00E946D14FF
:102C9000F3CF28E030E040E8E0913604F0913704CB
:102CA00090913E04582F5423D9F05081952B908356
:102CB000E0913804F0913904908150913F04952BB4
:102CC0009083E0913804F0913904508190913F0451
:102CD000909595239083469521503109E9F6CCCF04
:102CE000508190959523E3CFE0913C04F0913D0411
:102CF000808190914104892B8083AFCF1F93CF9324
:102D0000DF93EC01162F8D8D9E8D892B29F18CE0A0
:102D10008093B80066EA111167EACE010E94171588
:102D20008D8D9E8D892B41F12FA938AD49AD5AADBE
:102D300060E074E284EF90E00E944837205131094E
:102D40004109510956954795379527952093B80025
:102D5000DF91CF911F9108958B8D9C8D892B21F050
:102D60008DA99EA90E947415EFA5F8A990818CA940
:102D7000809589238083CECFEFA5F8A980819CA977
:102D8000892B8083E5CF089590E080E008958093BB
:102D9000BB0084E88093BC008091BC0087FFFCCF1F
:102DA0009091B900987F81E0983231F0983129F004
:102DB000903419F080E008950895089584EA80938E
:102DC000BC008091BC0087FFFCCF8091B900887F58
:102DD00019F080EC0C94C71680E008955F926F9212
:102DE0007F928F929F92AF92BF92CF92DF92EF929B
:102DF000FF920F931F93CF93DF93CDB7DEB7582E7B
:102E0000742E652EB62E922E0E94DE16852D0E94FF
:102E1000C7168D2D0E94C7168C2D0E94C7168B2DAC
:102E200083708A2990E081109CE0892B0E94C7164C
:102E3000862D0E94C716872D0E94C7168CE0F69437
:102E4000E794D794C7948A95D1F78C2D807FC82EAC
:102E5000892D8F708C290E94C716812F0E94C7165A
:102E6000802F0E94C71684E98093BC008091BC002B
:102E700084FDFCCFDF91CF911F910F91FF90EF90D8
:102E8000DF90CF90BF90AF909F908F907F906F908A
:102E90005F9008954F925F926F927F928F929F9270
:102EA000AF92BF92CF92DF92EF92FF920F931F9358
:102EB000CF93C82FC0906C04D0906D04E0906E0446
:102EC000F0906F04CB01BA01A70196010E94483728
:102ED00049015A0125E0F694E794D794C7942A95BE
:102EE000D1F735E096958795779567953A95D1F71F
:102EF00047E0660F771F881F991F4A95D1F7A701F2
:102F000096010E94483729013A018B019C01B501C5
:102F1000A401552766277727E7E0440F551F661F52
:102F2000771FEA95D1F7525061097109440D551D7B
:102F3000661D771D812CA12C8C2F0E94EE16CF913F
:102F40001F910F91FF90EF90DF90CF90BF90AF90C7
:102F50009F908F907F906F905F904F9008958F9289
:102F6000AF92CF92DF92EF92FF920F931F9388243C
:102F70008394443051056105710509F0812C44505A
:102F8000510961097E4F97E0440F551F661F771F57
:102F90009A95D1F7A22EC12CD12C7601C39400E0D2
:102FA00010E098010E94EE161F910F91FF90EF9094
:102FB000DF90CF90AF908F900895CF93DF93D82F6D
:102FC000C62F0E94DE168D2F0E94C7168C2F0E94DE
:102FD000C71684E98093BC008091BC0084FDFCCFBF
:102FE000DF91CF910895CF93C82F60E880E18C0FD7
:102FF0000E94DD17EC2FF0E0EE0FFF1FEC5AFB4FA5
:1030000011821082CF9108954F925F926F927F92BA
:10301000AF92BF92CF92DF92EF92FF920F931F93E6
:10302000CF93DF93D82F082F10E0F801EE0FFF1F8A
:10303000EE0FFF1FE05AFB4F40805180628073808B
:10304000411451046104710489F48D2FDF91CF91F3
:103050001F910F91FF90EF90DF90CF90BF90AF90B6
:103060007F906F905F904F900C94F3175801AA0CCB
:10307000BB1CF501EC5AFB4FC080D180F12CE12C38
:103080000C5A1B4FF801C681A3019201C701B6017A
:103090000E940F359B01AC01EC2FF0E0EC5AFE4F83
:1030A000A081B0E00E943D379B01AC01205834471D
:1030B000424D5A412130334A414E514108F43FC0FC
:1030C0006091330170913401809135019091360106
:1030D000A30192010E94483769017A0184E0C81671
:1030E000D104E104F10408F4B0CFE6E0CE16D10437
:1030F000E104F10408F470C0C0E0FDE2CF16F1E095
:10310000DF06E104F10430F0CF5FF694E794D79442
:10311000C794F3CFC11103C0E894C0F8C0E0A30185
:103120009201C701B6010E940F359B01AC01EC2F43
:10313000F0E0EC5AFE4FA081B0E00E943D372AE15A
:10314000D11122E2AB01BC01822F0E944A17F50186
:10315000EC5AFB4F80819181B0E0A0E08C159D0579
:10316000AE05BF0521F4F80186818C1731F12C2FB3
:103170002295207FB701A6018D2F880F880F880F19
:10318000865D0E94AF17F801618580E0D11180E271
:10319000682B6C6480E18D0F0E94DD17F501EC5AFD
:1031A000FB4FD182C082F801C6838091740490E203
:1031B000D11190E8892B80937404DF91CF911F91F6
:1031C0000F91FF90EF90DF90CF90BF90AF907F90E6
:1031D0006F905F904F90089584E0C82ED12CE12C21
:1031E000F12C9ACF2F923F924F925F926F927F92E3
:1031F0008F929F92AF92BF92CF92DF92EF92FF9207
:103200000F931F93CF93DF9300D000D00F92CDB7D1
:10321000DEB749015A012701380110927404C090A9
:103220006404D0906504E0906604F0906704009117
:1032300060041091610420916204309163040617C8
:1032400017072807390759F06093600470936104E9
:10325000809362049093630480E00E940418C81471
:10326000D904EA04FB0471F4809168049091690424
:10327000A0916A04B0916B0484159505A605B70565
:1032800009F403C18092640490926504A0926604DC
:10329000B0926704409268045092690460926A0494
:1032A00070926B0481149104A104B10419F481E0BB
:1032B0000E94F3178091680490916904A0916A04B8
:1032C000B0916B04892B8A2B8B2B19F482E00E941E
:1032D000F317409064045090650460906604709009
:1032E0006704411451046104710409F473C1C814E2
:1032F000D904EA04FB0409F4A5C0C0905604D09098
:103300005704F12CE12C20915B042983A301920145
:10331000C701B6010E940F359B01AC018981E82FDE
:10332000F0E0EC5AFE4FA081B0E00E943D374B0127
:103330005C01DC01CB0180589447A24DBA41813039
:10334000934AA14EB14108F446C060913301709197
:1033500034018091350190913601A30192010E94C0
:10336000483769017A0181E044E0C416D104E104E0
:10337000F10408F488C086E0C816D104E104F10421
:1033800008F4A4C019829DE2C91691E0D906E104AF
:10339000F10440F029812F5F2983F694E794D794B4
:1033A000C794F1CF4981411103C0E894C0F8198254
:1033B000A3019201C701B6010E940F359B01AC0128
:1033C0008981E82FF0E0EC5AFE4FA081B0E00E9426
:1033D0003D374B015C01B501A40182E20E944A170E
:1033E0008091560490915704B0E0A0E08C159D05A3
:1033F000AE05BF0529F480915B0499818917D1F04E
:1034000029812295207FB701A60182E30E94AF1790
:1034100060915E046C6681E10E94DD17D0925704D2
:10342000C0925604298120935B04809174048068C3
:10343000809374048092700490927104A09272043C
:10344000B0927304C0906804D0906904E0906A045C
:10345000F0906B04C114D104E104F104B1F0809048
:10346000700490907104A0907204B0907304C50130
:10347000B401A70196010E94483728303105410563
:10348000510550F582E00E94F317609174046623A1
:1034900019F081EB0E94DD17809174040F900F905A
:1034A0000F900F900F90DF91CF911F910F91FF9090
:1034B000EF90DF90CF90BF90AF909F908F907F90D4
:1034C0006F905F904F903F902F90089504E0C02E32
:1034D000D12CE12CF12C69CF1D822134310541051D
:1034E000510560F08D818F5F8D83CC0CDD1CEE1C4F
:1034F000FF1C5695479537952795EFCFC501B40129
:10350000A70196010E94483729833A834B835C8345
:103510002FEF3FEF4FE050E00E9453355601670117
:10352000E12CF12C00E010E00E94803529013A01E5
:103530009D819295907F9D83C12CD12C7601C3945F
:10354000411451046104710431F0CC24CA94DC2C80
:10355000FFE0EF2EF12CC301B20127E0660F771FC9
:10356000881F991F2A95D1F7A70196010E94483715
:1035700049015A018B019C0149815A816B817C81EF
:10358000552766277727E7E0440F551F661F771FEB
:10359000EA95D1F7525061097109480D591D6A1D0C
:1035A0007B1D812CAD808AE30E94EE166CE44528D9
:1035B0004628472809F06CE080915F04682B606220
:1035C00082E10E94DD1781E090E09093590480939E
:1035D00058045BCF8090680490906904A0906A04BE
:1035E000B0906B0481149104A104B10409F44DCF8F
:1035F000C0905804D0905904F12CE12C20915C0427
:103600002983A5019401C701B6010E940F359B01D2
:10361000AC018981E82FF0E0EC5AFE4FA081B0E0C8
:103620000E943D378B019C0100581447224D3A41BE
:103630000130134A214E314108F443C060913301F7
:10364000709134018091350190913601A50194016A
:103650000E94483769017A0184E0C816D104E10468
:10366000F10408F40FCF96E0C916D104E104F10487
:1036700008F458C019822DE2C21621E0D206E104F6
:10368000F10440F049814F5F4983F694E794D79461
:10369000C794F1CF8981811103C0E894C0F81982E1
:1036A000A5019401C701B6010E940F359B01AC0131
:1036B0009981E92FF0E0EC5AFE4FA081B0E00E9422
:1036C0003D37AB01BC0182E20E944A178091580449
:1036D00090915904B0E0A0E08C159D05AE05BF05A2
:1036E00031F480915C042981821709F4CECE2981BE
:1036F0002295207FB701A6018AE30E94AF1760914F
:103700005F046C6682E10E94DD17D0925904C0927A
:103710005804498140935C048091740480688093CC
:103720007404B3CE84E0C82ED12CE12CF12CB5CF9B
:1037300090917F03992341F0811105C060E089E0F9
:103740000E947506289A08958823E9F3289861E075
:1037500089E00C94750680916E038823A9F180910D
:103760006D0381110CC08091F402882389F180914E
:10377000B0008F738093B0001092F40229C0809142
:10378000F402811125C080918003811121C0209114
:10379000310184E1289F90011124032E000C440B79
:1037A000550B60E472E48FE090E00E944837CA0154
:1037B000B9010E94CA058091B0008F738064809324
:1037C000B00081E08093F40280916D03882359F268
:1037D0000895FF920F931F93CF93DF9300D0CDB73F
:1037E000DEB7E4E1F1E010E000E08191080F111D87
:1037F00081E0E333F807C9F74FE150E064E171E09D
:1038000082E090E00E94D711075F1F4F1A8309835F
:1038100042E050E0BE016F5F7F4F90E080E00E9489
:10382000D711EAE0F1E081E191E010E000E02191C0
:10383000020F111D8E179F07D1F78091150199E096
:10384000F92E8F9DC001112447E050E06AE071E03D
:1038500083960E94D711075F1F4F1A8309838091B7
:1038600015018F9DC001112442E050E0BE016F5F41
:103870007F4F81960E94D7110F900F90DF91CF91CB
:103880001F910F91FF90089580912A0190912B0133
:10389000092E000CAA0BBB0B80549340A446BE4FCC
:1038A00080936C0490936D04A0936E04B0936F04A6
:1038B00080E00E94041882E00C9404188F929F927A
:1038C000AF92BF92CF92DF92EF92FF920F931F932E
:1038D000CF93C0916E03CC2309F454C020910A0108
:1038E00080910B0190910C01A0910D01B0910E01FE
:1038F0004091280150912901052E000C660B770B91
:1039000030916D03332309F4A2C0809031010AE0A5
:10391000809E600111240D2C000CEE08FF0822236C
:1039200009F471C000911C0110911D0120911E012C
:1039300030911F0148015901E0E28E0EE1EA9E1E1E
:10394000E7E0AE1EB11C840E951EA61EB71E8C1895
:103950009D08AE08BF08800F911FA21FB31F8C01E6
:103960009D01005E1E45284F3F4FCB01BA01600FFD
:10397000711F821F931FE12CF12C8701A501940177
:103980000E94F21880917003882309F4AEC08091E0
:103990000B0190910C01A0910D01B0910E0180904E
:1039A000280190902901092C000CAA08BB0840911D
:1039B0000A01442309F47DC0E0901C01F0901D0130
:1039C00000911E0110911F018E0D9F1DA01FB11FA0
:1039D000BC01CD01605E7E45884F9F4F680D791D0B
:1039E0008A1D9B1D20E030E0A9010E94F218CF91B2
:1039F0001F910F91FF90EF90DF90CF90BF90AF900D
:103A00009F908F900895009124011091250120919D
:103A100026013091270148015901E0E28E1AE1EABE
:103A20009E0AE7E0AE0AB108840E951EA61EB71ED8
:103A30008C0C9D1CAE1CBF1C800F911FA21FB31FBE
:103A40008C019D010052114A274031098ECF22235B
:103A5000F9F000911C0110911D0120911E0130917F
:103A60001F01800F911FA21FB31F805E9E45A84FAC
:103A7000BF4F8C019D01040F151F261F371FC90161
:103A8000B801E12CF12C870120E030E0A90178CFCA
:103A900000912401109125012091260130912701E8
:103AA000800F911FA21FB31F8052914AA740B109F6
:103AB000E0CFE0902401F0902501009126011091C3
:103AC00027018E0D9F1DA01FB11FBC01CD016052AB
:103AD000714A8740910982CFE0902001F090210146
:103AE0000091220110912301ECCFC11180CF809170
:103AF0000B0190910C01A0910D01B0910E018090ED
:103B0000280190902901092C000CAA08BB084091BB
:103B10000A01442309F3E0901801F0901901009183
:103B20001A0110911B0150CFCF93DF938091EC02CB
:103B30009091ED0227E0289FE001299FD00D1124EC
:103B400085E10E949608DE01A80FB91FAA0FBB1FCE
:103B500094E0B695A7959A95E1F7B093ED02A093FE
:103B6000EC0220912C0130E00E946A372FEF33E005
:103B700040E050E00E941E372093F302DF91CF9186
:103B800008958FE00E949608892B01F18FE00E9432
:103B9000960881159440E8F48FE00E94960890936F
:103BA000F2028093F10280E10E949608892BA1F035
:103BB00080E10E9496088115944088F480E10E947B
:103BC00096089093F0028093EF02089581E090E0D0
:103BD000E6CF8FEF93E0E3CF81E090E0F2CF8FEF7D
:103BE00093E0EFCFDC01ED91FD918081ED91FD91AE
:103BF0009081ED91FD916C9163708E2309F064606A
:103C00009F2309F06860EFE0FEE1E60FF11D659586
:103C100065956D936D917D918D919D91099423C0D2
:103C20001AC012C016C010C01EC009C014C013C0F4
:103C300006C019C009C00DC007C00DC014C0625035
:103C40007040804090400BC0615070408040904078
:103C500006C06E5F01C06F5F7F4F8F4F9F4F9E9377
:103C60008E937E936E930895BF92CF92DF92EF92E0
:103C7000FF920F931F93CF93DF93EC01B62EC72EC5
:103C80008D85811105C0CE010E94770981110EC07A
:103C90001B861D861C8680E0DF91CF911F910F91BE
:103CA000FF90EF90DF90CF90BF90089540E060EFDD
:103CB000CE010E94240901E0E12CD12C11E0CE01BB
:103CC0000E94C608F82ECE010E94C60891E0F912A3
:103CD00018C0813099F51134D8F2DB86D11002C0BA
:103CE00081E08D878B81882399F22396EB2DFC2D23
:103CF000CF01089629912193E817F907D9F781E0B8
:103D0000CBCF2E2D30E0F8120EC08B851817A0F403
:103D1000FE01E20FF31F8381802381F4F12C19301F
:103D200008F41C87D12EFE01E20FF31F8381902F30
:103D30009095892383830AC08113F0CFFE01EE0D95
:103D4000F11D8381802B8383FF24F3946F2DCE019B
:103D50000E94F1081F5F000F11F4E39401E087E077
:103D60008E1508F0ACCFB7CF4F925F926F927F92D3
:103D70008F929F92AF92BF92CF92DF92EF92FF927B
:103D80000F931F93CF93DF93CDB7DEB761970FB635
:103D9000F894DEBF0FBECDBF0E948A08C090E30238
:103DA000D090E402E090E502F090E6026C197D0903
:103DB0008E099F09693873418105910508F458C03F
:103DC0008091E202811154C01092E1038091E503D9
:103DD0009091E6030E94770940E06CEC8091E50346
:103DE0009091E6030E9424094091DF0364E48091EE
:103DF000E5039091E6030E9424098091E103882362
:103E000091F1E091E003E9500EEE12E0E33038F476
:103E1000F0E0EE0FFF1FE05CFE4F0081118180910A
:103E2000E203882309F481C08091DF0381117DC002
:103E30000E948A084B015C012801110F660877086F
:103E40008091E5039091E6030E94C608813059F005
:103E50000E948A0864197509860997096815790509
:103E60008A059B0568F381E08093E1038093E20279
:103E70000E948A086C197D098E099F0961347F416F
:103E800081059105D8F18091E2028823B9F1E09192
:103E9000E503F091E60313861586148612861186D3
:103EA000108617821682158214821382BE01665F05
:103EB0007F4F8091E5039091E6030E94341E8111AB
:103EC0003BC060E070E08EEF92EC20E030E040E03C
:103ED0005FE30E947A370E94E63780912F01680FD6
:103EE0006093EE020E948A086093E3027093E402FA
:103EF0008093E5029093E6021092E20261960FB67B
:103F0000F894DEBF0FBECDBFDF91CF911F910F910F
:103F1000FF90EF90DF90CF90BF90AF909F908F90E9
:103F20007F906F905F904F900895B801110F880BAC
:103F3000990B0E94570897CF67E0CE010A960E941E
:103F4000AE0899898913BDCF8091E5039091E6036E
:103F50000E947709882309F4B4CFBE016F5F7F4FB9
:103F6000CE010A960E94B609882309F4AACF68E018
:103F7000CE0101960E94AE0899858913A2CF6A816D
:103F800070E0762F6627770F770F770F298158E03B
:103F9000259F90011124262B372B8A858031D1F45F
:103FA000688570E08F81AB01481B5109CA01969565
:103FB000982F8827979587950E943F35CB0140978A
:103FC000B90153E0660F771F5A95E1F760789C01BD
:103FD000260F371F213854EE35070CF472CFB90184
:103FE000330F880B990B0E941E3820E030E040E030
:103FF0005CE30E94AA3869CF0F931F93CF93DF939E
:104000008091E702882359F01092CF030E944E114D
:104010001092E702DF91CF911F910F9108950E94B6
:104020008A080091DE021091DF022091E0023091B7
:10403000E102601B710B820B930B693E734081059B
:10404000910520F4012B022B032B21F70E948A08F3
:104050006093DE027093DF028093E0029093E102AE
:1040600088E60E947C0560E081E094E00E94BE103A
:1040700081E094E00E94F210882319F01092D60398
:10408000C9CF81E08093D60367E088E60E94860569
:104090001092860380938503873008F461C081E025
:1040A00094E00E947E10D82F982F92959770CAE0C6
:1040B0008D2F8F709C9F800D11248093CF0381E002
:1040C00094E00E947E10982F92959F708F709C9F15
:1040D000800D11248093D00381E094E00E947E1033
:1040E000982F929593708F709C9F800D11248093D0
:1040F000D10381E094E00E947E10982F92959F70EA
:104100008F709C9F800D11248093D20381E094E0F6
:104110000E947E10982F92959F708F709C9F800DAB
:1041200011248093D30381E094E00E947E10982FA5
:1041300092959F708F709C9F800D11248093D40363
:1041400081E094E00E947E10982F9F70925E82958D
:104150008F708C9F900D11249093D503D7FF5ACF69
:104160001092D1031092D0031092CF03DF91CF9120
:104170001F910F910C944E11CF93DF93EC0180911E
:1041800075040E947C058D2F90E00E94ED10CE01F9
:1041900099270E94ED1081E094E00E94F21061E006
:1041A000809175040E948605109286038093850392
:1041B000882321F081E094E00E947E10DF91CF916E
:1041C0000895EF92FF920F931F93CF93DF938B018C
:1041D000040F151F7C012FEFE21AF20AEB010E9477
:1041E000BC208993C701BE010C171D0799F7DF9109
:1041F000CF911F910F91FF90EF900895DF92EF9272
:10420000FF920F931F93CF93DF9300D0CDB7DEB70C
:104210001A8219828091150129E0829FC001112420
:1042200042E050E0BE016F5F7F4F81960E94E12027
:10423000F12CE12C10E000E089E0D82E80911501EE
:1042400097018D9D200D311D1124C90183960E9477
:10425000BC20080F111D3FEFE31AF30A87E0E816B0
:10426000F10461F7075F1F4F89819A8108171907C9
:10427000B1F4809115018D9DC001112447E050E0FB
:104280006AE071E083960E94E1200F900F90DF9129
:10429000CF911F910F91FF90EF90DF9008950E94B2
:1042A000E91BF3CF009769F0FC0101900020E9F7CA
:1042B0003197AF01481B590BBC018DE094E00C9481
:1042C000010890E080E00895CF93DF930E9452218F
:1042D000EC018AE991E00E9452218C0F9D1FDF9131
:1042E000CF9108950C9452218F929F92AF92BF92DA
:1042F000CF92DF92EF92FF920F931F93CF93DF93B2
:10430000CDB7DEB7A1970FB6F894DEBF0FBECDBF15
:104310006B017C0119A2423008F44AE08E010F5D66
:104320001F4F842E912CB12CA12CC701B601A501E1
:1043300094010E9448376A3014F5605DF801629379
:104340008F01C814D904EA04FB04B0F4CF010E9421
:104350005221A1960FB6F894DEBF0FBECDBFDF91FC
:10436000CF911F910F91FF90EF90DF90CF90BF9072
:10437000AF909F908F90089569017A01D6CF695CC4
:10438000DDCF682F70E090E080E04AE00C9474216B
:10439000CF92DF92EF92FF92CF93DF936C01990F50
:1043A000EE08FF08F7FE17C08DE20E94580DEC01E1
:1043B00066277727CB016C197D098E099F094AE092
:1043C0000E9474218C0F9D1FDF91CF91FF90EF9081
:1043D000DF90CF9008954AE0C701B601DF91CF91F9
:1043E000FF90EF90DF90CF900C947421CF93DF93E8
:1043F0004AE00E947421EC018AE991E00E94522176
:104400008C0F9D1FDF91CF910895CF93DF930E9472
:10441000C821EC018AE991E00E9452218C0F9D1F76
:10442000DF91CF910895CF93DF930E94C121EC01DA
:104430008AE991E00E9452218C0F9D1FDF91CF915C
:1044400008952091130430911404C901079697FD33
:10445000079623E0959587952A95E1F72091110419
:1044600030911204829FA001839F500D929F500DA6
:10447000112470E060E080912C0490912D040C9444
:1044800017378F929F92AF92BF92EF92FF920F9346
:104490001F93CF930E94212210921A0410921904A4
:1044A00010921C0410921B0481E090E09093200471
:1044B00080931F0490931E0480931D0483E08093D7
:1044C000210480932204C0918003CA3109F452C3AD
:1044D00008F04DC0C43109F4EEC2B8F4C13009F49B
:1044E000A1C2CC2309F4C7C0C23009F4AEC2C330A4
:1044F00009F4C8C2CF911F910F91FF90EF90BF9028
:10450000AF909F908F900C947715C73109F402C338
:10451000A8F4C53109F4EAC2C63161F780911601E9
:104520000E94132281E080932104809322048091D1
:1045300080030E94C12182E092E0A1C2C83109F447
:1045400001C3C931B9F6809130012AE0829FC001D0
:1045500011240E94052281E080932104809322048B
:10456000809180030E94C1218CE192E088C2C7360D
:1045700009F470C308F042C0C43609F422C3D8F469
:10458000CB3109F40BC3CC3109F0B4CF80912D01AC
:10459000882309F413C388E492E00E94642181E037
:1045A0008093210480932204809180030E94C12182
:1045B0008FE492E07AC2C53609F41AC3C63609F010
:1045C00099CF80912F01082E000C990B0E94052293
:1045D00081E08093210480932204809180030E94D3
:1045E000C12184E792E00E94722180EF0E94580D61
:1045F00087EF0E94580D83EA91E041C2CA3609F460
:104600005DC308F5C83609F43EC3C93609F072CF58
:1046100082E08093210480932204609124017091B0
:10462000250180912601909127010E94F62181E0C9
:104630008093210480932204809180030E94C121F1
:1046400087E992E018C3CB3609F453C3CC3609F09E
:1046500051CF80912801909129010E94052281E08B
:104660008093210480932204809180030E94C121C1
:104670008BEB92E000C380910B0190910C01A09113
:104680000D01B0910E0180389649A849B10520F47A
:104690008DE792E00E94722160910B0170910C01F4
:1046A00080910D0190910E01E0E48E2EE2E49E2EA9
:1046B000EFE0AE2EB12CA50194010E944837CA014B
:1046C000B9014AE00E9474218091190490911A0462
:1046D000059690931A048093190460910B017091D0
:1046E0000C0180910D0190910E01A50194010E9491
:1046F0004837603A76488140910520F48DE991E091
:104700000E94722160910B0170910C0180910D014A
:1047100090910E0120E432E44FE050E00E944837CF
:10472000603177428105910520F48DE991E00E9486
:10473000722160910B0170910C0180910D0190919B
:104740000E0120E432E44FE050E00E94483758EE7A
:10475000852E53E0952EA12CB12CA50194010E9429
:104760004837CA01B9014AE00E94742182E080936F
:104770002104809322048091190490911A040596D3
:1047800090931A048093190487E090E090931C049E
:1047900080931B0460910B0170910C0180910D01BD
:1047A00090910E01A50194010E944837643671056D
:1047B0008105910520F48DE991E00E9472216091BC
:1047C0000B0170910C0180910D0190910E0128EE6A
:1047D00033E040E050E00E9448372AE030E040E01B
:1047E00050E00E944837CA01B9010E94F62181E0D9
:1047F00080932104809322048091F302843620F474
:104800008DE991E00E9472218091F302CAE06C2F41
:104810000E941F3590E00E94C8218FE991E00E941C
:1048200072218091F3026C2F0E941F35892F90E036
:104830000E94C82181EA91E00E94722180917F0349
:10484000882309F48BC06091F1027091F2022091EB
:10485000EF023091F0026217730709F43FC0CB01F9
:10486000820F931F621B730B0E942B356A307105F8
:1048700020F48DE792E00E9472216091F102709124
:10488000F2022091EF023091F002CB01820F931FD0
:10489000621B730B0E942B3590E080E04AE00E947F
:1048A00074218FE991E00E9472216091F102709170
:1048B000F2022091EF023091F002CB01820F931FA0
:1048C000621B730B0E942B356AE070E00E942B354F
:1048D000BC0190E080E04AE00E9474212091F10246
:1048E0003091F20250E040E0215031094109510974
:1048F000A4E6B0E00E943D372EEF822E23E0922EF8
:10490000A12CB12CA50194010E941E37EE24E39442
:10491000F12C04E010E047E150E060E470E08DE04D
:1049200094E00E94460E2091EF023091F00250E098
:1049300040E02150310941095109A4E6B0E00E944C
:104940003D37A50194010E941E374CE150E060E420
:1049500070E08DE094E00E94460ECCCD8091EE0296
:1049600092E3980F953608F051C087FD04C08DE79B
:1049700092E00E9472218091EE02082E000C990BA9
:104980000E94C82187EF0E94580D83EA91E00E949F
:104990007221809176038823E1F18DE792E00E94F5
:1049A00072218091D1038A3020F48DE792E00E9439
:1049B00072218091D1030E94C1218091CF0380FF99
:1049C0002BC08BEA91E00E9472218091D0038A3043
:1049D00020F48DE991E00E9472218091D0030E9421
:1049E000C12180910A018823D1F08DEA91E00E94D3
:1049F0007221809115018A3020F48DE792E00E94A7
:104A00007221809115010E94C12174CD85EA91E047
:104A1000BECF8FE991E0C3CF8DE792E0D4CF80EB9A
:104A200091E0E5CF809115010E941322C0932104EB
:104A3000C0932204809180030E94C12183EB91E006
:104A40000E94722180911601DECFE0911401F0E006
:104A5000EE0FFF1FEA5BFE4F20813181AAE0B0E03C
:104A60000E946A370E94F62181E08093210480939E
:104A70002204809180030E94C12183EC91E00E9476
:104A8000722138CD80910A01882391F08DEC91E05C
:104A90000E94642181E0809321048093220480910C
:104AA00080030E94C12185ED91E00E94642122CD06
:104AB00081ED91E0EDCF80910F0124E6829FC0014E
:104AC00011240E94052281E0809321048093220416
:104AD000809180030E94C12186EE91E00E947221A4
:104AE00080EF0E94580D82EF91E0C9CF80911001B4
:104AF00024E6829FC00111240E94052281E0809358
:104B0000210480932204809180030E94C12186EFBA
:104B100091E0E4CF8091D1038A3020F48DE991E0D7
:104B20000E9472218091D1030E94132281E0809320
:104B3000210480932204809180030E94C1218FE090
:104B400092E09DCF8091D0038A3020F48DE991E0EE
:104B50000E9472218091D0030E94132281E08093F1
:104B6000210480932204809180030E94C12186E168
:104B700092E085CF809131012AE0829FC00111240B
:104B80000E94052281E08093210480932204809179
:104B900080030E94C1218CE292E071CF80912E01AE
:104BA0000E94132281E0809321048093220480914B
:104BB00080030E94C12189E392E061CF8CE492E0FE
:104BC000ECCC80911701882381F088E492E00E9468
:104BD000642181E0809321048093220480918003EA
:104BE0000E94C1218DE592E060CF8CE492E0EFCF8E
:104BF00080912C010E94132281E0809321048093F4
:104C00002204809180030E94C1218CE692E00E94E0
:104C100072218091F302843620F48DE991E00E94A4
:104C200072218091F302CAE06C2F0E941F3590E040
:104C30000E94C8218FE991E00E9472218091F302C5
:104C40006C2F0E941F35892F90E00E94C82181EAB5
:104C500091E015CF80912A0190912B010E940522AD
:104C600081E08093210480932204809180030E943C
:104C7000C1218FE792E00E94722180EF0E94580DBF
:104C800086E392E0FCCE82E08093210480932204AC
:104C90006091200170912101809122019091230166
:104CA0000E94F62181E08093210480932204809168
:104CB00080030E94C1218BE892E0DDCF82E08093E7
:104CC0002104809322046091180170911901809150
:104CD0001A0190911B010E94F62181E0809321042A
:104CE00080932204809180030E94C12183EA92E094
:104CF000C2CF82E0809321048093220460911C0142
:104D000070911D0180911E0190911F010E94F6215A
:104D100081E08093210480932204809180030E948B
:104D2000C1218FEA92E0A7CF4F925F926F927F925C
:104D30008F929F92AF92BF92CF92DF92EF92FF92AB
:104D4000CF93DF93CDB7DEB728970FB6F894DEBFC9
:104D50000FBECDBF80915304823008F07CC0F89420
:104D600088E494E00E94F21D60914F047091500419
:104D7000809151049091520478942091090130E07F
:104D800050E040E00E941E3769017A0190912D01A8
:104D9000992341F0F094E094D094C094C11CD11CAC
:104DA000E11CF11C8090E8029090E902A090EA02D8
:104DB000B090EB028C149D04AE04BF04B9F14C9B7F
:104DC00035C0809180032FEF280F243018F421E0A4
:104DD000209371038A3109F4EFC208F07AC084315C
:104DE00009F448C2D0F5813009F4FDC1882309F4E3
:104DF0003CC1823009F418C2833009F434C20E94E5
:104E00008A08609377037093780380937903909373
:104E10007A0381E0809376030E944122C092E802E7
:104E2000D092E902E092EA02F092EB0228960FB6E5
:104E3000F894DEBF0FBECDBFDF91CF91FF90EF9012
:104E4000DF90CF90BF90AF909F908F907F906F90AA
:104E50005F904F900895F89487CF873109F464C22A
:104E6000E8F4853109F42AC2863149F680911601A9
:104E70008C149D04AE04BF040CF044C28E3108F0C3
:104E80004CC28F5F8093160180911601909115019D
:104E9000891708F0B4CF80931501B1CF883109F498
:104EA00063C2893109F0ABCF809130018C149D042D
:104EB000AE04BF040CF075C28F3F19F08F5F809372
:104EC0003001809130018A3008F48AE0809330010B
:104ED00096CF873609F4E5C2B0F5843609F4AAC244
:104EE000A0F48B3109F485C28C3109F088CF992365
:104EF00009F49CC210922D01F094E094D094C094D7
:104F0000C11CD11CE11CF11C7ACF853609F499C271
:104F1000863609F074CF80912F018C149D04AE0465
:104F2000BF040CF0B3C28F311CF48F5F80932F014C
:104F300080912F018F310CF08EE1823E0CF482EED5
:104F400080932F015CCF8A3609F47CC308F059C0E6
:104F5000883609F4EEC2893609F051CF80912401D8
:104F600090912501A0912601B09127018C149D04F8
:104F7000AE04BF040CF04AC3813823EC920729EC3D
:104F8000A20721E0B207A8F4E0911401F0E0EE0FCF
:104F9000FF1FEA5BFE4F20813181820F931FA11D0D
:104FA000B11D8093240190932501A0932601B09315
:104FB00027018091240190912501A0912601B091B3
:104FC0002701813843EC940749ECA40741E0B4077A
:104FD00020F080E893ECA9ECB1E0803452E495072E
:104FE0005FE0A507B10520F480E492E4AFE0B0E013
:104FF0008093240190932501A0932601B09327016B
:10500000C1C08B3609F48BC38C3609F0F8CE809181
:105010002801909129018C149D04AE04BF040CF06A
:10502000EBC3E0911401F0E0EE0FFF1FEA5BFE4FCF
:1050300020813181820F931F909329018093280151
:105040008091280190912901893EA3E09A0714F0EC
:1050500088EE93E08831BCEF9B0714F488E19CEF65
:1050600090932901809328018DC040900B015090AE
:105070000C0160900D0170900E01A0911001B0E044
:1050800020EA36E841E050E00E943D376D837E83A0
:105090008F839887A0910F01B0E00E943D3769830C
:1050A0007A838B839C838C149D04AE04BF040CF024
:1050B0006CC02D813E814F815885241535054605EC
:1050C000570550F1E0911401F0E0EE0FFF1FEA5B8D
:1050D000FE4F20813181AAE0B0E00E946A374B0187
:1050E0005C01C301B201A50194010E944837480C3C
:1050F000591C6A1C7B1C611571058105910521F005
:10510000461A570A680A790A40920B0150920C011C
:1051100060920D0170920E0180910B0190910C0133
:10512000A0910D01B0910E0129813A814B815C81E2
:1051300082179307A407B50760F489819A81AB8130
:10514000BC8180930B0190930C01A0930D01B0934F
:105150000E0180910B0190910C01A0910D01B09175
:105160000E012D813E814F815885281739074A0746
:105170005B0740F420930B0130930C0140930D0129
:1051800050930E010E945E1C3ACEC814D904EA0462
:10519000FB0414F689819A81AB81BC8148165906BB
:1051A0006A067B0650F2E0911401F0E0EE0FFF1F5B
:1051B000EA5BFE4F20813181AAE0B0E00E946A37AD
:1051C0004B015C01C301B201A50194010E94483763
:1051D000611571058105910509F092CF48185908AC
:1051E0006A087B0891CF90911601809115018C146B
:1051F0009D04AE04BF047CF4891718F48F5F80937C
:10520000150180911501981708F4892F80931501D5
:105210000E94FE20B7CFC814D904EA04FB048CF71F
:10522000882379F38150EBCF809114018C149D0475
:10523000AE04BF0434F4863078F48F5F8093140199
:10524000DECDC814D904EA04FB0434F4882309F43D
:10525000D6CD81508093140180911401873008F4D9
:10526000CECD86E0EBCF80910A0191E08927809333
:105270000A0188CF80910F018C149D04AE04BF04F5
:1052800094F4883C18F48F5F80930F0180910F0194
:105290008A3090F090911001891710F08FEF890FEC
:1052A00080930F01ACCDC814D904EA04FB0474F751
:1052B0008A3060F38150E8CF8AE0F2CF809110010C
:1052C0008C149D04AE04BF0484F4883C18F48F5FF2
:1052D0008093100190910F0180911001981770F048
:1052E00081E0890F809310018ACDC814D904EA04A3
:1052F000FB0484F78A3070F38150EACF883C90F346
:1053000087ECF0CFC814D904EA04FB0434F48823F2
:1053100009F4BACD815080931601809116018F3126
:1053200008F4B2CD8EE1AECD8091D1038C149D04F2
:10533000AE04BF0484F4883138F48F5F8093D103C6
:105340008091D103883118F087E18093D10381E007
:105350008093E70254CDC814D904EA04FB0484F70F
:105360008823A9F38150EACF8091D0038C149D0447
:10537000AE04BF046CF48C3338F48F5F8093D00399
:105380008091D0038C3318F38BE38093D003DFCF6D
:10539000C814D904EA04FB049CF78823C1F28150A5
:1053A000EDCFC814D904EA04FB040CF08ACD823096
:1053B00008F487CD815083CD809131018C149D04F8
:1053C000AE04BF046CF48F3F19F08F5F80933101FE
:1053D000809131018A3008F48AE0809331010FCD49
:1053E000C814D904EA04FB049CF7823088F3815086
:1053F000EDCF80912E018C149D04AE04BF046CF49B
:105400008F3F19F08F5F80932E0180912E018111C3
:1054100001C081E080932E01F2CCC814D904EA04C3
:10542000FB049CF7823088F38150EDCF81E08093BC
:105430002D0162CD8091170191E08927809317019A
:10544000DECC80912C018C149D04AE04BF046CF45E
:105450008F3F39F08F5F80932C0180912C018F3F1B
:1054600071F48EEF80932C01CACCC814D904EA04DD
:10547000FB049CF7843688F3815080932C01809143
:105480002C01843608F0BBCC84E6ECCFC814D904D8
:10549000EA04FB040CF04CCD823E0CF449CD815063
:1054A00045CD80912A0190912B018C149D04AE046E
:1054B000BF0454F5813335E793077CF4E091140180
:1054C000F0E0EE0FFF1FEA5BFE4F20813181820F7B
:1054D000931F90932B0180932A0180912A01909130
:1054E0002B01813355E7950714F080E395E7803D64
:1054F000AAE89A0714F480ED9AE890932B01809320
:105500002A010E94441C3ECEC814D904EA04FB04BC
:1055100024F7803D4AE8940704F3E0911401F0E099
:10552000EE0FFF1FEA5BFE4F20813181821B930B40
:10553000D0CF8091200190912101A0912201B091C2
:1055400023018C149D04AE04BF040CF045C08138C7
:1055500023EC920729ECA20721E0B207A8F4E0911E
:105560001401F0E0EE0FFF1FEA5BFE4F2081318156
:10557000820F931FA11DB11D8093200190932101E3
:10558000A0932201B09323018091200190912101E9
:10559000A0912201B0912301813843EC940749EC9A
:1055A000A40741E0B40720F080E893ECA9ECB1E057
:1055B000803452E495075FE0A507B10520F480E44C
:1055C00092E4AFE0B0E08093200190932101A0939A
:1055D0002201B0932301D6CDC814D904EA04FB04F8
:1055E0009CF6803432E493073FE0A307B10560F2F4
:1055F000E0911401F0E0EE0FFF1FEA5BFE4F208107
:105600003181821B930BA109B109B6CFC814D9040B
:10561000EA04FB040CF0CDCC803432E493073FE085
:10562000A307B10508F4C5CCE0911401F0E0EE0F3A
:10563000FF1FEA5BFE4F20813181821B930BA10982
:10564000B109AFCC8091180190911901A0911A0174
:10565000B0911B018C149D04AE04BF040CF045C036
:10566000813823EC920729ECA20721E0B207A8F4C5
:10567000E0911401F0E0EE0FFF1FEA5BFE4F208186
:105680003181820F931FA11DB11D8093180190934A
:105690001901A0931A01B0931B01809118019091F8
:1056A0001901A0911A01B0911B01813843EC9407B4
:1056B00049ECA40741E0B40720F080E893ECA9ECA2
:1056C000B1E0803452E495075FE0A507B10520F40E
:1056D00080E492E4AFE0B0E0809318019093190168
:1056E000A0931A01B0931B014DCDC814D904EA044C
:1056F000FB049CF6803432E493073FE0A307B10536
:1057000060F2E0911401F0E0EE0FFF1FEA5BFE4F44
:1057100020813181821B930BA109B109B6CF809101
:105720001C0190911D01A0911E01B0911F018C14CC
:105730009D04AE04BF040CF045C0813823EC9207F1
:1057400029ECA20721E0B207A8F4E0911401F0E0EF
:10575000EE0FFF1FEA5BFE4F20813181820F931F06
:10576000A11DB11D80931C0190931D01A0931E01EA
:10577000B0931F0180911C0190911D01A0911E0109
:10578000B0911F01813843EC940749ECA40741E034
:10579000B40720F080E893ECA9ECB1E0803452E447
:1057A00095075FE0A507B10520F480E492E4AFE03F
:1057B000B0E080931C0190931D01A0931E01B09353
:1057C0001F01E0CCC814D904EA04FB049CF6803421
:1057D00032E493073FE0A307B10560F2E0911401C2
:1057E000F0E0EE0FFF1FEA5BFE4F20813181821B4C
:1057F000930BA109B109B6CFC814D904EA04FB047C
:105800000CF01ECCE0911401F0E0EE0FFF1FEA5BFC
:10581000FE4F20813181821B930B0ECC1F921FB64D
:105820001F9211248F939F93AF93BF93809159033D
:1058300090915A03A0915B03B0915C030196A11D66
:10584000B11D8093590390935A03A0935B03B093C7
:105850005C038091580393E0980F9D37E8F4909390
:10586000580380915D0390915E03A0915F03B09116
:1058700060030196A11DB11D80935D0390935E03AB
:10588000A0935F03B0936003BF91AF919F918F91FD
:105890001F901FBE1F9018958A57809358038091C0
:1058A000590390915A03A0915B03B0915C03019658
:1058B000A11DB11D8093590390935A03A0935B03DC
:1058C000B0935C03CECF1F920F920FB60F921124AC
:1058D0002F933F934F935F936F937F938F939F93F8
:1058E000AF93BF93EF93FF938091B900887F803689
:1058F00009F44AC0F0F5883209F4A7C018F58031E0
:1059000009F49BC0B8F4882309F4F9C0883009F47D
:1059100094C0FF91EF91BF91AF919F918F917F9133
:105920006F915F914F913F912F910F900FBE0F900C
:105930001F901895883109F488C0803251F7809300
:10594000CC0314C0803409F49DC040F48033B9F313
:105950008833F9F68093CC0385ECB0C0803509F428
:1059600085C0883509F496C0883499F60E943E10A7
:10597000D0CF883909F48CC038F5883729F050F435
:10598000883611F0803729F683E08093CE03109299
:10599000570357C0883809F47BC0803919F0803824
:1059A00009F0B7CF80915703803208F071C0E091C1
:1059B000570381E08E0F809357038091BB00F0E086
:1059C000E95CFC4F80833DC0803B39F0E0F4803AD5
:1059D00009F479C0883A09F09CCF84E08093CE0323
:1059E0001092360310923503E0918303F091840303
:1059F00009958091350381110FC081E080933503B3
:105A00001092150309C0803C09F4A6CF883C09F424
:105A1000A3CF883B09F07DCFE091360381E08E0F64
:105A200080933603F0E0EB5EFC4F80818093BB00F7
:105A3000909136038091350329C08091C9038093EA
:105A4000BB0085EC8093BC0064CF9091CB03809128
:105A5000CA03981758F5E091CB0381E08E0F80932D
:105A6000CB03F0E0E855FC4F8081E9CFE091CB0318
:105A700081E08E0F8093CB038091BB00F0E0E8556E
:105A8000FC4F80839091CB038091CA039817C8F292
:105A900085E8D8CFE091CB0381E08E0F8093CB03D4
:105AA0008091BB00F0E0E855FC4F80838091CD03EE
:105AB00081115CCF81E08093C80384EA8093BC00AD
:105AC0001092CE0326CF85EC8093BC001092CE03BB
:105AD00080915703803230F4E0915703F0E0E95CA5
