:100000000C945C050C9465260C943D260C94840598
:100010000C9484050C9484050C9484050C94782429
:100020000C9484050C9484050C9484050C9484052C
:100030000C9484050C9484050C9484050C9484051C
:100040000C94D4240C9484050C9484050C9484059D
:100050000C9484050C9484050C9484050C948405FC
:100060000C941E250C948405000103070F1F3F7F8D
:100070000080C0E0F0F8FCFE00000000003E5B4F96
:100080005B3E3E6B4F6B3E1C3E7C3E1C183C7E3CF8
:10009000181C577D571C1C5E7F5E1C00183C180006
:1000A000FFE7C3E7FF0018241800FFE7DBE7FF3096
:1000B000483A060E2629792926407F050507407F04
:1000C00005253F5A3CE73C5A7F3E1C1C08081C1C77
:1000D0003E7F14227F22145F5F005F5F06097F016D
:1000E0007F006689956A606060606094A2FFA29458
:1000F00008047E040810207E201008082A1C080826
:100100001C2A08081E101010100C1E0C1E0C303873
:100110003E3830060E3E0E06000000000000005F74
:1001200000000007000700147F147F14242A7F2A90
:100130001223130864623649562050000807030052
:10014000001C2241000041221C002A1C7F1C2A089E
:10015000083E080800807030000808080808000001
:1001600060600020100804023E5149453E00427F75
:10017000400072494949462141494D331814127FC4
:100180001027454545393C4A494931412111090764
:100190003649494936464949291E000014000000E5
:1001A00040340000000814224114141414140041B7
:1001B00022140802015909063E415D594E7C121174
:1001C000127C7F494949363E414141227F414141AC
:1001D0003E7F494949417F090909013E4141517327
:1001E0007F0808087F00417F41002040413F017F98
:1001F000081422417F404040407F021C027F7F0460
:1002000008107F3E4141413E7F090909063E4151A8
:10021000215E7F09192946264949493203017F0198
:10022000033F4040403F1F2040201F3F4038403F99
:10023000631408146303047804036159494D4300AF
:100240007F4141410204081020004141417F0402E6
:10025000010204404040404000030708002054547D
:1002600078407F284444383844444428384444285B
:100270007F385454541800087E090218A4A49C78AE
:100280007F0804047800447D40002040403D007F0A
:100290001028440000417F40007C047804787C08EA
:1002A0000404783844444438FC18242418182424BE
:1002B00018FC7C08040408485454542404043F44A3
:1002C000243C4040207C1C2040201C3C4030403CD2
:1002D00044281028444C9090907C4464544C440032
:1002E0000836410000007700000041360800020196
:1002F0000204023C2623263C1EA1A161123A404082
:10030000207A3854545559215555794122545478FE
:1003100042215554784020545579400C1E52721297
:100320003955555559395454545939555454580020
:1003300000457C410002457D420001457C407D1224
:1003400011127DF0282528F07C5455450020545486
:100350007C547C0A097F4932494949323A44444431
:100360003A324A4848303A4141217A3A424020786C
:10037000009DA0A07D3D4242423D3D4040403D3C6D
:1003800024FF2424487E4943662B2FFC2F2BFF0992
:1003900029F620C0887E0903205454794100004486
:1003A0007D413048484A32384040227A007A0A0A71
:1003B000727D0D19317D2629292F282629292926E4
:1003C00030484D4020380808080808080808382F29
:1003D00010C8ACBA2F102834FA00007B00000814B3
:1003E0002A142222142A14085500550055AA55AA89
:1003F00055AAFF55FF55FF000000FF00101010FF29
:1004000000141414FF001010FF00FF1010F010F083
:10041000141414FC001414F700FF0000FF00FF1474
:1004200014F404FC141417101F10101F101F1414C0
:10043000141F00101010F0000000001F101010100A
:100440001F10101010F010000000FF1010101010FE
:1004500010101010FF10000000FF140000FF00FF3C
:1004600000001F10170000FC04F4141417101714D8
:1004700014F404F40000FF00F714141414141414FA
:10048000F700F7141414171410101F101F1414146D
:10049000F4141010F010F000001F101F0000001FD7
:1004A00014000000FC140000F010F01010FF10FF0A
:1004B000141414FF141010101F00000000F010FF9F
:1004C000FFFFFFFFF0F0F0F0F0FFFFFF0000000083
:1004D00000FFFF0F0F0F0F0F3844443844FC4A4A07
:1004E0004A347E02020606027E027E0263554941BC
:1004F000633844443C04407E201E2006027E0202F3
:1005000099A5E7A5991C2A492A1C4C7201724C3006
:100510004A4D4D303048784830BC625A463D3E49DD
:100520004949007E0101017E2A2A2A2A2A44445F81
:10053000444440514A444040444A51400000FF0175
:1005400003E080FF000008086B6B08361236243683
:10055000060F090F060000181800000010100030E8
:1005600040FF0101001F01011E00191D1712003C70
:100570003C3C3C0000000000005EBCE2613FDD83CB
:10058000C29C7E20A3FD1F41009D23BE46DB65F873
:100590008C11AF32CA57E974000000080002010054
:1005A000000304070000000000000000000000003D
:1005B000240027002A00DB40A4A62EAFDA0281DA4D
:1005C0001281DA02818F2000A1C8D300408DAED500
:1005D00080A8000060000000000000000000000093
:1005E000000000E00000000000000000000000002B
:1005F0000001E0000000000000000000000000001A
:1006000001F00000000000000000000000000003F6
:10061000F00000000000000000000000000007F0F3
:100620000000000000000000000000000007F800CB
:100630000000000000000000000000000FF80000B3
:100640000003C0007E000001E0007F0FF800000002
:1006500003C000FE000001E000FFEFF8000000030F
:10066000C000FE000001E000FFFFF800000003C032
:1006700000F00000000F007FFE7FC0000003C000FC
:10068000F00000000F003FFE7FF83FF1FBCFFCFEC3
:10069000F3BC3DEFE01FFE7FFF7FFBFFDFFEFEFFB1
:1006A000BC3DEFE01FC6FFFF7FFBFFDFFEFEFFBC90
:1006B0003DEFE00FE3C7FE787BC3DE1EF0FFBC3DDD
:1006C000EF0007FF87FC787BC3DE1EF0F83C3DEFB0
:1006D0000001FFFFF0007BC3C01EF0F03C3DEF00C7
:1006E00001F37FE03FFBC3CFFEF0F03C3DEF0003A2
:1006F000E33F807FFBC3DFFEF0F03C3DEF0007E708
:100700003C00787BC3DE1EF0F03C3DEF0007FFBEEF
:1007100000787BC3DE1EF0F03C3DEF0007FFFE00DB
:10072000787BC3DE1EF0F03C3DEF000FFFFE007F44
:10073000FBFFDFFEF0F03FFDEFE00FFFFF007FFB70
:10074000FFDFFEF0F03FFDEFE00FF9FF003E79F92B
:10075000CF9EF0F01F3DE7E01FF1FF00000000001A
:10076000000000000000001F80FF007FFFFFFFFF70
:10077000FFFFFFFFFFE01C007F007FFFFFFFFEB4D5
:100780006D888D18E000001F007FFFFFFFFE95AD14
:100790007DB577E000000F007FFFFFFFFEA5AD9D58
:1007A0008D19E0000006007FFFFFFFFEB5ADEDB53F
:1007B0007EE000000000000180000000000000005A
:1007C0000000038000000000000000000007C000DF
:1007D000000000000000000007C000000000000052
:1007E0000000000FC00000000000000000001FE03B
:1007F0000000000000000000001FE00000000000FA
:10080000000000003FE00000000000000000003F8A
:10081000F00000000000000000007FF00000000079
:100820000000001FF87FF0000000000000003FFE05
:100830007FF0000000000000003FFF7FF00000009C
:10084000000000001FFFFBE0000000000000000FA0
:10085000FFF9FFC00000000000000FFFF9FFF800E3
:10086000000000000007FFF1FFFF00000000000093
:1008700003FC73FFFF80000000000001FE3FFFFF4C
:1008800080000000000000FF1E0FFF0000000000BD
:1008900000007FFE1FFC000000000000003FFFFF83
:1008A000F8000000000000000FDFFFE00000000083
:1008B0000000001F19FFC0000000000000003F3CC6
:1008C000FF00000000000000007E7CF80000000037
:1008D000000000007FFE7C0000000000000000FF20
:1008E000FFFC0000000000000000FFFFFE00000011
:1008F0000000000000FFFFFE0000000000000001FB
:10090000FFEFFE0000000000000001FFCFFE00002E
:10091000000000000003FF07FE00000000000000D0
:1009200003FC07FE0000000000000003F003FE00CF
:10093000000000000000018000FE00000000000038
:10094000000000007E000000000000000000003EEB
:10095000000000000000000000000C00000000008B
:1009600000078000FC000003C0000000078001FCBD
:10097000000003C0000000078001FC000003C0006D
:100980000000078001E00000001E00000007800159
:10099000E00000001E007FE3F79FF9FDE7787BDFB2
:1009A000C0FFF7FFBFFDFDFF787BDFC0FFF7FFBF94
:1009B000FDFDFF787BDFC0F0F787BC3DE1FF787B72
:1009C000DE00F0F787BC3DE1F0787BDE0000F787C2
:1009D000803DE1E0787BDE007FF7879FFDE1E078F6
:1009E0007BDE00FFF787BFFDE1E0787BDE00F0F7FC
:1009F00087BC3DE1E0787BDE00F0F787BC3DE1E0BD
:100A0000787BDE00F0F787BC3DE1E0787BDE00FF1D
:100A1000F7FFBFFDE1E07FFBDFC0FFF7FFBFFDE1B8
:100A2000E07FFBDFC07CF3F39F3DE1E03E7BCFC086
:100A30000000000000000000000000FFFFFFFFFFBB
:100A4000FFFFFFFFFFC0FFFFFFFFFD68DB111A3153
:100A5000C0FFFFFFFFFD2B5AFB6AEFC0FFFFFFFF48
:100A6000FD4B5B3B1A33C0FFFFFFFFFD6B5BDB6A97
:100A7000FDC000000000250028002B00022200FF1E
:100A80002100010204081020408001020408102007
:100A900001020408102000000000230026002900A5
:100AA0000404040404040404020202020202030314
:100AB000030303038D268D3211241FBECFEFD8E030
:100AC000DEBFCDBF12E0A0E0B1E0EEE6FDE602C081
:100AD00005900D92A83DB107D9F724E0A8EDB2E04A
:100AE00001C01D92AC37B207E1F715E0CBE5D5E0C8
:100AF00004C02197FE010E94C534CA35D107C9F749
:100B00000E9414280C94AA360C94000008950895AD
:100B100091E09093D4038093D3031092DA03109260
:100B2000D90308958091DB039091DC03891B990B15
:100B300008950895AF92BF92CF92DF92EF92FF9205
:100B40000F931F93CF93DF936C017B018B01040FF5
:100B5000151FEB015E01AE18BF08C017D10759F091
:100B60006991D601ED91FC910190F081E02DC601D3
:100B70000995892B79F7C501DF91CF911F910F91CD
:100B8000FF90EF90DF90CF90BF90AF9008958330AB
:100B900081F028F4813099F08230A9F008958730EF
:100BA000A9F08830C9F08430B1F4809180008F7D45
:100BB00003C0809180008F7780938000089584B572
:100BC0008F7784BD089584B58F7DFBCF8091B00071
:100BD0008F778093B00008958091B0008F7DF9CF1A
:100BE000CF93DF93282F30E0F901E856FA4F849134
:100BF000F901EE57F54FD491F901E056F54FC49144
:100C0000CC23A1F081110E94C705EC2FF0E0EE0F7C
:100C1000FF1FEA56F54FA591B491EC91ED2381E0C9
:100C200090E009F480E0DF91CF91089580E090E0BA
:100C3000FACF1F93CF93DF93282F30E0F901E856C6
:100C4000FA4F8491F901EE57F54FD491F901E0562E
:100C5000F54FC491CC23A9F0162F81110E94C7052E
:100C6000EC2FF0E0EE0FFF1FEE58F54FA591B49179
:100C70008FB7F894EC91111108C0D095DE23DC9366
:100C80008FBFDF91CF911F910895DE2BF8CF909108
:100C9000280189130BC0ECE7FAE0E4919FEF9093F1
:100CA0002801E13049F028F0E23061F060E00C9476
:100CB000190610926E00FACF90916F009D7F90936D
:100CC0006F00F4CF909170009D7F9093700091E041
:100CD0009093B0009091B100987F94609093B10090
:100CE0001092B300E3CFCF93DF9390E0FC01EE5777
:100CF000F54F24918056954FFC0184918823C9F0CB
:100D000090E0880F991FFC01E455FA4FA591B4912A
:100D1000FC01EE58F54FC591D49161110DC09FB7FC
:100D2000F8948C91209582238C93888128232883A2
:100D30009FBFDF91CF910895623051F49FB7F8942F
:100D40003C91822F809583238C93E8812E2BEFCFCB
:100D50008FB7F894EC912E2B2C938FBFEACF209174
:100D6000000190E4299F900111248E50822B8093E2
:100D70007C0080917A00806480937A0080917A0070
:100D800086FDFCCF809178009091790008953FB75F
:100D9000F89480914D0390914E03A0914F03B09130
:100DA000500326B5A89B05C02F3F19F00196A11D41
:100DB000B11D3FBFBA2FA92F982F8827BC01CD01A5
:100DC000620F711D811D911D42E0660F771F881F04
:100DD000991F4A95D1F708958F929F92AF92BF9233
:100DE000CF92DF92EF92FF926B017C010E94C706C7
:100DF0004B015C01C114D104E104F104B9F00E947B
:100E0000C706681979098A099B09683E73408105FC
:100E1000910580F321E0C21AD108E108F10888EEBB
:100E2000880E83E0981EA11CB11CE4CFFF90EF90C8
:100E3000DF90CF90BF90AF909F908F9008952FB785
:100E4000F8946091490370914A0380914B0390910B
:100E50004C032FBF0895DC0180E0615090F09D911C
:100E60009827E92FEF70F0E0E858FA4F2491E92F26
:100E7000E295EF70F0E0E857FA4FE491822F8E2769
:100E8000ECCF0895DC012C911196ED91FC91F89432
:100E90008181822B81839281322F3095932392839B
:100EA00087E090E00197F1F781818323818383E2DA
:100EB00090E00197F1F790817894EFECF0E03197B2
:100EC000F1F7922381E009F480E00895FC0190811C
:100ED0000180F281E02D292F209560FF14C0F89445
:100EE0008281822382838181892B8183A3E2B0E086
:100EF0001197F1F78281982B9283789487ED90E097
:100F00000197F1F70895F894828182238283818189
:100F1000892B8183AFEFB0E01197F1F78281982B95
:100F2000928378948FE090E0EBCFDF92EF92FF9284
:100F30000F931F93CF93DF93EC01D62EE42E08E09E
:100F400010E0FF24F39461E08D2D8F2109F460E01F
:100F5000CE010E946607FF0C01501109A1F7E110B4
:100F600010C0F894E981FA81918188818095892364
:100F70008183E981FA8192818881809589238283A6
:100F80007894DF91CF911F910F91FF90EF90DF90B8
:100F90000895EF92FF920F931F93CF93DF938C01ED
:100FA0007B0140E065E50E949507E70188E0E80ED7
:100FB000F11C699140E0C8010E949507CE15DF053C
:100FC000C1F7DF91CF911F910F91FF90EF9008959E
:100FD000FC0190810180F281E02DF8948181292F1C
:100FE00020958223818378943DE743E050E031509F
:100FF00029F1DA011197F1F780818923C1F3F8947F
:101000008281822382838181892B81837894ABE7DB
:10101000B7E01197F1F7F894818182238183A3E1EE
:10102000B1E01197F1F78081982381E009F080E029
:101030007894E3E6F6E03197F1F7089580E00895BB
:10104000AF92BF92CF92DF92EF92FF920F931F93D6
:10105000CF93DF938B01BC018091E7039091E8036C
:101060000E94C90740E06EEB8091E7039091E8038E
:101070000E949507E801680189E0C80ED11CA09084
:10108000E703B090E80388E0E82EF12C10E001E0DF
:10109000C5010E9442078111102B000F81E0E81A60
:1010A000F108B1F71993CC16DD0649F78091E703F3
:1010B0009091E8030E94E80791E0813009F090E008
:1010C000892FDF91CF911F910F91FF90EF90DF90CB
:1010D000CF90BF90AF9008950F931F93CF93DF935E
:1010E000CDB7DEB729970FB6F894DEBF0FBECDBFE0
:1010F0008C018091E7039091E8030E94E807811139
:1011000002C080E01FC0BE016F5F7F4FC8010E9418
:1011100020088823B1F368E0CE0101960E942B07D6
:1011200099858913EECF8D818F33B9F020F48F31FB
:1011300041F789E007C08F3521F08F3711F78CE038
:1011400001C08BE029960FB6F894DEBF0FBECDBF6D
:10115000DF91CF911F910F9108958AE0F3CF089509
:10116000FC016370668B84819581268137816130B3
:1011700039F0633029F0918780873387228708957B
:10118000318720879387828708952F923F924F92CD
:101190005F926F927F928F929F92AF92BF92CF9207
:1011A000DF92EF92FF920F931F93CF93DF93CDB710
:1011B000DEB76A970FB6F894DEBF0FBECDBF9A8F29
:1011C000898F7A8369834A01D22E18870F8337016A
:1011D000BC2CDC0159962D913C915A972115310573
:1011E00009F015C118968D919C9119976817790788
:1011F0000CF0D7C11A968D919C91481759070CF0A5
:10120000D0C14C2C512CB6E0CB9E600D711D112429
:101210007C876B87161617060CF0C3C1EA2DF0E029
:10122000FA87E98793E0EE0FFF1F9A95E1F7F88BB5
:10123000EF87CF01840F951F181619060CF0B1C166
:10124000A98DBA8D58968C91811104C0BFEABD1545
:1012500008F4D394A98DBA8DED91FC911197028475
:10126000F385E02DCD010995B5E0DB9EC001112489
:10127000E981FA81FC83EB83312C212C9C012858D5
:101280003F4F388F2F8B4A2D50E05E8B4D8BEF896F
:10129000F88DE20DF31D44919E828D82D12CC12CDC
:1012A00069817A81620D731D7A8B698B842F90E03E
:1012B0009C8B8B8BE98DFA8DA081B18140FF82C020
:1012C000F1E0BF126FC0AF126DC01C96ED91FC91A2
:1012D0002F813885A4014C0D5D1D69897A89898D1E
:1012E0009A8D0995EB89FC89F595E7954E2F5FEF6F
:1012F000C51AD50A6D817E818D899E89680F791FF7
:101300007E836D8398E0C916D10481F6AFEF2A1A67
:101310003A0AEB81FC81E40DF51DFC83EB83F5E0DB
:101320002F16310409F0B3CF2F81388526153705E4
:10133000B9F0A98DBA8DED91FC91B1E0BB1257C007
:10134000AB1255C069817A816B5F7F4F0088F1894C
:10135000E02D830128E030E0A401898D9A8D099564
:10136000A98DBA8DED91FC9111970688F789E02D32
:10137000CD016A960FB6F894DEBF0FBECDBFDF91E8
:10138000CF911F910F91FF90EF90DF90CF90BF9082
:10139000AF909F908F907F906F905F904F903F9015
:1013A0002F9009941E96ED91FC91EF80F8840985A9
:1013B0001A8592014D815E816B817C81898D9A8D28
:1013C000099590CF2F8138852615370509F48ACFE6
:1013D00031E0B31207C0A31205C01C96ED91FC9139
:1013E000930178CF1E96ED91FC917301E0CF6B8550
:1013F0007C85641975090684F785E02D73010F85D6
:1014000018899201A401898D9A8D0995A9CFF901B6
:1014100034969491329745915491D91AB7E0DB9E56
:10142000400D511D1124F901259134913C8B2B8BDA
:10143000FA0125903490FA013296749031963491E5
:10144000398B329664903196449041E04C1518F0F7
:101450004A1508F07FC0662D062C000C770B7C83A4
:101460006B83842D042C000C990B9E838D83A98D96
:10147000BA8DED91FC9111970284F385E02DCD0199
:101480000995512CD12CC12CEA2DF0E0FA87E9877F
:101490002B2D30E03C872B87A401440D511D47FCC8
:1014A0005A95588F4F8B69817A81660D711D67FC43
:1014B0007A957E876D877989C71608F051CF2C2DD4
:1014C00030E04D815E81420F531FA985BA854A9F46
:1014D000C0014B9F900D5A9F900D1124FC01E80D07
:1014E000F91DF88BEF87852D612C4F89588D420FA0
:1014F000531F5E8B4D8B671408F050C044244394F7
:10150000480E877041F4C1010196EB89FC89E20D18
:10151000F31DD4901C01D7FE19C0A98DBA8DED9191
:10152000FC91662D70E0B1E0BB1219C0AB1217C080
:101530002D853E85620F731F0484F585E02D2F8174
:1015400038854D895E89898D9A8D0995DD0C639466
:10155000842DD1CF1E821D821C821B8288CF4B819D
:101560005C81640F751FAB85BC856A9FC0016B9F52
:10157000900D7A9F900D112469817A81680F791FEF
:101580000684F785E02DEF80F88409851A859D0192
:101590004F855889898D9A8D0995D8CF570CC3945A
:1015A0008ACF6A960FB6F894DEBF0FBECDBFDF912B
:1015B000CF911F910F91FF90EF90DF90CF90BF9050
:1015C000AF909F908F907F906F905F904F903F90E3
:1015D0002F9008958F929F92AF92CF92EF92FF92A9
:1015E0000F931F93CF93DF93EC01262F898D9A8D54
:1015F000009709F051C06A30D1F41D861C868D8990
:1016000048E0849F900111248E859F85820F931F4F
:101610009F878E8781E090E0DF91CF911F910F919E
:10162000FF90EF90CF90AF909F908F9008956D3086
:1016300089F3CC88AD888F898823C1F08C859D85FE
:1016400036E0C39E800D911D1124488559854817A9
:10165000590764F44E855F851D861C8638E0A39E7D
:10166000C0011124840F951F9F878E87EA88FB880D
:10167000088919894E855F856C857D85CE010E941C
:10168000C5082C898C859D8546E0249F800D911D81
:1016900011249D878C87BECF6A3069F41D861C8615
:1016A000FC013896E4912D898E859F85E29F800DFF
:1016B000911D1124ADCF6D3009F4ACCFFC013496EF
:1016C0003491631708F4A6CF3296E491E61708F434
:1016D000A1CFFC01329685909490462F431B342F66
:1016E00047E0349F800C911C1124F4013296349110
:1016F0003196E4913323A9F1EE2399F1CC88F401DA
:101700003596E491AD884F89442301F10E2E000CEB
:10171000FF0BE30FF11DCE9EA001CF9E500D1124B3
:101720006C857D85460F571F688579856417750719
:101730006CF44E855F851D861C86FC013896E4910D
:10174000AE9E400D511D11245F874E87EA88FB88AD
:10175000088919894E855F856C857D85CE010E943B
:10176000C508F4013496E4912C898C859D85E29F0F
:10177000800D911D11248DCF682F8FE094E00C9483
:10178000EA0A6F927F928F929F92AF92BF92CF920E
:10179000DF92EF92FF920F931F93CF93DF93EC01B1
:1017A0006B015A0139014801E881F9810284F3850E
:1017B000E02D0995E881F9810288F389E02D870100
:1017C0009301A501B601CE010995A501480D591D4A
:1017D00041505109E881F9810288F389E02D930194
:1017E000B601CE010995E881F9810088F189E02DE3
:1017F0009401A501B601CE010995C60CD71CB6010E
:1018000061507109E881F9810088F189E02D940126
:10181000A501CE010995E881F9810688F789E02DB7
:10182000CE01DF91CF911F910F91FF90EF90DF904C
:10183000CF90BF90AF909F908F907F906F900994C2
:101840006F927F928F929F92AF92BF92CF92DF92D0
:10185000EF92FF920F931F93CF93DF935C01EB0105
:101860006A01490138018701DC01ED91FC916217A1
:10187000730719F5641675062CF0962D872D3A011D
:10188000C92ED82E9601261937092F5F3F4F048C99
:10189000F58DE02DA301BE01C5010995DF91CF9122
:1018A0001F910F91FF90EF90DF90CF90BF90AF907E
:1018B0009F908F907F906F9008954615570591F4F3
:1018C0002617370724F0892D4B01C22FD82F9E01F0
:1018D000281939092F5F3F4F068CF78DE02DA6019F
:1018E000B401DACF0284F385E02D0995D501ED919D
:1018F000FC910488F589E02D83019401A601BE01C5
:10190000C5010995D501ED91FC910688F789E02D77
:10191000C501DF91CF911F910F91FF90EF90DF9064
:10192000CF90BF90AF909F908F907F906F900994D1
:10193000EF92FF920F931F93DC011A960D911C9169
:101940001B9718962D913C911997ED91FC9100A051
:10195000F1A1E02D7B0150E040E070E060E00995EE
:101960001F910F91FF90EF9008954F925F926F92A9
:101970007F928F929F92AF92BF92CF92DF92EF921F
:10198000FF920F931F93CF93DF936C012B015A01AA
:1019900039014801DC01ED91FC910284F385E02DD1
:1019A0000995E201640C751CD601ED91FC91C615F8
:1019B000D7055CF40088F189E02D87019401A50129
:1019C000BE01C60109952196EFCF0688F789E02D63
:1019D000C601DF91CF911F910F91FF90EF90DF90A3
:1019E000CF90BF90AF909F908F907F906F905F90BF
:1019F0004F9009948F929F92AF92BF92CF92DF92B5
:101A0000EF92FF920F931F93CF93DF93EC015B0153
:101A10004A016901E881F9810284F385E02D099585
:101A200095012C0D3D1D21503109E881F981048873
:101A3000F589E02D78018401A401B501CE01099555
:101A4000E881F9810688F789E02DCE01DF91CF91F9
:101A50001F910F91FF90EF90DF90CF90BF90AF90CC
:101A60009F908F9009948F929F92AF92BF92CF9246
:101A7000DF92EF92FF920F931F93CF93DF93EC01CE
:101A80005B014A0169017801E881F9810284F385EB
:101A9000E02D0995C80CD91C860101501109E88177
:101AA000F9810488F589E02D9501A401B501CE01E5
:101AB0000995E881F9810688F789E02DCE01DF914B
:101AC000CF911F910F91FF90EF90DF90CF90BF903B
:101AD000AF909F908F900994EF92FF920F931F9376
:101AE000DC01ED91FC9100A0F1A1E02D09951F9181
:101AF0000F91FF90EF9008950F931F93DC01ED91EC
:101B0000FC91068CF78DE02D09951F910F9108959A
:101B10000F931F93DC01ED91FC91048CF58DE02D6A
:101B200009951F910F910895DC01ED91FC910084BE
:101B3000F185E02D09943F924F925F926F927F92D0
:101B40008F929F92AF92BF92CF92DF92EF92FF92CD
:101B50000F931F93CF93DF935C017B014A016901CF
:101B6000390187E0680E711C93E0759467949A952B
:101B7000E1F72B01400E511E10E000E0312CD0E0C7
:101B8000C0E0CE0187709927330C892B59F4FE01F0
:101B900083E0F595E7958A95E1F7E00FF11FE80DF1
:101BA000F91D349037FE0AC021E030E0A701B501ED
:101BB0006C0F7D1F8FE094E00E94940D2196CC164F
:101BC000DD06F9F68FEFE81AF80A060D171DE41482
:101BD000F504A9F6DF91CF911F910F91FF90EF903F
:101BE000DF90CF90BF90AF909F908F907F906F903D
:101BF0005F904F903F9008952F923F924F925F9247
:101C00006F927F928F929F92AF92BF92CF92DF920C
:101C1000EF92FF920F931F93CF93DF9300D000D0EA
:101C200000D0CDB7DEB73C016A013E832D83FC8234
:101C3000EB825801A41AB50AB7FE03C0B194A1946F
:101C4000B1088D809E80861A970A97FE03C09194F2
:101C5000819491088A149B045CF0902F812F0D8150
:101C60001E819D838E839C2D8D2D6B01692F782F76
:101C70000C151D055CF09D818E817E836D83692F1F
:101C8000782F902F812F8601C92ED82E1601201A69
:101C9000310A2B012D813E81421A530A57FE03C09F
:101CA000519441945108710137FE03C03FEFE31A8C
:101CB000F30AF594E7948D819E81861797075CF56A
:101CC000A1E0B0E0BA83A983C016D1064CF1D301DC
:101CD000ED91FC910484F585E02D2B813C81A801D8
:101CE0006D817E818A149B041CF04D815E81B80158
:101CF000C3010995E418F508F7FE0AC02D813E815D
:101D000089819A81280F391F3E832D83E20CF31CB1
:101D10000F5F1F4FD9CF2FEF3FEF3A832983D4CFE7
:101D200026960FB6F894DEBF0FBECDBFDF91CF91E0
:101D30001F910F91FF90EF90DF90CF90BF90AF90E9
:101D40009F908F907F906F905F904F903F902F90DB
:101D5000089520912503260F3327331F21323105A3
:101D6000ECF42091C503FC0190E080E0243069F0A0
:101D700082E00895A09125032191AC014B5F5C4F57
:101D8000A40FB52FB11D2C930196861798F380915F
:101D90002503680F6093250380E0089581E008958E
:101DA0001092C50381E08093A40310929F0361E029
:101DB00082E10E94190661E083E10E941906E9EBC5
:101DC000F0E080818E7F808380818D7F808388E4B6
:101DD0008093B80085E48093BC000895CF93DF938F
:101DE00091E0909304038823B9F0C091B800D0919A
:101DF000BA008091BC008A7B8093BC0060E082E1E5
:101E00000E94190660E083E10E9419060E94D00E2C
:101E1000D093BA00C093B800DF91CF910895CF92CC
:101E2000DF92EF92FF920F931F93CF93DF93D82F00
:101E3000C62F613208F098C00E94C7066B017C0172
:101E40008091C50381116BC081E08093C5038093AD
:101E5000A4039FEF9093A3031092A2039C0F90936F
:101E6000A1038093A0038091A003DD0FD82BD09312
:101E7000A00380919F03813009F078C010929F03E6
:101E80000E94C7066B017C018091A0038093BB0078
:101E90008091C7039091C803A091C903B091CA0370
:101EA000892B8A2B8B2BA1F00E94C7060091C703B8
:101EB0001091C8032091C9033091CA036C197D09A0
:101EC0008E099F09061717072807390708F448C025
:101ED0008091BC0083FDD8CF85EC8093BC000E942C
:101EE000C7066B017C018091C503813009F440C0B5
:101EF0008091A2038C1710F4C091A203EFE7F3E0E6
:101F0000A5EAB3E080E08C1355C08C2FDF91CF9110
:101F10001F910F91FF90EF90DF90CF9008958091E7
:101F2000C7039091C803A091C903B091CA03892B3C
:101F30008A2B8B2B09F484CF0E94C7060091C7031C
:101F40001091C8032091C9033091CA036C197D090F
:101F50008E099F09061717072807390708F070CF61
:101F60008091C6030E94EE0EC0E0CFCF85EEB5CFC4
:101F70008091C7039091C803A091C903B091CA038F
:101F8000892B8A2B8B2B09F4AECF0E94C7060091B8
:101F9000C7031091C8032091C9033091CA036C197B
:101FA0007D098E099F09061717072807390708F0CA
:101FB0009ACFD6CF91919D938F5FA5CFE091DC030F
:101FC0008091DB03E81730F4F0E0EB55FC4F8081A3
:101FD00090E008958FEF9FEF08959091DC0380913A
:101FE000DB032FEF3FEF981748F4E92FF0E0EB55B4
:101FF000FC4F208130E09F5F9093DC03C90108957E
:10200000CF92DF92EF92FF920F931F93CF93DF93C4
:102010007C01CB018A012091D403222389F0EB01BA
:102020006B01C40ED51ECC15DD0569F06991D70191
:10203000ED91FC910190F081E02DC7010995F3CF5E
:10204000642F0E94A90EC801DF91CF911F910F91BB
:10205000FF90EF90DF90CF900895CF93DF931F9282
:10206000CDB7DEB769832091D4032223F9F0209104
:10207000D903203258F021E030E0FC013383228381
:1020800090E080E00F90DF91CF9108958091DA0386
:10209000E82FF0E0EC51FD4F998190838F5F8093A2
:1020A000DA038093D90381E090E0ECCF61E0CE01C8
:1020B00001960E94A90EF7CF682F83E094E00C945C
:1020C0002D10CF92DF92EF92FF920F931F93CF9339
:1020D000DF93D091D90381E0D13208F09CC0C09148
:1020E000D3030E94C7066B017C018091C503811157
:1020F0006CC082E08093C50381E08093A4038FEFDE
:102100008093A3031092A203D093A103A4EEB2E0A4
:10211000EFE7F3E080E0D8138DC01092A003809128
:10212000A003CC0FC82BC093A00380919F038130E4
:1021300009F084C010929F030E94C7066B017C01C6
:102140008091A0038093BB008091C7039091C80346
:10215000A091C903B091CA03892B8A2B8B2BA1F0C4
:102160000E94C7060091C7031091C8032091C903BC
:102170003091CA036C197D098E099F09061717074C
:102180002807390708F442C08091BC0083FDD8CFEE
:1021900085EC8093BC000E94C7066B017C01809196
:1021A000C503823009F44CC08091A3038F3F09F42A
:1021B00069C08091A303803209F466C08091A303B3
:1021C000803309F463C084E026C08091C7039091F6
:1021D000C803A091C903B091CA03892B8A2B8B2B0A
:1021E00009F483CF0E94C7060091C7031091C8036A
:1021F0002091C9033091CA036C197D098E099F098A
:10220000061717072807390708F06FCF8091C60314
:102210000E94EE0E85E01092DA031092D90310921C
:10222000D403DF91CF911F910F91FF90EF90DF903A
:10223000CF9008959D9191938F5F6DCF85EEA9CF3B
:102240008091C7039091C803A091C903B091CA03BC
:10225000892B8A2B8B2B09F4A2CF0E94C7060091F1
:10226000C7031091C8032091C9033091CA036C19A8
:102270007D098E099F09061717072807390708F0F7
:102280008ECFC4CF80E0C7CF82E0C5CF83E0C3CF7D
:10229000CF9388E60E94880560E083E094E00E9486
:1022A0002D1060E883E094E00E942D108091CC0313
:1022B000CAE06C2F0E94A5348295807F682F690F39
:1022C00083E094E00E942D108091CD036C2F0E943A
:1022D000A5348295807F682F690F83E094E00E9487
:1022E0002D108091CE036C2F0E94A5348295807FA3
:1022F000682F690F83E094E00E942D108091CF0336
:102300006C2F0E94A5348295807F682F690F83E02F
:1023100094E00E942D108091D0036C2F0E94A53470
:102320008295807F682F690F83E094E00E942D10D2
:102330008091D1038E516C2F0E94A5348295807FAD
:10234000682F690F83E094E00E942D1083E094E0F1
:102350000E946110882329F01092D20380E0CF916F
:10236000089581E08093D20388E60E94880560E0AA
:1023700083E094E00E942D108091CB036C2F0E948B
:10238000A5348295807F682F690F83E094E00E94D6
:102390002D1083E094E00E9461108111DDCF81E077
:1023A000DECFAF92BF92DF92EF92FF920F931F9317
:1023B000CF93DF938B01040F151FEB015C01A61A6D
:1023C000B70A7501EC0EFD1ED990809177040E942A
:1023D00088058F2D90E00E945C10C70199270E940C
:1023E0005C106D2D83E094E00E942D1083E094E05A
:1023F0000E9461106AE070E080E090E00E94EC06CC
:10240000C017D107F1F6DF91CF911F910F91FF9087
:10241000EF90DF90BF90AF900895EF92FF920F93EF
:102420001F93CF93DF93EC01EC80FD806E157F0549
:102430000CF070C057FF04C0240F351F50E040E07F
:102440008E819F81FA01E20FF31F8E179F071CF404
:102450009C01241B350B121613060CF05BC0922F47
:10246000842F8695869586958E9DD0018F9DB00D83
:1024700011246A0F7B1FAF8DB8A1A60FB71F47703D
:1024800049F188E0841B482F682F70E0FB01E05978
:10249000FF4FE491281708F063C0621B71092FEF0A
:1024A00030E002C0359527956A95E2F7E2230130C6
:1024B000110539F0B0F10230110561F58C91E82772
:1024C00002C08C91E82BEC93941720F12C813D8174
:1024D000A20FB31FE92FE41BE83078F0023011059A
:1024E00021F58E2F9C9190959C932C813D81A20F7C
:1024F000B31F88508830B0F7E770EE2359F0F0E052
:10250000E859FF4FE49101301105F9F010F1023064
:10251000110519F1DF91CF911F910F91FF90EF906D
:102520000895E0958C91E823CECF81E00115110547
:1025300009F480E081959E2F8C932C813D81A20F20
:10254000B31F98509830C0F7D7CF8C91E82BEC93FD
:10255000E1CFE0958C91E823FACF8C91E827F7CF73
:102560000130110509F4ADCFE0F20230110509F494
:10257000A5CFAE0DBF1DAECF0F931F93CF93DF93AB
:1025800077FF04C0260F371F70E060E0DC0114966F
:10259000CD91DC91FB01E20FF31FCE17DF071CF496
:1025A0009E01261B370B121613064CF5FA0157FD38
:1025B0003796A3E0F595E795AA95E1F7EC9FD00152
:1025C000ED9FB00DFC9FB00D11246A0F7B1FDC0145
:1025D0005F96ED91FC91E60FF71F4770552781E05C
:1025E00090E001C0880F4A95EAF7482F01301105A5
:1025F00059F0A8F02E0F3F1F02301105E1F0DF91D6
:10260000CF911F910F9108952E0F3F1FE217F307EF
:10261000B1F38191DF011197842B8C93F7CF8095D3
:102620002E0F3F1FE217F30751F39191DF0111972E
:1026300098239C93F7CFE217F30709F38191DF0109
:10264000119784278C93F7CF0F931F93FA01DC0126
:1026500056964C9156974230E9F04330A1F1413003
:1026600061F514964D915C91DA01AE1BBF0BFD0133
:10267000E21BF30B77FD0BC0DC0116964D915C91CC
:102680006417750724F4AB01BF010E94BC121F91AF
:102690000F91089514964D915C91DA01A61BB70B2A
:1026A000BD0161507109DC0116964D915C91DA0112
:1026B000AE1BBF0BFD01E21BF30B77FDE8CFAF01B3
:1026C0000E940D12E4CF16964D915C91DA01A61B83
:1026D000B70BBD0161507109CDCF0F931F93FA0164
:1026E000DC0156964C9156974230A9F0433091F157
:1026F000413019F514964D915C91DA01AE1BBF0B78
:10270000FD013197F7FD04C0AB01BF010E940D121E
:102710001F910F91089514964D915C91DA01A61BBB
:10272000B70BBD01DC0116964D915C91DA01AE1B31
:10273000BF0BFD013197621B730BF7FDE9CFDC0185
:1027400016964D915C91E417F50714F7AF010E94BE
:10275000BC12DECF16964D915C91DA01A61BB70B29
:10276000BD01621B730BCECFFC0177FD64C0808579
:102770009185681779070CF05EC057FD5CC08285B3
:102780009385481759070CF056C086898230B1F0FE
:10279000833029F1813041F484819581841B950B2C
:1027A000AB01BC01615071092130310509F108F418
:1027B00043C02230310509F463C0089584819581B6
:1027C000DC01A61BB70BBD016150710986819781A1
:1027D000DC01A41BB50BAD0141505109E5CF868149
:1027E0009781861B970BBA01AC0141505109DCCF90
:1027F000CA0157FD0796A3E095958795AA95E1F73D
:10280000A481B5818A9F90018B9F300D9A9F300DD6
:102810001124620F731F078CF0A1E02DE60FF71F44
:102820004770552721E030E001C0220F4A95EAF7B2
:102830008081822B80830895CA0157FD079633E07B
:10284000959587953A95E1F7A481B5818A9F900186
:102850008B9F300D9A9F300D1124620F731F078CD0
:10286000F0A1E02DE60FF71F4770552781E090E0BB
:1028700001C0880F4A95EAF7809590818923DACFC5
:10288000CA0157FD079623E0959587952A95E1F7AC
:10289000A481B5818A9F90018B9F300D9A9F300D46
:1028A0001124620F731F078CF0A1E02DE60FF71FB4
:1028B0004770552721E030E001C0220F4A95EAF722
:1028C00080818227B7CF08958EBD00000DB407FE2A
:1028D000FDCF8EB50895FF920F931F93CF93DF9393
:1028E000F82ED92FC62F80912C0490912D04892B7E
:1028F00009F447C0809130040E94880580912C041F
:1029000090912D04DC01ED91FC910190F081E02D7E
:1029100060E009950F2D1D2FD1E0C15080912C044E
:1029200090912D04CF3F31F1D03298F00E94611088
:10293000809130040E94880580912C0490912D0490
:10294000DC01ED91FC910190F081E02D60E00995B2
:10295000D1E080912C0490912D04F8016491DC0168
:10296000ED91FC910190F081E02D0995DF5F0F5F03
:102970001F4FD3CFDF91CF911F910F91FF900C94F8
:102980006110E0913C04F0913D04908180914204FB
:102990008095892380830F2D1D2FC15008F438C0E6
:1029A000F801849120912A0430912B04232B29F0E3
:1029B0000E9464140F5F1F4FF0CF28E030E040E822
:1029C000E0913804F091390490914004582F542339
:1029D000D9F05081952B9083E0913A04F0913B041B
:1029E000908150914104952B9083E0913A04F091AD
:1029F0003B04508190914104909595239083469596
:102A000021503109E9F6D6CF508190959523E3CF37
:102A1000DF91CF911F910F91FF9008951F93CF9356
:102A2000DF93EC018D8D9E8D892BF9F0162F89A1F6
:102A30000E9488058D8D9E8DDC01ED91FC910190A9
:102A4000F081E02D60E009958D8D9E8DDC01ED918A
:102A5000FC910190F081E02D612F09958D8D9E8D67
:102A6000DF91CF911F910C946110ADA5BEA59C91F3
:102A70008BA9809589238C938B8D9C8D892B31F02C
:102A8000862FDF91CF911F910C94641428E030E0E1
:102A900080E8A9A5BAA599A9462F4823C1F04C9171
:102AA000942B9C93ABA5BCA59C914AA9942B9C9379
:102AB000ABA5BCA54C919AA9909594239C9386951F
:102AC0002150310931F7DF91CF911F9108954C9139
:102AD00090959423E6CF8CBD9DBD0895FF920F93F2
:102AE0001F93CF93DF9380912C0490912D04892B19
:102AF00009F472C08CE08093B80065E08DE79AE03D
:102B00000E946B146091130461508FE094E00E9466
:102B10000E152091150430911604C901079697FDF2
:102B2000079623E0959587952A95E1F72091130460
:102B300030911404829F8001839F100D929F100D8D
:102B40001124C0912E04D0912F0480912C049091D7
:102B50002D040C0F1D1F892B09F47CC080913004BB
:102B60000E94880580912C0490912D04DC01ED9148
:102B7000FC910190F081E02D60E40995FF24F3942D
:102B800080912C0490912D040C171D07E1F1BFE1F9
:102B9000BF15A0F40E946110809130040E94880546
:102BA00080912C0490912D04DC01ED91FC91019019
:102BB000F081E02D60E40995FF24F39480912C04CA
:102BC00090912D046991DC01ED91FC910190F081CF
:102BD000E02D0995F394D4CF80912A0490912B0491
:102BE000892B31F080914404909145040E946B152B
:102BF000E0913E04F0913F049081809143048095E0
:102C0000892380837ACF0E94611080912C04909157
:102C10002D04892B09F45FC02091460430914704AC
:102C2000409148045091490460E074E284EF90E0E0
:102C30000E94C632205131094109510956954795E4
:102C4000379527952093B800DF91CF911F910F9171
:102C5000FF900895E0913C04F0913D0480819091B3
:102C60004204892B80830C171D0779F289912091EA
:102C70002A0430912B04232B19F00E946414F3CF03
:102C800028E030E040E8E0913804F0913904909178
:102C90004004582F5423D9F05081952B9083E09114
:102CA0003A04F0913B04908150914104952B90831C
:102CB000E0913A04F0913B04508190914104909549
:102CC00095239083469521503109E9F6CCCF508168
:102CD00090959523E3CFE0913E04F0913F048081ED
:102CE00090914304892B8083AFCF1F93CF93DF93C1
:102CF000EC01162F8D8D9E8D892B29F18CE0809310
:102D0000B80066EA111167EACE010E940E158D8D9A
:102D10009E8D892B41F12FA938AD49AD5AAD60E0A8
:102D200074E284EF90E00E94C632205131094109DB
:102D3000510956954795379527952093B800DF910F
:102D4000CF911F9108958B8D9C8D892B21F08DA99A
:102D50009EA90E946B15EFA5F8A990818CA980957A
:102D600089238083CECFEFA5F8A980819CA9892BE8
:102D70008083E5CF089590E080E008958093BB00C4
:102D800084E88093BC008091BC0087FFFCCF9091C9
:102D9000B900987F81E0983231F0983129F0903471
:102DA00019F080E008950895089584EA8093BC00A6
:102DB0008091BC0087FFFCCF8091B900887F19F01B
:102DC00080EC0C94BE1680E008955F926F927F9223
:102DD0008F929F92AF92BF92CF92DF92EF92FF922B
:102DE0000F931F93CF93DF93CDB7DEB7582E742E7A
:102DF000652EB62E922E0E94D516852D0E94BE16E7
:102E00008D2D0E94BE168C2D0E94BE168B2D8370B8
:102E1000A82A80E081108CE08A290E94BE16862DA7
:102E20000E94BE16872D0E94BE168CE0F694E79491
:102E3000D794C7948A95D1F78C2D807FC82E892D81
:102E40008F708C290E94BE16812F0E94BE16802F83
:102E50000E94BE1684E98093BC008091BC0084FD72
:102E6000FCCFDF91CF911F910F91FF90EF90DF90FA
:102E7000CF90BF90AF909F908F907F906F905F901A
:102E800008954F925F926F927F928F929F92AF922E
:102E9000BF92CF92DF92EF92FF920F931F93CF9347
:102EA000C82FC0906E04D0906F04E0907004F09032
:102EB0007104CB01BA01A70196010E94C6324901F3
:102EC0005A0125E0F694E794D794C7942A95D1F750
:102ED00035E096958795779567953A95D1F747E0D0
:102EE000660F771F881F991F4A95D1F7A701960192
:102EF0000E94C63229013A018B019C01B501A4014F
:102F0000552766277727E7E0440F551F661F771F71
:102F1000EA95D1F7525061097109440D551D661D9E
:102F2000771D812CA12C8C2F0E94E516CF911F912B
:102F30000F91FF90EF90DF90CF90BF90AF909F9058
:102F40008F907F906F905F904F9008958F92AF9287
:102F5000CF92DF92EF92FF920F931F938824839476
:102F6000443051056105710509F0812C4450510927
:102F700061097E4F97E0440F551F661F771F9A9592
:102F8000D1F7A22EC12CD12C7601C39400E010E021
:102F900098010E94E5161F910F91FF90EF90DF902E
:102FA000CF90AF908F900895CF93DF93D82FC62FF7
:102FB0000E94D5168D2F0E94BE168C2F0E94BE1621
:102FC00084E98093BC008091BC0084FDFCCFDF913C
:102FD000CF910895CF93C82F60E880E18C0F0E94B5
:102FE000D417EC2FF0E0EE0FFF1FEA5AFB4F1182CF
:102FF0001082CF9108954F925F926F927F92AF921D
:10300000BF92CF92DF92EF92FF920F931F93CF93D5
:10301000DF93D82F082F10E0F801EE0FFF1FEE0FFF
:10302000FF1FEE59FB4F4080518062807380411436
:1030300051046104710489F48D2FDF91CF911F91A8
:103040000F91FF90EF90DF90CF90BF90AF907F9067
:103050006F905F904F900C94EA175801AA0CBB1C1C
:10306000F501EA5AFB4FC080D180F12CE12C0A5ABD
:103070001B4FF801C681A3019201C701B6010E944E
:1030800095349B01AC01EC2FF0E0E45BFE4FA08196
:10309000B0E00E94BB329B01AC0120583545484C42
:1030A00050422130324C4B4E5B4008F43FC060919F
:1030B0002B0170912C0180912D0190912E01A30183
:1030C00092010E94C63269017A0184E0C816D104D7
:1030D000E104F10408F4B0CFE6E0CE16D104E10437
:1030E000F10408F470C0C0E0FDE2CF16F1E0DF06A5
:1030F000E104F10430F0CF5FF694E794D794C794DD
:10310000F3CFC11103C0E894C0F8C0E0A30192015D
:10311000C701B6010E9495349B01AC01EC2FF0E091
:10312000E45BFE4FA081B0E00E94BB322AE1D111E6
:1031300022E2AB01BC01822F0E944117F501EA5A3D
:10314000FB4F80819181B0E0A0E08C159D05AE051C
:10315000BF0521F4F80186818C1731F12C2F2295BF
:10316000207FB701A6018D2F880F880F880F865DFD
:103170000E94A617F801618580E0D11180E26C649D
:10318000682B80E18D0F0E94D417F501EA5AFB4F9E
:10319000D182C082F801C6838091760490E2D11179
:1031A00090E8892B80937604DF91CF911F910F9146
:1031B000FF90EF90DF90CF90BF90AF907F906F9097
:1031C0005F904F90089584E0C82ED12CE12CF12C13
:1031D0009ACF2F923F924F925F926F927F928F92EF
:1031E0009F92AF92BF92CF92DF92EF92FF920F9396
:1031F0001F93CF93DF9300D000D01F92CDB7DEB7DF
:1032000049015A012701380110927604C0906604E2
:10321000D0906704E0906804F09069040091620423
:103220001091630420916404309165040617170718
:103230002807390759F06093620470936304809300
:1032400064049093650480E00E94FB17C814D904BD
:10325000EA04FB0471F480916A0490916B04A091DC
:103260006C04B0916D0484159505A605B70509F4A5
:1032700003C18092660490926704A0926804B092A1
:10328000690440926A0450926B0460926C047092DC
:103290006D0481149104A104B10419F481E00E9429
:1032A000EA1780916A0490916B04A0916C04B0912C
:1032B0006D04892B8A2B8B2B19F482E00E94EA176C
:1032C00040906604509067046090680470906904B0
:1032D000411451046104710409F473C1C814D90480
:1032E000EA04FB0409F4A5C0C0905804D090590426
:1032F000F12CE12C20915D042983A3019201C701E7
:10330000B6010E9495349B01AC018981E82FF0E061
:10331000E45BFE4FA081B0E00E94BB324B015C0138
:10332000DC01CB0180589545A84CB0428130924CCD
:10333000AB4EBB4008F446C060912B0170912C014C
:1033400080912D0190912E01A30192010E94C6321D
:1033500069017A0181E044E0C416D104E104F1047A
:1033600008F488C086E0C816D104E104F10408F42A
:10337000A4C019829DE2C91691E0D906E104F104C6
:1033800040F029812F5F2983F694E794D794C7945E
:10339000F1CF4981411103C0E894C0F81982A3011B
:1033A0009201C701B6010E9495349B01AC0189814D
:1033B000E82FF0E0E45BFE4FA081B0E00E94BB325A
:1033C0004B015C01B501A40182E20E94411780918A
:1033D000580490915904B0E0A0E08C159D05AE050D
:1033E000BF0529F480915D0499818917D1F0298165
:1033F0002295207FB701A60182E30E94A617609163
:1034000060046C6681E10E94D417D0925904C09286
:103410005804298120935D0480917604806880930C
:1034200076048092720490927304A0927404B09215
:103430007504C0906A04D0906B04E0906C04F09026
:103440006D04C114D104E104F104B1F08090720460
:1034500090907304A0907404B0907504C501B401F9
:10346000A70196010E94C632283031054105510559
:1034700050F582E00E94EA1760917604662319F005
:1034800081EB0E94D417809176040F900F900F90DB
:103490000F900F90DF91CF911F910F91FF90EF90C0
:1034A000DF90CF90BF90AF909F908F907F906F9064
:1034B0005F904F903F902F90089504E0C02ED12C44
:1034C000E12CF12C69CF1D822134310541055105D4
:1034D00060F08D818F5F8D83CC0CDD1CEE1CFF1C9A
:1034E0005695479537952795EFCFC501B401A701AC
:1034F00096010E94C63229833A834B835C832FEF67
:103500003FEF4FE050E00E94D23456016701E12CBA
:10351000F12C00E010E00E94FF3429013A019D8166
:103520009295907F9D83C12CD12C7601C394411438
:1035300051046104710431F0CC24CA94DC2CFFE006
:10354000EF2EF12CC301B20127E0660F771F881F11
:10355000991F2A95D1F7A70196010E94C632490109
:103560005A018B019C0149815A816B817C815527CD
:1035700066277727E7E0440F551F661F771FEA95F8
:10358000D1F7525061097109480D591D6A1D7B1D03
:10359000812CAD808AE30E94E5168CE445284628FC
:1035A000472809F08CE0609161046062682B82E139
:1035B0000E94D41781E090E090935B0480935A04BA
:1035C0005BCF80906A0490906B04A0906C04B090E4
:1035D0006D0481149104A104B10409F44DCFC0908D
:1035E0005A04D0905B04F12CE12C20915E042983D5
:1035F000A5019401C701B6010E9495349B01AC015D
:103600008981E82FF0E0E45BFE4FA081B0E00E94EA
:10361000BB328B019C0100581545284C30420130CB
:10362000124C2B4E3B4008F443C060912B0170912B
:103630002C0180912D0190912E01A50194010E94F1
:10364000C63269017A0184E0C816D104E104F104AC
:1036500008F40FCF96E0C916D104E104F10408F490
:1036600058C019822DE2C21621E0D206E104F1040D
:1036700040F049814F5F4983F694E794D794C7940B
:10368000F1CF8981811103C0E894C0F81982A501A6
:103690009401C701B6010E9495349B01AC01998148
:1036A000E92FF0E0E45BFE4FA081B0E00E94BB3266
:1036B000AB01BC0182E20E94411780915A049091B3
:1036C0005B04B0E0A0E08C159D05AE05BF0531F4AC
:1036D00080915E042981821709F4CECE298122953A
:1036E000207FB701A6018AE30E94A61760916104BA
:1036F0006C6682E10E94D417D0925B04C0925A0497
:10370000498140935E0480917604806880937604BA
:10371000B3CE84E0C82ED12CE12CF12CB5CFFF9292
:103720000F931F93CF93DF9300D0CDB7DEB7E0E1C7
:10373000F1E010E000E08191080F111D81E0E73217
:10374000F807C9F747E150E060E171E082E090E0FE
:103750000E94D1110D5F1F4F1A83098342E050E090
:10376000BE016F5F7F4F90E080E00E94D111E9E0E1
:10377000F1E080E191E010E000E02191020F111DE5
:103780008E179F07D1F78091110199E0F92E8F9D37
:10379000C001112447E050E069E071E04B960E94BF
:1037A000D1110D5F1F4F1A830983809111018F9DE5
:1037B000C001112442E050E0BE016F5F7F4F499687
:1037C0000E94D1110F900F90DF91CF911F910F9117
:1037D000FF90089580911D0190911E01092E000C0B
:1037E000AA0BBB0B80549340A446BE4F80936E043B
:1037F00090936F04A0937004B093710480E00E94D2
:10380000FB1781E00C94FB178F929F92AF92BF92AF
:10381000EF92FF920F931F9380910A0190910B01F9
:10382000A0910C01B0910D0180901B0190901C01A2
:10383000092C000CAA08BB0840910901442321F17E
:10384000E0901301F0901401009115011091160100
:103850008E0D9F1DA01FB11FBC01CD01605E7E4576
:10386000884F9F4F680D791D8A1D9B1D20E030E019
:10387000A9010E94E9181F910F91FF90EF90BF904E
:10388000AF909F908F900895E0901701F0901801ED
:103890000091190110911A018E0D9F1DA01FB11FDB
:1038A000BC01CD016052714A87409109DBCF85E1AF
:1038B0000E94AF0620911F0130E0DC010E94CB3452
:1038C0002FEF33E040E050E00E949C322093E3026F
:1038D00008958FE00E94AF0624E630E0DC010E94EC
:1038E000CB342FEF33E040E050E00E949C32209335
:1038F000E2020895DC01ED91FD918081ED91FD9151
:103900009081ED91FD916C9163708E2309F064605C
:103910009F2309F06860E7E9FCE1E60FF11D65957A
:1039200065956D936D917D918D919D91099423C0C5
:103930001AC012C016C010C01EC009C014C013C0E7
:1039400006C019C009C00DC007C00DC014C0625028
:103950007040804090400BC061507040804090406B
:1039600006C06E5F01C06F5F7F4F8F4F9F4F9E936A
:103970008E937E936E930895BF92CF92DF92EF92D3
:10398000FF920F931F93CF93DF93EC01B62EC72EB8
:103990008D85811105C0CE010E94E80781110EC0FE
:1039A0001B861D861C8680E0DF91CF911F910F91B1
:1039B000FF90EF90DF90CF90BF90089540E060EFD0
:1039C000CE010E94950701E0E12CD12C11E0CE013F
:1039D0000E944207F82ECE010E94420791E0F912A0
:1039E00018C0813099F51134D8F2DB86D11002C0AD
:1039F00081E08D878B81882399F22396EB2DFC2D16
:103A0000CF01089629912193E817F907D9F781E0AA
:103A1000CBCFEE2DF0E0F8120FC08B851817A0F475
:103A2000DE01AE0FBF1F13968C91802379F4F12C29
:103A3000193008F41C87D12EEC0FFD1F8381902FC5
:103A40009095892383830AC08113F1CFFE01EE0D87
:103A5000F11D8381802B8383FF24F3946F2DCE018E
:103A60000E9466071F5F000F11F4E39401E087E0F6
:103A70008E1508F0ACCFB7CF4F925F926F927F92C6
:103A80008F929F92AF92BF92CF92DF92EF92FF926E
:103A90000F931F93CF93DF93CDB7DEB761970FB628
:103AA000F894DEBF0FBECDBF0E941F07C090DD029D
:103AB000D090DE02E090DF02F090E0026C197D0908
:103AC0008E099F09693873418105910508F458C032
:103AD0008091DC02811154C01092E3038091E703CE
:103AE0009091E8030E94E80740E06CEC8091E703C6
:103AF0009091E8030E9495074091E10364E480916E
:103B0000E7039091E8030E9495078091E3038823DF
:103B100091F1E091E203E9500EEE12E0E33038F467
:103B2000F0E0EE0FFF1FE85CFE4F008111818091F5
:103B3000E403882309F481C08091E10381117DC0F1
:103B40000E941F074B015C012801110F66087708CE
:103B50008091E7039091E8030E944207813059F079
:103B60000E941F0764197509860997096815790568
:103B70008A059B0568F381E08093E3038093DC0270
:103B80000E941F076C197D098E099F0961347F41CE
:103B900081059105D8F18091DC028823B9F1E0918B
:103BA000E703F091E80313861586148612861186C2
:103BB000108617821682158214821382BE01665FF8
:103BC0007F4F8091E7039091E8030E94BC1C811114
:103BD0003BC060E070E08EEF92EC20E030E040E02F
:103BE0005FE30E94F8320E94643380912201680FE3
:103BF0006093E1020E941F076093DD027093DE0272
:103C00008093DF029093E0021092DC0261960FB67F
:103C1000F894DEBF0FBECDBFDF91CF911F910F9102
:103C2000FF90EF90DF90CF90BF90AF909F908F90DC
:103C30007F906F905F904F900895B801110F880B9F
:103C4000990B0E94EC0697CF67E0CE010A960E947E
:103C50002B0799898913BDCF8091E7039091E803E1
:103C60000E94E807882309F4B4CFBE016F5F7F4F3D
:103C7000CE010A960E942008882309F4AACF68E0A2
:103C8000CE0101960E942B0799858913A2CF6A81E4
:103C900070E0762F6627770F770F770F298158E02E
:103CA000259F90011124262B372B8A858031D1F452
:103CB000688570E08F81AB01481B5109CA01969558
:103CC000982F8827979587950E94B134CB0140970C
:103CD000B90153E0660F771F5A95E1F760789C01B0
:103CE000260F371F213854EE35070CF472CFB90177
:103CF000330F880B990B0E949C3320E030E040E0AA
:103D00005CE30E94283469CF0F931F93CF93DF9316
:103D100080915C03882359F01092CB030E944811D4
:103D200010925C03DF91CF911F910F9108950E9433
:103D30001F070091D8021091D9022091DA02309128
:103D4000DB02601B710B820B930B693E7340810594
:103D5000910520F4012B022B032B21F70E941F0752
:103D60006093D8027093D9028093DA029093DB02B9
:103D700088E60E94880560E083E094E00E942D10B0
:103D800083E094E00E946110882391F01092D203A6
:103D90008091D203882331F21092CD031092CC038C
:103DA0001092CB03DF91CF911F910F910C9448118A
:103DB00081E08093D20367E088E60E940F0F1092A3
:103DC000DC038093DB03873018F383E094E00E94E8
:103DD000ED0FD82F982F92959770CAE08D2F8F7086
:103DE0009C9F800D11248093CB0383E094E00E947C
:103DF000ED0F982F92959F708F709C9F800D1124CE
:103E00008093CC0383E094E00E94ED0F982F92956D
:103E100093708F709C9F800D11248093CD0383E05D
:103E200094E00E94ED0F982F92959F708F709C9F49
:103E3000800D11248093CE0383E094E00E94ED0F67
:103E4000982F92959F708F709C9F800D1124809366
:103E5000CF0383E094E00E94ED0F982F92959F701E
:103E60008F709C9F800D11248093D00383E094E099
:103E70000E94ED0F982F9F70925E82958F708C9F9D
:103E8000900D11249093D103D7FF4CCF81CFCF93C6
:103E9000DF93EC01809177040E9488058D2F90E0DC
:103EA0000E945C10CE0199270E945C1083E094E090
:103EB0000E94611061E0809177040E940F0F1092C0
:103EC000DC038093DB03882339F083E094E00E94D5
:103ED000ED0FDF91CF91089580E0FBCFEF92FF923D
:103EE0000F931F93CF93DF938B01040F151FEB01EB
:103EF0007C01E61AF70AC7018C0F9D1F0E94471F1D
:103F00008993C017D107B9F7DF91CF911F910F9116
:103F1000FF90EF900895DF92EF92FF920F931F931F
:103F2000CF93DF9300D0CDB7DEB71A82198280918C
:103F3000110129E0829FC001112442E050E0BE013E
:103F40006F5F7F4F49960E946E1FF12CE12C10E0AD
:103F500000E089E0D82E8091110197018D9D200D00
:103F6000311D1124C9014B960E94471F080F111DD6
:103F70003FEFE31AF30A87E0E816F10461F70D5FFB
:103F80001F4F89819A8108171907B1F48091110197
:103F90008D9DC001112447E050E069E071E04B962F
:103FA0000E946E1F0F900F90DF91CF911F910F9184
:103FB000FF90EF90DF9008950E948F1BF3CFFC01DC
:103FC00001900020E9F73197AF01481B590BBC0164
:103FD0008FE094E00C949A058F929F92AF92BF92DB
:103FE0000F931F93CF93DF93CDB7DEB7A1970FB693
:103FF000F894DEBF0FBECDBF19A2423008F44AE0EC
:104000008E010F5D1F4F842E912CB12CA12CA50188
:1040100094010E94C632E62FB901CA01EA30F4F4D5
:10402000E05DD801EE938D01232B242B252B79F70E
:1040300090E080E0109719F0CD010E94DF1FA1965B
:104040000FB6F894DEBF0FBECDBFDF91CF911F91A9
:104050000F91BF90AF909F908F900895E95CE1CF52
:10406000682F70E090E080E04AE00C94EC1FCF9263
:10407000DF92EF92FF92CF93DF936C01990FEE08DE
:10408000FF08F7FE17C08DE20E94BC0BEC0166270B
:104090007727CB016C197D098E099F094AE00E94A0
:1040A000EC1F8C0F9D1FDF91CF91FF90EF90DF9061
:1040B000CF9008954AE0C701B601DF91CF91FF90FC
:1040C000EF90DF90CF900C94EC1FCF93DF934AE0FA
:1040D0000E94EC1FEC0182E991E00E94DF1F8C0F2F
:1040E0009D1FDF91CF910895CF93DF930E94DF1F33
:1040F000EC0182E991E00E94DF1F8C0F9D1FDF9190
:10410000CF9108950C94DF1FCF92DF92EF92FF9230
:10411000CF93DF936C01990FEE08FF08F7FE1DC0E7
:104120008DE20E94BC0BEC0166277727CB016C194E
:104130007D098E099F094AE00E94EC1FC80FD91F14
:1041400082E991E00E94DF1F8C0F9D1FDF91CF91CC
:10415000FF90EF90DF90CF9008954AE0C701B6013D
:104160000E94EC1FEC01ECCFCF93DF930E94302034
:10417000EC0182E991E00E94DF1F8C0F9D1FDF910F
:10418000CF9108952091150430911604C901079626
:1041900097FD079623E0959587952A95E1F720915D
:1041A000130430911404829FA001839F500D929FAD
:1041B000500D112470E060E080912E0490912F0446
:1041C0000C94A336CF92DF92EF92FF920F931F933E
:1041D000CF930E94C22010921C0410921B041092D4
:1041E0001E0410921D0481E090E0909322048093BD
:1041F00021049093200480931F0483E08093230480
:1042000080932404E0917E03E43108F01DC1F0E0C6
:10421000E45FFE4D0C94C53420219422A822C522CF
:10422000DE22F9220D232F234A235C236E237E23D3
:104230008E23A623BE23D523E523022416242A2475
:1042400080910A0190910B01A0910C01B0910D0198
:1042500080389649A849B10520F48FE092E00E9489
:10426000822060910A0170910B0180910C01909164
:104270000D0130E4C32E32E4D32E3FE0E32EF12CC7
:10428000A70196010E94C632CA01B9014AE00E9404
:10429000EC1F80911B0490911C04059690931C04C4
:1042A00080931B0460910A0170910B0180910C01B5
:1042B00090910D01A70196010E94C632603A76489E
:1042C0008140910520F485E991E00E94822060916F
:1042D0000A0170910B0180910C0190910D0120E475
:1042E00032E44FE050E00E94C632603177428105EF
:1042F000910520F485E991E00E94822060910A01F5
:1043000070910B0180910C0190910D0120E432E439
:104310004FE050E00E94C63228EEC22E23E0D22E9B
:10432000E12CF12CA70196010E94C632CA01B90105
:104330004AE00E94EC1F82E08093230480932404CF
:1043400080911B0490911C04059690931C0480930B
:104350001B0487E090E090931E0480931D046091FD
:104360000A0170910B0180910C0190910D01A70140
:1043700096010E94C632643671058105910520F4CC
:1043800085E991E00E94822060910A0170910B0101
:1043900080910C0190910D0128EE33E040E050E057
:1043A0000E94C6322AE030E040E050E00E94C6326F
:1043B000CA01B9010E94652081E0809323048093A3
:1043C00024048091E302843620F485E991E00E9480
:1043D00082208091E302CAE06C2F0E94A53490E015
:1043E0000E94372087E991E00E9482208091E302B9
:1043F0006C2F0E94A534892F90E00E94372089E914
:1044000091E00E94822081E0809323048093240421
:1044100080917D03882321F1809156038823E9F060
:104420008BE991E00E9482202091E20230E0EE24AC
:10443000E394F12C09E010E047E150E060E470E023
:104440008FE094E00E94B50CCF911F910F91FF90E7
:10445000EF90DF90CF900C946E1580EA91E0E2CF60
:104460008091E10292E3980F953608F051C087FDE4
:1044700004C08FE092E00E9482208091E102082E29
:10448000000C990B0E94372087EF0E94BC0B85EA35
:1044900091E00E948220809174038823E1F18FE0F3
:1044A00092E00E9482208091CD038A3020F48FE038
:1044B00092E00E9482208091CD030E943020809162
:1044C000CB0380FF2BC08DEA91E00E948220809177
:1044D000CC038A3020F485E991E00E94822080910B
:1044E000CC030E943020809109018823D1F08FEA0B
:1044F00091E00E948220809111018A3020F48FE0A7
:1045000092E00E948220809111010E9430209CCF75
:1045100087EA91E0BECF87E991E0C3CF8FE092E0D8
:10452000D4CF82EB91E0E5CF809111010E94B420BD
:1045300081E0809323048093240480917E030E9471
:10454000302085EB91E00E94822080911201DDCF26
:10455000E0911001F0E0EE0FFF1FE25CFE4F2081C2
:104560003181AAE0B0E00E94E8320E94652081E03B
:10457000809323048093240480917E030E94302042
:1045800087EC91E00E9482205FCF8091090188230F
:1045900091F081ED91E00E94742081E080932304EA
:1045A0008093240480917E030E94302089ED91E065
:1045B0000E94742049CF85ED91E0EDCF80910E01EE
:1045C00024E6829FC00111240E94842081E0809310
:1045D00023048093240480917E030E9430208AEE7D
:1045E00091E00E94822080EF0E94BC0B86EF91E058
:1045F000C9CF80910F0124E6829FC00111240E943F
:10460000842081E0809323048093240480917E039E
:104610000E9430208AEF91E0E4CF82E0809323046F
:104620008093240460911701709118018091190101
:1046300090911A010E94652081E080932304809369
:10464000240480917E030E94302086E092E00E9444
:10465000822080EF0E94BC0B84EB92E093CF82E03B
:1046600080932304809324046091130170911401BA
:1046700080911501909116010E94652081E0809340
:1046800023048093240480917E030E94302081E1E2
:1046900092E0DDCF80911B0190911C010E9484204B
:1046A00081E0809323048093240480917E030E9400
:1046B00030208CE192E0CBCF80911D0190911E01C2
:1046C0000E94842081E080932304809324048091BD
:1046D0007E030E9430208DE292E0B9CF80911F01CD
:1046E0000E94B42081E0809323048093240480916D
:1046F0007E030E94302089E392E044CF8091120132
:104700000E94B42081E0809323048093240480914C
:104710007E030E94302084E492E034CF8091CD0368
:104720008A3020F485E991E00E9482208091CD03B7
:104730000E94B42081E0809323048093240480911C
:104740007E030E94302084E592E01CCF8091CC0350
:104750008A3020F485E991E00E9482208091CC0388
:104760000E94B42081E080932304809324048091EC
:104770007E030E9430208BE592E004CF80912001DF
:10478000882381F084E692E00E94742081E0809387
:1047900023048093240480917E030E9430208BE6C2
:1047A00092E006CF88E692E0EFCF809121010E944F
:1047B000B42081E0809323048093240480917E03BD
:1047C0000E9430208DE792E0DDCE80912201082EFC
:1047D000000C990B0E94842081E080932304809335
:1047E000240480917E030E9430208FE892E00E9492
:1047F000822080EF0E94BC0B87EF0E94BC0B85EAF1
:1048000091E0C0CE809123012AE0829FC001112453
:104810000E94842081E0809323048093240480916B
:104820007E030E9430208AE992E0ACCE8091240180
:104830002AE0829FC00111240E94842081E080939D
:1048400023048093240480917E030E9430208AEA0E
:1048500092E098CE809126012AE0829FC001112427
:104860000E94842081E0809323048093240480911B
:104870007E030E94302087EB92E084CE0E949E3619
:1048800085ED8093BC008091C7039091C803A091EF
:10489000C903B091CA030796A11DB11D23E0B695C7
:1048A000A795979587952A95D1F72091BC0024FD6F
:1048B00003C01092C50308954091C7035091C803E7
:1048C0006091C9037091CA03452B462B472B69F3AE
:1048D0000097A105B10541F025E32A95F1F7000005
:1048E0000197A109B109E1CF8091C6030C94EE0EA6
:1048F0001F920F920FB60F9211242F933F934F9355
:104900005F936F937F938F939F93AF93BF93EF9337
:10491000FF938091670390916803A0916903B09120
:104920006A03892B8A2B8B2BD1F190916203E09142
:104930006303F091640380818927808380916703FA
:1049400090916803A0916903B0916A031816190643
:104950001A061B069CF48091670390916803A0914E
:104960006903B0916A030197A109B10980936703B4
:1049700090936803A0936903B0936A03FF91EF914A
:10498000BF91AF919F918F917F916F915F914F9167
:104990003F912F910F900FBE0F901F90189580910F
:1049A00028010E944706EACF1F920F920FB60F927E
:1049B00011242F933F938F939F93AF93BF93809135
:1049C000490390914A03A0914B03B0914C0330915D
:1049D000480323E0230F2D3758F50196A11DB11D83
:1049E000209348038093490390934A03A0934B0379
:1049F000B0934C0380914D0390914E03A0914F03CF
:104A0000B09150030196A11DB11D80934D03909369
:104A10004E03A0934F03B0935003BF91AF919F916A
:104A20008F913F912F910F900FBE0F901F9018956F
:104A300026E8230F0296A11DB11DD2CF1F920F921F
:104A40000FB60F9211242F933F934F935F936F9361
:104A50007F938F939F93AF93BF93EF93FF93809137
:104A6000B900887F803609F44AC0F0F5883209F42D
:104A7000A7C018F5803109F49BC0B8F4882309F465
:104A8000F9C0883009F494C0FF91EF91BF91AF91C4
:104A90009F918F917F916F915F914F913F912F9156
:104AA0000F900FBE0F901F901895883109F488C0A1
:104AB000803251F78093A30314C0803409F49DC061
:104AC00040F48033B9F38833F9F68093A30385EC7F
:104AD000B0C0803509F485C0883509F496C08834A3
:104AE00099F60E944024D0CF883909F48CC038F55B
:104AF000883729F050F4883611F0803729F683E0A2
:104B00008093C5031092470357C0883809F47BC0CF
:104B1000803919F0803809F0B7CF8091470380328F
:104B200008F071C0E091470381E08E0F8093470346
:104B30008091BB00F0E0E95DFC4F80833DC0803B8D
:104B400039F0E0F4803A09F479C0883A09F09CCF52
:104B500084E08093C5031092260310922503E09110
:104B6000D503F091D60309958091250381110FC0DB
:104B700081E0809325031092050309C0803C09F46D
:104B8000A6CF883C09F4A3CF883B09F07DCFE09104
:104B9000260381E08E0F80932603F0E0EB5FFC4F4D
:104BA00080818093BB00909126038091250329C0CA
:104BB0008091A0038093BB0085EC8093BC0064CF00
:104BC0009091A2038091A103981758F5E091A20358
:104BD00081E08E0F8093A203F0E0E158FC4F8081CA
:104BE000E9CFE091A20381E08E0F8093A203809130
:104BF000BB00F0E0E158FC4F80839091A2038091CC
:104C0000A1039817C8F285E8D8CFE091A20381E00C
:104C10008E0F8093A2038091BB00F0E0E158FC4F1F
:104C200080838091A40381115CCF81E080939F03F6
:104C300084EA8093BC001092C50326CF85EC809354
:104C4000BC001092C50380914703803230F4E0919C
:104C50004703F0E0E95DFC4F10826091470370E08C
:104C6000E091D703F091D80387E293E00995109281
:104C700047030ACF1092A30334CF1F920F920FB6AF
:104C80000F9211242F933F934F935F936F937F93D2
:104C90008F939F93AF93BF93EF93FF938091DF0325
:104CA0009091E0030E947A1CFF91EF91BF91AF9128
:104CB0009F918F917F916F915F914F913F912F9134
:104CC0000F900FBE0F901F9018951F920F920FB666
:104CD0000F9211242F933F934F935F936F937F9382
:104CE0008F939F93AF93BF93EF93FF938091DD03D7
:104CF0009091DE030E947A1CFF91EF91BF91AF91DA
:104D00009F918F917F916F915F914F913F912F91E3
:104D10000F900FBE0F901F901895CF93DF931092B6
:104D2000DC031092DB031092DA031092D9030E9485
:104D3000D00E86E895E09093D6038093D50387E85C
:104D400095E09093D8038093D703109206041092B5
:104D5000050488EE93E0A0E0B0E080930704909310
:104D60000804A0930904B0930A0488E591E09093A5
:104D700004048093030480E5809377041092570421
:104D800010925604109259041092580410925B0429
:104D900010925A0410925C0410925D0410925E040A
:104DA0008091350190913601A091370180935F0485
:104DB00090936004A09361041092620410926304C3
:104DC00010926404109265041092660410926704B5
:104DD000109268041092690410926A0410926B0495
:104DE00010926C0410926D0480E892EBA6EEBEE087
:104DF00080936E0490936F04A0937004B093710439
:104E000062E082E00E94730662E083E00E94730623
:104E1000E2EAFAE0E491F0E0EE0FFF1FEA56F54F08
:104E2000A591B491B0934B04A0934A04E4E8FAE04E
:104E3000449140934E04E3EAFAE0E491F0E0EE0F8F
:104E4000FF1FEA56F54FC591D491D0934D04C093FE
:104E50004C04E5E8FAE0E491E0934F041092510429
:104E60001092520410925304109254042BE33FE129
:104E7000C9010197F1F79C91842F892391E009F4EE
:104E800090E08881E82309F092602AE434E090936E
:104E900050043093DE032093DD03809169008C7F02
:104EA000816080936900E89AC1E0C0935504309313
:104EB000E0032093DF0380916900837F8460809307
:104EC0006900E99A82E080935504109212041092CE
:104ED000110420E830E0309314042093130480E29E
:104EE00090E0909316048093150430931804209357
:104EF000170490931A0480931904109225041092B9
:104F00001C0410921B0410921E0410921D04C093E6
:104F10002404C09323048FEF9FEF90932204809387
:104F200021049093200480931F04C09326041092C0
:104F3000270410922904109228048AE691E09093A5
:104F4000100480930F0483E094E090932D048093E9
:104F50002C0410922F0410922E048FEF80933304B0
:104F6000809334048093350480933604809337040F
:104F700080E5809344041092450480EA96E8A1E01D
:104F8000B0E08093460490934704A0934804B09304
:104F9000490410922B0410922A0460E08EE00E94D3
:104FA0007306E0E9FAE0E491E093F503EEEAFAE053
:104FB000E491F0E0EE0FFF1FEA56F54F85919491D2
:104FC0009093F7038093F60310920004109202046A
:104FD000109201041092FF031092FE031092FD0341
:104FE0001092FC031092FB031092FA031092F90343
:104FF0001092F80385EF93E09093E8038093E70322
:105000001092E5031092E6031092E10389E0809389
:10501000E203C093E303C093E4031092F4031092FD
:10502000F303DF91CF910895CF93DF93CDB7DEB730
:1050300060970FB6F894DEBF0FBECDBF789484B5ED
:10504000826084BD84B5816084BD85B5826085BD84
:1050500085B5816085BD80916E00816080936E0012
:105060001092810080918100826080938100809104
:1050700081008160809381008091800081608093B5
:1050800080008091B10084608093B1008091B00075
:1050900081608093B00080917A00846080937A0070
:1050A00080917A00826080937A0080917A0081609A
:1050B00080937A0080917A00806880937A001092C1
:1050C000C10060E086E00E94730661E089E00E9412
:1050D000730661E088E00E94730660E086E00E944B
:1050E000190660E089E00E94190660E088E00E94ED
:1050F000190660E085E00E94730660E087E00E9488
:10510000730660E085E00E94190660E087E00E9477
:10511000190660E084E00E94730660E08FE00E9460
:10512000730660E080E10E94730661E08CE00E94FB
:10513000730661E084E00E94190683E08093000119
:1051400080912E0490912F04892B11F10E94C2208E
:105150002091150430911604809113049091140449
:10516000213231050CF0B5C0B9016052710977FFE9
:1051700002C06F5F7F4F759567958357910997FDC3
:10518000019600E210E023E730E042ED55E0B4C0C4
:105190002091150430911604C901079697FD0796D2
:1051A000B3E095958795BA95E1F720911304309176
:1051B0001404AC01429FC001439F900D529F900D7B
:1051C00011240E94793590932F0480932E04892B0B
:1051D00009F0BCCF0E94C2200E946E15E091E70347
:1051E000F091E803138615861486128611861086C0
:1051F000178216821582148213821092E503109290
:10520000E60301E0BE016F5F7F4F8091E70390915D
:10521000E8030E94BC1C882309F446C267E0CE0163
:1052200001960E942B0798858913ECCF8091E103AA
:10523000811128C08091E7039091E8030E94E8075C
:10524000BE016F5F7F4F8091E7039091E8030E945A
:10525000C90740E064EB8091E7039091E8030E9466
:1052600095078091E7039091E8030E944207182F69
:105270008091E7039091E8030E94E807111102C0B2
:105280000093E1031091E2038981803111F40C94C1
:105290008832CE0101960E946C08811708F0F3C194
:1052A0008091E2038093E2038091E5038F5F809316
:1052B000E5038981883239F008F0EFC1803119F0B7
:1052C000823209F09FCF8091E6038F5F8093E603DF
:1052D00099CFB9016054710977FF02C06F5F7F4FAA
:1052E000759567958255910997FD019600E410E048
:1052F00022E530E042EB57E0959587950E949B0DA3
:1053000082E08093310480912C0490912D04892BAC
:1053100009F4AEC08CE3809330041092DC03109249
:10532000DB031092DA031092D9030E94D00E86E8B4
:1053300095E09093D6038093D50387E895E090930A
:10534000D8038093D7038091370487FD1EC061E0A6
:105350000E94730661E0809137040E94190661E0A3
:1053600070E080E090E00E94EC0660E080913704FD
:105370000E9419066AE070E080E090E00E94EC066E
:1053800061E0809137040E94190680912C0490916D
:105390002D04892B09F42BC18CE08093B80064E0C4
:1053A0008EEC95E00E946B146091150461508FE0C3
:1053B00094E00E940E1564E08AEC95E00E946B1464
:1053C0008091310460E1813009F064E18FE094E084
:1053D0000E940E1564E086EC95E00E946B148091AB
:1053E0001304909114048038910509F02BC1809129
:1053F0001504909116048032910509F00FC164E004
:1054000082EC95E00E946B1469ED8FE094E00E94BD
:105410000E158091310462E2813009F061EF8FE076
:1054200094E00E940E1566E086EB95E00E946B14F6
:1054300080912C0490912D04892B09F41AC120919C
:10544000460430914704409148045091490460E07B
:1054500074E284EF90E00E94C63220513109410984
:10546000510956954795379527952093B800B2CEA8
:1054700061E0809135040E94730661E080913604FA
:105480000E94730680913504082E000C990BFC01D4
:10549000E056F54FE491F0E0EE0FFF1FEE58F54FA8
:1054A0002591349130933D0420933C04FC01EE5748
:1054B000F54FE491E093420480913604082E000CED
:1054C000990BFC01E056F54FE491F0E0EE0FFF1F61
:1054D000EE58F54FA591B491B0933F04A0933E04CC
:1054E000FC01EE57F54FE491E09343048C91E82BD7
:1054F000EC9380912A0490912B04892B09F434C0F9
:105500001FB7F89480915103811127C0EAEAFAE0AD
:105510008491ECE8FAE09491E82FF0E0EE0FFF1FA1
:10552000E455FA4FA591B491EC91E92321F461E09F
:105530008AE00E94190661E08AE00E9473068CB539
:1055400080618CBD8CB580648CBD61E08DE00E9473
:10555000730661E08BE00E947306809151038F5FB8
:10556000809351031FBFEFCE61E0809133040E940E
:10557000730661E0809134040E94730680913304C5
:10558000082E000C990BFC01E056F54FE491F0E079
:10559000EE0FFF1FEE58F54F2591349130933904EB
:1055A00020933804FC01EE57F54FE491E09340045A
:1055B00080913404082E000C990BFC01E056F54F45
:1055C000E491F0E0EE0FFF1FEE58F54FA591B49176
:1055D000B0933B04A0933A04FC01EE57F54FE491DD
:1055E000E09341048C91E095E823EC93ACCE80915C
:1055F0002A0490912B04892B31F0809144049091DE
:1056000045040E946B15E0913E04F0913F049081A7
:1056100080914304809589238083C1CE8034910595
:1056200009F0F2CE63E08FEB95E00E946B1480915D
:1056300031046FE9813009F06FEC8FE094E00E9453
:105640000E15E2CE8036910509F0DECE809115046C
:1056500090911604409709F0D7CE63E08CEB95E06B
:105660000E946B148091310460E1813031F36FEA64
:10567000E4CFE0913E04F0913F0480819091430497
:10568000892B8083A7CD8981803111F48CE00ACEEB
:10569000CE0101960E946C0805CE8B3309F413CE1F
:1056A000823409F0AFCD0FCE1A82198242E050E069
:1056B000BE016F5F7F4F90E080E00E946E1F72E03E
:1056C000E72EF12C10E000E0C7010E94471F080FF1
:1056D000111D5FEFE51AF50A89E1E816F104A1F75B
:1056E0000D5F1F4F89819A810817190709F010C1B2
:1056F00047E150E060E171E082E090E00E946E1FBF
:105700000E948B1F809121018093270110925F04DA
:10571000109260041092610460E880E10E94D41746
:1057200060E881E10E94D41760E882E10E94D4170A
:1057300080E896E3AEEBB6E280932B0190932C01C8
:10574000A0932D01B0932E0162ED87EB0E94D41738
:105750000E94EA1B0E94041C0E94571C0E94691CA4
:105760000E943C1D0E94841E0E94C22010921C04B4
:1057700010921B0410921E0410921D0481E090E010
:1057800090932204809321049093200480931F041B
:1057900083E0809323048093240481E091E00E94BD
:1057A000742081E0809323048093240488EC92E0A9
:1057B0000E9474200E946E1568EE73E080E090E015
:1057C0000E94EC060E94E2201AE06EE8262E6AE0B3
:1057D000362E86E00E94F005892B09F09CC080914E
:1057E00057038F5F80935703809157038B3048F0A6
:1057F00080915603811103C081E08093560310937A
:1058000057038091560390917D0391110CC6882314
:1058100041F060E088E00E94190661E089E00E94A2
:10582000190684E00E94F00520910801892B09F0F7
:1058300022C6222361F0109208010E941F07609384
:1058400058037093590380935A0390935B0380919C
:105850005504823008F087C0F8948AE494E00E94EE
:105860007A1C60915104709152048091530490917C
:10587000540478942091270130E050E040E00E94E9
:105880009C3269017A0180912001882341F0F094D3
:10589000E094D094C094C11CD11CE11CF11C8090F8
:1058A0005E0390905F03A0906003B09061038C143E
:1058B0009D04AE04BF0409F4FAC084E00E94F00520
:1058C000892B09F4F4C0E0917E038FEF8E0F8430B2
:1058D00018F481E080935D03E43108F0D1C0F0E07A
:1058E000EC58F34D0C94C534B52CC12DE12DFF2D92
:1058F000062E2A2E4E2EBB2E282F572F9F2FC42F19
:10590000EA2F0A3026303930563076309330B030B6
:105910000E948F1BF5CE8091560310925703882367
:1059200009F462CF109256030E941F07609352033E
:1059300070935303809354039093550355CF109263
:105940007E03B9C58F5F843059F080937E038091C8
:105950007E03843108F4C8C584E080937E03C4C507
:1059600010927E03F4CFF8947CCF40900A015090BF
:105970000B0160900C0170900D01A0910F01B0E03F
:1059800020EA36E841E050E00E94BB326D877E8716
:105990008F87988BA0910E01B0E00E94BB3269877F
:1059A0007A878B879C878C149D04AE04BF040CF00F
:1059B000B8C02D853E854F85588924153505460587
:1059C000570550F1E0911001F0E0EE0FFF1FE25C8F
:1059D000FE4F20813181AAE0B0E00E94E8324B0105
:1059E0005C01C301B201A50194010E94C632480CBA
:1059F000591C6A1C7B1C611571058105910521F0FC
:105A0000461A570A680A790A40920A0150920B0115
:105A100060920C0170920D0180910A0190910B012E
:105A2000A0910C01B0910D0129853A854B855C85CB
:105A300082179307A407B50740F420930A01309317
:105A40000B0140930C0150930D0180910A0190913C
:105A50000B01A0910C01B0910D012D853E854F8564
:105A60005889281739074A075B0740F420930A0131
:105A700030930B0140930C0150930D010E94041CC4
:105A80000E941F07609375037093760380937703DA
:105A90009093780381E0809374030E94E220C09287
:105AA0005E03D0925F03E0926003F092610381E1B4
:105AB0000E94F00520917D03892B09F423C5211153
:105AC00005C081E080937D030E94E22080917D03E8
:105AD000882309F40FC48091730381110BC4809152
